{
  "contractName": "BNDESGovernanceDecision",
  "abi": [
    {
      "constant": true,
      "inputs": [],
      "name": "status",
      "outputs": [
        {
          "name": "",
          "type": "uint8"
        }
      ],
      "payable": false,
      "stateMutability": "view",
      "type": "function"
    },
    {
      "constant": false,
      "inputs": [],
      "name": "renounceOwnership",
      "outputs": [],
      "payable": false,
      "stateMutability": "nonpayable",
      "type": "function"
    },
    {
      "constant": true,
      "inputs": [
        {
          "name": "",
          "type": "address"
        }
      ],
      "name": "voting",
      "outputs": [
        {
          "name": "",
          "type": "bool"
        }
      ],
      "payable": false,
      "stateMutability": "view",
      "type": "function"
    },
    {
      "constant": true,
      "inputs": [],
      "name": "owner",
      "outputs": [
        {
          "name": "",
          "type": "address"
        }
      ],
      "payable": false,
      "stateMutability": "view",
      "type": "function"
    },
    {
      "constant": true,
      "inputs": [],
      "name": "isOwner",
      "outputs": [
        {
          "name": "",
          "type": "bool"
        }
      ],
      "payable": false,
      "stateMutability": "view",
      "type": "function"
    },
    {
      "constant": false,
      "inputs": [
        {
          "name": "newOwner",
          "type": "address"
        }
      ],
      "name": "transferOwnership",
      "outputs": [],
      "payable": false,
      "stateMutability": "nonpayable",
      "type": "function"
    },
    {
      "inputs": [
        {
          "name": "_voters",
          "type": "address[]"
        },
        {
          "name": "_percentage",
          "type": "uint256"
        },
        {
          "name": "_period",
          "type": "uint256"
        }
      ],
      "payable": false,
      "stateMutability": "nonpayable",
      "type": "constructor"
    },
    {
      "anonymous": false,
      "inputs": [
        {
          "indexed": true,
          "name": "previousOwner",
          "type": "address"
        },
        {
          "indexed": true,
          "name": "newOwner",
          "type": "address"
        }
      ],
      "name": "OwnershipTransferred",
      "type": "event"
    },
    {
      "constant": false,
      "inputs": [],
      "name": "startProposal",
      "outputs": [],
      "payable": false,
      "stateMutability": "nonpayable",
      "type": "function"
    },
    {
      "constant": false,
      "inputs": [
        {
          "name": "_voters",
          "type": "address[]"
        }
      ],
      "name": "addVoters",
      "outputs": [],
      "payable": false,
      "stateMutability": "nonpayable",
      "type": "function"
    },
    {
      "constant": false,
      "inputs": [
        {
          "name": "_choose",
          "type": "bool"
        }
      ],
      "name": "vote",
      "outputs": [],
      "payable": false,
      "stateMutability": "nonpayable",
      "type": "function"
    },
    {
      "constant": false,
      "inputs": [
        {
          "name": "_percentage",
          "type": "uint256"
        }
      ],
      "name": "setPercentage",
      "outputs": [],
      "payable": false,
      "stateMutability": "nonpayable",
      "type": "function"
    },
    {
      "constant": false,
      "inputs": [],
      "name": "getResolution",
      "outputs": [
        {
          "name": "",
          "type": "uint8"
        }
      ],
      "payable": false,
      "stateMutability": "nonpayable",
      "type": "function"
    },
    {
      "constant": true,
      "inputs": [],
      "name": "getProposalPeriod",
      "outputs": [
        {
          "name": "",
          "type": "uint256"
        }
      ],
      "payable": false,
      "stateMutability": "view",
      "type": "function"
    },
    {
      "constant": false,
      "inputs": [
        {
          "name": "_proposalPeriod",
          "type": "uint256"
        }
      ],
      "name": "setProposalPeriod",
      "outputs": [
        {
          "name": "",
          "type": "bool"
        }
      ],
      "payable": false,
      "stateMutability": "nonpayable",
      "type": "function"
    }
  ],
  "bytecode": "0x6080604052600060045560006005553480156200001b57600080fd5b50604051620017ee380380620017ee833981018060405260608110156200004157600080fd5b8101908080516401000000008111156200005a57600080fd5b828101905060208101848111156200007157600080fd5b81518560208202830111640100000000821117156200008f57600080fd5b50509291906020018051906020019092919080519060200190929190505050336000806101000a81548173ffffffffffffffffffffffffffffffffffffffff021916908373ffffffffffffffffffffffffffffffffffffffff1602179055506000809054906101000a900473ffffffffffffffffffffffffffffffffffffffff1673ffffffffffffffffffffffffffffffffffffffff16600073ffffffffffffffffffffffffffffffffffffffff167f8be0079c531659141344cd1fd0a4f28419497f9722a3daafe3b4186f6b6457e060405160405180910390a36000600681905550806007819055506200019383620001da640100000000026401000000009004565b620001ad82620002eb640100000000026401000000009004565b60008060146101000a81548160ff02191690836004811115620001cc57fe5b02179055505050506200030a565b60008090505b8151811015620002e757600360008383815181101515620001fd57fe5b9060200190602002015173ffffffffffffffffffffffffffffffffffffffff1673ffffffffffffffffffffffffffffffffffffffff16815260200190815260200160002060009054906101000a900460ff161515620002d95760016003600084848151811015156200026b57fe5b9060200190602002015173ffffffffffffffffffffffffffffffffffffffff1673ffffffffffffffffffffffffffffffffffffffff16815260200190815260200160002060006101000a81548160ff0219169083151502179055506004600081548092919060010191905055505b8080600101915050620001e0565b5050565b8060018190555060646001541115620003075760646001819055505b50565b6114d4806200031a6000396000f3fe6080604052600436106100c5576000357c0100000000000000000000000000000000000000000000000000000000900463ffffffff16806317d6fe1c146100ca578063200d2ed214610103578063274da81f1461013c5780634b9f5c98146101535780635da4a1d314610190578063715018a6146101cb5780638203373a146101e25780638d5c9680146102a75780638da5cb5b146103105780638f32d59b14610367578063c829c6b914610396578063dfe3e333146103e9578063f2fde38b14610414575b600080fd5b3480156100d657600080fd5b506100df610465565b604051808260048111156100ef57fe5b60ff16815260200191505060405180910390f35b34801561010f57600080fd5b506101186106f1565b6040518082600481111561012857fe5b60ff16815260200191505060405180910390f35b34801561014857600080fd5b50610151610704565b005b34801561015f57600080fd5b5061018e6004803603602081101561017657600080fd5b81019080803515159060200190929190505050610800565b005b34801561019c57600080fd5b506101c9600480360360208110156101b357600080fd5b8101908080359060200190929190505050610bc3565b005b3480156101d757600080fd5b506101e0610dff565b005b3480156101ee57600080fd5b506102a56004803603602081101561020557600080fd5b810190808035906020019064010000000081111561022257600080fd5b82018360208201111561023457600080fd5b8035906020019184602083028401116401000000008311171561025657600080fd5b919080806020026020016040519081016040528093929190818152602001838360200280828437600081840152601f19601f820116905080830192505050505050509192919290505050610ed1565b005b3480156102b357600080fd5b506102f6600480360360208110156102ca57600080fd5b81019080803573ffffffffffffffffffffffffffffffffffffffff16906020019092919050505061110d565b604051808215151515815260200191505060405180910390f35b34801561031c57600080fd5b5061032561112d565b604051808273ffffffffffffffffffffffffffffffffffffffff1673ffffffffffffffffffffffffffffffffffffffff16815260200191505060405180910390f35b34801561037357600080fd5b5061037c611156565b604051808215151515815260200191505060405180910390f35b3480156103a257600080fd5b506103cf600480360360208110156103b957600080fd5b81019080803590602001909291905050506111ad565b604051808215151515815260200191505060405180910390f35b3480156103f557600080fd5b506103fe6111d2565b6040518082815260200191505060405180910390f35b34801561042057600080fd5b506104636004803603602081101561043757600080fd5b81019080803573ffffffffffffffffffffffffffffffffffffffff1690602001909291905050506111dc565b005b60004361047f6007546006546111fb90919063ffffffff16565b10156104aa576003600060146101000a81548160ff021916908360048111156104a457fe5b02179055505b600060048111156104b757fe5b600060149054906101000a900460ff1660048111156104d257fe5b14151515610548576040517f08c379a00000000000000000000000000000000000000000000000000000000081526004018080602001828103825260118152602001807f496e76616c69642070726f706f73616c2100000000000000000000000000000081525060200191505060405180910390fd5b6002600481111561055557fe5b600060149054906101000a900460ff16600481111561057057fe5b141515156105e6576040517f08c379a00000000000000000000000000000000000000000000000000000000081526004018080602001828103825260188152602001807f557067726164696e6720686173206265656e20646f6e6521000000000000000081525060200191505060405180910390fd5b600360048111156105f357fe5b600060149054906101000a900460ff16600481111561060e57fe5b14151515610684576040517f08c379a00000000000000000000000000000000000000000000000000000000081526004018080602001828103825260148152602001807f50726f706f73616c20697320657870697265642100000000000000000000000081525060200191505060405180910390fd5b6106ae60646106a060015460045461121c90919063ffffffff16565b61125a90919063ffffffff16565b60055411156106dc576002600060146101000a81548160ff021916908360048111156106d657fe5b02179055505b600060149054906101000a900460ff16905090565b600060149054906101000a900460ff1681565b61070c611156565b151561071757600080fd5b6000600481111561072457fe5b600060149054906101000a900460ff16600481111561073f57fe5b1415156107da576040517f08c379a00000000000000000000000000000000000000000000000000000000081526004018080602001828103825260228152602001807f50726f706f73616c20686173206265656e20616c72656164792073746172746581526020017f642100000000000000000000000000000000000000000000000000000000000081525060400191505060405180910390fd5b6001600060146101000a81548160ff021916908360048111156107f957fe5b0217905550565b436108186007546006546111fb90919063ffffffff16565b1015610843576003600060146101000a81548160ff0219169083600481111561083d57fe5b02179055505b6000600481111561085057fe5b600060149054906101000a900460ff16600481111561086b57fe5b141515156108e1576040517f08c379a00000000000000000000000000000000000000000000000000000000081526004018080602001828103825260118152602001807f496e76616c69642070726f706f73616c2100000000000000000000000000000081525060200191505060405180910390fd5b600260048111156108ee57fe5b600060149054906101000a900460ff16600481111561090957fe5b1415151561097f576040517f08c379a00000000000000000000000000000000000000000000000000000000081526004018080602001828103825260188152602001807f557067726164696e6720686173206265656e20646f6e6521000000000000000081525060200191505060405180910390fd5b6003600481111561098c57fe5b600060149054906101000a900460ff1660048111156109a757fe5b14151515610a1d576040517f08c379a00000000000000000000000000000000000000000000000000000000081526004018080602001828103825260148152602001807f50726f706f73616c20697320657870697265642100000000000000000000000081525060200191505060405180910390fd5b600360003373ffffffffffffffffffffffffffffffffffffffff1673ffffffffffffffffffffffffffffffffffffffff16815260200190815260200160002060009054906101000a900460ff161515610ade576040517f08c379a000000000000000000000000000000000000000000000000000000000815260040180806020018281038252601b8152602001807f446f206e6f74206861766520746865207065726d697373696f6e21000000000081525060200191505060405180910390fd5b801515600260003373ffffffffffffffffffffffffffffffffffffffff1673ffffffffffffffffffffffffffffffffffffffff16815260200190815260200160002060009054906101000a900460ff161515141515610bc0578015610b5457600560008154809291906001019190505550610b68565b600560008154809291906001900391905055505b80600260003373ffffffffffffffffffffffffffffffffffffffff1673ffffffffffffffffffffffffffffffffffffffff16815260200190815260200160002060006101000a81548160ff0219169083151502179055505b50565b43610bdb6007546006546111fb90919063ffffffff16565b1015610c06576003600060146101000a81548160ff02191690836004811115610c0057fe5b02179055505b60006004811115610c1357fe5b600060149054906101000a900460ff166004811115610c2e57fe5b14151515610ca4576040517f08c379a00000000000000000000000000000000000000000000000000000000081526004018080602001828103825260118152602001807f496e76616c69642070726f706f73616c2100000000000000000000000000000081525060200191505060405180910390fd5b60026004811115610cb157fe5b600060149054906101000a900460ff166004811115610ccc57fe5b14151515610d42576040517f08c379a00000000000000000000000000000000000000000000000000000000081526004018080602001828103825260188152602001807f557067726164696e6720686173206265656e20646f6e6521000000000000000081525060200191505060405180910390fd5b60036004811115610d4f57fe5b600060149054906101000a900460ff166004811115610d6a57fe5b14151515610de0576040517f08c379a00000000000000000000000000000000000000000000000000000000081526004018080602001828103825260148152602001807f50726f706f73616c20697320657870697265642100000000000000000000000081525060200191505060405180910390fd5b610de8611156565b1515610df357600080fd5b610dfc81611284565b50565b610e07611156565b1515610e1257600080fd5b600073ffffffffffffffffffffffffffffffffffffffff166000809054906101000a900473ffffffffffffffffffffffffffffffffffffffff1673ffffffffffffffffffffffffffffffffffffffff167f8be0079c531659141344cd1fd0a4f28419497f9722a3daafe3b4186f6b6457e060405160405180910390a360008060006101000a81548173ffffffffffffffffffffffffffffffffffffffff021916908373ffffffffffffffffffffffffffffffffffffffff160217905550565b43610ee96007546006546111fb90919063ffffffff16565b1015610f14576003600060146101000a81548160ff02191690836004811115610f0e57fe5b02179055505b60006004811115610f2157fe5b600060149054906101000a900460ff166004811115610f3c57fe5b14151515610fb2576040517f08c379a00000000000000000000000000000000000000000000000000000000081526004018080602001828103825260118152602001807f496e76616c69642070726f706f73616c2100000000000000000000000000000081525060200191505060405180910390fd5b60026004811115610fbf57fe5b600060149054906101000a900460ff166004811115610fda57fe5b14151515611050576040517f08c379a00000000000000000000000000000000000000000000000000000000081526004018080602001828103825260188152602001807f557067726164696e6720686173206265656e20646f6e6521000000000000000081525060200191505060405180910390fd5b6003600481111561105d57fe5b600060149054906101000a900460ff16600481111561107857fe5b141515156110ee576040517f08c379a00000000000000000000000000000000000000000000000000000000081526004018080602001828103825260148152602001807f50726f706f73616c20697320657870697265642100000000000000000000000081525060200191505060405180910390fd5b6110f6611156565b151561110157600080fd5b61110a816112a2565b50565b60026020528060005260406000206000915054906101000a900460ff1681565b60008060009054906101000a900473ffffffffffffffffffffffffffffffffffffffff16905090565b60008060009054906101000a900473ffffffffffffffffffffffffffffffffffffffff1673ffffffffffffffffffffffffffffffffffffffff163373ffffffffffffffffffffffffffffffffffffffff1614905090565b60006111b7611156565b15156111c257600080fd5b8160078190555060019050919050565b6000600754905090565b6111e4611156565b15156111ef57600080fd5b6111f8816113ae565b50565b600080828401905083811015151561121257600080fd5b8091505092915050565b60008083141561122f5760009050611254565b6000828402905082848281151561124257fe5b0414151561124f57600080fd5b809150505b92915050565b6000808211151561126a57600080fd5b6000828481151561127757fe5b0490508091505092915050565b806001819055506064600154111561129f5760646001819055505b50565b60008090505b81518110156113aa576003600083838151811015156112c357fe5b9060200190602002015173ffffffffffffffffffffffffffffffffffffffff1673ffffffffffffffffffffffffffffffffffffffff16815260200190815260200160002060009054906101000a900460ff16151561139d57600160036000848481518110151561132f57fe5b9060200190602002015173ffffffffffffffffffffffffffffffffffffffff1673ffffffffffffffffffffffffffffffffffffffff16815260200190815260200160002060006101000a81548160ff0219169083151502179055506004600081548092919060010191905055505b80806001019150506112a8565b5050565b600073ffffffffffffffffffffffffffffffffffffffff168173ffffffffffffffffffffffffffffffffffffffff16141515156113ea57600080fd5b8073ffffffffffffffffffffffffffffffffffffffff166000809054906101000a900473ffffffffffffffffffffffffffffffffffffffff1673ffffffffffffffffffffffffffffffffffffffff167f8be0079c531659141344cd1fd0a4f28419497f9722a3daafe3b4186f6b6457e060405160405180910390a3806000806101000a81548173ffffffffffffffffffffffffffffffffffffffff021916908373ffffffffffffffffffffffffffffffffffffffff1602179055505056fea165627a7a723058203480700288d2aaa85740f86a8a131ca94501450d092295ee8999c3216eec923d0029",
  "source": "pragma solidity ^0.5.0;\r\n\r\nimport \"openzeppelin-solidity/contracts/math/SafeMath.sol\";\r\nimport \"openzeppelin-solidity/contracts/ownership/Ownable.sol\";\r\n\r\n/**\r\n * The upgrader works in following steps:\r\n *   1. Call startProposal() to start the voting process;\r\n *   2. Call getResolution() before the expiration;\r\n *   3. Upgrade succeed or proposal is expired.\r\n *    * Function done() can be called at any time to let upgrader destruct itself.\r\n *    * Function status() can be called at any time to show caller status of the upgrader.\r\n */\r\ncontract BNDESGovernanceDecision is Ownable() {\r\n\r\n\tusing SafeMath for uint256;\r\n\r\n\t/** Marker */\r\n\tenum UpgraderStatus {\r\n\t\tPreparing,\r\n\t\tVoting,\r\n\t\tSuccess,\r\n\t\tExpired,\r\n\t\tEnd\r\n\t}\r\n\tUpgraderStatus public status;\r\n\r\n\t/** Voting mechanism related */\r\n\tuint256 private percentage;\r\n\tmapping(address => bool) public voting;\r\n\tmapping(address => bool) private voterRegistered;\r\n\tuint256 private numOfVoters = 0;\r\n\tuint256 private numOfAgreements = 0;\r\n\r\n    uint256 private proposalBlockNumber;\r\n\tuint256 private proposalPeriod;\r\n\r\n\t/**\r\n\t * Check if the proposal is expired.\r\n\t * If so, contract would be marked as expired.\r\n\t *\r\n\t * exception\tPreparingUpgraderException\tproposal has not been started.\r\n\t * exception\tReupgradingException\tupgrading has been done.\r\n\t * exception\tExpirationException\tproposal is expired.\r\n\t */\r\n\tmodifier notExpired {\r\n\r\n        if (proposalBlockNumber.add(proposalPeriod) < block.number) {\r\n\t\t\t\tstatus = UpgraderStatus.Expired;\r\n\t\t}\r\n\t\trequire(status != UpgraderStatus.Preparing, \"Invalid proposal!\");\r\n\t\trequire(status != UpgraderStatus.Success, \"Upgrading has been done!\");\r\n\t\trequire(status != UpgraderStatus.Expired, \"Proposal is expired!\");\r\n\t\t_;\r\n\t}\r\n\r\n\t/**\r\n\t * Constructor.\r\n\t *\r\n\t * @param\t_voters\taddresses of voters.\r\n\t * @param\t_percentage\tvalue of this.percentage.\r\n\t *\r\n\t * exception\tUninitializationException\t_dataAddr does not belong to a deployed Data contract having been initialization.\r\n\t * exception\tUpgraderConflictException\tanother upgrader is working.\r\n\t * exception\tInvalidHandlerException\t_originalAddr or _newAddr does not belong to a deployed Handler contract.\r\n\t */\r\n\tconstructor (address[] memory _voters, uint256 _percentage, uint256 _period) public {\r\n\r\n        proposalBlockNumber = 0;\r\n\t\tproposalPeriod = _period;\r\n\r\n\t\t_addVoters(_voters);\r\n\t\t_setPercentage(_percentage);\r\n\r\n\t\t// Mark the contract as preparing.\r\n\t\tstatus = UpgraderStatus.Preparing;\r\n\t}\r\n\r\n\r\n\t/**\r\n\t * Start voting.\r\n\t * Upgrader must check if Data contract and 2 Handler contracts are ok.\r\n\t *\r\n\t * exception\tRestartingException\tproposal has been already started.\r\n\t * exception\tPermissionException\tmsg.sender is not the owner.\r\n\t */\r\n\tfunction startProposal () external onlyOwner {\r\n\t require(status == UpgraderStatus.Preparing, \"Proposal has been already started!\");\r\n\r\n\t\t// Mark the contract as voting.\r\n\t\tstatus = UpgraderStatus.Voting;\r\n\t}\r\n\r\n\t/**\r\n\t * Add unique voters.\r\n\t * If expired, self-destruct.\r\n\t *\r\n\t * @param\t_voters\taddresses of voters.\r\n\t *\r\n\t * exception\tPermissionException\tmsg.sender is not the owner.\r\n\t * \r\n\t * see  this.notExpired\r\n\t */\r\n\tfunction addVoters (address[] memory _voters) public notExpired onlyOwner {\r\n\t\t_addVoters(_voters);\r\n\t}\r\n\r\n\tfunction _addVoters (address[] memory _voters) internal {\r\n\t\tfor (uint256 i = 0; i < _voters.length; i++) {\r\n\t\t\tif (!voterRegistered[_voters[i]]) {\r\n\t\t\t\tvoterRegistered[_voters[i]] = true;\r\n\t\t\t\tnumOfVoters++;\r\n\t\t\t}\r\n\t\t}\r\n\t}\r\n\r\n\t/**\r\n\t * Vote.\r\n\t * If expired, self-destruct.\r\n\t *\r\n\t * @param\t_choose\tif the voter agrees with the proposal.\r\n\t *\r\n\t * exception\tPermissionException\tmsg.sender is not a voter.\r\n\t * \r\n\t * see  this.notExpired\r\n\t */\r\n\tfunction vote (bool _choose) external notExpired {\r\n\t\trequire(voterRegistered[msg.sender], \"Do not have the permission!\");\r\n\t\tif (voting[msg.sender] != _choose) {\r\n\t\t\tif (_choose) {\r\n\t\t\t\tnumOfAgreements++;\r\n\t\t\t} else {\r\n\t\t\t\tnumOfAgreements--;\r\n\t\t\t}\r\n\t\t\tvoting[msg.sender] = _choose;\r\n\t\t}\r\n\t}\r\n\r\n\t/**\r\n\t * Set percentage.\r\n\t * If percentage is over 100, it will be fixed automatically.\r\n\t *\r\n\t * @param\t_percentage\tvalue of this.percentage.\r\n\t *\r\n\t * exception\tPermissionException\tmsg.sender is not the owner.\r\n\t * \r\n\t * see  this.notExpired\r\n\t */\r\n\tfunction setPercentage(uint256 _percentage) external notExpired onlyOwner {\r\n\t\t_setPercentage(_percentage);\r\n\t}\r\n\r\n\tfunction _setPercentage(uint256 _percentage) internal {\r\n\t\tpercentage = _percentage;\r\n\t\tif (percentage > 100) {\r\n\t\t\tpercentage = 100;\r\n\t\t}\r\n\t}\r\n\r\n\t/**\r\n\t * Anyone can try to get resolution.\r\n\t * If voters get consensus, upgrade the Handler contract.\r\n\t * If expired, self-destruct.\r\n\t * Otherwise, do nothing.\r\n\t *\r\n\t * exception\tPreparingUpgraderException\tproposal has not been started.\r\n\t *\r\n\t * @return\tstatus of proposal.\r\n\t * \r\n\t * see  this.notExpired\r\n\t */\r\n\tfunction getResolution() external notExpired returns(UpgraderStatus) {\r\n\t\tif (numOfAgreements > numOfVoters.mul(percentage).div(100)) {\r\n\t\t\tstatus = UpgraderStatus.Success;\r\n\t\t}\r\n\t\treturn status;\r\n\t}\r\n\r\n\t/**\r\n\t * Destruct itself.\r\n\t *\r\n\t * exception\tPermissionException\tmsg.sender is not the owner.\r\n\t */\r\n/*\tfunction done() external onlyOwner {\r\n\t\tselfdestruct(owner());\r\n\t}\r\n*/\r\n\r\n\r\n\t/**\r\n\t * Getter of proposalPeriod.\r\n\t *\r\n\t * exception\tGetterPermissionException\tmsg.sender is not permitted to call the getter.\r\n\t *\r\n\t * @return\tthis.proposalPeriod.\r\n\t */\r\n\tfunction getProposalPeriod () public view returns(uint256) {\r\n\t\treturn proposalPeriod;\r\n\t}\r\n\r\n\t/**\r\n\t * Setter of proposalPeriod.\r\n\t *\r\n\t * @param\t_proposalPeriod\tnew value of this.proposalPeriod.\r\n\t *\r\n\t * exception\tPermissionException\tmsg.sender is not the owner.\r\n\t *\r\n\t * @return\tif this.proposalPeriod is successfully set.\r\n\t */\r\n\tfunction setProposalPeriod (uint256 _proposalPeriod) public onlyOwner returns(bool) {\r\n\t\tproposalPeriod = _proposalPeriod;\r\n\t\treturn true;\r\n\t}\r\n\r\n}",
  "sourcePath": "D:/Workspace/bndestoken/Back-Blockchain-Upgrade/contracts/BndesGovernanceDecision.sol",
  "compiler": {
    "name": "solc",
    "version": "0.5.0+commit.1d4f565a.Emscripten.clang"
  },
  "schemaVersion": "3.0.5",
  "updatedAt": "2019-09-10T18:29:58.559Z",
  "devdoc": {
    "methods": {
      "addVoters(address[])": {
        "params": {
          "_voters": "addresses of voters.\r \t * exception\tPermissionException\tmsg.sender is not the owner.\r \r see  this.notExpired\r"
        }
      },
      "constructor": {
        "params": {
          "_percentage": "value of this.percentage.\r \t * exception\tUninitializationException\t_dataAddr does not belong to a deployed Data contract having been initialization.\r exception\tUpgraderConflictException\tanother upgrader is working.\r exception\tInvalidHandlerException\t_originalAddr or _newAddr does not belong to a deployed Handler contract.\r",
          "_voters": "addresses of voters.\r"
        }
      },
      "getProposalPeriod()": {
        "return": "this.proposalPeriod.\r"
      },
      "getResolution()": {
        "return": "status of proposal.\r \r see  this.notExpired\r"
      },
      "isOwner()": {
        "return": "true if `msg.sender` is the owner of the contract."
      },
      "owner()": {
        "return": "the address of the owner."
      },
      "renounceOwnership()": {
        "details": "Allows the current owner to relinquish control of the contract."
      },
      "setPercentage(uint256)": {
        "params": {
          "_percentage": "value of this.percentage.\r \t * exception\tPermissionException\tmsg.sender is not the owner.\r \r see  this.notExpired\r"
        }
      },
      "setProposalPeriod(uint256)": {
        "params": {
          "_proposalPeriod": "new value of this.proposalPeriod.\r \t * exception\tPermissionException\tmsg.sender is not the owner.\r "
        },
        "return": "if this.proposalPeriod is successfully set.\r"
      },
      "transferOwnership(address)": {
        "details": "Allows the current owner to transfer control of the contract to a newOwner.",
        "params": {
          "newOwner": "The address to transfer ownership to."
        }
      },
      "vote(bool)": {
        "params": {
          "_choose": "if the voter agrees with the proposal.\r \t * exception\tPermissionException\tmsg.sender is not a voter.\r \r see  this.notExpired\r"
        }
      }
    }
  },
  "userdoc": {
    "methods": {
      "addVoters(address[])": {
        "notice": "Add unique voters.\r If expired, self-destruct.\r "
      },
      "constructor": "Constructor.\r ",
      "getProposalPeriod()": {
        "notice": "Getter of proposalPeriod.\r \t * exception\tGetterPermissionException\tmsg.sender is not permitted to call the getter.\r "
      },
      "getResolution()": {
        "notice": "Anyone can try to get resolution.\r If voters get consensus, upgrade the Handler contract.\r If expired, self-destruct.\r Otherwise, do nothing.\r \t * exception\tPreparingUpgraderException\tproposal has not been started.\r "
      },
      "renounceOwnership()": {
        "notice": "Renouncing to ownership will leave the contract without an owner. It will not be possible to call the functions with the `onlyOwner` modifier anymore."
      },
      "setPercentage(uint256)": {
        "notice": "Set percentage.\r If percentage is over 100, it will be fixed automatically.\r "
      },
      "setProposalPeriod(uint256)": {
        "notice": "Setter of proposalPeriod.\r "
      },
      "startProposal()": {
        "notice": "Start voting.\r Upgrader must check if Data contract and 2 Handler contracts are ok.\r \t * exception\tRestartingException\tproposal has been already started.\r exception\tPermissionException\tmsg.sender is not the owner.\r"
      },
      "vote(bool)": {
        "notice": "Vote.\r If expired, self-destruct.\r "
      }
    },
    "notice": "The upgrader works in following steps:\r  1. Call startProposal() to start the voting process;\r  2. Call getResolution() before the expiration;\r  3. Upgrade succeed or proposal is expired.\r   * Function done() can be called at any time to let upgrader destruct itself.\r   * Function status() can be called at any time to show caller status of the upgrader.\r"
  }
}