{
  "contractName": "BNDESGovernance",
  "abi": [
    {
      "constant": true,
      "inputs": [],
      "name": "status",
      "outputs": [
        {
          "name": "",
          "type": "uint8"
        }
      ],
      "payable": false,
      "stateMutability": "view",
      "type": "function"
    },
    {
      "constant": false,
      "inputs": [],
      "name": "renounceOwnership",
      "outputs": [],
      "payable": false,
      "stateMutability": "nonpayable",
      "type": "function"
    },
    {
      "constant": true,
      "inputs": [
        {
          "name": "",
          "type": "address"
        }
      ],
      "name": "voting",
      "outputs": [
        {
          "name": "",
          "type": "bool"
        }
      ],
      "payable": false,
      "stateMutability": "view",
      "type": "function"
    },
    {
      "constant": true,
      "inputs": [],
      "name": "owner",
      "outputs": [
        {
          "name": "",
          "type": "address"
        }
      ],
      "payable": false,
      "stateMutability": "view",
      "type": "function"
    },
    {
      "constant": true,
      "inputs": [],
      "name": "isOwner",
      "outputs": [
        {
          "name": "",
          "type": "bool"
        }
      ],
      "payable": false,
      "stateMutability": "view",
      "type": "function"
    },
    {
      "constant": false,
      "inputs": [
        {
          "name": "newOwner",
          "type": "address"
        }
      ],
      "name": "transferOwnership",
      "outputs": [],
      "payable": false,
      "stateMutability": "nonpayable",
      "type": "function"
    },
    {
      "inputs": [
        {
          "name": "_voters",
          "type": "address[]"
        },
        {
          "name": "_percentage",
          "type": "uint256"
        }
      ],
      "payable": false,
      "stateMutability": "nonpayable",
      "type": "constructor"
    },
    {
      "anonymous": false,
      "inputs": [
        {
          "indexed": true,
          "name": "previousOwner",
          "type": "address"
        },
        {
          "indexed": true,
          "name": "newOwner",
          "type": "address"
        }
      ],
      "name": "OwnershipTransferred",
      "type": "event"
    },
    {
      "constant": false,
      "inputs": [],
      "name": "startProposal",
      "outputs": [],
      "payable": false,
      "stateMutability": "nonpayable",
      "type": "function"
    },
    {
      "constant": false,
      "inputs": [
        {
          "name": "_voters",
          "type": "address[]"
        }
      ],
      "name": "addVoters",
      "outputs": [],
      "payable": false,
      "stateMutability": "nonpayable",
      "type": "function"
    },
    {
      "constant": false,
      "inputs": [
        {
          "name": "_choose",
          "type": "bool"
        }
      ],
      "name": "vote",
      "outputs": [],
      "payable": false,
      "stateMutability": "nonpayable",
      "type": "function"
    },
    {
      "constant": false,
      "inputs": [
        {
          "name": "_percentage",
          "type": "uint256"
        }
      ],
      "name": "setPercentage",
      "outputs": [],
      "payable": false,
      "stateMutability": "nonpayable",
      "type": "function"
    },
    {
      "constant": false,
      "inputs": [],
      "name": "getResolution",
      "outputs": [
        {
          "name": "",
          "type": "uint8"
        }
      ],
      "payable": false,
      "stateMutability": "nonpayable",
      "type": "function"
    },
    {
      "constant": false,
      "inputs": [],
      "name": "done",
      "outputs": [],
      "payable": true,
      "stateMutability": "payable",
      "type": "function"
    }
  ],
  "bytecode": "0x6080604052600060065560006007553480156200001b57600080fd5b506040516200191538038062001915833981018060405260408110156200004157600080fd5b8101908080516401000000008111156200005a57600080fd5b828101905060208101848111156200007157600080fd5b81518560208202830111640100000000821117156200008f57600080fd5b505092919060200180519060200190929190505050336000806101000a81548173ffffffffffffffffffffffffffffffffffffffff021916908373ffffffffffffffffffffffffffffffffffffffff1602179055506000809054906101000a900473ffffffffffffffffffffffffffffffffffffffff1673ffffffffffffffffffffffffffffffffffffffff16600073ffffffffffffffffffffffffffffffffffffffff167f8be0079c531659141344cd1fd0a4f28419497f9722a3daafe3b4186f6b6457e060405160405180910390a36200017a82620001c0640100000000026401000000009004565b6200019481620002d1640100000000026401000000009004565b60008060146101000a81548160ff02191690836003811115620001b357fe5b02179055505050620002f0565b60008090505b8151811015620002cd57600560008383815181101515620001e357fe5b9060200190602002015173ffffffffffffffffffffffffffffffffffffffff1673ffffffffffffffffffffffffffffffffffffffff16815260200190815260200160002060009054906101000a900460ff161515620002bf5760016005600084848151811015156200025157fe5b9060200190602002015173ffffffffffffffffffffffffffffffffffffffff1673ffffffffffffffffffffffffffffffffffffffff16815260200190815260200160002060006101000a81548160ff0219169083151502179055506006600081548092919060010191905055505b8080600101915050620001c6565b5050565b8060038190555060646003541115620002ed5760646003819055505b50565b61161580620003006000396000f3fe6080604052600436106100ba576000357c0100000000000000000000000000000000000000000000000000000000900463ffffffff16806317d6fe1c146100bf578063200d2ed2146100f8578063274da81f146101315780634b9f5c98146101485780635da4a1d314610185578063715018a6146101c05780638203373a146101d75780638d5c96801461029c5780638da5cb5b146103055780638f32d59b1461035c578063ae8421e11461038b578063f2fde38b14610395575b600080fd5b3480156100cb57600080fd5b506100d46103e6565b604051808260038111156100e457fe5b60ff16815260200191505060405180910390f35b34801561010457600080fd5b5061010d6106e6565b6040518082600381111561011d57fe5b60ff16815260200191505060405180910390f35b34801561013d57600080fd5b506101466106f9565b005b34801561015457600080fd5b506101836004803603602081101561016b57600080fd5b810190808035151590602001909291905050506107fc565b005b34801561019157600080fd5b506101be600480360360208110156101a857600080fd5b8101908080359060200190929190505050610c34565b005b3480156101cc57600080fd5b506101d5610ee5565b005b3480156101e357600080fd5b5061029a600480360360208110156101fa57600080fd5b810190808035906020019064010000000081111561021757600080fd5b82018360208201111561022957600080fd5b8035906020019184602083028401116401000000008311171561024b57600080fd5b919080806020026020016040519081016040528093929190818152602001838360200280828437600081840152601f19601f820116905080830192505050505050509192919290505050610fb7565b005b3480156102a857600080fd5b506102eb600480360360208110156102bf57600080fd5b81019080803573ffffffffffffffffffffffffffffffffffffffff169060200190929190505050611268565b604051808215151515815260200191505060405180910390f35b34801561031157600080fd5b5061031a611288565b604051808273ffffffffffffffffffffffffffffffffffffffff1673ffffffffffffffffffffffffffffffffffffffff16815260200191505060405180910390f35b34801561036857600080fd5b506103716112b1565b604051808215151515815260200191505060405180910390f35b610393611308565b005b3480156103a157600080fd5b506103e4600480360360208110156103b857600080fd5b81019080803573ffffffffffffffffffffffffffffffffffffffff16906020019092919050505061131d565b005b60008060038111156103f457fe5b600060149054906101000a900460ff16600381111561040f57fe5b14151515610485576040517f08c379a00000000000000000000000000000000000000000000000000000000081526004018080602001828103825260118152602001807f496e76616c69642070726f706f73616c2100000000000000000000000000000081525060200191505060405180910390fd5b6002600381111561049257fe5b600060149054906101000a900460ff1660038111156104ad57fe5b14151515610523576040517f08c379a00000000000000000000000000000000000000000000000000000000081526004018080602001828103825260188152602001807f557067726164696e6720686173206265656e20646f6e6521000000000000000081525060200191505060405180910390fd5b60038081111561052f57fe5b600060149054906101000a900460ff16600381111561054a57fe5b141515156105c0576040517f08c379a00000000000000000000000000000000000000000000000000000000081526004018080602001828103825260148152602001807f50726f706f73616c20697320657870697265642100000000000000000000000081525060200191505060405180910390fd5b436105d860025460015461133c90919063ffffffff16565b1015610679576003600060146101000a81548160ff021916908360038111156105fd57fe5b021790555060001515610678576040517f08c379a00000000000000000000000000000000000000000000000000000000081526004018080602001828103825260148152602001807f50726f706f73616c20697320657870697265642100000000000000000000000081525060200191505060405180910390fd5b5b6106a3606461069560035460065461135d90919063ffffffff16565b61139b90919063ffffffff16565b60075411156106d1576002600060146101000a81548160ff021916908360038111156106cb57fe5b02179055505b600060149054906101000a900460ff16905090565b600060149054906101000a900460ff1681565b6107016112b1565b151561070c57600080fd5b6000600381111561071957fe5b600060149054906101000a900460ff16600381111561073457fe5b1415156107cf576040517f08c379a00000000000000000000000000000000000000000000000000000000081526004018080602001828103825260228152602001807f50726f706f73616c20686173206265656e20616c72656164792073746172746581526020017f642100000000000000000000000000000000000000000000000000000000000081525060400191505060405180910390fd5b6001600060146101000a81548160ff021916908360038111156107ee57fe5b021790555043600181905550565b6000600381111561080957fe5b600060149054906101000a900460ff16600381111561082457fe5b1415151561089a576040517f08c379a00000000000000000000000000000000000000000000000000000000081526004018080602001828103825260118152602001807f496e76616c69642070726f706f73616c2100000000000000000000000000000081525060200191505060405180910390fd5b600260038111156108a757fe5b600060149054906101000a900460ff1660038111156108c257fe5b14151515610938576040517f08c379a00000000000000000000000000000000000000000000000000000000081526004018080602001828103825260188152602001807f557067726164696e6720686173206265656e20646f6e6521000000000000000081525060200191505060405180910390fd5b60038081111561094457fe5b600060149054906101000a900460ff16600381111561095f57fe5b141515156109d5576040517f08c379a00000000000000000000000000000000000000000000000000000000081526004018080602001828103825260148152602001807f50726f706f73616c20697320657870697265642100000000000000000000000081525060200191505060405180910390fd5b436109ed60025460015461133c90919063ffffffff16565b1015610a8e576003600060146101000a81548160ff02191690836003811115610a1257fe5b021790555060001515610a8d576040517f08c379a00000000000000000000000000000000000000000000000000000000081526004018080602001828103825260148152602001807f50726f706f73616c20697320657870697265642100000000000000000000000081525060200191505060405180910390fd5b5b600560003373ffffffffffffffffffffffffffffffffffffffff1673ffffffffffffffffffffffffffffffffffffffff16815260200190815260200160002060009054906101000a900460ff161515610b4f576040517f08c379a000000000000000000000000000000000000000000000000000000000815260040180806020018281038252601b8152602001807f446f206e6f74206861766520746865207065726d697373696f6e21000000000081525060200191505060405180910390fd5b801515600460003373ffffffffffffffffffffffffffffffffffffffff1673ffffffffffffffffffffffffffffffffffffffff16815260200190815260200160002060009054906101000a900460ff161515141515610c31578015610bc557600760008154809291906001019190505550610bd9565b600760008154809291906001900391905055505b80600460003373ffffffffffffffffffffffffffffffffffffffff1673ffffffffffffffffffffffffffffffffffffffff16815260200190815260200160002060006101000a81548160ff0219169083151502179055505b50565b60006003811115610c4157fe5b600060149054906101000a900460ff166003811115610c5c57fe5b14151515610cd2576040517f08c379a00000000000000000000000000000000000000000000000000000000081526004018080602001828103825260118152602001807f496e76616c69642070726f706f73616c2100000000000000000000000000000081525060200191505060405180910390fd5b60026003811115610cdf57fe5b600060149054906101000a900460ff166003811115610cfa57fe5b14151515610d70576040517f08c379a00000000000000000000000000000000000000000000000000000000081526004018080602001828103825260188152602001807f557067726164696e6720686173206265656e20646f6e6521000000000000000081525060200191505060405180910390fd5b600380811115610d7c57fe5b600060149054906101000a900460ff166003811115610d9757fe5b14151515610e0d576040517f08c379a00000000000000000000000000000000000000000000000000000000081526004018080602001828103825260148152602001807f50726f706f73616c20697320657870697265642100000000000000000000000081525060200191505060405180910390fd5b43610e2560025460015461133c90919063ffffffff16565b1015610ec6576003600060146101000a81548160ff02191690836003811115610e4a57fe5b021790555060001515610ec5576040517f08c379a00000000000000000000000000000000000000000000000000000000081526004018080602001828103825260148152602001807f50726f706f73616c20697320657870697265642100000000000000000000000081525060200191505060405180910390fd5b5b610ece6112b1565b1515610ed957600080fd5b610ee2816113c5565b50565b610eed6112b1565b1515610ef857600080fd5b600073ffffffffffffffffffffffffffffffffffffffff166000809054906101000a900473ffffffffffffffffffffffffffffffffffffffff1673ffffffffffffffffffffffffffffffffffffffff167f8be0079c531659141344cd1fd0a4f28419497f9722a3daafe3b4186f6b6457e060405160405180910390a360008060006101000a81548173ffffffffffffffffffffffffffffffffffffffff021916908373ffffffffffffffffffffffffffffffffffffffff160217905550565b60006003811115610fc457fe5b600060149054906101000a900460ff166003811115610fdf57fe5b14151515611055576040517f08c379a00000000000000000000000000000000000000000000000000000000081526004018080602001828103825260118152602001807f496e76616c69642070726f706f73616c2100000000000000000000000000000081525060200191505060405180910390fd5b6002600381111561106257fe5b600060149054906101000a900460ff16600381111561107d57fe5b141515156110f3576040517f08c379a00000000000000000000000000000000000000000000000000000000081526004018080602001828103825260188152602001807f557067726164696e6720686173206265656e20646f6e6521000000000000000081525060200191505060405180910390fd5b6003808111156110ff57fe5b600060149054906101000a900460ff16600381111561111a57fe5b14151515611190576040517f08c379a00000000000000000000000000000000000000000000000000000000081526004018080602001828103825260148152602001807f50726f706f73616c20697320657870697265642100000000000000000000000081525060200191505060405180910390fd5b436111a860025460015461133c90919063ffffffff16565b1015611249576003600060146101000a81548160ff021916908360038111156111cd57fe5b021790555060001515611248576040517f08c379a00000000000000000000000000000000000000000000000000000000081526004018080602001828103825260148152602001807f50726f706f73616c20697320657870697265642100000000000000000000000081525060200191505060405180910390fd5b5b6112516112b1565b151561125c57600080fd5b611265816113e3565b50565b60046020528060005260406000206000915054906101000a900460ff1681565b60008060009054906101000a900473ffffffffffffffffffffffffffffffffffffffff16905090565b60008060009054906101000a900473ffffffffffffffffffffffffffffffffffffffff1673ffffffffffffffffffffffffffffffffffffffff163373ffffffffffffffffffffffffffffffffffffffff1614905090565b6113106112b1565b151561131b57600080fd5b565b6113256112b1565b151561133057600080fd5b611339816114ef565b50565b600080828401905083811015151561135357600080fd5b8091505092915050565b6000808314156113705760009050611395565b6000828402905082848281151561138357fe5b0414151561139057600080fd5b809150505b92915050565b600080821115156113ab57600080fd5b600082848115156113b857fe5b0490508091505092915050565b80600381905550606460035411156113e05760646003819055505b50565b60008090505b81518110156114eb5760056000838381518110151561140457fe5b9060200190602002015173ffffffffffffffffffffffffffffffffffffffff1673ffffffffffffffffffffffffffffffffffffffff16815260200190815260200160002060009054906101000a900460ff1615156114de57600160056000848481518110151561147057fe5b9060200190602002015173ffffffffffffffffffffffffffffffffffffffff1673ffffffffffffffffffffffffffffffffffffffff16815260200190815260200160002060006101000a81548160ff0219169083151502179055506006600081548092919060010191905055505b80806001019150506113e9565b5050565b600073ffffffffffffffffffffffffffffffffffffffff168173ffffffffffffffffffffffffffffffffffffffff161415151561152b57600080fd5b8073ffffffffffffffffffffffffffffffffffffffff166000809054906101000a900473ffffffffffffffffffffffffffffffffffffffff1673ffffffffffffffffffffffffffffffffffffffff167f8be0079c531659141344cd1fd0a4f28419497f9722a3daafe3b4186f6b6457e060405160405180910390a3806000806101000a81548173ffffffffffffffffffffffffffffffffffffffff021916908373ffffffffffffffffffffffffffffffffffffffff1602179055505056fea165627a7a7230582094e36ed92cd5e4f5ad62ee7f1431b110b0729ae54f16f3e3a702f0b01d49a08c0029",
  "source": "pragma solidity ^0.5.0;\r\n\r\nimport \"./Storage.sol\";\r\nimport \"openzeppelin-solidity/contracts/math/SafeMath.sol\";\r\nimport \"openzeppelin-solidity/contracts/ownership/Ownable.sol\";\r\n\r\ncontract BNDESGovernance is Ownable() {\r\n\r\n\tusing SafeMath for uint256;\r\n\r\n\t/** Marker */\r\n\tenum UpgraderStatus {\r\n\t\tPreparing,\r\n\t\tVoting,\r\n\t\tSuccess,\r\n\t\tExpired\r\n//\t\tEnd\r\n\t}\r\n\tUpgraderStatus public status;\r\n\r\n\r\n\t/** Voting mechanism related */\r\n\tuint256 private proposalBlockNumber;\r\n\tuint256 private proposalPeriod;\r\n\tuint256 private percentage;\r\n\tmapping(address => bool) public voting;\r\n\tmapping(address => bool) private voterRegistered;\r\n\tuint256 private numOfVoters = 0;\r\n\tuint256 private numOfAgreements = 0;\r\n\r\n\t/**\r\n\t * Check if the proposal is expired.\r\n\t * If so, contract would be marked as expired.\r\n\t *\r\n\t * exception\tPreparingUpgraderException\tproposal has not been started.\r\n\t * exception\tReupgradingException\tupgrading has been done.\r\n\t * exception\tExpirationException\tproposal is expired.\r\n\t */\r\n\tmodifier notExpired {\r\n\t\trequire(status != UpgraderStatus.Preparing, \"Invalid proposal!\");\r\n\t\trequire(status != UpgraderStatus.Success, \"Upgrading has been done!\");\r\n\t\trequire(status != UpgraderStatus.Expired, \"Proposal is expired!\");\r\n\t\tif (proposalBlockNumber.add(proposalPeriod) < block.number) {\r\n\t\t\tstatus = UpgraderStatus.Expired;\r\n\t\t\trequire(false, \"Proposal is expired!\");\r\n\t\t}\r\n\t\t_;\r\n\t}\r\n\r\n\t/**\r\n\t * Constructor.\r\n\t *\r\n\t * @param\t_voters\taddresses of voters.\r\n\t * @param\t_percentage\tvalue of this.percentage.\r\n\t *\r\n\t */\r\n\tconstructor (address[] memory _voters, uint256 _percentage) public {\r\n\r\n\t\t_addVoters(_voters);\r\n\t\t_setPercentage(_percentage);\r\n\t\tstatus = UpgraderStatus.Preparing;\r\n\t}\r\n\r\n\t/**\r\n\t * Start voting.\r\n\t *\r\n\t * exception\tRestartingException\tproposal has been already started.\r\n\t * exception\tPermissionException\tmsg.sender is not the owner.\r\n\t */\r\n\tfunction startProposal () external onlyOwner {\r\n\r\n\t\trequire(status == UpgraderStatus.Preparing, \"Proposal has been already started!\");\r\n\t\t// Mark the contract as voting.\r\n\t\tstatus = UpgraderStatus.Voting;\r\n\t\t//initial time\r\n\t\tproposalBlockNumber = block.number;\r\n\t}\r\n\r\n\t/**\r\n\t * Add unique voters.\r\n\t * If expired, self-destruct.\r\n\t *\r\n\t * @param\t_voters\taddresses of voters.\r\n\t *\r\n\t * exception\tPermissionException\tmsg.sender is not the owner.\r\n\t * \r\n\t * see  this.notExpired\r\n\t */\r\n\tfunction addVoters (address[] memory _voters) public notExpired onlyOwner {\r\n\t\t_addVoters(_voters);\r\n\t}\r\n\r\n\tfunction _addVoters (address[] memory _voters) internal {\r\n\t\tfor (uint256 i = 0; i < _voters.length; i++) {\r\n\t\t\tif (!voterRegistered[_voters[i]]) {\r\n\t\t\t\tvoterRegistered[_voters[i]] = true;\r\n\t\t\t\tnumOfVoters++;\r\n\t\t\t}\r\n\t\t}\r\n\t}\r\n\r\n\t/**\r\n\t * Vote.\r\n\t * If expired, self-destruct.\r\n\t *\r\n\t * @param\t_choose\tif the voter agrees with the proposal.\r\n\t *\r\n\t * exception\tPermissionException\tmsg.sender is not a voter.\r\n\t * \r\n\t * see  this.notExpired\r\n\t */\r\n\tfunction vote (bool _choose) external notExpired {\r\n\t\trequire(voterRegistered[msg.sender], \"Do not have the permission!\");\r\n\t\tif (voting[msg.sender] != _choose) {\r\n\t\t\tif (_choose) {\r\n\t\t\t\tnumOfAgreements++;\r\n\t\t\t} else {\r\n\t\t\t\tnumOfAgreements--;\r\n\t\t\t}\r\n\t\t\tvoting[msg.sender] = _choose;\r\n\t\t}\r\n\t}\r\n\r\n\t/**\r\n\t * Set percentage.\r\n\t * If percentage is over 100, it will be fixed automatically.\r\n\t *\r\n\t * @param\t_percentage\tvalue of this.percentage.\r\n\t *\r\n\t * exception\tPermissionException\tmsg.sender is not the owner.\r\n\t * \r\n\t * see  this.notExpired\r\n\t */\r\n\tfunction setPercentage(uint256 _percentage) external notExpired onlyOwner {\r\n\t\t_setPercentage(_percentage);\r\n\t}\r\n\r\n\tfunction _setPercentage(uint256 _percentage) internal {\r\n\t\tpercentage = _percentage;\r\n\t\tif (percentage > 100) {\r\n\t\t\tpercentage = 100;\r\n\t\t}\r\n\t}\r\n\r\n\t/**\r\n\t * Anyone can try to get resolution.\r\n\t * If voters get consensus, upgrade the Handler contract.\r\n\t * If expired, self-destruct.\r\n\t * Otherwise, do nothing.\r\n\t *\r\n\t * exception\tPreparingUpgraderException\tproposal has not been started.\r\n\t *\r\n\t * @return\tstatus of proposal.\r\n\t * \r\n\t * see  this.notExpired\r\n\t */\r\n\tfunction getResolution() external notExpired returns(UpgraderStatus) {\r\n\t\tif (numOfAgreements > numOfVoters.mul(percentage).div(100)) {\r\n\t\t\tstatus = UpgraderStatus.Success;\r\n\t\t}\r\n\t\treturn status;\r\n\t}\r\n\r\n\t/**\r\n\t * Destruct itself.\r\n\t */\r\n\tfunction done() external payable onlyOwner {\r\n\t\t//selfdestruct(owner());\r\n\t}\r\n}",
  "sourcePath": "D:/Workspace/bndestoken/Back-Blockchain-Upgrade/contracts/BNDESGovernance.sol",
  "compiler": {
    "name": "solc",
    "version": "0.5.0+commit.1d4f565a.Emscripten.clang"
  },
  "schemaVersion": "3.0.5",
  "updatedAt": "2019-09-04T20:04:24.376Z",
  "devdoc": {
    "methods": {
      "addVoters(address[])": {
        "params": {
          "_voters": "addresses of voters.\r \t * exception\tPermissionException\tmsg.sender is not the owner.\r \r see  this.notExpired\r"
        }
      },
      "constructor": {
        "params": {
          "_percentage": "value of this.percentage.\r \t ",
          "_voters": "addresses of voters.\r"
        }
      },
      "getResolution()": {
        "return": "status of proposal.\r \r see  this.notExpired\r"
      },
      "isOwner()": {
        "return": "true if `msg.sender` is the owner of the contract."
      },
      "owner()": {
        "return": "the address of the owner."
      },
      "renounceOwnership()": {
        "details": "Allows the current owner to relinquish control of the contract."
      },
      "setPercentage(uint256)": {
        "params": {
          "_percentage": "value of this.percentage.\r \t * exception\tPermissionException\tmsg.sender is not the owner.\r \r see  this.notExpired\r"
        }
      },
      "transferOwnership(address)": {
        "details": "Allows the current owner to transfer control of the contract to a newOwner.",
        "params": {
          "newOwner": "The address to transfer ownership to."
        }
      },
      "vote(bool)": {
        "params": {
          "_choose": "if the voter agrees with the proposal.\r \t * exception\tPermissionException\tmsg.sender is not a voter.\r \r see  this.notExpired\r"
        }
      }
    }
  },
  "userdoc": {
    "methods": {
      "addVoters(address[])": {
        "notice": "Add unique voters.\r If expired, self-destruct.\r "
      },
      "constructor": "Constructor.\r ",
      "done()": {
        "notice": "Destruct itself.\r"
      },
      "getResolution()": {
        "notice": "Anyone can try to get resolution.\r If voters get consensus, upgrade the Handler contract.\r If expired, self-destruct.\r Otherwise, do nothing.\r \t * exception\tPreparingUpgraderException\tproposal has not been started.\r "
      },
      "renounceOwnership()": {
        "notice": "Renouncing to ownership will leave the contract without an owner. It will not be possible to call the functions with the `onlyOwner` modifier anymore."
      },
      "setPercentage(uint256)": {
        "notice": "Set percentage.\r If percentage is over 100, it will be fixed automatically.\r "
      },
      "startProposal()": {
        "notice": "Start voting.\r \t * exception\tRestartingException\tproposal has been already started.\r exception\tPermissionException\tmsg.sender is not the owner.\r"
      },
      "vote(bool)": {
        "notice": "Vote.\r If expired, self-destruct.\r "
      }
    }
  }
}