{
  "contractName": "BNDESGovernance",
  "abi": [
    {
      "constant": true,
      "inputs": [],
      "name": "handlerAddr",
      "outputs": [
        {
          "name": "",
          "type": "address"
        }
      ],
      "payable": false,
      "stateMutability": "view",
      "type": "function"
    },
    {
      "constant": false,
      "inputs": [],
      "name": "renounceOwnership",
      "outputs": [],
      "payable": false,
      "stateMutability": "nonpayable",
      "type": "function"
    },
    {
      "constant": true,
      "inputs": [
        {
          "name": "",
          "type": "uint256"
        }
      ],
      "name": "governingChanges",
      "outputs": [
        {
          "name": "hashMotivation",
          "type": "bytes32"
        },
        {
          "name": "decisionContract",
          "type": "address"
        },
        {
          "name": "chageState",
          "type": "uint8"
        }
      ],
      "payable": false,
      "stateMutability": "view",
      "type": "function"
    },
    {
      "constant": true,
      "inputs": [],
      "name": "owner",
      "outputs": [
        {
          "name": "",
          "type": "address"
        }
      ],
      "payable": false,
      "stateMutability": "view",
      "type": "function"
    },
    {
      "constant": true,
      "inputs": [],
      "name": "isOwner",
      "outputs": [
        {
          "name": "",
          "type": "bool"
        }
      ],
      "payable": false,
      "stateMutability": "view",
      "type": "function"
    },
    {
      "constant": false,
      "inputs": [
        {
          "name": "newOwner",
          "type": "address"
        }
      ],
      "name": "transferOwnership",
      "outputs": [],
      "payable": false,
      "stateMutability": "nonpayable",
      "type": "function"
    },
    {
      "inputs": [
        {
          "name": "_handlerAddr",
          "type": "address"
        }
      ],
      "payable": false,
      "stateMutability": "nonpayable",
      "type": "constructor"
    },
    {
      "anonymous": false,
      "inputs": [],
      "name": "notifyObservers",
      "type": "event"
    },
    {
      "anonymous": false,
      "inputs": [
        {
          "indexed": true,
          "name": "previousOwner",
          "type": "address"
        },
        {
          "indexed": true,
          "name": "newOwner",
          "type": "address"
        }
      ],
      "name": "OwnershipTransferred",
      "type": "event"
    },
    {
      "constant": true,
      "inputs": [],
      "name": "isHandler",
      "outputs": [
        {
          "name": "",
          "type": "bool"
        }
      ],
      "payable": false,
      "stateMutability": "view",
      "type": "function"
    },
    {
      "constant": false,
      "inputs": [
        {
          "name": "newAddr",
          "type": "address"
        }
      ],
      "name": "setHandler",
      "outputs": [],
      "payable": false,
      "stateMutability": "nonpayable",
      "type": "function"
    },
    {
      "constant": false,
      "inputs": [
        {
          "name": "hashChangeMotivation",
          "type": "bytes32"
        },
        {
          "name": "contractsToBeUpdated",
          "type": "address[]"
        },
        {
          "name": "updatingContracts",
          "type": "address[]"
        },
        {
          "name": "newContracts",
          "type": "address[]"
        },
        {
          "name": "updatingDataContracts",
          "type": "address[]"
        },
        {
          "name": "decisionContract",
          "type": "address"
        },
        {
          "name": "containsDecision",
          "type": "bool"
        }
      ],
      "name": "createNewChange",
      "outputs": [],
      "payable": false,
      "stateMutability": "nonpayable",
      "type": "function"
    },
    {
      "constant": false,
      "inputs": [
        {
          "name": "hashChangeMotivation",
          "type": "bytes32"
        }
      ],
      "name": "approveChange",
      "outputs": [],
      "payable": false,
      "stateMutability": "nonpayable",
      "type": "function"
    },
    {
      "constant": false,
      "inputs": [
        {
          "name": "hashChangeMotivation",
          "type": "bytes32"
        }
      ],
      "name": "repproveChange",
      "outputs": [],
      "payable": false,
      "stateMutability": "nonpayable",
      "type": "function"
    },
    {
      "constant": false,
      "inputs": [
        {
          "name": "hashChangeMotivation",
          "type": "bytes32"
        }
      ],
      "name": "cancelChange",
      "outputs": [],
      "payable": false,
      "stateMutability": "nonpayable",
      "type": "function"
    },
    {
      "constant": false,
      "inputs": [
        {
          "name": "observerAddr",
          "type": "address"
        }
      ],
      "name": "registryObserverGovernance",
      "outputs": [],
      "payable": false,
      "stateMutability": "nonpayable",
      "type": "function"
    },
    {
      "constant": false,
      "inputs": [
        {
          "name": "hashGoverningChange",
          "type": "bytes32"
        },
        {
          "name": "contractsToBeUpdated",
          "type": "address"
        },
        {
          "name": "updatingContract",
          "type": "address"
        }
      ],
      "name": "isThereOpenedChangeToThisContract",
      "outputs": [
        {
          "name": "",
          "type": "bool"
        }
      ],
      "payable": false,
      "stateMutability": "nonpayable",
      "type": "function"
    },
    {
      "constant": false,
      "inputs": [
        {
          "name": "hashGoverningChange",
          "type": "bytes32"
        },
        {
          "name": "updatingDataContracts",
          "type": "address"
        }
      ],
      "name": "isThereOpenedChangeToThisDataContract",
      "outputs": [
        {
          "name": "",
          "type": "bool"
        }
      ],
      "payable": false,
      "stateMutability": "nonpayable",
      "type": "function"
    }
  ],
  "bytecode": "0x608060405234801561001057600080fd5b5060405160208061117b8339810180604052602081101561003057600080fd5b8101908080519060200190929190505050336000806101000a81548173ffffffffffffffffffffffffffffffffffffffff021916908373ffffffffffffffffffffffffffffffffffffffff1602179055506000809054906101000a900473ffffffffffffffffffffffffffffffffffffffff1673ffffffffffffffffffffffffffffffffffffffff16600073ffffffffffffffffffffffffffffffffffffffff167f8be0079c531659141344cd1fd0a4f28419497f9722a3daafe3b4186f6b6457e060405160405180910390a380600260006101000a81548173ffffffffffffffffffffffffffffffffffffffff021916908373ffffffffffffffffffffffffffffffffffffffff1602179055505061102d8061014e6000396000f3fe6080604052600436106100db576000357c0100000000000000000000000000000000000000000000000000000000900463ffffffff1680633ac46323146100e05780635449b7981461011b5780635ecffa3c146101565780635fa037ca146101ad578063696d6c85146101dc578063715018a61461026f5780637636ca6e146102865780638da5cb5b1461031d5780638f32d59b14610374578063aea1de53146103a3578063bac426d014610416578063c9a9732f14610467578063dc0904d8146104b8578063f2fde38b1461076f578063f8dae3d3146107c0575b600080fd5b3480156100ec57600080fd5b506101196004803603602081101561010357600080fd5b81019080803590602001909291905050506107fb565b005b34801561012757600080fd5b506101546004803603602081101561013e57600080fd5b810190808035906020019092919050505061082a565b005b34801561016257600080fd5b5061016b610859565b604051808273ffffffffffffffffffffffffffffffffffffffff1673ffffffffffffffffffffffffffffffffffffffff16815260200191505060405180910390f35b3480156101b957600080fd5b506101c261087f565b604051808215151515815260200191505060405180910390f35b3480156101e857600080fd5b50610255600480360360608110156101ff57600080fd5b8101908080359060200190929190803573ffffffffffffffffffffffffffffffffffffffff169060200190929190803573ffffffffffffffffffffffffffffffffffffffff1690602001909291905050506108d7565b604051808215151515815260200191505060405180910390f35b34801561027b57600080fd5b506102846108e0565b005b34801561029257600080fd5b506102bf600480360360208110156102a957600080fd5b81019080803590602001909291905050506109b2565b604051808481526020018373ffffffffffffffffffffffffffffffffffffffff1673ffffffffffffffffffffffffffffffffffffffff16815260200182600381111561030757fe5b60ff168152602001935050505060405180910390f35b34801561032957600080fd5b50610332610a18565b604051808273ffffffffffffffffffffffffffffffffffffffff1673ffffffffffffffffffffffffffffffffffffffff16815260200191505060405180910390f35b34801561038057600080fd5b50610389610a41565b604051808215151515815260200191505060405180910390f35b3480156103af57600080fd5b506103fc600480360360408110156103c657600080fd5b8101908080359060200190929190803573ffffffffffffffffffffffffffffffffffffffff169060200190929190505050610a98565b604051808215151515815260200191505060405180910390f35b34801561042257600080fd5b506104656004803603602081101561043957600080fd5b81019080803573ffffffffffffffffffffffffffffffffffffffff169060200190929190505050610aa0565b005b34801561047357600080fd5b506104b66004803603602081101561048a57600080fd5b81019080803573ffffffffffffffffffffffffffffffffffffffff169060200190929190505050610af7565b005b3480156104c457600080fd5b5061076d600480360360e08110156104db57600080fd5b81019080803590602001909291908035906020019064010000000081111561050257600080fd5b82018360208201111561051457600080fd5b8035906020019184602083028401116401000000008311171561053657600080fd5b919080806020026020016040519081016040528093929190818152602001838360200280828437600081840152601f19601f8201169050808301925050505050505091929192908035906020019064010000000081111561059657600080fd5b8201836020820111156105a857600080fd5b803590602001918460208302840111640100000000831117156105ca57600080fd5b919080806020026020016040519081016040528093929190818152602001838360200280828437600081840152601f19601f8201169050808301925050505050505091929192908035906020019064010000000081111561062a57600080fd5b82018360208201111561063c57600080fd5b8035906020019184602083028401116401000000008311171561065e57600080fd5b919080806020026020016040519081016040528093929190818152602001838360200280828437600081840152601f19601f820116905080830192505050505050509192919290803590602001906401000000008111156106be57600080fd5b8201836020820111156106d057600080fd5b803590602001918460208302840111640100000000831117156106f257600080fd5b919080806020026020016040519081016040528093929190818152602001838360200280828437600081840152601f19601f820116905080830192505050505050509192919290803573ffffffffffffffffffffffffffffffffffffffff169060200190929190803515159060200190929190505050610afa565b005b34801561077b57600080fd5b506107be6004803603602081101561079257600080fd5b81019080803573ffffffffffffffffffffffffffffffffffffffff169060200190929190505050610d8a565b005b3480156107cc57600080fd5b506107f9600480360360208110156107e357600080fd5b8101908080359060200190929190505050610da9565b005b7f87086efc2ac79d28c722425cbb463b6d3c3392e0d106900383eec04b83e8760e60405160405180910390a150565b7f87086efc2ac79d28c722425cbb463b6d3c3392e0d106900383eec04b83e8760e60405160405180910390a150565b600260009054906101000a900473ffffffffffffffffffffffffffffffffffffffff1681565b6000600260009054906101000a900473ffffffffffffffffffffffffffffffffffffffff1673ffffffffffffffffffffffffffffffffffffffff163373ffffffffffffffffffffffffffffffffffffffff1614905090565b60009392505050565b6108e8610a41565b15156108f357600080fd5b600073ffffffffffffffffffffffffffffffffffffffff166000809054906101000a900473ffffffffffffffffffffffffffffffffffffffff1673ffffffffffffffffffffffffffffffffffffffff167f8be0079c531659141344cd1fd0a4f28419497f9722a3daafe3b4186f6b6457e060405160405180910390a360008060006101000a81548173ffffffffffffffffffffffffffffffffffffffff021916908373ffffffffffffffffffffffffffffffffffffffff160217905550565b6001818154811015156109c157fe5b90600052602060002090600602016000915090508060000154908060050160009054906101000a900473ffffffffffffffffffffffffffffffffffffffff16908060050160149054906101000a900460ff16905083565b60008060009054906101000a900473ffffffffffffffffffffffffffffffffffffffff16905090565b60008060009054906101000a900473ffffffffffffffffffffffffffffffffffffffff1673ffffffffffffffffffffffffffffffffffffffff163373ffffffffffffffffffffffffffffffffffffffff1614905090565b600092915050565b610aa8610a41565b1515610ab357600080fd5b80600260006101000a81548173ffffffffffffffffffffffffffffffffffffffff021916908373ffffffffffffffffffffffffffffffffffffffff16021790555050565b50565b610b0261087f565b1515610b9c576040517f08c379a00000000000000000000000000000000000000000000000000000000081526004018080602001828103825260238152602001807f446f206e6f742068617665207468652068616e646c6572207065726d6973736981526020017f6f6e21000000000000000000000000000000000000000000000000000000000081525060400191505060405180910390fd5b610ba4610ed2565b8115610c075760e0604051908101604052808981526020018881526020018781526020018681526020018581526020018473ffffffffffffffffffffffffffffffffffffffff16815260200160006003811115610bfd57fe5b8152509050610c61565b60e060405190810160405280898152602001888152602001878152602001868152602001858152602001600073ffffffffffffffffffffffffffffffffffffffff16815260200160016003811115610c5b57fe5b81525090505b60018190806001815401808255809150509060018203906000526020600020906006020160009091929091909150600082015181600001556020820151816001019080519060200190610cb5929190610f34565b506040820151816002019080519060200190610cd2929190610f34565b506060820151816003019080519060200190610cef929190610f34565b506080820151816004019080519060200190610d0c929190610f34565b5060a08201518160050160006101000a81548173ffffffffffffffffffffffffffffffffffffffff021916908373ffffffffffffffffffffffffffffffffffffffff16021790555060c08201518160050160146101000a81548160ff02191690836003811115610d7857fe5b02179055505050505050505050505050565b610d92610a41565b1515610d9d57600080fd5b610da681610dd8565b50565b7f87086efc2ac79d28c722425cbb463b6d3c3392e0d106900383eec04b83e8760e60405160405180910390a150565b600073ffffffffffffffffffffffffffffffffffffffff168173ffffffffffffffffffffffffffffffffffffffff1614151515610e1457600080fd5b8073ffffffffffffffffffffffffffffffffffffffff166000809054906101000a900473ffffffffffffffffffffffffffffffffffffffff1673ffffffffffffffffffffffffffffffffffffffff167f8be0079c531659141344cd1fd0a4f28419497f9722a3daafe3b4186f6b6457e060405160405180910390a3806000806101000a81548173ffffffffffffffffffffffffffffffffffffffff021916908373ffffffffffffffffffffffffffffffffffffffff16021790555050565b60e0604051908101604052806000801916815260200160608152602001606081526020016060815260200160608152602001600073ffffffffffffffffffffffffffffffffffffffff16815260200160006003811115610f2e57fe5b81525090565b828054828255906000526020600020908101928215610fad579160200282015b82811115610fac5782518260006101000a81548173ffffffffffffffffffffffffffffffffffffffff021916908373ffffffffffffffffffffffffffffffffffffffff16021790555091602001919060010190610f54565b5b509050610fba9190610fbe565b5090565b610ffe91905b80821115610ffa57600081816101000a81549073ffffffffffffffffffffffffffffffffffffffff021916905550600101610fc4565b5090565b9056fea165627a7a72305820acdb55c8937d557a866e69d2a80e12404364c30ab331a2acc7729efae293bb0d0029",
  "source": "pragma solidity ^0.5.0;\r\n\r\nimport \"openzeppelin-solidity/contracts/ownership/Ownable.sol\";\r\n\r\n\r\ncontract BNDESGovernance is Ownable() {\r\n\r\n    enum ChangeStateEnum { WAITING, APPROVED, REPROVED, CANCELED }\r\n\r\n    struct ChangeDataStructure {\r\n        \r\n        //Hash of the change motivation\r\n        bytes32 hashMotivation;\r\n        \r\n        //Addresses of contracts to be updated\r\n        address[] contractsToBeUpdated;\r\n\r\n        //Addresses of contracts to be updated\r\n        address[] updatingContracts;\r\n\r\n        //Addresses of new contracts\r\n        address[] newContracts;\r\n\r\n        //Addresses of contracts that change data\r\n        address[] updatingDataContracts;\r\n        \r\n        //Address of multisig contract (if necessary)\r\n        address decisionContract;\r\n\r\n        ChangeStateEnum chageState;\r\n    }\r\n\r\n\r\n    ChangeDataStructure[] public governingChanges;\r\n\r\n    address public handlerAddr;\r\n\r\n\r\n    /**\r\n\t * Check if msg.sender is a Handler of this contract. It is used for setters.\r\n\t * If fail, throw PermissionException.\r\n\t */\r\n\tmodifier onlyHandler {\r\n\t\trequire(isHandler(), \"Do not have the handler permission!\");\r\n\t\t_;\r\n\t}  \r\n\r\n    constructor (address _handlerAddr) public {\r\n        handlerAddr = _handlerAddr;\r\n    }\r\n\r\n    /**\r\n     * @return true if `msg.sender` is the handler of the contract.\r\n     */\r\n    function isHandler() public view returns (bool) {\r\n        return msg.sender == handlerAddr;\r\n    }\r\n\r\n    function setHandler (address newAddr) public onlyOwner {\r\n        handlerAddr = newAddr;\r\n    }\r\n\r\n    event notifyObservers();\r\n    \r\n\r\n    function createNewChange (bytes32 hashChangeMotivation, address[] memory contractsToBeUpdated, address[] memory updatingContracts,\r\n        address[] memory newContracts, address[] memory updatingDataContracts, address decisionContract, bool containsDecision) public onlyHandler {\r\n            \r\n            //TODO: avaliar se é storage ou memory\r\n            ChangeDataStructure memory cds;\r\n            if (containsDecision) {\r\n                cds = ChangeDataStructure(hashChangeMotivation, contractsToBeUpdated, updatingContracts, newContracts, updatingDataContracts,\r\n                                    decisionContract, ChangeStateEnum.WAITING);\r\n            }\r\n            else {\r\n                cds = ChangeDataStructure(hashChangeMotivation, contractsToBeUpdated, updatingContracts, newContracts, updatingDataContracts,\r\n                                    address(0), ChangeStateEnum.APPROVED);\r\n            }\r\n            governingChanges.push(cds);\r\n    }\r\n\r\n//testar mudança do contrato para add new metodo - como fica na factory? quais são os limites do admin\r\n\r\n    function approveChange (bytes32 hashChangeMotivation) public {\r\n\r\n        //verify address of decision contract\r\n\r\n        //checar que foi do contrato adequado\r\n        emit notifyObservers(); //quais pontos deve avisar?\r\n\r\n    }\r\n\r\n    function repproveChange (bytes32 hashChangeMotivation) public {\r\n\r\n        //verify address of decision contract\r\n\r\n        emit notifyObservers(); //quais pontos deve avisar?\r\n    }\r\n\r\n    function cancelChange (bytes32 hashChangeMotivation) public {\r\n\r\n        //verify address of decision contract or owner\r\n\r\n        emit notifyObservers(); //quais pontos deve avisar?\r\n    }\r\n\r\n    function registryObserverGovernance(address observerAddr) external {\r\n\r\n    }\r\n\r\n\r\n    function isThereOpenedChangeToThisContract (bytes32 hashGoverningChange, address contractsToBeUpdated, \r\n            address updatingContract) external returns (bool) {\r\n\r\n    }\r\n\r\n    function isThereOpenedChangeToThisDataContract (bytes32 hashGoverningChange, address updatingDataContracts) \r\n        external returns (bool) {\r\n\r\n\r\n    }\r\n\r\n}",
  "sourcePath": "D:\\Workspace\\bndestoken\\Back-Blockchain-Upgrade\\contracts\\BNDESGovernance.sol",
  "compiler": {
    "name": "solc",
    "version": "0.5.0+commit.1d4f565a.Emscripten.clang"
  },
  "schemaVersion": "3.0.5",
  "updatedAt": "2019-09-12T18:41:01.896Z",
  "devdoc": {
    "methods": {
      "isHandler()": {
        "return": "true if `msg.sender` is the handler of the contract.\r"
      },
      "isOwner()": {
        "return": "true if `msg.sender` is the owner of the contract."
      },
      "owner()": {
        "return": "the address of the owner."
      },
      "renounceOwnership()": {
        "details": "Allows the current owner to relinquish control of the contract."
      },
      "transferOwnership(address)": {
        "details": "Allows the current owner to transfer control of the contract to a newOwner.",
        "params": {
          "newOwner": "The address to transfer ownership to."
        }
      }
    }
  },
  "userdoc": {
    "methods": {
      "renounceOwnership()": {
        "notice": "Renouncing to ownership will leave the contract without an owner. It will not be possible to call the functions with the `onlyOwner` modifier anymore."
      }
    }
  }
}