{
  "contractName": "BNDESFactory",
  "abi": [
    {
      "constant": true,
      "inputs": [],
      "name": "storageContract",
      "outputs": [
        {
          "name": "",
          "type": "address"
        }
      ],
      "payable": false,
      "stateMutability": "view",
      "type": "function"
    },
    {
      "constant": true,
      "inputs": [],
      "name": "bndesRegistry",
      "outputs": [
        {
          "name": "",
          "type": "address"
        }
      ],
      "payable": false,
      "stateMutability": "view",
      "type": "function"
    },
    {
      "constant": false,
      "inputs": [],
      "name": "renounceOwnership",
      "outputs": [],
      "payable": false,
      "stateMutability": "nonpayable",
      "type": "function"
    },
    {
      "constant": true,
      "inputs": [],
      "name": "owner",
      "outputs": [
        {
          "name": "",
          "type": "address"
        }
      ],
      "payable": false,
      "stateMutability": "view",
      "type": "function"
    },
    {
      "constant": true,
      "inputs": [],
      "name": "isOwner",
      "outputs": [
        {
          "name": "",
          "type": "bool"
        }
      ],
      "payable": false,
      "stateMutability": "view",
      "type": "function"
    },
    {
      "constant": true,
      "inputs": [],
      "name": "legalEntityMapping",
      "outputs": [
        {
          "name": "",
          "type": "address"
        }
      ],
      "payable": false,
      "stateMutability": "view",
      "type": "function"
    },
    {
      "constant": false,
      "inputs": [
        {
          "name": "newOwner",
          "type": "address"
        }
      ],
      "name": "transferOwnership",
      "outputs": [],
      "payable": false,
      "stateMutability": "nonpayable",
      "type": "function"
    },
    {
      "inputs": [],
      "payable": false,
      "stateMutability": "nonpayable",
      "type": "constructor"
    },
    {
      "anonymous": false,
      "inputs": [
        {
          "indexed": true,
          "name": "previousOwner",
          "type": "address"
        },
        {
          "indexed": true,
          "name": "newOwner",
          "type": "address"
        }
      ],
      "name": "OwnershipTransferred",
      "type": "event"
    },
    {
      "constant": false,
      "inputs": [],
      "name": "createAll",
      "outputs": [],
      "payable": false,
      "stateMutability": "nonpayable",
      "type": "function"
    },
    {
      "constant": false,
      "inputs": [],
      "name": "getOwnershipContracts",
      "outputs": [],
      "payable": false,
      "stateMutability": "nonpayable",
      "type": "function"
    },
    {
      "constant": false,
      "inputs": [
        {
          "name": "newLegalEntityAddr",
          "type": "address"
        }
      ],
      "name": "changeLegalEntityMapping",
      "outputs": [],
      "payable": false,
      "stateMutability": "nonpayable",
      "type": "function"
    }
  ],
  "bytecode": "0x608060405234801561001057600080fd5b50336000806101000a81548173ffffffffffffffffffffffffffffffffffffffff021916908373ffffffffffffffffffffffffffffffffffffffff1602179055506000809054906101000a900473ffffffffffffffffffffffffffffffffffffffff1673ffffffffffffffffffffffffffffffffffffffff16600073ffffffffffffffffffffffffffffffffffffffff167f8be0079c531659141344cd1fd0a4f28419497f9722a3daafe3b4186f6b6457e060405160405180910390a3613796806100dc6000396000f3fe6080604052600436106100a4576000357c0100000000000000000000000000000000000000000000000000000000900463ffffffff16806311ce0267146100a95780633436e6bb14610100578063715018a6146101575780638da5cb5b1461016e5780638f32d59b146101c5578063b3882b33146101f4578063bf85705114610245578063f2fde38b1461029c578063f32ee3bd146102ed578063f37e7b2514610304575b600080fd5b3480156100b557600080fd5b506100be61031b565b604051808273ffffffffffffffffffffffffffffffffffffffff1673ffffffffffffffffffffffffffffffffffffffff16815260200191505060405180910390f35b34801561010c57600080fd5b50610115610341565b604051808273ffffffffffffffffffffffffffffffffffffffff1673ffffffffffffffffffffffffffffffffffffffff16815260200191505060405180910390f35b34801561016357600080fd5b5061016c610367565b005b34801561017a57600080fd5b50610183610439565b604051808273ffffffffffffffffffffffffffffffffffffffff1673ffffffffffffffffffffffffffffffffffffffff16815260200191505060405180910390f35b3480156101d157600080fd5b506101da610462565b604051808215151515815260200191505060405180910390f35b34801561020057600080fd5b506102436004803603602081101561021757600080fd5b81019080803573ffffffffffffffffffffffffffffffffffffffff1690602001909291905050506104b9565b005b34801561025157600080fd5b5061025a6107f9565b604051808273ffffffffffffffffffffffffffffffffffffffff1673ffffffffffffffffffffffffffffffffffffffff16815260200191505060405180910390f35b3480156102a857600080fd5b506102eb600480360360208110156102bf57600080fd5b81019080803573ffffffffffffffffffffffffffffffffffffffff16906020019092919050505061081f565b005b3480156102f957600080fd5b5061030261083e565b005b34801561031057600080fd5b50610319610a0b565b005b600160009054906101000a900473ffffffffffffffffffffffffffffffffffffffff1681565b600360009054906101000a900473ffffffffffffffffffffffffffffffffffffffff1681565b61036f610462565b151561037a57600080fd5b600073ffffffffffffffffffffffffffffffffffffffff166000809054906101000a900473ffffffffffffffffffffffffffffffffffffffff1673ffffffffffffffffffffffffffffffffffffffff167f8be0079c531659141344cd1fd0a4f28419497f9722a3daafe3b4186f6b6457e060405160405180910390a360008060006101000a81548173ffffffffffffffffffffffffffffffffffffffff021916908373ffffffffffffffffffffffffffffffffffffffff160217905550565b60008060009054906101000a900473ffffffffffffffffffffffffffffffffffffffff16905090565b60008060009054906101000a900473ffffffffffffffffffffffffffffffffffffffff1673ffffffffffffffffffffffffffffffffffffffff163373ffffffffffffffffffffffffffffffffffffffff1614905090565b6104c1610462565b15156104cc57600080fd5b600160009054906101000a900473ffffffffffffffffffffffffffffffffffffffff1673ffffffffffffffffffffffffffffffffffffffff166316d3ffc3600260009054906101000a900473ffffffffffffffffffffffffffffffffffffffff166040518263ffffffff167c0100000000000000000000000000000000000000000000000000000000028152600401808273ffffffffffffffffffffffffffffffffffffffff1673ffffffffffffffffffffffffffffffffffffffff168152602001915050602060405180830381600087803b1580156105ab57600080fd5b505af11580156105bf573d6000803e3d6000fd5b505050506040513d60208110156105d557600080fd5b810190808051906020019092919050505050600160009054906101000a900473ffffffffffffffffffffffffffffffffffffffff1673ffffffffffffffffffffffffffffffffffffffff1663fb7d8a1e826040518263ffffffff167c0100000000000000000000000000000000000000000000000000000000028152600401808273ffffffffffffffffffffffffffffffffffffffff1673ffffffffffffffffffffffffffffffffffffffff168152602001915050602060405180830381600087803b1580156106a457600080fd5b505af11580156106b8573d6000803e3d6000fd5b505050506040513d60208110156106ce57600080fd5b81019080805190602001909291905050505080600260006101000a81548173ffffffffffffffffffffffffffffffffffffffff021916908373ffffffffffffffffffffffffffffffffffffffff160217905550600360009054906101000a900473ffffffffffffffffffffffffffffffffffffffff1673ffffffffffffffffffffffffffffffffffffffff166379aa330c826040518263ffffffff167c0100000000000000000000000000000000000000000000000000000000028152600401808273ffffffffffffffffffffffffffffffffffffffff1673ffffffffffffffffffffffffffffffffffffffff168152602001915050600060405180830381600087803b1580156107de57600080fd5b505af11580156107f2573d6000803e3d6000fd5b5050505050565b600260009054906101000a900473ffffffffffffffffffffffffffffffffffffffff1681565b610827610462565b151561083257600080fd5b61083b81610d00565b50565b610846610462565b151561085157600080fd5b600160009054906101000a900473ffffffffffffffffffffffffffffffffffffffff1673ffffffffffffffffffffffffffffffffffffffff1663f2fde38b610897610439565b6040518263ffffffff167c0100000000000000000000000000000000000000000000000000000000028152600401808273ffffffffffffffffffffffffffffffffffffffff1673ffffffffffffffffffffffffffffffffffffffff168152602001915050600060405180830381600087803b15801561091557600080fd5b505af1158015610929573d6000803e3d6000fd5b50505050600360009054906101000a900473ffffffffffffffffffffffffffffffffffffffff1673ffffffffffffffffffffffffffffffffffffffff1663f2fde38b610973610439565b6040518263ffffffff167c0100000000000000000000000000000000000000000000000000000000028152600401808273ffffffffffffffffffffffffffffffffffffffff1673ffffffffffffffffffffffffffffffffffffffff168152602001915050600060405180830381600087803b1580156109f157600080fd5b505af1158015610a05573d6000803e3d6000fd5b50505050565b610a13610462565b1515610a1e57600080fd5b610a26610dfa565b604051809103906000f080158015610a42573d6000803e3d6000fd5b50600160006101000a81548173ffffffffffffffffffffffffffffffffffffffff021916908373ffffffffffffffffffffffffffffffffffffffff160217905550600160009054906101000a900473ffffffffffffffffffffffffffffffffffffffff16610aae610e0a565b808273ffffffffffffffffffffffffffffffffffffffff1673ffffffffffffffffffffffffffffffffffffffff168152602001915050604051809103906000f080158015610b00573d6000803e3d6000fd5b50600260006101000a81548173ffffffffffffffffffffffffffffffffffffffff021916908373ffffffffffffffffffffffffffffffffffffffff1602179055506000600260009054906101000a900473ffffffffffffffffffffffffffffffffffffffff169050600160009054906101000a900473ffffffffffffffffffffffffffffffffffffffff1673ffffffffffffffffffffffffffffffffffffffff1663fb7d8a1e826040518263ffffffff167c0100000000000000000000000000000000000000000000000000000000028152600401808273ffffffffffffffffffffffffffffffffffffffff1673ffffffffffffffffffffffffffffffffffffffff168152602001915050602060405180830381600087803b158015610c2557600080fd5b505af1158015610c39573d6000803e3d6000fd5b505050506040513d6020811015610c4f57600080fd5b81019080805190602001909291905050505080610c6a610e1a565b808273ffffffffffffffffffffffffffffffffffffffff1673ffffffffffffffffffffffffffffffffffffffff168152602001915050604051809103906000f080158015610cbc573d6000803e3d6000fd5b50600360006101000a81548173ffffffffffffffffffffffffffffffffffffffff021916908373ffffffffffffffffffffffffffffffffffffffff16021790555050565b600073ffffffffffffffffffffffffffffffffffffffff168173ffffffffffffffffffffffffffffffffffffffff1614151515610d3c57600080fd5b8073ffffffffffffffffffffffffffffffffffffffff166000809054906101000a900473ffffffffffffffffffffffffffffffffffffffff1673ffffffffffffffffffffffffffffffffffffffff167f8be0079c531659141344cd1fd0a4f28419497f9722a3daafe3b4186f6b6457e060405160405180910390a3806000806101000a81548173ffffffffffffffffffffffffffffffffffffffff021916908373ffffffffffffffffffffffffffffffffffffffff16021790555050565b604051611a1b80610e2b83390190565b6040516105488061284683390190565b6040516109dd80612d8e8339019056fe608060405234801561001057600080fd5b50336000806101000a81548173ffffffffffffffffffffffffffffffffffffffff021916908373ffffffffffffffffffffffffffffffffffffffff1602179055506000809054906101000a900473ffffffffffffffffffffffffffffffffffffffff1673ffffffffffffffffffffffffffffffffffffffff16600073ffffffffffffffffffffffffffffffffffffffff167f8be0079c531659141344cd1fd0a4f28419497f9722a3daafe3b4186f6b6457e060405160405180910390a36001600860006101000a81548160ff021916908315150217905550611924806100f76000396000f3fe608060405260043610610128576000357c0100000000000000000000000000000000000000000000000000000000900463ffffffff16806309ea27091461012d57806316d3ffc31461016a57806321f8a721146101d35780632e28d0841461024e5780633848207a146103205780633e49bed0146103735780635389f8a6146103b85780636e899550146103e7578063715018a6146104b95780638da5cb5b146104d05780638f32d59b14610527578063901fe04714610556578063946bcadc14610585578063986e791a146105b4578063bd02d0f514610668578063c031a180146106b7578063ca446dd91461076b578063dc97d962146107c6578063e2a4853a14610815578063f2fde38b1461085a578063f8715b3e146108ab578063fb7d8a1e146108f2575b600080fd5b34801561013957600080fd5b506101686004803603602081101561015057600080fd5b8101908080351515906020019092919050505061095b565b005b34801561017657600080fd5b506101b96004803603602081101561018d57600080fd5b81019080803573ffffffffffffffffffffffffffffffffffffffff169060200190929190505050610a5f565b604051808215151515815260200191505060405180910390f35b3480156101df57600080fd5b5061020c600480360360208110156101f657600080fd5b8101908080359060200190929190505050610ad5565b604051808273ffffffffffffffffffffffffffffffffffffffff1673ffffffffffffffffffffffffffffffffffffffff16815260200191505060405180910390f35b34801561025a57600080fd5b5061031e6004803603604081101561027157600080fd5b81019080803590602001909291908035906020019064010000000081111561029857600080fd5b8201836020820111156102aa57600080fd5b803590602001918460018302840111640100000000831117156102cc57600080fd5b91908080601f016020809104026020016040519081016040528093929190818152602001838380828437600081840152601f19601f820116905080830192505050505050509192919290505050610b15565b005b34801561032c57600080fd5b506103596004803603602081101561034357600080fd5b8101908080359060200190929190505050610c2b565b604051808215151515815260200191505060405180910390f35b34801561037f57600080fd5b506103b66004803603604081101561039657600080fd5b810190808035906020019092919080359060200190929190505050610c58565b005b3480156103c457600080fd5b506103cd610d5e565b604051808215151515815260200191505060405180910390f35b3480156103f357600080fd5b506104b76004803603604081101561040a57600080fd5b81019080803590602001909291908035906020019064010000000081111561043157600080fd5b82018360208201111561044357600080fd5b8035906020019184600183028401116401000000008311171561046557600080fd5b91908080601f016020809104026020016040519081016040528093929190818152602001838380828437600081840152601f19601f820116905080830192505050505050509192919290505050610d75565b005b3480156104c557600080fd5b506104ce610e8b565b005b3480156104dc57600080fd5b506104e5610f5d565b604051808273ffffffffffffffffffffffffffffffffffffffff1673ffffffffffffffffffffffffffffffffffffffff16815260200191505060405180910390f35b34801561053357600080fd5b5061053c610f86565b604051808215151515815260200191505060405180910390f35b34801561056257600080fd5b5061056b610fdd565b604051808215151515815260200191505060405180910390f35b34801561059157600080fd5b5061059a610ff0565b604051808215151515815260200191505060405180910390f35b3480156105c057600080fd5b506105ed600480360360208110156105d757600080fd5b8101908080359060200190929190505050611138565b6040518080602001828103825283818151815260200191508051906020019080838360005b8381101561062d578082015181840152602081019050610612565b50505050905090810190601f16801561065a5780820380516001836020036101000a031916815260200191505b509250505060405180910390f35b34801561067457600080fd5b506106a16004803603602081101561068b57600080fd5b81019080803590602001909291905050506111f0565b6040518082815260200191505060405180910390f35b3480156106c357600080fd5b506106f0600480360360208110156106da57600080fd5b810190808035906020019092919050505061120f565b6040518080602001828103825283818151815260200191508051906020019080838360005b83811015610730578082015181840152602081019050610715565b50505050905090810190601f16801561075d5780820380516001836020036101000a031916815260200191505b509250505060405180910390f35b34801561077757600080fd5b506107c46004803603604081101561078e57600080fd5b8101908080359060200190929190803573ffffffffffffffffffffffffffffffffffffffff1690602001909291905050506112c7565b005b3480156107d257600080fd5b506107ff600480360360208110156107e957600080fd5b8101908080359060200190929190505050611407565b6040518082815260200191505060405180910390f35b34801561082157600080fd5b506108586004803603604081101561083857600080fd5b810190808035906020019092919080359060200190929190505050611427565b005b34801561086657600080fd5b506108a96004803603602081101561087d57600080fd5b81019080803573ffffffffffffffffffffffffffffffffffffffff16906020019092919050505061152c565b005b3480156108b757600080fd5b506108f0600480360360408110156108ce57600080fd5b810190808035906020019092919080351515906020019092919050505061154b565b005b3480156108fe57600080fd5b506109416004803603602081101561091557600080fd5b81019080803573ffffffffffffffffffffffffffffffffffffffff169060200190929190505050611664565b604051808215151515815260200191505060405180910390f35b600160003373ffffffffffffffffffffffffffffffffffffffff1673ffffffffffffffffffffffffffffffffffffffff16815260200190815260200160002060009054906101000a900460ff161515610a42576040517f08c379a000000000000000000000000000000000000000000000000000000000815260040180806020018281038252603b8152602001807f446f206e6f742068617665207468652068616e646c6572207065726d6973736981526020017f6f6e20746f20777269746520696e207468652073746f7261676521000000000081525060400191505060405180910390fd5b80600860006101000a81548160ff02191690831515021790555050565b6000610a69610f86565b1515610a7457600080fd5b6000600160008473ffffffffffffffffffffffffffffffffffffffff1673ffffffffffffffffffffffffffffffffffffffff16815260200190815260200160002060006101000a81548160ff02191690831515021790555060019050919050565b60006002600401600083815260200190815260200160002060009054906101000a900473ffffffffffffffffffffffffffffffffffffffff169050919050565b600160003373ffffffffffffffffffffffffffffffffffffffff1673ffffffffffffffffffffffffffffffffffffffff16815260200190815260200160002060009054906101000a900460ff161515610bfc576040517f08c379a000000000000000000000000000000000000000000000000000000000815260040180806020018281038252603b8152602001807f446f206e6f742068617665207468652068616e646c6572207065726d6973736981526020017f6f6e20746f20777269746520696e207468652073746f7261676521000000000081525060400191505060405180910390fd5b80600260050160008481526020019081526020016000209080519060200190610c269291906117d3565b505050565b60006002600001600083815260200190815260200160002060009054906101000a900460ff169050919050565b600160003373ffffffffffffffffffffffffffffffffffffffff1673ffffffffffffffffffffffffffffffffffffffff16815260200190815260200160002060009054906101000a900460ff161515610d3f576040517f08c379a000000000000000000000000000000000000000000000000000000000815260040180806020018281038252603b8152602001807f446f206e6f742068617665207468652068616e646c6572207065726d6973736981526020017f6f6e20746f20777269746520696e207468652073746f7261676521000000000081525060400191505060405180910390fd5b8060026001016000848152602001908152602001600020819055505050565b6000600860009054906101000a900460ff16905090565b600160003373ffffffffffffffffffffffffffffffffffffffff1673ffffffffffffffffffffffffffffffffffffffff16815260200190815260200160002060009054906101000a900460ff161515610e5c576040517f08c379a000000000000000000000000000000000000000000000000000000000815260040180806020018281038252603b8152602001807f446f206e6f742068617665207468652068616e646c6572207065726d6973736981526020017f6f6e20746f20777269746520696e207468652073746f7261676521000000000081525060400191505060405180910390fd5b80600260030160008481526020019081526020016000209080519060200190610e86929190611853565b505050565b610e93610f86565b1515610e9e57600080fd5b600073ffffffffffffffffffffffffffffffffffffffff166000809054906101000a900473ffffffffffffffffffffffffffffffffffffffff1673ffffffffffffffffffffffffffffffffffffffff167f8be0079c531659141344cd1fd0a4f28419497f9722a3daafe3b4186f6b6457e060405160405180910390a360008060006101000a81548173ffffffffffffffffffffffffffffffffffffffff021916908373ffffffffffffffffffffffffffffffffffffffff160217905550565b60008060009054906101000a900473ffffffffffffffffffffffffffffffffffffffff16905090565b60008060009054906101000a900473ffffffffffffffffffffffffffffffffffffffff1673ffffffffffffffffffffffffffffffffffffffff163373ffffffffffffffffffffffffffffffffffffffff1614905090565b600860009054906101000a900460ff1681565b6000600160003373ffffffffffffffffffffffffffffffffffffffff1673ffffffffffffffffffffffffffffffffffffffff16815260200190815260200160002060009054906101000a900460ff1615156110d9576040517f08c379a000000000000000000000000000000000000000000000000000000000815260040180806020018281038252603b8152602001807f446f206e6f742068617665207468652068616e646c6572207065726d6973736981526020017f6f6e20746f20777269746520696e207468652073746f7261676521000000000081525060400191505060405180910390fd5b6000600160003373ffffffffffffffffffffffffffffffffffffffff1673ffffffffffffffffffffffffffffffffffffffff16815260200190815260200160002060006101000a81548160ff0219169083151502179055506001905090565b6060600260030160008381526020019081526020016000208054600181600116156101000203166002900480601f0160208091040260200160405190810160405280929190818152602001828054600181600116156101000203166002900480156111e45780601f106111b9576101008083540402835291602001916111e4565b820191906000526020600020905b8154815290600101906020018083116111c757829003601f168201915b50505050509050919050565b6000600280016000838152602001908152602001600020549050919050565b6060600260050160008381526020019081526020016000208054600181600116156101000203166002900480601f0160208091040260200160405190810160405280929190818152602001828054600181600116156101000203166002900480156112bb5780601f10611290576101008083540402835291602001916112bb565b820191906000526020600020905b81548152906001019060200180831161129e57829003601f168201915b50505050509050919050565b600160003373ffffffffffffffffffffffffffffffffffffffff1673ffffffffffffffffffffffffffffffffffffffff16815260200190815260200160002060009054906101000a900460ff1615156113ae576040517f08c379a000000000000000000000000000000000000000000000000000000000815260040180806020018281038252603b8152602001807f446f206e6f742068617665207468652068616e646c6572207065726d6973736981526020017f6f6e20746f20777269746520696e207468652073746f7261676521000000000081525060400191505060405180910390fd5b806002600401600084815260200190815260200160002060006101000a81548173ffffffffffffffffffffffffffffffffffffffff021916908373ffffffffffffffffffffffffffffffffffffffff1602179055505050565b600060026001016000838152602001908152602001600020549050919050565b600160003373ffffffffffffffffffffffffffffffffffffffff1673ffffffffffffffffffffffffffffffffffffffff16815260200190815260200160002060009054906101000a900460ff16151561150e576040517f08c379a000000000000000000000000000000000000000000000000000000000815260040180806020018281038252603b8152602001807f446f206e6f742068617665207468652068616e646c6572207065726d6973736981526020017f6f6e20746f20777269746520696e207468652073746f7261676521000000000081525060400191505060405180910390fd5b80600280016000848152602001908152602001600020819055505050565b611534610f86565b151561153f57600080fd5b611548816116d9565b50565b600160003373ffffffffffffffffffffffffffffffffffffffff1673ffffffffffffffffffffffffffffffffffffffff16815260200190815260200160002060009054906101000a900460ff161515611632576040517f08c379a000000000000000000000000000000000000000000000000000000000815260040180806020018281038252603b8152602001807f446f206e6f742068617665207468652068616e646c6572207065726d6973736981526020017f6f6e20746f20777269746520696e207468652073746f7261676521000000000081525060400191505060405180910390fd5b806002600001600084815260200190815260200160002060006101000a81548160ff0219169083151502179055505050565b600061166e610f86565b151561167957600080fd5b60018060008473ffffffffffffffffffffffffffffffffffffffff1673ffffffffffffffffffffffffffffffffffffffff16815260200190815260200160002060006101000a81548160ff02191690831515021790555060019050919050565b600073ffffffffffffffffffffffffffffffffffffffff168173ffffffffffffffffffffffffffffffffffffffff161415151561171557600080fd5b8073ffffffffffffffffffffffffffffffffffffffff166000809054906101000a900473ffffffffffffffffffffffffffffffffffffffff1673ffffffffffffffffffffffffffffffffffffffff167f8be0079c531659141344cd1fd0a4f28419497f9722a3daafe3b4186f6b6457e060405160405180910390a3806000806101000a81548173ffffffffffffffffffffffffffffffffffffffff021916908373ffffffffffffffffffffffffffffffffffffffff16021790555050565b828054600181600116156101000203166002900490600052602060002090601f016020900481019282601f1061181457805160ff1916838001178555611842565b82800160010185558215611842579182015b82811115611841578251825591602001919060010190611826565b5b50905061184f91906118d3565b5090565b828054600181600116156101000203166002900490600052602060002090601f016020900481019282601f1061189457805160ff19168380011785556118c2565b828001600101855582156118c2579182015b828111156118c15782518255916020019190600101906118a6565b5b5090506118cf91906118d3565b5090565b6118f591905b808211156118f15760008160009055506001016118d9565b5090565b9056fea165627a7a72305820f862eb2fe257f4258f280125fb8f15955cbc7acd1637e1ea9453814c1524a4190029608060405234801561001057600080fd5b506040516020806105488339810180604052602081101561003057600080fd5b8101908080519060200190929190505050806000806101000a81548173ffffffffffffffffffffffffffffffffffffffff021916908373ffffffffffffffffffffffffffffffffffffffff160217905550506104b7806100916000396000f3fe608060405260043610610057576000357c0100000000000000000000000000000000000000000000000000000000900463ffffffff1680637a0be7ba1461005c578063c802f1b414610097578063d2786d0f146100c2575b600080fd5b34801561006857600080fd5b506100956004803603602081101561007f57600080fd5b8101908080359060200190929190505050610113565b005b3480156100a357600080fd5b506100ac61029f565b6040518082815260200191505060405180910390f35b3480156100ce57600080fd5b50610111600480360360208110156100e557600080fd5b81019080803573ffffffffffffffffffffffffffffffffffffffff169060200190929190505050610447565b005b6000600160009054906101000a900473ffffffffffffffffffffffffffffffffffffffff1660405160200180807f4c6567616c456e74697479496e666f0000000000000000000000000000000000815250600f018273ffffffffffffffffffffffffffffffffffffffff1673ffffffffffffffffffffffffffffffffffffffff166c01000000000000000000000000028152601401807f636e706a000000000000000000000000000000000000000000000000000000008152506004019150506040516020818303038152906040528051906020012090506000809054906101000a900473ffffffffffffffffffffffffffffffffffffffff1673ffffffffffffffffffffffffffffffffffffffff1663e2a4853a82846040518363ffffffff167c01000000000000000000000000000000000000000000000000000000000281526004018083815260200182815260200192505050600060405180830381600087803b15801561028357600080fd5b505af1158015610297573d6000803e3d6000fd5b505050505050565b600080600160009054906101000a900473ffffffffffffffffffffffffffffffffffffffff1660405160200180807f4c6567616c456e74697479496e666f0000000000000000000000000000000000815250600f018273ffffffffffffffffffffffffffffffffffffffff1673ffffffffffffffffffffffffffffffffffffffff166c01000000000000000000000000028152601401807f636e706a000000000000000000000000000000000000000000000000000000008152506004019150506040516020818303038152906040528051906020012090506000809054906101000a900473ffffffffffffffffffffffffffffffffffffffff1673ffffffffffffffffffffffffffffffffffffffff1663bd02d0f5826040518263ffffffff167c01000000000000000000000000000000000000000000000000000000000281526004018082815260200191505060206040518083038186803b15801561040657600080fd5b505afa15801561041a573d6000803e3d6000fd5b505050506040513d602081101561043057600080fd5b810190808051906020019092919050505091505090565b80600160006101000a81548173ffffffffffffffffffffffffffffffffffffffff021916908373ffffffffffffffffffffffffffffffffffffffff1602179055505056fea165627a7a723058201694b05082f627f8a7e1888c47c02dbd6fe80a09e6633a339986717baf6f77870029608060405234801561001057600080fd5b506040516020806109dd8339810180604052602081101561003057600080fd5b8101908080519060200190929190505050336000806101000a81548173ffffffffffffffffffffffffffffffffffffffff021916908373ffffffffffffffffffffffffffffffffffffffff1602179055506000809054906101000a900473ffffffffffffffffffffffffffffffffffffffff1673ffffffffffffffffffffffffffffffffffffffff16600073ffffffffffffffffffffffffffffffffffffffff167f8be0079c531659141344cd1fd0a4f28419497f9722a3daafe3b4186f6b6457e060405160405180910390a380600160006101000a81548173ffffffffffffffffffffffffffffffffffffffff021916908373ffffffffffffffffffffffffffffffffffffffff1602179055505061088f8061014e6000396000f3fe608060405260043610610083576000357c0100000000000000000000000000000000000000000000000000000000900463ffffffff1680632249578014610088578063715018a6146100cd57806379aa330c146100e45780638da5cb5b146101355780638f32d59b1461018c578063be49b78d146101bb578063f2fde38b14610220575b600080fd5b34801561009457600080fd5b506100cb600480360360208110156100ab57600080fd5b81019080803567ffffffffffffffff169060200190929190505050610271565b005b3480156100d957600080fd5b506100e2610382565b005b3480156100f057600080fd5b506101336004803603602081101561010757600080fd5b81019080803573ffffffffffffffffffffffffffffffffffffffff169060200190929190505050610454565b005b34801561014157600080fd5b5061014a6104ab565b604051808273ffffffffffffffffffffffffffffffffffffffff1673ffffffffffffffffffffffffffffffffffffffff16815260200191505060405180910390f35b34801561019857600080fd5b506101a16104d4565b604051808215151515815260200191505060405180910390f35b3480156101c757600080fd5b5061020a600480360360208110156101de57600080fd5b81019080803573ffffffffffffffffffffffffffffffffffffffff16906020019092919050505061052b565b6040518082815260200191505060405180910390f35b34801561022c57600080fd5b5061026f6004803603602081101561024357600080fd5b81019080803573ffffffffffffffffffffffffffffffffffffffff169060200190929190505050610649565b005b61027a33610668565b73ffffffffffffffffffffffffffffffffffffffff16637a0be7ba826040518263ffffffff167c0100000000000000000000000000000000000000000000000000000000028152600401808267ffffffffffffffff168152602001915050600060405180830381600087803b1580156102f257600080fd5b505af1158015610306573d6000803e3d6000fd5b505050507fa9f3119338764d1fee17848d0ed97f9be278c5dc4fa0639702efe88beebcffc13382604051808373ffffffffffffffffffffffffffffffffffffffff1673ffffffffffffffffffffffffffffffffffffffff1681526020018267ffffffffffffffff1681526020019250505060405180910390a150565b61038a6104d4565b151561039557600080fd5b600073ffffffffffffffffffffffffffffffffffffffff166000809054906101000a900473ffffffffffffffffffffffffffffffffffffffff1673ffffffffffffffffffffffffffffffffffffffff167f8be0079c531659141344cd1fd0a4f28419497f9722a3daafe3b4186f6b6457e060405160405180910390a360008060006101000a81548173ffffffffffffffffffffffffffffffffffffffff021916908373ffffffffffffffffffffffffffffffffffffffff160217905550565b61045c6104d4565b151561046757600080fd5b80600160006101000a81548173ffffffffffffffffffffffffffffffffffffffff021916908373ffffffffffffffffffffffffffffffffffffffff16021790555050565b60008060009054906101000a900473ffffffffffffffffffffffffffffffffffffffff16905090565b60008060009054906101000a900473ffffffffffffffffffffffffffffffffffffffff1673ffffffffffffffffffffffffffffffffffffffff163373ffffffffffffffffffffffffffffffffffffffff1614905090565b60008061053783610668565b73ffffffffffffffffffffffffffffffffffffffff1663c802f1b46040518163ffffffff167c010000000000000000000000000000000000000000000000000000000002815260040160206040518083038186803b15801561059857600080fd5b505afa1580156105ac573d6000803e3d6000fd5b505050506040513d60208110156105c257600080fd5b810190808051906020019092919050505090507fa9f3119338764d1fee17848d0ed97f9be278c5dc4fa0639702efe88beebcffc18382604051808373ffffffffffffffffffffffffffffffffffffffff1673ffffffffffffffffffffffffffffffffffffffff1681526020018281526020019250505060405180910390a180915050919050565b6106516104d4565b151561065c57600080fd5b61066581610769565b50565b6000600160009054906101000a900473ffffffffffffffffffffffffffffffffffffffff1673ffffffffffffffffffffffffffffffffffffffff1663d2786d0f836040518263ffffffff167c0100000000000000000000000000000000000000000000000000000000028152600401808273ffffffffffffffffffffffffffffffffffffffff1673ffffffffffffffffffffffffffffffffffffffff168152602001915050600060405180830381600087803b15801561072757600080fd5b505af115801561073b573d6000803e3d6000fd5b50505050600160009054906101000a900473ffffffffffffffffffffffffffffffffffffffff169050919050565b600073ffffffffffffffffffffffffffffffffffffffff168173ffffffffffffffffffffffffffffffffffffffff16141515156107a557600080fd5b8073ffffffffffffffffffffffffffffffffffffffff166000809054906101000a900473ffffffffffffffffffffffffffffffffffffffff1673ffffffffffffffffffffffffffffffffffffffff167f8be0079c531659141344cd1fd0a4f28419497f9722a3daafe3b4186f6b6457e060405160405180910390a3806000806101000a81548173ffffffffffffffffffffffffffffffffffffffff021916908373ffffffffffffffffffffffffffffffffffffffff1602179055505056fea165627a7a72305820e72147f1ef30e705a5e6f29d4d0c4fc595df2a765f0d0005500de444c5e5332a0029a165627a7a72305820010f02737c27e475403f45bdc3c1fa32862560f2e9c6130cfb0e7d0d06f30ae00029",
  "source": "pragma solidity ^0.5.0;\r\n\r\nimport \"openzeppelin-solidity/contracts/ownership/Ownable.sol\";\r\nimport \"./LegalEntityMapping.sol\";\r\nimport \"./Storage.sol\";\r\nimport \"./BNDESRegistry.sol\";\r\n\r\n\r\ncontract BNDESFactory is Ownable() {\r\n\r\n    Storage public storageContract;\r\n    LegalEntityMapping public legalEntityMapping;\r\n    BNDESRegistry public bndesRegistry;\r\n\r\n    constructor () public {\r\n    }\r\n    \r\n\r\n    function createAll () public onlyOwner {\r\n        storageContract = new Storage();\r\n       \r\n        legalEntityMapping = new LegalEntityMapping(address(storageContract));\r\n        address legalEntityMappingAddr = address(legalEntityMapping);\r\n\r\n        storageContract.addHandler(legalEntityMappingAddr);\r\n        bndesRegistry = new BNDESRegistry(legalEntityMappingAddr);\r\n        \r\n    }\r\n\r\n    function getOwnershipContracts() public onlyOwner {\r\n\r\n        storageContract.transferOwnership(owner());\r\n        bndesRegistry.transferOwnership(owner());\r\n    }\r\n\r\n    function changeLegalEntityMapping (address newLegalEntityAddr) public onlyOwner {\r\n\r\n        storageContract.removeHandler(address(legalEntityMapping));\r\n        storageContract.addHandler(newLegalEntityAddr);\r\n\r\n        legalEntityMapping = LegalEntityMapping(newLegalEntityAddr);\r\n        bndesRegistry.setLegalEntityMapping(newLegalEntityAddr);\r\n        \r\n    }\r\n\r\n    \r\n}",
  "sourcePath": "D:/Workspace/bndestoken/Back-Blockchain-Upgrade/contracts/BNDESFactory.sol",
  "compiler": {
    "name": "solc",
    "version": "0.5.0+commit.1d4f565a.Emscripten.clang"
  },
  "schemaVersion": "3.0.5",
  "updatedAt": "2019-09-05T19:57:07.709Z",
  "devdoc": {
    "methods": {
      "isOwner()": {
        "return": "true if `msg.sender` is the owner of the contract."
      },
      "owner()": {
        "return": "the address of the owner."
      },
      "renounceOwnership()": {
        "details": "Allows the current owner to relinquish control of the contract."
      },
      "transferOwnership(address)": {
        "details": "Allows the current owner to transfer control of the contract to a newOwner.",
        "params": {
          "newOwner": "The address to transfer ownership to."
        }
      }
    }
  },
  "userdoc": {
    "methods": {
      "renounceOwnership()": {
        "notice": "Renouncing to ownership will leave the contract without an owner. It will not be possible to call the functions with the `onlyOwner` modifier anymore."
      }
    }
  }
}