{
  "contractName": "BNDESGovernance",
  "abi": [
    {
      "constant": false,
      "inputs": [],
      "name": "renounceOwnership",
      "outputs": [],
      "payable": false,
      "stateMutability": "nonpayable",
      "type": "function"
    },
    {
      "constant": true,
      "inputs": [],
      "name": "owner",
      "outputs": [
        {
          "name": "",
          "type": "address"
        }
      ],
      "payable": false,
      "stateMutability": "view",
      "type": "function"
    },
    {
      "constant": true,
      "inputs": [],
      "name": "isOwner",
      "outputs": [
        {
          "name": "",
          "type": "bool"
        }
      ],
      "payable": false,
      "stateMutability": "view",
      "type": "function"
    },
    {
      "constant": false,
      "inputs": [
        {
          "name": "newOwner",
          "type": "address"
        }
      ],
      "name": "transferOwnership",
      "outputs": [],
      "payable": false,
      "stateMutability": "nonpayable",
      "type": "function"
    },
    {
      "anonymous": false,
      "inputs": [],
      "name": "notifyObservers",
      "type": "event"
    },
    {
      "anonymous": false,
      "inputs": [
        {
          "indexed": true,
          "name": "previousOwner",
          "type": "address"
        },
        {
          "indexed": true,
          "name": "newOwner",
          "type": "address"
        }
      ],
      "name": "OwnershipTransferred",
      "type": "event"
    },
    {
      "constant": false,
      "inputs": [
        {
          "name": "observerAddr",
          "type": "address"
        }
      ],
      "name": "registryObserverGovernance",
      "outputs": [],
      "payable": false,
      "stateMutability": "nonpayable",
      "type": "function"
    }
  ],
  "bytecode": "0x6080604052336000806101000a81548173ffffffffffffffffffffffffffffffffffffffff021916908373ffffffffffffffffffffffffffffffffffffffff1602179055506000809054906101000a900473ffffffffffffffffffffffffffffffffffffffff1673ffffffffffffffffffffffffffffffffffffffff16600073ffffffffffffffffffffffffffffffffffffffff167f8be0079c531659141344cd1fd0a4f28419497f9722a3daafe3b4186f6b6457e060405160405180910390a361044b806100cf6000396000f3fe60806040526004361061006d576000357c0100000000000000000000000000000000000000000000000000000000900463ffffffff168063715018a6146100725780638da5cb5b146100895780638f32d59b146100e0578063c9a9732f1461010f578063f2fde38b14610160575b600080fd5b34801561007e57600080fd5b506100876101b1565b005b34801561009557600080fd5b5061009e610283565b604051808273ffffffffffffffffffffffffffffffffffffffff1673ffffffffffffffffffffffffffffffffffffffff16815260200191505060405180910390f35b3480156100ec57600080fd5b506100f56102ac565b604051808215151515815260200191505060405180910390f35b34801561011b57600080fd5b5061015e6004803603602081101561013257600080fd5b81019080803573ffffffffffffffffffffffffffffffffffffffff169060200190929190505050610303565b005b34801561016c57600080fd5b506101af6004803603602081101561018357600080fd5b81019080803573ffffffffffffffffffffffffffffffffffffffff169060200190929190505050610306565b005b6101b96102ac565b15156101c457600080fd5b600073ffffffffffffffffffffffffffffffffffffffff166000809054906101000a900473ffffffffffffffffffffffffffffffffffffffff1673ffffffffffffffffffffffffffffffffffffffff167f8be0079c531659141344cd1fd0a4f28419497f9722a3daafe3b4186f6b6457e060405160405180910390a360008060006101000a81548173ffffffffffffffffffffffffffffffffffffffff021916908373ffffffffffffffffffffffffffffffffffffffff160217905550565b60008060009054906101000a900473ffffffffffffffffffffffffffffffffffffffff16905090565b60008060009054906101000a900473ffffffffffffffffffffffffffffffffffffffff1673ffffffffffffffffffffffffffffffffffffffff163373ffffffffffffffffffffffffffffffffffffffff1614905090565b50565b61030e6102ac565b151561031957600080fd5b61032281610325565b50565b600073ffffffffffffffffffffffffffffffffffffffff168173ffffffffffffffffffffffffffffffffffffffff161415151561036157600080fd5b8073ffffffffffffffffffffffffffffffffffffffff166000809054906101000a900473ffffffffffffffffffffffffffffffffffffffff1673ffffffffffffffffffffffffffffffffffffffff167f8be0079c531659141344cd1fd0a4f28419497f9722a3daafe3b4186f6b6457e060405160405180910390a3806000806101000a81548173ffffffffffffffffffffffffffffffffffffffff021916908373ffffffffffffffffffffffffffffffffffffffff1602179055505056fea165627a7a72305820ad629bd5cb39e7d0a92185e2314e89c7d111e56cf61793c2c571e2d8494891120029",
  "source": "pragma solidity ^0.5.0;\r\n\r\nimport \"openzeppelin-solidity/contracts/ownership/Ownable.sol\";\r\n\r\ncontract BNDESGovernance is Ownable() {\r\n\r\n    function registryObserverGovernance(address observerAddr) external {\r\n\r\n    }\r\n\r\n    event notifyObservers();\r\n\r\n/*\r\n    function emergencyUpdate(string memory hashDescriptionUpdate, address contractUpdaterAddr) \r\n        external onlyOwner {\r\n\r\n            //Verifica se contrato eh de atualizacao de dados. Se sim, joga para Factory change data\r\n            \r\n            //Criar uma codificacao sobre metodos da Factory junto com o novo contrato a atualizar\r\n            //Lembrar que factory pode crescer. Como fazer isso? Juntar tudo num metodo soh cheio de if?\r\n            //Pode receber um array de atualizações.\r\n\r\n\r\n    }\r\n\r\n\r\n    //TODO: evaluate if we should do a pre registration, before the decision itself\r\n    function normalUpdate(string memory hashDescriptionUpdate, address decisionContractAddr, \r\n        int resultDecision, address contractUpdaterAddr) external onlyOwner {\r\n\r\n            //TODO: modelar resultados possiveis - cancelado, aprovado, reprovado\r\n            if (resultDecision==1) {\r\n\r\n\r\n            }\r\n            else {\r\n\r\n\r\n            }\r\n    }   \r\n*/     \r\n}",
  "sourcePath": "D:/Workspace/bndestoken/Back-Blockchain-Upgrade/contracts/BNDESGovernance.sol",
  "compiler": {
    "name": "solc",
    "version": "0.5.0+commit.1d4f565a.Emscripten.clang"
  },
  "schemaVersion": "3.0.5",
  "updatedAt": "2019-09-06T18:26:22.696Z",
  "devdoc": {
    "methods": {
      "isOwner()": {
        "return": "true if `msg.sender` is the owner of the contract."
      },
      "owner()": {
        "return": "the address of the owner."
      },
      "renounceOwnership()": {
        "details": "Allows the current owner to relinquish control of the contract."
      },
      "transferOwnership(address)": {
        "details": "Allows the current owner to transfer control of the contract to a newOwner.",
        "params": {
          "newOwner": "The address to transfer ownership to."
        }
      }
    }
  },
  "userdoc": {
    "methods": {
      "renounceOwnership()": {
        "notice": "Renouncing to ownership will leave the contract without an owner. It will not be possible to call the functions with the `onlyOwner` modifier anymore."
      }
    }
  }
}