{
  "contractName": "BNDESAdmin",
  "abi": [
    {
      "constant": true,
      "inputs": [],
      "name": "storageContract",
      "outputs": [
        {
          "name": "",
          "type": "address"
        }
      ],
      "payable": false,
      "stateMutability": "view",
      "type": "function"
    },
    {
      "constant": true,
      "inputs": [],
      "name": "bndesRegistry",
      "outputs": [
        {
          "name": "",
          "type": "address"
        }
      ],
      "payable": false,
      "stateMutability": "view",
      "type": "function"
    },
    {
      "constant": false,
      "inputs": [],
      "name": "renounceOwnership",
      "outputs": [],
      "payable": false,
      "stateMutability": "nonpayable",
      "type": "function"
    },
    {
      "constant": true,
      "inputs": [],
      "name": "owner",
      "outputs": [
        {
          "name": "",
          "type": "address"
        }
      ],
      "payable": false,
      "stateMutability": "view",
      "type": "function"
    },
    {
      "constant": true,
      "inputs": [],
      "name": "isOwner",
      "outputs": [
        {
          "name": "",
          "type": "bool"
        }
      ],
      "payable": false,
      "stateMutability": "view",
      "type": "function"
    },
    {
      "constant": true,
      "inputs": [],
      "name": "bndesGovernance",
      "outputs": [
        {
          "name": "",
          "type": "address"
        }
      ],
      "payable": false,
      "stateMutability": "view",
      "type": "function"
    },
    {
      "constant": true,
      "inputs": [],
      "name": "legalEntityMapping",
      "outputs": [
        {
          "name": "",
          "type": "address"
        }
      ],
      "payable": false,
      "stateMutability": "view",
      "type": "function"
    },
    {
      "constant": false,
      "inputs": [
        {
          "name": "newOwner",
          "type": "address"
        }
      ],
      "name": "transferOwnership",
      "outputs": [],
      "payable": false,
      "stateMutability": "nonpayable",
      "type": "function"
    },
    {
      "anonymous": false,
      "inputs": [
        {
          "indexed": true,
          "name": "previousOwner",
          "type": "address"
        },
        {
          "indexed": true,
          "name": "newOwner",
          "type": "address"
        }
      ],
      "name": "OwnershipTransferred",
      "type": "event"
    }
  ],
  "bytecode": "0x6080604052336000806101000a81548173ffffffffffffffffffffffffffffffffffffffff021916908373ffffffffffffffffffffffffffffffffffffffff1602179055506000809054906101000a900473ffffffffffffffffffffffffffffffffffffffff1673ffffffffffffffffffffffffffffffffffffffff16600073ffffffffffffffffffffffffffffffffffffffff167f8be0079c531659141344cd1fd0a4f28419497f9722a3daafe3b4186f6b6457e060405160405180910390a361060c806100cf6000396000f3fe60806040526004361061008e576000357c0100000000000000000000000000000000000000000000000000000000900463ffffffff16806311ce0267146100935780633436e6bb146100ea578063715018a6146101415780638da5cb5b146101585780638f32d59b146101af5780638f7cc992146101de578063bf85705114610235578063f2fde38b1461028c575b600080fd5b34801561009f57600080fd5b506100a86102dd565b604051808273ffffffffffffffffffffffffffffffffffffffff1673ffffffffffffffffffffffffffffffffffffffff16815260200191505060405180910390f35b3480156100f657600080fd5b506100ff610303565b604051808273ffffffffffffffffffffffffffffffffffffffff1673ffffffffffffffffffffffffffffffffffffffff16815260200191505060405180910390f35b34801561014d57600080fd5b50610156610329565b005b34801561016457600080fd5b5061016d6103fb565b604051808273ffffffffffffffffffffffffffffffffffffffff1673ffffffffffffffffffffffffffffffffffffffff16815260200191505060405180910390f35b3480156101bb57600080fd5b506101c4610424565b604051808215151515815260200191505060405180910390f35b3480156101ea57600080fd5b506101f361047b565b604051808273ffffffffffffffffffffffffffffffffffffffff1673ffffffffffffffffffffffffffffffffffffffff16815260200191505060405180910390f35b34801561024157600080fd5b5061024a6104a1565b604051808273ffffffffffffffffffffffffffffffffffffffff1673ffffffffffffffffffffffffffffffffffffffff16815260200191505060405180910390f35b34801561029857600080fd5b506102db600480360360208110156102af57600080fd5b81019080803573ffffffffffffffffffffffffffffffffffffffff1690602001909291905050506104c7565b005b600160009054906101000a900473ffffffffffffffffffffffffffffffffffffffff1681565b600360009054906101000a900473ffffffffffffffffffffffffffffffffffffffff1681565b610331610424565b151561033c57600080fd5b600073ffffffffffffffffffffffffffffffffffffffff166000809054906101000a900473ffffffffffffffffffffffffffffffffffffffff1673ffffffffffffffffffffffffffffffffffffffff167f8be0079c531659141344cd1fd0a4f28419497f9722a3daafe3b4186f6b6457e060405160405180910390a360008060006101000a81548173ffffffffffffffffffffffffffffffffffffffff021916908373ffffffffffffffffffffffffffffffffffffffff160217905550565b60008060009054906101000a900473ffffffffffffffffffffffffffffffffffffffff16905090565b60008060009054906101000a900473ffffffffffffffffffffffffffffffffffffffff1673ffffffffffffffffffffffffffffffffffffffff163373ffffffffffffffffffffffffffffffffffffffff1614905090565b600460009054906101000a900473ffffffffffffffffffffffffffffffffffffffff1681565b600260009054906101000a900473ffffffffffffffffffffffffffffffffffffffff1681565b6104cf610424565b15156104da57600080fd5b6104e3816104e6565b50565b600073ffffffffffffffffffffffffffffffffffffffff168173ffffffffffffffffffffffffffffffffffffffff161415151561052257600080fd5b8073ffffffffffffffffffffffffffffffffffffffff166000809054906101000a900473ffffffffffffffffffffffffffffffffffffffff1673ffffffffffffffffffffffffffffffffffffffff167f8be0079c531659141344cd1fd0a4f28419497f9722a3daafe3b4186f6b6457e060405160405180910390a3806000806101000a81548173ffffffffffffffffffffffffffffffffffffffff021916908373ffffffffffffffffffffffffffffffffffffffff1602179055505056fea165627a7a72305820a1bb011efca03ed6d8df4de0c77c2c3c4b8c90ee6980f60c4981b76eea3fd25d0029",
  "source": "pragma solidity ^0.5.0;\r\n\r\nimport \"openzeppelin-solidity/contracts/ownership/Ownable.sol\";\r\nimport \"./LegalEntityMapping.sol\";\r\nimport \"./Storage.sol\";\r\nimport \"./BNDESRegistry.sol\";\r\nimport \"./IChangeDataContract.sol\";\r\nimport \"./BNDESGovernance.sol\";\r\n\r\n\r\n//TODO: aspecto changes precisam receber o hash da mudança para verificar se foi aprovado  - onlyUnderApproval  \r\ncontract BNDESAdmin is Ownable() {\r\n\r\n    Storage public storageContract;\r\n    LegalEntityMapping public legalEntityMapping;\r\n\r\n    BNDESRegistry public bndesRegistry;\r\n//    BNDESResolver public bndesResolver;\r\n    BNDESGovernance public bndesGovernance;\r\n/*\r\n    constructor () public {\r\n    }\r\n    \r\n\r\n    function createAll () public onlyOwner {\r\n        \r\n        storageContract = new Storage();\r\n\r\n        legalEntityMapping = new LegalEntityMapping(address(storageContract));\r\n        address legalEntityMappingAddr = address(legalEntityMapping);\r\n\r\n        storageContract.addHandler(legalEntityMappingAddr);\r\n        bndesRegistry = new BNDESRegistry(legalEntityMappingAddr);\r\n\r\n        bndesResolver = new BNDESResolver();\r\n        bndesResolver.changeContract(\"BNDESRegistry\", address(bndesRegistry));\r\n\r\n        bndesGovernance = new BNDESGovernance(msg.sender);\r\n        \r\n    }\r\n\r\n    function changeBNDESResolver (address newBndesResolverAddr) public onlyOwner {\r\n        \r\n        bndesResolver = BNDESResolver(newBndesResolverAddr);\r\n        \r\n    }\r\n\r\n\r\n    //BNDESFactory needs to be the owner of the dataUpdater contract para chamar o update\r\n    function changeData (address dataUpdaterAddr) public onlyOwner {\r\n       \r\n        storageContract.addHandler(dataUpdaterAddr);\r\n        storageContract.setDataAvailable(false);\r\n        IChangeDataContract iChangeDataContract = IChangeDataContract(dataUpdaterAddr);\r\n        iChangeDataContract.updateData();\r\n        storageContract.setDataAvailable(true);\r\n        storageContract.removeHandler(dataUpdaterAddr);\r\n\r\n    }\r\n\r\n\r\n    function changeLegalEntityMapping (address newLegalEntityAddr) public onlyOwner {\r\n\r\n        storageContract.removeHandler(address(legalEntityMapping));\r\n        storageContract.addHandler(newLegalEntityAddr);\r\n\r\n        legalEntityMapping = LegalEntityMapping(newLegalEntityAddr);\r\n        bndesRegistry.setLegalEntityMapping(newLegalEntityAddr);\r\n        \r\n    }\r\n\r\n    function changeBNDESRegistry (address newBNDESRegistryAddr) public onlyOwner {\r\n        \r\n        bndesRegistry.addPauser(address(bndesResolver));\r\n\r\n        bndesRegistry = BNDESRegistry(newBNDESRegistryAddr);\r\n        bndesResolver.changeContract(\"BNDESRegistry\", newBNDESRegistryAddr);\r\n\r\n        //mudar nos contratos que referenciam o bndesregistry \r\n        \r\n    }\r\n\r\n\r\n\r\n    function getOwnershipBNDESRegistry() public onlyOwner {\r\n        bndesRegistry.transferOwnership(owner());\r\n    }\r\n\r\n\r\n    function pauseAll() public onlyOwner {\r\n        bndesRegistry.pause();\r\n    }\r\n   */\r\n}",
  "sourcePath": "D:/Workspace/bndestoken/Back-Blockchain-Upgrade/contracts/BNDESAdmin.sol",
  "compiler": {
    "name": "solc",
    "version": "0.5.0+commit.1d4f565a.Emscripten.clang"
  },
  "schemaVersion": "3.0.5",
  "updatedAt": "2019-09-13T18:12:29.224Z",
  "devdoc": {
    "methods": {
      "isOwner()": {
        "return": "true if `msg.sender` is the owner of the contract."
      },
      "owner()": {
        "return": "the address of the owner."
      },
      "renounceOwnership()": {
        "details": "Allows the current owner to relinquish control of the contract."
      },
      "transferOwnership(address)": {
        "details": "Allows the current owner to transfer control of the contract to a newOwner.",
        "params": {
          "newOwner": "The address to transfer ownership to."
        }
      }
    }
  },
  "userdoc": {
    "methods": {
      "renounceOwnership()": {
        "notice": "Renouncing to ownership will leave the contract without an owner. It will not be possible to call the functions with the `onlyOwner` modifier anymore."
      }
    }
  }
}