{
  "contractName": "BNDESGovernance",
  "abi": [
    {
      "constant": false,
      "inputs": [],
      "name": "unpause",
      "outputs": [],
      "payable": false,
      "stateMutability": "nonpayable",
      "type": "function"
    },
    {
      "constant": true,
      "inputs": [
        {
          "name": "account",
          "type": "address"
        }
      ],
      "name": "isPauser",
      "outputs": [
        {
          "name": "",
          "type": "bool"
        }
      ],
      "payable": false,
      "stateMutability": "view",
      "type": "function"
    },
    {
      "constant": true,
      "inputs": [],
      "name": "paused",
      "outputs": [
        {
          "name": "",
          "type": "bool"
        }
      ],
      "payable": false,
      "stateMutability": "view",
      "type": "function"
    },
    {
      "constant": false,
      "inputs": [],
      "name": "renouncePauser",
      "outputs": [],
      "payable": false,
      "stateMutability": "nonpayable",
      "type": "function"
    },
    {
      "constant": false,
      "inputs": [],
      "name": "renounceOwnership",
      "outputs": [],
      "payable": false,
      "stateMutability": "nonpayable",
      "type": "function"
    },
    {
      "constant": true,
      "inputs": [
        {
          "name": "",
          "type": "uint256"
        }
      ],
      "name": "governingChanges",
      "outputs": [
        {
          "name": "hashChangeMotivation",
          "type": "bytes32"
        },
        {
          "name": "upgraderContractAddr",
          "type": "address"
        },
        {
          "name": "decisionContractAddr",
          "type": "address"
        },
        {
          "name": "changeState",
          "type": "uint8"
        }
      ],
      "payable": false,
      "stateMutability": "view",
      "type": "function"
    },
    {
      "constant": false,
      "inputs": [
        {
          "name": "account",
          "type": "address"
        }
      ],
      "name": "addPauser",
      "outputs": [],
      "payable": false,
      "stateMutability": "nonpayable",
      "type": "function"
    },
    {
      "constant": false,
      "inputs": [],
      "name": "pause",
      "outputs": [],
      "payable": false,
      "stateMutability": "nonpayable",
      "type": "function"
    },
    {
      "constant": true,
      "inputs": [],
      "name": "owner",
      "outputs": [
        {
          "name": "",
          "type": "address"
        }
      ],
      "payable": false,
      "stateMutability": "view",
      "type": "function"
    },
    {
      "constant": true,
      "inputs": [],
      "name": "isOwner",
      "outputs": [
        {
          "name": "",
          "type": "bool"
        }
      ],
      "payable": false,
      "stateMutability": "view",
      "type": "function"
    },
    {
      "constant": true,
      "inputs": [],
      "name": "upgraderInfo",
      "outputs": [
        {
          "name": "",
          "type": "address"
        }
      ],
      "payable": false,
      "stateMutability": "view",
      "type": "function"
    },
    {
      "constant": false,
      "inputs": [
        {
          "name": "newOwner",
          "type": "address"
        }
      ],
      "name": "transferOwnership",
      "outputs": [],
      "payable": false,
      "stateMutability": "nonpayable",
      "type": "function"
    },
    {
      "inputs": [
        {
          "name": "adminOfNewContractsAddr",
          "type": "address"
        }
      ],
      "payable": false,
      "stateMutability": "nonpayable",
      "type": "constructor"
    },
    {
      "anonymous": false,
      "inputs": [
        {
          "indexed": false,
          "name": "hashChangeMotivation",
          "type": "bytes32"
        },
        {
          "indexed": false,
          "name": "upgraderContractAddr",
          "type": "address"
        },
        {
          "indexed": false,
          "name": "decisionContractAddr",
          "type": "address"
        }
      ],
      "name": "newChangeCreated",
      "type": "event"
    },
    {
      "anonymous": false,
      "inputs": [
        {
          "indexed": false,
          "name": "hashChangeMotivation",
          "type": "bytes32"
        }
      ],
      "name": "changeApproved",
      "type": "event"
    },
    {
      "anonymous": false,
      "inputs": [
        {
          "indexed": false,
          "name": "hashChangeMotivation",
          "type": "bytes32"
        }
      ],
      "name": "changeExecuted",
      "type": "event"
    },
    {
      "anonymous": false,
      "inputs": [
        {
          "indexed": false,
          "name": "hashChangeMotivation",
          "type": "bytes32"
        }
      ],
      "name": "changeDisapproved",
      "type": "event"
    },
    {
      "anonymous": false,
      "inputs": [
        {
          "indexed": false,
          "name": "hashChangeMotivation",
          "type": "bytes32"
        }
      ],
      "name": "changeCancelled",
      "type": "event"
    },
    {
      "anonymous": false,
      "inputs": [
        {
          "indexed": true,
          "name": "previousOwner",
          "type": "address"
        },
        {
          "indexed": true,
          "name": "newOwner",
          "type": "address"
        }
      ],
      "name": "OwnershipTransferred",
      "type": "event"
    },
    {
      "anonymous": false,
      "inputs": [
        {
          "indexed": false,
          "name": "account",
          "type": "address"
        }
      ],
      "name": "Paused",
      "type": "event"
    },
    {
      "anonymous": false,
      "inputs": [
        {
          "indexed": false,
          "name": "account",
          "type": "address"
        }
      ],
      "name": "Unpaused",
      "type": "event"
    },
    {
      "anonymous": false,
      "inputs": [
        {
          "indexed": true,
          "name": "account",
          "type": "address"
        }
      ],
      "name": "PauserAdded",
      "type": "event"
    },
    {
      "anonymous": false,
      "inputs": [
        {
          "indexed": true,
          "name": "account",
          "type": "address"
        }
      ],
      "name": "PauserRemoved",
      "type": "event"
    },
    {
      "constant": true,
      "inputs": [],
      "name": "getUpgraderInfoAddr",
      "outputs": [
        {
          "name": "",
          "type": "address"
        }
      ],
      "payable": false,
      "stateMutability": "view",
      "type": "function"
    },
    {
      "constant": false,
      "inputs": [
        {
          "name": "hashChangeMotivation",
          "type": "bytes32"
        },
        {
          "name": "upgraderContractAddr",
          "type": "address"
        },
        {
          "name": "decisionContractAddr",
          "type": "address"
        }
      ],
      "name": "createNewChange",
      "outputs": [],
      "payable": false,
      "stateMutability": "nonpayable",
      "type": "function"
    },
    {
      "constant": false,
      "inputs": [],
      "name": "approveChangeWithDecisionContract",
      "outputs": [],
      "payable": false,
      "stateMutability": "nonpayable",
      "type": "function"
    },
    {
      "constant": false,
      "inputs": [],
      "name": "denyChangeWithDecisionContract",
      "outputs": [],
      "payable": false,
      "stateMutability": "nonpayable",
      "type": "function"
    },
    {
      "constant": false,
      "inputs": [],
      "name": "executeChange",
      "outputs": [],
      "payable": false,
      "stateMutability": "nonpayable",
      "type": "function"
    },
    {
      "constant": false,
      "inputs": [],
      "name": "cancelChange",
      "outputs": [],
      "payable": false,
      "stateMutability": "nonpayable",
      "type": "function"
    }
  ],
  "bytecode": "0x60806040523480156200001157600080fd5b5060405160208062003016833981018060405260208110156200003357600080fd5b81019080805190602001909291905050506200005e33620001f5640100000000026401000000009004565b6000600160006101000a81548160ff021916908315150217905550336001806101000a81548173ffffffffffffffffffffffffffffffffffffffff021916908373ffffffffffffffffffffffffffffffffffffffff1602179055506001809054906101000a900473ffffffffffffffffffffffffffffffffffffffff1673ffffffffffffffffffffffffffffffffffffffff16600073ffffffffffffffffffffffffffffffffffffffff167f8be0079c531659141344cd1fd0a4f28419497f9722a3daafe3b4186f6b6457e060405160405180910390a36200014f816200025f640100000000026401000000009004565b806200015a62000427565b808273ffffffffffffffffffffffffffffffffffffffff1673ffffffffffffffffffffffffffffffffffffffff168152602001915050604051809103906000f080158015620001ad573d6000803e3d6000fd5b50600360006101000a81548173ffffffffffffffffffffffffffffffffffffffff021916908373ffffffffffffffffffffffffffffffffffffffff1602179055505062000438565b62000219816000620002a26401000000000262001f59179091906401000000009004565b8073ffffffffffffffffffffffffffffffffffffffff167f6719d08c1888103bea251a4ed56406bd0c3e69723c8a1686e017e7bbe159b6f860405160405180910390a250565b620002793362000365640100000000026401000000009004565b15156200028557600080fd5b6200029f81620001f5640100000000026401000000009004565b50565b600073ffffffffffffffffffffffffffffffffffffffff168173ffffffffffffffffffffffffffffffffffffffff1614151515620002df57600080fd5b620002fa828262000392640100000000026401000000009004565b1515156200030757600080fd5b60018260000160008373ffffffffffffffffffffffffffffffffffffffff1673ffffffffffffffffffffffffffffffffffffffff16815260200190815260200160002060006101000a81548160ff0219169083151502179055505050565b60006200038b826000620003926401000000000262001c68179091906401000000009004565b9050919050565b60008073ffffffffffffffffffffffffffffffffffffffff168273ffffffffffffffffffffffffffffffffffffffff1614151515620003d057600080fd5b8260000160008373ffffffffffffffffffffffffffffffffffffffff1673ffffffffffffffffffffffffffffffffffffffff16815260200190815260200160002060009054906101000a900460ff16905092915050565b604051610b3680620024e083390190565b61209880620004486000396000f3fe6080604052600436106100fc576000357c0100000000000000000000000000000000000000000000000000000000900463ffffffff1680633f4ba83a1461010157806346fbf68e1461011857806359e25214146101815780635c196e49146101985780635c975abb146101af5780636ef8d66d146101de578063715018a6146101f55780637636ca6e1461020c57806382dc1ec4146102d65780638456cb59146103275780638da5cb5b1461033e5780638f32d59b14610395578063900126f4146103c4578063a1a4ad581461041b578063acf10d6a14610472578063d13fd5b4146104ed578063d847ea6214610504578063f2fde38b1461051b575b600080fd5b34801561010d57600080fd5b5061011661056c565b005b34801561012457600080fd5b506101676004803603602081101561013b57600080fd5b81019080803573ffffffffffffffffffffffffffffffffffffffff16906020019092919050505061061b565b604051808215151515815260200191505060405180910390f35b34801561018d57600080fd5b50610196610638565b005b3480156101a457600080fd5b506101ad610b29565b005b3480156101bb57600080fd5b506101c4610e53565b604051808215151515815260200191505060405180910390f35b3480156101ea57600080fd5b506101f3610e6a565b005b34801561020157600080fd5b5061020a610e75565b005b34801561021857600080fd5b506102456004803603602081101561022f57600080fd5b8101908080359060200190929190505050610f47565b604051808581526020018473ffffffffffffffffffffffffffffffffffffffff1673ffffffffffffffffffffffffffffffffffffffff1681526020018373ffffffffffffffffffffffffffffffffffffffff1673ffffffffffffffffffffffffffffffffffffffff1681526020018260048111156102bf57fe5b60ff16815260200194505050505060405180910390f35b3480156102e257600080fd5b50610325600480360360208110156102f957600080fd5b81019080803573ffffffffffffffffffffffffffffffffffffffff169060200190929190505050610fd3565b005b34801561033357600080fd5b5061033c610ff3565b005b34801561034a57600080fd5b506103536110a2565b604051808273ffffffffffffffffffffffffffffffffffffffff1673ffffffffffffffffffffffffffffffffffffffff16815260200191505060405180910390f35b3480156103a157600080fd5b506103aa6110cb565b604051808215151515815260200191505060405180910390f35b3480156103d057600080fd5b506103d9611122565b604051808273ffffffffffffffffffffffffffffffffffffffff1673ffffffffffffffffffffffffffffffffffffffff16815260200191505060405180910390f35b34801561042757600080fd5b50610430611148565b604051808273ffffffffffffffffffffffffffffffffffffffff1673ffffffffffffffffffffffffffffffffffffffff16815260200191505060405180910390f35b34801561047e57600080fd5b506104eb6004803603606081101561049557600080fd5b8101908080359060200190929190803573ffffffffffffffffffffffffffffffffffffffff169060200190929190803573ffffffffffffffffffffffffffffffffffffffff16906020019092919050505061120e565b005b3480156104f957600080fd5b50610502611664565b005b34801561051057600080fd5b506105196119b4565b005b34801561052757600080fd5b5061056a6004803603602081101561053e57600080fd5b81019080803573ffffffffffffffffffffffffffffffffffffffff169060200190929190505050611c49565b005b6105753361061b565b151561058057600080fd5b600160009054906101000a900460ff16151561059b57600080fd5b6000600160006101000a81548160ff0219169083151502179055507f5db9ee0a495bf2e6ff9c91a7834c1ba4fdd244a5e8aa4e537bd38aeae4b073aa33604051808273ffffffffffffffffffffffffffffffffffffffff1673ffffffffffffffffffffffffffffffffffffffff16815260200191505060405180910390a1565b6000610631826000611c6890919063ffffffff16565b9050919050565b600360009054906101000a900473ffffffffffffffffffffffffffffffffffffffff1673ffffffffffffffffffffffffffffffffffffffff1663b6db75a06040518163ffffffff167c010000000000000000000000000000000000000000000000000000000002815260040160206040518083038186803b1580156106bc57600080fd5b505afa1580156106d0573d6000803e3d6000fd5b505050506040513d60208110156106e657600080fd5b81019080805190602001909291905050501515610791576040517f08c379a000000000000000000000000000000000000000000000000000000000815260040180806020018281038252603b8152602001807f41206d7564616ec3a7612073c3b320706f64652073657220657865637574616481526020017f612070656c6f2061646d696e20646120676f7665726e616ec3a761000000000081525060400191505060405180910390fd5b610799612009565b60026001600280549050038154811015156107b057fe5b906000526020600020906003020160806040519081016040529081600082015481526020016001820160009054906101000a900473ffffffffffffffffffffffffffffffffffffffff1673ffffffffffffffffffffffffffffffffffffffff1673ffffffffffffffffffffffffffffffffffffffff1681526020016002820160009054906101000a900473ffffffffffffffffffffffffffffffffffffffff1673ffffffffffffffffffffffffffffffffffffffff1673ffffffffffffffffffffffffffffffffffffffff1681526020016002820160149054906101000a900460ff16600481111561089e57fe5b60048111156108a957fe5b815250509050600160048111156108bc57fe5b816060015160048111156108cc57fe5b141515610967576040517f08c379a000000000000000000000000000000000000000000000000000000000815260040180806020018281038252602b8152602001807f41206d7564616ec3a7612070726563697361206573746172206e6f206573746181526020017f646f206170726f7661646100000000000000000000000000000000000000000081525060400191505060405180910390fd5b600081602001519050600360009054906101000a900473ffffffffffffffffffffffffffffffffffffffff1673ffffffffffffffffffffffffffffffffffffffff166311a1c423826040518263ffffffff167c0100000000000000000000000000000000000000000000000000000000028152600401808273ffffffffffffffffffffffffffffffffffffffff1673ffffffffffffffffffffffffffffffffffffffff168152602001915050600060405180830381600087803b158015610a2d57600080fd5b505af1158015610a41573d6000803e3d6000fd5b5050505060008190508073ffffffffffffffffffffffffffffffffffffffff1663d55ec6976040518163ffffffff167c0100000000000000000000000000000000000000000000000000000000028152600401600060405180830381600087803b158015610aae57600080fd5b505af1158015610ac2573d6000803e3d6000fd5b50505050600483606001906004811115610ad857fe5b90816004811115610ae557fe5b815250507ff8ced8d3901f41bcf88877e3585a99bd6d4a2b21d1cb587e8f56c54b4e6abd9e83600001516040518082815260200191505060405180910390a1505050565b610b31612009565b6002600160028054905003815481101515610b4857fe5b906000526020600020906003020160806040519081016040529081600082015481526020016001820160009054906101000a900473ffffffffffffffffffffffffffffffffffffffff1673ffffffffffffffffffffffffffffffffffffffff1673ffffffffffffffffffffffffffffffffffffffff1681526020016002820160009054906101000a900473ffffffffffffffffffffffffffffffffffffffff1673ffffffffffffffffffffffffffffffffffffffff1673ffffffffffffffffffffffffffffffffffffffff1681526020016002820160149054906101000a900460ff166004811115610c3657fe5b6004811115610c4157fe5b81525050905060006004811115610c5457fe5b81606001516004811115610c6457fe5b141515610cff576040517f08c379a000000000000000000000000000000000000000000000000000000000815260040180806020018281038252602a8152602001807f41206d7564616ec3a7612070726563697361206573746172206e6f206573746181526020017f646f2057414954494e470000000000000000000000000000000000000000000081525060400191505060405180910390fd5b3373ffffffffffffffffffffffffffffffffffffffff16816040015173ffffffffffffffffffffffffffffffffffffffff16141515610df2576040517f08c379a00000000000000000000000000000000000000000000000000000000081526004018080602001828103825260478152602001807f41206170726f7661c3a7c3a36f207072656369736120736572206368616d616481526020017f612070656c6f20636f6e747261746f206465206465636973c3a36f206461206d81526020017f7564616ec3a7610000000000000000000000000000000000000000000000000081525060600191505060405180910390fd5b600181606001906004811115610e0457fe5b90816004811115610e1157fe5b815250507fb15915f68c2edae422f8bf11a1a87803f785a4fc53d8caa523a8903304e200f681600001516040518082815260200191505060405180910390a150565b6000600160009054906101000a900460ff16905090565b610e7333611cfc565b565b610e7d6110cb565b1515610e8857600080fd5b600073ffffffffffffffffffffffffffffffffffffffff166001809054906101000a900473ffffffffffffffffffffffffffffffffffffffff1673ffffffffffffffffffffffffffffffffffffffff167f8be0079c531659141344cd1fd0a4f28419497f9722a3daafe3b4186f6b6457e060405160405180910390a360006001806101000a81548173ffffffffffffffffffffffffffffffffffffffff021916908373ffffffffffffffffffffffffffffffffffffffff160217905550565b600281815481101515610f5657fe5b90600052602060002090600302016000915090508060000154908060010160009054906101000a900473ffffffffffffffffffffffffffffffffffffffff16908060020160009054906101000a900473ffffffffffffffffffffffffffffffffffffffff16908060020160149054906101000a900460ff16905084565b610fdc3361061b565b1515610fe757600080fd5b610ff081611d56565b50565b610ffc3361061b565b151561100757600080fd5b600160009054906101000a900460ff1615151561102357600080fd5b60018060006101000a81548160ff0219169083151502179055507f62e78cea01bee320cd4e420270b5ea74000d11b0c9f74754ebdbfc544b05a25833604051808273ffffffffffffffffffffffffffffffffffffffff1673ffffffffffffffffffffffffffffffffffffffff16815260200191505060405180910390a1565b60006001809054906101000a900473ffffffffffffffffffffffffffffffffffffffff16905090565b60006001809054906101000a900473ffffffffffffffffffffffffffffffffffffffff1673ffffffffffffffffffffffffffffffffffffffff163373ffffffffffffffffffffffffffffffffffffffff1614905090565b600360009054906101000a900473ffffffffffffffffffffffffffffffffffffffff1681565b6000600360009054906101000a900473ffffffffffffffffffffffffffffffffffffffff1673ffffffffffffffffffffffffffffffffffffffff1663eff2dcc66040518163ffffffff167c010000000000000000000000000000000000000000000000000000000002815260040160206040518083038186803b1580156111ce57600080fd5b505afa1580156111e2573d6000803e3d6000fd5b505050506040513d60208110156111f857600080fd5b8101908080519060200190929190505050905090565b6112166110cb565b151561122157600080fd5b611229612009565b600073ffffffffffffffffffffffffffffffffffffffff168273ffffffffffffffffffffffffffffffffffffffff16141515611415576080604051908101604052808581526020018473ffffffffffffffffffffffffffffffffffffffff1681526020018373ffffffffffffffffffffffffffffffffffffffff168152602001600060048111156112b657fe5b81525090507f3ebc2d3c93b186fcd5f609f450f440d9c8ef43db8dec724ae7c5911c0b9ab916848484604051808481526020018373ffffffffffffffffffffffffffffffffffffffff1673ffffffffffffffffffffffffffffffffffffffff1681526020018273ffffffffffffffffffffffffffffffffffffffff1673ffffffffffffffffffffffffffffffffffffffff168152602001935050505060405180910390a160008290508073ffffffffffffffffffffffffffffffffffffffff1663ae019ae06002805490506040518263ffffffff167c010000000000000000000000000000000000000000000000000000000002815260040180828152602001915050602060405180830381600087803b1580156113d357600080fd5b505af11580156113e7573d6000803e3d6000fd5b505050506040513d60208110156113fd57600080fd5b8101908080519060200190929190505050505061156c565b6080604051908101604052808581526020018473ffffffffffffffffffffffffffffffffffffffff168152602001600073ffffffffffffffffffffffffffffffffffffffff1681526020016001600481111561146d57fe5b81525090507f3ebc2d3c93b186fcd5f609f450f440d9c8ef43db8dec724ae7c5911c0b9ab916848484604051808481526020018373ffffffffffffffffffffffffffffffffffffffff1673ffffffffffffffffffffffffffffffffffffffff1681526020018273ffffffffffffffffffffffffffffffffffffffff1673ffffffffffffffffffffffffffffffffffffffff168152602001935050505060405180910390a160018160600190600481111561152357fe5b9081600481111561153057fe5b815250507fb15915f68c2edae422f8bf11a1a87803f785a4fc53d8caa523a8903304e200f6846040518082815260200191505060405180910390a15b600281908060018154018082558091505090600182039060005260206000209060030201600090919290919091506000820151816000015560208201518160010160006101000a81548173ffffffffffffffffffffffffffffffffffffffff021916908373ffffffffffffffffffffffffffffffffffffffff16021790555060408201518160020160006101000a81548173ffffffffffffffffffffffffffffffffffffffff021916908373ffffffffffffffffffffffffffffffffffffffff16021790555060608201518160020160146101000a81548160ff0219169083600481111561165657fe5b021790555050505050505050565b61166c612009565b600260016002805490500381548110151561168357fe5b906000526020600020906003020160806040519081016040529081600082015481526020016001820160009054906101000a900473ffffffffffffffffffffffffffffffffffffffff1673ffffffffffffffffffffffffffffffffffffffff1673ffffffffffffffffffffffffffffffffffffffff1681526020016002820160009054906101000a900473ffffffffffffffffffffffffffffffffffffffff1673ffffffffffffffffffffffffffffffffffffffff1673ffffffffffffffffffffffffffffffffffffffff1681526020016002820160149054906101000a900460ff16600481111561177157fe5b600481111561177c57fe5b8152505090506000600481111561178f57fe5b8160600151600481111561179f57fe5b141515611860576040517f08c379a00000000000000000000000000000000000000000000000000000000081526004018080602001828103825260448152602001807f41206d7564616ec3a7612070726563697361206573746172206e6f206573746181526020017f646f20646520657370657261206461206465636973c3a36f206461206d75646181526020017f6ec3a7610000000000000000000000000000000000000000000000000000000081525060600191505060405180910390fd5b3373ffffffffffffffffffffffffffffffffffffffff16816040015173ffffffffffffffffffffffffffffffffffffffff16141515611953576040517f08c379a00000000000000000000000000000000000000000000000000000000081526004018080602001828103825260478152602001807f41206170726f7661c3a7c3a36f207072656369736120736572206368616d616481526020017f612070656c6f20636f6e747261746f206465206465636973c3a36f206461206d81526020017f7564616ec3a7610000000000000000000000000000000000000000000000000081525060600191505060405180910390fd5b60028160600190600481111561196557fe5b9081600481111561197257fe5b815250507ffa471b00bb967be36d288d2994736c3629d8e04aad7c5fd0730bec1aa3ec923081600001516040518082815260200191505060405180910390a150565b6119bc6110cb565b15156119c757600080fd5b6119cf612009565b60026001600280549050038154811015156119e657fe5b906000526020600020906003020160806040519081016040529081600082015481526020016001820160009054906101000a900473ffffffffffffffffffffffffffffffffffffffff1673ffffffffffffffffffffffffffffffffffffffff1673ffffffffffffffffffffffffffffffffffffffff1681526020016002820160009054906101000a900473ffffffffffffffffffffffffffffffffffffffff1673ffffffffffffffffffffffffffffffffffffffff1673ffffffffffffffffffffffffffffffffffffffff1681526020016002820160149054906101000a900460ff166004811115611ad457fe5b6004811115611adf57fe5b81525050905060006004811115611af257fe5b81606001516004811115611b0257fe5b1480611b28575060016004811115611b1657fe5b81606001516004811115611b2657fe5b145b1515611be8576040517f08c379a00000000000000000000000000000000000000000000000000000000081526004018080602001828103825260508152602001807f41206d7564616ec3a7612070726563697361206573746172206e6f206573746181526020017f646f20646520657370657261206461206465636973c3a36f206461206d75646181526020017f6ec3a761206f75206170726f766164610000000000000000000000000000000081525060600191505060405180910390fd5b600381606001906004811115611bfa57fe5b90816004811115611c0757fe5b815250507fddc72f5f68eaa171f2f25ba60728cf4e8025974d9a0aae6e3548a2a765f5d49581600001516040518082815260200191505060405180910390a150565b611c516110cb565b1515611c5c57600080fd5b611c6581611db0565b50565b60008073ffffffffffffffffffffffffffffffffffffffff168273ffffffffffffffffffffffffffffffffffffffff1614151515611ca557600080fd5b8260000160008373ffffffffffffffffffffffffffffffffffffffff1673ffffffffffffffffffffffffffffffffffffffff16815260200190815260200160002060009054906101000a900460ff16905092915050565b611d10816000611eaa90919063ffffffff16565b8073ffffffffffffffffffffffffffffffffffffffff167fcd265ebaf09df2871cc7bd4133404a235ba12eff2041bb89d9c714a2621c7c7e60405160405180910390a250565b611d6a816000611f5990919063ffffffff16565b8073ffffffffffffffffffffffffffffffffffffffff167f6719d08c1888103bea251a4ed56406bd0c3e69723c8a1686e017e7bbe159b6f860405160405180910390a250565b600073ffffffffffffffffffffffffffffffffffffffff168173ffffffffffffffffffffffffffffffffffffffff1614151515611dec57600080fd5b8073ffffffffffffffffffffffffffffffffffffffff166001809054906101000a900473ffffffffffffffffffffffffffffffffffffffff1673ffffffffffffffffffffffffffffffffffffffff167f8be0079c531659141344cd1fd0a4f28419497f9722a3daafe3b4186f6b6457e060405160405180910390a3806001806101000a81548173ffffffffffffffffffffffffffffffffffffffff021916908373ffffffffffffffffffffffffffffffffffffffff16021790555050565b600073ffffffffffffffffffffffffffffffffffffffff168173ffffffffffffffffffffffffffffffffffffffff1614151515611ee657600080fd5b611ef08282611c68565b1515611efb57600080fd5b60008260000160008373ffffffffffffffffffffffffffffffffffffffff1673ffffffffffffffffffffffffffffffffffffffff16815260200190815260200160002060006101000a81548160ff0219169083151502179055505050565b600073ffffffffffffffffffffffffffffffffffffffff168173ffffffffffffffffffffffffffffffffffffffff1614151515611f9557600080fd5b611f9f8282611c68565b151515611fab57600080fd5b60018260000160008373ffffffffffffffffffffffffffffffffffffffff1673ffffffffffffffffffffffffffffffffffffffff16815260200190815260200160002060006101000a81548160ff0219169083151502179055505050565b60806040519081016040528060008019168152602001600073ffffffffffffffffffffffffffffffffffffffff168152602001600073ffffffffffffffffffffffffffffffffffffffff1681526020016000600481111561206657fe5b8152509056fea165627a7a72305820aa20ca809f7cf92790188f2ab1f188b1118c56c73ba1b1a1d3a90ab05a7c59170029608060405234801561001057600080fd5b50604051602080610b368339810180604052602081101561003057600080fd5b8101908080519060200190929190505050336000806101000a81548173ffffffffffffffffffffffffffffffffffffffff021916908373ffffffffffffffffffffffffffffffffffffffff1602179055506000809054906101000a900473ffffffffffffffffffffffffffffffffffffffff1673ffffffffffffffffffffffffffffffffffffffff16600073ffffffffffffffffffffffffffffffffffffffff167f8be0079c531659141344cd1fd0a4f28419497f9722a3daafe3b4186f6b6457e060405160405180910390a38073ffffffffffffffffffffffffffffffffffffffff16600260009054906101000a900473ffffffffffffffffffffffffffffffffffffffff1673ffffffffffffffffffffffffffffffffffffffff167f7e644d79422f17c01e4894b5f4f588d331ebfa28653d42ae832dc59e38c9798f60405160405180910390a380600260006101000a81548173ffffffffffffffffffffffffffffffffffffffff021916908373ffffffffffffffffffffffffffffffffffffffff1602179055505061096c806101ca6000396000f3fe6080604052600436106100af576000357c0100000000000000000000000000000000000000000000000000000000900463ffffffff16806306a87ed4146100b457806311a1c423146100cb57806341a28df61461011c5780636d645b441461016d578063715018a6146101c45780638da5cb5b146101db5780638f32d59b1461023257806396a0604a14610261578063b6db75a014610290578063eff2dcc6146102bf578063f2fde38b14610316575b600080fd5b3480156100c057600080fd5b506100c9610367565b005b3480156100d757600080fd5b5061011a600480360360208110156100ee57600080fd5b81019080803573ffffffffffffffffffffffffffffffffffffffff169060200190929190505050610386565b005b34801561012857600080fd5b5061016b6004803603602081101561013f57600080fd5b81019080803573ffffffffffffffffffffffffffffffffffffffff169060200190929190505050610459565b005b34801561017957600080fd5b506101826105d1565b604051808273ffffffffffffffffffffffffffffffffffffffff1673ffffffffffffffffffffffffffffffffffffffff16815260200191505060405180910390f35b3480156101d057600080fd5b506101d96105fb565b005b3480156101e757600080fd5b506101f06106cd565b604051808273ffffffffffffffffffffffffffffffffffffffff1673ffffffffffffffffffffffffffffffffffffffff16815260200191505060405180910390f35b34801561023e57600080fd5b506102476106f6565b604051808215151515815260200191505060405180910390f35b34801561026d57600080fd5b5061027661074d565b604051808215151515815260200191505060405180910390f35b34801561029c57600080fd5b506102a56107a5565b604051808215151515815260200191505060405180910390f35b3480156102cb57600080fd5b506102d46107fd565b604051808273ffffffffffffffffffffffffffffffffffffffff1673ffffffffffffffffffffffffffffffffffffffff16815260200191505060405180910390f35b34801561032257600080fd5b506103656004803603602081101561033957600080fd5b81019080803573ffffffffffffffffffffffffffffffffffffffff169060200190929190505050610827565b005b61036f6106f6565b151561037a57600080fd5b6103846000610386565b565b61038e6106f6565b151561039957600080fd5b8073ffffffffffffffffffffffffffffffffffffffff16600160009054906101000a900473ffffffffffffffffffffffffffffffffffffffff1673ffffffffffffffffffffffffffffffffffffffff167f9cc0fca95bdc66b57e27ff56ce70619d6c76e891759b10768345411032913ecf60405160405180910390a380600160006101000a81548173ffffffffffffffffffffffffffffffffffffffff021916908373ffffffffffffffffffffffffffffffffffffffff16021790555050565b6104616106f6565b151561046c57600080fd5b600073ffffffffffffffffffffffffffffffffffffffff168173ffffffffffffffffffffffffffffffffffffffff1614151515610511576040517f08c379a000000000000000000000000000000000000000000000000000000000815260040180806020018281038252601e8152602001807f4e657741646472206973206e6f7420612076616c69642061646472657373000081525060200191505060405180910390fd5b8073ffffffffffffffffffffffffffffffffffffffff16600260009054906101000a900473ffffffffffffffffffffffffffffffffffffffff1673ffffffffffffffffffffffffffffffffffffffff167f7e644d79422f17c01e4894b5f4f588d331ebfa28653d42ae832dc59e38c9798f60405160405180910390a380600260006101000a81548173ffffffffffffffffffffffffffffffffffffffff021916908373ffffffffffffffffffffffffffffffffffffffff16021790555050565b6000600260009054906101000a900473ffffffffffffffffffffffffffffffffffffffff16905090565b6106036106f6565b151561060e57600080fd5b600073ffffffffffffffffffffffffffffffffffffffff166000809054906101000a900473ffffffffffffffffffffffffffffffffffffffff1673ffffffffffffffffffffffffffffffffffffffff167f8be0079c531659141344cd1fd0a4f28419497f9722a3daafe3b4186f6b6457e060405160405180910390a360008060006101000a81548173ffffffffffffffffffffffffffffffffffffffff021916908373ffffffffffffffffffffffffffffffffffffffff160217905550565b60008060009054906101000a900473ffffffffffffffffffffffffffffffffffffffff16905090565b60008060009054906101000a900473ffffffffffffffffffffffffffffffffffffffff1673ffffffffffffffffffffffffffffffffffffffff163373ffffffffffffffffffffffffffffffffffffffff1614905090565b6000600160009054906101000a900473ffffffffffffffffffffffffffffffffffffffff1673ffffffffffffffffffffffffffffffffffffffff163373ffffffffffffffffffffffffffffffffffffffff1614905090565b6000600260009054906101000a900473ffffffffffffffffffffffffffffffffffffffff1673ffffffffffffffffffffffffffffffffffffffff163373ffffffffffffffffffffffffffffffffffffffff1614905090565b6000600160009054906101000a900473ffffffffffffffffffffffffffffffffffffffff16905090565b61082f6106f6565b151561083a57600080fd5b61084381610846565b50565b600073ffffffffffffffffffffffffffffffffffffffff168173ffffffffffffffffffffffffffffffffffffffff161415151561088257600080fd5b8073ffffffffffffffffffffffffffffffffffffffff166000809054906101000a900473ffffffffffffffffffffffffffffffffffffffff1673ffffffffffffffffffffffffffffffffffffffff167f8be0079c531659141344cd1fd0a4f28419497f9722a3daafe3b4186f6b6457e060405160405180910390a3806000806101000a81548173ffffffffffffffffffffffffffffffffffffffff021916908373ffffffffffffffffffffffffffffffffffffffff1602179055505056fea165627a7a72305820af3f74b915b62b92ac4cef4ac5909e469493559d14b3a9040065cd74c6f76a450029",
  "source": "pragma solidity ^0.5.0;\r\n\r\nimport \"openzeppelin-solidity/contracts/ownership/Ownable.sol\";\r\nimport \"openzeppelin-solidity/contracts/lifecycle/Pausable.sol\";\r\nimport \"./GovernanceDecision.sol\";\r\nimport \"./UpgraderInfo.sol\";\r\nimport \"./Upgrader.sol\";\r\n\r\n\r\ncontract BNDESGovernance is Pausable, Ownable() {\r\n\r\n    enum ChangeState { WAITING, APPROVED, DISAPPROVED, CANCELED, FINISHED }\r\n\r\n    struct ChangeDataStructure {\r\n        \r\n        //Hash of the change motivation\r\n        bytes32 hashChangeMotivation;\r\n        \r\n        //Address of upgrader contract\r\n        address upgraderContractAddr;\r\n\r\n        //Address of decision contract (if necessary)\r\n        address decisionContractAddr;\r\n\r\n        ChangeState changeState;\r\n    }\r\n\r\n    ChangeDataStructure[] public governingChanges;\r\n\r\n    UpgraderInfo public upgraderInfo;\r\n\r\n    constructor (address adminOfNewContractsAddr) public {\r\n        addPauser(adminOfNewContractsAddr);\r\n        upgraderInfo = new UpgraderInfo(adminOfNewContractsAddr);\r\n    }\r\n\r\n    function getUpgraderInfoAddr() public view returns (address) {\r\n        return upgraderInfo.getAllowedUpgraderAddr();\r\n    }\r\n\r\n    event newChangeCreated(bytes32 hashChangeMotivation, address upgraderContractAddr,\r\n            address decisionContractAddr);\r\n    event changeApproved(bytes32 hashChangeMotivation);\r\n    event changeExecuted(bytes32 hashChangeMotivation);\r\n    event changeDisapproved(bytes32 hashChangeMotivation);\r\n    event changeCancelled(bytes32 hashChangeMotivation);\r\n    \r\n\r\n    function createNewChange (bytes32 hashChangeMotivation, address upgraderContractAddr,\r\n            address decisionContractAddr) public onlyOwner {\r\n            \r\n            //TODO: avaliar se  storage ou memory\r\n            ChangeDataStructure memory cds;\r\n            if (decisionContractAddr != address(0)) {\r\n                cds = ChangeDataStructure(hashChangeMotivation, upgraderContractAddr,\r\n                                    decisionContractAddr, ChangeState.WAITING);\r\n                emit newChangeCreated(hashChangeMotivation, upgraderContractAddr, decisionContractAddr);\r\n                GovernanceDecision governanceDecision = GovernanceDecision(decisionContractAddr);\r\n                governanceDecision.setChangeNumber(governingChanges.length);\r\n\r\n            }\r\n            else { //The owner decided by itself\r\n                cds = ChangeDataStructure(hashChangeMotivation, upgraderContractAddr,\r\n                                    address(0), ChangeState.APPROVED);\r\n                emit newChangeCreated(hashChangeMotivation, upgraderContractAddr, decisionContractAddr);\r\n                cds.changeState = ChangeState.APPROVED;\r\n                emit changeApproved(hashChangeMotivation);\r\n\r\n            }\r\n            governingChanges.push(cds);\r\n            \r\n    }\r\n\r\n    function approveChangeWithDecisionContract () public {\r\n        \r\n        ChangeDataStructure memory cds = governingChanges[governingChanges.length-1];\r\n\r\n        require(cds.changeState==ChangeState.WAITING, \"A mudana precisa estar no estado WAITING\");\r\n        \r\n        require(cds.decisionContractAddr==msg.sender, \"A aprovao precisa ser chamada pelo contrato de deciso da mudana\");\r\n\r\n        cds.changeState = ChangeState.APPROVED;\r\n\r\n        emit changeApproved(cds.hashChangeMotivation);\r\n    }\r\n\r\n    function denyChangeWithDecisionContract () public {\r\n\r\n        ChangeDataStructure memory cds = governingChanges[governingChanges.length-1];\r\n\r\n        require(cds.changeState==ChangeState.WAITING, \"A mudana precisa estar no estado de espera da deciso da mudana\");\r\n        \r\n        require(cds.decisionContractAddr==msg.sender, \"A aprovao precisa ser chamada pelo contrato de deciso da mudana\");\r\n\r\n        cds.changeState = ChangeState.DISAPPROVED;\r\n\r\n        emit changeDisapproved(cds.hashChangeMotivation);\r\n    }\r\n\r\n\r\n    function executeChange () public {\r\n\r\n        require (upgraderInfo.isAdmin(), \"A mudana s pode ser executada pelo admin da governana\");\r\n\r\n        ChangeDataStructure memory cds = governingChanges[governingChanges.length-1];\r\n\r\n        require(cds.changeState==ChangeState.APPROVED, \"A mudana precisa estar no estado aprovada\");\r\n\r\n        address upgraderContractAddr = cds.upgraderContractAddr;\r\n        upgraderInfo.setAllowedUpgrader(upgraderContractAddr);\r\n        Upgrader upgrader = Upgrader(upgraderContractAddr);\r\n        upgrader.upgrade();\r\n\r\n        cds.changeState = ChangeState.FINISHED;\r\n\r\n        emit changeExecuted(cds.hashChangeMotivation);\r\n    }\r\n\r\n\r\n    function cancelChange () public onlyOwner {\r\n\r\n        ChangeDataStructure memory cds = governingChanges[governingChanges.length-1];\r\n\r\n        require(cds.changeState==ChangeState.WAITING || cds.changeState==ChangeState.APPROVED,\r\n            \"A mudana precisa estar no estado de espera da deciso da mudana ou aprovada\");\r\n\r\n        cds.changeState = ChangeState.CANCELED;\r\n\r\n        emit changeCancelled(cds.hashChangeMotivation);\r\n    }\r\n\r\n\r\n    //get hashMotivacao retorna o indice\r\n\r\n }",
  "sourcePath": "D:\\Workspace\\bndestoken\\Back-Blockchain-Upgrade\\contracts\\BNDESGovernance.sol",
  "compiler": {
    "name": "solc",
    "version": "0.5.0+commit.1d4f565a.Emscripten.clang"
  },
  "schemaVersion": "3.0.5",
  "updatedAt": "2019-09-16T21:04:04.741Z",
  "devdoc": {
    "methods": {
      "isOwner()": {
        "return": "true if `msg.sender` is the owner of the contract."
      },
      "owner()": {
        "return": "the address of the owner."
      },
      "pause()": {
        "details": "called by the owner to pause, triggers stopped state"
      },
      "paused()": {
        "return": "true if the contract is paused, false otherwise."
      },
      "renounceOwnership()": {
        "details": "Allows the current owner to relinquish control of the contract."
      },
      "transferOwnership(address)": {
        "details": "Allows the current owner to transfer control of the contract to a newOwner.",
        "params": {
          "newOwner": "The address to transfer ownership to."
        }
      },
      "unpause()": {
        "details": "called by the owner to unpause, returns to normal state"
      }
    }
  },
  "userdoc": {
    "methods": {
      "renounceOwnership()": {
        "notice": "Renouncing to ownership will leave the contract without an owner. It will not be possible to call the functions with the `onlyOwner` modifier anymore."
      }
    }
  }
}