{
  "contractName": "GovernanceDecision",
  "abi": [
    {
      "constant": true,
      "inputs": [],
      "name": "status",
      "outputs": [
        {
          "name": "",
          "type": "uint8"
        }
      ],
      "payable": false,
      "stateMutability": "view",
      "type": "function"
    },
    {
      "constant": false,
      "inputs": [],
      "name": "renounceOwnership",
      "outputs": [],
      "payable": false,
      "stateMutability": "nonpayable",
      "type": "function"
    },
    {
      "constant": true,
      "inputs": [],
      "name": "owner",
      "outputs": [
        {
          "name": "",
          "type": "address"
        }
      ],
      "payable": false,
      "stateMutability": "view",
      "type": "function"
    },
    {
      "constant": true,
      "inputs": [],
      "name": "isOwner",
      "outputs": [
        {
          "name": "",
          "type": "bool"
        }
      ],
      "payable": false,
      "stateMutability": "view",
      "type": "function"
    },
    {
      "constant": false,
      "inputs": [
        {
          "name": "newOwner",
          "type": "address"
        }
      ],
      "name": "transferOwnership",
      "outputs": [],
      "payable": false,
      "stateMutability": "nonpayable",
      "type": "function"
    },
    {
      "constant": true,
      "inputs": [
        {
          "name": "",
          "type": "uint256"
        }
      ],
      "name": "voting",
      "outputs": [
        {
          "name": "",
          "type": "bool"
        }
      ],
      "payable": false,
      "stateMutability": "view",
      "type": "function"
    },
    {
      "inputs": [
        {
          "name": "_votersId",
          "type": "uint256[]"
        },
        {
          "name": "_percentage",
          "type": "uint256"
        },
        {
          "name": "gAddr",
          "type": "address"
        },
        {
          "name": "idRegistryAddr",
          "type": "address"
        },
        {
          "name": "_changeNumber",
          "type": "uint256"
        }
      ],
      "payable": false,
      "stateMutability": "nonpayable",
      "type": "constructor"
    },
    {
      "anonymous": false,
      "inputs": [
        {
          "indexed": true,
          "name": "previousOwner",
          "type": "address"
        },
        {
          "indexed": true,
          "name": "newOwner",
          "type": "address"
        }
      ],
      "name": "OwnershipTransferred",
      "type": "event"
    },
    {
      "constant": false,
      "inputs": [
        {
          "name": "_choose",
          "type": "bool"
        }
      ],
      "name": "vote",
      "outputs": [],
      "payable": false,
      "stateMutability": "nonpayable",
      "type": "function"
    },
    {
      "constant": false,
      "inputs": [],
      "name": "makeDecision",
      "outputs": [
        {
          "name": "",
          "type": "uint8"
        }
      ],
      "payable": false,
      "stateMutability": "nonpayable",
      "type": "function"
    },
    {
      "constant": true,
      "inputs": [],
      "name": "getChangeNumber",
      "outputs": [
        {
          "name": "",
          "type": "uint256"
        }
      ],
      "payable": false,
      "stateMutability": "view",
      "type": "function"
    }
  ],
  "bytecode": "0x60806040526000600755600060085534801561001a57600080fd5b50604051610ebd380380610ebd833981018060405260a081101561003d57600080fd5b81019080805164010000000081111561005557600080fd5b8281019050602081018481111561006b57600080fd5b815185602082028301116401000000008211171561008857600080fd5b505092919060200180519060200190929190805190602001909291908051906020019092919080519060200190929190505050336000806101000a81548173ffffffffffffffffffffffffffffffffffffffff021916908373ffffffffffffffffffffffffffffffffffffffff1602179055506000809054906101000a900473ffffffffffffffffffffffffffffffffffffffff1673ffffffffffffffffffffffffffffffffffffffff16600073ffffffffffffffffffffffffffffffffffffffff167f8be0079c531659141344cd1fd0a4f28419497f9722a3daafe3b4186f6b6457e060405160405180910390a361018f8561025e640100000000026401000000009004565b6101a784610312640100000000026401000000009004565b81600360006101000a81548173ffffffffffffffffffffffffffffffffffffffff021916908373ffffffffffffffffffffffffffffffffffffffff16021790555082600260006101000a81548173ffffffffffffffffffffffffffffffffffffffff021916908373ffffffffffffffffffffffffffffffffffffffff160217905550806001819055506000600360146101000a81548160ff0219169083600381111561024f57fe5b02179055505050505050610330565b60008090505b815181101561030e5760066000838381518110151561027f57fe5b90602001906020020151815260200190815260200160002060009054906101000a900460ff1615156103015760016006600084848151811015156102bf57fe5b90602001906020020151815260200190815260200160002060006101000a81548160ff0219169083151502179055506007600081548092919060010191905055505b8080600101915050610264565b5050565b806004819055506064600454111561032d5760646004819055505b50565b610b7e8061033f6000396000f3fe608060405260043610610099576000357c0100000000000000000000000000000000000000000000000000000000900463ffffffff168063200d2ed21461009e5780634b9f5c98146100d7578063715018a6146101145780638da5cb5b1461012b5780638f32d59b14610182578063990008ca146101b1578063d116f96e146101dc578063f2fde38b14610215578063fd4a77f114610266575b600080fd5b3480156100aa57600080fd5b506100b36102b9565b604051808260038111156100c357fe5b60ff16815260200191505060405180910390f35b3480156100e357600080fd5b50610112600480360360208110156100fa57600080fd5b810190808035151590602001909291905050506102cc565b005b34801561012057600080fd5b506101296105ae565b005b34801561013757600080fd5b50610140610680565b604051808273ffffffffffffffffffffffffffffffffffffffff1673ffffffffffffffffffffffffffffffffffffffff16815260200191505060405180910390f35b34801561018e57600080fd5b506101976106a9565b604051808215151515815260200191505060405180910390f35b3480156101bd57600080fd5b506101c6610700565b6040518082815260200191505060405180910390f35b3480156101e857600080fd5b506101f161070a565b6040518082600381111561020157fe5b60ff16815260200191505060405180910390f35b34801561022157600080fd5b506102646004803603602081101561023857600080fd5b81019080803573ffffffffffffffffffffffffffffffffffffffff1690602001909291905050506109b1565b005b34801561027257600080fd5b5061029f6004803603602081101561028957600080fd5b81019080803590602001909291905050506109d0565b604051808215151515815260200191505060405180910390f35b600360149054906101000a900460ff1681565b600060038111156102d957fe5b600360149054906101000a900460ff1660038111156102f457fe5b14151561038f576040517f08c379a00000000000000000000000000000000000000000000000000000000081526004018080602001828103825260218152602001807f4465636973696f6e206e6f7420696e2074686520766f74696e6720737461746581526020017f210000000000000000000000000000000000000000000000000000000000000081525060400191505060405180910390fd5b6000600360009054906101000a900473ffffffffffffffffffffffffffffffffffffffff1673ffffffffffffffffffffffffffffffffffffffff166365f68c89336040518263ffffffff167c0100000000000000000000000000000000000000000000000000000000028152600401808273ffffffffffffffffffffffffffffffffffffffff1673ffffffffffffffffffffffffffffffffffffffff168152602001915050602060405180830381600087803b15801561044e57600080fd5b505af1158015610462573d6000803e3d6000fd5b505050506040513d602081101561047857600080fd5b810190808051906020019092919050505090506006600082815260200190815260200160002060009054906101000a900460ff161515610520576040517f08c379a000000000000000000000000000000000000000000000000000000000815260040180806020018281038252601b8152602001807f446f206e6f74206861766520746865207065726d697373696f6e21000000000081525060200191505060405180910390fd5b8115156005600083815260200190815260200160002060009054906101000a900460ff1615151415156105aa57811561056a5760086000815480929190600101919050555061057e565b600860008154809291906001900391905055505b816005600083815260200190815260200160002060006101000a81548160ff0219169083151502179055505b5050565b6105b66106a9565b15156105c157600080fd5b600073ffffffffffffffffffffffffffffffffffffffff166000809054906101000a900473ffffffffffffffffffffffffffffffffffffffff1673ffffffffffffffffffffffffffffffffffffffff167f8be0079c531659141344cd1fd0a4f28419497f9722a3daafe3b4186f6b6457e060405160405180910390a360008060006101000a81548173ffffffffffffffffffffffffffffffffffffffff021916908373ffffffffffffffffffffffffffffffffffffffff160217905550565b60008060009054906101000a900473ffffffffffffffffffffffffffffffffffffffff16905090565b60008060009054906101000a900473ffffffffffffffffffffffffffffffffffffffff1673ffffffffffffffffffffffffffffffffffffffff163373ffffffffffffffffffffffffffffffffffffffff1614905090565b6000600154905090565b600080600381111561071857fe5b600360149054906101000a900460ff16600381111561073357fe5b1415156107ce576040517f08c379a00000000000000000000000000000000000000000000000000000000081526004018080602001828103825260218152602001807f4465636973696f6e206e6f7420696e2074686520766f74696e6720737461746581526020017f210000000000000000000000000000000000000000000000000000000000000081525060400191505060405180910390fd5b6107d66106a9565b15156107e157600080fd5b6000600260009054906101000a900473ffffffffffffffffffffffffffffffffffffffff16905061083260646108246004546007546109f090919063ffffffff16565b610a2e90919063ffffffff16565b60085411156108ed576001600360146101000a81548160ff0219169083600381111561085a57fe5b02179055508073ffffffffffffffffffffffffffffffffffffffff16638fa1aa4c6001546040518263ffffffff167c010000000000000000000000000000000000000000000000000000000002815260040180828152602001915050600060405180830381600087803b1580156108d057600080fd5b505af11580156108e4573d6000803e3d6000fd5b5050505061099b565b6002600360146101000a81548160ff0219169083600381111561090c57fe5b02179055508073ffffffffffffffffffffffffffffffffffffffff166341986f3b6001546040518263ffffffff167c010000000000000000000000000000000000000000000000000000000002815260040180828152602001915050600060405180830381600087803b15801561098257600080fd5b505af1158015610996573d6000803e3d6000fd5b505050505b600360149054906101000a900460ff1691505090565b6109b96106a9565b15156109c457600080fd5b6109cd81610a58565b50565b60056020528060005260406000206000915054906101000a900460ff1681565b600080831415610a035760009050610a28565b60008284029050828482811515610a1657fe5b04141515610a2357600080fd5b809150505b92915050565b60008082111515610a3e57600080fd5b60008284811515610a4b57fe5b0490508091505092915050565b600073ffffffffffffffffffffffffffffffffffffffff168173ffffffffffffffffffffffffffffffffffffffff1614151515610a9457600080fd5b8073ffffffffffffffffffffffffffffffffffffffff166000809054906101000a900473ffffffffffffffffffffffffffffffffffffffff1673ffffffffffffffffffffffffffffffffffffffff167f8be0079c531659141344cd1fd0a4f28419497f9722a3daafe3b4186f6b6457e060405160405180910390a3806000806101000a81548173ffffffffffffffffffffffffffffffffffffffff021916908373ffffffffffffffffffffffffffffffffffffffff1602179055505056fea165627a7a72305820a7d0a66b3ecf05d24ce28da5f873e2c74da0b70667842c9ccccb50349e4992e90029",
  "source": "pragma solidity ^0.5.0;\r\n\r\nimport \"openzeppelin-solidity/contracts/math/SafeMath.sol\";\r\nimport \"openzeppelin-solidity/contracts/ownership/Ownable.sol\";\r\nimport \"./IdRegistry.sol\";\r\nimport \"./Governance.sol\";\r\n\r\n\r\ncontract GovernanceDecision is Ownable() {\r\n\r\n\tusing SafeMath for uint256;\r\n\r\n\tuint private changeNumber;\r\n\r\n\taddress private governanceAddr;\r\n\r\n\tIdRegistry private idRegistry;\r\n\r\n\r\n\t/** Marker */\r\n\tenum UpgraderStatus {\r\n\t\tVoting,\r\n\t\tApproved,\r\n\t\tRejected,\r\n\t\tCancelled\r\n\t}\r\n\r\n\tUpgraderStatus public status;\r\n\r\n\r\n\t/** Voting mechanism related */\r\n\tuint256 private percentage;\r\n\tmapping(uint => bool) public voting;\r\n\tmapping(uint => bool) private voterRegistered;\r\n\tuint256 private numOfVoters = 0;\r\n\tuint256 private numOfAgreements = 0;\r\n\r\n\tmodifier onlyInVotingState {\r\n\t\trequire(status == UpgraderStatus.Voting, \"Decision not in the voting state!\");\r\n\t\t_;\r\n\t}\r\n\r\n\tconstructor (uint[] memory _votersId, uint256 _percentage, address gAddr, address idRegistryAddr, uint256 _changeNumber) public {\r\n\r\n\t\t_addVoters(_votersId);\r\n\t\t_setPercentage(_percentage);\r\n\r\n\t\tidRegistry = IdRegistry(idRegistryAddr);\r\n\t\tgovernanceAddr = gAddr;\r\n\r\n\t\tchangeNumber = _changeNumber;\r\n\r\n\t\t// Mark the contract as voting.\r\n\t\tstatus = UpgraderStatus.Voting;\r\n\r\n\t}\r\n\r\n\t//TODO: cancel change\r\n\r\n\r\n\t/**\r\n\t * Vote.\r\n\t *\r\n\t * @param\t_choose\tif the voter agrees with the proposal.\r\n\t *\r\n\t * exception\tPermissionException\tmsg.sender is not a voter.\r\n\t * \r\n\t */\r\n\tfunction vote (bool _choose) external onlyInVotingState {\r\n\t\tuint voterId = idRegistry.getId(msg.sender);\r\n\t\trequire(voterRegistered[voterId], \"Do not have the permission!\");\r\n\t\tif (voting[voterId] != _choose) {\r\n\t\t\tif (_choose) {\r\n\t\t\t\tnumOfAgreements++;\r\n\t\t\t} else {\r\n\t\t\t\tnumOfAgreements--;\r\n\t\t\t}\r\n\t\t\tvoting[voterId] = _choose;\r\n\t\t}\r\n\t}\r\n\r\n\r\n\r\n\tfunction makeDecision() public onlyInVotingState onlyOwner returns(UpgraderStatus) {\r\n\r\n\t\tGovernance governance = Governance (governanceAddr);\r\n\r\n\t\tif (numOfAgreements > numOfVoters.mul(percentage).div(100)) {\r\n\t\t\tstatus = UpgraderStatus.Approved;\r\n\t\t\tgovernance.approveChangeWithDecisionContract(changeNumber);\r\n\t\t}\r\n\t\telse {\r\n\t\t\tstatus = UpgraderStatus.Rejected;\r\n\t\t\tgovernance.denyChangeWithDecisionContract(changeNumber);\r\n\t\t}\r\n\r\n\t\treturn status;\r\n\t}\r\n\r\n\r\n\t/**\r\n\t * Destruct itself.\r\n\t *\r\n\t * exception\tPermissionException\tmsg.sender is not the owner.\r\n\t */\r\n/*\tfunction done() external onlyOwner {\r\n\t\tselfdestruct(owner());\r\n\t}\r\n*/\r\n\r\n\r\n\tfunction _addVoters (uint[] memory _votersId) internal {\r\n\t\tfor (uint256 i = 0; i < _votersId.length; i++) {\r\n\t\t\tif (!voterRegistered[_votersId[i]]) {\r\n\t\t\t\tvoterRegistered[_votersId[i]] = true;\r\n\t\t\t\tnumOfVoters++;\r\n\t\t\t}\r\n\t\t}\r\n\t}\r\n\r\n\r\n\tfunction getChangeNumber () public view returns(uint256) {\r\n\t\treturn changeNumber;\r\n\t}\r\n\r\n\r\n\tfunction _setPercentage(uint256 _percentage) internal {\r\n\t\tpercentage = _percentage;\r\n\t\tif (percentage > 100) {\r\n\t\t\tpercentage = 100;\r\n\t\t}\r\n\t}\r\n\r\n}",
  "sourcePath": "D:\\Workspace\\bndestoken\\Back-Blockchain-Upgrade\\contracts\\GovernanceDecision.sol",
  "compiler": {
    "name": "solc",
    "version": "0.5.0+commit.1d4f565a.Emscripten.clang"
  },
  "schemaVersion": "3.0.5",
  "updatedAt": "2019-09-19T21:32:06.961Z",
  "devdoc": {
    "methods": {
      "isOwner()": {
        "return": "true if `msg.sender` is the owner of the contract."
      },
      "owner()": {
        "return": "the address of the owner."
      },
      "renounceOwnership()": {
        "details": "Allows the current owner to relinquish control of the contract."
      },
      "transferOwnership(address)": {
        "details": "Allows the current owner to transfer control of the contract to a newOwner.",
        "params": {
          "newOwner": "The address to transfer ownership to."
        }
      },
      "vote(bool)": {
        "params": {
          "_choose": "if the voter agrees with the proposal.\r \t * exception\tPermissionException\tmsg.sender is not a voter.\r \r"
        }
      }
    }
  },
  "userdoc": {
    "methods": {
      "renounceOwnership()": {
        "notice": "Renouncing to ownership will leave the contract without an owner. It will not be possible to call the functions with the `onlyOwner` modifier anymore."
      },
      "vote(bool)": {
        "notice": "Vote.\r "
      }
    }
  }
}