{
  "contractName": "Governance",
  "abi": [
    {
      "constant": false,
      "inputs": [],
      "name": "unpause",
      "outputs": [],
      "payable": false,
      "stateMutability": "nonpayable",
      "type": "function"
    },
    {
      "constant": true,
      "inputs": [
        {
          "name": "account",
          "type": "address"
        }
      ],
      "name": "isPauser",
      "outputs": [
        {
          "name": "",
          "type": "bool"
        }
      ],
      "payable": false,
      "stateMutability": "view",
      "type": "function"
    },
    {
      "constant": true,
      "inputs": [],
      "name": "paused",
      "outputs": [
        {
          "name": "",
          "type": "bool"
        }
      ],
      "payable": false,
      "stateMutability": "view",
      "type": "function"
    },
    {
      "constant": false,
      "inputs": [],
      "name": "renouncePauser",
      "outputs": [],
      "payable": false,
      "stateMutability": "nonpayable",
      "type": "function"
    },
    {
      "constant": false,
      "inputs": [],
      "name": "renounceOwnership",
      "outputs": [],
      "payable": false,
      "stateMutability": "nonpayable",
      "type": "function"
    },
    {
      "constant": false,
      "inputs": [
        {
          "name": "account",
          "type": "address"
        }
      ],
      "name": "addPauser",
      "outputs": [],
      "payable": false,
      "stateMutability": "nonpayable",
      "type": "function"
    },
    {
      "constant": false,
      "inputs": [],
      "name": "pause",
      "outputs": [],
      "payable": false,
      "stateMutability": "nonpayable",
      "type": "function"
    },
    {
      "constant": true,
      "inputs": [],
      "name": "owner",
      "outputs": [
        {
          "name": "",
          "type": "address"
        }
      ],
      "payable": false,
      "stateMutability": "view",
      "type": "function"
    },
    {
      "constant": true,
      "inputs": [],
      "name": "isOwner",
      "outputs": [
        {
          "name": "",
          "type": "bool"
        }
      ],
      "payable": false,
      "stateMutability": "view",
      "type": "function"
    },
    {
      "constant": false,
      "inputs": [
        {
          "name": "newOwner",
          "type": "address"
        }
      ],
      "name": "transferOwnership",
      "outputs": [],
      "payable": false,
      "stateMutability": "nonpayable",
      "type": "function"
    },
    {
      "inputs": [
        {
          "name": "adminOfNewContractsAddr",
          "type": "address"
        },
        {
          "name": "initialGovernanceMembersId",
          "type": "uint256[]"
        },
        {
          "name": "resposibleForAssigningGovernanceMembers",
          "type": "address"
        }
      ],
      "payable": false,
      "stateMutability": "nonpayable",
      "type": "constructor"
    },
    {
      "anonymous": false,
      "inputs": [
        {
          "indexed": false,
          "name": "changeNumber",
          "type": "uint256"
        },
        {
          "indexed": false,
          "name": "hashChangeMotivation",
          "type": "bytes32"
        },
        {
          "indexed": false,
          "name": "upgraderContractsAddr",
          "type": "address[]"
        },
        {
          "indexed": false,
          "name": "decisionContractAddr",
          "type": "address"
        }
      ],
      "name": "NewChangeCreated",
      "type": "event"
    },
    {
      "anonymous": false,
      "inputs": [
        {
          "indexed": false,
          "name": "changeNumber",
          "type": "uint256"
        }
      ],
      "name": "ChangeApproved",
      "type": "event"
    },
    {
      "anonymous": false,
      "inputs": [
        {
          "indexed": false,
          "name": "changeNumber",
          "type": "uint256"
        },
        {
          "indexed": false,
          "name": "index",
          "type": "uint256"
        }
      ],
      "name": "ChangePartialExecuted",
      "type": "event"
    },
    {
      "anonymous": false,
      "inputs": [
        {
          "indexed": false,
          "name": "changeNumber",
          "type": "uint256"
        }
      ],
      "name": "ChangeExecuted",
      "type": "event"
    },
    {
      "anonymous": false,
      "inputs": [
        {
          "indexed": false,
          "name": "changeNumber",
          "type": "uint256"
        }
      ],
      "name": "ChangeDisapproved",
      "type": "event"
    },
    {
      "anonymous": false,
      "inputs": [
        {
          "indexed": false,
          "name": "changeNumber",
          "type": "uint256"
        }
      ],
      "name": "ChangeCancelled",
      "type": "event"
    },
    {
      "anonymous": false,
      "inputs": [
        {
          "indexed": true,
          "name": "previousOwner",
          "type": "address"
        },
        {
          "indexed": true,
          "name": "newOwner",
          "type": "address"
        }
      ],
      "name": "OwnershipTransferred",
      "type": "event"
    },
    {
      "anonymous": false,
      "inputs": [
        {
          "indexed": false,
          "name": "account",
          "type": "address"
        }
      ],
      "name": "Paused",
      "type": "event"
    },
    {
      "anonymous": false,
      "inputs": [
        {
          "indexed": false,
          "name": "account",
          "type": "address"
        }
      ],
      "name": "Unpaused",
      "type": "event"
    },
    {
      "anonymous": false,
      "inputs": [
        {
          "indexed": true,
          "name": "account",
          "type": "address"
        }
      ],
      "name": "PauserAdded",
      "type": "event"
    },
    {
      "anonymous": false,
      "inputs": [
        {
          "indexed": true,
          "name": "account",
          "type": "address"
        }
      ],
      "name": "PauserRemoved",
      "type": "event"
    },
    {
      "constant": false,
      "inputs": [
        {
          "name": "idRegistryAddr",
          "type": "address"
        }
      ],
      "name": "setIdRegistryAddr",
      "outputs": [],
      "payable": false,
      "stateMutability": "nonpayable",
      "type": "function"
    },
    {
      "constant": false,
      "inputs": [
        {
          "name": "hashChangeMotivation",
          "type": "bytes32"
        },
        {
          "name": "upgraderContractsAddr",
          "type": "address[]"
        },
        {
          "name": "percentageDecision",
          "type": "uint256"
        }
      ],
      "name": "createNewChange",
      "outputs": [],
      "payable": false,
      "stateMutability": "nonpayable",
      "type": "function"
    },
    {
      "constant": false,
      "inputs": [
        {
          "name": "changeNumber",
          "type": "uint256"
        }
      ],
      "name": "makeResult",
      "outputs": [
        {
          "name": "",
          "type": "bool"
        }
      ],
      "payable": false,
      "stateMutability": "nonpayable",
      "type": "function"
    },
    {
      "constant": false,
      "inputs": [
        {
          "name": "changeNumber",
          "type": "uint256"
        }
      ],
      "name": "executeChange",
      "outputs": [],
      "payable": false,
      "stateMutability": "nonpayable",
      "type": "function"
    },
    {
      "constant": false,
      "inputs": [
        {
          "name": "changeNumber",
          "type": "uint256"
        },
        {
          "name": "index",
          "type": "uint256"
        }
      ],
      "name": "executeChange",
      "outputs": [],
      "payable": false,
      "stateMutability": "nonpayable",
      "type": "function"
    },
    {
      "constant": false,
      "inputs": [
        {
          "name": "changeNumber",
          "type": "uint256"
        }
      ],
      "name": "cancelChange",
      "outputs": [],
      "payable": false,
      "stateMutability": "nonpayable",
      "type": "function"
    },
    {
      "constant": true,
      "inputs": [
        {
          "name": "changeNumber",
          "type": "uint256"
        }
      ],
      "name": "getChange",
      "outputs": [
        {
          "name": "",
          "type": "bytes32"
        },
        {
          "name": "",
          "type": "address[]"
        },
        {
          "name": "",
          "type": "uint256"
        },
        {
          "name": "",
          "type": "address"
        },
        {
          "name": "",
          "type": "uint8"
        }
      ],
      "payable": false,
      "stateMutability": "view",
      "type": "function"
    },
    {
      "constant": false,
      "inputs": [
        {
          "name": "newMember",
          "type": "uint256"
        }
      ],
      "name": "includeNewGovernanceMember",
      "outputs": [],
      "payable": false,
      "stateMutability": "nonpayable",
      "type": "function"
    },
    {
      "constant": false,
      "inputs": [
        {
          "name": "newMember",
          "type": "uint256"
        }
      ],
      "name": "removeGovernanceMember",
      "outputs": [],
      "payable": false,
      "stateMutability": "nonpayable",
      "type": "function"
    },
    {
      "constant": false,
      "inputs": [
        {
          "name": "newAddr",
          "type": "address"
        }
      ],
      "name": "setAdminAddr",
      "outputs": [],
      "payable": false,
      "stateMutability": "nonpayable",
      "type": "function"
    },
    {
      "constant": true,
      "inputs": [],
      "name": "upgraderInfoAddr",
      "outputs": [
        {
          "name": "",
          "type": "address"
        }
      ],
      "payable": false,
      "stateMutability": "view",
      "type": "function"
    },
    {
      "constant": true,
      "inputs": [],
      "name": "idRegistryAddr",
      "outputs": [
        {
          "name": "",
          "type": "address"
        }
      ],
      "payable": false,
      "stateMutability": "view",
      "type": "function"
    }
  ],
  "bytecode": "0x60806040523480156200001157600080fd5b5060405162004da638038062004da6833981018060405260608110156200003757600080fd5b810190808051906020019092919080516401000000008111156200005a57600080fd5b828101905060208101848111156200007157600080fd5b81518560208202830111640100000000821117156200008f57600080fd5b505092919060200180519060200190929190505050620000be3362000297640100000000026401000000009004565b6000600160006101000a81548160ff021916908315150217905550336001806101000a81548173ffffffffffffffffffffffffffffffffffffffff021916908373ffffffffffffffffffffffffffffffffffffffff1602179055506001809054906101000a900473ffffffffffffffffffffffffffffffffffffffff1673ffffffffffffffffffffffffffffffffffffffff16600073ffffffffffffffffffffffffffffffffffffffff167f8be0079c531659141344cd1fd0a4f28419497f9722a3daafe3b4186f6b6457e060405160405180910390a382620001a062000459565b808273ffffffffffffffffffffffffffffffffffffffff1673ffffffffffffffffffffffffffffffffffffffff168152602001915050604051809103906000f080158015620001f3573d6000803e3d6000fd5b50600460006101000a81548173ffffffffffffffffffffffffffffffffffffffff021916908373ffffffffffffffffffffffffffffffffffffffff16021790555081600390805190602001906200024c9291906200046a565b5080600660006101000a81548173ffffffffffffffffffffffffffffffffffffffff021916908373ffffffffffffffffffffffffffffffffffffffff160217905550505050620004e4565b620002bb816000620003016401000000000262002d77179091906401000000009004565b8073ffffffffffffffffffffffffffffffffffffffff167f6719d08c1888103bea251a4ed56406bd0c3e69723c8a1686e017e7bbe159b6f860405160405180910390a250565b600073ffffffffffffffffffffffffffffffffffffffff168173ffffffffffffffffffffffffffffffffffffffff16141515156200033e57600080fd5b620003598282620003c4640100000000026401000000009004565b1515156200036657600080fd5b60018260000160008373ffffffffffffffffffffffffffffffffffffffff1673ffffffffffffffffffffffffffffffffffffffff16815260200190815260200160002060006101000a81548160ff0219169083151502179055505050565b60008073ffffffffffffffffffffffffffffffffffffffff168273ffffffffffffffffffffffffffffffffffffffff16141515156200040257600080fd5b8260000160008373ffffffffffffffffffffffffffffffffffffffff1673ffffffffffffffffffffffffffffffffffffffff16815260200190815260200160002060009054906101000a900460ff16905092915050565b604051610b6d806200423983390190565b828054828255906000526020600020908101928215620004a9579160200282015b82811115620004a85782518255916020019190600101906200048b565b5b509050620004b89190620004bc565b5090565b620004e191905b80821115620004dd576000816000905550600101620004c3565b5090565b90565b613d4580620004f46000396000f3fe6080604052600436106200013f576000357c0100000000000000000000000000000000000000000000000000000000900463ffffffff168063196fe7b114620001445780633f4ba83a146200018357806341a28df6146200019d578063441f1ff114620001f257806346fbf68e146200023157806352bf2c3c146200029e57806354a8bd0714620002f85780635b57a2ed14620003e55780635c975abb14620004245780636ef8d66d1462000456578063715018a6146200047057806377dce43c146200048a57806382dc1ec414620004c95780638456cb59146200051e5780638da5cb5b14620005385780638e63e14914620005925780638f32d59b1462000672578063a5026b8314620006a4578063abbae7de14620006fb578063b70872881462000755578063c23619ea14620007aa578063f2fde38b14620007f3575b600080fd5b3480156200015157600080fd5b5062000181600480360360208110156200016a57600080fd5b810190808035906020019092919050505062000848565b005b3480156200019057600080fd5b506200019b62000858565b005b348015620001aa57600080fd5b50620001f060048036036020811015620001c357600080fd5b81019080803573ffffffffffffffffffffffffffffffffffffffff1690602001909291905050506200090b565b005b348015620001ff57600080fd5b506200022f600480360360208110156200021857600080fd5b810190808035906020019092919050505062000b79565b005b3480156200023e57600080fd5b5062000284600480360360208110156200025757600080fd5b81019080803573ffffffffffffffffffffffffffffffffffffffff16906020019092919050505062000c05565b604051808215151515815260200191505060405180910390f35b348015620002ab57600080fd5b50620002b662000c24565b604051808273ffffffffffffffffffffffffffffffffffffffff1673ffffffffffffffffffffffffffffffffffffffff16815260200191505060405180910390f35b3480156200030557600080fd5b5062000335600480360360208110156200031e57600080fd5b810190808035906020019092919050505062000c4e565b60405180868152602001806020018581526020018473ffffffffffffffffffffffffffffffffffffffff1673ffffffffffffffffffffffffffffffffffffffff1681526020018360058111156200038857fe5b60ff168152602001828103825286818151815260200191508051906020019060200280838360005b83811015620003cd578082015181840152602081019050620003b0565b50505050905001965050505050505060405180910390f35b348015620003f257600080fd5b5062000422600480360360208110156200040b57600080fd5b810190808035906020019092919050505062000e63565b005b3480156200043157600080fd5b506200043c620011df565b604051808215151515815260200191505060405180910390f35b3480156200046357600080fd5b506200046e620011f6565b005b3480156200047d57600080fd5b506200048862001203565b005b3480156200049757600080fd5b50620004c760048036036020811015620004b057600080fd5b8101908080359060200190929190505050620012d8565b005b348015620004d657600080fd5b506200051c60048036036020811015620004ef57600080fd5b81019080803573ffffffffffffffffffffffffffffffffffffffff16906020019092919050505062001422565b005b3480156200052b57600080fd5b506200053662001447565b005b3480156200054557600080fd5b5062000550620014fa565b604051808273ffffffffffffffffffffffffffffffffffffffff1673ffffffffffffffffffffffffffffffffffffffff16815260200191505060405180910390f35b3480156200059f57600080fd5b506200067060048036036060811015620005b857600080fd5b810190808035906020019092919080359060200190640100000000811115620005e057600080fd5b820183602082011115620005f357600080fd5b803590602001918460208302840111640100000000831117156200061657600080fd5b919080806020026020016040519081016040528093929190818152602001838360200280828437600081840152601f19601f8201169050808301925050505050505091929192908035906020019092919050505062001523565b005b3480156200067f57600080fd5b506200068a62001990565b604051808215151515815260200191505060405180910390f35b348015620006b157600080fd5b50620006e160048036036020811015620006ca57600080fd5b8101908080359060200190929190505050620019e7565b604051808215151515815260200191505060405180910390f35b3480156200070857600080fd5b506200071362001e55565b604051808273ffffffffffffffffffffffffffffffffffffffff1673ffffffffffffffffffffffffffffffffffffffff16815260200191505060405180910390f35b3480156200076257600080fd5b50620007a8600480360360208110156200077b57600080fd5b81019080803573ffffffffffffffffffffffffffffffffffffffff16906020019092919050505062001e7f565b005b348015620007b757600080fd5b50620007f160048036036040811015620007d057600080fd5b81019080803590602001909291908035906020019092919050505062002057565b005b3480156200080057600080fd5b5062000846600480360360208110156200081957600080fd5b81019080803573ffffffffffffffffffffffffffffffffffffffff169060200190929190505050620029f4565b005b6200085581600062002057565b50565b620008633362000c05565b15156200086f57600080fd5b600160009054906101000a900460ff1615156200088b57600080fd5b6000600160006101000a81548160ff0219169083151502179055507f5db9ee0a495bf2e6ff9c91a7834c1ba4fdd244a5e8aa4e537bd38aeae4b073aa33604051808273ffffffffffffffffffffffffffffffffffffffff1673ffffffffffffffffffffffffffffffffffffffff16815260200191505060405180910390a1565b600460009054906101000a900473ffffffffffffffffffffffffffffffffffffffff1673ffffffffffffffffffffffffffffffffffffffff16637e96549f336040518263ffffffff167c0100000000000000000000000000000000000000000000000000000000028152600401808273ffffffffffffffffffffffffffffffffffffffff1673ffffffffffffffffffffffffffffffffffffffff16815260200191505060206040518083038186803b158015620009c757600080fd5b505afa158015620009dc573d6000803e3d6000fd5b505050506040513d6020811015620009f357600080fd5b8101908080519060200190929190505050151562000a9f576040517f08c379a000000000000000000000000000000000000000000000000000000000815260040180806020018281038252602f8152602001807f546869732066756e6374696f6e2063616e206f6e6c792062652065786563757481526020017f656420627920557067726164657273000000000000000000000000000000000081525060400191505060405180910390fd5b600460009054906101000a900473ffffffffffffffffffffffffffffffffffffffff1673ffffffffffffffffffffffffffffffffffffffff166341a28df6826040518263ffffffff167c0100000000000000000000000000000000000000000000000000000000028152600401808273ffffffffffffffffffffffffffffffffffffffff1673ffffffffffffffffffffffffffffffffffffffff168152602001915050600060405180830381600087803b15801562000b5d57600080fd5b505af115801562000b72573d6000803e3d6000fd5b5050505050565b600660009054906101000a900473ffffffffffffffffffffffffffffffffffffffff1673ffffffffffffffffffffffffffffffffffffffff163373ffffffffffffffffffffffffffffffffffffffff1614151562000bd657600080fd5b600381908060018154018082558091505090600182039060005260206000200160009091929091909150555050565b600062000c1d82600062002a1890919063ffffffff16565b9050919050565b6000600460009054906101000a900473ffffffffffffffffffffffffffffffffffffffff16905090565b6000606060008060006002805490508610151562000cd4576040517f08c379a00000000000000000000000000000000000000000000000000000000081526004018080602001828103825260158152602001807f496e76616c6964206368616e6765206e756d626572000000000000000000000081525060200191505060405180910390fd5b62000cde62002e2b565b60028781548110151562000cee57fe5b906000526020600020906004020160a06040519081016040529081600082015481526020016001820180548060200260200160405190810160405280929190818152602001828054801562000d9957602002820191906000526020600020905b8160009054906101000a900473ffffffffffffffffffffffffffffffffffffffff1673ffffffffffffffffffffffffffffffffffffffff168152602001906001019080831162000d4e575b50505050508152602001600282015481526020016003820160009054906101000a900473ffffffffffffffffffffffffffffffffffffffff1673ffffffffffffffffffffffffffffffffffffffff1673ffffffffffffffffffffffffffffffffffffffff1681526020016003820160149054906101000a900460ff16600581111562000e2157fe5b600581111562000e2d57fe5b81525050905080600001518160200151826040015183606001518460800151839350955095509550955095505091939590929450565b62000e6d62001990565b151562000e7957600080fd5b6002805490508110151562000ef6576040517f08c379a00000000000000000000000000000000000000000000000000000000081526004018080602001828103825260158152602001807f496e76616c6964206368616e6765206e756d626572000000000000000000000081525060200191505060405180910390fd5b62000f0062002e2b565b60028281548110151562000f1057fe5b906000526020600020906004020160a06040519081016040529081600082015481526020016001820180548060200260200160405190810160405280929190818152602001828054801562000fbb57602002820191906000526020600020905b8160009054906101000a900473ffffffffffffffffffffffffffffffffffffffff1673ffffffffffffffffffffffffffffffffffffffff168152602001906001019080831162000f70575b50505050508152602001600282015481526020016003820160009054906101000a900473ffffffffffffffffffffffffffffffffffffffff1673ffffffffffffffffffffffffffffffffffffffff1673ffffffffffffffffffffffffffffffffffffffff1681526020016003820160149054906101000a900460ff1660058111156200104357fe5b60058111156200104f57fe5b815250509050600060058111156200106357fe5b816080015160058111156200107457fe5b14806200109d5750600160058111156200108a57fe5b816080015160058111156200109b57fe5b145b80620010c5575060026005811115620010b257fe5b81608001516005811115620010c357fe5b145b151562001160576040517f08c379a00000000000000000000000000000000000000000000000000000000081526004018080602001828103825260408152602001807f546865206368616e6765206e6565647320746f20626520696e2057414954494e81526020017f47206f7220415050524f564544206f7220455845435554494e4720737461746581525060400191505060405180910390fd5b60046002838154811015156200117257fe5b906000526020600020906004020160030160146101000a81548160ff021916908360058111156200119f57fe5b02179055507f5edd520c0103960fbe1e1fc55ae80c123b61704fa2429473cef253e3c90ae27e826040518082815260200191505060405180910390a15050565b6000600160009054906101000a900460ff16905090565b620012013362002aad565b565b6200120d62001990565b15156200121957600080fd5b600073ffffffffffffffffffffffffffffffffffffffff166001809054906101000a900473ffffffffffffffffffffffffffffffffffffffff1673ffffffffffffffffffffffffffffffffffffffff167f8be0079c531659141344cd1fd0a4f28419497f9722a3daafe3b4186f6b6457e060405160405180910390a360006001806101000a81548173ffffffffffffffffffffffffffffffffffffffff021916908373ffffffffffffffffffffffffffffffffffffffff160217905550565b600660009054906101000a900473ffffffffffffffffffffffffffffffffffffffff1673ffffffffffffffffffffffffffffffffffffffff163373ffffffffffffffffffffffffffffffffffffffff161415156200133557600080fd5b600080620013438362002b09565b9150915060011515821515141515620013c4576040517f08c379a00000000000000000000000000000000000000000000000000000000081526004018080602001828103825260108152602001807f4d656d626572206e6f7420666f756e640000000000000000000000000000000081525060200191505060405180910390fd5b6003600160038054905003815481101515620013dc57fe5b9060005260206000200154600382815481101515620013f757fe5b906000526020600020018190555060038054809190600190036200141c919062002e80565b50505050565b6200142d3362000c05565b15156200143957600080fd5b620014448162002b6d565b50565b620014523362000c05565b15156200145e57600080fd5b600160009054906101000a900460ff161515156200147b57600080fd5b60018060006101000a81548160ff0219169083151502179055507f62e78cea01bee320cd4e420270b5ea74000d11b0c9f74754ebdbfc544b05a25833604051808273ffffffffffffffffffffffffffffffffffffffff1673ffffffffffffffffffffffffffffffffffffffff16815260200191505060405180910390a1565b60006001809054906101000a900473ffffffffffffffffffffffffffffffffffffffff16905090565b6200152d62001990565b15156200153957600080fd5b600060028054905090506200154d62002e2b565b60008314151562001749576000600384600560009054906101000a900473ffffffffffffffffffffffffffffffffffffffff16856200158b62002eaf565b80806020018581526020018473ffffffffffffffffffffffffffffffffffffffff1673ffffffffffffffffffffffffffffffffffffffff16815260200183815260200182810382528681815481526020019150805480156200160d57602002820191906000526020600020905b815481526020019060010190808311620015f8575b505095505050505050604051809103906000f08015801562001633573d6000803e3d6000fd5b50905060a060405190810160405280878152602001868152602001600081526020018273ffffffffffffffffffffffffffffffffffffffff168152602001600060058111156200167f57fe5b81525091507fd546849b0889a5bec23c81690ccf246e96207848430c4fced15c9defa658e0838387878460405180858152602001848152602001806020018373ffffffffffffffffffffffffffffffffffffffff1673ffffffffffffffffffffffffffffffffffffffff168152602001828103825284818151815260200191508051906020019060200280838360005b838110156200172c5780820151818401526020810190506200170f565b505050509050019550505050505060405180910390a150620018b4565b60a06040519081016040528086815260200185815260200160008152602001600073ffffffffffffffffffffffffffffffffffffffff168152602001600160058111156200179357fe5b81525090507fd546849b0889a5bec23c81690ccf246e96207848430c4fced15c9defa658e083828686600060405180858152602001848152602001806020018373ffffffffffffffffffffffffffffffffffffffff1673ffffffffffffffffffffffffffffffffffffffff168152602001828103825284818151815260200191508051906020019060200280838360005b838110156200184157808201518184015260208101905062001824565b505050509050019550505050505060405180910390a16001816080019060058111156200186a57fe5b908160058111156200187857fe5b815250507ff6c7f9b41b46dcd0ed5e8a9b5ea016cc15493d731db259a2efb7dd055af86684826040518082815260200191505060405180910390a15b600281908060018154018082558091505090600182039060005260206000209060040201600090919290919091506000820151816000015560208201518160010190805190602001906200190a92919062002ec0565b506040820151816002015560608201518160030160006101000a81548173ffffffffffffffffffffffffffffffffffffffff021916908373ffffffffffffffffffffffffffffffffffffffff16021790555060808201518160030160146101000a81548160ff021916908360058111156200198157fe5b02179055505050505050505050565b60006001809054906101000a900473ffffffffffffffffffffffffffffffffffffffff1673ffffffffffffffffffffffffffffffffffffffff163373ffffffffffffffffffffffffffffffffffffffff1614905090565b6000620019f362001990565b1515620019ff57600080fd5b6002805490508210151562001a7c576040517f08c379a00000000000000000000000000000000000000000000000000000000081526004018080602001828103825260158152602001807f496e76616c6964206368616e6765206e756d626572000000000000000000000081525060200191505060405180910390fd5b62001a8662002e2b565b60028381548110151562001a9657fe5b906000526020600020906004020160a06040519081016040529081600082015481526020016001820180548060200260200160405190810160405280929190818152602001828054801562001b4157602002820191906000526020600020905b8160009054906101000a900473ffffffffffffffffffffffffffffffffffffffff1673ffffffffffffffffffffffffffffffffffffffff168152602001906001019080831162001af6575b50505050508152602001600282015481526020016003820160009054906101000a900473ffffffffffffffffffffffffffffffffffffffff1673ffffffffffffffffffffffffffffffffffffffff1673ffffffffffffffffffffffffffffffffffffffff1681526020016003820160149054906101000a900460ff16600581111562001bc957fe5b600581111562001bd557fe5b8152505090506000600581111562001be957fe5b8160800151600581111562001bfa57fe5b14151562001c96576040517f08c379a00000000000000000000000000000000000000000000000000000000081526004018080602001828103825260278152602001807f546865206368616e6765206e6565647320746f20626520696e2057414954494e81526020017f472073746174650000000000000000000000000000000000000000000000000081525060400191505060405180910390fd5b6000816060015190508073ffffffffffffffffffffffffffffffffffffffff1663e14d58d96040518163ffffffff167c0100000000000000000000000000000000000000000000000000000000028152600401602060405180830381600087803b15801562001d0457600080fd5b505af115801562001d19573d6000803e3d6000fd5b505050506040513d602081101562001d3057600080fd5b81019080805190602001909291905050501562001dce57600160028581548110151562001d5957fe5b906000526020600020906004020160030160146101000a81548160ff0219169083600581111562001d8657fe5b02179055507ff6c7f9b41b46dcd0ed5e8a9b5ea016cc15493d731db259a2efb7dd055af86684846040518082815260200191505060405180910390a160019250505062001e50565b600360028581548110151562001de057fe5b906000526020600020906004020160030160146101000a81548160ff0219169083600581111562001e0d57fe5b02179055507ff1a8ffd21fe9ef7be34e0f4bf577d3bf31ce3c19c68d2c046d22275cb8b715f4846040518082815260200191505060405180910390a16000925050505b919050565b6000600560009054906101000a900473ffffffffffffffffffffffffffffffffffffffff16905090565b600460009054906101000a900473ffffffffffffffffffffffffffffffffffffffff1673ffffffffffffffffffffffffffffffffffffffff16637e96549f336040518263ffffffff167c0100000000000000000000000000000000000000000000000000000000028152600401808273ffffffffffffffffffffffffffffffffffffffff1673ffffffffffffffffffffffffffffffffffffffff16815260200191505060206040518083038186803b15801562001f3b57600080fd5b505afa15801562001f50573d6000803e3d6000fd5b505050506040513d602081101562001f6757600080fd5b8101908080519060200190929190505050151562002013576040517f08c379a000000000000000000000000000000000000000000000000000000000815260040180806020018281038252602f8152602001807f546869732066756e6374696f6e2063616e206f6e6c792062652065786563757481526020017f656420627920557067726164657273000000000000000000000000000000000081525060400191505060405180910390fd5b80600560006101000a81548173ffffffffffffffffffffffffffffffffffffffff021916908373ffffffffffffffffffffffffffffffffffffffff16021790555050565b60028054905082101515620020d4576040517f08c379a00000000000000000000000000000000000000000000000000000000081526004018080602001828103825260158152602001807f496e76616c6964206368616e6765206e756d626572000000000000000000000081525060200191505060405180910390fd5b600460009054906101000a900473ffffffffffffffffffffffffffffffffffffffff1673ffffffffffffffffffffffffffffffffffffffff166324d7806c336040518263ffffffff167c0100000000000000000000000000000000000000000000000000000000028152600401808273ffffffffffffffffffffffffffffffffffffffff1673ffffffffffffffffffffffffffffffffffffffff16815260200191505060206040518083038186803b1580156200219057600080fd5b505afa158015620021a5573d6000803e3d6000fd5b505050506040513d6020811015620021bc57600080fd5b8101908080519060200190929190505050151562002268576040517f08c379a00000000000000000000000000000000000000000000000000000000081526004018080602001828103825260288152602001807f546865206368616e6765206e6565647320746f2062652065786563757465642081526020017f62792041646d696e00000000000000000000000000000000000000000000000081525060400191505060405180910390fd5b6200227262002e2b565b6002838154811015156200228257fe5b906000526020600020906004020160a0604051908101604052908160008201548152602001600182018054806020026020016040519081016040528092919081815260200182805480156200232d57602002820191906000526020600020905b8160009054906101000a900473ffffffffffffffffffffffffffffffffffffffff1673ffffffffffffffffffffffffffffffffffffffff1681526020019060010190808311620022e2575b50505050508152602001600282015481526020016003820160009054906101000a900473ffffffffffffffffffffffffffffffffffffffff1673ffffffffffffffffffffffffffffffffffffffff1673ffffffffffffffffffffffffffffffffffffffff1681526020016003820160149054906101000a900460ff166005811115620023b557fe5b6005811115620023c157fe5b81525050905060016005811115620023d557fe5b81608001516005811115620023e657fe5b14806200240f575060026005811115620023fc57fe5b816080015160058111156200240d57fe5b145b1515620024aa576040517f08c379a00000000000000000000000000000000000000000000000000000000081526004018080602001828103825260388152602001807f546865206368616e6765206e6565647320746f20626520696e20415050524f5681526020017f4544206f7220696e20455845435554494e47207374617465000000000000000081525060400191505060405180910390fd5b60608160200151905080518310151562002552576040517f08c379a00000000000000000000000000000000000000000000000000000000081526004018080602001828103825260348152602001807f696e646578206d757374206265206c6f776572207468616e2074686520746f7481526020017f616c2073697a65206f662055706772616465727300000000000000000000000081525060400191505060405180910390fd5b81604001518310151515620025f5576040517f08c379a00000000000000000000000000000000000000000000000000000000081526004018080602001828103825260338152602001807f696e6465782062656c6f6e677320746f2061206368616e67652074686174207781526020017f617320616c72656164792065786563757465640000000000000000000000000081525060400191505060405180910390fd5b8160400151831115151562002698576040517f08c379a000000000000000000000000000000000000000000000000000000000815260040180806020018281038252603d8152602001807f6974206973206e656365737361727920746f206578656375746520616e20757081526020017f6772616465722077697468206c6f77657220696e64657820666972737400000081525060400191505060405180910390fd5b60008184815181101515620026a957fe5b906020019060200201519050600460009054906101000a900473ffffffffffffffffffffffffffffffffffffffff1673ffffffffffffffffffffffffffffffffffffffff166311a1c423826040518263ffffffff167c0100000000000000000000000000000000000000000000000000000000028152600401808273ffffffffffffffffffffffffffffffffffffffff1673ffffffffffffffffffffffffffffffffffffffff168152602001915050600060405180830381600087803b1580156200277357600080fd5b505af115801562002788573d6000803e3d6000fd5b5050505060008190508073ffffffffffffffffffffffffffffffffffffffff1663d55ec6976040518163ffffffff167c0100000000000000000000000000000000000000000000000000000000028152600401600060405180830381600087803b158015620027f657600080fd5b505af11580156200280b573d6000803e3d6000fd5b505050506002868154811015156200281f57fe5b90600052602060002090600402016002016000815480929190600101919050555082516002878154811015156200285257fe5b906000526020600020906004020160020154101562002944577f41946281f85c39b347ef098a9c9a8d2aae5e51c510aee0293cc4359bd7de35d48686604051808381526020018281526020019250505060405180910390a160016005811115620028b857fe5b600287815481101515620028c857fe5b906000526020600020906004020160030160149054906101000a900460ff166005811115620028f357fe5b14156200293e57600280878154811015156200290b57fe5b906000526020600020906004020160030160146101000a81548160ff021916908360058111156200293857fe5b02179055505b620029ec565b82516002878154811015156200295657fe5b9060005260206000209060040201600201541415620029eb5760056002878154811015156200298157fe5b906000526020600020906004020160030160146101000a81548160ff02191690836005811115620029ae57fe5b02179055507f917059c1f4e69f15a941c78efb433b9957e94aceae99b068787c32e18c4a9b8d866040518082815260200191505060405180910390a15b5b505050505050565b620029fe62001990565b151562002a0a57600080fd5b62002a158162002bc9565b50565b60008073ffffffffffffffffffffffffffffffffffffffff168273ffffffffffffffffffffffffffffffffffffffff161415151562002a5657600080fd5b8260000160008373ffffffffffffffffffffffffffffffffffffffff1673ffffffffffffffffffffffffffffffffffffffff16815260200190815260200160002060009054906101000a900460ff16905092915050565b62002ac381600062002cc490919063ffffffff16565b8073ffffffffffffffffffffffffffffffffffffffff167fcd265ebaf09df2871cc7bd4133404a235ba12eff2041bb89d9c714a2621c7c7e60405160405180910390a250565b600080600080905060008090505b60038054905082101562002b60578460038381548110151562002b3657fe5b9060005260206000200154141562002b52576001905062002b60565b818060010192505062002b17565b8082935093505050915091565b62002b8381600062002d7790919063ffffffff16565b8073ffffffffffffffffffffffffffffffffffffffff167f6719d08c1888103bea251a4ed56406bd0c3e69723c8a1686e017e7bbe159b6f860405160405180910390a250565b600073ffffffffffffffffffffffffffffffffffffffff168173ffffffffffffffffffffffffffffffffffffffff161415151562002c0657600080fd5b8073ffffffffffffffffffffffffffffffffffffffff166001809054906101000a900473ffffffffffffffffffffffffffffffffffffffff1673ffffffffffffffffffffffffffffffffffffffff167f8be0079c531659141344cd1fd0a4f28419497f9722a3daafe3b4186f6b6457e060405160405180910390a3806001806101000a81548173ffffffffffffffffffffffffffffffffffffffff021916908373ffffffffffffffffffffffffffffffffffffffff16021790555050565b600073ffffffffffffffffffffffffffffffffffffffff168173ffffffffffffffffffffffffffffffffffffffff161415151562002d0157600080fd5b62002d0d828262002a18565b151562002d1957600080fd5b60008260000160008373ffffffffffffffffffffffffffffffffffffffff1673ffffffffffffffffffffffffffffffffffffffff16815260200190815260200160002060006101000a81548160ff0219169083151502179055505050565b600073ffffffffffffffffffffffffffffffffffffffff168173ffffffffffffffffffffffffffffffffffffffff161415151562002db457600080fd5b62002dc0828262002a18565b15151562002dcd57600080fd5b60018260000160008373ffffffffffffffffffffffffffffffffffffffff1673ffffffffffffffffffffffffffffffffffffffff16815260200190815260200160002060006101000a81548160ff0219169083151502179055505050565b60a060405190810160405280600080191681526020016060815260200160008152602001600073ffffffffffffffffffffffffffffffffffffffff1681526020016000600581111562002e7a57fe5b81525090565b81548183558181111562002eaa5781836000526020600020918201910162002ea9919062002f4f565b5b505050565b604051610d5c8062002fbe83390190565b82805482825590600052602060002090810192821562002f3c579160200282015b8281111562002f3b5782518260006101000a81548173ffffffffffffffffffffffffffffffffffffffff021916908373ffffffffffffffffffffffffffffffffffffffff1602179055509160200191906001019062002ee1565b5b50905062002f4b919062002f77565b5090565b62002f7491905b8082111562002f7057600081600090555060010162002f56565b5090565b90565b62002fba91905b8082111562002fb657600081816101000a81549073ffffffffffffffffffffffffffffffffffffffff02191690555060010162002f7e565b5090565b9056fe60806040526000600655600060075534801561001a57600080fd5b50604051610d5c380380610d5c8339810180604052608081101561003d57600080fd5b81019080805164010000000081111561005557600080fd5b8281019050602081018481111561006b57600080fd5b815185602082028301116401000000008211171561008857600080fd5b5050929190602001805190602001909291908051906020019092919080519060200190929190505050336000806101000a81548173ffffffffffffffffffffffffffffffffffffffff021916908373ffffffffffffffffffffffffffffffffffffffff1602179055506000809054906101000a900473ffffffffffffffffffffffffffffffffffffffff1673ffffffffffffffffffffffffffffffffffffffff16600073ffffffffffffffffffffffffffffffffffffffff167f8be0079c531659141344cd1fd0a4f28419497f9722a3daafe3b4186f6b6457e060405160405180910390a361018584610212640100000000026401000000009004565b61019d836102c6640100000000026401000000009004565b81600260006101000a81548173ffffffffffffffffffffffffffffffffffffffff021916908373ffffffffffffffffffffffffffffffffffffffff160217905550806001819055506000600260146101000a81548160ff0219169083600381111561020457fe5b0217905550505050506102e4565b60008090505b81518110156102c25760056000838381518110151561023357fe5b90602001906020020151815260200190815260200160002060009054906101000a900460ff1615156102b557600160056000848481518110151561027357fe5b90602001906020020151815260200190815260200160002060006101000a81548160ff0219169083151502179055506006600081548092919060010191905055505b8080600101915050610218565b5050565b80600381905550606460035411156102e15760646003819055505b50565b610a69806102f36000396000f3fe6080604052600436106100a4576000357c0100000000000000000000000000000000000000000000000000000000900463ffffffff168063200d2ed2146100a95780634b9f5c98146100e2578063715018a61461011f5780638da5cb5b146101365780638f32d59b1461018d578063990008ca146101bc578063c967aa5e146101e7578063e14d58d914610212578063f2fde38b14610241578063fd4a77f114610292575b600080fd5b3480156100b557600080fd5b506100be6102e5565b604051808260038111156100ce57fe5b60ff16815260200191505060405180910390f35b3480156100ee57600080fd5b5061011d6004803603602081101561010557600080fd5b810190808035151590602001909291905050506102f8565b005b34801561012b57600080fd5b506101346105d8565b005b34801561014257600080fd5b5061014b6106aa565b604051808273ffffffffffffffffffffffffffffffffffffffff1673ffffffffffffffffffffffffffffffffffffffff16815260200191505060405180910390f35b34801561019957600080fd5b506101a26106d3565b604051808215151515815260200191505060405180910390f35b3480156101c857600080fd5b506101d161072a565b6040518082815260200191505060405180910390f35b3480156101f357600080fd5b506101fc610734565b6040518082815260200191505060405180910390f35b34801561021e57600080fd5b5061022761073a565b604051808215151515815260200191505060405180910390f35b34801561024d57600080fd5b506102906004803603602081101561026457600080fd5b81019080803573ffffffffffffffffffffffffffffffffffffffff16906020019092919050505061089c565b005b34801561029e57600080fd5b506102cb600480360360208110156102b557600080fd5b81019080803590602001909291905050506108bb565b604051808215151515815260200191505060405180910390f35b600260149054906101000a900460ff1681565b6000600381111561030557fe5b600260149054906101000a900460ff16600381111561032057fe5b1415156103bb576040517f08c379a00000000000000000000000000000000000000000000000000000000081526004018080602001828103825260218152602001807f4465636973696f6e206e6f7420696e2074686520766f74696e6720737461746581526020017f210000000000000000000000000000000000000000000000000000000000000081525060400191505060405180910390fd5b6000600260009054906101000a900473ffffffffffffffffffffffffffffffffffffffff1673ffffffffffffffffffffffffffffffffffffffff166365f68c89336040518263ffffffff167c0100000000000000000000000000000000000000000000000000000000028152600401808273ffffffffffffffffffffffffffffffffffffffff1673ffffffffffffffffffffffffffffffffffffffff16815260200191505060206040518083038186803b15801561047857600080fd5b505afa15801561048c573d6000803e3d6000fd5b505050506040513d60208110156104a257600080fd5b810190808051906020019092919050505090506005600082815260200190815260200160002060009054906101000a900460ff16151561054a576040517f08c379a000000000000000000000000000000000000000000000000000000000815260040180806020018281038252601b8152602001807f446f206e6f74206861766520746865207065726d697373696f6e21000000000081525060200191505060405180910390fd5b8115156004600083815260200190815260200160002060009054906101000a900460ff1615151415156105d4578115610594576007600081548092919060010191905055506105a8565b600760008154809291906001900391905055505b816004600083815260200190815260200160002060006101000a81548160ff0219169083151502179055505b5050565b6105e06106d3565b15156105eb57600080fd5b600073ffffffffffffffffffffffffffffffffffffffff166000809054906101000a900473ffffffffffffffffffffffffffffffffffffffff1673ffffffffffffffffffffffffffffffffffffffff167f8be0079c531659141344cd1fd0a4f28419497f9722a3daafe3b4186f6b6457e060405160405180910390a360008060006101000a81548173ffffffffffffffffffffffffffffffffffffffff021916908373ffffffffffffffffffffffffffffffffffffffff160217905550565b60008060009054906101000a900473ffffffffffffffffffffffffffffffffffffffff16905090565b60008060009054906101000a900473ffffffffffffffffffffffffffffffffffffffff1673ffffffffffffffffffffffffffffffffffffffff163373ffffffffffffffffffffffffffffffffffffffff1614905090565b6000600154905090565b60015481565b600080600381111561074857fe5b600260149054906101000a900460ff16600381111561076357fe5b1415156107fe576040517f08c379a00000000000000000000000000000000000000000000000000000000081526004018080602001828103825260218152602001807f4465636973696f6e206e6f7420696e2074686520766f74696e6720737461746581526020017f210000000000000000000000000000000000000000000000000000000000000081525060400191505060405180910390fd5b6108066106d3565b151561081157600080fd5b61083b606461082d6003546006546108db90919063ffffffff16565b61091990919063ffffffff16565b6007541115610871576001600260146101000a81548160ff0219169083600381111561086357fe5b021790555060019050610899565b60028060146101000a81548160ff0219169083600381111561088f57fe5b0217905550600090505b90565b6108a46106d3565b15156108af57600080fd5b6108b881610943565b50565b60046020528060005260406000206000915054906101000a900460ff1681565b6000808314156108ee5760009050610913565b6000828402905082848281151561090157fe5b0414151561090e57600080fd5b809150505b92915050565b6000808211151561092957600080fd5b6000828481151561093657fe5b0490508091505092915050565b600073ffffffffffffffffffffffffffffffffffffffff168173ffffffffffffffffffffffffffffffffffffffff161415151561097f57600080fd5b8073ffffffffffffffffffffffffffffffffffffffff166000809054906101000a900473ffffffffffffffffffffffffffffffffffffffff1673ffffffffffffffffffffffffffffffffffffffff167f8be0079c531659141344cd1fd0a4f28419497f9722a3daafe3b4186f6b6457e060405160405180910390a3806000806101000a81548173ffffffffffffffffffffffffffffffffffffffff021916908373ffffffffffffffffffffffffffffffffffffffff1602179055505056fea165627a7a72305820ca689ff0895ddb95c499430463e41393cf8ec3a62dc1e76fb428ed1d171e70e10029a165627a7a7230582092e03c2b3a913f5efc4685eca8a89c218bc5721972a852b1584a20c87df314500029608060405234801561001057600080fd5b50604051602080610b6d8339810180604052602081101561003057600080fd5b8101908080519060200190929190505050336000806101000a81548173ffffffffffffffffffffffffffffffffffffffff021916908373ffffffffffffffffffffffffffffffffffffffff1602179055506000809054906101000a900473ffffffffffffffffffffffffffffffffffffffff1673ffffffffffffffffffffffffffffffffffffffff16600073ffffffffffffffffffffffffffffffffffffffff167f8be0079c531659141344cd1fd0a4f28419497f9722a3daafe3b4186f6b6457e060405160405180910390a38073ffffffffffffffffffffffffffffffffffffffff16600260009054906101000a900473ffffffffffffffffffffffffffffffffffffffff1673ffffffffffffffffffffffffffffffffffffffff167f7e644d79422f17c01e4894b5f4f588d331ebfa28653d42ae832dc59e38c9798f60405160405180910390a380600260006101000a81548173ffffffffffffffffffffffffffffffffffffffff021916908373ffffffffffffffffffffffffffffffffffffffff160217905550506109a3806101ca6000396000f3fe6080604052600436106100a4576000357c0100000000000000000000000000000000000000000000000000000000900463ffffffff16806311a1c423146100a957806324d7806c146100fa57806341a28df614610163578063715018a6146101b45780637e96549f146101cb57806381830593146102345780638da5cb5b1461028b5780638f32d59b146102e2578063eff2dcc614610311578063f2fde38b14610368575b600080fd5b3480156100b557600080fd5b506100f8600480360360208110156100cc57600080fd5b81019080803573ffffffffffffffffffffffffffffffffffffffff1690602001909291905050506103b9565b005b34801561010657600080fd5b506101496004803603602081101561011d57600080fd5b81019080803573ffffffffffffffffffffffffffffffffffffffff16906020019092919050505061048c565b604051808215151515815260200191505060405180910390f35b34801561016f57600080fd5b506101b26004803603602081101561018657600080fd5b81019080803573ffffffffffffffffffffffffffffffffffffffff1690602001909291905050506104e6565b005b3480156101c057600080fd5b506101c961065e565b005b3480156101d757600080fd5b5061021a600480360360208110156101ee57600080fd5b81019080803573ffffffffffffffffffffffffffffffffffffffff169060200190929190505050610730565b604051808215151515815260200191505060405180910390f35b34801561024057600080fd5b5061024961078a565b604051808273ffffffffffffffffffffffffffffffffffffffff1673ffffffffffffffffffffffffffffffffffffffff16815260200191505060405180910390f35b34801561029757600080fd5b506102a06107b4565b604051808273ffffffffffffffffffffffffffffffffffffffff1673ffffffffffffffffffffffffffffffffffffffff16815260200191505060405180910390f35b3480156102ee57600080fd5b506102f76107dd565b604051808215151515815260200191505060405180910390f35b34801561031d57600080fd5b50610326610834565b604051808273ffffffffffffffffffffffffffffffffffffffff1673ffffffffffffffffffffffffffffffffffffffff16815260200191505060405180910390f35b34801561037457600080fd5b506103b76004803603602081101561038b57600080fd5b81019080803573ffffffffffffffffffffffffffffffffffffffff16906020019092919050505061085e565b005b6103c16107dd565b15156103cc57600080fd5b8073ffffffffffffffffffffffffffffffffffffffff16600160009054906101000a900473ffffffffffffffffffffffffffffffffffffffff1673ffffffffffffffffffffffffffffffffffffffff167f9cc0fca95bdc66b57e27ff56ce70619d6c76e891759b10768345411032913ecf60405160405180910390a380600160006101000a81548173ffffffffffffffffffffffffffffffffffffffff021916908373ffffffffffffffffffffffffffffffffffffffff16021790555050565b60008173ffffffffffffffffffffffffffffffffffffffff16600260009054906101000a900473ffffffffffffffffffffffffffffffffffffffff1673ffffffffffffffffffffffffffffffffffffffff16149050919050565b6104ee6107dd565b15156104f957600080fd5b600073ffffffffffffffffffffffffffffffffffffffff168173ffffffffffffffffffffffffffffffffffffffff161415151561059e576040517f08c379a000000000000000000000000000000000000000000000000000000000815260040180806020018281038252601e8152602001807f4e657741646472206973206e6f7420612076616c69642061646472657373000081525060200191505060405180910390fd5b8073ffffffffffffffffffffffffffffffffffffffff16600260009054906101000a900473ffffffffffffffffffffffffffffffffffffffff1673ffffffffffffffffffffffffffffffffffffffff167f7e644d79422f17c01e4894b5f4f588d331ebfa28653d42ae832dc59e38c9798f60405160405180910390a380600260006101000a81548173ffffffffffffffffffffffffffffffffffffffff021916908373ffffffffffffffffffffffffffffffffffffffff16021790555050565b6106666107dd565b151561067157600080fd5b600073ffffffffffffffffffffffffffffffffffffffff166000809054906101000a900473ffffffffffffffffffffffffffffffffffffffff1673ffffffffffffffffffffffffffffffffffffffff167f8be0079c531659141344cd1fd0a4f28419497f9722a3daafe3b4186f6b6457e060405160405180910390a360008060006101000a81548173ffffffffffffffffffffffffffffffffffffffff021916908373ffffffffffffffffffffffffffffffffffffffff160217905550565b6000600160009054906101000a900473ffffffffffffffffffffffffffffffffffffffff1673ffffffffffffffffffffffffffffffffffffffff168273ffffffffffffffffffffffffffffffffffffffff16149050919050565b6000600260009054906101000a900473ffffffffffffffffffffffffffffffffffffffff16905090565b60008060009054906101000a900473ffffffffffffffffffffffffffffffffffffffff16905090565b60008060009054906101000a900473ffffffffffffffffffffffffffffffffffffffff1673ffffffffffffffffffffffffffffffffffffffff163373ffffffffffffffffffffffffffffffffffffffff1614905090565b6000600160009054906101000a900473ffffffffffffffffffffffffffffffffffffffff16905090565b6108666107dd565b151561087157600080fd5b61087a8161087d565b50565b600073ffffffffffffffffffffffffffffffffffffffff168173ffffffffffffffffffffffffffffffffffffffff16141515156108b957600080fd5b8073ffffffffffffffffffffffffffffffffffffffff166000809054906101000a900473ffffffffffffffffffffffffffffffffffffffff1673ffffffffffffffffffffffffffffffffffffffff167f8be0079c531659141344cd1fd0a4f28419497f9722a3daafe3b4186f6b6457e060405160405180910390a3806000806101000a81548173ffffffffffffffffffffffffffffffffffffffff021916908373ffffffffffffffffffffffffffffffffffffffff1602179055505056fea165627a7a72305820804f9e44da24947eba9bd4021873ed3aca53631aa612e9374cc5843bc0dc31b60029",
  "source": "pragma solidity ^0.5.0;\r\n\r\nimport \"openzeppelin-solidity/contracts/ownership/Ownable.sol\";\r\nimport \"openzeppelin-solidity/contracts/lifecycle/Pausable.sol\";\r\n\r\nimport \"./GovernanceDecision.sol\";\r\nimport \"./UpgraderInfo.sol\";\r\nimport \"./Upgrader.sol\";\r\nimport \"./IdRegistry.sol\";\r\n\r\n\r\ncontract Governance is Pausable, Ownable() {\r\n\r\n    enum ChangeState { WAITING, APPROVED, EXECUTING, DISAPPROVED, CANCELED, FINISHED }\r\n\r\n    struct ChangeDataStructure {\r\n        \r\n        //Hash of the change motivation\r\n        bytes32 hashChangeMotivation;\r\n        \r\n        //Address of upgrader contract\r\n        address[] upgraderContractsAddr;\r\n\r\n        //Stores the next executed upgrader of this change data structure - it will finish with upgraderContractsAddr.lenght\r\n        uint upgraderContractToBeExecutedIndex;\r\n\r\n        //Address of decision contract (if necessary)\r\n        address decisionContractAddr;\r\n\r\n        ChangeState changeState;\r\n    }\r\n\r\n    ChangeDataStructure[] private governingChanges;\r\n    uint[] governanceMembersId;\r\n\r\n    UpgraderInfo private upgraderInfo;\r\n    IdRegistry private idRegistry;\r\n    address private _resposibleForAssigningGovernanceMembers;\r\n\r\n    modifier onlyAllowedUpgrader() {\r\n        require(upgraderInfo.isAllowedUpgrader(msg.sender), \"This function can only be executed by Upgraders\");\r\n        _;\r\n    }\r\n\r\n    constructor (address adminOfNewContractsAddr, uint[] memory initialGovernanceMembersId, address resposibleForAssigningGovernanceMembers) public {\r\n        upgraderInfo = new UpgraderInfo(adminOfNewContractsAddr);\r\n        governanceMembersId = initialGovernanceMembersId;\r\n        _resposibleForAssigningGovernanceMembers = resposibleForAssigningGovernanceMembers;\r\n    }\r\n\r\n    //It is necessary to call this function before any governance decision\r\n    function setIdRegistryAddr(address idRegistryAddr) public onlyAllowedUpgrader {\r\n        idRegistry = IdRegistry(idRegistryAddr);\r\n    }\r\n\r\n    event NewChangeCreated(uint changeNumber, bytes32 hashChangeMotivation, address[] upgraderContractsAddr,\r\n            address decisionContractAddr);\r\n    event ChangeApproved(uint changeNumber);\r\n    event ChangePartialExecuted(uint changeNumber, uint index);\r\n    event ChangeExecuted(uint changeNumber);\r\n    event ChangeDisapproved(uint changeNumber);\r\n    event ChangeCancelled(uint changeNumber);\r\n    \r\n\r\n    function createNewChange (bytes32 hashChangeMotivation, address[] memory upgraderContractsAddr,\r\n            uint256 percentageDecision) public onlyOwner {\r\n            \r\n            uint changeNumber = governingChanges.length;\r\n\r\n            ChangeDataStructure memory cds;\r\n            if (percentageDecision != 0) {\r\n                GovernanceDecision governanceDecision = new GovernanceDecision(governanceMembersId, percentageDecision, address(idRegistry), changeNumber);\r\n                cds = ChangeDataStructure(hashChangeMotivation, upgraderContractsAddr, 0,\r\n                        address(governanceDecision), ChangeState.WAITING);\r\n                emit NewChangeCreated(changeNumber, hashChangeMotivation, upgraderContractsAddr, address(governanceDecision));\r\n\r\n            }\r\n            else { //The owner decided by itself\r\n                cds = ChangeDataStructure(hashChangeMotivation, upgraderContractsAddr, 0,\r\n                                    address(0), ChangeState.APPROVED);\r\n                emit NewChangeCreated(changeNumber, hashChangeMotivation, upgraderContractsAddr, address(0));\r\n                cds.changeState = ChangeState.APPROVED;\r\n                emit ChangeApproved(changeNumber);\r\n\r\n            }\r\n            governingChanges.push(cds);\r\n    }\r\n\r\n\tfunction makeResult(uint changeNumber) public onlyOwner returns(bool) {\r\n\r\n        require (changeNumber<governingChanges.length, \"Invalid change number\");\r\n        \r\n        ChangeDataStructure memory cds = governingChanges[changeNumber];\r\n\r\n        require(cds.changeState==ChangeState.WAITING, \"The change needs to be in WAITING state\");\r\n\r\n        GovernanceDecision governanceDecision = GovernanceDecision(cds.decisionContractAddr);\r\n\r\n        if (governanceDecision.makeResult()) {\r\n           \r\n            governingChanges[changeNumber].changeState = ChangeState.APPROVED;\r\n            emit ChangeApproved(changeNumber);\r\n            return true;\r\n        }\r\n\t\telse {\r\n\r\n            governingChanges[changeNumber].changeState = ChangeState.DISAPPROVED;\r\n            emit ChangeDisapproved(changeNumber);\r\n\t\t\treturn false;\r\n\t\t}\r\n\r\n\t}\r\n\r\n    function executeChange (uint changeNumber) public {\r\n        executeChange(changeNumber, 0);\r\n    }\r\n\r\n    function executeChange (uint changeNumber, uint index) public {\r\n\r\n        require (changeNumber<governingChanges.length, \"Invalid change number\");\r\n\r\n        require (upgraderInfo.isAdmin(msg.sender), \"The change needs to be executed by Admin\");\r\n\r\n        ChangeDataStructure memory cds = governingChanges[changeNumber];\r\n\r\n        require(cds.changeState==ChangeState.APPROVED || cds.changeState==ChangeState.EXECUTING,\r\n            \"The change needs to be in APPROVED or in EXECUTING state\");\r\n\r\n        address[] memory upgraderContractsAddr = cds.upgraderContractsAddr;\r\n\r\n        require (index < upgraderContractsAddr.length, \"index must be lower than the total size of Upgraders\");\r\n        require (!(index < cds.upgraderContractToBeExecutedIndex), \"index belongs to a change that was already executed\");\r\n        require (!(index > cds.upgraderContractToBeExecutedIndex), \"it is necessary to execute an upgrader with lower index first\");\r\n\r\n        address upgraderAddr = upgraderContractsAddr[index];\r\n        upgraderInfo.setAllowedUpgrader(upgraderAddr);\r\n        Upgrader upgrader = Upgrader(upgraderAddr);\r\n        upgrader.upgrade();\r\n        governingChanges[changeNumber].upgraderContractToBeExecutedIndex++;\r\n\r\n        if (governingChanges[changeNumber].upgraderContractToBeExecutedIndex < upgraderContractsAddr.length) { //still need to execute more changes\r\n            emit ChangePartialExecuted(changeNumber, index);\r\n            if (governingChanges[changeNumber].changeState == ChangeState.APPROVED) {\r\n                governingChanges[changeNumber].changeState = ChangeState.EXECUTING;\r\n            }\r\n        }\r\n        \r\n        else if (governingChanges[changeNumber].upgraderContractToBeExecutedIndex == upgraderContractsAddr.length) {\r\n            governingChanges[changeNumber].changeState = ChangeState.FINISHED;\r\n            emit ChangeExecuted(changeNumber);\r\n        }\r\n    }\r\n\r\n\r\n    function cancelChange (uint changeNumber) public onlyOwner {\r\n\r\n        require (changeNumber<governingChanges.length, \"Invalid change number\");\r\n\r\n        ChangeDataStructure memory cds = governingChanges[changeNumber];\r\n\r\n        require(cds.changeState==ChangeState.WAITING || cds.changeState==ChangeState.APPROVED || cds.changeState==ChangeState.EXECUTING,\r\n            \"The change needs to be in WAITING or APPROVED or EXECUTING state\");\r\n\r\n        governingChanges[changeNumber].changeState = ChangeState.CANCELED;\r\n\r\n        //TODO: cancelar no contrato de deciso\r\n\r\n        emit ChangeCancelled(changeNumber);\r\n    }\r\n\r\n    function getChange(uint changeNumber) public view returns (bytes32, address[] memory, uint, address, ChangeState) {\r\n\r\n        require (changeNumber<governingChanges.length, \"Invalid change number\");\r\n\r\n        ChangeDataStructure memory cds = governingChanges[changeNumber];\r\n        return (cds.hashChangeMotivation, cds.upgraderContractsAddr, cds.upgraderContractToBeExecutedIndex,\r\n                cds.decisionContractAddr, cds.changeState);\r\n\r\n    }\r\n\r\n    function includeNewGovernanceMember(uint newMember) public {\r\n        require (msg.sender == _resposibleForAssigningGovernanceMembers);\r\n        governanceMembersId.push(newMember);\r\n    }\r\n\r\n    function removeGovernanceMember(uint newMember) public {\r\n        \r\n        require (msg.sender == _resposibleForAssigningGovernanceMembers);\r\n        (bool find, uint index) = findIndexGovernanceMember(newMember);\r\n        require (find==true, \"Member not found\");\r\n        governanceMembersId[index]=governanceMembersId[governanceMembersId.length-1];\r\n        governanceMembersId.length--;\r\n    }\r\n\r\n    function findIndexGovernanceMember(uint newMember) view internal returns (bool, uint) {\r\n        uint i=0;\r\n        bool find = false;\r\n        for (;i<governanceMembersId.length; i++) {\r\n            if (governanceMembersId[i]==newMember) {\r\n                find = true;\r\n                break;\r\n            }\r\n        }\r\n        return (find,i);\r\n    }\r\n\r\n    //This function should not be called alone. In order to change the admin, it is necessary to change the pausables.\r\n    function setAdminAddr (address newAddr) public onlyAllowedUpgrader {\r\n        upgraderInfo.setAdminAddr(newAddr);\r\n    }\r\n\r\n    function upgraderInfoAddr() public view returns (address)  {\r\n        return address(upgraderInfo);\r\n    }\r\n\r\n    function idRegistryAddr() public view returns (address) {\r\n        return address(idRegistry);\r\n    }\r\n\r\n   \r\n }",
  "sourcePath": "D:\\Workspace\\bndestoken\\Back-Blockchain-Upgrade\\contracts\\appGovernanceUpgrade\\Governance.sol",
  "compiler": {
    "name": "solc",
    "version": "0.5.0+commit.1d4f565a.Emscripten.clang"
  },
  "schemaVersion": "3.0.5",
  "updatedAt": "2019-10-18T14:14:44.417Z",
  "devdoc": {
    "methods": {
      "isOwner()": {
        "return": "true if `msg.sender` is the owner of the contract."
      },
      "owner()": {
        "return": "the address of the owner."
      },
      "pause()": {
        "details": "called by the owner to pause, triggers stopped state"
      },
      "paused()": {
        "return": "true if the contract is paused, false otherwise."
      },
      "renounceOwnership()": {
        "details": "Allows the current owner to relinquish control of the contract."
      },
      "transferOwnership(address)": {
        "details": "Allows the current owner to transfer control of the contract to a newOwner.",
        "params": {
          "newOwner": "The address to transfer ownership to."
        }
      },
      "unpause()": {
        "details": "called by the owner to unpause, returns to normal state"
      }
    }
  },
  "userdoc": {
    "methods": {
      "renounceOwnership()": {
        "notice": "Renouncing to ownership will leave the contract without an owner. It will not be possible to call the functions with the `onlyOwner` modifier anymore."
      }
    }
  }
}