{
  "contractName": "GovernanceDecision",
  "abi": [
    {
      "constant": true,
      "inputs": [],
      "name": "status",
      "outputs": [
        {
          "name": "",
          "type": "uint8"
        }
      ],
      "payable": false,
      "stateMutability": "view",
      "type": "function"
    },
    {
      "constant": false,
      "inputs": [],
      "name": "renounceOwnership",
      "outputs": [],
      "payable": false,
      "stateMutability": "nonpayable",
      "type": "function"
    },
    {
      "constant": true,
      "inputs": [],
      "name": "owner",
      "outputs": [
        {
          "name": "",
          "type": "address"
        }
      ],
      "payable": false,
      "stateMutability": "view",
      "type": "function"
    },
    {
      "constant": true,
      "inputs": [],
      "name": "isOwner",
      "outputs": [
        {
          "name": "",
          "type": "bool"
        }
      ],
      "payable": false,
      "stateMutability": "view",
      "type": "function"
    },
    {
      "constant": false,
      "inputs": [
        {
          "name": "newOwner",
          "type": "address"
        }
      ],
      "name": "transferOwnership",
      "outputs": [],
      "payable": false,
      "stateMutability": "nonpayable",
      "type": "function"
    },
    {
      "constant": true,
      "inputs": [
        {
          "name": "",
          "type": "uint256"
        }
      ],
      "name": "voting",
      "outputs": [
        {
          "name": "",
          "type": "bool"
        }
      ],
      "payable": false,
      "stateMutability": "view",
      "type": "function"
    },
    {
      "inputs": [
        {
          "name": "_votersId",
          "type": "uint256[]"
        },
        {
          "name": "_percentage",
          "type": "uint256"
        },
        {
          "name": "gAddr",
          "type": "address"
        },
        {
          "name": "idRegistryAddr",
          "type": "address"
        }
      ],
      "payable": false,
      "stateMutability": "nonpayable",
      "type": "constructor"
    },
    {
      "anonymous": false,
      "inputs": [
        {
          "indexed": true,
          "name": "previousOwner",
          "type": "address"
        },
        {
          "indexed": true,
          "name": "newOwner",
          "type": "address"
        }
      ],
      "name": "OwnershipTransferred",
      "type": "event"
    },
    {
      "constant": false,
      "inputs": [],
      "name": "startProposal",
      "outputs": [],
      "payable": false,
      "stateMutability": "nonpayable",
      "type": "function"
    },
    {
      "constant": false,
      "inputs": [
        {
          "name": "_choose",
          "type": "bool"
        }
      ],
      "name": "vote",
      "outputs": [],
      "payable": false,
      "stateMutability": "nonpayable",
      "type": "function"
    },
    {
      "constant": false,
      "inputs": [],
      "name": "getResolution",
      "outputs": [
        {
          "name": "",
          "type": "uint8"
        }
      ],
      "payable": false,
      "stateMutability": "nonpayable",
      "type": "function"
    },
    {
      "constant": false,
      "inputs": [],
      "name": "approveChangeIfPossible",
      "outputs": [],
      "payable": false,
      "stateMutability": "nonpayable",
      "type": "function"
    },
    {
      "constant": false,
      "inputs": [
        {
          "name": "_votersId",
          "type": "uint256[]"
        }
      ],
      "name": "addVoters",
      "outputs": [],
      "payable": false,
      "stateMutability": "nonpayable",
      "type": "function"
    },
    {
      "constant": true,
      "inputs": [],
      "name": "getChangeNumber",
      "outputs": [
        {
          "name": "",
          "type": "uint256"
        }
      ],
      "payable": false,
      "stateMutability": "view",
      "type": "function"
    },
    {
      "constant": false,
      "inputs": [
        {
          "name": "number",
          "type": "uint256"
        }
      ],
      "name": "setChangeNumber",
      "outputs": [
        {
          "name": "",
          "type": "bool"
        }
      ],
      "payable": false,
      "stateMutability": "nonpayable",
      "type": "function"
    },
    {
      "constant": false,
      "inputs": [
        {
          "name": "_percentage",
          "type": "uint256"
        }
      ],
      "name": "setPercentage",
      "outputs": [],
      "payable": false,
      "stateMutability": "nonpayable",
      "type": "function"
    }
  ],
  "bytecode": "0x6080604052600060075560006008553480156200001b57600080fd5b506040516200156b3803806200156b833981018060405260808110156200004157600080fd5b8101908080516401000000008111156200005a57600080fd5b828101905060208101848111156200007157600080fd5b81518560208202830111640100000000821117156200008f57600080fd5b5050929190602001805190602001909291908051906020019092919080519060200190929190505050336000806101000a81548173ffffffffffffffffffffffffffffffffffffffff021916908373ffffffffffffffffffffffffffffffffffffffff1602179055506000809054906101000a900473ffffffffffffffffffffffffffffffffffffffff1673ffffffffffffffffffffffffffffffffffffffff16600073ffffffffffffffffffffffffffffffffffffffff167f8be0079c531659141344cd1fd0a4f28419497f9722a3daafe3b4186f6b6457e060405160405180910390a36200018e8462000259640100000000026401000000009004565b620001a88362000312640100000000026401000000009004565b80600360006101000a81548173ffffffffffffffffffffffffffffffffffffffff021916908373ffffffffffffffffffffffffffffffffffffffff1602179055506000600360146101000a81548160ff021916908360048111156200020957fe5b021790555081600260006101000a81548173ffffffffffffffffffffffffffffffffffffffff021916908373ffffffffffffffffffffffffffffffffffffffff1602179055505050505062000331565b60008090505b81518110156200030e576006600083838151811015156200027c57fe5b90602001906020020151815260200190815260200160002060009054906101000a900460ff16151562000300576001600660008484815181101515620002be57fe5b90602001906020020151815260200190815260200160002060006101000a81548160ff0219169083151502179055506007600081548092919060010191905055505b80806001019150506200025f565b5050565b80600481905550606460045411156200032e5760646004819055505b50565b61122a80620003416000396000f3fe6080604052600436106100d0576000357c0100000000000000000000000000000000000000000000000000000000900463ffffffff16806317d6fe1c146100d5578063200d2ed21461010e578063274da81f146101475780634b9f5c981461015e5780635da4a1d31461019b5780636cffcbda146101d6578063715018a6146101ed5780638da5cb5b146102045780638f32d59b1461025b578063990008ca1461028a578063ae019ae0146102b5578063c9b26db414610308578063f2fde38b146103cd578063fd4a77f11461041e575b600080fd5b3480156100e157600080fd5b506100ea610471565b604051808260048111156100fa57fe5b60ff16815260200191505060405180910390f35b34801561011a57600080fd5b506101236105a3565b6040518082600481111561013357fe5b60ff16815260200191505060405180910390f35b34801561015357600080fd5b5061015c6105b6565b005b34801561016a57600080fd5b506101996004803603602081101561018157600080fd5b810190808035151590602001909291905050506106b2565b005b3480156101a757600080fd5b506101d4600480360360208110156101be57600080fd5b8101908080359060200190929190505050610994565b005b3480156101e257600080fd5b506101eb610a76565b005b3480156101f957600080fd5b50610202610c50565b005b34801561021057600080fd5b50610219610d22565b604051808273ffffffffffffffffffffffffffffffffffffffff1673ffffffffffffffffffffffffffffffffffffffff16815260200191505060405180910390f35b34801561026757600080fd5b50610270610d4b565b604051808215151515815260200191505060405180910390f35b34801561029657600080fd5b5061029f610da2565b6040518082815260200191505060405180910390f35b3480156102c157600080fd5b506102ee600480360360208110156102d857600080fd5b8101908080359060200190929190505050610dac565b604051808215151515815260200191505060405180910390f35b34801561031457600080fd5b506103cb6004803603602081101561032b57600080fd5b810190808035906020019064010000000081111561034857600080fd5b82018360208201111561035a57600080fd5b8035906020019184602083028401116401000000008311171561037c57600080fd5b919080806020026020016040519081016040528093929190818152602001838360200280828437600081840152601f19601f820116905080830192505050505050509192919290505050610ea9565b005b3480156103d957600080fd5b5061041c600480360360208110156103f057600080fd5b81019080803573ffffffffffffffffffffffffffffffffffffffff169060200190929190505050610f8b565b005b34801561042a57600080fd5b506104576004803603602081101561044157600080fd5b8101908080359060200190929190505050610faa565b604051808215151515815260200191505060405180910390f35b60006001600481111561048057fe5b600360149054906101000a900460ff16600481111561049b57fe5b141515610536576040517f08c379a00000000000000000000000000000000000000000000000000000000081526004018080602001828103825260218152602001807f4465636973696f6e206e6f7420696e2074686520766f74696e6720737461746581526020017f210000000000000000000000000000000000000000000000000000000000000081525060400191505060405180910390fd5b6105606064610552600454600754610fca90919063ffffffff16565b61100890919063ffffffff16565b600854111561058e576002600360146101000a81548160ff0219169083600481111561058857fe5b02179055505b600360149054906101000a900460ff16905090565b600360149054906101000a900460ff1681565b6105be610d4b565b15156105c957600080fd5b600060048111156105d657fe5b600360149054906101000a900460ff1660048111156105f157fe5b14151561068c576040517f08c379a00000000000000000000000000000000000000000000000000000000081526004018080602001828103825260228152602001807f50726f706f73616c20686173206265656e20616c72656164792073746172746581526020017f642100000000000000000000000000000000000000000000000000000000000081525060400191505060405180910390fd5b6001600360146101000a81548160ff021916908360048111156106ab57fe5b0217905550565b600160048111156106bf57fe5b600360149054906101000a900460ff1660048111156106da57fe5b141515610775576040517f08c379a00000000000000000000000000000000000000000000000000000000081526004018080602001828103825260218152602001807f4465636973696f6e206e6f7420696e2074686520766f74696e6720737461746581526020017f210000000000000000000000000000000000000000000000000000000000000081525060400191505060405180910390fd5b6000600360009054906101000a900473ffffffffffffffffffffffffffffffffffffffff1673ffffffffffffffffffffffffffffffffffffffff166365f68c89336040518263ffffffff167c0100000000000000000000000000000000000000000000000000000000028152600401808273ffffffffffffffffffffffffffffffffffffffff1673ffffffffffffffffffffffffffffffffffffffff168152602001915050602060405180830381600087803b15801561083457600080fd5b505af1158015610848573d6000803e3d6000fd5b505050506040513d602081101561085e57600080fd5b810190808051906020019092919050505090506006600082815260200190815260200160002060009054906101000a900460ff161515610906576040517f08c379a000000000000000000000000000000000000000000000000000000000815260040180806020018281038252601b8152602001807f446f206e6f74206861766520746865207065726d697373696f6e21000000000081525060200191505060405180910390fd5b8115156005600083815260200190815260200160002060009054906101000a900460ff16151514151561099057811561095057600860008154809291906001019190505550610964565b600860008154809291906001900391905055505b816005600083815260200190815260200160002060006101000a81548160ff0219169083151502179055505b5050565b600160048111156109a157fe5b600360149054906101000a900460ff1660048111156109bc57fe5b141515610a57576040517f08c379a00000000000000000000000000000000000000000000000000000000081526004018080602001828103825260218152602001807f4465636973696f6e206e6f7420696e2074686520766f74696e6720737461746581526020017f210000000000000000000000000000000000000000000000000000000000000081525060400191505060405180910390fd5b610a5f610d4b565b1515610a6a57600080fd5b610a7381611032565b50565b610a7e610d4b565b1515610a8957600080fd5b60026004811115610a9657fe5b600360149054906101000a900460ff166004811115610ab157fe5b1415610b6d576000600260009054906101000a900473ffffffffffffffffffffffffffffffffffffffff1690508073ffffffffffffffffffffffffffffffffffffffff16638fa1aa4c6001546040518263ffffffff167c010000000000000000000000000000000000000000000000000000000002815260040180828152602001915050600060405180830381600087803b158015610b4f57600080fd5b505af1158015610b63573d6000803e3d6000fd5b5050505050610c4e565b60036004811115610b7a57fe5b600360149054906101000a900460ff166004811115610b9557fe5b1415610c4d576000600260009054906101000a900473ffffffffffffffffffffffffffffffffffffffff1690508073ffffffffffffffffffffffffffffffffffffffff166341986f3b6001546040518263ffffffff167c010000000000000000000000000000000000000000000000000000000002815260040180828152602001915050600060405180830381600087803b158015610c3357600080fd5b505af1158015610c47573d6000803e3d6000fd5b50505050505b5b565b610c58610d4b565b1515610c6357600080fd5b600073ffffffffffffffffffffffffffffffffffffffff166000809054906101000a900473ffffffffffffffffffffffffffffffffffffffff1673ffffffffffffffffffffffffffffffffffffffff167f8be0079c531659141344cd1fd0a4f28419497f9722a3daafe3b4186f6b6457e060405160405180910390a360008060006101000a81548173ffffffffffffffffffffffffffffffffffffffff021916908373ffffffffffffffffffffffffffffffffffffffff160217905550565b60008060009054906101000a900473ffffffffffffffffffffffffffffffffffffffff16905090565b60008060009054906101000a900473ffffffffffffffffffffffffffffffffffffffff1673ffffffffffffffffffffffffffffffffffffffff163373ffffffffffffffffffffffffffffffffffffffff1614905090565b6000600154905090565b60003373ffffffffffffffffffffffffffffffffffffffff16600260009054906101000a900473ffffffffffffffffffffffffffffffffffffffff1673ffffffffffffffffffffffffffffffffffffffff16141515610e99576040517f08c379a00000000000000000000000000000000000000000000000000000000081526004018080602001828103825260348152602001807f546869732066756e6374696f6e2063616e206f6e6c792062652065786563757481526020017f65642062792074686520476f7665726e616e636500000000000000000000000081525060400191505060405180910390fd5b8160018190555060019050919050565b60016004811115610eb657fe5b600360149054906101000a900460ff166004811115610ed157fe5b141515610f6c576040517f08c379a00000000000000000000000000000000000000000000000000000000081526004018080602001828103825260218152602001807f4465636973696f6e206e6f7420696e2074686520766f74696e6720737461746581526020017f210000000000000000000000000000000000000000000000000000000000000081525060400191505060405180910390fd5b610f74610d4b565b1515610f7f57600080fd5b610f8881611050565b50565b610f93610d4b565b1515610f9e57600080fd5b610fa781611104565b50565b60056020528060005260406000206000915054906101000a900460ff1681565b600080831415610fdd5760009050611002565b60008284029050828482811515610ff057fe5b04141515610ffd57600080fd5b809150505b92915050565b6000808211151561101857600080fd5b6000828481151561102557fe5b0490508091505092915050565b806004819055506064600454111561104d5760646004819055505b50565b60008090505b81518110156111005760066000838381518110151561107157fe5b90602001906020020151815260200190815260200160002060009054906101000a900460ff1615156110f35760016006600084848151811015156110b157fe5b90602001906020020151815260200190815260200160002060006101000a81548160ff0219169083151502179055506007600081548092919060010191905055505b8080600101915050611056565b5050565b600073ffffffffffffffffffffffffffffffffffffffff168173ffffffffffffffffffffffffffffffffffffffff161415151561114057600080fd5b8073ffffffffffffffffffffffffffffffffffffffff166000809054906101000a900473ffffffffffffffffffffffffffffffffffffffff1673ffffffffffffffffffffffffffffffffffffffff167f8be0079c531659141344cd1fd0a4f28419497f9722a3daafe3b4186f6b6457e060405160405180910390a3806000806101000a81548173ffffffffffffffffffffffffffffffffffffffff021916908373ffffffffffffffffffffffffffffffffffffffff1602179055505056fea165627a7a72305820cb9f55c3214670b2af5447ea2f35273e47bd285d367fb1bdda3fc3f3efc53f300029",
  "source": "pragma solidity ^0.5.0;\r\n\r\nimport \"openzeppelin-solidity/contracts/math/SafeMath.sol\";\r\nimport \"openzeppelin-solidity/contracts/ownership/Ownable.sol\";\r\nimport \"./IdRegistry.sol\";\r\nimport \"./Governance.sol\";\r\n\r\n/**\r\n * The upgrader works in following steps:\r\n *   1. Call startProposal() to start the voting process;\r\n *   2. Call getResolution() before the expiration;\r\n *   3. Upgrade succeed or proposal is expired.\r\n *    * Function done() can be called at any time to let upgrader destruct itself.\r\n *    * Function status() can be called at any time to show caller status of the upgrader.\r\n */\r\ncontract GovernanceDecision is Ownable() {\r\n\r\n\tusing SafeMath for uint256;\r\n\r\n\tuint private changeNumber;\r\n\r\n\taddress private governanceAddr;\r\n\r\n\tIdRegistry private idRegistry;\r\n\r\n\r\n\t/** Marker */\r\n\tenum UpgraderStatus {\r\n\t\tPreparing,\r\n\t\tVoting,\r\n\t\tApproved,\r\n\t\tRejected,\r\n\t\tCancelled\r\n\t}\r\n\r\n\tUpgraderStatus public status;\r\n\r\n\r\n\t/** Voting mechanism related */\r\n\tuint256 private percentage;\r\n\tmapping(uint => bool) public voting;\r\n\tmapping(uint => bool) private voterRegistered;\r\n\tuint256 private numOfVoters = 0;\r\n\tuint256 private numOfAgreements = 0;\r\n\r\n\tmodifier onlyInVotingState {\r\n\t\trequire(status == UpgraderStatus.Voting, \"Decision not in the voting state!\");\r\n\t\t_;\r\n\t}\r\n\r\n    modifier onlyGovernance() {\r\n        require(governanceAddr==msg.sender, \"This function can only be executed by the Governance\");\r\n        _;\r\n    }\r\n\r\n\r\n\tconstructor (uint[] memory _votersId, uint256 _percentage, address gAddr, address idRegistryAddr) public {\r\n\r\n\t\t_addVoters(_votersId);\r\n\t\t_setPercentage(_percentage);\r\n\r\n\t\tidRegistry = IdRegistry (idRegistryAddr);\r\n\r\n\t\t// Mark the contract as preparing.\r\n\t\tstatus = UpgraderStatus.Preparing;\r\n\r\n\t\tgovernanceAddr = gAddr;\r\n\t}\r\n\r\n\t//TODO: cancel change\r\n\r\n\r\n\t/**\r\n\t * Start voting.\r\n\t * Upgrader must check if Data contract and 2 Handler contracts are ok.\r\n\t *\r\n\t * exception\tRestartingException\tproposal has been already started.\r\n\t * exception\tPermissionException\tmsg.sender is not the owner.\r\n\t */\r\n\tfunction startProposal () external onlyOwner {\r\n\t require(status == UpgraderStatus.Preparing, \"Proposal has been already started!\");\r\n\r\n\t\t// Mark the contract as voting.\r\n\t\tstatus = UpgraderStatus.Voting;\r\n\t}\r\n\r\n\t/**\r\n\t * Vote.\r\n\t *\r\n\t * @param\t_choose\tif the voter agrees with the proposal.\r\n\t *\r\n\t * exception\tPermissionException\tmsg.sender is not a voter.\r\n\t * \r\n\t */\r\n\tfunction vote (bool _choose) external onlyInVotingState {\r\n\t\tuint voterId = idRegistry.getId(msg.sender);\r\n\t\trequire(voterRegistered[voterId], \"Do not have the permission!\");\r\n\t\tif (voting[voterId] != _choose) {\r\n\t\t\tif (_choose) {\r\n\t\t\t\tnumOfAgreements++;\r\n\t\t\t} else {\r\n\t\t\t\tnumOfAgreements--;\r\n\t\t\t}\r\n\t\t\tvoting[voterId] = _choose;\r\n\t\t}\r\n\t}\r\n\r\n\r\n\r\n\t/**\r\n\t * Anyone can try to get resolution.\r\n\t * If voters get consensus, upgrade the Handler contract.\r\n\t * Otherwise, do nothing.\r\n\t *\r\n\t * exception\tPreparingUpgraderException\tproposal has not been started.\r\n\t *\r\n\t * @return\tstatus of proposal.\r\n\t * \r\n\t */\r\n\tfunction getResolution() external onlyInVotingState returns(UpgraderStatus) {\r\n\t\tif (numOfAgreements > numOfVoters.mul(percentage).div(100)) {\r\n\t\t\tstatus = UpgraderStatus.Approved;\r\n\t\t}\r\n//TODO: testar caso negativo\r\n\t\treturn status;\r\n\t}\r\n\r\n\r\n\tfunction approveChangeIfPossible() external onlyOwner {\r\n\t\t\r\n\t\tif (status == UpgraderStatus.Approved) {\r\n\t\t\tGovernance governance = Governance (governanceAddr);\r\n\t\t\tgovernance.approveChangeWithDecisionContract(changeNumber);\r\n\t\t} \r\n\t\telse if (status == UpgraderStatus.Rejected) {\r\n\t\t\t\tGovernance governance = Governance (governanceAddr);\r\n\t\t\t\tgovernance.denyChangeWithDecisionContract(changeNumber);\r\n\t\t}\r\n\t}\r\n\r\n\t/**\r\n\t * Destruct itself.\r\n\t *\r\n\t * exception\tPermissionException\tmsg.sender is not the owner.\r\n\t */\r\n/*\tfunction done() external onlyOwner {\r\n\t\tselfdestruct(owner());\r\n\t}\r\n*/\r\n\r\n\r\n\tfunction addVoters (uint[] memory _votersId) public onlyInVotingState onlyOwner {\r\n\t\t_addVoters(_votersId);\r\n\t}\r\n\r\n\tfunction _addVoters (uint[] memory _votersId) internal {\r\n\t\tfor (uint256 i = 0; i < _votersId.length; i++) {\r\n\t\t\tif (!voterRegistered[_votersId[i]]) {\r\n\t\t\t\tvoterRegistered[_votersId[i]] = true;\r\n\t\t\t\tnumOfVoters++;\r\n\t\t\t}\r\n\t\t}\r\n\t}\r\n\r\n\r\n\tfunction getChangeNumber () public view returns(uint256) {\r\n\t\treturn changeNumber;\r\n\t}\r\n\r\n\tfunction setChangeNumber (uint256 number) public onlyGovernance returns(bool) {\r\n\t\tchangeNumber = number;\r\n\t\treturn true;\r\n\t}\r\n\r\n\t/**\r\n\t * Set percentage.\r\n\t * If percentage is over 100, it will be fixed automatically.\r\n\t *\r\n\t * @param\t_percentage\tvalue of this.percentage.\r\n\t *\r\n\t * exception\tPermissionException\tmsg.sender is not the owner.\r\n\t * \r\n\t */\r\n\tfunction setPercentage(uint256 _percentage) external onlyInVotingState onlyOwner {\r\n\t\t_setPercentage(_percentage);\r\n\t}\r\n\r\n\tfunction _setPercentage(uint256 _percentage) internal {\r\n\t\tpercentage = _percentage;\r\n\t\tif (percentage > 100) {\r\n\t\t\tpercentage = 100;\r\n\t\t}\r\n\t}\r\n\r\n}",
  "sourcePath": "D:\\Workspace\\bndestoken\\Back-Blockchain-Upgrade\\contracts\\GovernanceDecision.sol",
  "compiler": {
    "name": "solc",
    "version": "0.5.0+commit.1d4f565a.Emscripten.clang"
  },
  "schemaVersion": "3.0.5",
  "updatedAt": "2019-09-19T19:13:06.422Z",
  "devdoc": {
    "methods": {
      "getResolution()": {
        "return": "status of proposal.\r \r"
      },
      "isOwner()": {
        "return": "true if `msg.sender` is the owner of the contract."
      },
      "owner()": {
        "return": "the address of the owner."
      },
      "renounceOwnership()": {
        "details": "Allows the current owner to relinquish control of the contract."
      },
      "setPercentage(uint256)": {
        "params": {
          "_percentage": "value of this.percentage.\r \t * exception\tPermissionException\tmsg.sender is not the owner.\r \r"
        }
      },
      "transferOwnership(address)": {
        "details": "Allows the current owner to transfer control of the contract to a newOwner.",
        "params": {
          "newOwner": "The address to transfer ownership to."
        }
      },
      "vote(bool)": {
        "params": {
          "_choose": "if the voter agrees with the proposal.\r \t * exception\tPermissionException\tmsg.sender is not a voter.\r \r"
        }
      }
    }
  },
  "userdoc": {
    "methods": {
      "addVoters(uint256[])": {
        "notice": "Destruct itself.\r \t * exception\tPermissionException\tmsg.sender is not the owner.\r"
      },
      "getResolution()": {
        "notice": "Anyone can try to get resolution.\r If voters get consensus, upgrade the Handler contract.\r Otherwise, do nothing.\r \t * exception\tPreparingUpgraderException\tproposal has not been started.\r "
      },
      "renounceOwnership()": {
        "notice": "Renouncing to ownership will leave the contract without an owner. It will not be possible to call the functions with the `onlyOwner` modifier anymore."
      },
      "setPercentage(uint256)": {
        "notice": "Set percentage.\r If percentage is over 100, it will be fixed automatically.\r "
      },
      "startProposal()": {
        "notice": "Start voting.\r Upgrader must check if Data contract and 2 Handler contracts are ok.\r \t * exception\tRestartingException\tproposal has been already started.\r exception\tPermissionException\tmsg.sender is not the owner.\r"
      },
      "vote(bool)": {
        "notice": "Vote.\r "
      }
    },
    "notice": "The upgrader works in following steps:\r  1. Call startProposal() to start the voting process;\r  2. Call getResolution() before the expiration;\r  3. Upgrade succeed or proposal is expired.\r   * Function done() can be called at any time to let upgrader destruct itself.\r   * Function status() can be called at any time to show caller status of the upgrader.\r"
  }
}