{
  "contractName": "Governance",
  "abi": [
    {
      "constant": false,
      "inputs": [],
      "name": "unpause",
      "outputs": [],
      "payable": false,
      "stateMutability": "nonpayable",
      "type": "function"
    },
    {
      "constant": true,
      "inputs": [
        {
          "name": "account",
          "type": "address"
        }
      ],
      "name": "isPauser",
      "outputs": [
        {
          "name": "",
          "type": "bool"
        }
      ],
      "payable": false,
      "stateMutability": "view",
      "type": "function"
    },
    {
      "constant": true,
      "inputs": [],
      "name": "paused",
      "outputs": [
        {
          "name": "",
          "type": "bool"
        }
      ],
      "payable": false,
      "stateMutability": "view",
      "type": "function"
    },
    {
      "constant": false,
      "inputs": [],
      "name": "renouncePauser",
      "outputs": [],
      "payable": false,
      "stateMutability": "nonpayable",
      "type": "function"
    },
    {
      "constant": false,
      "inputs": [],
      "name": "renounceOwnership",
      "outputs": [],
      "payable": false,
      "stateMutability": "nonpayable",
      "type": "function"
    },
    {
      "constant": false,
      "inputs": [
        {
          "name": "account",
          "type": "address"
        }
      ],
      "name": "addPauser",
      "outputs": [],
      "payable": false,
      "stateMutability": "nonpayable",
      "type": "function"
    },
    {
      "constant": false,
      "inputs": [],
      "name": "pause",
      "outputs": [],
      "payable": false,
      "stateMutability": "nonpayable",
      "type": "function"
    },
    {
      "constant": true,
      "inputs": [],
      "name": "owner",
      "outputs": [
        {
          "name": "",
          "type": "address"
        }
      ],
      "payable": false,
      "stateMutability": "view",
      "type": "function"
    },
    {
      "constant": true,
      "inputs": [],
      "name": "isOwner",
      "outputs": [
        {
          "name": "",
          "type": "bool"
        }
      ],
      "payable": false,
      "stateMutability": "view",
      "type": "function"
    },
    {
      "constant": false,
      "inputs": [
        {
          "name": "newOwner",
          "type": "address"
        }
      ],
      "name": "transferOwnership",
      "outputs": [],
      "payable": false,
      "stateMutability": "nonpayable",
      "type": "function"
    },
    {
      "inputs": [
        {
          "name": "adminOfNewContractsAddr",
          "type": "address"
        },
        {
          "name": "_governanceMembersId",
          "type": "uint256[]"
        }
      ],
      "payable": false,
      "stateMutability": "nonpayable",
      "type": "constructor"
    },
    {
      "anonymous": false,
      "inputs": [
        {
          "indexed": false,
          "name": "changeNumber",
          "type": "uint256"
        },
        {
          "indexed": false,
          "name": "hashChangeMotivation",
          "type": "bytes32"
        },
        {
          "indexed": false,
          "name": "upgraderContractAddr",
          "type": "address"
        },
        {
          "indexed": false,
          "name": "decisionContractAddr",
          "type": "address"
        }
      ],
      "name": "NewChangeCreated",
      "type": "event"
    },
    {
      "anonymous": false,
      "inputs": [
        {
          "indexed": false,
          "name": "changeNumber",
          "type": "uint256"
        }
      ],
      "name": "ChangeApproved",
      "type": "event"
    },
    {
      "anonymous": false,
      "inputs": [
        {
          "indexed": false,
          "name": "changeNumber",
          "type": "uint256"
        }
      ],
      "name": "ChangeExecuted",
      "type": "event"
    },
    {
      "anonymous": false,
      "inputs": [
        {
          "indexed": false,
          "name": "changeNumber",
          "type": "uint256"
        }
      ],
      "name": "ChangeDisapproved",
      "type": "event"
    },
    {
      "anonymous": false,
      "inputs": [
        {
          "indexed": false,
          "name": "changeNumber",
          "type": "uint256"
        }
      ],
      "name": "ChangeCancelled",
      "type": "event"
    },
    {
      "anonymous": false,
      "inputs": [
        {
          "indexed": true,
          "name": "previousOwner",
          "type": "address"
        },
        {
          "indexed": true,
          "name": "newOwner",
          "type": "address"
        }
      ],
      "name": "OwnershipTransferred",
      "type": "event"
    },
    {
      "anonymous": false,
      "inputs": [
        {
          "indexed": false,
          "name": "account",
          "type": "address"
        }
      ],
      "name": "Paused",
      "type": "event"
    },
    {
      "anonymous": false,
      "inputs": [
        {
          "indexed": false,
          "name": "account",
          "type": "address"
        }
      ],
      "name": "Unpaused",
      "type": "event"
    },
    {
      "anonymous": false,
      "inputs": [
        {
          "indexed": true,
          "name": "account",
          "type": "address"
        }
      ],
      "name": "PauserAdded",
      "type": "event"
    },
    {
      "anonymous": false,
      "inputs": [
        {
          "indexed": true,
          "name": "account",
          "type": "address"
        }
      ],
      "name": "PauserRemoved",
      "type": "event"
    },
    {
      "constant": false,
      "inputs": [
        {
          "name": "idRegistryAddr",
          "type": "address"
        }
      ],
      "name": "setIdRegistryAddr",
      "outputs": [],
      "payable": false,
      "stateMutability": "nonpayable",
      "type": "function"
    },
    {
      "constant": true,
      "inputs": [],
      "name": "getUpgraderInfoAddr",
      "outputs": [
        {
          "name": "",
          "type": "address"
        }
      ],
      "payable": false,
      "stateMutability": "view",
      "type": "function"
    },
    {
      "constant": false,
      "inputs": [
        {
          "name": "hashChangeMotivation",
          "type": "bytes32"
        },
        {
          "name": "upgraderContractAddr",
          "type": "address"
        },
        {
          "name": "percentageDecision",
          "type": "uint256"
        }
      ],
      "name": "createNewChange",
      "outputs": [],
      "payable": false,
      "stateMutability": "nonpayable",
      "type": "function"
    },
    {
      "constant": false,
      "inputs": [
        {
          "name": "changeNumber",
          "type": "uint256"
        }
      ],
      "name": "makeResult",
      "outputs": [
        {
          "name": "",
          "type": "bool"
        }
      ],
      "payable": false,
      "stateMutability": "nonpayable",
      "type": "function"
    },
    {
      "constant": false,
      "inputs": [
        {
          "name": "changeNumber",
          "type": "uint256"
        }
      ],
      "name": "executeChange",
      "outputs": [],
      "payable": false,
      "stateMutability": "nonpayable",
      "type": "function"
    },
    {
      "constant": false,
      "inputs": [
        {
          "name": "changeNumber",
          "type": "uint256"
        }
      ],
      "name": "cancelChange",
      "outputs": [],
      "payable": false,
      "stateMutability": "nonpayable",
      "type": "function"
    },
    {
      "constant": true,
      "inputs": [
        {
          "name": "changeNumber",
          "type": "uint256"
        }
      ],
      "name": "getChange",
      "outputs": [
        {
          "name": "",
          "type": "bytes32"
        },
        {
          "name": "",
          "type": "address"
        },
        {
          "name": "",
          "type": "address"
        },
        {
          "name": "",
          "type": "uint8"
        }
      ],
      "payable": false,
      "stateMutability": "view",
      "type": "function"
    },
    {
      "constant": false,
      "inputs": [
        {
          "name": "newAddr",
          "type": "address"
        }
      ],
      "name": "setAdminAddr",
      "outputs": [],
      "payable": false,
      "stateMutability": "nonpayable",
      "type": "function"
    }
  ],
  "bytecode": "0x60806040523480156200001157600080fd5b506040516200429538038062004295833981018060405260408110156200003757600080fd5b810190808051906020019092919080516401000000008111156200005a57600080fd5b828101905060208101848111156200007157600080fd5b81518560208202830111640100000000821117156200008f57600080fd5b5050929190505050620000b13362000262640100000000026401000000009004565b6000600160006101000a81548160ff021916908315150217905550336001806101000a81548173ffffffffffffffffffffffffffffffffffffffff021916908373ffffffffffffffffffffffffffffffffffffffff1602179055506001809054906101000a900473ffffffffffffffffffffffffffffffffffffffff1673ffffffffffffffffffffffffffffffffffffffff16600073ffffffffffffffffffffffffffffffffffffffff167f8be0079c531659141344cd1fd0a4f28419497f9722a3daafe3b4186f6b6457e060405160405180910390a3620001a282620002cc640100000000026401000000009004565b81620001ad62000494565b808273ffffffffffffffffffffffffffffffffffffffff1673ffffffffffffffffffffffffffffffffffffffff168152602001915050604051809103906000f08015801562000200573d6000803e3d6000fd5b50600360006101000a81548173ffffffffffffffffffffffffffffffffffffffff021916908373ffffffffffffffffffffffffffffffffffffffff160217905550806004908051906020019062000259929190620004a5565b5050506200051f565b620002868160006200030f640100000000026200237d179091906401000000009004565b8073ffffffffffffffffffffffffffffffffffffffff167f6719d08c1888103bea251a4ed56406bd0c3e69723c8a1686e017e7bbe159b6f860405160405180910390a250565b620002e633620003d2640100000000026401000000009004565b1515620002f257600080fd5b6200030c8162000262640100000000026401000000009004565b50565b600073ffffffffffffffffffffffffffffffffffffffff168173ffffffffffffffffffffffffffffffffffffffff16141515156200034c57600080fd5b620003678282620003ff640100000000026401000000009004565b1515156200037457600080fd5b60018260000160008373ffffffffffffffffffffffffffffffffffffffff1673ffffffffffffffffffffffffffffffffffffffff16815260200190815260200160002060006101000a81548160ff0219169083151502179055505050565b6000620003f8826000620003ff6401000000000262002082179091906401000000009004565b9050919050565b60008073ffffffffffffffffffffffffffffffffffffffff168273ffffffffffffffffffffffffffffffffffffffff16141515156200043d57600080fd5b8260000160008373ffffffffffffffffffffffffffffffffffffffff1673ffffffffffffffffffffffffffffffffffffffff16815260200190815260200160002060009054906101000a900460ff16905092915050565b604051610b36806200375f83390190565b828054828255906000526020600020908101928215620004e4579160200282015b82811115620004e3578251825591602001919060010190620004c6565b5b509050620004f39190620004f7565b5090565b6200051c91905b8082111562000518576000816000905550600101620004fe565b5090565b90565b613230806200052f6000396000f3fe6080604052600436106200010f576000357c0100000000000000000000000000000000000000000000000000000000900463ffffffff168063196fe7b114620001145780633f4ba83a146200015357806341a28df6146200016d57806346fbf68e14620001c257806354a8bd07146200022f5780635b57a2ed14620002fe5780635c975abb146200033d5780636ef8d66d146200036f578063715018a6146200038957806382dc1ec414620003a35780638456cb5914620003f85780638da5cb5b14620004125780638f32d59b146200046c578063a1a4ad58146200049e578063a5026b8314620004f8578063b7087288146200054f578063d9bd6a8e14620005a4578063f2fde38b146200060d575b600080fd5b3480156200012157600080fd5b5062000151600480360360208110156200013a57600080fd5b810190808035906020019092919050505062000662565b005b3480156200016057600080fd5b506200016b62000bd7565b005b3480156200017a57600080fd5b50620001c0600480360360208110156200019357600080fd5b81019080803573ffffffffffffffffffffffffffffffffffffffff16906020019092919050505062000c8a565b005b348015620001cf57600080fd5b506200021560048036036020811015620001e857600080fd5b81019080803573ffffffffffffffffffffffffffffffffffffffff16906020019092919050505062000ec1565b604051808215151515815260200191505060405180910390f35b3480156200023c57600080fd5b506200026c600480360360208110156200025557600080fd5b810190808035906020019092919050505062000ee0565b604051808581526020018473ffffffffffffffffffffffffffffffffffffffff1673ffffffffffffffffffffffffffffffffffffffff1681526020018373ffffffffffffffffffffffffffffffffffffffff1673ffffffffffffffffffffffffffffffffffffffff168152602001826004811115620002e757fe5b60ff16815260200194505050505060405180910390f35b3480156200030b57600080fd5b506200033b600480360360208110156200032457600080fd5b810190808035906020019092919050505062001025565b005b3480156200034a57600080fd5b50620003556200133c565b604051808215151515815260200191505060405180910390f35b3480156200037c57600080fd5b506200038762001353565b005b3480156200039657600080fd5b50620003a162001360565b005b348015620003b057600080fd5b50620003f660048036036020811015620003c957600080fd5b81019080803573ffffffffffffffffffffffffffffffffffffffff16906020019092919050505062001435565b005b3480156200040557600080fd5b50620004106200145a565b005b3480156200041f57600080fd5b506200042a6200150d565b604051808273ffffffffffffffffffffffffffffffffffffffff1673ffffffffffffffffffffffffffffffffffffffff16815260200191505060405180910390f35b3480156200047957600080fd5b506200048462001536565b604051808215151515815260200191505060405180910390f35b348015620004ab57600080fd5b50620004b66200158d565b604051808273ffffffffffffffffffffffffffffffffffffffff1673ffffffffffffffffffffffffffffffffffffffff16815260200191505060405180910390f35b3480156200050557600080fd5b5062000535600480360360208110156200051e57600080fd5b810190808035906020019092919050505062001656565b604051808215151515815260200191505060405180910390f35b3480156200055c57600080fd5b50620005a2600480360360208110156200057557600080fd5b81019080803573ffffffffffffffffffffffffffffffffffffffff16906020019092919050505062001a42565b005b348015620005b157600080fd5b506200060b60048036036060811015620005ca57600080fd5b8101908080359060200190929190803573ffffffffffffffffffffffffffffffffffffffff1690602001909291908035906020019092919050505062001be3565b005b3480156200061a57600080fd5b5062000660600480360360208110156200063357600080fd5b81019080803573ffffffffffffffffffffffffffffffffffffffff1690602001909291905050506200205e565b005b60028054905081101515620006df576040517f08c379a00000000000000000000000000000000000000000000000000000000081526004018080602001828103825260158152602001807f496e76616c6964206368616e6765206e756d626572000000000000000000000081525060200191505060405180910390fd5b600360009054906101000a900473ffffffffffffffffffffffffffffffffffffffff1673ffffffffffffffffffffffffffffffffffffffff1663b6db75a06040518163ffffffff167c010000000000000000000000000000000000000000000000000000000002815260040160206040518083038186803b1580156200076457600080fd5b505afa15801562000779573d6000803e3d6000fd5b505050506040513d60208110156200079057600080fd5b810190808051906020019092919050505015156200083c576040517f08c379a000000000000000000000000000000000000000000000000000000000815260040180806020018281038252603b8152602001807f41206d7564616ec3a7612073c3b320706f64652073657220657865637574616481526020017f612070656c6f2061646d696e20646120676f7665726e616ec3a761000000000081525060400191505060405180910390fd5b6200084662002431565b6002828154811015156200085657fe5b906000526020600020906003020160806040519081016040529081600082015481526020016001820160009054906101000a900473ffffffffffffffffffffffffffffffffffffffff1673ffffffffffffffffffffffffffffffffffffffff1673ffffffffffffffffffffffffffffffffffffffff1681526020016002820160009054906101000a900473ffffffffffffffffffffffffffffffffffffffff1673ffffffffffffffffffffffffffffffffffffffff1673ffffffffffffffffffffffffffffffffffffffff1681526020016002820160149054906101000a900460ff1660048111156200094557fe5b60048111156200095157fe5b815250509050600160048111156200096557fe5b816060015160048111156200097657fe5b14151562000a12576040517f08c379a000000000000000000000000000000000000000000000000000000000815260040180806020018281038252602b8152602001807f41206d7564616ec3a7612070726563697361206573746172206e6f206573746181526020017f646f206170726f7661646100000000000000000000000000000000000000000081525060400191505060405180910390fd5b600081602001519050600360009054906101000a900473ffffffffffffffffffffffffffffffffffffffff1673ffffffffffffffffffffffffffffffffffffffff166311a1c423826040518263ffffffff167c0100000000000000000000000000000000000000000000000000000000028152600401808273ffffffffffffffffffffffffffffffffffffffff1673ffffffffffffffffffffffffffffffffffffffff168152602001915050600060405180830381600087803b15801562000ad957600080fd5b505af115801562000aee573d6000803e3d6000fd5b5050505060008190508073ffffffffffffffffffffffffffffffffffffffff1663d55ec6976040518163ffffffff167c0100000000000000000000000000000000000000000000000000000000028152600401600060405180830381600087803b15801562000b5c57600080fd5b505af115801562000b71573d6000803e3d6000fd5b5050505060048360600190600481111562000b8857fe5b9081600481111562000b9657fe5b815250507f917059c1f4e69f15a941c78efb433b9957e94aceae99b068787c32e18c4a9b8d846040518082815260200191505060405180910390a150505050565b62000be23362000ec1565b151562000bee57600080fd5b600160009054906101000a900460ff16151562000c0a57600080fd5b6000600160006101000a81548160ff0219169083151502179055507f5db9ee0a495bf2e6ff9c91a7834c1ba4fdd244a5e8aa4e537bd38aeae4b073aa33604051808273ffffffffffffffffffffffffffffffffffffffff1673ffffffffffffffffffffffffffffffffffffffff16815260200191505060405180910390a1565b600360009054906101000a900473ffffffffffffffffffffffffffffffffffffffff1673ffffffffffffffffffffffffffffffffffffffff166396a0604a6040518163ffffffff167c010000000000000000000000000000000000000000000000000000000002815260040160206040518083038186803b15801562000d0f57600080fd5b505afa15801562000d24573d6000803e3d6000fd5b505050506040513d602081101562000d3b57600080fd5b8101908080519060200190929190505050151562000de7576040517f08c379a000000000000000000000000000000000000000000000000000000000815260040180806020018281038252602f8152602001807f546869732066756e6374696f6e2063616e206f6e6c792062652065786563757481526020017f656420627920557067726164657273000000000000000000000000000000000081525060400191505060405180910390fd5b600360009054906101000a900473ffffffffffffffffffffffffffffffffffffffff1673ffffffffffffffffffffffffffffffffffffffff166341a28df6826040518263ffffffff167c0100000000000000000000000000000000000000000000000000000000028152600401808273ffffffffffffffffffffffffffffffffffffffff1673ffffffffffffffffffffffffffffffffffffffff168152602001915050600060405180830381600087803b15801562000ea557600080fd5b505af115801562000eba573d6000803e3d6000fd5b5050505050565b600062000ed98260006200208290919063ffffffff16565b9050919050565b60008060008062000ef062002431565b60028681548110151562000f0057fe5b906000526020600020906003020160806040519081016040529081600082015481526020016001820160009054906101000a900473ffffffffffffffffffffffffffffffffffffffff1673ffffffffffffffffffffffffffffffffffffffff1673ffffffffffffffffffffffffffffffffffffffff1681526020016002820160009054906101000a900473ffffffffffffffffffffffffffffffffffffffff1673ffffffffffffffffffffffffffffffffffffffff1673ffffffffffffffffffffffffffffffffffffffff1681526020016002820160149054906101000a900460ff16600481111562000fef57fe5b600481111562000ffb57fe5b81525050905080600001518160200151826040015183606001519450945094509450509193509193565b6200102f62001536565b15156200103b57600080fd5b60028054905081101515620010b8576040517f08c379a00000000000000000000000000000000000000000000000000000000081526004018080602001828103825260158152602001807f496e76616c6964206368616e6765206e756d626572000000000000000000000081525060200191505060405180910390fd5b620010c262002431565b600282815481101515620010d257fe5b906000526020600020906003020160806040519081016040529081600082015481526020016001820160009054906101000a900473ffffffffffffffffffffffffffffffffffffffff1673ffffffffffffffffffffffffffffffffffffffff1673ffffffffffffffffffffffffffffffffffffffff1681526020016002820160009054906101000a900473ffffffffffffffffffffffffffffffffffffffff1673ffffffffffffffffffffffffffffffffffffffff1673ffffffffffffffffffffffffffffffffffffffff1681526020016002820160149054906101000a900460ff166004811115620011c157fe5b6004811115620011cd57fe5b81525050905060006004811115620011e157fe5b81606001516004811115620011f257fe5b14806200121b5750600160048111156200120857fe5b816060015160048111156200121957fe5b145b1515620012dc576040517f08c379a00000000000000000000000000000000000000000000000000000000081526004018080602001828103825260508152602001807f41206d7564616ec3a7612070726563697361206573746172206e6f206573746181526020017f646f20646520657370657261206461206465636973c3a36f206461206d75646181526020017f6ec3a761206f75206170726f766164610000000000000000000000000000000081525060600191505060405180910390fd5b600381606001906004811115620012ef57fe5b90816004811115620012fd57fe5b815250507f5edd520c0103960fbe1e1fc55ae80c123b61704fa2429473cef253e3c90ae27e826040518082815260200191505060405180910390a15050565b6000600160009054906101000a900460ff16905090565b6200135e3362002117565b565b6200136a62001536565b15156200137657600080fd5b600073ffffffffffffffffffffffffffffffffffffffff166001809054906101000a900473ffffffffffffffffffffffffffffffffffffffff1673ffffffffffffffffffffffffffffffffffffffff167f8be0079c531659141344cd1fd0a4f28419497f9722a3daafe3b4186f6b6457e060405160405180910390a360006001806101000a81548173ffffffffffffffffffffffffffffffffffffffff021916908373ffffffffffffffffffffffffffffffffffffffff160217905550565b620014403362000ec1565b15156200144c57600080fd5b620014578162002173565b50565b620014653362000ec1565b15156200147157600080fd5b600160009054906101000a900460ff161515156200148e57600080fd5b60018060006101000a81548160ff0219169083151502179055507f62e78cea01bee320cd4e420270b5ea74000d11b0c9f74754ebdbfc544b05a25833604051808273ffffffffffffffffffffffffffffffffffffffff1673ffffffffffffffffffffffffffffffffffffffff16815260200191505060405180910390a1565b60006001809054906101000a900473ffffffffffffffffffffffffffffffffffffffff16905090565b60006001809054906101000a900473ffffffffffffffffffffffffffffffffffffffff1673ffffffffffffffffffffffffffffffffffffffff163373ffffffffffffffffffffffffffffffffffffffff1614905090565b6000600360009054906101000a900473ffffffffffffffffffffffffffffffffffffffff1673ffffffffffffffffffffffffffffffffffffffff1663eff2dcc66040518163ffffffff167c010000000000000000000000000000000000000000000000000000000002815260040160206040518083038186803b1580156200161457600080fd5b505afa15801562001629573d6000803e3d6000fd5b505050506040513d60208110156200164057600080fd5b8101908080519060200190929190505050905090565b60006200166262001536565b15156200166e57600080fd5b60028054905082101515620016eb576040517f08c379a00000000000000000000000000000000000000000000000000000000081526004018080602001828103825260158152602001807f496e76616c6964206368616e6765206e756d626572000000000000000000000081525060200191505060405180910390fd5b620016f562002431565b6002838154811015156200170557fe5b906000526020600020906003020160806040519081016040529081600082015481526020016001820160009054906101000a900473ffffffffffffffffffffffffffffffffffffffff1673ffffffffffffffffffffffffffffffffffffffff1673ffffffffffffffffffffffffffffffffffffffff1681526020016002820160009054906101000a900473ffffffffffffffffffffffffffffffffffffffff1673ffffffffffffffffffffffffffffffffffffffff1673ffffffffffffffffffffffffffffffffffffffff1681526020016002820160149054906101000a900460ff166004811115620017f457fe5b60048111156200180057fe5b815250509050600060048111156200181457fe5b816060015160048111156200182557fe5b141515620018c1576040517f08c379a000000000000000000000000000000000000000000000000000000000815260040180806020018281038252602a8152602001807f41206d7564616ec3a7612070726563697361206573746172206e6f206573746181526020017f646f2057414954494e470000000000000000000000000000000000000000000081525060400191505060405180910390fd5b6000816040015190508073ffffffffffffffffffffffffffffffffffffffff1663e14d58d96040518163ffffffff167c0100000000000000000000000000000000000000000000000000000000028152600401602060405180830381600087803b1580156200192f57600080fd5b505af115801562001944573d6000803e3d6000fd5b505050506040513d60208110156200195b57600080fd5b810190808051906020019092919050505015620019da576001826060019060048111156200198557fe5b908160048111156200199357fe5b815250507ff6c7f9b41b46dcd0ed5e8a9b5ea016cc15493d731db259a2efb7dd055af86684846040518082815260200191505060405180910390a160019250505062001a3d565b600282606001906004811115620019ed57fe5b90816004811115620019fb57fe5b815250507ff1a8ffd21fe9ef7be34e0f4bf577d3bf31ce3c19c68d2c046d22275cb8b715f4846040518082815260200191505060405180910390a16000925050505b919050565b600360009054906101000a900473ffffffffffffffffffffffffffffffffffffffff1673ffffffffffffffffffffffffffffffffffffffff166396a0604a6040518163ffffffff167c010000000000000000000000000000000000000000000000000000000002815260040160206040518083038186803b15801562001ac757600080fd5b505afa15801562001adc573d6000803e3d6000fd5b505050506040513d602081101562001af357600080fd5b8101908080519060200190929190505050151562001b9f576040517f08c379a000000000000000000000000000000000000000000000000000000000815260040180806020018281038252602f8152602001807f546869732066756e6374696f6e2063616e206f6e6c792062652065786563757481526020017f656420627920557067726164657273000000000000000000000000000000000081525060400191505060405180910390fd5b80600560006101000a81548173ffffffffffffffffffffffffffffffffffffffff021916908373ffffffffffffffffffffffffffffffffffffffff16021790555050565b62001bed62001536565b151562001bf957600080fd5b6000600280549050905062001c0d62002431565b60008314151562001e01576000600484600560009054906101000a900473ffffffffffffffffffffffffffffffffffffffff168562001c4b62002495565b80806020018581526020018473ffffffffffffffffffffffffffffffffffffffff1673ffffffffffffffffffffffffffffffffffffffff168152602001838152602001828103825286818154815260200191508054801562001ccd57602002820191906000526020600020905b81548152602001906001019080831162001cb8575b505095505050505050604051809103906000f08015801562001cf3573d6000803e3d6000fd5b5090506080604051908101604052808781526020018673ffffffffffffffffffffffffffffffffffffffff1681526020018273ffffffffffffffffffffffffffffffffffffffff1681526020016000600481111562001d4e57fe5b81525091507f6cf14efcf5b851aa9027077db35ddf65e974cb66ab3e50ffcd08b3721a7e455b83878784604051808581526020018481526020018373ffffffffffffffffffffffffffffffffffffffff1673ffffffffffffffffffffffffffffffffffffffff1681526020018273ffffffffffffffffffffffffffffffffffffffff1673ffffffffffffffffffffffffffffffffffffffff16815260200194505050505060405180910390a15062001f64565b6080604051908101604052808681526020018573ffffffffffffffffffffffffffffffffffffffff168152602001600073ffffffffffffffffffffffffffffffffffffffff1681526020016001600481111562001e5a57fe5b81525090507f6cf14efcf5b851aa9027077db35ddf65e974cb66ab3e50ffcd08b3721a7e455b8286866000604051808581526020018481526020018373ffffffffffffffffffffffffffffffffffffffff1673ffffffffffffffffffffffffffffffffffffffff1681526020018273ffffffffffffffffffffffffffffffffffffffff1673ffffffffffffffffffffffffffffffffffffffff16815260200194505050505060405180910390a160018160600190600481111562001f1a57fe5b9081600481111562001f2857fe5b815250507ff6c7f9b41b46dcd0ed5e8a9b5ea016cc15493d731db259a2efb7dd055af86684826040518082815260200191505060405180910390a15b600281908060018154018082558091505090600182039060005260206000209060030201600090919290919091506000820151816000015560208201518160010160006101000a81548173ffffffffffffffffffffffffffffffffffffffff021916908373ffffffffffffffffffffffffffffffffffffffff16021790555060408201518160020160006101000a81548173ffffffffffffffffffffffffffffffffffffffff021916908373ffffffffffffffffffffffffffffffffffffffff16021790555060608201518160020160146101000a81548160ff021916908360048111156200204f57fe5b02179055505050505050505050565b6200206862001536565b15156200207457600080fd5b6200207f81620021cf565b50565b60008073ffffffffffffffffffffffffffffffffffffffff168273ffffffffffffffffffffffffffffffffffffffff1614151515620020c057600080fd5b8260000160008373ffffffffffffffffffffffffffffffffffffffff1673ffffffffffffffffffffffffffffffffffffffff16815260200190815260200160002060009054906101000a900460ff16905092915050565b6200212d816000620022ca90919063ffffffff16565b8073ffffffffffffffffffffffffffffffffffffffff167fcd265ebaf09df2871cc7bd4133404a235ba12eff2041bb89d9c714a2621c7c7e60405160405180910390a250565b620021898160006200237d90919063ffffffff16565b8073ffffffffffffffffffffffffffffffffffffffff167f6719d08c1888103bea251a4ed56406bd0c3e69723c8a1686e017e7bbe159b6f860405160405180910390a250565b600073ffffffffffffffffffffffffffffffffffffffff168173ffffffffffffffffffffffffffffffffffffffff16141515156200220c57600080fd5b8073ffffffffffffffffffffffffffffffffffffffff166001809054906101000a900473ffffffffffffffffffffffffffffffffffffffff1673ffffffffffffffffffffffffffffffffffffffff167f8be0079c531659141344cd1fd0a4f28419497f9722a3daafe3b4186f6b6457e060405160405180910390a3806001806101000a81548173ffffffffffffffffffffffffffffffffffffffff021916908373ffffffffffffffffffffffffffffffffffffffff16021790555050565b600073ffffffffffffffffffffffffffffffffffffffff168173ffffffffffffffffffffffffffffffffffffffff16141515156200230757600080fd5b62002313828262002082565b15156200231f57600080fd5b60008260000160008373ffffffffffffffffffffffffffffffffffffffff1673ffffffffffffffffffffffffffffffffffffffff16815260200190815260200160002060006101000a81548160ff0219169083151502179055505050565b600073ffffffffffffffffffffffffffffffffffffffff168173ffffffffffffffffffffffffffffffffffffffff1614151515620023ba57600080fd5b620023c6828262002082565b151515620023d357600080fd5b60018260000160008373ffffffffffffffffffffffffffffffffffffffff1673ffffffffffffffffffffffffffffffffffffffff16815260200190815260200160002060006101000a81548160ff0219169083151502179055505050565b60806040519081016040528060008019168152602001600073ffffffffffffffffffffffffffffffffffffffff168152602001600073ffffffffffffffffffffffffffffffffffffffff168152602001600060048111156200248f57fe5b81525090565b604051610d5e80620024a78339019056fe60806040526000600655600060075534801561001a57600080fd5b50604051610d5e380380610d5e8339810180604052608081101561003d57600080fd5b81019080805164010000000081111561005557600080fd5b8281019050602081018481111561006b57600080fd5b815185602082028301116401000000008211171561008857600080fd5b5050929190602001805190602001909291908051906020019092919080519060200190929190505050336000806101000a81548173ffffffffffffffffffffffffffffffffffffffff021916908373ffffffffffffffffffffffffffffffffffffffff1602179055506000809054906101000a900473ffffffffffffffffffffffffffffffffffffffff1673ffffffffffffffffffffffffffffffffffffffff16600073ffffffffffffffffffffffffffffffffffffffff167f8be0079c531659141344cd1fd0a4f28419497f9722a3daafe3b4186f6b6457e060405160405180910390a361018584610212640100000000026401000000009004565b61019d836102c6640100000000026401000000009004565b81600260006101000a81548173ffffffffffffffffffffffffffffffffffffffff021916908373ffffffffffffffffffffffffffffffffffffffff160217905550806001819055506000600260146101000a81548160ff0219169083600381111561020457fe5b0217905550505050506102e4565b60008090505b81518110156102c25760056000838381518110151561023357fe5b90602001906020020151815260200190815260200160002060009054906101000a900460ff1615156102b557600160056000848481518110151561027357fe5b90602001906020020151815260200190815260200160002060006101000a81548160ff0219169083151502179055506006600081548092919060010191905055505b8080600101915050610218565b5050565b80600381905550606460035411156102e15760646003819055505b50565b610a6b806102f36000396000f3fe6080604052600436106100a4576000357c0100000000000000000000000000000000000000000000000000000000900463ffffffff168063200d2ed2146100a95780634b9f5c98146100e2578063715018a61461011f5780638da5cb5b146101365780638f32d59b1461018d578063990008ca146101bc578063c967aa5e146101e7578063e14d58d914610212578063f2fde38b14610241578063fd4a77f114610292575b600080fd5b3480156100b557600080fd5b506100be6102e5565b604051808260038111156100ce57fe5b60ff16815260200191505060405180910390f35b3480156100ee57600080fd5b5061011d6004803603602081101561010557600080fd5b810190808035151590602001909291905050506102f8565b005b34801561012b57600080fd5b506101346105da565b005b34801561014257600080fd5b5061014b6106ac565b604051808273ffffffffffffffffffffffffffffffffffffffff1673ffffffffffffffffffffffffffffffffffffffff16815260200191505060405180910390f35b34801561019957600080fd5b506101a26106d5565b604051808215151515815260200191505060405180910390f35b3480156101c857600080fd5b506101d161072c565b6040518082815260200191505060405180910390f35b3480156101f357600080fd5b506101fc610736565b6040518082815260200191505060405180910390f35b34801561021e57600080fd5b5061022761073c565b604051808215151515815260200191505060405180910390f35b34801561024d57600080fd5b506102906004803603602081101561026457600080fd5b81019080803573ffffffffffffffffffffffffffffffffffffffff16906020019092919050505061089e565b005b34801561029e57600080fd5b506102cb600480360360208110156102b557600080fd5b81019080803590602001909291905050506108bd565b604051808215151515815260200191505060405180910390f35b600260149054906101000a900460ff1681565b6000600381111561030557fe5b600260149054906101000a900460ff16600381111561032057fe5b1415156103bb576040517f08c379a00000000000000000000000000000000000000000000000000000000081526004018080602001828103825260218152602001807f4465636973696f6e206e6f7420696e2074686520766f74696e6720737461746581526020017f210000000000000000000000000000000000000000000000000000000000000081525060400191505060405180910390fd5b6000600260009054906101000a900473ffffffffffffffffffffffffffffffffffffffff1673ffffffffffffffffffffffffffffffffffffffff166365f68c89336040518263ffffffff167c0100000000000000000000000000000000000000000000000000000000028152600401808273ffffffffffffffffffffffffffffffffffffffff1673ffffffffffffffffffffffffffffffffffffffff168152602001915050602060405180830381600087803b15801561047a57600080fd5b505af115801561048e573d6000803e3d6000fd5b505050506040513d60208110156104a457600080fd5b810190808051906020019092919050505090506005600082815260200190815260200160002060009054906101000a900460ff16151561054c576040517f08c379a000000000000000000000000000000000000000000000000000000000815260040180806020018281038252601b8152602001807f446f206e6f74206861766520746865207065726d697373696f6e21000000000081525060200191505060405180910390fd5b8115156004600083815260200190815260200160002060009054906101000a900460ff1615151415156105d6578115610596576007600081548092919060010191905055506105aa565b600760008154809291906001900391905055505b816004600083815260200190815260200160002060006101000a81548160ff0219169083151502179055505b5050565b6105e26106d5565b15156105ed57600080fd5b600073ffffffffffffffffffffffffffffffffffffffff166000809054906101000a900473ffffffffffffffffffffffffffffffffffffffff1673ffffffffffffffffffffffffffffffffffffffff167f8be0079c531659141344cd1fd0a4f28419497f9722a3daafe3b4186f6b6457e060405160405180910390a360008060006101000a81548173ffffffffffffffffffffffffffffffffffffffff021916908373ffffffffffffffffffffffffffffffffffffffff160217905550565b60008060009054906101000a900473ffffffffffffffffffffffffffffffffffffffff16905090565b60008060009054906101000a900473ffffffffffffffffffffffffffffffffffffffff1673ffffffffffffffffffffffffffffffffffffffff163373ffffffffffffffffffffffffffffffffffffffff1614905090565b6000600154905090565b60015481565b600080600381111561074a57fe5b600260149054906101000a900460ff16600381111561076557fe5b141515610800576040517f08c379a00000000000000000000000000000000000000000000000000000000081526004018080602001828103825260218152602001807f4465636973696f6e206e6f7420696e2074686520766f74696e6720737461746581526020017f210000000000000000000000000000000000000000000000000000000000000081525060400191505060405180910390fd5b6108086106d5565b151561081357600080fd5b61083d606461082f6003546006546108dd90919063ffffffff16565b61091b90919063ffffffff16565b6007541115610873576001600260146101000a81548160ff0219169083600381111561086557fe5b02179055506001905061089b565b60028060146101000a81548160ff0219169083600381111561089157fe5b0217905550600090505b90565b6108a66106d5565b15156108b157600080fd5b6108ba81610945565b50565b60046020528060005260406000206000915054906101000a900460ff1681565b6000808314156108f05760009050610915565b6000828402905082848281151561090357fe5b0414151561091057600080fd5b809150505b92915050565b6000808211151561092b57600080fd5b6000828481151561093857fe5b0490508091505092915050565b600073ffffffffffffffffffffffffffffffffffffffff168173ffffffffffffffffffffffffffffffffffffffff161415151561098157600080fd5b8073ffffffffffffffffffffffffffffffffffffffff166000809054906101000a900473ffffffffffffffffffffffffffffffffffffffff1673ffffffffffffffffffffffffffffffffffffffff167f8be0079c531659141344cd1fd0a4f28419497f9722a3daafe3b4186f6b6457e060405160405180910390a3806000806101000a81548173ffffffffffffffffffffffffffffffffffffffff021916908373ffffffffffffffffffffffffffffffffffffffff1602179055505056fea165627a7a7230582073b1221ae73625777e81ca71ab1cc63fcf6abe15c66a2767718290753f1b68fa0029a165627a7a723058203117021638d52fd265f74c9c2738145cecf2ced59ae4872ebbd08a7194a90b920029608060405234801561001057600080fd5b50604051602080610b368339810180604052602081101561003057600080fd5b8101908080519060200190929190505050336000806101000a81548173ffffffffffffffffffffffffffffffffffffffff021916908373ffffffffffffffffffffffffffffffffffffffff1602179055506000809054906101000a900473ffffffffffffffffffffffffffffffffffffffff1673ffffffffffffffffffffffffffffffffffffffff16600073ffffffffffffffffffffffffffffffffffffffff167f8be0079c531659141344cd1fd0a4f28419497f9722a3daafe3b4186f6b6457e060405160405180910390a38073ffffffffffffffffffffffffffffffffffffffff16600260009054906101000a900473ffffffffffffffffffffffffffffffffffffffff1673ffffffffffffffffffffffffffffffffffffffff167f7e644d79422f17c01e4894b5f4f588d331ebfa28653d42ae832dc59e38c9798f60405160405180910390a380600260006101000a81548173ffffffffffffffffffffffffffffffffffffffff021916908373ffffffffffffffffffffffffffffffffffffffff1602179055505061096c806101ca6000396000f3fe6080604052600436106100af576000357c0100000000000000000000000000000000000000000000000000000000900463ffffffff16806306a87ed4146100b457806311a1c423146100cb57806341a28df61461011c5780636d645b441461016d578063715018a6146101c45780638da5cb5b146101db5780638f32d59b1461023257806396a0604a14610261578063b6db75a014610290578063eff2dcc6146102bf578063f2fde38b14610316575b600080fd5b3480156100c057600080fd5b506100c9610367565b005b3480156100d757600080fd5b5061011a600480360360208110156100ee57600080fd5b81019080803573ffffffffffffffffffffffffffffffffffffffff169060200190929190505050610386565b005b34801561012857600080fd5b5061016b6004803603602081101561013f57600080fd5b81019080803573ffffffffffffffffffffffffffffffffffffffff169060200190929190505050610459565b005b34801561017957600080fd5b506101826105d1565b604051808273ffffffffffffffffffffffffffffffffffffffff1673ffffffffffffffffffffffffffffffffffffffff16815260200191505060405180910390f35b3480156101d057600080fd5b506101d96105fb565b005b3480156101e757600080fd5b506101f06106cd565b604051808273ffffffffffffffffffffffffffffffffffffffff1673ffffffffffffffffffffffffffffffffffffffff16815260200191505060405180910390f35b34801561023e57600080fd5b506102476106f6565b604051808215151515815260200191505060405180910390f35b34801561026d57600080fd5b5061027661074d565b604051808215151515815260200191505060405180910390f35b34801561029c57600080fd5b506102a56107a5565b604051808215151515815260200191505060405180910390f35b3480156102cb57600080fd5b506102d46107fd565b604051808273ffffffffffffffffffffffffffffffffffffffff1673ffffffffffffffffffffffffffffffffffffffff16815260200191505060405180910390f35b34801561032257600080fd5b506103656004803603602081101561033957600080fd5b81019080803573ffffffffffffffffffffffffffffffffffffffff169060200190929190505050610827565b005b61036f6106f6565b151561037a57600080fd5b6103846000610386565b565b61038e6106f6565b151561039957600080fd5b8073ffffffffffffffffffffffffffffffffffffffff16600160009054906101000a900473ffffffffffffffffffffffffffffffffffffffff1673ffffffffffffffffffffffffffffffffffffffff167f9cc0fca95bdc66b57e27ff56ce70619d6c76e891759b10768345411032913ecf60405160405180910390a380600160006101000a81548173ffffffffffffffffffffffffffffffffffffffff021916908373ffffffffffffffffffffffffffffffffffffffff16021790555050565b6104616106f6565b151561046c57600080fd5b600073ffffffffffffffffffffffffffffffffffffffff168173ffffffffffffffffffffffffffffffffffffffff1614151515610511576040517f08c379a000000000000000000000000000000000000000000000000000000000815260040180806020018281038252601e8152602001807f4e657741646472206973206e6f7420612076616c69642061646472657373000081525060200191505060405180910390fd5b8073ffffffffffffffffffffffffffffffffffffffff16600260009054906101000a900473ffffffffffffffffffffffffffffffffffffffff1673ffffffffffffffffffffffffffffffffffffffff167f7e644d79422f17c01e4894b5f4f588d331ebfa28653d42ae832dc59e38c9798f60405160405180910390a380600260006101000a81548173ffffffffffffffffffffffffffffffffffffffff021916908373ffffffffffffffffffffffffffffffffffffffff16021790555050565b6000600260009054906101000a900473ffffffffffffffffffffffffffffffffffffffff16905090565b6106036106f6565b151561060e57600080fd5b600073ffffffffffffffffffffffffffffffffffffffff166000809054906101000a900473ffffffffffffffffffffffffffffffffffffffff1673ffffffffffffffffffffffffffffffffffffffff167f8be0079c531659141344cd1fd0a4f28419497f9722a3daafe3b4186f6b6457e060405160405180910390a360008060006101000a81548173ffffffffffffffffffffffffffffffffffffffff021916908373ffffffffffffffffffffffffffffffffffffffff160217905550565b60008060009054906101000a900473ffffffffffffffffffffffffffffffffffffffff16905090565b60008060009054906101000a900473ffffffffffffffffffffffffffffffffffffffff1673ffffffffffffffffffffffffffffffffffffffff163373ffffffffffffffffffffffffffffffffffffffff1614905090565b6000600160009054906101000a900473ffffffffffffffffffffffffffffffffffffffff1673ffffffffffffffffffffffffffffffffffffffff163373ffffffffffffffffffffffffffffffffffffffff1614905090565b6000600260009054906101000a900473ffffffffffffffffffffffffffffffffffffffff1673ffffffffffffffffffffffffffffffffffffffff163373ffffffffffffffffffffffffffffffffffffffff1614905090565b6000600160009054906101000a900473ffffffffffffffffffffffffffffffffffffffff16905090565b61082f6106f6565b151561083a57600080fd5b61084381610846565b50565b600073ffffffffffffffffffffffffffffffffffffffff168173ffffffffffffffffffffffffffffffffffffffff161415151561088257600080fd5b8073ffffffffffffffffffffffffffffffffffffffff166000809054906101000a900473ffffffffffffffffffffffffffffffffffffffff1673ffffffffffffffffffffffffffffffffffffffff167f8be0079c531659141344cd1fd0a4f28419497f9722a3daafe3b4186f6b6457e060405160405180910390a3806000806101000a81548173ffffffffffffffffffffffffffffffffffffffff021916908373ffffffffffffffffffffffffffffffffffffffff1602179055505056fea165627a7a723058207321813a8892fb66d9f38b1e90160febf263a4e733223214775dab31852dded50029",
  "source": "pragma solidity ^0.5.0;\r\n\r\nimport \"openzeppelin-solidity/contracts/ownership/Ownable.sol\";\r\nimport \"openzeppelin-solidity/contracts/lifecycle/Pausable.sol\";\r\n\r\nimport \"./GovernanceDecision.sol\";\r\nimport \"./UpgraderInfo.sol\";\r\nimport \"./Upgrader.sol\";\r\n\r\n\r\ncontract Governance is Pausable, Ownable() {\r\n\r\n    enum ChangeState { WAITING, APPROVED, DISAPPROVED, CANCELED, FINISHED }\r\n\r\n    struct ChangeDataStructure {\r\n        \r\n        //Hash of the change motivation\r\n        bytes32 hashChangeMotivation;\r\n        \r\n        //Address of upgrader contract\r\n        address upgraderContractAddr;\r\n\r\n        //Address of decision contract (if necessary)\r\n        address decisionContractAddr;\r\n\r\n        ChangeState changeState;\r\n    }\r\n\r\n    ChangeDataStructure[] private governingChanges;\r\n\r\n    UpgraderInfo private upgraderInfo;\r\n\r\n    uint[] governanceMembersId;\r\n    IdRegistry private idRegistry;\r\n\r\n    modifier onlyAllowedUpgrader() {\r\n        require(upgraderInfo.isAllowedUpgrader(), \"This function can only be executed by Upgraders\");\r\n        _;\r\n    }\r\n\r\n    constructor (address adminOfNewContractsAddr, uint[] memory _governanceMembersId) public {\r\n        addPauser(adminOfNewContractsAddr);\r\n        upgraderInfo = new UpgraderInfo(adminOfNewContractsAddr);\r\n        governanceMembersId = _governanceMembersId;\r\n    }\r\n\r\n    //TODO: metodos para mudar governanceMembersId\r\n\r\n\r\n    function setIdRegistryAddr(address idRegistryAddr) public onlyAllowedUpgrader {\r\n        idRegistry = IdRegistry(idRegistryAddr);\r\n    }\r\n\r\n    function getUpgraderInfoAddr() public view returns (address) {\r\n        return upgraderInfo.getAllowedUpgraderAddr();\r\n    }\r\n\r\n    event NewChangeCreated(uint changeNumber, bytes32 hashChangeMotivation, address upgraderContractAddr,\r\n            address decisionContractAddr);\r\n    event ChangeApproved(uint changeNumber);\r\n    event ChangeExecuted(uint changeNumber);\r\n    event ChangeDisapproved(uint changeNumber);\r\n    event ChangeCancelled(uint changeNumber);\r\n    \r\n\r\n    function createNewChange (bytes32 hashChangeMotivation, address upgraderContractAddr,\r\n            uint256 percentageDecision) public onlyOwner {\r\n            \r\n            uint changeNumber = governingChanges.length;\r\n\r\n            ChangeDataStructure memory cds;\r\n            if (percentageDecision != 0) {\r\n                GovernanceDecision governanceDecision = new GovernanceDecision(governanceMembersId, percentageDecision, address(idRegistry), changeNumber);\r\n                cds = ChangeDataStructure(hashChangeMotivation, upgraderContractAddr,\r\n                        address(governanceDecision), ChangeState.WAITING);\r\n                emit NewChangeCreated(changeNumber, hashChangeMotivation, upgraderContractAddr, address(governanceDecision));\r\n\r\n            }\r\n            else { //The owner decided by itself\r\n                cds = ChangeDataStructure(hashChangeMotivation, upgraderContractAddr,\r\n                                    address(0), ChangeState.APPROVED);\r\n                emit NewChangeCreated(changeNumber, hashChangeMotivation, upgraderContractAddr, address(0));\r\n                cds.changeState = ChangeState.APPROVED;\r\n                emit ChangeApproved(changeNumber);\r\n\r\n            }\r\n            governingChanges.push(cds);\r\n    }\r\n\r\n\tfunction makeResult(uint changeNumber) public onlyOwner returns(bool) {\r\n\r\n        require (changeNumber<governingChanges.length, \"Invalid change number\");\r\n        \r\n        ChangeDataStructure memory cds = governingChanges[changeNumber];\r\n\r\n        require(cds.changeState==ChangeState.WAITING, \"A mudana precisa estar no estado WAITING\");\r\n\r\n        GovernanceDecision governanceDecision = GovernanceDecision(cds.decisionContractAddr);\r\n\r\n        if (governanceDecision.makeResult()) {\r\n           \r\n            cds.changeState = ChangeState.APPROVED;\r\n            emit ChangeApproved(changeNumber);\r\n            return true;\r\n        }\r\n\t\telse {\r\n\r\n            cds.changeState = ChangeState.DISAPPROVED;\r\n            emit ChangeDisapproved(changeNumber);\r\n\t\t\treturn false;\r\n\t\t}\r\n\r\n\t}\r\n\r\n    function executeChange (uint changeNumber) public {\r\n\r\n        require (changeNumber<governingChanges.length, \"Invalid change number\");\r\n\r\n        require (upgraderInfo.isAdmin(), \"A mudana s pode ser executada pelo admin da governana\");\r\n\r\n        ChangeDataStructure memory cds = governingChanges[changeNumber];\r\n\r\n        require(cds.changeState==ChangeState.APPROVED, \"A mudana precisa estar no estado aprovada\");\r\n\r\n        address upgraderContractAddr = cds.upgraderContractAddr;\r\n        upgraderInfo.setAllowedUpgrader(upgraderContractAddr);\r\n        Upgrader upgrader = Upgrader(upgraderContractAddr);\r\n        upgrader.upgrade();\r\n\r\n        cds.changeState = ChangeState.FINISHED;\r\n\r\n        emit ChangeExecuted(changeNumber);\r\n    }\r\n\r\n\r\n    function cancelChange (uint changeNumber) public onlyOwner {\r\n\r\n        require (changeNumber<governingChanges.length, \"Invalid change number\");\r\n\r\n        ChangeDataStructure memory cds = governingChanges[changeNumber];\r\n\r\n        require(cds.changeState==ChangeState.WAITING || cds.changeState==ChangeState.APPROVED,\r\n            \"A mudana precisa estar no estado de espera da deciso da mudana ou aprovada\");\r\n\r\n        cds.changeState = ChangeState.CANCELED;\r\n\r\n        //TODO: cancelar no contrato de deciso\r\n\r\n        emit ChangeCancelled(changeNumber);\r\n    }\r\n\r\n    function getChange(uint changeNumber) public view returns (bytes32, address, address, ChangeState) {\r\n        ChangeDataStructure memory cds = governingChanges[changeNumber];\r\n        return (cds.hashChangeMotivation, cds.upgraderContractAddr, cds.decisionContractAddr, cds.changeState);\r\n    }\r\n\r\n    //This function should not be called alone. In order to change the admin, it is necessary to change the pausables.\r\n    function setAdminAddr (address newAddr) public {\r\n        require(upgraderInfo.isAllowedUpgrader(), \"This function can only be executed by Upgraders\");\r\n        upgraderInfo.setAdminAddr(newAddr);\r\n    }\r\n\r\n\r\n }",
  "sourcePath": "D:\\Workspace\\bndestoken\\Back-Blockchain-Upgrade\\contracts\\appGovernanceUpgrade\\Governance.sol",
  "compiler": {
    "name": "solc",
    "version": "0.5.0+commit.1d4f565a.Emscripten.clang"
  },
  "schemaVersion": "3.0.5",
  "updatedAt": "2019-09-26T18:22:50.608Z",
  "devdoc": {
    "methods": {
      "isOwner()": {
        "return": "true if `msg.sender` is the owner of the contract."
      },
      "owner()": {
        "return": "the address of the owner."
      },
      "pause()": {
        "details": "called by the owner to pause, triggers stopped state"
      },
      "paused()": {
        "return": "true if the contract is paused, false otherwise."
      },
      "renounceOwnership()": {
        "details": "Allows the current owner to relinquish control of the contract."
      },
      "transferOwnership(address)": {
        "details": "Allows the current owner to transfer control of the contract to a newOwner.",
        "params": {
          "newOwner": "The address to transfer ownership to."
        }
      },
      "unpause()": {
        "details": "called by the owner to unpause, returns to normal state"
      }
    }
  },
  "userdoc": {
    "methods": {
      "renounceOwnership()": {
        "notice": "Renouncing to ownership will leave the contract without an owner. It will not be possible to call the functions with the `onlyOwner` modifier anymore."
      }
    }
  }
}