{
  "contractName": "GovernanceDecision",
  "abi": [
    {
      "constant": true,
      "inputs": [],
      "name": "status",
      "outputs": [
        {
          "name": "",
          "type": "uint8"
        }
      ],
      "payable": false,
      "stateMutability": "view",
      "type": "function"
    },
    {
      "constant": false,
      "inputs": [],
      "name": "renounceOwnership",
      "outputs": [],
      "payable": false,
      "stateMutability": "nonpayable",
      "type": "function"
    },
    {
      "constant": true,
      "inputs": [
        {
          "name": "",
          "type": "address"
        }
      ],
      "name": "voting",
      "outputs": [
        {
          "name": "",
          "type": "bool"
        }
      ],
      "payable": false,
      "stateMutability": "view",
      "type": "function"
    },
    {
      "constant": true,
      "inputs": [],
      "name": "owner",
      "outputs": [
        {
          "name": "",
          "type": "address"
        }
      ],
      "payable": false,
      "stateMutability": "view",
      "type": "function"
    },
    {
      "constant": true,
      "inputs": [],
      "name": "isOwner",
      "outputs": [
        {
          "name": "",
          "type": "bool"
        }
      ],
      "payable": false,
      "stateMutability": "view",
      "type": "function"
    },
    {
      "constant": false,
      "inputs": [
        {
          "name": "newOwner",
          "type": "address"
        }
      ],
      "name": "transferOwnership",
      "outputs": [],
      "payable": false,
      "stateMutability": "nonpayable",
      "type": "function"
    },
    {
      "inputs": [
        {
          "name": "_voters",
          "type": "address[]"
        },
        {
          "name": "_percentage",
          "type": "uint256"
        },
        {
          "name": "_period",
          "type": "uint256"
        },
        {
          "name": "gAddr",
          "type": "address"
        },
        {
          "name": "adminAddr",
          "type": "address"
        }
      ],
      "payable": false,
      "stateMutability": "nonpayable",
      "type": "constructor"
    },
    {
      "anonymous": false,
      "inputs": [
        {
          "indexed": true,
          "name": "previousOwner",
          "type": "address"
        },
        {
          "indexed": true,
          "name": "newOwner",
          "type": "address"
        }
      ],
      "name": "OwnershipTransferred",
      "type": "event"
    },
    {
      "constant": false,
      "inputs": [],
      "name": "startProposal",
      "outputs": [],
      "payable": false,
      "stateMutability": "nonpayable",
      "type": "function"
    },
    {
      "constant": false,
      "inputs": [
        {
          "name": "_voters",
          "type": "address[]"
        }
      ],
      "name": "addVoters",
      "outputs": [],
      "payable": false,
      "stateMutability": "nonpayable",
      "type": "function"
    },
    {
      "constant": false,
      "inputs": [
        {
          "name": "_choose",
          "type": "bool"
        }
      ],
      "name": "vote",
      "outputs": [],
      "payable": false,
      "stateMutability": "nonpayable",
      "type": "function"
    },
    {
      "constant": false,
      "inputs": [
        {
          "name": "_percentage",
          "type": "uint256"
        }
      ],
      "name": "setPercentage",
      "outputs": [],
      "payable": false,
      "stateMutability": "nonpayable",
      "type": "function"
    },
    {
      "constant": false,
      "inputs": [],
      "name": "getResolution",
      "outputs": [
        {
          "name": "",
          "type": "uint8"
        }
      ],
      "payable": false,
      "stateMutability": "nonpayable",
      "type": "function"
    },
    {
      "constant": false,
      "inputs": [],
      "name": "approveChangeIfPossible",
      "outputs": [],
      "payable": false,
      "stateMutability": "nonpayable",
      "type": "function"
    },
    {
      "constant": true,
      "inputs": [],
      "name": "getProposalPeriod",
      "outputs": [
        {
          "name": "",
          "type": "uint256"
        }
      ],
      "payable": false,
      "stateMutability": "view",
      "type": "function"
    },
    {
      "constant": false,
      "inputs": [
        {
          "name": "_proposalPeriod",
          "type": "uint256"
        }
      ],
      "name": "setProposalPeriod",
      "outputs": [
        {
          "name": "",
          "type": "bool"
        }
      ],
      "payable": false,
      "stateMutability": "nonpayable",
      "type": "function"
    },
    {
      "constant": true,
      "inputs": [],
      "name": "getChangeNumber",
      "outputs": [
        {
          "name": "",
          "type": "uint256"
        }
      ],
      "payable": false,
      "stateMutability": "view",
      "type": "function"
    },
    {
      "constant": false,
      "inputs": [
        {
          "name": "number",
          "type": "uint256"
        }
      ],
      "name": "setChangeNumber",
      "outputs": [
        {
          "name": "",
          "type": "bool"
        }
      ],
      "payable": false,
      "stateMutability": "nonpayable",
      "type": "function"
    },
    {
      "constant": true,
      "inputs": [],
      "name": "getGovernanceAddr",
      "outputs": [
        {
          "name": "",
          "type": "address"
        }
      ],
      "payable": false,
      "stateMutability": "view",
      "type": "function"
    }
  ],
  "bytecode": "0x6080604052600060065560006007553480156200001b57600080fd5b5060405162001c6838038062001c68833981018060405260a08110156200004157600080fd5b8101908080516401000000008111156200005a57600080fd5b828101905060208101848111156200007157600080fd5b81518560208202830111640100000000821117156200008f57600080fd5b505092919060200180519060200190929190805190602001909291908051906020019092919080519060200190929190505050336000806101000a81548173ffffffffffffffffffffffffffffffffffffffff021916908373ffffffffffffffffffffffffffffffffffffffff1602179055506000809054906101000a900473ffffffffffffffffffffffffffffffffffffffff1673ffffffffffffffffffffffffffffffffffffffff16600073ffffffffffffffffffffffffffffffffffffffff167f8be0079c531659141344cd1fd0a4f28419497f9722a3daafe3b4186f6b6457e060405160405180910390a3600060088190555082600981905550620001a78562000232640100000000026401000000009004565b620001c18462000343640100000000026401000000009004565b6000600260146101000a81548160ff02191690836004811115620001e157fe5b021790555081600260006101000a81548173ffffffffffffffffffffffffffffffffffffffff021916908373ffffffffffffffffffffffffffffffffffffffff160217905550505050505062000362565b60008090505b81518110156200033f576005600083838151811015156200025557fe5b9060200190602002015173ffffffffffffffffffffffffffffffffffffffff1673ffffffffffffffffffffffffffffffffffffffff16815260200190815260200160002060009054906101000a900460ff16151562000331576001600560008484815181101515620002c357fe5b9060200190602002015173ffffffffffffffffffffffffffffffffffffffff1673ffffffffffffffffffffffffffffffffffffffff16815260200190815260200160002060006101000a81548160ff0219169083151502179055506006600081548092919060010191905055505b808060010191505062000238565b5050565b80600381905550606460035411156200035f5760646003819055505b50565b6118f680620003726000396000f3fe6080604052600436106100f1576000357c0100000000000000000000000000000000000000000000000000000000900463ffffffff16806317d6fe1c146100f6578063200d2ed21461012f578063274da81f1461016857806343d4954f1461017f5780634b9f5c98146101d65780635da4a1d3146102135780636cffcbda1461024e578063715018a6146102655780638203373a1461027c5780638d5c9680146103415780638da5cb5b146103aa5780638f32d59b14610401578063990008ca14610430578063ae019ae01461045b578063c829c6b9146104ae578063dfe3e33314610501578063f2fde38b1461052c575b600080fd5b34801561010257600080fd5b5061010b61057d565b6040518082600481111561011b57fe5b60ff16815260200191505060405180910390f35b34801561013b57600080fd5b50610144610808565b6040518082600481111561015457fe5b60ff16815260200191505060405180910390f35b34801561017457600080fd5b5061017d61081b565b005b34801561018b57600080fd5b50610194610917565b604051808273ffffffffffffffffffffffffffffffffffffffff1673ffffffffffffffffffffffffffffffffffffffff16815260200191505060405180910390f35b3480156101e257600080fd5b50610211600480360360208110156101f957600080fd5b81019080803515159060200190929190505050610941565b005b34801561021f57600080fd5b5061024c6004803603602081101561023657600080fd5b8101908080359060200190929190505050610d04565b005b34801561025a57600080fd5b50610263610f40565b005b34801561027157600080fd5b5061027a61111a565b005b34801561028857600080fd5b5061033f6004803603602081101561029f57600080fd5b81019080803590602001906401000000008111156102bc57600080fd5b8201836020820111156102ce57600080fd5b803590602001918460208302840111640100000000831117156102f057600080fd5b919080806020026020016040519081016040528093929190818152602001838360200280828437600081840152601f19601f8201169050808301925050505050505091929192905050506111ec565b005b34801561034d57600080fd5b506103906004803603602081101561036457600080fd5b81019080803573ffffffffffffffffffffffffffffffffffffffff169060200190929190505050611428565b604051808215151515815260200191505060405180910390f35b3480156103b657600080fd5b506103bf611448565b604051808273ffffffffffffffffffffffffffffffffffffffff1673ffffffffffffffffffffffffffffffffffffffff16815260200191505060405180910390f35b34801561040d57600080fd5b50610416611471565b604051808215151515815260200191505060405180910390f35b34801561043c57600080fd5b506104456114c8565b6040518082815260200191505060405180910390f35b34801561046757600080fd5b506104946004803603602081101561047e57600080fd5b81019080803590602001909291905050506114d2565b604051808215151515815260200191505060405180910390f35b3480156104ba57600080fd5b506104e7600480360360208110156104d157600080fd5b81019080803590602001909291905050506115cf565b604051808215151515815260200191505060405180910390f35b34801561050d57600080fd5b506105166115f4565b6040518082815260200191505060405180910390f35b34801561053857600080fd5b5061057b6004803603602081101561054f57600080fd5b81019080803573ffffffffffffffffffffffffffffffffffffffff1690602001909291905050506115fe565b005b60004361059760095460085461161d90919063ffffffff16565b10156105c2576003600260146101000a81548160ff021916908360048111156105bc57fe5b02179055505b600060048111156105cf57fe5b600260149054906101000a900460ff1660048111156105ea57fe5b14151515610660576040517f08c379a00000000000000000000000000000000000000000000000000000000081526004018080602001828103825260118152602001807f496e76616c69642070726f706f73616c2100000000000000000000000000000081525060200191505060405180910390fd5b6002600481111561066d57fe5b600260149054906101000a900460ff16600481111561068857fe5b141515156106fe576040517f08c379a00000000000000000000000000000000000000000000000000000000081526004018080602001828103825260188152602001807f557067726164696e6720686173206265656e20646f6e6521000000000000000081525060200191505060405180910390fd5b6003600481111561070b57fe5b600260149054906101000a900460ff16600481111561072657fe5b1415151561079c576040517f08c379a00000000000000000000000000000000000000000000000000000000081526004018080602001828103825260148152602001807f50726f706f73616c20697320657870697265642100000000000000000000000081525060200191505060405180910390fd5b6107c660646107b860035460065461163e90919063ffffffff16565b61167c90919063ffffffff16565b60075411156107f35760028060146101000a81548160ff021916908360048111156107ed57fe5b02179055505b600260149054906101000a900460ff16905090565b600260149054906101000a900460ff1681565b610823611471565b151561082e57600080fd5b6000600481111561083b57fe5b600260149054906101000a900460ff16600481111561085657fe5b1415156108f1576040517f08c379a00000000000000000000000000000000000000000000000000000000081526004018080602001828103825260228152602001807f50726f706f73616c20686173206265656e20616c72656164792073746172746581526020017f642100000000000000000000000000000000000000000000000000000000000081525060400191505060405180910390fd5b6001600260146101000a81548160ff0219169083600481111561091057fe5b0217905550565b6000600260009054906101000a900473ffffffffffffffffffffffffffffffffffffffff16905090565b4361095960095460085461161d90919063ffffffff16565b1015610984576003600260146101000a81548160ff0219169083600481111561097e57fe5b02179055505b6000600481111561099157fe5b600260149054906101000a900460ff1660048111156109ac57fe5b14151515610a22576040517f08c379a00000000000000000000000000000000000000000000000000000000081526004018080602001828103825260118152602001807f496e76616c69642070726f706f73616c2100000000000000000000000000000081525060200191505060405180910390fd5b60026004811115610a2f57fe5b600260149054906101000a900460ff166004811115610a4a57fe5b14151515610ac0576040517f08c379a00000000000000000000000000000000000000000000000000000000081526004018080602001828103825260188152602001807f557067726164696e6720686173206265656e20646f6e6521000000000000000081525060200191505060405180910390fd5b60036004811115610acd57fe5b600260149054906101000a900460ff166004811115610ae857fe5b14151515610b5e576040517f08c379a00000000000000000000000000000000000000000000000000000000081526004018080602001828103825260148152602001807f50726f706f73616c20697320657870697265642100000000000000000000000081525060200191505060405180910390fd5b600560003373ffffffffffffffffffffffffffffffffffffffff1673ffffffffffffffffffffffffffffffffffffffff16815260200190815260200160002060009054906101000a900460ff161515610c1f576040517f08c379a000000000000000000000000000000000000000000000000000000000815260040180806020018281038252601b8152602001807f446f206e6f74206861766520746865207065726d697373696f6e21000000000081525060200191505060405180910390fd5b801515600460003373ffffffffffffffffffffffffffffffffffffffff1673ffffffffffffffffffffffffffffffffffffffff16815260200190815260200160002060009054906101000a900460ff161515141515610d01578015610c9557600760008154809291906001019190505550610ca9565b600760008154809291906001900391905055505b80600460003373ffffffffffffffffffffffffffffffffffffffff1673ffffffffffffffffffffffffffffffffffffffff16815260200190815260200160002060006101000a81548160ff0219169083151502179055505b50565b43610d1c60095460085461161d90919063ffffffff16565b1015610d47576003600260146101000a81548160ff02191690836004811115610d4157fe5b02179055505b60006004811115610d5457fe5b600260149054906101000a900460ff166004811115610d6f57fe5b14151515610de5576040517f08c379a00000000000000000000000000000000000000000000000000000000081526004018080602001828103825260118152602001807f496e76616c69642070726f706f73616c2100000000000000000000000000000081525060200191505060405180910390fd5b60026004811115610df257fe5b600260149054906101000a900460ff166004811115610e0d57fe5b14151515610e83576040517f08c379a00000000000000000000000000000000000000000000000000000000081526004018080602001828103825260188152602001807f557067726164696e6720686173206265656e20646f6e6521000000000000000081525060200191505060405180910390fd5b60036004811115610e9057fe5b600260149054906101000a900460ff166004811115610eab57fe5b14151515610f21576040517f08c379a00000000000000000000000000000000000000000000000000000000081526004018080602001828103825260148152602001807f50726f706f73616c20697320657870697265642100000000000000000000000081525060200191505060405180910390fd5b610f29611471565b1515610f3457600080fd5b610f3d816116a6565b50565b610f48611471565b1515610f5357600080fd5b60026004811115610f6057fe5b600260149054906101000a900460ff166004811115610f7b57fe5b1415611037576000600260009054906101000a900473ffffffffffffffffffffffffffffffffffffffff1690508073ffffffffffffffffffffffffffffffffffffffff16638fa1aa4c6001546040518263ffffffff167c010000000000000000000000000000000000000000000000000000000002815260040180828152602001915050600060405180830381600087803b15801561101957600080fd5b505af115801561102d573d6000803e3d6000fd5b5050505050611118565b6003600481111561104457fe5b600260149054906101000a900460ff16600481111561105f57fe5b1415611117576000600260009054906101000a900473ffffffffffffffffffffffffffffffffffffffff1690508073ffffffffffffffffffffffffffffffffffffffff166341986f3b6001546040518263ffffffff167c010000000000000000000000000000000000000000000000000000000002815260040180828152602001915050600060405180830381600087803b1580156110fd57600080fd5b505af1158015611111573d6000803e3d6000fd5b50505050505b5b565b611122611471565b151561112d57600080fd5b600073ffffffffffffffffffffffffffffffffffffffff166000809054906101000a900473ffffffffffffffffffffffffffffffffffffffff1673ffffffffffffffffffffffffffffffffffffffff167f8be0079c531659141344cd1fd0a4f28419497f9722a3daafe3b4186f6b6457e060405160405180910390a360008060006101000a81548173ffffffffffffffffffffffffffffffffffffffff021916908373ffffffffffffffffffffffffffffffffffffffff160217905550565b4361120460095460085461161d90919063ffffffff16565b101561122f576003600260146101000a81548160ff0219169083600481111561122957fe5b02179055505b6000600481111561123c57fe5b600260149054906101000a900460ff16600481111561125757fe5b141515156112cd576040517f08c379a00000000000000000000000000000000000000000000000000000000081526004018080602001828103825260118152602001807f496e76616c69642070726f706f73616c2100000000000000000000000000000081525060200191505060405180910390fd5b600260048111156112da57fe5b600260149054906101000a900460ff1660048111156112f557fe5b1415151561136b576040517f08c379a00000000000000000000000000000000000000000000000000000000081526004018080602001828103825260188152602001807f557067726164696e6720686173206265656e20646f6e6521000000000000000081525060200191505060405180910390fd5b6003600481111561137857fe5b600260149054906101000a900460ff16600481111561139357fe5b14151515611409576040517f08c379a00000000000000000000000000000000000000000000000000000000081526004018080602001828103825260148152602001807f50726f706f73616c20697320657870697265642100000000000000000000000081525060200191505060405180910390fd5b611411611471565b151561141c57600080fd5b611425816116c4565b50565b60046020528060005260406000206000915054906101000a900460ff1681565b60008060009054906101000a900473ffffffffffffffffffffffffffffffffffffffff16905090565b60008060009054906101000a900473ffffffffffffffffffffffffffffffffffffffff1673ffffffffffffffffffffffffffffffffffffffff163373ffffffffffffffffffffffffffffffffffffffff1614905090565b6000600154905090565b60003373ffffffffffffffffffffffffffffffffffffffff16600260009054906101000a900473ffffffffffffffffffffffffffffffffffffffff1673ffffffffffffffffffffffffffffffffffffffff161415156115bf576040517f08c379a00000000000000000000000000000000000000000000000000000000081526004018080602001828103825260348152602001807f546869732066756e6374696f6e2063616e206f6e6c792062652065786563757481526020017f65642062792074686520476f7665726e616e636500000000000000000000000081525060400191505060405180910390fd5b8160018190555060019050919050565b60006115d9611471565b15156115e457600080fd5b8160098190555060019050919050565b6000600954905090565b611606611471565b151561161157600080fd5b61161a816117d0565b50565b600080828401905083811015151561163457600080fd5b8091505092915050565b6000808314156116515760009050611676565b6000828402905082848281151561166457fe5b0414151561167157600080fd5b809150505b92915050565b6000808211151561168c57600080fd5b6000828481151561169957fe5b0490508091505092915050565b80600381905550606460035411156116c15760646003819055505b50565b60008090505b81518110156117cc576005600083838151811015156116e557fe5b9060200190602002015173ffffffffffffffffffffffffffffffffffffffff1673ffffffffffffffffffffffffffffffffffffffff16815260200190815260200160002060009054906101000a900460ff1615156117bf57600160056000848481518110151561175157fe5b9060200190602002015173ffffffffffffffffffffffffffffffffffffffff1673ffffffffffffffffffffffffffffffffffffffff16815260200190815260200160002060006101000a81548160ff0219169083151502179055506006600081548092919060010191905055505b80806001019150506116ca565b5050565b600073ffffffffffffffffffffffffffffffffffffffff168173ffffffffffffffffffffffffffffffffffffffff161415151561180c57600080fd5b8073ffffffffffffffffffffffffffffffffffffffff166000809054906101000a900473ffffffffffffffffffffffffffffffffffffffff1673ffffffffffffffffffffffffffffffffffffffff167f8be0079c531659141344cd1fd0a4f28419497f9722a3daafe3b4186f6b6457e060405160405180910390a3806000806101000a81548173ffffffffffffffffffffffffffffffffffffffff021916908373ffffffffffffffffffffffffffffffffffffffff1602179055505056fea165627a7a72305820290e515566fc20572e0823187f1401e5ef46a58e746c483f40fd66bcbb570d960029",
  "source": "pragma solidity ^0.5.0;\r\n\r\nimport \"openzeppelin-solidity/contracts/math/SafeMath.sol\";\r\nimport \"openzeppelin-solidity/contracts/ownership/Ownable.sol\";\r\nimport \"./Governance.sol\";\r\n\r\n/**\r\n * The upgrader works in following steps:\r\n *   1. Call startProposal() to start the voting process;\r\n *   2. Call getResolution() before the expiration;\r\n *   3. Upgrade succeed or proposal is expired.\r\n *    * Function done() can be called at any time to let upgrader destruct itself.\r\n *    * Function status() can be called at any time to show caller status of the upgrader.\r\n */\r\ncontract GovernanceDecision is Ownable() {\r\n\r\n\tusing SafeMath for uint256;\r\n\r\n\tuint private changeNumber;\r\n\r\n\taddress private governanceAddr;\r\n\r\n\r\n\t/** Marker */\r\n\tenum UpgraderStatus {\r\n\t\tPreparing,\r\n\t\tVoting,\r\n\t\tSuccess,\r\n\t\tExpired,\r\n\t\tEnd\r\n\t}\r\n\tUpgraderStatus public status;\r\n\r\n\t/** Voting mechanism related */\r\n\tuint256 private percentage;\r\n\tmapping(address => bool) public voting;\r\n\tmapping(address => bool) private voterRegistered;\r\n\tuint256 private numOfVoters = 0;\r\n\tuint256 private numOfAgreements = 0;\r\n\r\n    uint256 private proposalBlockNumber;\r\n\tuint256 private proposalPeriod;\r\n\r\n\t/**\r\n\t * Check if the proposal is expired.\r\n\t * If so, contract would be marked as expired.\r\n\t *\r\n\t * exception\tPreparingUpgraderException\tproposal has not been started.\r\n\t * exception\tReupgradingException\tupgrading has been done.\r\n\t * exception\tExpirationException\tproposal is expired.\r\n\t */\r\n\tmodifier notExpired {\r\n\r\n        if (proposalBlockNumber.add(proposalPeriod) < block.number) {\r\n\t\t\t\tstatus = UpgraderStatus.Expired;\r\n\t\t}\r\n\t\trequire(status != UpgraderStatus.Preparing, \"Invalid proposal!\");\r\n\t\trequire(status != UpgraderStatus.Success, \"Upgrading has been done!\");\r\n\t\trequire(status != UpgraderStatus.Expired, \"Proposal is expired!\");\r\n\t\t_;\r\n\t}\r\n\r\n    modifier onlyGovernance() {\r\n        require(governanceAddr==msg.sender, \"This function can only be executed by the Governance\");\r\n        _;\r\n    }\r\n\r\n\t/**\r\n\t * Constructor.\r\n\t *\r\n\t * @param\t_voters\taddresses of voters.\r\n\t * @param\t_percentage\tvalue of this.percentage.\r\n\t *\r\n\t * exception\tUninitializationException\t_dataAddr does not belong to a deployed Data contract having been initialization.\r\n\t * exception\tUpgraderConflictException\tanother upgrader is working.\r\n\t * exception\tInvalidHandlerException\t_originalAddr or _newAddr does not belong to a deployed Handler contract.\r\n\t */\r\n\tconstructor (address[] memory _voters, uint256 _percentage, uint256 _period, address gAddr, address adminAddr) public {\r\n\r\n        proposalBlockNumber = 0;\r\n\t\tproposalPeriod = _period;\r\n\r\n\t\t_addVoters(_voters);\r\n\t\t_setPercentage(_percentage);\r\n\r\n\t\t// Mark the contract as preparing.\r\n\t\tstatus = UpgraderStatus.Preparing;\r\n\r\n\t\tgovernanceAddr = gAddr;\r\n\t}\r\n\r\n\r\n\t/**\r\n\t * Start voting.\r\n\t * Upgrader must check if Data contract and 2 Handler contracts are ok.\r\n\t *\r\n\t * exception\tRestartingException\tproposal has been already started.\r\n\t * exception\tPermissionException\tmsg.sender is not the owner.\r\n\t */\r\n\tfunction startProposal () external onlyOwner {\r\n\t require(status == UpgraderStatus.Preparing, \"Proposal has been already started!\");\r\n\r\n\t\t// Mark the contract as voting.\r\n\t\tstatus = UpgraderStatus.Voting;\r\n\t}\r\n\r\n\t/**\r\n\t * Add unique voters.\r\n\t * If expired, self-destruct.\r\n\t *\r\n\t * @param\t_voters\taddresses of voters.\r\n\t *\r\n\t * exception\tPermissionException\tmsg.sender is not the owner.\r\n\t * \r\n\t * see  this.notExpired\r\n\t */\r\n\tfunction addVoters (address[] memory _voters) public notExpired onlyOwner {\r\n\t\t_addVoters(_voters);\r\n\t}\r\n\r\n\tfunction _addVoters (address[] memory _voters) internal {\r\n\t\tfor (uint256 i = 0; i < _voters.length; i++) {\r\n\t\t\tif (!voterRegistered[_voters[i]]) {\r\n\t\t\t\tvoterRegistered[_voters[i]] = true;\r\n\t\t\t\tnumOfVoters++;\r\n\t\t\t}\r\n\t\t}\r\n\t}\r\n\r\n\t/**\r\n\t * Vote.\r\n\t * If expired, self-destruct.\r\n\t *\r\n\t * @param\t_choose\tif the voter agrees with the proposal.\r\n\t *\r\n\t * exception\tPermissionException\tmsg.sender is not a voter.\r\n\t * \r\n\t * see  this.notExpired\r\n\t */\r\n\tfunction vote (bool _choose) external notExpired {\r\n\t\trequire(voterRegistered[msg.sender], \"Do not have the permission!\");\r\n\t\tif (voting[msg.sender] != _choose) {\r\n\t\t\tif (_choose) {\r\n\t\t\t\tnumOfAgreements++;\r\n\t\t\t} else {\r\n\t\t\t\tnumOfAgreements--;\r\n\t\t\t}\r\n\t\t\tvoting[msg.sender] = _choose;\r\n\t\t}\r\n\t}\r\n\r\n\t/**\r\n\t * Set percentage.\r\n\t * If percentage is over 100, it will be fixed automatically.\r\n\t *\r\n\t * @param\t_percentage\tvalue of this.percentage.\r\n\t *\r\n\t * exception\tPermissionException\tmsg.sender is not the owner.\r\n\t * \r\n\t * see  this.notExpired\r\n\t */\r\n\tfunction setPercentage(uint256 _percentage) external notExpired onlyOwner {\r\n\t\t_setPercentage(_percentage);\r\n\t}\r\n\r\n\tfunction _setPercentage(uint256 _percentage) internal {\r\n\t\tpercentage = _percentage;\r\n\t\tif (percentage > 100) {\r\n\t\t\tpercentage = 100;\r\n\t\t}\r\n\t}\r\n\r\n\t/**\r\n\t * Anyone can try to get resolution.\r\n\t * If voters get consensus, upgrade the Handler contract.\r\n\t * If expired, self-destruct.\r\n\t * Otherwise, do nothing.\r\n\t *\r\n\t * exception\tPreparingUpgraderException\tproposal has not been started.\r\n\t *\r\n\t * @return\tstatus of proposal.\r\n\t * \r\n\t * see  this.notExpired\r\n\t */\r\n\tfunction getResolution() external notExpired returns(UpgraderStatus) {\r\n\t\tif (numOfAgreements > numOfVoters.mul(percentage).div(100)) {\r\n\t\t\tstatus = UpgraderStatus.Success;\r\n\t\t}\r\n\t\treturn status;\r\n\t}\r\n\r\n\tfunction approveChangeIfPossible() external onlyOwner {\r\n\t\t\r\n\t\tif (status == UpgraderStatus.Success) {\r\n\t        Governance governance = Governance (governanceAddr);\r\n\t\t\tgovernance.approveChangeWithDecisionContract(changeNumber);\r\n\t\t}\r\n\r\n\t\t//TODO: e se percentual jah nao dah para aprovar?\r\n\t\t//!!!!!!!!!!!!!!!! DISCUTIR REQUISITOS DO CONTRATO DE DECISAO\r\n\t\telse if (status == UpgraderStatus.Expired) {\r\n\t\t\tGovernance governance = Governance (governanceAddr);\r\n\t\t\tgovernance.denyChangeWithDecisionContract(changeNumber);\r\n\t\t}\r\n\t}\r\n\r\n\t/**\r\n\t * Destruct itself.\r\n\t *\r\n\t * exception\tPermissionException\tmsg.sender is not the owner.\r\n\t */\r\n/*\tfunction done() external onlyOwner {\r\n\t\tselfdestruct(owner());\r\n\t}\r\n*/\r\n\r\n\r\n\t/**\r\n\t * Getter of proposalPeriod.\r\n\t *\r\n\t * exception\tGetterPermissionException\tmsg.sender is not permitted to call the getter.\r\n\t *\r\n\t * @return\tthis.proposalPeriod.\r\n\t */\r\n\tfunction getProposalPeriod () public view returns(uint256) {\r\n\t\treturn proposalPeriod;\r\n\t}\r\n\r\n\t/**\r\n\t * Setter of proposalPeriod.\r\n\t *\r\n\t * @param\t_proposalPeriod\tnew value of this.proposalPeriod.\r\n\t *\r\n\t * exception\tPermissionException\tmsg.sender is not the owner.\r\n\t *\r\n\t * @return\tif this.proposalPeriod is successfully set.\r\n\t */\r\n\tfunction setProposalPeriod (uint256 _proposalPeriod) public onlyOwner returns(bool) {\r\n\t\tproposalPeriod = _proposalPeriod;\r\n\t\treturn true;\r\n\t}\r\n\r\n\tfunction getChangeNumber () public view returns(uint256) {\r\n\t\treturn changeNumber;\r\n\t}\r\n\r\n\tfunction setChangeNumber (uint256 number) public onlyGovernance returns(bool) {\r\n\t\tchangeNumber = number;\r\n\t\treturn true;\r\n\t}\r\n\r\n\tfunction getGovernanceAddr() public view returns(address) {\r\n\t\treturn governanceAddr;\r\n\t}\r\n\r\n}",
  "sourcePath": "D:\\Workspace\\bndestoken\\Back-Blockchain-Upgrade\\contracts\\GovernanceDecision.sol",
  "compiler": {
    "name": "solc",
    "version": "0.5.0+commit.1d4f565a.Emscripten.clang"
  },
  "schemaVersion": "3.0.5",
  "updatedAt": "2019-09-18T21:01:08.460Z",
  "devdoc": {
    "methods": {
      "addVoters(address[])": {
        "params": {
          "_voters": "addresses of voters.\r \t * exception\tPermissionException\tmsg.sender is not the owner.\r \r see  this.notExpired\r"
        }
      },
      "constructor": {
        "params": {
          "_percentage": "value of this.percentage.\r \t * exception\tUninitializationException\t_dataAddr does not belong to a deployed Data contract having been initialization.\r exception\tUpgraderConflictException\tanother upgrader is working.\r exception\tInvalidHandlerException\t_originalAddr or _newAddr does not belong to a deployed Handler contract.\r",
          "_voters": "addresses of voters.\r"
        }
      },
      "getProposalPeriod()": {
        "return": "this.proposalPeriod.\r"
      },
      "getResolution()": {
        "return": "status of proposal.\r \r see  this.notExpired\r"
      },
      "isOwner()": {
        "return": "true if `msg.sender` is the owner of the contract."
      },
      "owner()": {
        "return": "the address of the owner."
      },
      "renounceOwnership()": {
        "details": "Allows the current owner to relinquish control of the contract."
      },
      "setPercentage(uint256)": {
        "params": {
          "_percentage": "value of this.percentage.\r \t * exception\tPermissionException\tmsg.sender is not the owner.\r \r see  this.notExpired\r"
        }
      },
      "setProposalPeriod(uint256)": {
        "params": {
          "_proposalPeriod": "new value of this.proposalPeriod.\r \t * exception\tPermissionException\tmsg.sender is not the owner.\r "
        },
        "return": "if this.proposalPeriod is successfully set.\r"
      },
      "transferOwnership(address)": {
        "details": "Allows the current owner to transfer control of the contract to a newOwner.",
        "params": {
          "newOwner": "The address to transfer ownership to."
        }
      },
      "vote(bool)": {
        "params": {
          "_choose": "if the voter agrees with the proposal.\r \t * exception\tPermissionException\tmsg.sender is not a voter.\r \r see  this.notExpired\r"
        }
      }
    }
  },
  "userdoc": {
    "methods": {
      "addVoters(address[])": {
        "notice": "Add unique voters.\r If expired, self-destruct.\r "
      },
      "constructor": "Constructor.\r ",
      "getProposalPeriod()": {
        "notice": "Getter of proposalPeriod.\r \t * exception\tGetterPermissionException\tmsg.sender is not permitted to call the getter.\r "
      },
      "getResolution()": {
        "notice": "Anyone can try to get resolution.\r If voters get consensus, upgrade the Handler contract.\r If expired, self-destruct.\r Otherwise, do nothing.\r \t * exception\tPreparingUpgraderException\tproposal has not been started.\r "
      },
      "renounceOwnership()": {
        "notice": "Renouncing to ownership will leave the contract without an owner. It will not be possible to call the functions with the `onlyOwner` modifier anymore."
      },
      "setPercentage(uint256)": {
        "notice": "Set percentage.\r If percentage is over 100, it will be fixed automatically.\r "
      },
      "setProposalPeriod(uint256)": {
        "notice": "Setter of proposalPeriod.\r "
      },
      "startProposal()": {
        "notice": "Start voting.\r Upgrader must check if Data contract and 2 Handler contracts are ok.\r \t * exception\tRestartingException\tproposal has been already started.\r exception\tPermissionException\tmsg.sender is not the owner.\r"
      },
      "vote(bool)": {
        "notice": "Vote.\r If expired, self-destruct.\r "
      }
    },
    "notice": "The upgrader works in following steps:\r  1. Call startProposal() to start the voting process;\r  2. Call getResolution() before the expiration;\r  3. Upgrade succeed or proposal is expired.\r   * Function done() can be called at any time to let upgrader destruct itself.\r   * Function status() can be called at any time to show caller status of the upgrader.\r"
  }
}