{
  "contractName": "GovernanceDecision",
  "abi": [
    {
      "constant": true,
      "inputs": [],
      "name": "status",
      "outputs": [
        {
          "name": "",
          "type": "uint8"
        }
      ],
      "payable": false,
      "stateMutability": "view",
      "type": "function"
    },
    {
      "constant": false,
      "inputs": [],
      "name": "renounceOwnership",
      "outputs": [],
      "payable": false,
      "stateMutability": "nonpayable",
      "type": "function"
    },
    {
      "constant": true,
      "inputs": [],
      "name": "owner",
      "outputs": [
        {
          "name": "",
          "type": "address"
        }
      ],
      "payable": false,
      "stateMutability": "view",
      "type": "function"
    },
    {
      "constant": true,
      "inputs": [],
      "name": "isOwner",
      "outputs": [
        {
          "name": "",
          "type": "bool"
        }
      ],
      "payable": false,
      "stateMutability": "view",
      "type": "function"
    },
    {
      "constant": true,
      "inputs": [],
      "name": "changeNumber",
      "outputs": [
        {
          "name": "",
          "type": "uint256"
        }
      ],
      "payable": false,
      "stateMutability": "view",
      "type": "function"
    },
    {
      "constant": false,
      "inputs": [
        {
          "name": "newOwner",
          "type": "address"
        }
      ],
      "name": "transferOwnership",
      "outputs": [],
      "payable": false,
      "stateMutability": "nonpayable",
      "type": "function"
    },
    {
      "constant": true,
      "inputs": [
        {
          "name": "",
          "type": "uint256"
        }
      ],
      "name": "voting",
      "outputs": [
        {
          "name": "",
          "type": "bool"
        }
      ],
      "payable": false,
      "stateMutability": "view",
      "type": "function"
    },
    {
      "inputs": [
        {
          "name": "_votersId",
          "type": "uint256[]"
        },
        {
          "name": "_percentage",
          "type": "uint256"
        },
        {
          "name": "idRegistryAddr",
          "type": "address"
        },
        {
          "name": "_changeNumber",
          "type": "uint256"
        }
      ],
      "payable": false,
      "stateMutability": "nonpayable",
      "type": "constructor"
    },
    {
      "anonymous": false,
      "inputs": [
        {
          "indexed": true,
          "name": "previousOwner",
          "type": "address"
        },
        {
          "indexed": true,
          "name": "newOwner",
          "type": "address"
        }
      ],
      "name": "OwnershipTransferred",
      "type": "event"
    },
    {
      "constant": false,
      "inputs": [
        {
          "name": "_choose",
          "type": "bool"
        }
      ],
      "name": "vote",
      "outputs": [],
      "payable": false,
      "stateMutability": "nonpayable",
      "type": "function"
    },
    {
      "constant": false,
      "inputs": [],
      "name": "makeResult",
      "outputs": [
        {
          "name": "",
          "type": "bool"
        }
      ],
      "payable": false,
      "stateMutability": "nonpayable",
      "type": "function"
    },
    {
      "constant": true,
      "inputs": [],
      "name": "getChangeNumber",
      "outputs": [
        {
          "name": "",
          "type": "uint256"
        }
      ],
      "payable": false,
      "stateMutability": "view",
      "type": "function"
    }
  ],
  "bytecode": "0x60806040526000600655600060075534801561001a57600080fd5b50604051610d5e380380610d5e8339810180604052608081101561003d57600080fd5b81019080805164010000000081111561005557600080fd5b8281019050602081018481111561006b57600080fd5b815185602082028301116401000000008211171561008857600080fd5b5050929190602001805190602001909291908051906020019092919080519060200190929190505050336000806101000a81548173ffffffffffffffffffffffffffffffffffffffff021916908373ffffffffffffffffffffffffffffffffffffffff1602179055506000809054906101000a900473ffffffffffffffffffffffffffffffffffffffff1673ffffffffffffffffffffffffffffffffffffffff16600073ffffffffffffffffffffffffffffffffffffffff167f8be0079c531659141344cd1fd0a4f28419497f9722a3daafe3b4186f6b6457e060405160405180910390a361018584610212640100000000026401000000009004565b61019d836102c6640100000000026401000000009004565b81600260006101000a81548173ffffffffffffffffffffffffffffffffffffffff021916908373ffffffffffffffffffffffffffffffffffffffff160217905550806001819055506000600260146101000a81548160ff0219169083600381111561020457fe5b0217905550505050506102e4565b60008090505b81518110156102c25760056000838381518110151561023357fe5b90602001906020020151815260200190815260200160002060009054906101000a900460ff1615156102b557600160056000848481518110151561027357fe5b90602001906020020151815260200190815260200160002060006101000a81548160ff0219169083151502179055506006600081548092919060010191905055505b8080600101915050610218565b5050565b80600381905550606460035411156102e15760646003819055505b50565b610a6b806102f36000396000f3fe6080604052600436106100a4576000357c0100000000000000000000000000000000000000000000000000000000900463ffffffff168063200d2ed2146100a95780634b9f5c98146100e2578063715018a61461011f5780638da5cb5b146101365780638f32d59b1461018d578063990008ca146101bc578063c967aa5e146101e7578063e14d58d914610212578063f2fde38b14610241578063fd4a77f114610292575b600080fd5b3480156100b557600080fd5b506100be6102e5565b604051808260038111156100ce57fe5b60ff16815260200191505060405180910390f35b3480156100ee57600080fd5b5061011d6004803603602081101561010557600080fd5b810190808035151590602001909291905050506102f8565b005b34801561012b57600080fd5b506101346105da565b005b34801561014257600080fd5b5061014b6106ac565b604051808273ffffffffffffffffffffffffffffffffffffffff1673ffffffffffffffffffffffffffffffffffffffff16815260200191505060405180910390f35b34801561019957600080fd5b506101a26106d5565b604051808215151515815260200191505060405180910390f35b3480156101c857600080fd5b506101d161072c565b6040518082815260200191505060405180910390f35b3480156101f357600080fd5b506101fc610736565b6040518082815260200191505060405180910390f35b34801561021e57600080fd5b5061022761073c565b604051808215151515815260200191505060405180910390f35b34801561024d57600080fd5b506102906004803603602081101561026457600080fd5b81019080803573ffffffffffffffffffffffffffffffffffffffff16906020019092919050505061089e565b005b34801561029e57600080fd5b506102cb600480360360208110156102b557600080fd5b81019080803590602001909291905050506108bd565b604051808215151515815260200191505060405180910390f35b600260149054906101000a900460ff1681565b6000600381111561030557fe5b600260149054906101000a900460ff16600381111561032057fe5b1415156103bb576040517f08c379a00000000000000000000000000000000000000000000000000000000081526004018080602001828103825260218152602001807f4465636973696f6e206e6f7420696e2074686520766f74696e6720737461746581526020017f210000000000000000000000000000000000000000000000000000000000000081525060400191505060405180910390fd5b6000600260009054906101000a900473ffffffffffffffffffffffffffffffffffffffff1673ffffffffffffffffffffffffffffffffffffffff166365f68c89336040518263ffffffff167c0100000000000000000000000000000000000000000000000000000000028152600401808273ffffffffffffffffffffffffffffffffffffffff1673ffffffffffffffffffffffffffffffffffffffff168152602001915050602060405180830381600087803b15801561047a57600080fd5b505af115801561048e573d6000803e3d6000fd5b505050506040513d60208110156104a457600080fd5b810190808051906020019092919050505090506005600082815260200190815260200160002060009054906101000a900460ff16151561054c576040517f08c379a000000000000000000000000000000000000000000000000000000000815260040180806020018281038252601b8152602001807f446f206e6f74206861766520746865207065726d697373696f6e21000000000081525060200191505060405180910390fd5b8115156004600083815260200190815260200160002060009054906101000a900460ff1615151415156105d6578115610596576007600081548092919060010191905055506105aa565b600760008154809291906001900391905055505b816004600083815260200190815260200160002060006101000a81548160ff0219169083151502179055505b5050565b6105e26106d5565b15156105ed57600080fd5b600073ffffffffffffffffffffffffffffffffffffffff166000809054906101000a900473ffffffffffffffffffffffffffffffffffffffff1673ffffffffffffffffffffffffffffffffffffffff167f8be0079c531659141344cd1fd0a4f28419497f9722a3daafe3b4186f6b6457e060405160405180910390a360008060006101000a81548173ffffffffffffffffffffffffffffffffffffffff021916908373ffffffffffffffffffffffffffffffffffffffff160217905550565b60008060009054906101000a900473ffffffffffffffffffffffffffffffffffffffff16905090565b60008060009054906101000a900473ffffffffffffffffffffffffffffffffffffffff1673ffffffffffffffffffffffffffffffffffffffff163373ffffffffffffffffffffffffffffffffffffffff1614905090565b6000600154905090565b60015481565b600080600381111561074a57fe5b600260149054906101000a900460ff16600381111561076557fe5b141515610800576040517f08c379a00000000000000000000000000000000000000000000000000000000081526004018080602001828103825260218152602001807f4465636973696f6e206e6f7420696e2074686520766f74696e6720737461746581526020017f210000000000000000000000000000000000000000000000000000000000000081525060400191505060405180910390fd5b6108086106d5565b151561081357600080fd5b61083d606461082f6003546006546108dd90919063ffffffff16565b61091b90919063ffffffff16565b6007541115610873576001600260146101000a81548160ff0219169083600381111561086557fe5b02179055506001905061089b565b60028060146101000a81548160ff0219169083600381111561089157fe5b0217905550600090505b90565b6108a66106d5565b15156108b157600080fd5b6108ba81610945565b50565b60046020528060005260406000206000915054906101000a900460ff1681565b6000808314156108f05760009050610915565b6000828402905082848281151561090357fe5b0414151561091057600080fd5b809150505b92915050565b6000808211151561092b57600080fd5b6000828481151561093857fe5b0490508091505092915050565b600073ffffffffffffffffffffffffffffffffffffffff168173ffffffffffffffffffffffffffffffffffffffff161415151561098157600080fd5b8073ffffffffffffffffffffffffffffffffffffffff166000809054906101000a900473ffffffffffffffffffffffffffffffffffffffff1673ffffffffffffffffffffffffffffffffffffffff167f8be0079c531659141344cd1fd0a4f28419497f9722a3daafe3b4186f6b6457e060405160405180910390a3806000806101000a81548173ffffffffffffffffffffffffffffffffffffffff021916908373ffffffffffffffffffffffffffffffffffffffff1602179055505056fea165627a7a7230582073b1221ae73625777e81ca71ab1cc63fcf6abe15c66a2767718290753f1b68fa0029",
  "source": "pragma solidity ^0.5.0;\r\n\r\nimport \"openzeppelin-solidity/contracts/math/SafeMath.sol\";\r\nimport \"openzeppelin-solidity/contracts/ownership/Ownable.sol\";\r\nimport \"./IdRegistry.sol\";\r\n\r\n\r\ncontract GovernanceDecision is Ownable() {\r\n\r\n\tusing SafeMath for uint256;\r\n\r\n\tuint public changeNumber;\r\n\r\n\tIdRegistry private idRegistry;\r\n\r\n\tenum UpgraderStatus {\r\n\t\tVoting,\r\n\t\tApproved,\r\n\t\tRejected,\r\n\t\tCancelled\r\n\t}\r\n\r\n\tUpgraderStatus public status;\r\n\r\n\r\n\t/** Voting mechanism related */\r\n\tuint256 private percentage;\r\n\tmapping(uint => bool) public voting;\r\n\tmapping(uint => bool) private voterRegistered;\r\n\tuint256 private numOfVoters = 0;\r\n\tuint256 private numOfAgreements = 0;\r\n\r\n\tmodifier onlyInVotingState {\r\n\t\trequire(status == UpgraderStatus.Voting, \"Decision not in the voting state!\");\r\n\t\t_;\r\n\t}\r\n\r\n//If idRegistryAddr changes, the old contract will be still able to answer id Queries (unless it is destroyed).\r\n//If the answer of the old version of the contract is not ok, the decision contract should be cancelled.\r\n\r\n\tconstructor (uint[] memory _votersId, uint256 _percentage, address idRegistryAddr, uint256 _changeNumber) public {\r\n\r\n\t\t_addVoters(_votersId);\r\n\t\t_setPercentage(_percentage);\r\n\r\n\t\tidRegistry = IdRegistry(idRegistryAddr);\r\n\r\n\t\tchangeNumber = _changeNumber;\r\n\r\n\t\t// Mark the contract as voting.\r\n\t\tstatus = UpgraderStatus.Voting;\r\n\r\n\t}\r\n\r\n\t//TODO: cancel change\r\n\r\n\r\n\t/**\r\n\t * Vote.\r\n\t *\r\n\t * @param\t_choose\tif the voter agrees with the proposal.\r\n\t *\r\n\t * exception\tPermissionException\tmsg.sender is not a voter.\r\n\t * \r\n\t */\r\n\tfunction vote (bool _choose) external onlyInVotingState {\r\n\t\tuint voterId = idRegistry.getId(msg.sender);\r\n\t\trequire(voterRegistered[voterId], \"Do not have the permission!\");\r\n\t\tif (voting[voterId] != _choose) {\r\n\t\t\tif (_choose) {\r\n\t\t\t\tnumOfAgreements++;\r\n\t\t\t} else {\r\n\t\t\t\tnumOfAgreements--;\r\n\t\t\t}\r\n\t\t\tvoting[voterId] = _choose;\r\n\t\t}\r\n\t}\r\n\r\n\r\n\r\n\tfunction makeResult() public onlyInVotingState onlyOwner returns(bool) {\r\n\r\n\t\tif (numOfAgreements > numOfVoters.mul(percentage).div(100)) {\r\n\t\t\tstatus = UpgraderStatus.Approved;\r\n\t\t\treturn true;\r\n\t\t}\r\n\t\telse {\r\n\t\t\tstatus = UpgraderStatus.Rejected;\r\n\t\t\treturn false;\r\n\t\t}\r\n\r\n\t}\r\n\r\n\r\n\t/**\r\n\t * Destruct itself.\r\n\t *\r\n\t * exception\tPermissionException\tmsg.sender is not the owner.\r\n\t */\r\n/*\tfunction done() external onlyOwner {\r\n\t\tselfdestruct(owner());\r\n\t}\r\n*/\r\n\r\n\r\n\tfunction _addVoters (uint[] memory _votersId) internal {\r\n\t\tfor (uint256 i = 0; i < _votersId.length; i++) {\r\n\t\t\tif (!voterRegistered[_votersId[i]]) {\r\n\t\t\t\tvoterRegistered[_votersId[i]] = true;\r\n\t\t\t\tnumOfVoters++;\r\n\t\t\t}\r\n\t\t}\r\n\t}\r\n\r\n\r\n\tfunction _setPercentage(uint256 _percentage) internal {\r\n\t\tpercentage = _percentage;\r\n\t\tif (percentage > 100) {\r\n\t\t\tpercentage = 100;\r\n\t\t}\r\n\t}\r\n\r\n\tfunction getChangeNumber () public view returns(uint256) {\r\n\t\treturn changeNumber;\r\n\t}\r\n}",
  "sourcePath": "D:\\Workspace\\bndestoken\\Back-Blockchain-Upgrade\\contracts\\appGovernanceUpgrade\\GovernanceDecision.sol",
  "compiler": {
    "name": "solc",
    "version": "0.5.0+commit.1d4f565a.Emscripten.clang"
  },
  "schemaVersion": "3.0.5",
  "updatedAt": "2019-09-26T18:22:50.585Z",
  "devdoc": {
    "methods": {
      "isOwner()": {
        "return": "true if `msg.sender` is the owner of the contract."
      },
      "owner()": {
        "return": "the address of the owner."
      },
      "renounceOwnership()": {
        "details": "Allows the current owner to relinquish control of the contract."
      },
      "transferOwnership(address)": {
        "details": "Allows the current owner to transfer control of the contract to a newOwner.",
        "params": {
          "newOwner": "The address to transfer ownership to."
        }
      },
      "vote(bool)": {
        "params": {
          "_choose": "if the voter agrees with the proposal.\r \t * exception\tPermissionException\tmsg.sender is not a voter.\r \r"
        }
      }
    }
  },
  "userdoc": {
    "methods": {
      "renounceOwnership()": {
        "notice": "Renouncing to ownership will leave the contract without an owner. It will not be possible to call the functions with the `onlyOwner` modifier anymore."
      },
      "vote(bool)": {
        "notice": "Vote.\r "
      }
    }
  }
}