{
  "contractName": "Governance",
  "abi": [
    {
      "constant": false,
      "inputs": [],
      "name": "unpause",
      "outputs": [],
      "payable": false,
      "stateMutability": "nonpayable",
      "type": "function"
    },
    {
      "constant": true,
      "inputs": [
        {
          "name": "account",
          "type": "address"
        }
      ],
      "name": "isPauser",
      "outputs": [
        {
          "name": "",
          "type": "bool"
        }
      ],
      "payable": false,
      "stateMutability": "view",
      "type": "function"
    },
    {
      "constant": true,
      "inputs": [],
      "name": "paused",
      "outputs": [
        {
          "name": "",
          "type": "bool"
        }
      ],
      "payable": false,
      "stateMutability": "view",
      "type": "function"
    },
    {
      "constant": false,
      "inputs": [],
      "name": "renouncePauser",
      "outputs": [],
      "payable": false,
      "stateMutability": "nonpayable",
      "type": "function"
    },
    {
      "constant": false,
      "inputs": [],
      "name": "renounceOwnership",
      "outputs": [],
      "payable": false,
      "stateMutability": "nonpayable",
      "type": "function"
    },
    {
      "constant": true,
      "inputs": [
        {
          "name": "",
          "type": "uint256"
        }
      ],
      "name": "governingChanges",
      "outputs": [
        {
          "name": "hashChangeMotivation",
          "type": "bytes32"
        },
        {
          "name": "upgraderContractAddr",
          "type": "address"
        },
        {
          "name": "decisionContractAddr",
          "type": "address"
        },
        {
          "name": "changeState",
          "type": "uint8"
        }
      ],
      "payable": false,
      "stateMutability": "view",
      "type": "function"
    },
    {
      "constant": false,
      "inputs": [
        {
          "name": "account",
          "type": "address"
        }
      ],
      "name": "addPauser",
      "outputs": [],
      "payable": false,
      "stateMutability": "nonpayable",
      "type": "function"
    },
    {
      "constant": false,
      "inputs": [],
      "name": "pause",
      "outputs": [],
      "payable": false,
      "stateMutability": "nonpayable",
      "type": "function"
    },
    {
      "constant": true,
      "inputs": [],
      "name": "owner",
      "outputs": [
        {
          "name": "",
          "type": "address"
        }
      ],
      "payable": false,
      "stateMutability": "view",
      "type": "function"
    },
    {
      "constant": true,
      "inputs": [],
      "name": "isOwner",
      "outputs": [
        {
          "name": "",
          "type": "bool"
        }
      ],
      "payable": false,
      "stateMutability": "view",
      "type": "function"
    },
    {
      "constant": true,
      "inputs": [],
      "name": "upgraderInfo",
      "outputs": [
        {
          "name": "",
          "type": "address"
        }
      ],
      "payable": false,
      "stateMutability": "view",
      "type": "function"
    },
    {
      "constant": false,
      "inputs": [
        {
          "name": "newOwner",
          "type": "address"
        }
      ],
      "name": "transferOwnership",
      "outputs": [],
      "payable": false,
      "stateMutability": "nonpayable",
      "type": "function"
    },
    {
      "inputs": [
        {
          "name": "adminOfNewContractsAddr",
          "type": "address"
        }
      ],
      "payable": false,
      "stateMutability": "nonpayable",
      "type": "constructor"
    },
    {
      "anonymous": false,
      "inputs": [
        {
          "indexed": false,
          "name": "changeNumber",
          "type": "uint256"
        },
        {
          "indexed": false,
          "name": "hashChangeMotivation",
          "type": "bytes32"
        },
        {
          "indexed": false,
          "name": "upgraderContractAddr",
          "type": "address"
        },
        {
          "indexed": false,
          "name": "decisionContractAddr",
          "type": "address"
        }
      ],
      "name": "NewChangeCreated",
      "type": "event"
    },
    {
      "anonymous": false,
      "inputs": [
        {
          "indexed": false,
          "name": "changeNumber",
          "type": "uint256"
        }
      ],
      "name": "ChangeApproved",
      "type": "event"
    },
    {
      "anonymous": false,
      "inputs": [
        {
          "indexed": false,
          "name": "changeNumber",
          "type": "uint256"
        }
      ],
      "name": "ChangeExecuted",
      "type": "event"
    },
    {
      "anonymous": false,
      "inputs": [
        {
          "indexed": false,
          "name": "changeNumber",
          "type": "uint256"
        }
      ],
      "name": "ChangeDisapproved",
      "type": "event"
    },
    {
      "anonymous": false,
      "inputs": [
        {
          "indexed": false,
          "name": "changeNumber",
          "type": "uint256"
        }
      ],
      "name": "ChangeCancelled",
      "type": "event"
    },
    {
      "anonymous": false,
      "inputs": [
        {
          "indexed": true,
          "name": "previousOwner",
          "type": "address"
        },
        {
          "indexed": true,
          "name": "newOwner",
          "type": "address"
        }
      ],
      "name": "OwnershipTransferred",
      "type": "event"
    },
    {
      "anonymous": false,
      "inputs": [
        {
          "indexed": false,
          "name": "account",
          "type": "address"
        }
      ],
      "name": "Paused",
      "type": "event"
    },
    {
      "anonymous": false,
      "inputs": [
        {
          "indexed": false,
          "name": "account",
          "type": "address"
        }
      ],
      "name": "Unpaused",
      "type": "event"
    },
    {
      "anonymous": false,
      "inputs": [
        {
          "indexed": true,
          "name": "account",
          "type": "address"
        }
      ],
      "name": "PauserAdded",
      "type": "event"
    },
    {
      "anonymous": false,
      "inputs": [
        {
          "indexed": true,
          "name": "account",
          "type": "address"
        }
      ],
      "name": "PauserRemoved",
      "type": "event"
    },
    {
      "constant": true,
      "inputs": [],
      "name": "getUpgraderInfoAddr",
      "outputs": [
        {
          "name": "",
          "type": "address"
        }
      ],
      "payable": false,
      "stateMutability": "view",
      "type": "function"
    },
    {
      "constant": false,
      "inputs": [
        {
          "name": "hashChangeMotivation",
          "type": "bytes32"
        },
        {
          "name": "upgraderContractAddr",
          "type": "address"
        },
        {
          "name": "decisionContractAddr",
          "type": "address"
        }
      ],
      "name": "createNewChange",
      "outputs": [],
      "payable": false,
      "stateMutability": "nonpayable",
      "type": "function"
    },
    {
      "constant": false,
      "inputs": [
        {
          "name": "changeNumber",
          "type": "uint256"
        }
      ],
      "name": "approveChangeWithDecisionContract",
      "outputs": [],
      "payable": false,
      "stateMutability": "nonpayable",
      "type": "function"
    },
    {
      "constant": false,
      "inputs": [
        {
          "name": "changeNumber",
          "type": "uint256"
        }
      ],
      "name": "denyChangeWithDecisionContract",
      "outputs": [],
      "payable": false,
      "stateMutability": "nonpayable",
      "type": "function"
    },
    {
      "constant": false,
      "inputs": [
        {
          "name": "changeNumber",
          "type": "uint256"
        }
      ],
      "name": "executeChange",
      "outputs": [],
      "payable": false,
      "stateMutability": "nonpayable",
      "type": "function"
    },
    {
      "constant": false,
      "inputs": [
        {
          "name": "changeNumber",
          "type": "uint256"
        }
      ],
      "name": "cancelChange",
      "outputs": [],
      "payable": false,
      "stateMutability": "nonpayable",
      "type": "function"
    },
    {
      "constant": true,
      "inputs": [
        {
          "name": "changeNumber",
          "type": "uint256"
        }
      ],
      "name": "getChange",
      "outputs": [
        {
          "name": "",
          "type": "bytes32"
        },
        {
          "name": "",
          "type": "address"
        },
        {
          "name": "",
          "type": "address"
        },
        {
          "name": "",
          "type": "uint8"
        }
      ],
      "payable": false,
      "stateMutability": "view",
      "type": "function"
    }
  ],
  "bytecode": "0x60806040523480156200001157600080fd5b5060405160208062003495833981018060405260208110156200003357600080fd5b81019080805190602001909291905050506200005e33620001f5640100000000026401000000009004565b6000600160006101000a81548160ff021916908315150217905550336001806101000a81548173ffffffffffffffffffffffffffffffffffffffff021916908373ffffffffffffffffffffffffffffffffffffffff1602179055506001809054906101000a900473ffffffffffffffffffffffffffffffffffffffff1673ffffffffffffffffffffffffffffffffffffffff16600073ffffffffffffffffffffffffffffffffffffffff167f8be0079c531659141344cd1fd0a4f28419497f9722a3daafe3b4186f6b6457e060405160405180910390a36200014f816200025f640100000000026401000000009004565b806200015a62000427565b808273ffffffffffffffffffffffffffffffffffffffff1673ffffffffffffffffffffffffffffffffffffffff168152602001915050604051809103906000f080158015620001ad573d6000803e3d6000fd5b50600360006101000a81548173ffffffffffffffffffffffffffffffffffffffff021916908373ffffffffffffffffffffffffffffffffffffffff1602179055505062000438565b62000219816000620002a264010000000002620023d8179091906401000000009004565b8073ffffffffffffffffffffffffffffffffffffffff167f6719d08c1888103bea251a4ed56406bd0c3e69723c8a1686e017e7bbe159b6f860405160405180910390a250565b620002793362000365640100000000026401000000009004565b15156200028557600080fd5b6200029f81620001f5640100000000026401000000009004565b50565b600073ffffffffffffffffffffffffffffffffffffffff168173ffffffffffffffffffffffffffffffffffffffff1614151515620002df57600080fd5b620002fa828262000392640100000000026401000000009004565b1515156200030757600080fd5b60018260000160008373ffffffffffffffffffffffffffffffffffffffff1673ffffffffffffffffffffffffffffffffffffffff16815260200190815260200160002060006101000a81548160ff0219169083151502179055505050565b60006200038b8260006200039264010000000002620020e7179091906401000000009004565b9050919050565b60008073ffffffffffffffffffffffffffffffffffffffff168273ffffffffffffffffffffffffffffffffffffffff1614151515620003d057600080fd5b8260000160008373ffffffffffffffffffffffffffffffffffffffff1673ffffffffffffffffffffffffffffffffffffffff16815260200190815260200160002060009054906101000a900460ff16905092915050565b604051610b36806200295f83390190565b61251780620004486000396000f3fe608060405260043610610107576000357c0100000000000000000000000000000000000000000000000000000000900463ffffffff168063196fe7b11461010c5780633f4ba83a1461014757806341986f3b1461015e57806346fbf68e1461019957806354a8bd07146102025780635b57a2ed146102cc5780635c975abb146103075780636ef8d66d14610336578063715018a61461034d5780637636ca6e1461036457806382dc1ec41461042e5780638456cb591461047f5780638da5cb5b146104965780638f32d59b146104ed5780638fa1aa4c1461051c578063900126f414610557578063a1a4ad58146105ae578063acf10d6a14610605578063f2fde38b14610680575b600080fd5b34801561011857600080fd5b506101456004803603602081101561012f57600080fd5b81019080803590602001909291905050506106d1565b005b34801561015357600080fd5b5061015c610c33565b005b34801561016a57600080fd5b506101976004803603602081101561018157600080fd5b8101908080359060200190929190505050610ce2565b005b3480156101a557600080fd5b506101e8600480360360208110156101bc57600080fd5b81019080803573ffffffffffffffffffffffffffffffffffffffff1690602001909291905050506110a3565b604051808215151515815260200191505060405180910390f35b34801561020e57600080fd5b5061023b6004803603602081101561022557600080fd5b81019080803590602001909291905050506110c0565b604051808581526020018473ffffffffffffffffffffffffffffffffffffffff1673ffffffffffffffffffffffffffffffffffffffff1681526020018373ffffffffffffffffffffffffffffffffffffffff1673ffffffffffffffffffffffffffffffffffffffff1681526020018260048111156102b557fe5b60ff16815260200194505050505060405180910390f35b3480156102d857600080fd5b50610305600480360360208110156102ef57600080fd5b8101908080359060200190929190505050611200565b005b34801561031357600080fd5b5061031c611506565b604051808215151515815260200191505060405180910390f35b34801561034257600080fd5b5061034b61151d565b005b34801561035957600080fd5b50610362611528565b005b34801561037057600080fd5b5061039d6004803603602081101561038757600080fd5b81019080803590602001909291905050506115fa565b604051808581526020018473ffffffffffffffffffffffffffffffffffffffff1673ffffffffffffffffffffffffffffffffffffffff1681526020018373ffffffffffffffffffffffffffffffffffffffff1673ffffffffffffffffffffffffffffffffffffffff16815260200182600481111561041757fe5b60ff16815260200194505050505060405180910390f35b34801561043a57600080fd5b5061047d6004803603602081101561045157600080fd5b81019080803573ffffffffffffffffffffffffffffffffffffffff169060200190929190505050611686565b005b34801561048b57600080fd5b506104946116a6565b005b3480156104a257600080fd5b506104ab611755565b604051808273ffffffffffffffffffffffffffffffffffffffff1673ffffffffffffffffffffffffffffffffffffffff16815260200191505060405180910390f35b3480156104f957600080fd5b5061050261177e565b604051808215151515815260200191505060405180910390f35b34801561052857600080fd5b506105556004803603602081101561053f57600080fd5b81019080803590602001909291905050506117d5565b005b34801561056357600080fd5b5061056c611b70565b604051808273ffffffffffffffffffffffffffffffffffffffff1673ffffffffffffffffffffffffffffffffffffffff16815260200191505060405180910390f35b3480156105ba57600080fd5b506105c3611b96565b604051808273ffffffffffffffffffffffffffffffffffffffff1673ffffffffffffffffffffffffffffffffffffffff16815260200191505060405180910390f35b34801561061157600080fd5b5061067e6004803603606081101561062857600080fd5b8101908080359060200190929190803573ffffffffffffffffffffffffffffffffffffffff169060200190929190803573ffffffffffffffffffffffffffffffffffffffff169060200190929190505050611c5c565b005b34801561068c57600080fd5b506106cf600480360360208110156106a357600080fd5b81019080803573ffffffffffffffffffffffffffffffffffffffff1690602001909291905050506120c8565b005b6002805490508110151561074d576040517f08c379a00000000000000000000000000000000000000000000000000000000081526004018080602001828103825260158152602001807f496e76616c6964206368616e6765206e756d626572000000000000000000000081525060200191505060405180910390fd5b600360009054906101000a900473ffffffffffffffffffffffffffffffffffffffff1673ffffffffffffffffffffffffffffffffffffffff1663b6db75a06040518163ffffffff167c010000000000000000000000000000000000000000000000000000000002815260040160206040518083038186803b1580156107d157600080fd5b505afa1580156107e5573d6000803e3d6000fd5b505050506040513d60208110156107fb57600080fd5b810190808051906020019092919050505015156108a6576040517f08c379a000000000000000000000000000000000000000000000000000000000815260040180806020018281038252603b8152602001807f41206d7564616ec3a7612073c3b320706f64652073657220657865637574616481526020017f612070656c6f2061646d696e20646120676f7665726e616ec3a761000000000081525060400191505060405180910390fd5b6108ae612488565b6002828154811015156108bd57fe5b906000526020600020906003020160806040519081016040529081600082015481526020016001820160009054906101000a900473ffffffffffffffffffffffffffffffffffffffff1673ffffffffffffffffffffffffffffffffffffffff1673ffffffffffffffffffffffffffffffffffffffff1681526020016002820160009054906101000a900473ffffffffffffffffffffffffffffffffffffffff1673ffffffffffffffffffffffffffffffffffffffff1673ffffffffffffffffffffffffffffffffffffffff1681526020016002820160149054906101000a900460ff1660048111156109ab57fe5b60048111156109b657fe5b815250509050600160048111156109c957fe5b816060015160048111156109d957fe5b141515610a74576040517f08c379a000000000000000000000000000000000000000000000000000000000815260040180806020018281038252602b8152602001807f41206d7564616ec3a7612070726563697361206573746172206e6f206573746181526020017f646f206170726f7661646100000000000000000000000000000000000000000081525060400191505060405180910390fd5b600081602001519050600360009054906101000a900473ffffffffffffffffffffffffffffffffffffffff1673ffffffffffffffffffffffffffffffffffffffff166311a1c423826040518263ffffffff167c0100000000000000000000000000000000000000000000000000000000028152600401808273ffffffffffffffffffffffffffffffffffffffff1673ffffffffffffffffffffffffffffffffffffffff168152602001915050600060405180830381600087803b158015610b3a57600080fd5b505af1158015610b4e573d6000803e3d6000fd5b5050505060008190508073ffffffffffffffffffffffffffffffffffffffff1663d55ec6976040518163ffffffff167c0100000000000000000000000000000000000000000000000000000000028152600401600060405180830381600087803b158015610bbb57600080fd5b505af1158015610bcf573d6000803e3d6000fd5b50505050600483606001906004811115610be557fe5b90816004811115610bf257fe5b815250507f917059c1f4e69f15a941c78efb433b9957e94aceae99b068787c32e18c4a9b8d846040518082815260200191505060405180910390a150505050565b610c3c336110a3565b1515610c4757600080fd5b600160009054906101000a900460ff161515610c6257600080fd5b6000600160006101000a81548160ff0219169083151502179055507f5db9ee0a495bf2e6ff9c91a7834c1ba4fdd244a5e8aa4e537bd38aeae4b073aa33604051808273ffffffffffffffffffffffffffffffffffffffff1673ffffffffffffffffffffffffffffffffffffffff16815260200191505060405180910390a1565b60028054905081101515610d5e576040517f08c379a00000000000000000000000000000000000000000000000000000000081526004018080602001828103825260158152602001807f496e76616c6964206368616e6765206e756d626572000000000000000000000081525060200191505060405180910390fd5b610d66612488565b600282815481101515610d7557fe5b906000526020600020906003020160806040519081016040529081600082015481526020016001820160009054906101000a900473ffffffffffffffffffffffffffffffffffffffff1673ffffffffffffffffffffffffffffffffffffffff1673ffffffffffffffffffffffffffffffffffffffff1681526020016002820160009054906101000a900473ffffffffffffffffffffffffffffffffffffffff1673ffffffffffffffffffffffffffffffffffffffff1673ffffffffffffffffffffffffffffffffffffffff1681526020016002820160149054906101000a900460ff166004811115610e6357fe5b6004811115610e6e57fe5b81525050905060006004811115610e8157fe5b81606001516004811115610e9157fe5b141515610f52576040517f08c379a00000000000000000000000000000000000000000000000000000000081526004018080602001828103825260448152602001807f41206d7564616ec3a7612070726563697361206573746172206e6f206573746181526020017f646f20646520657370657261206461206465636973c3a36f206461206d75646181526020017f6ec3a7610000000000000000000000000000000000000000000000000000000081525060600191505060405180910390fd5b3373ffffffffffffffffffffffffffffffffffffffff16816040015173ffffffffffffffffffffffffffffffffffffffff16141515611045576040517f08c379a00000000000000000000000000000000000000000000000000000000081526004018080602001828103825260478152602001807f41206170726f7661c3a7c3a36f207072656369736120736572206368616d616481526020017f612070656c6f20636f6e747261746f206465206465636973c3a36f206461206d81526020017f7564616ec3a7610000000000000000000000000000000000000000000000000081525060600191505060405180910390fd5b60028160600190600481111561105757fe5b9081600481111561106457fe5b815250507ff1a8ffd21fe9ef7be34e0f4bf577d3bf31ce3c19c68d2c046d22275cb8b715f4826040518082815260200191505060405180910390a15050565b60006110b98260006120e790919063ffffffff16565b9050919050565b6000806000806110ce612488565b6002868154811015156110dd57fe5b906000526020600020906003020160806040519081016040529081600082015481526020016001820160009054906101000a900473ffffffffffffffffffffffffffffffffffffffff1673ffffffffffffffffffffffffffffffffffffffff1673ffffffffffffffffffffffffffffffffffffffff1681526020016002820160009054906101000a900473ffffffffffffffffffffffffffffffffffffffff1673ffffffffffffffffffffffffffffffffffffffff1673ffffffffffffffffffffffffffffffffffffffff1681526020016002820160149054906101000a900460ff1660048111156111cb57fe5b60048111156111d657fe5b81525050905080600001518160200151826040015183606001519450945094509450509193509193565b61120861177e565b151561121357600080fd5b6002805490508110151561128f576040517f08c379a00000000000000000000000000000000000000000000000000000000081526004018080602001828103825260158152602001807f496e76616c6964206368616e6765206e756d626572000000000000000000000081525060200191505060405180910390fd5b611297612488565b6002828154811015156112a657fe5b906000526020600020906003020160806040519081016040529081600082015481526020016001820160009054906101000a900473ffffffffffffffffffffffffffffffffffffffff1673ffffffffffffffffffffffffffffffffffffffff1673ffffffffffffffffffffffffffffffffffffffff1681526020016002820160009054906101000a900473ffffffffffffffffffffffffffffffffffffffff1673ffffffffffffffffffffffffffffffffffffffff1673ffffffffffffffffffffffffffffffffffffffff1681526020016002820160149054906101000a900460ff16600481111561139457fe5b600481111561139f57fe5b815250509050600060048111156113b257fe5b816060015160048111156113c257fe5b14806113e85750600160048111156113d657fe5b816060015160048111156113e657fe5b145b15156114a8576040517f08c379a00000000000000000000000000000000000000000000000000000000081526004018080602001828103825260508152602001807f41206d7564616ec3a7612070726563697361206573746172206e6f206573746181526020017f646f20646520657370657261206461206465636973c3a36f206461206d75646181526020017f6ec3a761206f75206170726f766164610000000000000000000000000000000081525060600191505060405180910390fd5b6003816060019060048111156114ba57fe5b908160048111156114c757fe5b815250507f5edd520c0103960fbe1e1fc55ae80c123b61704fa2429473cef253e3c90ae27e826040518082815260200191505060405180910390a15050565b6000600160009054906101000a900460ff16905090565b6115263361217b565b565b61153061177e565b151561153b57600080fd5b600073ffffffffffffffffffffffffffffffffffffffff166001809054906101000a900473ffffffffffffffffffffffffffffffffffffffff1673ffffffffffffffffffffffffffffffffffffffff167f8be0079c531659141344cd1fd0a4f28419497f9722a3daafe3b4186f6b6457e060405160405180910390a360006001806101000a81548173ffffffffffffffffffffffffffffffffffffffff021916908373ffffffffffffffffffffffffffffffffffffffff160217905550565b60028181548110151561160957fe5b90600052602060002090600302016000915090508060000154908060010160009054906101000a900473ffffffffffffffffffffffffffffffffffffffff16908060020160009054906101000a900473ffffffffffffffffffffffffffffffffffffffff16908060020160149054906101000a900460ff16905084565b61168f336110a3565b151561169a57600080fd5b6116a3816121d5565b50565b6116af336110a3565b15156116ba57600080fd5b600160009054906101000a900460ff161515156116d657600080fd5b60018060006101000a81548160ff0219169083151502179055507f62e78cea01bee320cd4e420270b5ea74000d11b0c9f74754ebdbfc544b05a25833604051808273ffffffffffffffffffffffffffffffffffffffff1673ffffffffffffffffffffffffffffffffffffffff16815260200191505060405180910390a1565b60006001809054906101000a900473ffffffffffffffffffffffffffffffffffffffff16905090565b60006001809054906101000a900473ffffffffffffffffffffffffffffffffffffffff1673ffffffffffffffffffffffffffffffffffffffff163373ffffffffffffffffffffffffffffffffffffffff1614905090565b60028054905081101515611851576040517f08c379a00000000000000000000000000000000000000000000000000000000081526004018080602001828103825260158152602001807f496e76616c6964206368616e6765206e756d626572000000000000000000000081525060200191505060405180910390fd5b611859612488565b60028281548110151561186857fe5b906000526020600020906003020160806040519081016040529081600082015481526020016001820160009054906101000a900473ffffffffffffffffffffffffffffffffffffffff1673ffffffffffffffffffffffffffffffffffffffff1673ffffffffffffffffffffffffffffffffffffffff1681526020016002820160009054906101000a900473ffffffffffffffffffffffffffffffffffffffff1673ffffffffffffffffffffffffffffffffffffffff1673ffffffffffffffffffffffffffffffffffffffff1681526020016002820160149054906101000a900460ff16600481111561195657fe5b600481111561196157fe5b8152505090506000600481111561197457fe5b8160600151600481111561198457fe5b141515611a1f576040517f08c379a000000000000000000000000000000000000000000000000000000000815260040180806020018281038252602a8152602001807f41206d7564616ec3a7612070726563697361206573746172206e6f206573746181526020017f646f2057414954494e470000000000000000000000000000000000000000000081525060400191505060405180910390fd5b3373ffffffffffffffffffffffffffffffffffffffff16816040015173ffffffffffffffffffffffffffffffffffffffff16141515611b12576040517f08c379a00000000000000000000000000000000000000000000000000000000081526004018080602001828103825260478152602001807f41206170726f7661c3a7c3a36f207072656369736120736572206368616d616481526020017f612070656c6f20636f6e747261746f206465206465636973c3a36f206461206d81526020017f7564616ec3a7610000000000000000000000000000000000000000000000000081525060600191505060405180910390fd5b600181606001906004811115611b2457fe5b90816004811115611b3157fe5b815250507ff6c7f9b41b46dcd0ed5e8a9b5ea016cc15493d731db259a2efb7dd055af86684826040518082815260200191505060405180910390a15050565b600360009054906101000a900473ffffffffffffffffffffffffffffffffffffffff1681565b6000600360009054906101000a900473ffffffffffffffffffffffffffffffffffffffff1673ffffffffffffffffffffffffffffffffffffffff1663eff2dcc66040518163ffffffff167c010000000000000000000000000000000000000000000000000000000002815260040160206040518083038186803b158015611c1c57600080fd5b505afa158015611c30573d6000803e3d6000fd5b505050506040513d6020811015611c4657600080fd5b8101908080519060200190929190505050905090565b611c6461177e565b1515611c6f57600080fd5b60006002805490509050611c81612488565b600073ffffffffffffffffffffffffffffffffffffffff168373ffffffffffffffffffffffffffffffffffffffff16141515611e70576080604051908101604052808681526020018573ffffffffffffffffffffffffffffffffffffffff1681526020018473ffffffffffffffffffffffffffffffffffffffff16815260200160006004811115611d0e57fe5b81525090507f6cf14efcf5b851aa9027077db35ddf65e974cb66ab3e50ffcd08b3721a7e455b82868686604051808581526020018481526020018373ffffffffffffffffffffffffffffffffffffffff1673ffffffffffffffffffffffffffffffffffffffff1681526020018273ffffffffffffffffffffffffffffffffffffffff1673ffffffffffffffffffffffffffffffffffffffff16815260200194505050505060405180910390a160008390508073ffffffffffffffffffffffffffffffffffffffff1663ae019ae0846040518263ffffffff167c010000000000000000000000000000000000000000000000000000000002815260040180828152602001915050602060405180830381600087803b158015611e2e57600080fd5b505af1158015611e42573d6000803e3d6000fd5b505050506040513d6020811015611e5857600080fd5b81019080805190602001909291905050505050611fcf565b6080604051908101604052808681526020018573ffffffffffffffffffffffffffffffffffffffff168152602001600073ffffffffffffffffffffffffffffffffffffffff16815260200160016004811115611ec857fe5b81525090507f6cf14efcf5b851aa9027077db35ddf65e974cb66ab3e50ffcd08b3721a7e455b82868686604051808581526020018481526020018373ffffffffffffffffffffffffffffffffffffffff1673ffffffffffffffffffffffffffffffffffffffff1681526020018273ffffffffffffffffffffffffffffffffffffffff1673ffffffffffffffffffffffffffffffffffffffff16815260200194505050505060405180910390a1600181606001906004811115611f8657fe5b90816004811115611f9357fe5b815250507ff6c7f9b41b46dcd0ed5e8a9b5ea016cc15493d731db259a2efb7dd055af86684826040518082815260200191505060405180910390a15b600281908060018154018082558091505090600182039060005260206000209060030201600090919290919091506000820151816000015560208201518160010160006101000a81548173ffffffffffffffffffffffffffffffffffffffff021916908373ffffffffffffffffffffffffffffffffffffffff16021790555060408201518160020160006101000a81548173ffffffffffffffffffffffffffffffffffffffff021916908373ffffffffffffffffffffffffffffffffffffffff16021790555060608201518160020160146101000a81548160ff021916908360048111156120b957fe5b02179055505050505050505050565b6120d061177e565b15156120db57600080fd5b6120e48161222f565b50565b60008073ffffffffffffffffffffffffffffffffffffffff168273ffffffffffffffffffffffffffffffffffffffff161415151561212457600080fd5b8260000160008373ffffffffffffffffffffffffffffffffffffffff1673ffffffffffffffffffffffffffffffffffffffff16815260200190815260200160002060009054906101000a900460ff16905092915050565b61218f81600061232990919063ffffffff16565b8073ffffffffffffffffffffffffffffffffffffffff167fcd265ebaf09df2871cc7bd4133404a235ba12eff2041bb89d9c714a2621c7c7e60405160405180910390a250565b6121e98160006123d890919063ffffffff16565b8073ffffffffffffffffffffffffffffffffffffffff167f6719d08c1888103bea251a4ed56406bd0c3e69723c8a1686e017e7bbe159b6f860405160405180910390a250565b600073ffffffffffffffffffffffffffffffffffffffff168173ffffffffffffffffffffffffffffffffffffffff161415151561226b57600080fd5b8073ffffffffffffffffffffffffffffffffffffffff166001809054906101000a900473ffffffffffffffffffffffffffffffffffffffff1673ffffffffffffffffffffffffffffffffffffffff167f8be0079c531659141344cd1fd0a4f28419497f9722a3daafe3b4186f6b6457e060405160405180910390a3806001806101000a81548173ffffffffffffffffffffffffffffffffffffffff021916908373ffffffffffffffffffffffffffffffffffffffff16021790555050565b600073ffffffffffffffffffffffffffffffffffffffff168173ffffffffffffffffffffffffffffffffffffffff161415151561236557600080fd5b61236f82826120e7565b151561237a57600080fd5b60008260000160008373ffffffffffffffffffffffffffffffffffffffff1673ffffffffffffffffffffffffffffffffffffffff16815260200190815260200160002060006101000a81548160ff0219169083151502179055505050565b600073ffffffffffffffffffffffffffffffffffffffff168173ffffffffffffffffffffffffffffffffffffffff161415151561241457600080fd5b61241e82826120e7565b15151561242a57600080fd5b60018260000160008373ffffffffffffffffffffffffffffffffffffffff1673ffffffffffffffffffffffffffffffffffffffff16815260200190815260200160002060006101000a81548160ff0219169083151502179055505050565b60806040519081016040528060008019168152602001600073ffffffffffffffffffffffffffffffffffffffff168152602001600073ffffffffffffffffffffffffffffffffffffffff168152602001600060048111156124e557fe5b8152509056fea165627a7a72305820fa60fbb6c778adc08d4b71d58f45d7f09ad868b19ccaeede6af3f1d65e42b8500029608060405234801561001057600080fd5b50604051602080610b368339810180604052602081101561003057600080fd5b8101908080519060200190929190505050336000806101000a81548173ffffffffffffffffffffffffffffffffffffffff021916908373ffffffffffffffffffffffffffffffffffffffff1602179055506000809054906101000a900473ffffffffffffffffffffffffffffffffffffffff1673ffffffffffffffffffffffffffffffffffffffff16600073ffffffffffffffffffffffffffffffffffffffff167f8be0079c531659141344cd1fd0a4f28419497f9722a3daafe3b4186f6b6457e060405160405180910390a38073ffffffffffffffffffffffffffffffffffffffff16600260009054906101000a900473ffffffffffffffffffffffffffffffffffffffff1673ffffffffffffffffffffffffffffffffffffffff167f7e644d79422f17c01e4894b5f4f588d331ebfa28653d42ae832dc59e38c9798f60405160405180910390a380600260006101000a81548173ffffffffffffffffffffffffffffffffffffffff021916908373ffffffffffffffffffffffffffffffffffffffff1602179055505061096c806101ca6000396000f3fe6080604052600436106100af576000357c0100000000000000000000000000000000000000000000000000000000900463ffffffff16806306a87ed4146100b457806311a1c423146100cb57806341a28df61461011c5780636d645b441461016d578063715018a6146101c45780638da5cb5b146101db5780638f32d59b1461023257806396a0604a14610261578063b6db75a014610290578063eff2dcc6146102bf578063f2fde38b14610316575b600080fd5b3480156100c057600080fd5b506100c9610367565b005b3480156100d757600080fd5b5061011a600480360360208110156100ee57600080fd5b81019080803573ffffffffffffffffffffffffffffffffffffffff169060200190929190505050610386565b005b34801561012857600080fd5b5061016b6004803603602081101561013f57600080fd5b81019080803573ffffffffffffffffffffffffffffffffffffffff169060200190929190505050610459565b005b34801561017957600080fd5b506101826105d1565b604051808273ffffffffffffffffffffffffffffffffffffffff1673ffffffffffffffffffffffffffffffffffffffff16815260200191505060405180910390f35b3480156101d057600080fd5b506101d96105fb565b005b3480156101e757600080fd5b506101f06106cd565b604051808273ffffffffffffffffffffffffffffffffffffffff1673ffffffffffffffffffffffffffffffffffffffff16815260200191505060405180910390f35b34801561023e57600080fd5b506102476106f6565b604051808215151515815260200191505060405180910390f35b34801561026d57600080fd5b5061027661074d565b604051808215151515815260200191505060405180910390f35b34801561029c57600080fd5b506102a56107a5565b604051808215151515815260200191505060405180910390f35b3480156102cb57600080fd5b506102d46107fd565b604051808273ffffffffffffffffffffffffffffffffffffffff1673ffffffffffffffffffffffffffffffffffffffff16815260200191505060405180910390f35b34801561032257600080fd5b506103656004803603602081101561033957600080fd5b81019080803573ffffffffffffffffffffffffffffffffffffffff169060200190929190505050610827565b005b61036f6106f6565b151561037a57600080fd5b6103846000610386565b565b61038e6106f6565b151561039957600080fd5b8073ffffffffffffffffffffffffffffffffffffffff16600160009054906101000a900473ffffffffffffffffffffffffffffffffffffffff1673ffffffffffffffffffffffffffffffffffffffff167f9cc0fca95bdc66b57e27ff56ce70619d6c76e891759b10768345411032913ecf60405160405180910390a380600160006101000a81548173ffffffffffffffffffffffffffffffffffffffff021916908373ffffffffffffffffffffffffffffffffffffffff16021790555050565b6104616106f6565b151561046c57600080fd5b600073ffffffffffffffffffffffffffffffffffffffff168173ffffffffffffffffffffffffffffffffffffffff1614151515610511576040517f08c379a000000000000000000000000000000000000000000000000000000000815260040180806020018281038252601e8152602001807f4e657741646472206973206e6f7420612076616c69642061646472657373000081525060200191505060405180910390fd5b8073ffffffffffffffffffffffffffffffffffffffff16600260009054906101000a900473ffffffffffffffffffffffffffffffffffffffff1673ffffffffffffffffffffffffffffffffffffffff167f7e644d79422f17c01e4894b5f4f588d331ebfa28653d42ae832dc59e38c9798f60405160405180910390a380600260006101000a81548173ffffffffffffffffffffffffffffffffffffffff021916908373ffffffffffffffffffffffffffffffffffffffff16021790555050565b6000600260009054906101000a900473ffffffffffffffffffffffffffffffffffffffff16905090565b6106036106f6565b151561060e57600080fd5b600073ffffffffffffffffffffffffffffffffffffffff166000809054906101000a900473ffffffffffffffffffffffffffffffffffffffff1673ffffffffffffffffffffffffffffffffffffffff167f8be0079c531659141344cd1fd0a4f28419497f9722a3daafe3b4186f6b6457e060405160405180910390a360008060006101000a81548173ffffffffffffffffffffffffffffffffffffffff021916908373ffffffffffffffffffffffffffffffffffffffff160217905550565b60008060009054906101000a900473ffffffffffffffffffffffffffffffffffffffff16905090565b60008060009054906101000a900473ffffffffffffffffffffffffffffffffffffffff1673ffffffffffffffffffffffffffffffffffffffff163373ffffffffffffffffffffffffffffffffffffffff1614905090565b6000600160009054906101000a900473ffffffffffffffffffffffffffffffffffffffff1673ffffffffffffffffffffffffffffffffffffffff163373ffffffffffffffffffffffffffffffffffffffff1614905090565b6000600260009054906101000a900473ffffffffffffffffffffffffffffffffffffffff1673ffffffffffffffffffffffffffffffffffffffff163373ffffffffffffffffffffffffffffffffffffffff1614905090565b6000600160009054906101000a900473ffffffffffffffffffffffffffffffffffffffff16905090565b61082f6106f6565b151561083a57600080fd5b61084381610846565b50565b600073ffffffffffffffffffffffffffffffffffffffff168173ffffffffffffffffffffffffffffffffffffffff161415151561088257600080fd5b8073ffffffffffffffffffffffffffffffffffffffff166000809054906101000a900473ffffffffffffffffffffffffffffffffffffffff1673ffffffffffffffffffffffffffffffffffffffff167f8be0079c531659141344cd1fd0a4f28419497f9722a3daafe3b4186f6b6457e060405160405180910390a3806000806101000a81548173ffffffffffffffffffffffffffffffffffffffff021916908373ffffffffffffffffffffffffffffffffffffffff1602179055505056fea165627a7a72305820af3f74b915b62b92ac4cef4ac5909e469493559d14b3a9040065cd74c6f76a450029",
  "source": "pragma solidity ^0.5.0;\r\n\r\nimport \"openzeppelin-solidity/contracts/ownership/Ownable.sol\";\r\nimport \"openzeppelin-solidity/contracts/lifecycle/Pausable.sol\";\r\nimport \"./GovernanceDecision.sol\";\r\nimport \"./UpgraderInfo.sol\";\r\nimport \"./Upgrader.sol\";\r\n\r\n\r\ncontract Governance is Pausable, Ownable() {\r\n\r\n    enum ChangeState { WAITING, APPROVED, DISAPPROVED, CANCELED, FINISHED }\r\n\r\n    struct ChangeDataStructure {\r\n        \r\n        //Hash of the change motivation\r\n        bytes32 hashChangeMotivation;\r\n        \r\n        //Address of upgrader contract\r\n        address upgraderContractAddr;\r\n\r\n        //Address of decision contract (if necessary)\r\n        address decisionContractAddr;\r\n\r\n        ChangeState changeState;\r\n    }\r\n\r\n    ChangeDataStructure[] public governingChanges;\r\n\r\n    UpgraderInfo public upgraderInfo;\r\n\r\n    constructor (address adminOfNewContractsAddr) public {\r\n        addPauser(adminOfNewContractsAddr);\r\n        upgraderInfo = new UpgraderInfo(adminOfNewContractsAddr);\r\n    }\r\n\r\n    function getUpgraderInfoAddr() public view returns (address) {\r\n        return upgraderInfo.getAllowedUpgraderAddr();\r\n    }\r\n\r\n    event NewChangeCreated(uint changeNumber, bytes32 hashChangeMotivation, address upgraderContractAddr,\r\n            address decisionContractAddr);\r\n    event ChangeApproved(uint changeNumber);\r\n    event ChangeExecuted(uint changeNumber);\r\n    event ChangeDisapproved(uint changeNumber);\r\n    event ChangeCancelled(uint changeNumber);\r\n    \r\n\r\n    function createNewChange (bytes32 hashChangeMotivation, address upgraderContractAddr,\r\n            address decisionContractAddr) public onlyOwner {\r\n            \r\n            uint changeNumber = governingChanges.length;\r\n\r\n            //TODO: avaliar se  storage ou memory\r\n            ChangeDataStructure memory cds;\r\n            if (decisionContractAddr != address(0)) {\r\n                cds = ChangeDataStructure(hashChangeMotivation, upgraderContractAddr,\r\n                        decisionContractAddr, ChangeState.WAITING);\r\n                emit NewChangeCreated(changeNumber, hashChangeMotivation, upgraderContractAddr, decisionContractAddr);\r\n                GovernanceDecision governanceDecision = GovernanceDecision(decisionContractAddr);\r\n                governanceDecision.setChangeNumber(changeNumber);\r\n\r\n            }\r\n            else { //The owner decided by itself\r\n                cds = ChangeDataStructure(hashChangeMotivation, upgraderContractAddr,\r\n                                    address(0), ChangeState.APPROVED);\r\n                emit NewChangeCreated(changeNumber, hashChangeMotivation, upgraderContractAddr, decisionContractAddr);\r\n                cds.changeState = ChangeState.APPROVED;\r\n                emit ChangeApproved(changeNumber);\r\n\r\n            }\r\n            governingChanges.push(cds);\r\n            \r\n    }\r\n\r\n    function approveChangeWithDecisionContract (uint changeNumber) public {\r\n\r\n        require (changeNumber<governingChanges.length, \"Invalid change number\");\r\n        \r\n        ChangeDataStructure memory cds = governingChanges[changeNumber];\r\n\r\n        require(cds.changeState==ChangeState.WAITING, \"A mudana precisa estar no estado WAITING\");\r\n        \r\n        require(cds.decisionContractAddr==msg.sender, \"A aprovao precisa ser chamada pelo contrato de deciso da mudana\");\r\n\r\n        cds.changeState = ChangeState.APPROVED;\r\n\r\n        emit ChangeApproved(changeNumber);\r\n    }\r\n\r\n    function denyChangeWithDecisionContract (uint changeNumber) public {\r\n\r\n        require (changeNumber<governingChanges.length, \"Invalid change number\");\r\n\r\n        ChangeDataStructure memory cds = governingChanges[changeNumber];\r\n\r\n        require(cds.changeState==ChangeState.WAITING, \"A mudana precisa estar no estado de espera da deciso da mudana\");\r\n        \r\n        require(cds.decisionContractAddr==msg.sender, \"A aprovao precisa ser chamada pelo contrato de deciso da mudana\");\r\n\r\n        cds.changeState = ChangeState.DISAPPROVED;\r\n\r\n        emit ChangeDisapproved(changeNumber);\r\n    }\r\n\r\n\r\n    function executeChange (uint changeNumber) public {\r\n\r\n        require (changeNumber<governingChanges.length, \"Invalid change number\");\r\n\r\n        require (upgraderInfo.isAdmin(), \"A mudana s pode ser executada pelo admin da governana\");\r\n\r\n        ChangeDataStructure memory cds = governingChanges[changeNumber];\r\n\r\n        require(cds.changeState==ChangeState.APPROVED, \"A mudana precisa estar no estado aprovada\");\r\n\r\n        address upgraderContractAddr = cds.upgraderContractAddr;\r\n        upgraderInfo.setAllowedUpgrader(upgraderContractAddr);\r\n        Upgrader upgrader = Upgrader(upgraderContractAddr);\r\n        upgrader.upgrade();\r\n\r\n        cds.changeState = ChangeState.FINISHED;\r\n\r\n        emit ChangeExecuted(changeNumber);\r\n    }\r\n\r\n\r\n    function cancelChange (uint changeNumber) public onlyOwner {\r\n\r\n        require (changeNumber<governingChanges.length, \"Invalid change number\");\r\n\r\n        ChangeDataStructure memory cds = governingChanges[changeNumber];\r\n\r\n        require(cds.changeState==ChangeState.WAITING || cds.changeState==ChangeState.APPROVED,\r\n            \"A mudana precisa estar no estado de espera da deciso da mudana ou aprovada\");\r\n\r\n        cds.changeState = ChangeState.CANCELED;\r\n\r\n        //TODO: cancelar no contrato de deciso\r\n\r\n        emit ChangeCancelled(changeNumber);\r\n    }\r\n\r\n    function getChange(uint changeNumber) public view returns (bytes32, address, address, ChangeState) {\r\n        ChangeDataStructure memory cds = governingChanges[changeNumber];\r\n        return (cds.hashChangeMotivation, cds.upgraderContractAddr, cds.decisionContractAddr, cds.changeState);\r\n    }\r\n\r\n\r\n }",
  "sourcePath": "D:\\Workspace\\bndestoken\\Back-Blockchain-Upgrade\\contracts\\Governance.sol",
  "compiler": {
    "name": "solc",
    "version": "0.5.0+commit.1d4f565a.Emscripten.clang"
  },
  "schemaVersion": "3.0.5",
  "updatedAt": "2019-09-19T19:13:06.433Z",
  "devdoc": {
    "methods": {
      "isOwner()": {
        "return": "true if `msg.sender` is the owner of the contract."
      },
      "owner()": {
        "return": "the address of the owner."
      },
      "pause()": {
        "details": "called by the owner to pause, triggers stopped state"
      },
      "paused()": {
        "return": "true if the contract is paused, false otherwise."
      },
      "renounceOwnership()": {
        "details": "Allows the current owner to relinquish control of the contract."
      },
      "transferOwnership(address)": {
        "details": "Allows the current owner to transfer control of the contract to a newOwner.",
        "params": {
          "newOwner": "The address to transfer ownership to."
        }
      },
      "unpause()": {
        "details": "called by the owner to unpause, returns to normal state"
      }
    }
  },
  "userdoc": {
    "methods": {
      "renounceOwnership()": {
        "notice": "Renouncing to ownership will leave the contract without an owner. It will not be possible to call the functions with the `onlyOwner` modifier anymore."
      }
    }
  }
}