{
  "contractName": "LegalEntityMapping",
  "abi": [
    {
      "inputs": [
        {
          "name": "storageContractAddr",
          "type": "address"
        }
      ],
      "payable": false,
      "stateMutability": "nonpayable",
      "type": "constructor"
    },
    {
      "constant": false,
      "inputs": [
        {
          "name": "newAddr",
          "type": "address"
        }
      ],
      "name": "setAddrLegalEntity",
      "outputs": [],
      "payable": false,
      "stateMutability": "nonpayable",
      "type": "function"
    },
    {
      "constant": true,
      "inputs": [],
      "name": "getCNPJ",
      "outputs": [
        {
          "name": "",
          "type": "uint256"
        }
      ],
      "payable": false,
      "stateMutability": "view",
      "type": "function"
    },
    {
      "constant": false,
      "inputs": [
        {
          "name": "cnpj",
          "type": "uint256"
        }
      ],
      "name": "setCNPJ",
      "outputs": [],
      "payable": false,
      "stateMutability": "nonpayable",
      "type": "function"
    }
  ],
  "bytecode": "0x608060405234801561001057600080fd5b506040516020806105488339810180604052602081101561003057600080fd5b8101908080519060200190929190505050806000806101000a81548173ffffffffffffffffffffffffffffffffffffffff021916908373ffffffffffffffffffffffffffffffffffffffff160217905550506104b7806100916000396000f3fe608060405260043610610057576000357c0100000000000000000000000000000000000000000000000000000000900463ffffffff1680637a0be7ba1461005c578063c802f1b414610097578063d2786d0f146100c2575b600080fd5b34801561006857600080fd5b506100956004803603602081101561007f57600080fd5b8101908080359060200190929190505050610113565b005b3480156100a357600080fd5b506100ac61029f565b6040518082815260200191505060405180910390f35b3480156100ce57600080fd5b50610111600480360360208110156100e557600080fd5b81019080803573ffffffffffffffffffffffffffffffffffffffff169060200190929190505050610447565b005b6000600160009054906101000a900473ffffffffffffffffffffffffffffffffffffffff1660405160200180807f4c6567616c456e74697479496e666f0000000000000000000000000000000000815250600f018273ffffffffffffffffffffffffffffffffffffffff1673ffffffffffffffffffffffffffffffffffffffff166c01000000000000000000000000028152601401807f636e706a000000000000000000000000000000000000000000000000000000008152506004019150506040516020818303038152906040528051906020012090506000809054906101000a900473ffffffffffffffffffffffffffffffffffffffff1673ffffffffffffffffffffffffffffffffffffffff1663e2a4853a82846040518363ffffffff167c01000000000000000000000000000000000000000000000000000000000281526004018083815260200182815260200192505050600060405180830381600087803b15801561028357600080fd5b505af1158015610297573d6000803e3d6000fd5b505050505050565b600080600160009054906101000a900473ffffffffffffffffffffffffffffffffffffffff1660405160200180807f4c6567616c456e74697479496e666f0000000000000000000000000000000000815250600f018273ffffffffffffffffffffffffffffffffffffffff1673ffffffffffffffffffffffffffffffffffffffff166c01000000000000000000000000028152601401807f636e706a000000000000000000000000000000000000000000000000000000008152506004019150506040516020818303038152906040528051906020012090506000809054906101000a900473ffffffffffffffffffffffffffffffffffffffff1673ffffffffffffffffffffffffffffffffffffffff1663bd02d0f5826040518263ffffffff167c01000000000000000000000000000000000000000000000000000000000281526004018082815260200191505060206040518083038186803b15801561040657600080fd5b505afa15801561041a573d6000803e3d6000fd5b505050506040513d602081101561043057600080fd5b810190808051906020019092919050505091505090565b80600160006101000a81548173ffffffffffffffffffffffffffffffffffffffff021916908373ffffffffffffffffffffffffffffffffffffffff1602179055505056fea165627a7a72305820472d5a867db4a99781532ebdbacb09e28f185b0b2f95a24eb2358a6a53d8f84a0029",
  "source": "pragma solidity ^0.5.0;\r\n\r\nimport \"./Storage.sol\";\r\n\r\n/*\r\n\r\n    struct LegalEntityInfo {\r\n        uint64 cnpj; //Brazilian identification of legal entity\r\n        todo: add other attributes \r\n    } \r\n    //Links Ethereum addresses to LegalEntityInfo        \r\n    mapping(address => LegalEntityInfo) public legalEntitiesInfo;\r\n\r\n*/\r\n\r\ncontract LegalEntityMapping {\r\n\r\n    Storage storageContract;\r\n    address addrLegalEntity;\r\n\r\n    constructor (address storageContractAddr) public {\r\n        storageContract = Storage(storageContractAddr); \r\n    }\r\n\r\n    function setAddrLegalEntity(address newAddr) public {\r\n        addrLegalEntity = newAddr;\r\n    }\r\n\r\n    function getCNPJ() view public returns (uint) {\r\n        bytes32 key = keccak256(abi.encodePacked(\"LegalEntityInfo\",addrLegalEntity,\"cnpj\"));\r\n        return storageContract.getUint(key);\r\n    }\r\n\r\n    function setCNPJ(uint cnpj) public {\r\n        bytes32 key = keccak256(abi.encodePacked(\"LegalEntityInfo\",addrLegalEntity,\"cnpj\"));\r\n        storageContract.setUint(key, cnpj);\r\n    }\r\n\r\n}",
  "sourcePath": "D:\\Workspace\\bndestoken\\Back-Blockchain-Upgrade\\contracts\\LegalEntityMapping.sol",
  "compiler": {
    "name": "solc",
    "version": "0.5.0+commit.1d4f565a.Emscripten.clang"
  },
  "schemaVersion": "3.0.5",
  "updatedAt": "2019-09-12T18:41:01.901Z",
  "devdoc": {
    "methods": {}
  },
  "userdoc": {
    "methods": {}
  }
}