{
  "contractName": "PreUpgrader1",
  "abi": [
    {
      "inputs": [
        {
          "name": "ownerOfGovernanceAddr",
          "type": "address"
        },
        {
          "name": "adminOfNewContractsAddr",
          "type": "address"
        },
        {
          "name": "governanceMembersId",
          "type": "uint256[]"
        }
      ],
      "payable": false,
      "stateMutability": "nonpayable",
      "type": "constructor"
    },
    {
      "constant": true,
      "inputs": [],
      "name": "governanceAddr",
      "outputs": [
        {
          "name": "",
          "type": "address"
        }
      ],
      "payable": false,
      "stateMutability": "view",
      "type": "function"
    }
  ],
  "bytecode": "0x608060405234801561001057600080fd5b506040516146cf3803806146cf8339810180604052606081101561003357600080fd5b810190808051906020019092919080519060200190929190805164010000000081111561005f57600080fd5b8281019050602081018481111561007557600080fd5b815185602082028301116401000000008211171561009257600080fd5b5050929190505050600082826100a6610457565b808373ffffffffffffffffffffffffffffffffffffffff1673ffffffffffffffffffffffffffffffffffffffff16815260200180602001828103825283818151815260200191508051906020019060200280838360005b838110156101185780820151818401526020810190506100fd565b505050509050019350505050604051809103906000f080158015610140573d6000803e3d6000fd5b5090508073ffffffffffffffffffffffffffffffffffffffff166382dc1ec4856040518263ffffffff167c0100000000000000000000000000000000000000000000000000000000028152600401808273ffffffffffffffffffffffffffffffffffffffff1673ffffffffffffffffffffffffffffffffffffffff168152602001915050600060405180830381600087803b1580156101de57600080fd5b505af11580156101f2573d6000803e3d6000fd5b505050508273ffffffffffffffffffffffffffffffffffffffff168473ffffffffffffffffffffffffffffffffffffffff161415156102df578073ffffffffffffffffffffffffffffffffffffffff166382dc1ec4846040518263ffffffff167c0100000000000000000000000000000000000000000000000000000000028152600401808273ffffffffffffffffffffffffffffffffffffffff1673ffffffffffffffffffffffffffffffffffffffff168152602001915050600060405180830381600087803b1580156102c657600080fd5b505af11580156102da573d6000803e3d6000fd5b505050505b8073ffffffffffffffffffffffffffffffffffffffff16636ef8d66d6040518163ffffffff167c0100000000000000000000000000000000000000000000000000000000028152600401600060405180830381600087803b15801561034357600080fd5b505af1158015610357573d6000803e3d6000fd5b505050508073ffffffffffffffffffffffffffffffffffffffff1663f2fde38b856040518263ffffffff167c0100000000000000000000000000000000000000000000000000000000028152600401808273ffffffffffffffffffffffffffffffffffffffff1673ffffffffffffffffffffffffffffffffffffffff168152602001915050600060405180830381600087803b1580156103f657600080fd5b505af115801561040a573d6000803e3d6000fd5b50505050806000806101000a81548173ffffffffffffffffffffffffffffffffffffffff021916908373ffffffffffffffffffffffffffffffffffffffff16021790555050505050610467565b60405161416d8061056283390190565b60ed806104756000396000f3fe608060405260043610603f576000357c0100000000000000000000000000000000000000000000000000000000900463ffffffff168063133349bc146044575b600080fd5b348015604f57600080fd5b5060566098565b604051808273ffffffffffffffffffffffffffffffffffffffff1673ffffffffffffffffffffffffffffffffffffffff16815260200191505060405180910390f35b60008060009054906101000a900473ffffffffffffffffffffffffffffffffffffffff1690509056fea165627a7a72305820a24c7e6bd47dbe712c28465a769109550355dcf30fc1c5fc7b009cd2a52b044b002960806040523480156200001157600080fd5b506040516200416d3803806200416d833981018060405260408110156200003757600080fd5b810190808051906020019092919080516401000000008111156200005a57600080fd5b828101905060208101848111156200007157600080fd5b81518560208202830111640100000000821117156200008f57600080fd5b5050929190505050620000b13362000248640100000000026401000000009004565b6000600160006101000a81548160ff021916908315150217905550336001806101000a81548173ffffffffffffffffffffffffffffffffffffffff021916908373ffffffffffffffffffffffffffffffffffffffff1602179055506001809054906101000a900473ffffffffffffffffffffffffffffffffffffffff1673ffffffffffffffffffffffffffffffffffffffff16600073ffffffffffffffffffffffffffffffffffffffff167f8be0079c531659141344cd1fd0a4f28419497f9722a3daafe3b4186f6b6457e060405160405180910390a381620001936200040a565b808273ffffffffffffffffffffffffffffffffffffffff1673ffffffffffffffffffffffffffffffffffffffff168152602001915050604051809103906000f080158015620001e6573d6000803e3d6000fd5b50600460006101000a81548173ffffffffffffffffffffffffffffffffffffffff021916908373ffffffffffffffffffffffffffffffffffffffff16021790555080600390805190602001906200023f9291906200041b565b50505062000495565b6200026c816000620002b264010000000002620022e4179091906401000000009004565b8073ffffffffffffffffffffffffffffffffffffffff167f6719d08c1888103bea251a4ed56406bd0c3e69723c8a1686e017e7bbe159b6f860405160405180910390a250565b600073ffffffffffffffffffffffffffffffffffffffff168173ffffffffffffffffffffffffffffffffffffffff1614151515620002ef57600080fd5b6200030a828262000375640100000000026401000000009004565b1515156200031757600080fd5b60018260000160008373ffffffffffffffffffffffffffffffffffffffff1673ffffffffffffffffffffffffffffffffffffffff16815260200190815260200160002060006101000a81548160ff0219169083151502179055505050565b60008073ffffffffffffffffffffffffffffffffffffffff168273ffffffffffffffffffffffffffffffffffffffff1614151515620003b357600080fd5b8260000160008373ffffffffffffffffffffffffffffffffffffffff1673ffffffffffffffffffffffffffffffffffffffff16815260200190815260200160002060009054906101000a900460ff16905092915050565b604051610b31806200363c83390190565b8280548282559060005260206000209081019282156200045a579160200282015b82811115620004595782518255916020019190600101906200043c565b5b5090506200046991906200046d565b5090565b6200049291905b808211156200048e57600081600090555060010162000474565b5090565b90565b61319780620004a56000396000f3fe6080604052600436106200011b576000357c0100000000000000000000000000000000000000000000000000000000900463ffffffff168063196fe7b114620001205780633f4ba83a146200015f57806341a28df6146200017957806346fbf68e14620001ce57806352bf2c3c146200023b57806354a8bd0714620002955780635b57a2ed14620003645780635c975abb14620003a35780636ef8d66d14620003d5578063715018a614620003ef57806382dc1ec414620004095780638456cb59146200045e5780638da5cb5b14620004785780638f32d59b14620004d2578063a5026b831462000504578063abbae7de146200055b578063b708728814620005b5578063d9bd6a8e146200060a578063f2fde38b1462000673575b600080fd5b3480156200012d57600080fd5b506200015d600480360360208110156200014657600080fd5b8101908080359060200190929190505050620006c8565b005b3480156200016c57600080fd5b506200017762000b38565b005b3480156200018657600080fd5b50620001cc600480360360208110156200019f57600080fd5b81019080803573ffffffffffffffffffffffffffffffffffffffff16906020019092919050505062000beb565b005b348015620001db57600080fd5b506200022160048036036020811015620001f457600080fd5b81019080803573ffffffffffffffffffffffffffffffffffffffff16906020019092919050505062000e22565b604051808215151515815260200191505060405180910390f35b3480156200024857600080fd5b506200025362000e41565b604051808273ffffffffffffffffffffffffffffffffffffffff1673ffffffffffffffffffffffffffffffffffffffff16815260200191505060405180910390f35b348015620002a257600080fd5b50620002d260048036036020811015620002bb57600080fd5b810190808035906020019092919050505062000e6b565b604051808581526020018473ffffffffffffffffffffffffffffffffffffffff1673ffffffffffffffffffffffffffffffffffffffff1681526020018373ffffffffffffffffffffffffffffffffffffffff1673ffffffffffffffffffffffffffffffffffffffff1681526020018260048111156200034d57fe5b60ff16815260200194505050505060405180910390f35b3480156200037157600080fd5b50620003a1600480360360208110156200038a57600080fd5b810190808035906020019092919050505062000fb0565b005b348015620003b057600080fd5b50620003bb620012e6565b604051808215151515815260200191505060405180910390f35b348015620003e257600080fd5b50620003ed620012fd565b005b348015620003fc57600080fd5b50620004076200130a565b005b3480156200041657600080fd5b506200045c600480360360208110156200042f57600080fd5b81019080803573ffffffffffffffffffffffffffffffffffffffff169060200190929190505050620013df565b005b3480156200046b57600080fd5b506200047662001404565b005b3480156200048557600080fd5b5062000490620014b7565b604051808273ffffffffffffffffffffffffffffffffffffffff1673ffffffffffffffffffffffffffffffffffffffff16815260200191505060405180910390f35b348015620004df57600080fd5b50620004ea620014e0565b604051808215151515815260200191505060405180910390f35b3480156200051157600080fd5b5062000541600480360360208110156200052a57600080fd5b810190808035906020019092919050505062001537565b604051808215151515815260200191505060405180910390f35b3480156200056857600080fd5b506200057362001960565b604051808273ffffffffffffffffffffffffffffffffffffffff1673ffffffffffffffffffffffffffffffffffffffff16815260200191505060405180910390f35b348015620005c257600080fd5b506200060860048036036020811015620005db57600080fd5b81019080803573ffffffffffffffffffffffffffffffffffffffff1690602001909291905050506200198a565b005b3480156200061757600080fd5b5062000671600480360360608110156200063057600080fd5b8101908080359060200190929190803573ffffffffffffffffffffffffffffffffffffffff1690602001909291908035906020019092919050505062001b2b565b005b3480156200068057600080fd5b50620006c6600480360360208110156200069957600080fd5b81019080803573ffffffffffffffffffffffffffffffffffffffff16906020019092919050505062001fc5565b005b6002805490508110151562000745576040517f08c379a00000000000000000000000000000000000000000000000000000000081526004018080602001828103825260158152602001807f496e76616c6964206368616e6765206e756d626572000000000000000000000081525060200191505060405180910390fd5b600460009054906101000a900473ffffffffffffffffffffffffffffffffffffffff1673ffffffffffffffffffffffffffffffffffffffff166324d7806c336040518263ffffffff167c0100000000000000000000000000000000000000000000000000000000028152600401808273ffffffffffffffffffffffffffffffffffffffff1673ffffffffffffffffffffffffffffffffffffffff16815260200191505060206040518083038186803b1580156200080157600080fd5b505afa15801562000816573d6000803e3d6000fd5b505050506040513d60208110156200082d57600080fd5b81019080805190602001909291905050501515620008d9576040517f08c379a000000000000000000000000000000000000000000000000000000000815260040180806020018281038252603b8152602001807f41206d7564616ec3a7612073c3b320706f64652073657220657865637574616481526020017f612070656c6f2061646d696e20646120676f7665726e616ec3a761000000000081525060400191505060405180910390fd5b620008e362002398565b600282815481101515620008f357fe5b906000526020600020906003020160806040519081016040529081600082015481526020016001820160009054906101000a900473ffffffffffffffffffffffffffffffffffffffff1673ffffffffffffffffffffffffffffffffffffffff1673ffffffffffffffffffffffffffffffffffffffff1681526020016002820160009054906101000a900473ffffffffffffffffffffffffffffffffffffffff1673ffffffffffffffffffffffffffffffffffffffff1673ffffffffffffffffffffffffffffffffffffffff1681526020016002820160149054906101000a900460ff166004811115620009e257fe5b6004811115620009ee57fe5b8152505090506001600481111562000a0257fe5b8160600151600481111562000a1357fe5b14151562000aaf576040517f08c379a000000000000000000000000000000000000000000000000000000000815260040180806020018281038252602b8152602001807f41206d7564616ec3a7612070726563697361206573746172206e6f206573746181526020017f646f206170726f7661646100000000000000000000000000000000000000000081525060400191505060405180910390fd5b600081602001519050600460028481548110151562000aca57fe5b906000526020600020906003020160020160146101000a81548160ff0219169083600481111562000af757fe5b02179055507f917059c1f4e69f15a941c78efb433b9957e94aceae99b068787c32e18c4a9b8d836040518082815260200191505060405180910390a1505050565b62000b433362000e22565b151562000b4f57600080fd5b600160009054906101000a900460ff16151562000b6b57600080fd5b6000600160006101000a81548160ff0219169083151502179055507f5db9ee0a495bf2e6ff9c91a7834c1ba4fdd244a5e8aa4e537bd38aeae4b073aa33604051808273ffffffffffffffffffffffffffffffffffffffff1673ffffffffffffffffffffffffffffffffffffffff16815260200191505060405180910390a1565b600460009054906101000a900473ffffffffffffffffffffffffffffffffffffffff1673ffffffffffffffffffffffffffffffffffffffff166396a0604a6040518163ffffffff167c010000000000000000000000000000000000000000000000000000000002815260040160206040518083038186803b15801562000c7057600080fd5b505afa15801562000c85573d6000803e3d6000fd5b505050506040513d602081101562000c9c57600080fd5b8101908080519060200190929190505050151562000d48576040517f08c379a000000000000000000000000000000000000000000000000000000000815260040180806020018281038252602f8152602001807f546869732066756e6374696f6e2063616e206f6e6c792062652065786563757481526020017f656420627920557067726164657273000000000000000000000000000000000081525060400191505060405180910390fd5b600460009054906101000a900473ffffffffffffffffffffffffffffffffffffffff1673ffffffffffffffffffffffffffffffffffffffff166341a28df6826040518263ffffffff167c0100000000000000000000000000000000000000000000000000000000028152600401808273ffffffffffffffffffffffffffffffffffffffff1673ffffffffffffffffffffffffffffffffffffffff168152602001915050600060405180830381600087803b15801562000e0657600080fd5b505af115801562000e1b573d6000803e3d6000fd5b5050505050565b600062000e3a82600062001fe990919063ffffffff16565b9050919050565b6000600460009054906101000a900473ffffffffffffffffffffffffffffffffffffffff16905090565b60008060008062000e7b62002398565b60028681548110151562000e8b57fe5b906000526020600020906003020160806040519081016040529081600082015481526020016001820160009054906101000a900473ffffffffffffffffffffffffffffffffffffffff1673ffffffffffffffffffffffffffffffffffffffff1673ffffffffffffffffffffffffffffffffffffffff1681526020016002820160009054906101000a900473ffffffffffffffffffffffffffffffffffffffff1673ffffffffffffffffffffffffffffffffffffffff1673ffffffffffffffffffffffffffffffffffffffff1681526020016002820160149054906101000a900460ff16600481111562000f7a57fe5b600481111562000f8657fe5b81525050905080600001518160200151826040015183606001519450945094509450509193509193565b62000fba620014e0565b151562000fc657600080fd5b6002805490508110151562001043576040517f08c379a00000000000000000000000000000000000000000000000000000000081526004018080602001828103825260158152602001807f496e76616c6964206368616e6765206e756d626572000000000000000000000081525060200191505060405180910390fd5b6200104d62002398565b6002828154811015156200105d57fe5b906000526020600020906003020160806040519081016040529081600082015481526020016001820160009054906101000a900473ffffffffffffffffffffffffffffffffffffffff1673ffffffffffffffffffffffffffffffffffffffff1673ffffffffffffffffffffffffffffffffffffffff1681526020016002820160009054906101000a900473ffffffffffffffffffffffffffffffffffffffff1673ffffffffffffffffffffffffffffffffffffffff1673ffffffffffffffffffffffffffffffffffffffff1681526020016002820160149054906101000a900460ff1660048111156200114c57fe5b60048111156200115857fe5b815250509050600060048111156200116c57fe5b816060015160048111156200117d57fe5b1480620011a65750600160048111156200119357fe5b81606001516004811115620011a457fe5b145b151562001267576040517f08c379a00000000000000000000000000000000000000000000000000000000081526004018080602001828103825260508152602001807f41206d7564616ec3a7612070726563697361206573746172206e6f206573746181526020017f646f20646520657370657261206461206465636973c3a36f206461206d75646181526020017f6ec3a761206f75206170726f766164610000000000000000000000000000000081525060600191505060405180910390fd5b60036002838154811015156200127957fe5b906000526020600020906003020160020160146101000a81548160ff02191690836004811115620012a657fe5b02179055507f5edd520c0103960fbe1e1fc55ae80c123b61704fa2429473cef253e3c90ae27e826040518082815260200191505060405180910390a15050565b6000600160009054906101000a900460ff16905090565b62001308336200207e565b565b62001314620014e0565b15156200132057600080fd5b600073ffffffffffffffffffffffffffffffffffffffff166001809054906101000a900473ffffffffffffffffffffffffffffffffffffffff1673ffffffffffffffffffffffffffffffffffffffff167f8be0079c531659141344cd1fd0a4f28419497f9722a3daafe3b4186f6b6457e060405160405180910390a360006001806101000a81548173ffffffffffffffffffffffffffffffffffffffff021916908373ffffffffffffffffffffffffffffffffffffffff160217905550565b620013ea3362000e22565b1515620013f657600080fd5b6200140181620020da565b50565b6200140f3362000e22565b15156200141b57600080fd5b600160009054906101000a900460ff161515156200143857600080fd5b60018060006101000a81548160ff0219169083151502179055507f62e78cea01bee320cd4e420270b5ea74000d11b0c9f74754ebdbfc544b05a25833604051808273ffffffffffffffffffffffffffffffffffffffff1673ffffffffffffffffffffffffffffffffffffffff16815260200191505060405180910390a1565b60006001809054906101000a900473ffffffffffffffffffffffffffffffffffffffff16905090565b60006001809054906101000a900473ffffffffffffffffffffffffffffffffffffffff1673ffffffffffffffffffffffffffffffffffffffff163373ffffffffffffffffffffffffffffffffffffffff1614905090565b600062001543620014e0565b15156200154f57600080fd5b60028054905082101515620015cc576040517f08c379a00000000000000000000000000000000000000000000000000000000081526004018080602001828103825260158152602001807f496e76616c6964206368616e6765206e756d626572000000000000000000000081525060200191505060405180910390fd5b620015d662002398565b600283815481101515620015e657fe5b906000526020600020906003020160806040519081016040529081600082015481526020016001820160009054906101000a900473ffffffffffffffffffffffffffffffffffffffff1673ffffffffffffffffffffffffffffffffffffffff1673ffffffffffffffffffffffffffffffffffffffff1681526020016002820160009054906101000a900473ffffffffffffffffffffffffffffffffffffffff1673ffffffffffffffffffffffffffffffffffffffff1673ffffffffffffffffffffffffffffffffffffffff1681526020016002820160149054906101000a900460ff166004811115620016d557fe5b6004811115620016e157fe5b81525050905060006004811115620016f557fe5b816060015160048111156200170657fe5b141515620017a2576040517f08c379a000000000000000000000000000000000000000000000000000000000815260040180806020018281038252602a8152602001807f41206d7564616ec3a7612070726563697361206573746172206e6f206573746181526020017f646f2057414954494e470000000000000000000000000000000000000000000081525060400191505060405180910390fd5b6000816040015190508073ffffffffffffffffffffffffffffffffffffffff1663e14d58d96040518163ffffffff167c0100000000000000000000000000000000000000000000000000000000028152600401602060405180830381600087803b1580156200181057600080fd5b505af115801562001825573d6000803e3d6000fd5b505050506040513d60208110156200183c57600080fd5b810190808051906020019092919050505015620018da5760016002858154811015156200186557fe5b906000526020600020906003020160020160146101000a81548160ff021916908360048111156200189257fe5b02179055507ff6c7f9b41b46dcd0ed5e8a9b5ea016cc15493d731db259a2efb7dd055af86684846040518082815260200191505060405180910390a16001925050506200195b565b60028085815481101515620018eb57fe5b906000526020600020906003020160020160146101000a81548160ff021916908360048111156200191857fe5b02179055507ff1a8ffd21fe9ef7be34e0f4bf577d3bf31ce3c19c68d2c046d22275cb8b715f4846040518082815260200191505060405180910390a16000925050505b919050565b6000600560009054906101000a900473ffffffffffffffffffffffffffffffffffffffff16905090565b600460009054906101000a900473ffffffffffffffffffffffffffffffffffffffff1673ffffffffffffffffffffffffffffffffffffffff166396a0604a6040518163ffffffff167c010000000000000000000000000000000000000000000000000000000002815260040160206040518083038186803b15801562001a0f57600080fd5b505afa15801562001a24573d6000803e3d6000fd5b505050506040513d602081101562001a3b57600080fd5b8101908080519060200190929190505050151562001ae7576040517f08c379a000000000000000000000000000000000000000000000000000000000815260040180806020018281038252602f8152602001807f546869732066756e6374696f6e2063616e206f6e6c792062652065786563757481526020017f656420627920557067726164657273000000000000000000000000000000000081525060400191505060405180910390fd5b80600560006101000a81548173ffffffffffffffffffffffffffffffffffffffff021916908373ffffffffffffffffffffffffffffffffffffffff16021790555050565b62001b35620014e0565b151562001b4157600080fd5b6000600280549050905062001b5562002398565b60008314151562001d49576000600384600560009054906101000a900473ffffffffffffffffffffffffffffffffffffffff168562001b93620023fc565b80806020018581526020018473ffffffffffffffffffffffffffffffffffffffff1673ffffffffffffffffffffffffffffffffffffffff168152602001838152602001828103825286818154815260200191508054801562001c1557602002820191906000526020600020905b81548152602001906001019080831162001c00575b505095505050505050604051809103906000f08015801562001c3b573d6000803e3d6000fd5b5090506080604051908101604052808781526020018673ffffffffffffffffffffffffffffffffffffffff1681526020018273ffffffffffffffffffffffffffffffffffffffff1681526020016000600481111562001c9657fe5b81525091507f6cf14efcf5b851aa9027077db35ddf65e974cb66ab3e50ffcd08b3721a7e455b83878784604051808581526020018481526020018373ffffffffffffffffffffffffffffffffffffffff1673ffffffffffffffffffffffffffffffffffffffff1681526020018273ffffffffffffffffffffffffffffffffffffffff1673ffffffffffffffffffffffffffffffffffffffff16815260200194505050505060405180910390a15062001ecb565b6080604051908101604052808681526020018573ffffffffffffffffffffffffffffffffffffffff168152602001600073ffffffffffffffffffffffffffffffffffffffff1681526020016001600481111562001da257fe5b81525090507f6cf14efcf5b851aa9027077db35ddf65e974cb66ab3e50ffcd08b3721a7e455b8286866000604051808581526020018481526020018373ffffffffffffffffffffffffffffffffffffffff1673ffffffffffffffffffffffffffffffffffffffff1681526020018273ffffffffffffffffffffffffffffffffffffffff1673ffffffffffffffffffffffffffffffffffffffff16815260200194505050505060405180910390a1600160028381548110151562001e6157fe5b906000526020600020906003020160020160146101000a81548160ff0219169083600481111562001e8e57fe5b02179055507ff6c7f9b41b46dcd0ed5e8a9b5ea016cc15493d731db259a2efb7dd055af86684826040518082815260200191505060405180910390a15b600281908060018154018082558091505090600182039060005260206000209060030201600090919290919091506000820151816000015560208201518160010160006101000a81548173ffffffffffffffffffffffffffffffffffffffff021916908373ffffffffffffffffffffffffffffffffffffffff16021790555060408201518160020160006101000a81548173ffffffffffffffffffffffffffffffffffffffff021916908373ffffffffffffffffffffffffffffffffffffffff16021790555060608201518160020160146101000a81548160ff0219169083600481111562001fb657fe5b02179055505050505050505050565b62001fcf620014e0565b151562001fdb57600080fd5b62001fe68162002136565b50565b60008073ffffffffffffffffffffffffffffffffffffffff168273ffffffffffffffffffffffffffffffffffffffff16141515156200202757600080fd5b8260000160008373ffffffffffffffffffffffffffffffffffffffff1673ffffffffffffffffffffffffffffffffffffffff16815260200190815260200160002060009054906101000a900460ff16905092915050565b620020948160006200223190919063ffffffff16565b8073ffffffffffffffffffffffffffffffffffffffff167fcd265ebaf09df2871cc7bd4133404a235ba12eff2041bb89d9c714a2621c7c7e60405160405180910390a250565b620020f0816000620022e490919063ffffffff16565b8073ffffffffffffffffffffffffffffffffffffffff167f6719d08c1888103bea251a4ed56406bd0c3e69723c8a1686e017e7bbe159b6f860405160405180910390a250565b600073ffffffffffffffffffffffffffffffffffffffff168173ffffffffffffffffffffffffffffffffffffffff16141515156200217357600080fd5b8073ffffffffffffffffffffffffffffffffffffffff166001809054906101000a900473ffffffffffffffffffffffffffffffffffffffff1673ffffffffffffffffffffffffffffffffffffffff167f8be0079c531659141344cd1fd0a4f28419497f9722a3daafe3b4186f6b6457e060405160405180910390a3806001806101000a81548173ffffffffffffffffffffffffffffffffffffffff021916908373ffffffffffffffffffffffffffffffffffffffff16021790555050565b600073ffffffffffffffffffffffffffffffffffffffff168173ffffffffffffffffffffffffffffffffffffffff16141515156200226e57600080fd5b6200227a828262001fe9565b15156200228657600080fd5b60008260000160008373ffffffffffffffffffffffffffffffffffffffff1673ffffffffffffffffffffffffffffffffffffffff16815260200190815260200160002060006101000a81548160ff0219169083151502179055505050565b600073ffffffffffffffffffffffffffffffffffffffff168173ffffffffffffffffffffffffffffffffffffffff16141515156200232157600080fd5b6200232d828262001fe9565b1515156200233a57600080fd5b60018260000160008373ffffffffffffffffffffffffffffffffffffffff1673ffffffffffffffffffffffffffffffffffffffff16815260200190815260200160002060006101000a81548160ff0219169083151502179055505050565b60806040519081016040528060008019168152602001600073ffffffffffffffffffffffffffffffffffffffff168152602001600073ffffffffffffffffffffffffffffffffffffffff16815260200160006004811115620023f657fe5b81525090565b604051610d5e806200240e8339019056fe60806040526000600655600060075534801561001a57600080fd5b50604051610d5e380380610d5e8339810180604052608081101561003d57600080fd5b81019080805164010000000081111561005557600080fd5b8281019050602081018481111561006b57600080fd5b815185602082028301116401000000008211171561008857600080fd5b5050929190602001805190602001909291908051906020019092919080519060200190929190505050336000806101000a81548173ffffffffffffffffffffffffffffffffffffffff021916908373ffffffffffffffffffffffffffffffffffffffff1602179055506000809054906101000a900473ffffffffffffffffffffffffffffffffffffffff1673ffffffffffffffffffffffffffffffffffffffff16600073ffffffffffffffffffffffffffffffffffffffff167f8be0079c531659141344cd1fd0a4f28419497f9722a3daafe3b4186f6b6457e060405160405180910390a361018584610212640100000000026401000000009004565b61019d836102c6640100000000026401000000009004565b81600260006101000a81548173ffffffffffffffffffffffffffffffffffffffff021916908373ffffffffffffffffffffffffffffffffffffffff160217905550806001819055506000600260146101000a81548160ff0219169083600381111561020457fe5b0217905550505050506102e4565b60008090505b81518110156102c25760056000838381518110151561023357fe5b90602001906020020151815260200190815260200160002060009054906101000a900460ff1615156102b557600160056000848481518110151561027357fe5b90602001906020020151815260200190815260200160002060006101000a81548160ff0219169083151502179055506006600081548092919060010191905055505b8080600101915050610218565b5050565b80600381905550606460035411156102e15760646003819055505b50565b610a6b806102f36000396000f3fe6080604052600436106100a4576000357c0100000000000000000000000000000000000000000000000000000000900463ffffffff168063200d2ed2146100a95780634b9f5c98146100e2578063715018a61461011f5780638da5cb5b146101365780638f32d59b1461018d578063990008ca146101bc578063c967aa5e146101e7578063e14d58d914610212578063f2fde38b14610241578063fd4a77f114610292575b600080fd5b3480156100b557600080fd5b506100be6102e5565b604051808260038111156100ce57fe5b60ff16815260200191505060405180910390f35b3480156100ee57600080fd5b5061011d6004803603602081101561010557600080fd5b810190808035151590602001909291905050506102f8565b005b34801561012b57600080fd5b506101346105da565b005b34801561014257600080fd5b5061014b6106ac565b604051808273ffffffffffffffffffffffffffffffffffffffff1673ffffffffffffffffffffffffffffffffffffffff16815260200191505060405180910390f35b34801561019957600080fd5b506101a26106d5565b604051808215151515815260200191505060405180910390f35b3480156101c857600080fd5b506101d161072c565b6040518082815260200191505060405180910390f35b3480156101f357600080fd5b506101fc610736565b6040518082815260200191505060405180910390f35b34801561021e57600080fd5b5061022761073c565b604051808215151515815260200191505060405180910390f35b34801561024d57600080fd5b506102906004803603602081101561026457600080fd5b81019080803573ffffffffffffffffffffffffffffffffffffffff16906020019092919050505061089e565b005b34801561029e57600080fd5b506102cb600480360360208110156102b557600080fd5b81019080803590602001909291905050506108bd565b604051808215151515815260200191505060405180910390f35b600260149054906101000a900460ff1681565b6000600381111561030557fe5b600260149054906101000a900460ff16600381111561032057fe5b1415156103bb576040517f08c379a00000000000000000000000000000000000000000000000000000000081526004018080602001828103825260218152602001807f4465636973696f6e206e6f7420696e2074686520766f74696e6720737461746581526020017f210000000000000000000000000000000000000000000000000000000000000081525060400191505060405180910390fd5b6000600260009054906101000a900473ffffffffffffffffffffffffffffffffffffffff1673ffffffffffffffffffffffffffffffffffffffff166365f68c89336040518263ffffffff167c0100000000000000000000000000000000000000000000000000000000028152600401808273ffffffffffffffffffffffffffffffffffffffff1673ffffffffffffffffffffffffffffffffffffffff168152602001915050602060405180830381600087803b15801561047a57600080fd5b505af115801561048e573d6000803e3d6000fd5b505050506040513d60208110156104a457600080fd5b810190808051906020019092919050505090506005600082815260200190815260200160002060009054906101000a900460ff16151561054c576040517f08c379a000000000000000000000000000000000000000000000000000000000815260040180806020018281038252601b8152602001807f446f206e6f74206861766520746865207065726d697373696f6e21000000000081525060200191505060405180910390fd5b8115156004600083815260200190815260200160002060009054906101000a900460ff1615151415156105d6578115610596576007600081548092919060010191905055506105aa565b600760008154809291906001900391905055505b816004600083815260200190815260200160002060006101000a81548160ff0219169083151502179055505b5050565b6105e26106d5565b15156105ed57600080fd5b600073ffffffffffffffffffffffffffffffffffffffff166000809054906101000a900473ffffffffffffffffffffffffffffffffffffffff1673ffffffffffffffffffffffffffffffffffffffff167f8be0079c531659141344cd1fd0a4f28419497f9722a3daafe3b4186f6b6457e060405160405180910390a360008060006101000a81548173ffffffffffffffffffffffffffffffffffffffff021916908373ffffffffffffffffffffffffffffffffffffffff160217905550565b60008060009054906101000a900473ffffffffffffffffffffffffffffffffffffffff16905090565b60008060009054906101000a900473ffffffffffffffffffffffffffffffffffffffff1673ffffffffffffffffffffffffffffffffffffffff163373ffffffffffffffffffffffffffffffffffffffff1614905090565b6000600154905090565b60015481565b600080600381111561074a57fe5b600260149054906101000a900460ff16600381111561076557fe5b141515610800576040517f08c379a00000000000000000000000000000000000000000000000000000000081526004018080602001828103825260218152602001807f4465636973696f6e206e6f7420696e2074686520766f74696e6720737461746581526020017f210000000000000000000000000000000000000000000000000000000000000081525060400191505060405180910390fd5b6108086106d5565b151561081357600080fd5b61083d606461082f6003546006546108dd90919063ffffffff16565b61091b90919063ffffffff16565b6007541115610873576001600260146101000a81548160ff0219169083600381111561086557fe5b02179055506001905061089b565b60028060146101000a81548160ff0219169083600381111561089157fe5b0217905550600090505b90565b6108a66106d5565b15156108b157600080fd5b6108ba81610945565b50565b60046020528060005260406000206000915054906101000a900460ff1681565b6000808314156108f05760009050610915565b6000828402905082848281151561090357fe5b0414151561091057600080fd5b809150505b92915050565b6000808211151561092b57600080fd5b6000828481151561093857fe5b0490508091505092915050565b600073ffffffffffffffffffffffffffffffffffffffff168173ffffffffffffffffffffffffffffffffffffffff161415151561098157600080fd5b8073ffffffffffffffffffffffffffffffffffffffff166000809054906101000a900473ffffffffffffffffffffffffffffffffffffffff1673ffffffffffffffffffffffffffffffffffffffff167f8be0079c531659141344cd1fd0a4f28419497f9722a3daafe3b4186f6b6457e060405160405180910390a3806000806101000a81548173ffffffffffffffffffffffffffffffffffffffff021916908373ffffffffffffffffffffffffffffffffffffffff1602179055505056fea165627a7a7230582073b1221ae73625777e81ca71ab1cc63fcf6abe15c66a2767718290753f1b68fa0029a165627a7a723058202435bbaad66e7c83cad254ab5e8372000186f70ec35208b15dbc238cea2182cd0029608060405234801561001057600080fd5b50604051602080610b318339810180604052602081101561003057600080fd5b8101908080519060200190929190505050336000806101000a81548173ffffffffffffffffffffffffffffffffffffffff021916908373ffffffffffffffffffffffffffffffffffffffff1602179055506000809054906101000a900473ffffffffffffffffffffffffffffffffffffffff1673ffffffffffffffffffffffffffffffffffffffff16600073ffffffffffffffffffffffffffffffffffffffff167f8be0079c531659141344cd1fd0a4f28419497f9722a3daafe3b4186f6b6457e060405160405180910390a38073ffffffffffffffffffffffffffffffffffffffff16600260009054906101000a900473ffffffffffffffffffffffffffffffffffffffff1673ffffffffffffffffffffffffffffffffffffffff167f7e644d79422f17c01e4894b5f4f588d331ebfa28653d42ae832dc59e38c9798f60405160405180910390a380600260006101000a81548173ffffffffffffffffffffffffffffffffffffffff021916908373ffffffffffffffffffffffffffffffffffffffff16021790555050610967806101ca6000396000f3fe6080604052600436106100a4576000357c0100000000000000000000000000000000000000000000000000000000900463ffffffff16806311a1c423146100a957806324d7806c146100fa57806341a28df614610163578063715018a6146101b457806381830593146101cb5780638da5cb5b146102225780638f32d59b1461027957806396a0604a146102a8578063eff2dcc6146102d7578063f2fde38b1461032e575b600080fd5b3480156100b557600080fd5b506100f8600480360360208110156100cc57600080fd5b81019080803573ffffffffffffffffffffffffffffffffffffffff16906020019092919050505061037f565b005b34801561010657600080fd5b506101496004803603602081101561011d57600080fd5b81019080803573ffffffffffffffffffffffffffffffffffffffff169060200190929190505050610452565b604051808215151515815260200191505060405180910390f35b34801561016f57600080fd5b506101b26004803603602081101561018657600080fd5b81019080803573ffffffffffffffffffffffffffffffffffffffff1690602001909291905050506104ac565b005b3480156101c057600080fd5b506101c9610624565b005b3480156101d757600080fd5b506101e06106f6565b604051808273ffffffffffffffffffffffffffffffffffffffff1673ffffffffffffffffffffffffffffffffffffffff16815260200191505060405180910390f35b34801561022e57600080fd5b50610237610720565b604051808273ffffffffffffffffffffffffffffffffffffffff1673ffffffffffffffffffffffffffffffffffffffff16815260200191505060405180910390f35b34801561028557600080fd5b5061028e610749565b604051808215151515815260200191505060405180910390f35b3480156102b457600080fd5b506102bd6107a0565b604051808215151515815260200191505060405180910390f35b3480156102e357600080fd5b506102ec6107f8565b604051808273ffffffffffffffffffffffffffffffffffffffff1673ffffffffffffffffffffffffffffffffffffffff16815260200191505060405180910390f35b34801561033a57600080fd5b5061037d6004803603602081101561035157600080fd5b81019080803573ffffffffffffffffffffffffffffffffffffffff169060200190929190505050610822565b005b610387610749565b151561039257600080fd5b8073ffffffffffffffffffffffffffffffffffffffff16600160009054906101000a900473ffffffffffffffffffffffffffffffffffffffff1673ffffffffffffffffffffffffffffffffffffffff167f9cc0fca95bdc66b57e27ff56ce70619d6c76e891759b10768345411032913ecf60405160405180910390a380600160006101000a81548173ffffffffffffffffffffffffffffffffffffffff021916908373ffffffffffffffffffffffffffffffffffffffff16021790555050565b60008173ffffffffffffffffffffffffffffffffffffffff16600260009054906101000a900473ffffffffffffffffffffffffffffffffffffffff1673ffffffffffffffffffffffffffffffffffffffff16149050919050565b6104b4610749565b15156104bf57600080fd5b600073ffffffffffffffffffffffffffffffffffffffff168173ffffffffffffffffffffffffffffffffffffffff1614151515610564576040517f08c379a000000000000000000000000000000000000000000000000000000000815260040180806020018281038252601e8152602001807f4e657741646472206973206e6f7420612076616c69642061646472657373000081525060200191505060405180910390fd5b8073ffffffffffffffffffffffffffffffffffffffff16600260009054906101000a900473ffffffffffffffffffffffffffffffffffffffff1673ffffffffffffffffffffffffffffffffffffffff167f7e644d79422f17c01e4894b5f4f588d331ebfa28653d42ae832dc59e38c9798f60405160405180910390a380600260006101000a81548173ffffffffffffffffffffffffffffffffffffffff021916908373ffffffffffffffffffffffffffffffffffffffff16021790555050565b61062c610749565b151561063757600080fd5b600073ffffffffffffffffffffffffffffffffffffffff166000809054906101000a900473ffffffffffffffffffffffffffffffffffffffff1673ffffffffffffffffffffffffffffffffffffffff167f8be0079c531659141344cd1fd0a4f28419497f9722a3daafe3b4186f6b6457e060405160405180910390a360008060006101000a81548173ffffffffffffffffffffffffffffffffffffffff021916908373ffffffffffffffffffffffffffffffffffffffff160217905550565b6000600260009054906101000a900473ffffffffffffffffffffffffffffffffffffffff16905090565b60008060009054906101000a900473ffffffffffffffffffffffffffffffffffffffff16905090565b60008060009054906101000a900473ffffffffffffffffffffffffffffffffffffffff1673ffffffffffffffffffffffffffffffffffffffff163373ffffffffffffffffffffffffffffffffffffffff1614905090565b6000600160009054906101000a900473ffffffffffffffffffffffffffffffffffffffff1673ffffffffffffffffffffffffffffffffffffffff163373ffffffffffffffffffffffffffffffffffffffff1614905090565b6000600160009054906101000a900473ffffffffffffffffffffffffffffffffffffffff16905090565b61082a610749565b151561083557600080fd5b61083e81610841565b50565b600073ffffffffffffffffffffffffffffffffffffffff168173ffffffffffffffffffffffffffffffffffffffff161415151561087d57600080fd5b8073ffffffffffffffffffffffffffffffffffffffff166000809054906101000a900473ffffffffffffffffffffffffffffffffffffffff1673ffffffffffffffffffffffffffffffffffffffff167f8be0079c531659141344cd1fd0a4f28419497f9722a3daafe3b4186f6b6457e060405160405180910390a3806000806101000a81548173ffffffffffffffffffffffffffffffffffffffff021916908373ffffffffffffffffffffffffffffffffffffffff1602179055505056fea165627a7a723058202d0324ca4df7d83b88e419f9187d0c770f4a04d07a99ef357470056fdca77b120029",
  "source": "pragma solidity ^0.5.0;\r\n\r\nimport \"../appGovernanceUpgrade/Governance.sol\";\r\n\r\n\r\ncontract PreUpgrader1 {\r\n\r\n    address private _governanceAddr;\r\n\r\n    //owner and admin must be different\r\n    constructor(address ownerOfGovernanceAddr, address adminOfNewContractsAddr, uint[] memory governanceMembersId) public {\r\n\r\n        Governance governance = new Governance(adminOfNewContractsAddr, governanceMembersId);\r\n        governance.addPauser(ownerOfGovernanceAddr);\r\n        if (ownerOfGovernanceAddr!=adminOfNewContractsAddr) {\r\n            governance.addPauser(adminOfNewContractsAddr);\r\n        }\r\n        governance.renouncePauser();\r\n        governance.transferOwnership(ownerOfGovernanceAddr);\r\n        _governanceAddr = address(governance);\r\n\r\n    }\r\n\r\n    function governanceAddr() public view returns (address) {\r\n        return _governanceAddr;\r\n    }\r\n\r\n}",
  "sourcePath": "D:\\Workspace\\bndestoken\\Back-Blockchain-Upgrade\\contracts\\appUpgraders\\PreUpgrader1.sol",
  "compiler": {
    "name": "solc",
    "version": "0.5.0+commit.1d4f565a.Emscripten.clang"
  },
  "schemaVersion": "3.0.5",
  "updatedAt": "2019-09-27T21:01:08.608Z",
  "devdoc": {
    "methods": {}
  },
  "userdoc": {
    "methods": {}
  }
}