{
  "contractName": "PreUpgrader2",
  "abi": [
    {
      "inputs": [
        {
          "name": "preUpgraderAddr1",
          "type": "address"
        }
      ],
      "payable": false,
      "stateMutability": "nonpayable",
      "type": "constructor",
      "signature": "constructor"
    },
    {
      "constant": true,
      "inputs": [],
      "name": "governanceAddr",
      "outputs": [
        {
          "name": "",
          "type": "address"
        }
      ],
      "payable": false,
      "stateMutability": "view",
      "type": "function",
      "signature": "0x133349bc"
    },
    {
      "constant": true,
      "inputs": [],
      "name": "resolverAddr",
      "outputs": [
        {
          "name": "",
          "type": "address"
        }
      ],
      "payable": false,
      "stateMutability": "view",
      "type": "function",
      "signature": "0x52daf712"
    }
  ],
  "bytecode": "0x608060405234801561001057600080fd5b50604051602080611f5f8339810180604052602081101561003057600080fd5b810190808051906020019092919050505060008190508073ffffffffffffffffffffffffffffffffffffffff1663133349bc6040518163ffffffff167c010000000000000000000000000000000000000000000000000000000002815260040160206040518083038186803b1580156100a857600080fd5b505afa1580156100bc573d6000803e3d6000fd5b505050506040513d60208110156100d257600080fd5b81019080805190602001909291905050506000806101000a81548173ffffffffffffffffffffffffffffffffffffffff021916908373ffffffffffffffffffffffffffffffffffffffff16021790555060008060009054906101000a900473ffffffffffffffffffffffffffffffffffffffff16905060008173ffffffffffffffffffffffffffffffffffffffff166352bf2c3c6040518163ffffffff167c010000000000000000000000000000000000000000000000000000000002815260040160206040518083038186803b1580156101ac57600080fd5b505afa1580156101c0573d6000803e3d6000fd5b505050506040513d60208110156101d657600080fd5b8101908080519060200190929190505050905060008273ffffffffffffffffffffffffffffffffffffffff166352bf2c3c6040518163ffffffff167c010000000000000000000000000000000000000000000000000000000002815260040160206040518083038186803b15801561024d57600080fd5b505afa158015610261573d6000803e3d6000fd5b505050506040513d602081101561027757600080fd5b81019080805190602001909291905050506102906107b8565b808273ffffffffffffffffffffffffffffffffffffffff1673ffffffffffffffffffffffffffffffffffffffff168152602001915050604051809103906000f0801580156102e2573d6000803e3d6000fd5b5090508073ffffffffffffffffffffffffffffffffffffffff166382dc1ec48473ffffffffffffffffffffffffffffffffffffffff16638da5cb5b6040518163ffffffff167c010000000000000000000000000000000000000000000000000000000002815260040160206040518083038186803b15801561036357600080fd5b505afa158015610377573d6000803e3d6000fd5b505050506040513d602081101561038d57600080fd5b81019080805190602001909291905050506040518263ffffffff167c0100000000000000000000000000000000000000000000000000000000028152600401808273ffffffffffffffffffffffffffffffffffffffff1673ffffffffffffffffffffffffffffffffffffffff168152602001915050600060405180830381600087803b15801561041c57600080fd5b505af1158015610430573d6000803e3d6000fd5b505050508173ffffffffffffffffffffffffffffffffffffffff1663818305936040518163ffffffff167c010000000000000000000000000000000000000000000000000000000002815260040160206040518083038186803b15801561049657600080fd5b505afa1580156104aa573d6000803e3d6000fd5b505050506040513d60208110156104c057600080fd5b810190808051906020019092919050505073ffffffffffffffffffffffffffffffffffffffff168373ffffffffffffffffffffffffffffffffffffffff16638da5cb5b6040518163ffffffff167c010000000000000000000000000000000000000000000000000000000002815260040160206040518083038186803b15801561054957600080fd5b505afa15801561055d573d6000803e3d6000fd5b505050506040513d602081101561057357600080fd5b810190808051906020019092919050505073ffffffffffffffffffffffffffffffffffffffff161415156106f1578073ffffffffffffffffffffffffffffffffffffffff166382dc1ec48373ffffffffffffffffffffffffffffffffffffffff1663818305936040518163ffffffff167c010000000000000000000000000000000000000000000000000000000002815260040160206040518083038186803b15801561061f57600080fd5b505afa158015610633573d6000803e3d6000fd5b505050506040513d602081101561064957600080fd5b81019080805190602001909291905050506040518263ffffffff167c0100000000000000000000000000000000000000000000000000000000028152600401808273ffffffffffffffffffffffffffffffffffffffff1673ffffffffffffffffffffffffffffffffffffffff168152602001915050600060405180830381600087803b1580156106d857600080fd5b505af11580156106ec573d6000803e3d6000fd5b505050505b8073ffffffffffffffffffffffffffffffffffffffff16636ef8d66d6040518163ffffffff167c0100000000000000000000000000000000000000000000000000000000028152600401600060405180830381600087803b15801561075557600080fd5b505af1158015610769573d6000803e3d6000fd5b5050505080600160006101000a81548173ffffffffffffffffffffffffffffffffffffffff021916908373ffffffffffffffffffffffffffffffffffffffff16021790555050505050506107c8565b60405161160a8061095583390190565b61017e806107d76000396000f3fe60806040526004361061004c576000357c0100000000000000000000000000000000000000000000000000000000900463ffffffff168063133349bc1461005157806352daf712146100a8575b600080fd5b34801561005d57600080fd5b506100666100ff565b604051808273ffffffffffffffffffffffffffffffffffffffff1673ffffffffffffffffffffffffffffffffffffffff16815260200191505060405180910390f35b3480156100b457600080fd5b506100bd610128565b604051808273ffffffffffffffffffffffffffffffffffffffff1673ffffffffffffffffffffffffffffffffffffffff16815260200191505060405180910390f35b60008060009054906101000a900473ffffffffffffffffffffffffffffffffffffffff16905090565b6000600160009054906101000a900473ffffffffffffffffffffffffffffffffffffffff1690509056fea165627a7a723058204655bb9456274fb5534cabb9c7114fe9256aadebe45834aeac0e063452c5c858002960806040523480156200001157600080fd5b506040516020806200160a833981018060405260208110156200003357600080fd5b8101908080519060200190929190505050806200005f33620000dc640100000000026401000000009004565b6000600160006101000a81548160ff021916908315150217905550806001806101000a81548173ffffffffffffffffffffffffffffffffffffffff021916908373ffffffffffffffffffffffffffffffffffffffff16021790555060018060156101000a81548160ff02191690831515021790555050506200029e565b62000100816000620001466401000000000262001280179091906401000000009004565b8073ffffffffffffffffffffffffffffffffffffffff167f6719d08c1888103bea251a4ed56406bd0c3e69723c8a1686e017e7bbe159b6f860405160405180910390a250565b600073ffffffffffffffffffffffffffffffffffffffff168173ffffffffffffffffffffffffffffffffffffffff16141515156200018357600080fd5b6200019e828262000209640100000000026401000000009004565b151515620001ab57600080fd5b60018260000160008373ffffffffffffffffffffffffffffffffffffffff1673ffffffffffffffffffffffffffffffffffffffff16815260200190815260200160002060006101000a81548160ff0219169083151502179055505050565b60008073ffffffffffffffffffffffffffffffffffffffff168273ffffffffffffffffffffffffffffffffffffffff16141515156200024757600080fd5b8260000160008373ffffffffffffffffffffffffffffffffffffffff1673ffffffffffffffffffffffffffffffffffffffff16815260200190815260200160002060009054906101000a900460ff16905092915050565b61135c80620002ae6000396000f3fe6080604052600436106100c5576000357c0100000000000000000000000000000000000000000000000000000000900463ffffffff16806309ea2709146100ca5780633f4ba83a1461010757806346fbf68e1461011e57806352bf2c3c14610187578063595c6a67146101de5780635c975abb146101f55780636ef8d66d1461022457806382dc1ec41461023b5780638456cb591461028c578063901fe047146102a357806396a0604a146102d2578063cf1a652f14610301578063d502db9714610401575b600080fd5b3480156100d657600080fd5b50610105600480360360208110156100ed57600080fd5b81019080803515159060200190929190505050610509565b005b34801561011357600080fd5b5061011c6105c8565b005b34801561012a57600080fd5b5061016d6004803603602081101561014157600080fd5b81019080803573ffffffffffffffffffffffffffffffffffffffff169060200190929190505050610677565b604051808215151515815260200191505060405180910390f35b34801561019357600080fd5b5061019c610694565b604051808273ffffffffffffffffffffffffffffffffffffffff1673ffffffffffffffffffffffffffffffffffffffff16815260200191505060405180910390f35b3480156101ea57600080fd5b506101f36106bd565b005b34801561020157600080fd5b5061020a610916565b604051808215151515815260200191505060405180910390f35b34801561023057600080fd5b5061023961092d565b005b34801561024757600080fd5b5061028a6004803603602081101561025e57600080fd5b81019080803573ffffffffffffffffffffffffffffffffffffffff169060200190929190505050610938565b005b34801561029857600080fd5b506102a1610958565b005b3480156102af57600080fd5b506102b8610a07565b604051808215151515815260200191505060405180910390f35b3480156102de57600080fd5b506102e7610a1e565b604051808215151515815260200191505060405180910390f35b34801561030d57600080fd5b506103e76004803603604081101561032457600080fd5b810190808035906020019064010000000081111561034157600080fd5b82018360208201111561035357600080fd5b8035906020019184600183028401116401000000008311171561037557600080fd5b91908080601f016020809104026020016040519081016040528093929190818152602001838380828437600081840152601f19601f820116905080830192505050505050509192919290803573ffffffffffffffffffffffffffffffffffffffff169060200190929190505050610ae3565b604051808215151515815260200191505060405180910390f35b34801561040d57600080fd5b506104c76004803603602081101561042457600080fd5b810190808035906020019064010000000081111561044157600080fd5b82018360208201111561045357600080fd5b8035906020019184600183028401116401000000008311171561047557600080fd5b91908080601f016020809104026020016040519081016040528093929190818152602001838380828437600081840152601f19601f820116905080830192505050505050509192919290505050610f09565b604051808273ffffffffffffffffffffffffffffffffffffffff1673ffffffffffffffffffffffffffffffffffffffff16815260200191505060405180910390f35b610511610a1e565b15156105ab576040517f08c379a000000000000000000000000000000000000000000000000000000000815260040180806020018281038252602f8152602001807f546869732066756e6374696f6e2063616e206f6e6c792062652065786563757481526020017f656420627920557067726164657273000000000000000000000000000000000081525060400191505060405180910390fd5b80600160156101000a81548160ff02191690831515021790555050565b6105d133610677565b15156105dc57600080fd5b600160009054906101000a900460ff1615156105f757600080fd5b6000600160006101000a81548160ff0219169083151502179055507f5db9ee0a495bf2e6ff9c91a7834c1ba4fdd244a5e8aa4e537bd38aeae4b073aa33604051808273ffffffffffffffffffffffffffffffffffffffff1673ffffffffffffffffffffffffffffffffffffffff16815260200191505060405180910390a1565b600061068d826000610f9e90919063ffffffff16565b9050919050565b60006001809054906101000a900473ffffffffffffffffffffffffffffffffffffffff16905090565b60006106c7610694565b90508073ffffffffffffffffffffffffffffffffffffffff166324d7806c336040518263ffffffff167c0100000000000000000000000000000000000000000000000000000000028152600401808273ffffffffffffffffffffffffffffffffffffffff1673ffffffffffffffffffffffffffffffffffffffff16815260200191505060206040518083038186803b15801561076257600080fd5b505afa158015610776573d6000803e3d6000fd5b505050506040513d602081101561078c57600080fd5b81019080805190602001909291905050501515610837576040517f08c379a00000000000000000000000000000000000000000000000000000000081526004018080602001828103825260398152602001807f412061c3a7c3a36f2073c3b320706f646520736572206578656375746164612081526020017f70656c6f2061646d696e20646120676f7665726e616ec3a7610000000000000081525060400191505060405180910390fd5b60008090505b60048054905081101561091257600060048281548110151561085b57fe5b9060005260206000200160009054906101000a900473ffffffffffffffffffffffffffffffffffffffff1690508073ffffffffffffffffffffffffffffffffffffffff16638456cb596040518163ffffffff167c0100000000000000000000000000000000000000000000000000000000028152600401600060405180830381600087803b1580156108ec57600080fd5b505af1158015610900573d6000803e3d6000fd5b5050505050808060010191505061083d565b5050565b6000600160009054906101000a900460ff16905090565b61093633611032565b565b61094133610677565b151561094c57600080fd5b6109558161108c565b50565b61096133610677565b151561096c57600080fd5b600160009054906101000a900460ff1615151561098857600080fd5b60018060006101000a81548160ff0219169083151502179055507f62e78cea01bee320cd4e420270b5ea74000d11b0c9f74754ebdbfc544b05a25833604051808273ffffffffffffffffffffffffffffffffffffffff1673ffffffffffffffffffffffffffffffffffffffff16815260200191505060405180910390a1565b6000600160159054906101000a900460ff16905090565b60006001809054906101000a900473ffffffffffffffffffffffffffffffffffffffff1673ffffffffffffffffffffffffffffffffffffffff166396a0604a6040518163ffffffff167c010000000000000000000000000000000000000000000000000000000002815260040160206040518083038186803b158015610aa357600080fd5b505afa158015610ab7573d6000803e3d6000fd5b505050506040513d6020811015610acd57600080fd5b8101908080519060200190929190505050905090565b6000610aed610a1e565b1515610b87576040517f08c379a000000000000000000000000000000000000000000000000000000000815260040180806020018281038252602f8152602001807f546869732066756e6374696f6e2063616e206f6e6c792062652065786563757481526020017f656420627920557067726164657273000000000000000000000000000000000081525060400191505060405180910390fd5b60006002846040518082805190602001908083835b602083101515610bc15780518252602082019150602081019050602083039250610b9c565b6001836020036101000a038019825116818451168082178552505050505050905001915050908152602001604051809103902060009054906101000a900473ffffffffffffffffffffffffffffffffffffffff1690508073ffffffffffffffffffffffffffffffffffffffff168373ffffffffffffffffffffffffffffffffffffffff16141515610efd57600073ffffffffffffffffffffffffffffffffffffffff168173ffffffffffffffffffffffffffffffffffffffff16141515610d135760008190508073ffffffffffffffffffffffffffffffffffffffff16638456cb596040518163ffffffff167c0100000000000000000000000000000000000000000000000000000000028152600401600060405180830381600087803b158015610ceb57600080fd5b505af1158015610cff573d6000803e3d6000fd5b50505050610d0d82856110e6565b50610d7a565b60048390806001815401808255809150509060018203906000526020600020016000909192909190916101000a81548173ffffffffffffffffffffffffffffffffffffffff021916908373ffffffffffffffffffffffffffffffffffffffff160217905550505b6003846040518082805190602001908083835b602083101515610db25780518252602082019150602081019050602083039250610d8d565b6001836020036101000a03801982511681845116808217855250505050505090500191505090815260200160405180910390208390806001815401808255809150509060018203906000526020600020016000909192909190916101000a81548173ffffffffffffffffffffffffffffffffffffffff021916908373ffffffffffffffffffffffffffffffffffffffff16021790555050826002856040518082805190602001908083835b602083101515610e825780518252602082019150602081019050602083039250610e5d565b6001836020036101000a038019825116818451168082178552505050505050905001915050908152602001604051809103902060006101000a81548173ffffffffffffffffffffffffffffffffffffffff021916908373ffffffffffffffffffffffffffffffffffffffff1602179055506001915050610f03565b60009150505b92915050565b60006002826040518082805190602001908083835b602083101515610f435780518252602082019150602081019050602083039250610f1e565b6001836020036101000a038019825116818451168082178552505050505050905001915050908152602001604051809103902060009054906101000a900473ffffffffffffffffffffffffffffffffffffffff169050919050565b60008073ffffffffffffffffffffffffffffffffffffffff168273ffffffffffffffffffffffffffffffffffffffff1614151515610fdb57600080fd5b8260000160008373ffffffffffffffffffffffffffffffffffffffff1673ffffffffffffffffffffffffffffffffffffffff16815260200190815260200160002060009054906101000a900460ff16905092915050565b6110468160006111d190919063ffffffff16565b8073ffffffffffffffffffffffffffffffffffffffff167fcd265ebaf09df2871cc7bd4133404a235ba12eff2041bb89d9c714a2621c7c7e60405160405180910390a250565b6110a081600061128090919063ffffffff16565b8073ffffffffffffffffffffffffffffffffffffffff167f6719d08c1888103bea251a4ed56406bd0c3e69723c8a1686e017e7bbe159b6f860405160405180910390a250565b60008090505b6004805490508110156111cc578273ffffffffffffffffffffffffffffffffffffffff1660048281548110151561111f57fe5b9060005260206000200160009054906101000a900473ffffffffffffffffffffffffffffffffffffffff1673ffffffffffffffffffffffffffffffffffffffff1614156111bf578160048281548110151561117657fe5b9060005260206000200160006101000a81548173ffffffffffffffffffffffffffffffffffffffff021916908373ffffffffffffffffffffffffffffffffffffffff1602179055505b80806001019150506110ec565b505050565b600073ffffffffffffffffffffffffffffffffffffffff168173ffffffffffffffffffffffffffffffffffffffff161415151561120d57600080fd5b6112178282610f9e565b151561122257600080fd5b60008260000160008373ffffffffffffffffffffffffffffffffffffffff1673ffffffffffffffffffffffffffffffffffffffff16815260200190815260200160002060006101000a81548160ff0219169083151502179055505050565b600073ffffffffffffffffffffffffffffffffffffffff168173ffffffffffffffffffffffffffffffffffffffff16141515156112bc57600080fd5b6112c68282610f9e565b1515156112d257600080fd5b60018260000160008373ffffffffffffffffffffffffffffffffffffffff1673ffffffffffffffffffffffffffffffffffffffff16815260200190815260200160002060006101000a81548160ff021916908315150217905550505056fea165627a7a72305820f42b4f182067d4eb71b1e13ccc2ba8c5b8f4919e7118581a730b0b9689235e850029",
  "source": "pragma solidity ^0.5.0;\r\n\r\nimport \"../appGovernanceUpgrade/Upgrader.sol\";\r\nimport \"../appGovernanceUpgrade/Governance.sol\";\r\nimport \"../appGovernanceUpgrade/Resolver.sol\";\r\nimport \"../appGovernanceUpgrade/UpgraderInfo.sol\";\r\nimport \"./PreUpgrader1.sol\";\r\n\r\ncontract PreUpgrader2 {\r\n\r\n    //Variables from previous Migration\r\n    address private _governanceAddr;\r\n\r\n    //New variables\r\n    address private _resolverAddr;\r\n\r\n    constructor(address preUpgraderAddr1) public {\r\n        \r\n        PreUpgrader1 preUpgrader1 = PreUpgrader1(preUpgraderAddr1);\r\n        _governanceAddr = preUpgrader1.governanceAddr();\r\n\r\n        Governance governance = Governance(_governanceAddr);\r\n        UpgraderInfo ui = UpgraderInfo(governance.upgraderInfoAddr());\r\n\r\n        Resolver resolver = new Resolver(governance.upgraderInfoAddr());\r\n        resolver.addPauser(governance.owner());\r\n        if (governance.owner()!=ui.adminAddr()) {\r\n            resolver.addPauser(ui.adminAddr());\r\n        }\r\n        resolver.renouncePauser();\r\n        \r\n        _resolverAddr = address(resolver);\r\n    }\r\n\r\n    modifier onlyGovernance() {\r\n        require(_governanceAddr==msg.sender, \"PreUpgrader2 - This function can only be executed by the Governance\");\r\n        _;\r\n    }\r\n\r\n    function governanceAddr() public view returns (address) {\r\n        return _governanceAddr;\r\n    }\r\n\r\n    function resolverAddr() public view returns (address) {\r\n        return _resolverAddr;\r\n    }\r\n\r\n}\r\n",
  "sourcePath": "D:\\Workspace\\bndestoken\\Back-Blockchain-Upgrade\\contracts\\appUpgraders\\PreUpgrader2.sol",
  "compiler": {
    "name": "solc",
    "version": "0.5.0+commit.1d4f565a.Emscripten.clang"
  },
  "schemaVersion": "3.0.5",
  "updatedAt": "2019-10-01T16:26:34.528Z",
  "devdoc": {
    "methods": {}
  },
  "userdoc": {
    "methods": {}
  }
}