{
  "contractName": "PreUpgrader",
  "abi": [
    {
      "constant": true,
      "inputs": [],
      "name": "governanceAddr",
      "outputs": [
        {
          "name": "",
          "type": "address"
        }
      ],
      "payable": false,
      "stateMutability": "view",
      "type": "function"
    },
    {
      "constant": true,
      "inputs": [],
      "name": "resolverAddr",
      "outputs": [
        {
          "name": "",
          "type": "address"
        }
      ],
      "payable": false,
      "stateMutability": "view",
      "type": "function"
    },
    {
      "inputs": [
        {
          "name": "ownerOfGovernanceAddr",
          "type": "address"
        },
        {
          "name": "adminOfNewContractsAddr",
          "type": "address"
        },
        {
          "name": "governanceMembersId",
          "type": "uint256[]"
        }
      ],
      "payable": false,
      "stateMutability": "nonpayable",
      "type": "constructor"
    }
  ],
  "bytecode": "0x608060405234801561001057600080fd5b50604051615fbe380380615fbe8339810180604052606081101561003357600080fd5b810190808051906020019092919080519060200190929190805164010000000081111561005f57600080fd5b8281019050602081018481111561007557600080fd5b815185602082028301116401000000008211171561009257600080fd5b5050929190505050600082826100a6610475565b808373ffffffffffffffffffffffffffffffffffffffff1673ffffffffffffffffffffffffffffffffffffffff16815260200180602001828103825283818151815260200191508051906020019060200280838360005b838110156101185780820151818401526020810190506100fd565b505050509050019350505050604051809103906000f080158015610140573d6000803e3d6000fd5b5090508073ffffffffffffffffffffffffffffffffffffffff1663f2fde38b856040518263ffffffff167c0100000000000000000000000000000000000000000000000000000000028152600401808273ffffffffffffffffffffffffffffffffffffffff1673ffffffffffffffffffffffffffffffffffffffff168152602001915050600060405180830381600087803b1580156101de57600080fd5b505af11580156101f2573d6000803e3d6000fd5b505050508073ffffffffffffffffffffffffffffffffffffffff16636ef8d66d6040518163ffffffff167c0100000000000000000000000000000000000000000000000000000000028152600401600060405180830381600087803b15801561025a57600080fd5b505af115801561026e573d6000803e3d6000fd5b50505050806000806101000a81548173ffffffffffffffffffffffffffffffffffffffff021916908373ffffffffffffffffffffffffffffffffffffffff16021790555060008173ffffffffffffffffffffffffffffffffffffffff1663a1a4ad586040518163ffffffff167c010000000000000000000000000000000000000000000000000000000002815260040160206040518083038186803b15801561031657600080fd5b505afa15801561032a573d6000803e3d6000fd5b505050506040513d602081101561034057600080fd5b8101908080519060200190929190505050610359610485565b808273ffffffffffffffffffffffffffffffffffffffff1673ffffffffffffffffffffffffffffffffffffffff168152602001915050604051809103906000f0801580156103ab573d6000803e3d6000fd5b5090508073ffffffffffffffffffffffffffffffffffffffff16636ef8d66d6040518163ffffffff167c0100000000000000000000000000000000000000000000000000000000028152600401600060405180830381600087803b15801561041257600080fd5b505af1158015610426573d6000803e3d6000fd5b5050505080600160006101000a81548173ffffffffffffffffffffffffffffffffffffffff021916908373ffffffffffffffffffffffffffffffffffffffff1602179055505050505050610495565b6040516145f88061061a83390190565b6040516113ac80614c1283390190565b610176806104a46000396000f3fe60806040526004361061004c576000357c0100000000000000000000000000000000000000000000000000000000900463ffffffff168063133349bc1461005157806352daf712146100a8575b600080fd5b34801561005d57600080fd5b506100666100ff565b604051808273ffffffffffffffffffffffffffffffffffffffff1673ffffffffffffffffffffffffffffffffffffffff16815260200191505060405180910390f35b3480156100b457600080fd5b506100bd610124565b604051808273ffffffffffffffffffffffffffffffffffffffff1673ffffffffffffffffffffffffffffffffffffffff16815260200191505060405180910390f35b6000809054906101000a900473ffffffffffffffffffffffffffffffffffffffff1681565b600160009054906101000a900473ffffffffffffffffffffffffffffffffffffffff168156fea165627a7a723058200afa3e1eba0b1b6b2fa86908d934f8e94914e80a7ae91169055b7bae60b4db92002960806040523480156200001157600080fd5b50604051620045f8380380620045f8833981018060405260408110156200003757600080fd5b810190808051906020019092919080516401000000008111156200005a57600080fd5b828101905060208101848111156200007157600080fd5b81518560208202830111640100000000821117156200008f57600080fd5b5050929190505050620000b13362000262640100000000026401000000009004565b6000600160006101000a81548160ff021916908315150217905550336001806101000a81548173ffffffffffffffffffffffffffffffffffffffff021916908373ffffffffffffffffffffffffffffffffffffffff1602179055506001809054906101000a900473ffffffffffffffffffffffffffffffffffffffff1673ffffffffffffffffffffffffffffffffffffffff16600073ffffffffffffffffffffffffffffffffffffffff167f8be0079c531659141344cd1fd0a4f28419497f9722a3daafe3b4186f6b6457e060405160405180910390a3620001a282620002cc640100000000026401000000009004565b81620001ad62000494565b808273ffffffffffffffffffffffffffffffffffffffff1673ffffffffffffffffffffffffffffffffffffffff168152602001915050604051809103906000f08015801562000200573d6000803e3d6000fd5b50600360006101000a81548173ffffffffffffffffffffffffffffffffffffffff021916908373ffffffffffffffffffffffffffffffffffffffff160217905550806005908051906020019062000259929190620004a5565b5050506200051f565b620002868160006200030f6401000000000262002581179091906401000000009004565b8073ffffffffffffffffffffffffffffffffffffffff167f6719d08c1888103bea251a4ed56406bd0c3e69723c8a1686e017e7bbe159b6f860405160405180910390a250565b620002e633620003d2640100000000026401000000009004565b1515620002f257600080fd5b6200030c8162000262640100000000026401000000009004565b50565b600073ffffffffffffffffffffffffffffffffffffffff168173ffffffffffffffffffffffffffffffffffffffff16141515156200034c57600080fd5b620003678282620003ff640100000000026401000000009004565b1515156200037457600080fd5b60018260000160008373ffffffffffffffffffffffffffffffffffffffff1673ffffffffffffffffffffffffffffffffffffffff16815260200190815260200160002060006101000a81548160ff0219169083151502179055505050565b6000620003f8826000620003ff6401000000000262002286179091906401000000009004565b9050919050565b60008073ffffffffffffffffffffffffffffffffffffffff168273ffffffffffffffffffffffffffffffffffffffff16141515156200043d57600080fd5b8260000160008373ffffffffffffffffffffffffffffffffffffffff1673ffffffffffffffffffffffffffffffffffffffff16815260200190815260200160002060009054906101000a900460ff16905092915050565b604051610b368062003ac283390190565b828054828255906000526020600020908101928215620004e4579160200282015b82811115620004e3578251825591602001919060010190620004c6565b5b509050620004f39190620004f7565b5090565b6200051c91905b8082111562000518576000816000905550600101620004fe565b5090565b90565b613593806200052f6000396000f3fe60806040526004361062000127576000357c0100000000000000000000000000000000000000000000000000000000900463ffffffff168063196fe7b1146200012c5780633f4ba83a146200016b57806341986f3b146200018557806346fbf68e14620001c457806354a8bd0714620002315780635b57a2ed14620003005780635c975abb146200033f5780636ef8d66d1462000371578063715018a6146200038b5780637636ca6e14620003a557806382dc1ec414620004745780638456cb5914620004c95780638da5cb5b14620004e35780638f32d59b146200053d5780638fa1aa4c146200056f578063900126f414620005ae578063a1a4ad581462000608578063b70872881462000662578063d9bd6a8e14620006b7578063f2fde38b1462000720575b600080fd5b3480156200013957600080fd5b5062000169600480360360208110156200015257600080fd5b810190808035906020019092919050505062000775565b005b3480156200017857600080fd5b506200018362000cea565b005b3480156200019257600080fd5b50620001c260048036036020811015620001ab57600080fd5b810190808035906020019092919050505062000d9d565b005b348015620001d157600080fd5b506200021760048036036020811015620001ea57600080fd5b81019080803573ffffffffffffffffffffffffffffffffffffffff1690602001909291905050506200116a565b604051808215151515815260200191505060405180910390f35b3480156200023e57600080fd5b506200026e600480360360208110156200025757600080fd5b810190808035906020019092919050505062001189565b604051808581526020018473ffffffffffffffffffffffffffffffffffffffff1673ffffffffffffffffffffffffffffffffffffffff1681526020018373ffffffffffffffffffffffffffffffffffffffff1673ffffffffffffffffffffffffffffffffffffffff168152602001826004811115620002e957fe5b60ff16815260200194505050505060405180910390f35b3480156200030d57600080fd5b506200033d600480360360208110156200032657600080fd5b8101908080359060200190929190505050620012ce565b005b3480156200034c57600080fd5b5062000357620015e5565b604051808215151515815260200191505060405180910390f35b3480156200037e57600080fd5b5062000389620015fc565b005b3480156200039857600080fd5b50620003a362001609565b005b348015620003b257600080fd5b50620003e260048036036020811015620003cb57600080fd5b8101908080359060200190929190505050620016de565b604051808581526020018473ffffffffffffffffffffffffffffffffffffffff1673ffffffffffffffffffffffffffffffffffffffff1681526020018373ffffffffffffffffffffffffffffffffffffffff1673ffffffffffffffffffffffffffffffffffffffff1681526020018260048111156200045d57fe5b60ff16815260200194505050505060405180910390f35b3480156200048157600080fd5b50620004c7600480360360208110156200049a57600080fd5b81019080803573ffffffffffffffffffffffffffffffffffffffff1690602001909291905050506200176b565b005b348015620004d657600080fd5b50620004e162001790565b005b348015620004f057600080fd5b50620004fb62001843565b604051808273ffffffffffffffffffffffffffffffffffffffff1673ffffffffffffffffffffffffffffffffffffffff16815260200191505060405180910390f35b3480156200054a57600080fd5b50620005556200186c565b604051808215151515815260200191505060405180910390f35b3480156200057c57600080fd5b50620005ac600480360360208110156200059557600080fd5b8101908080359060200190929190505050620018c3565b005b348015620005bb57600080fd5b50620005c662001c6a565b604051808273ffffffffffffffffffffffffffffffffffffffff1673ffffffffffffffffffffffffffffffffffffffff16815260200191505060405180910390f35b3480156200061557600080fd5b506200062062001c90565b604051808273ffffffffffffffffffffffffffffffffffffffff1673ffffffffffffffffffffffffffffffffffffffff16815260200191505060405180910390f35b3480156200066f57600080fd5b50620006b5600480360360208110156200068857600080fd5b81019080803573ffffffffffffffffffffffffffffffffffffffff16906020019092919050505062001d59565b005b348015620006c457600080fd5b506200071e60048036036060811015620006dd57600080fd5b8101908080359060200190929190803573ffffffffffffffffffffffffffffffffffffffff1690602001909291908035906020019092919050505062001db3565b005b3480156200072d57600080fd5b5062000773600480360360208110156200074657600080fd5b81019080803573ffffffffffffffffffffffffffffffffffffffff16906020019092919050505062002262565b005b60028054905081101515620007f2576040517f08c379a00000000000000000000000000000000000000000000000000000000081526004018080602001828103825260158152602001807f496e76616c6964206368616e6765206e756d626572000000000000000000000081525060200191505060405180910390fd5b600360009054906101000a900473ffffffffffffffffffffffffffffffffffffffff1673ffffffffffffffffffffffffffffffffffffffff1663b6db75a06040518163ffffffff167c010000000000000000000000000000000000000000000000000000000002815260040160206040518083038186803b1580156200087757600080fd5b505afa1580156200088c573d6000803e3d6000fd5b505050506040513d6020811015620008a357600080fd5b810190808051906020019092919050505015156200094f576040517f08c379a000000000000000000000000000000000000000000000000000000000815260040180806020018281038252603b8152602001807f41206d7564616ec3a7612073c3b320706f64652073657220657865637574616481526020017f612070656c6f2061646d696e20646120676f7665726e616ec3a761000000000081525060400191505060405180910390fd5b6200095962002635565b6002828154811015156200096957fe5b906000526020600020906003020160806040519081016040529081600082015481526020016001820160009054906101000a900473ffffffffffffffffffffffffffffffffffffffff1673ffffffffffffffffffffffffffffffffffffffff1673ffffffffffffffffffffffffffffffffffffffff1681526020016002820160009054906101000a900473ffffffffffffffffffffffffffffffffffffffff1673ffffffffffffffffffffffffffffffffffffffff1673ffffffffffffffffffffffffffffffffffffffff1681526020016002820160149054906101000a900460ff16600481111562000a5857fe5b600481111562000a6457fe5b8152505090506001600481111562000a7857fe5b8160600151600481111562000a8957fe5b14151562000b25576040517f08c379a000000000000000000000000000000000000000000000000000000000815260040180806020018281038252602b8152602001807f41206d7564616ec3a7612070726563697361206573746172206e6f206573746181526020017f646f206170726f7661646100000000000000000000000000000000000000000081525060400191505060405180910390fd5b600081602001519050600360009054906101000a900473ffffffffffffffffffffffffffffffffffffffff1673ffffffffffffffffffffffffffffffffffffffff166311a1c423826040518263ffffffff167c0100000000000000000000000000000000000000000000000000000000028152600401808273ffffffffffffffffffffffffffffffffffffffff1673ffffffffffffffffffffffffffffffffffffffff168152602001915050600060405180830381600087803b15801562000bec57600080fd5b505af115801562000c01573d6000803e3d6000fd5b5050505060008190508073ffffffffffffffffffffffffffffffffffffffff1663d55ec6976040518163ffffffff167c0100000000000000000000000000000000000000000000000000000000028152600401600060405180830381600087803b15801562000c6f57600080fd5b505af115801562000c84573d6000803e3d6000fd5b5050505060048360600190600481111562000c9b57fe5b9081600481111562000ca957fe5b815250507f917059c1f4e69f15a941c78efb433b9957e94aceae99b068787c32e18c4a9b8d846040518082815260200191505060405180910390a150505050565b62000cf5336200116a565b151562000d0157600080fd5b600160009054906101000a900460ff16151562000d1d57600080fd5b6000600160006101000a81548160ff0219169083151502179055507f5db9ee0a495bf2e6ff9c91a7834c1ba4fdd244a5e8aa4e537bd38aeae4b073aa33604051808273ffffffffffffffffffffffffffffffffffffffff1673ffffffffffffffffffffffffffffffffffffffff16815260200191505060405180910390a1565b6002805490508110151562000e1a576040517f08c379a00000000000000000000000000000000000000000000000000000000081526004018080602001828103825260158152602001807f496e76616c6964206368616e6765206e756d626572000000000000000000000081525060200191505060405180910390fd5b62000e2462002635565b60028281548110151562000e3457fe5b906000526020600020906003020160806040519081016040529081600082015481526020016001820160009054906101000a900473ffffffffffffffffffffffffffffffffffffffff1673ffffffffffffffffffffffffffffffffffffffff1673ffffffffffffffffffffffffffffffffffffffff1681526020016002820160009054906101000a900473ffffffffffffffffffffffffffffffffffffffff1673ffffffffffffffffffffffffffffffffffffffff1673ffffffffffffffffffffffffffffffffffffffff1681526020016002820160149054906101000a900460ff16600481111562000f2357fe5b600481111562000f2f57fe5b8152505090506000600481111562000f4357fe5b8160600151600481111562000f5457fe5b14151562001016576040517f08c379a00000000000000000000000000000000000000000000000000000000081526004018080602001828103825260448152602001807f41206d7564616ec3a7612070726563697361206573746172206e6f206573746181526020017f646f20646520657370657261206461206465636973c3a36f206461206d75646181526020017f6ec3a7610000000000000000000000000000000000000000000000000000000081525060600191505060405180910390fd5b3373ffffffffffffffffffffffffffffffffffffffff16816040015173ffffffffffffffffffffffffffffffffffffffff161415156200110a576040517f08c379a00000000000000000000000000000000000000000000000000000000081526004018080602001828103825260478152602001807f41206170726f7661c3a7c3a36f207072656369736120736572206368616d616481526020017f612070656c6f20636f6e747261746f206465206465636973c3a36f206461206d81526020017f7564616ec3a7610000000000000000000000000000000000000000000000000081525060600191505060405180910390fd5b6002816060019060048111156200111d57fe5b908160048111156200112b57fe5b815250507ff1a8ffd21fe9ef7be34e0f4bf577d3bf31ce3c19c68d2c046d22275cb8b715f4826040518082815260200191505060405180910390a15050565b6000620011828260006200228690919063ffffffff16565b9050919050565b6000806000806200119962002635565b600286815481101515620011a957fe5b906000526020600020906003020160806040519081016040529081600082015481526020016001820160009054906101000a900473ffffffffffffffffffffffffffffffffffffffff1673ffffffffffffffffffffffffffffffffffffffff1673ffffffffffffffffffffffffffffffffffffffff1681526020016002820160009054906101000a900473ffffffffffffffffffffffffffffffffffffffff1673ffffffffffffffffffffffffffffffffffffffff1673ffffffffffffffffffffffffffffffffffffffff1681526020016002820160149054906101000a900460ff1660048111156200129857fe5b6004811115620012a457fe5b81525050905080600001518160200151826040015183606001519450945094509450509193509193565b620012d86200186c565b1515620012e457600080fd5b6002805490508110151562001361576040517f08c379a00000000000000000000000000000000000000000000000000000000081526004018080602001828103825260158152602001807f496e76616c6964206368616e6765206e756d626572000000000000000000000081525060200191505060405180910390fd5b6200136b62002635565b6002828154811015156200137b57fe5b906000526020600020906003020160806040519081016040529081600082015481526020016001820160009054906101000a900473ffffffffffffffffffffffffffffffffffffffff1673ffffffffffffffffffffffffffffffffffffffff1673ffffffffffffffffffffffffffffffffffffffff1681526020016002820160009054906101000a900473ffffffffffffffffffffffffffffffffffffffff1673ffffffffffffffffffffffffffffffffffffffff1673ffffffffffffffffffffffffffffffffffffffff1681526020016002820160149054906101000a900460ff1660048111156200146a57fe5b60048111156200147657fe5b815250509050600060048111156200148a57fe5b816060015160048111156200149b57fe5b1480620014c4575060016004811115620014b157fe5b81606001516004811115620014c257fe5b145b151562001585576040517f08c379a00000000000000000000000000000000000000000000000000000000081526004018080602001828103825260508152602001807f41206d7564616ec3a7612070726563697361206573746172206e6f206573746181526020017f646f20646520657370657261206461206465636973c3a36f206461206d75646181526020017f6ec3a761206f75206170726f766164610000000000000000000000000000000081525060600191505060405180910390fd5b6003816060019060048111156200159857fe5b90816004811115620015a657fe5b815250507f5edd520c0103960fbe1e1fc55ae80c123b61704fa2429473cef253e3c90ae27e826040518082815260200191505060405180910390a15050565b6000600160009054906101000a900460ff16905090565b62001607336200231b565b565b620016136200186c565b15156200161f57600080fd5b600073ffffffffffffffffffffffffffffffffffffffff166001809054906101000a900473ffffffffffffffffffffffffffffffffffffffff1673ffffffffffffffffffffffffffffffffffffffff167f8be0079c531659141344cd1fd0a4f28419497f9722a3daafe3b4186f6b6457e060405160405180910390a360006001806101000a81548173ffffffffffffffffffffffffffffffffffffffff021916908373ffffffffffffffffffffffffffffffffffffffff160217905550565b600281815481101515620016ee57fe5b90600052602060002090600302016000915090508060000154908060010160009054906101000a900473ffffffffffffffffffffffffffffffffffffffff16908060020160009054906101000a900473ffffffffffffffffffffffffffffffffffffffff16908060020160149054906101000a900460ff16905084565b62001776336200116a565b15156200178257600080fd5b6200178d8162002377565b50565b6200179b336200116a565b1515620017a757600080fd5b600160009054906101000a900460ff16151515620017c457600080fd5b60018060006101000a81548160ff0219169083151502179055507f62e78cea01bee320cd4e420270b5ea74000d11b0c9f74754ebdbfc544b05a25833604051808273ffffffffffffffffffffffffffffffffffffffff1673ffffffffffffffffffffffffffffffffffffffff16815260200191505060405180910390a1565b60006001809054906101000a900473ffffffffffffffffffffffffffffffffffffffff16905090565b60006001809054906101000a900473ffffffffffffffffffffffffffffffffffffffff1673ffffffffffffffffffffffffffffffffffffffff163373ffffffffffffffffffffffffffffffffffffffff1614905090565b6002805490508110151562001940576040517f08c379a00000000000000000000000000000000000000000000000000000000081526004018080602001828103825260158152602001807f496e76616c6964206368616e6765206e756d626572000000000000000000000081525060200191505060405180910390fd5b6200194a62002635565b6002828154811015156200195a57fe5b906000526020600020906003020160806040519081016040529081600082015481526020016001820160009054906101000a900473ffffffffffffffffffffffffffffffffffffffff1673ffffffffffffffffffffffffffffffffffffffff1673ffffffffffffffffffffffffffffffffffffffff1681526020016002820160009054906101000a900473ffffffffffffffffffffffffffffffffffffffff1673ffffffffffffffffffffffffffffffffffffffff1673ffffffffffffffffffffffffffffffffffffffff1681526020016002820160149054906101000a900460ff16600481111562001a4957fe5b600481111562001a5557fe5b8152505090506000600481111562001a6957fe5b8160600151600481111562001a7a57fe5b14151562001b16576040517f08c379a000000000000000000000000000000000000000000000000000000000815260040180806020018281038252602a8152602001807f41206d7564616ec3a7612070726563697361206573746172206e6f206573746181526020017f646f2057414954494e470000000000000000000000000000000000000000000081525060400191505060405180910390fd5b3373ffffffffffffffffffffffffffffffffffffffff16816040015173ffffffffffffffffffffffffffffffffffffffff1614151562001c0a576040517f08c379a00000000000000000000000000000000000000000000000000000000081526004018080602001828103825260478152602001807f41206170726f7661c3a7c3a36f207072656369736120736572206368616d616481526020017f612070656c6f20636f6e747261746f206465206465636973c3a36f206461206d81526020017f7564616ec3a7610000000000000000000000000000000000000000000000000081525060600191505060405180910390fd5b60018160600190600481111562001c1d57fe5b9081600481111562001c2b57fe5b815250507ff6c7f9b41b46dcd0ed5e8a9b5ea016cc15493d731db259a2efb7dd055af86684826040518082815260200191505060405180910390a15050565b600360009054906101000a900473ffffffffffffffffffffffffffffffffffffffff1681565b6000600360009054906101000a900473ffffffffffffffffffffffffffffffffffffffff1673ffffffffffffffffffffffffffffffffffffffff1663eff2dcc66040518163ffffffff167c010000000000000000000000000000000000000000000000000000000002815260040160206040518083038186803b15801562001d1757600080fd5b505afa15801562001d2c573d6000803e3d6000fd5b505050506040513d602081101562001d4357600080fd5b8101908080519060200190929190505050905090565b62001d636200186c565b151562001d6f57600080fd5b80600460006101000a81548173ffffffffffffffffffffffffffffffffffffffff021916908373ffffffffffffffffffffffffffffffffffffffff16021790555050565b62001dbd6200186c565b151562001dc957600080fd5b6000600280549050905062001ddd62002635565b6000831415156200200557600060058430600460009054906101000a900473ffffffffffffffffffffffffffffffffffffffff168662001e1c62002699565b80806020018681526020018573ffffffffffffffffffffffffffffffffffffffff1673ffffffffffffffffffffffffffffffffffffffff1681526020018473ffffffffffffffffffffffffffffffffffffffff1673ffffffffffffffffffffffffffffffffffffffff168152602001838152602001828103825287818154815260200191508054801562001ed057602002820191906000526020600020905b81548152602001906001019080831162001ebb575b50509650505050505050604051809103906000f08015801562001ef7573d6000803e3d6000fd5b5090506080604051908101604052808781526020018673ffffffffffffffffffffffffffffffffffffffff1681526020018273ffffffffffffffffffffffffffffffffffffffff1681526020016000600481111562001f5257fe5b81525091507f6cf14efcf5b851aa9027077db35ddf65e974cb66ab3e50ffcd08b3721a7e455b83878784604051808581526020018481526020018373ffffffffffffffffffffffffffffffffffffffff1673ffffffffffffffffffffffffffffffffffffffff1681526020018273ffffffffffffffffffffffffffffffffffffffff1673ffffffffffffffffffffffffffffffffffffffff16815260200194505050505060405180910390a15062002168565b6080604051908101604052808681526020018573ffffffffffffffffffffffffffffffffffffffff168152602001600073ffffffffffffffffffffffffffffffffffffffff168152602001600160048111156200205e57fe5b81525090507f6cf14efcf5b851aa9027077db35ddf65e974cb66ab3e50ffcd08b3721a7e455b8286866000604051808581526020018481526020018373ffffffffffffffffffffffffffffffffffffffff1673ffffffffffffffffffffffffffffffffffffffff1681526020018273ffffffffffffffffffffffffffffffffffffffff1673ffffffffffffffffffffffffffffffffffffffff16815260200194505050505060405180910390a16001816060019060048111156200211e57fe5b908160048111156200212c57fe5b815250507ff6c7f9b41b46dcd0ed5e8a9b5ea016cc15493d731db259a2efb7dd055af86684826040518082815260200191505060405180910390a15b600281908060018154018082558091505090600182039060005260206000209060030201600090919290919091506000820151816000015560208201518160010160006101000a81548173ffffffffffffffffffffffffffffffffffffffff021916908373ffffffffffffffffffffffffffffffffffffffff16021790555060408201518160020160006101000a81548173ffffffffffffffffffffffffffffffffffffffff021916908373ffffffffffffffffffffffffffffffffffffffff16021790555060608201518160020160146101000a81548160ff021916908360048111156200225357fe5b02179055505050505050505050565b6200226c6200186c565b15156200227857600080fd5b6200228381620023d3565b50565b60008073ffffffffffffffffffffffffffffffffffffffff168273ffffffffffffffffffffffffffffffffffffffff1614151515620022c457600080fd5b8260000160008373ffffffffffffffffffffffffffffffffffffffff1673ffffffffffffffffffffffffffffffffffffffff16815260200190815260200160002060009054906101000a900460ff16905092915050565b62002331816000620024ce90919063ffffffff16565b8073ffffffffffffffffffffffffffffffffffffffff167fcd265ebaf09df2871cc7bd4133404a235ba12eff2041bb89d9c714a2621c7c7e60405160405180910390a250565b6200238d8160006200258190919063ffffffff16565b8073ffffffffffffffffffffffffffffffffffffffff167f6719d08c1888103bea251a4ed56406bd0c3e69723c8a1686e017e7bbe159b6f860405160405180910390a250565b600073ffffffffffffffffffffffffffffffffffffffff168173ffffffffffffffffffffffffffffffffffffffff16141515156200241057600080fd5b8073ffffffffffffffffffffffffffffffffffffffff166001809054906101000a900473ffffffffffffffffffffffffffffffffffffffff1673ffffffffffffffffffffffffffffffffffffffff167f8be0079c531659141344cd1fd0a4f28419497f9722a3daafe3b4186f6b6457e060405160405180910390a3806001806101000a81548173ffffffffffffffffffffffffffffffffffffffff021916908373ffffffffffffffffffffffffffffffffffffffff16021790555050565b600073ffffffffffffffffffffffffffffffffffffffff168173ffffffffffffffffffffffffffffffffffffffff16141515156200250b57600080fd5b62002517828262002286565b15156200252357600080fd5b60008260000160008373ffffffffffffffffffffffffffffffffffffffff1673ffffffffffffffffffffffffffffffffffffffff16815260200190815260200160002060006101000a81548160ff0219169083151502179055505050565b600073ffffffffffffffffffffffffffffffffffffffff168173ffffffffffffffffffffffffffffffffffffffff1614151515620025be57600080fd5b620025ca828262002286565b151515620025d757600080fd5b60018260000160008373ffffffffffffffffffffffffffffffffffffffff1673ffffffffffffffffffffffffffffffffffffffff16815260200190815260200160002060006101000a81548160ff0219169083151502179055505050565b60806040519081016040528060008019168152602001600073ffffffffffffffffffffffffffffffffffffffff168152602001600073ffffffffffffffffffffffffffffffffffffffff168152602001600060048111156200269357fe5b81525090565b604051610ebd80620026ab8339019056fe60806040526000600755600060085534801561001a57600080fd5b50604051610ebd380380610ebd833981018060405260a081101561003d57600080fd5b81019080805164010000000081111561005557600080fd5b8281019050602081018481111561006b57600080fd5b815185602082028301116401000000008211171561008857600080fd5b505092919060200180519060200190929190805190602001909291908051906020019092919080519060200190929190505050336000806101000a81548173ffffffffffffffffffffffffffffffffffffffff021916908373ffffffffffffffffffffffffffffffffffffffff1602179055506000809054906101000a900473ffffffffffffffffffffffffffffffffffffffff1673ffffffffffffffffffffffffffffffffffffffff16600073ffffffffffffffffffffffffffffffffffffffff167f8be0079c531659141344cd1fd0a4f28419497f9722a3daafe3b4186f6b6457e060405160405180910390a361018f8561025e640100000000026401000000009004565b6101a784610312640100000000026401000000009004565b81600360006101000a81548173ffffffffffffffffffffffffffffffffffffffff021916908373ffffffffffffffffffffffffffffffffffffffff16021790555082600260006101000a81548173ffffffffffffffffffffffffffffffffffffffff021916908373ffffffffffffffffffffffffffffffffffffffff160217905550806001819055506000600360146101000a81548160ff0219169083600381111561024f57fe5b02179055505050505050610330565b60008090505b815181101561030e5760066000838381518110151561027f57fe5b90602001906020020151815260200190815260200160002060009054906101000a900460ff1615156103015760016006600084848151811015156102bf57fe5b90602001906020020151815260200190815260200160002060006101000a81548160ff0219169083151502179055506007600081548092919060010191905055505b8080600101915050610264565b5050565b806004819055506064600454111561032d5760646004819055505b50565b610b7e8061033f6000396000f3fe608060405260043610610099576000357c0100000000000000000000000000000000000000000000000000000000900463ffffffff168063200d2ed21461009e5780634b9f5c98146100d7578063715018a6146101145780638da5cb5b1461012b5780638f32d59b14610182578063990008ca146101b1578063d116f96e146101dc578063f2fde38b14610215578063fd4a77f114610266575b600080fd5b3480156100aa57600080fd5b506100b36102b9565b604051808260038111156100c357fe5b60ff16815260200191505060405180910390f35b3480156100e357600080fd5b50610112600480360360208110156100fa57600080fd5b810190808035151590602001909291905050506102cc565b005b34801561012057600080fd5b506101296105ae565b005b34801561013757600080fd5b50610140610680565b604051808273ffffffffffffffffffffffffffffffffffffffff1673ffffffffffffffffffffffffffffffffffffffff16815260200191505060405180910390f35b34801561018e57600080fd5b506101976106a9565b604051808215151515815260200191505060405180910390f35b3480156101bd57600080fd5b506101c6610700565b6040518082815260200191505060405180910390f35b3480156101e857600080fd5b506101f161070a565b6040518082600381111561020157fe5b60ff16815260200191505060405180910390f35b34801561022157600080fd5b506102646004803603602081101561023857600080fd5b81019080803573ffffffffffffffffffffffffffffffffffffffff1690602001909291905050506109b1565b005b34801561027257600080fd5b5061029f6004803603602081101561028957600080fd5b81019080803590602001909291905050506109d0565b604051808215151515815260200191505060405180910390f35b600360149054906101000a900460ff1681565b600060038111156102d957fe5b600360149054906101000a900460ff1660038111156102f457fe5b14151561038f576040517f08c379a00000000000000000000000000000000000000000000000000000000081526004018080602001828103825260218152602001807f4465636973696f6e206e6f7420696e2074686520766f74696e6720737461746581526020017f210000000000000000000000000000000000000000000000000000000000000081525060400191505060405180910390fd5b6000600360009054906101000a900473ffffffffffffffffffffffffffffffffffffffff1673ffffffffffffffffffffffffffffffffffffffff166365f68c89336040518263ffffffff167c0100000000000000000000000000000000000000000000000000000000028152600401808273ffffffffffffffffffffffffffffffffffffffff1673ffffffffffffffffffffffffffffffffffffffff168152602001915050602060405180830381600087803b15801561044e57600080fd5b505af1158015610462573d6000803e3d6000fd5b505050506040513d602081101561047857600080fd5b810190808051906020019092919050505090506006600082815260200190815260200160002060009054906101000a900460ff161515610520576040517f08c379a000000000000000000000000000000000000000000000000000000000815260040180806020018281038252601b8152602001807f446f206e6f74206861766520746865207065726d697373696f6e21000000000081525060200191505060405180910390fd5b8115156005600083815260200190815260200160002060009054906101000a900460ff1615151415156105aa57811561056a5760086000815480929190600101919050555061057e565b600860008154809291906001900391905055505b816005600083815260200190815260200160002060006101000a81548160ff0219169083151502179055505b5050565b6105b66106a9565b15156105c157600080fd5b600073ffffffffffffffffffffffffffffffffffffffff166000809054906101000a900473ffffffffffffffffffffffffffffffffffffffff1673ffffffffffffffffffffffffffffffffffffffff167f8be0079c531659141344cd1fd0a4f28419497f9722a3daafe3b4186f6b6457e060405160405180910390a360008060006101000a81548173ffffffffffffffffffffffffffffffffffffffff021916908373ffffffffffffffffffffffffffffffffffffffff160217905550565b60008060009054906101000a900473ffffffffffffffffffffffffffffffffffffffff16905090565b60008060009054906101000a900473ffffffffffffffffffffffffffffffffffffffff1673ffffffffffffffffffffffffffffffffffffffff163373ffffffffffffffffffffffffffffffffffffffff1614905090565b6000600154905090565b600080600381111561071857fe5b600360149054906101000a900460ff16600381111561073357fe5b1415156107ce576040517f08c379a00000000000000000000000000000000000000000000000000000000081526004018080602001828103825260218152602001807f4465636973696f6e206e6f7420696e2074686520766f74696e6720737461746581526020017f210000000000000000000000000000000000000000000000000000000000000081525060400191505060405180910390fd5b6107d66106a9565b15156107e157600080fd5b6000600260009054906101000a900473ffffffffffffffffffffffffffffffffffffffff16905061083260646108246004546007546109f090919063ffffffff16565b610a2e90919063ffffffff16565b60085411156108ed576001600360146101000a81548160ff0219169083600381111561085a57fe5b02179055508073ffffffffffffffffffffffffffffffffffffffff16638fa1aa4c6001546040518263ffffffff167c010000000000000000000000000000000000000000000000000000000002815260040180828152602001915050600060405180830381600087803b1580156108d057600080fd5b505af11580156108e4573d6000803e3d6000fd5b5050505061099b565b6002600360146101000a81548160ff0219169083600381111561090c57fe5b02179055508073ffffffffffffffffffffffffffffffffffffffff166341986f3b6001546040518263ffffffff167c010000000000000000000000000000000000000000000000000000000002815260040180828152602001915050600060405180830381600087803b15801561098257600080fd5b505af1158015610996573d6000803e3d6000fd5b505050505b600360149054906101000a900460ff1691505090565b6109b96106a9565b15156109c457600080fd5b6109cd81610a58565b50565b60056020528060005260406000206000915054906101000a900460ff1681565b600080831415610a035760009050610a28565b60008284029050828482811515610a1657fe5b04141515610a2357600080fd5b809150505b92915050565b60008082111515610a3e57600080fd5b60008284811515610a4b57fe5b0490508091505092915050565b600073ffffffffffffffffffffffffffffffffffffffff168173ffffffffffffffffffffffffffffffffffffffff1614151515610a9457600080fd5b8073ffffffffffffffffffffffffffffffffffffffff166000809054906101000a900473ffffffffffffffffffffffffffffffffffffffff1673ffffffffffffffffffffffffffffffffffffffff167f8be0079c531659141344cd1fd0a4f28419497f9722a3daafe3b4186f6b6457e060405160405180910390a3806000806101000a81548173ffffffffffffffffffffffffffffffffffffffff021916908373ffffffffffffffffffffffffffffffffffffffff1602179055505056fea165627a7a72305820a7d0a66b3ecf05d24ce28da5f873e2c74da0b70667842c9ccccb50349e4992e90029a165627a7a723058206f9545e8418a4c8e66e5ab243d173c33ebf5ac8832eda00557420b87725bb82d0029608060405234801561001057600080fd5b50604051602080610b368339810180604052602081101561003057600080fd5b8101908080519060200190929190505050336000806101000a81548173ffffffffffffffffffffffffffffffffffffffff021916908373ffffffffffffffffffffffffffffffffffffffff1602179055506000809054906101000a900473ffffffffffffffffffffffffffffffffffffffff1673ffffffffffffffffffffffffffffffffffffffff16600073ffffffffffffffffffffffffffffffffffffffff167f8be0079c531659141344cd1fd0a4f28419497f9722a3daafe3b4186f6b6457e060405160405180910390a38073ffffffffffffffffffffffffffffffffffffffff16600260009054906101000a900473ffffffffffffffffffffffffffffffffffffffff1673ffffffffffffffffffffffffffffffffffffffff167f7e644d79422f17c01e4894b5f4f588d331ebfa28653d42ae832dc59e38c9798f60405160405180910390a380600260006101000a81548173ffffffffffffffffffffffffffffffffffffffff021916908373ffffffffffffffffffffffffffffffffffffffff1602179055505061096c806101ca6000396000f3fe6080604052600436106100af576000357c0100000000000000000000000000000000000000000000000000000000900463ffffffff16806306a87ed4146100b457806311a1c423146100cb57806341a28df61461011c5780636d645b441461016d578063715018a6146101c45780638da5cb5b146101db5780638f32d59b1461023257806396a0604a14610261578063b6db75a014610290578063eff2dcc6146102bf578063f2fde38b14610316575b600080fd5b3480156100c057600080fd5b506100c9610367565b005b3480156100d757600080fd5b5061011a600480360360208110156100ee57600080fd5b81019080803573ffffffffffffffffffffffffffffffffffffffff169060200190929190505050610386565b005b34801561012857600080fd5b5061016b6004803603602081101561013f57600080fd5b81019080803573ffffffffffffffffffffffffffffffffffffffff169060200190929190505050610459565b005b34801561017957600080fd5b506101826105d1565b604051808273ffffffffffffffffffffffffffffffffffffffff1673ffffffffffffffffffffffffffffffffffffffff16815260200191505060405180910390f35b3480156101d057600080fd5b506101d96105fb565b005b3480156101e757600080fd5b506101f06106cd565b604051808273ffffffffffffffffffffffffffffffffffffffff1673ffffffffffffffffffffffffffffffffffffffff16815260200191505060405180910390f35b34801561023e57600080fd5b506102476106f6565b604051808215151515815260200191505060405180910390f35b34801561026d57600080fd5b5061027661074d565b604051808215151515815260200191505060405180910390f35b34801561029c57600080fd5b506102a56107a5565b604051808215151515815260200191505060405180910390f35b3480156102cb57600080fd5b506102d46107fd565b604051808273ffffffffffffffffffffffffffffffffffffffff1673ffffffffffffffffffffffffffffffffffffffff16815260200191505060405180910390f35b34801561032257600080fd5b506103656004803603602081101561033957600080fd5b81019080803573ffffffffffffffffffffffffffffffffffffffff169060200190929190505050610827565b005b61036f6106f6565b151561037a57600080fd5b6103846000610386565b565b61038e6106f6565b151561039957600080fd5b8073ffffffffffffffffffffffffffffffffffffffff16600160009054906101000a900473ffffffffffffffffffffffffffffffffffffffff1673ffffffffffffffffffffffffffffffffffffffff167f9cc0fca95bdc66b57e27ff56ce70619d6c76e891759b10768345411032913ecf60405160405180910390a380600160006101000a81548173ffffffffffffffffffffffffffffffffffffffff021916908373ffffffffffffffffffffffffffffffffffffffff16021790555050565b6104616106f6565b151561046c57600080fd5b600073ffffffffffffffffffffffffffffffffffffffff168173ffffffffffffffffffffffffffffffffffffffff1614151515610511576040517f08c379a000000000000000000000000000000000000000000000000000000000815260040180806020018281038252601e8152602001807f4e657741646472206973206e6f7420612076616c69642061646472657373000081525060200191505060405180910390fd5b8073ffffffffffffffffffffffffffffffffffffffff16600260009054906101000a900473ffffffffffffffffffffffffffffffffffffffff1673ffffffffffffffffffffffffffffffffffffffff167f7e644d79422f17c01e4894b5f4f588d331ebfa28653d42ae832dc59e38c9798f60405160405180910390a380600260006101000a81548173ffffffffffffffffffffffffffffffffffffffff021916908373ffffffffffffffffffffffffffffffffffffffff16021790555050565b6000600260009054906101000a900473ffffffffffffffffffffffffffffffffffffffff16905090565b6106036106f6565b151561060e57600080fd5b600073ffffffffffffffffffffffffffffffffffffffff166000809054906101000a900473ffffffffffffffffffffffffffffffffffffffff1673ffffffffffffffffffffffffffffffffffffffff167f8be0079c531659141344cd1fd0a4f28419497f9722a3daafe3b4186f6b6457e060405160405180910390a360008060006101000a81548173ffffffffffffffffffffffffffffffffffffffff021916908373ffffffffffffffffffffffffffffffffffffffff160217905550565b60008060009054906101000a900473ffffffffffffffffffffffffffffffffffffffff16905090565b60008060009054906101000a900473ffffffffffffffffffffffffffffffffffffffff1673ffffffffffffffffffffffffffffffffffffffff163373ffffffffffffffffffffffffffffffffffffffff1614905090565b6000600160009054906101000a900473ffffffffffffffffffffffffffffffffffffffff1673ffffffffffffffffffffffffffffffffffffffff163373ffffffffffffffffffffffffffffffffffffffff1614905090565b6000600260009054906101000a900473ffffffffffffffffffffffffffffffffffffffff1673ffffffffffffffffffffffffffffffffffffffff163373ffffffffffffffffffffffffffffffffffffffff1614905090565b6000600160009054906101000a900473ffffffffffffffffffffffffffffffffffffffff16905090565b61082f6106f6565b151561083a57600080fd5b61084381610846565b50565b600073ffffffffffffffffffffffffffffffffffffffff168173ffffffffffffffffffffffffffffffffffffffff161415151561088257600080fd5b8073ffffffffffffffffffffffffffffffffffffffff166000809054906101000a900473ffffffffffffffffffffffffffffffffffffffff1673ffffffffffffffffffffffffffffffffffffffff167f8be0079c531659141344cd1fd0a4f28419497f9722a3daafe3b4186f6b6457e060405160405180910390a3806000806101000a81548173ffffffffffffffffffffffffffffffffffffffff021916908373ffffffffffffffffffffffffffffffffffffffff1602179055505056fea165627a7a72305820af3f74b915b62b92ac4cef4ac5909e469493559d14b3a9040065cd74c6f76a45002960806040523480156200001157600080fd5b50604051602080620013ac833981018060405260208110156200003357600080fd5b8101908080519060200190929190505050806200005f336200019b640100000000026401000000009004565b6000600160006101000a81548160ff021916908315150217905550806001806101000a81548173ffffffffffffffffffffffffffffffffffffffff021916908373ffffffffffffffffffffffffffffffffffffffff16021790555060018060156101000a81548160ff0219169083151502179055506000819050620001928173ffffffffffffffffffffffffffffffffffffffff16636d645b446040518163ffffffff167c010000000000000000000000000000000000000000000000000000000002815260040160206040518083038186803b1580156200014057600080fd5b505afa15801562000155573d6000803e3d6000fd5b505050506040513d60208110156200016c57600080fd5b810190808051906020019092919050505062000205640100000000026401000000009004565b505050620003cd565b620001bf816000620002486401000000000262000ef3179091906401000000009004565b8073ffffffffffffffffffffffffffffffffffffffff167f6719d08c1888103bea251a4ed56406bd0c3e69723c8a1686e017e7bbe159b6f860405160405180910390a250565b6200021f336200030b640100000000026401000000009004565b15156200022b57600080fd5b62000245816200019b640100000000026401000000009004565b50565b600073ffffffffffffffffffffffffffffffffffffffff168173ffffffffffffffffffffffffffffffffffffffff16141515156200028557600080fd5b620002a0828262000338640100000000026401000000009004565b151515620002ad57600080fd5b60018260000160008373ffffffffffffffffffffffffffffffffffffffff1673ffffffffffffffffffffffffffffffffffffffff16815260200190815260200160002060006101000a81548160ff0219169083151502179055505050565b600062000331826000620003386401000000000262000cfc179091906401000000009004565b9050919050565b60008073ffffffffffffffffffffffffffffffffffffffff168273ffffffffffffffffffffffffffffffffffffffff16141515156200037657600080fd5b8260000160008373ffffffffffffffffffffffffffffffffffffffff1673ffffffffffffffffffffffffffffffffffffffff16815260200190815260200160002060009054906101000a900460ff16905092915050565b610fcf80620003dd6000396000f3fe6080604052600436106100c5576000357c0100000000000000000000000000000000000000000000000000000000900463ffffffff16806309ea2709146100ca5780633f4ba83a1461010757806346fbf68e1461011e57806352bf2c3c146101875780635389f8a6146101de5780635c975abb1461020d5780636ef8d66d1461023c57806382dc1ec4146102535780638456cb59146102a4578063901fe047146102bb57806396a0604a146102ea578063cf1a652f14610319578063d502db9714610419575b600080fd5b3480156100d657600080fd5b50610105600480360360208110156100ed57600080fd5b81019080803515159060200190929190505050610521565b005b34801561011357600080fd5b5061011c6105e0565b005b34801561012a57600080fd5b5061016d6004803603602081101561014157600080fd5b81019080803573ffffffffffffffffffffffffffffffffffffffff16906020019092919050505061068f565b604051808215151515815260200191505060405180910390f35b34801561019357600080fd5b5061019c6106ac565b604051808273ffffffffffffffffffffffffffffffffffffffff1673ffffffffffffffffffffffffffffffffffffffff16815260200191505060405180910390f35b3480156101ea57600080fd5b506101f36106d1565b604051808215151515815260200191505060405180910390f35b34801561021957600080fd5b506102226106e8565b604051808215151515815260200191505060405180910390f35b34801561024857600080fd5b506102516106ff565b005b34801561025f57600080fd5b506102a26004803603602081101561027657600080fd5b81019080803573ffffffffffffffffffffffffffffffffffffffff16906020019092919050505061070a565b005b3480156102b057600080fd5b506102b961072a565b005b3480156102c757600080fd5b506102d06107d9565b604051808215151515815260200191505060405180910390f35b3480156102f657600080fd5b506102ff6107ec565b604051808215151515815260200191505060405180910390f35b34801561032557600080fd5b506103ff6004803603604081101561033c57600080fd5b810190808035906020019064010000000081111561035957600080fd5b82018360208201111561036b57600080fd5b8035906020019184600183028401116401000000008311171561038d57600080fd5b91908080601f016020809104026020016040519081016040528093929190818152602001838380828437600081840152601f19601f820116905080830192505050505050509192919290803573ffffffffffffffffffffffffffffffffffffffff1690602001909291905050506108b6565b604051808215151515815260200191505060405180910390f35b34801561042557600080fd5b506104df6004803603602081101561043c57600080fd5b810190808035906020019064010000000081111561045957600080fd5b82018360208201111561046b57600080fd5b8035906020019184600183028401116401000000008311171561048d57600080fd5b91908080601f016020809104026020016040519081016040528093929190818152602001838380828437600081840152601f19601f820116905080830192505050505050509192919290505050610c67565b604051808273ffffffffffffffffffffffffffffffffffffffff1673ffffffffffffffffffffffffffffffffffffffff16815260200191505060405180910390f35b6105296107ec565b15156105c3576040517f08c379a000000000000000000000000000000000000000000000000000000000815260040180806020018281038252602f8152602001807f546869732066756e6374696f6e2063616e206f6e6c792062652065786563757481526020017f656420627920557067726164657273000000000000000000000000000000000081525060400191505060405180910390fd5b80600160156101000a81548160ff02191690831515021790555050565b6105e93361068f565b15156105f457600080fd5b600160009054906101000a900460ff16151561060f57600080fd5b6000600160006101000a81548160ff0219169083151502179055507f5db9ee0a495bf2e6ff9c91a7834c1ba4fdd244a5e8aa4e537bd38aeae4b073aa33604051808273ffffffffffffffffffffffffffffffffffffffff1673ffffffffffffffffffffffffffffffffffffffff16815260200191505060405180910390a1565b60006106a5826000610cfc90919063ffffffff16565b9050919050565b6001809054906101000a900473ffffffffffffffffffffffffffffffffffffffff1681565b6000600160159054906101000a900460ff16905090565b6000600160009054906101000a900460ff16905090565b61070833610d90565b565b6107133361068f565b151561071e57600080fd5b61072781610dea565b50565b6107333361068f565b151561073e57600080fd5b600160009054906101000a900460ff1615151561075a57600080fd5b60018060006101000a81548160ff0219169083151502179055507f62e78cea01bee320cd4e420270b5ea74000d11b0c9f74754ebdbfc544b05a25833604051808273ffffffffffffffffffffffffffffffffffffffff1673ffffffffffffffffffffffffffffffffffffffff16815260200191505060405180910390a1565b600160159054906101000a900460ff1681565b6000806001809054906101000a900473ffffffffffffffffffffffffffffffffffffffff1690508073ffffffffffffffffffffffffffffffffffffffff166396a0604a6040518163ffffffff167c010000000000000000000000000000000000000000000000000000000002815260040160206040518083038186803b15801561087557600080fd5b505afa158015610889573d6000803e3d6000fd5b505050506040513d602081101561089f57600080fd5b810190808051906020019092919050505091505090565b60006108c06107ec565b151561095a576040517f08c379a000000000000000000000000000000000000000000000000000000000815260040180806020018281038252602f8152602001807f546869732066756e6374696f6e2063616e206f6e6c792062652065786563757481526020017f656420627920557067726164657273000000000000000000000000000000000081525060400191505060405180910390fd5b60006002846040518082805190602001908083835b602083101515610994578051825260208201915060208101905060208303925061096f565b6001836020036101000a038019825116818451168082178552505050505050905001915050908152602001604051809103902060009054906101000a900473ffffffffffffffffffffffffffffffffffffffff1690508073ffffffffffffffffffffffffffffffffffffffff168373ffffffffffffffffffffffffffffffffffffffff16141515610c5b57600073ffffffffffffffffffffffffffffffffffffffff168173ffffffffffffffffffffffffffffffffffffffff16141515610ad85760008190508073ffffffffffffffffffffffffffffffffffffffff16638456cb596040518163ffffffff167c0100000000000000000000000000000000000000000000000000000000028152600401600060405180830381600087803b158015610abe57600080fd5b505af1158015610ad2573d6000803e3d6000fd5b50505050505b6003846040518082805190602001908083835b602083101515610b105780518252602082019150602081019050602083039250610aeb565b6001836020036101000a03801982511681845116808217855250505050505090500191505090815260200160405180910390208390806001815401808255809150509060018203906000526020600020016000909192909190916101000a81548173ffffffffffffffffffffffffffffffffffffffff021916908373ffffffffffffffffffffffffffffffffffffffff16021790555050826002856040518082805190602001908083835b602083101515610be05780518252602082019150602081019050602083039250610bbb565b6001836020036101000a038019825116818451168082178552505050505050905001915050908152602001604051809103902060006101000a81548173ffffffffffffffffffffffffffffffffffffffff021916908373ffffffffffffffffffffffffffffffffffffffff1602179055506001915050610c61565b60009150505b92915050565b60006002826040518082805190602001908083835b602083101515610ca15780518252602082019150602081019050602083039250610c7c565b6001836020036101000a038019825116818451168082178552505050505050905001915050908152602001604051809103902060009054906101000a900473ffffffffffffffffffffffffffffffffffffffff169050919050565b60008073ffffffffffffffffffffffffffffffffffffffff168273ffffffffffffffffffffffffffffffffffffffff1614151515610d3957600080fd5b8260000160008373ffffffffffffffffffffffffffffffffffffffff1673ffffffffffffffffffffffffffffffffffffffff16815260200190815260200160002060009054906101000a900460ff16905092915050565b610da4816000610e4490919063ffffffff16565b8073ffffffffffffffffffffffffffffffffffffffff167fcd265ebaf09df2871cc7bd4133404a235ba12eff2041bb89d9c714a2621c7c7e60405160405180910390a250565b610dfe816000610ef390919063ffffffff16565b8073ffffffffffffffffffffffffffffffffffffffff167f6719d08c1888103bea251a4ed56406bd0c3e69723c8a1686e017e7bbe159b6f860405160405180910390a250565b600073ffffffffffffffffffffffffffffffffffffffff168173ffffffffffffffffffffffffffffffffffffffff1614151515610e8057600080fd5b610e8a8282610cfc565b1515610e9557600080fd5b60008260000160008373ffffffffffffffffffffffffffffffffffffffff1673ffffffffffffffffffffffffffffffffffffffff16815260200190815260200160002060006101000a81548160ff0219169083151502179055505050565b600073ffffffffffffffffffffffffffffffffffffffff168173ffffffffffffffffffffffffffffffffffffffff1614151515610f2f57600080fd5b610f398282610cfc565b151515610f4557600080fd5b60018260000160008373ffffffffffffffffffffffffffffffffffffffff1673ffffffffffffffffffffffffffffffffffffffff16815260200190815260200160002060006101000a81548160ff021916908315150217905550505056fea165627a7a72305820276e2ee20a04009d87f8182d963f37a591745c7e3489388aa111404f17819ae80029",
  "source": "pragma solidity ^0.5.0;\r\n\r\nimport \"./Governance.sol\";\r\nimport \"./Resolver.sol\";\r\n\r\n\r\ncontract PreUpgrader {\r\n\r\n    address public governanceAddr;\r\n    address public resolverAddr;\r\n \r\n\r\n    constructor(address ownerOfGovernanceAddr, address adminOfNewContractsAddr, uint[] memory governanceMembersId) public {\r\n\r\n        Governance governance = new Governance(adminOfNewContractsAddr, governanceMembersId);\r\n        governance.transferOwnership(ownerOfGovernanceAddr);\r\n        governance.renouncePauser();\r\n        governanceAddr = address(governance);\r\n\r\n\r\n        Resolver resolver = new Resolver(governance.getUpgraderInfoAddr());\r\n        resolver.renouncePauser();\r\n        resolverAddr = address(resolver);\r\n    }\r\n\r\n}\r\n",
  "sourcePath": "D:\\Workspace\\bndestoken\\Back-Blockchain-Upgrade\\contracts\\PreUpgrader.sol",
  "compiler": {
    "name": "solc",
    "version": "0.5.0+commit.1d4f565a.Emscripten.clang"
  },
  "schemaVersion": "3.0.5",
  "updatedAt": "2019-09-19T21:32:06.939Z",
  "devdoc": {
    "methods": {}
  },
  "userdoc": {
    "methods": {}
  }
}