{
  "contractName": "PreviousAddrMapping",
  "abi": [
    {
      "inputs": [
        {
          "name": "t",
          "type": "string"
        },
        {
          "name": "storageContractAddr",
          "type": "address"
        }
      ],
      "payable": false,
      "stateMutability": "nonpayable",
      "type": "constructor"
    },
    {
      "constant": true,
      "inputs": [
        {
          "name": "index",
          "type": "int256"
        }
      ],
      "name": "getAddr",
      "outputs": [
        {
          "name": "",
          "type": "address"
        }
      ],
      "payable": false,
      "stateMutability": "view",
      "type": "function"
    },
    {
      "constant": false,
      "inputs": [
        {
          "name": "newAddr",
          "type": "address"
        }
      ],
      "name": "pushAddr",
      "outputs": [],
      "payable": false,
      "stateMutability": "nonpayable",
      "type": "function"
    }
  ],
  "bytecode": "0x608060405260146040519080825280601f01601f1916602001820160405280156100385781602001600182028038833980820191505090505b506001908051906020019061004e929190610141565b50600060025534801561006057600080fd5b506040516106b23803806106b28339810180604052604081101561008357600080fd5b81019080805164010000000081111561009b57600080fd5b828101905060208101848111156100b157600080fd5b81518560018202830111640100000000821117156100ce57600080fd5b50509291906020018051906020019092919050505081600190805190602001906100f9929190610141565b50806000806101000a81548173ffffffffffffffffffffffffffffffffffffffff021916908373ffffffffffffffffffffffffffffffffffffffff16021790555050506101e6565b828054600181600116156101000203166002900490600052602060002090601f016020900481019282601f1061018257805160ff19168380011785556101b0565b828001600101855582156101b0579182015b828111156101af578251825591602001919060010190610194565b5b5090506101bd91906101c1565b5090565b6101e391905b808211156101df5760008160009055506001016101c7565b5090565b90565b6104bd806101f56000396000f3fe60806040526004361061004c576000357c0100000000000000000000000000000000000000000000000000000000900463ffffffff168063030326ad1461005157806371731981146100a2575b600080fd5b34801561005d57600080fd5b506100a06004803603602081101561007457600080fd5b81019080803573ffffffffffffffffffffffffffffffffffffffff16906020019092919050505061011d565b005b3480156100ae57600080fd5b506100db600480360360208110156100c557600080fd5b81019080803590602001909291905050506102e8565b604051808273ffffffffffffffffffffffffffffffffffffffff1673ffffffffffffffffffffffffffffffffffffffff16815260200191505060405180910390f35b6000600160025460405160200180807f50726576696f7573416464724d617070696e6700000000000000000000000000815250601301807f424e4445535265736f6c76657200000000000000000000000000000000000000815250600d01838054600181600116156101000203166002900480156101d25780601f106101b05761010080835404028352918201916101d2565b820191906000526020600020905b8154815290600101906020018083116101be575b5050828152602001925050506040516020818303038152906040528051906020012090506000809054906101000a900473ffffffffffffffffffffffffffffffffffffffff1673ffffffffffffffffffffffffffffffffffffffff1663ca446dd982846040518363ffffffff167c0100000000000000000000000000000000000000000000000000000000028152600401808381526020018273ffffffffffffffffffffffffffffffffffffffff1673ffffffffffffffffffffffffffffffffffffffff16815260200192505050600060405180830381600087803b1580156102ba57600080fd5b505af11580156102ce573d6000803e3d6000fd5b505050506002600081548092919060010191905055505050565b60008060018360405160200180807f50726576696f7573416464724d617070696e6700000000000000000000000000815250601301807f424e4445535265736f6c76657200000000000000000000000000000000000000815250600d018380546001816001161561010002031660029004801561039c5780601f1061037a57610100808354040283529182019161039c565b820191906000526020600020905b815481529060010190602001808311610388575b5050828152602001925050506040516020818303038152906040528051906020012090506000809054906101000a900473ffffffffffffffffffffffffffffffffffffffff1673ffffffffffffffffffffffffffffffffffffffff166321f8a721826040518263ffffffff167c01000000000000000000000000000000000000000000000000000000000281526004018082815260200191505060206040518083038186803b15801561044e57600080fd5b505afa158015610462573d6000803e3d6000fd5b505050506040513d602081101561047857600080fd5b810190808051906020019092919050505091505091905056fea165627a7a723058201844b61474d1c8e8fbc137815999c6d7482377176076f6d4e30d1bdfdba46b660029",
  "source": "pragma solidity ^0.5.0;\r\n\r\nimport \"./Storage.sol\";\r\n\r\n/*\r\n    address[] previousbndesRegistryAddr;\r\n*/\r\n\r\ncontract PreviousAddrMapping {\r\n\r\n    Storage storageContract;\r\n    string objectType = new string(20);\r\n    int length=0;\r\n\r\n    constructor (string memory t, address storageContractAddr) public {\r\n        objectType = t;\r\n        storageContract = Storage(storageContractAddr);\r\n    }\r\n\r\n    function getAddr(int index) view public returns (address) {\r\n        bytes32 key = keccak256(abi.encodePacked(\"PreviousAddrMapping\",\"BNDESResolver\", objectType, index));\r\n        return storageContract.getAddress(key);\r\n    }\r\n\r\n    function pushAddr(address newAddr) public {\r\n        bytes32 key = keccak256(abi.encodePacked(\"PreviousAddrMapping\",\"BNDESResolver\", objectType, length));\r\n        storageContract.setAddress(key, newAddr);\r\n        length++;\r\n    }\r\n\r\n}",
  "sourcePath": "D:/Workspace/bndestoken/Back-Blockchain-Upgrade/contracts/PreviousAddrMapping.sol",
  "compiler": {
    "name": "solc",
    "version": "0.5.0+commit.1d4f565a.Emscripten.clang"
  },
  "schemaVersion": "3.0.5",
  "updatedAt": "2019-09-06T19:34:40.089Z",
  "devdoc": {
    "methods": {}
  },
  "userdoc": {
    "methods": {}
  }
}