{
  "contractName": "UpdatableHandleable",
  "abi": [
    {
      "constant": false,
      "inputs": [
        {
          "name": "b",
          "type": "bool"
        }
      ],
      "name": "setDataAvailable",
      "outputs": [],
      "payable": false,
      "stateMutability": "nonpayable",
      "type": "function"
    },
    {
      "constant": false,
      "inputs": [],
      "name": "unpause",
      "outputs": [],
      "payable": false,
      "stateMutability": "nonpayable",
      "type": "function"
    },
    {
      "constant": true,
      "inputs": [
        {
          "name": "account",
          "type": "address"
        }
      ],
      "name": "isPauser",
      "outputs": [
        {
          "name": "",
          "type": "bool"
        }
      ],
      "payable": false,
      "stateMutability": "view",
      "type": "function"
    },
    {
      "constant": true,
      "inputs": [],
      "name": "upgraderInfoAddr",
      "outputs": [
        {
          "name": "",
          "type": "address"
        }
      ],
      "payable": false,
      "stateMutability": "view",
      "type": "function"
    },
    {
      "constant": true,
      "inputs": [],
      "name": "getDataAvailable",
      "outputs": [
        {
          "name": "",
          "type": "bool"
        }
      ],
      "payable": false,
      "stateMutability": "view",
      "type": "function"
    },
    {
      "constant": true,
      "inputs": [],
      "name": "paused",
      "outputs": [
        {
          "name": "",
          "type": "bool"
        }
      ],
      "payable": false,
      "stateMutability": "view",
      "type": "function"
    },
    {
      "constant": false,
      "inputs": [],
      "name": "renouncePauser",
      "outputs": [],
      "payable": false,
      "stateMutability": "nonpayable",
      "type": "function"
    },
    {
      "constant": false,
      "inputs": [
        {
          "name": "account",
          "type": "address"
        }
      ],
      "name": "addPauser",
      "outputs": [],
      "payable": false,
      "stateMutability": "nonpayable",
      "type": "function"
    },
    {
      "constant": false,
      "inputs": [],
      "name": "pause",
      "outputs": [],
      "payable": false,
      "stateMutability": "nonpayable",
      "type": "function"
    },
    {
      "constant": true,
      "inputs": [],
      "name": "dataAvailable",
      "outputs": [
        {
          "name": "",
          "type": "bool"
        }
      ],
      "payable": false,
      "stateMutability": "view",
      "type": "function"
    },
    {
      "constant": true,
      "inputs": [],
      "name": "isAllowedUpgrader",
      "outputs": [
        {
          "name": "",
          "type": "bool"
        }
      ],
      "payable": false,
      "stateMutability": "view",
      "type": "function"
    },
    {
      "inputs": [
        {
          "name": "upgraderInfo",
          "type": "address"
        }
      ],
      "payable": false,
      "stateMutability": "nonpayable",
      "type": "constructor"
    },
    {
      "anonymous": false,
      "inputs": [
        {
          "indexed": false,
          "name": "account",
          "type": "address"
        }
      ],
      "name": "Paused",
      "type": "event"
    },
    {
      "anonymous": false,
      "inputs": [
        {
          "indexed": false,
          "name": "account",
          "type": "address"
        }
      ],
      "name": "Unpaused",
      "type": "event"
    },
    {
      "anonymous": false,
      "inputs": [
        {
          "indexed": true,
          "name": "account",
          "type": "address"
        }
      ],
      "name": "PauserAdded",
      "type": "event"
    },
    {
      "anonymous": false,
      "inputs": [
        {
          "indexed": true,
          "name": "account",
          "type": "address"
        }
      ],
      "name": "PauserRemoved",
      "type": "event"
    },
    {
      "constant": true,
      "inputs": [],
      "name": "isHandler",
      "outputs": [
        {
          "name": "",
          "type": "bool"
        }
      ],
      "payable": false,
      "stateMutability": "view",
      "type": "function"
    },
    {
      "constant": false,
      "inputs": [
        {
          "name": "_handlerAddr",
          "type": "address"
        }
      ],
      "name": "addHandler",
      "outputs": [
        {
          "name": "",
          "type": "bool"
        }
      ],
      "payable": false,
      "stateMutability": "nonpayable",
      "type": "function"
    },
    {
      "constant": false,
      "inputs": [
        {
          "name": "_handlerAddr",
          "type": "address"
        }
      ],
      "name": "removeHandler",
      "outputs": [
        {
          "name": "",
          "type": "bool"
        }
      ],
      "payable": false,
      "stateMutability": "nonpayable",
      "type": "function"
    }
  ],
  "bytecode": "0x60806040523480156200001157600080fd5b50604051602080620010c8833981018060405260208110156200003357600080fd5b8101908080519060200190929190505050806200005f336200019b640100000000026401000000009004565b6000600160006101000a81548160ff021916908315150217905550806001806101000a81548173ffffffffffffffffffffffffffffffffffffffff021916908373ffffffffffffffffffffffffffffffffffffffff16021790555060018060156101000a81548160ff0219169083151502179055506000819050620001928173ffffffffffffffffffffffffffffffffffffffff16636d645b446040518163ffffffff167c010000000000000000000000000000000000000000000000000000000002815260040160206040518083038186803b1580156200014057600080fd5b505afa15801562000155573d6000803e3d6000fd5b505050506040513d60208110156200016c57600080fd5b810190808051906020019092919050505062000205640100000000026401000000009004565b505050620003cd565b620001bf816000620002486401000000000262000c0f179091906401000000009004565b8073ffffffffffffffffffffffffffffffffffffffff167f6719d08c1888103bea251a4ed56406bd0c3e69723c8a1686e017e7bbe159b6f860405160405180910390a250565b6200021f336200030b640100000000026401000000009004565b15156200022b57600080fd5b62000245816200019b640100000000026401000000009004565b50565b600073ffffffffffffffffffffffffffffffffffffffff168173ffffffffffffffffffffffffffffffffffffffff16141515156200028557600080fd5b620002a0828262000338640100000000026401000000009004565b151515620002ad57600080fd5b60018260000160008373ffffffffffffffffffffffffffffffffffffffff1673ffffffffffffffffffffffffffffffffffffffff16815260200190815260200160002060006101000a81548160ff0219169083151502179055505050565b600062000331826000620003386401000000000262000a18179091906401000000009004565b9050919050565b60008073ffffffffffffffffffffffffffffffffffffffff168273ffffffffffffffffffffffffffffffffffffffff16141515156200037657600080fd5b8260000160008373ffffffffffffffffffffffffffffffffffffffff1673ffffffffffffffffffffffffffffffffffffffff16815260200190815260200160002060009054906101000a900460ff16905092915050565b610ceb80620003dd6000396000f3fe6080604052600436106100d0576000357c0100000000000000000000000000000000000000000000000000000000900463ffffffff16806309ea2709146100d557806316d3ffc3146101125780633f4ba83a1461017b57806346fbf68e1461019257806352bf2c3c146101fb5780635389f8a6146102525780635c975abb146102815780635fa037ca146102b05780636ef8d66d146102df57806382dc1ec4146102f65780638456cb5914610347578063901fe0471461035e57806396a0604a1461038d578063fb7d8a1e146103bc575b600080fd5b3480156100e157600080fd5b50610110600480360360208110156100f857600080fd5b81019080803515159060200190929190505050610425565b005b34801561011e57600080fd5b506101616004803603602081101561013557600080fd5b81019080803573ffffffffffffffffffffffffffffffffffffffff1690602001909291905050506104e4565b604051808215151515815260200191505060405180910390f35b34801561018757600080fd5b506101906105e9565b005b34801561019e57600080fd5b506101e1600480360360208110156101b557600080fd5b81019080803573ffffffffffffffffffffffffffffffffffffffff169060200190929190505050610698565b604051808215151515815260200191505060405180910390f35b34801561020757600080fd5b506102106106b5565b604051808273ffffffffffffffffffffffffffffffffffffffff1673ffffffffffffffffffffffffffffffffffffffff16815260200191505060405180910390f35b34801561025e57600080fd5b506102676106da565b604051808215151515815260200191505060405180910390f35b34801561028d57600080fd5b506102966106f1565b604051808215151515815260200191505060405180910390f35b3480156102bc57600080fd5b506102c5610708565b604051808215151515815260200191505060405180910390f35b3480156102eb57600080fd5b506102f461075c565b005b34801561030257600080fd5b506103456004803603602081101561031957600080fd5b81019080803573ffffffffffffffffffffffffffffffffffffffff169060200190929190505050610767565b005b34801561035357600080fd5b5061035c610787565b005b34801561036a57600080fd5b50610373610836565b604051808215151515815260200191505060405180910390f35b34801561039957600080fd5b506103a2610849565b604051808215151515815260200191505060405180910390f35b3480156103c857600080fd5b5061040b600480360360208110156103df57600080fd5b81019080803573ffffffffffffffffffffffffffffffffffffffff169060200190929190505050610913565b604051808215151515815260200191505060405180910390f35b61042d610849565b15156104c7576040517f08c379a000000000000000000000000000000000000000000000000000000000815260040180806020018281038252602f8152602001807f546869732066756e6374696f6e2063616e206f6e6c792062652065786563757481526020017f656420627920557067726164657273000000000000000000000000000000000081525060400191505060405180910390fd5b80600160156101000a81548160ff02191690831515021790555050565b60006104ee610849565b1515610588576040517f08c379a000000000000000000000000000000000000000000000000000000000815260040180806020018281038252602f8152602001807f546869732066756e6374696f6e2063616e206f6e6c792062652065786563757481526020017f656420627920557067726164657273000000000000000000000000000000000081525060400191505060405180910390fd5b6000600260008473ffffffffffffffffffffffffffffffffffffffff1673ffffffffffffffffffffffffffffffffffffffff16815260200190815260200160002060006101000a81548160ff02191690831515021790555060019050919050565b6105f233610698565b15156105fd57600080fd5b600160009054906101000a900460ff16151561061857600080fd5b6000600160006101000a81548160ff0219169083151502179055507f5db9ee0a495bf2e6ff9c91a7834c1ba4fdd244a5e8aa4e537bd38aeae4b073aa33604051808273ffffffffffffffffffffffffffffffffffffffff1673ffffffffffffffffffffffffffffffffffffffff16815260200191505060405180910390a1565b60006106ae826000610a1890919063ffffffff16565b9050919050565b6001809054906101000a900473ffffffffffffffffffffffffffffffffffffffff1681565b6000600160159054906101000a900460ff16905090565b6000600160009054906101000a900460ff16905090565b6000600260003373ffffffffffffffffffffffffffffffffffffffff1673ffffffffffffffffffffffffffffffffffffffff16815260200190815260200160002060009054906101000a900460ff16905090565b61076533610aac565b565b61077033610698565b151561077b57600080fd5b61078481610b06565b50565b61079033610698565b151561079b57600080fd5b600160009054906101000a900460ff161515156107b757600080fd5b60018060006101000a81548160ff0219169083151502179055507f62e78cea01bee320cd4e420270b5ea74000d11b0c9f74754ebdbfc544b05a25833604051808273ffffffffffffffffffffffffffffffffffffffff1673ffffffffffffffffffffffffffffffffffffffff16815260200191505060405180910390a1565b600160159054906101000a900460ff1681565b6000806001809054906101000a900473ffffffffffffffffffffffffffffffffffffffff1690508073ffffffffffffffffffffffffffffffffffffffff166396a0604a6040518163ffffffff167c010000000000000000000000000000000000000000000000000000000002815260040160206040518083038186803b1580156108d257600080fd5b505afa1580156108e6573d6000803e3d6000fd5b505050506040513d60208110156108fc57600080fd5b810190808051906020019092919050505091505090565b600061091d610849565b15156109b7576040517f08c379a000000000000000000000000000000000000000000000000000000000815260040180806020018281038252602f8152602001807f546869732066756e6374696f6e2063616e206f6e6c792062652065786563757481526020017f656420627920557067726164657273000000000000000000000000000000000081525060400191505060405180910390fd5b6001600260008473ffffffffffffffffffffffffffffffffffffffff1673ffffffffffffffffffffffffffffffffffffffff16815260200190815260200160002060006101000a81548160ff02191690831515021790555060019050919050565b60008073ffffffffffffffffffffffffffffffffffffffff168273ffffffffffffffffffffffffffffffffffffffff1614151515610a5557600080fd5b8260000160008373ffffffffffffffffffffffffffffffffffffffff1673ffffffffffffffffffffffffffffffffffffffff16815260200190815260200160002060009054906101000a900460ff16905092915050565b610ac0816000610b6090919063ffffffff16565b8073ffffffffffffffffffffffffffffffffffffffff167fcd265ebaf09df2871cc7bd4133404a235ba12eff2041bb89d9c714a2621c7c7e60405160405180910390a250565b610b1a816000610c0f90919063ffffffff16565b8073ffffffffffffffffffffffffffffffffffffffff167f6719d08c1888103bea251a4ed56406bd0c3e69723c8a1686e017e7bbe159b6f860405160405180910390a250565b600073ffffffffffffffffffffffffffffffffffffffff168173ffffffffffffffffffffffffffffffffffffffff1614151515610b9c57600080fd5b610ba68282610a18565b1515610bb157600080fd5b60008260000160008373ffffffffffffffffffffffffffffffffffffffff1673ffffffffffffffffffffffffffffffffffffffff16815260200190815260200160002060006101000a81548160ff0219169083151502179055505050565b600073ffffffffffffffffffffffffffffffffffffffff168173ffffffffffffffffffffffffffffffffffffffff1614151515610c4b57600080fd5b610c558282610a18565b151515610c6157600080fd5b60018260000160008373ffffffffffffffffffffffffffffffffffffffff1673ffffffffffffffffffffffffffffffffffffffff16815260200190815260200160002060006101000a81548160ff021916908315150217905550505056fea165627a7a723058201c679a9a0b1a775ef1a290382de2bfdf01f515adfc75541ab1ebdd31ed3d2b3e0029",
  "source": "pragma solidity ^0.5.0;\r\n\r\nimport \"./Updatable.sol\";\r\n\r\ncontract UpdatableHandleable is Updatable {\r\n\r\n    mapping(address => bool) private handlerAddrPermission;\r\n\r\n    constructor (address upgraderInfo) Updatable(upgraderInfo)  public {\r\n    }\r\n\r\n    /**\r\n\t * Check if msg.sender is a Handler of this contract. It is used for setters.\r\n\t * If fail, throw PermissionException.\r\n\t */\r\n\tmodifier onlyHandler {\r\n\t\trequire(isHandler(), \"Do not have the handler permission to write!\");\r\n\t\t_;\r\n\t}\r\n\r\n\tmodifier onlyHandlerOrUpgrader {\r\n\t\trequire(isHandler() || isAllowedUpgrader(), \"Do not have the handler permission to write!\");\r\n\t\t_;\r\n\t}\r\n\r\n    function isHandler() public view returns (bool) {\r\n        return handlerAddrPermission[msg.sender];\r\n    }\r\n\r\n\tfunction addHandler (address _handlerAddr) external onlyAllowedUpgrader returns(bool)  {\r\n        handlerAddrPermission[_handlerAddr] = true;\r\n\t\treturn true;\r\n\t}\r\n\r\n\tfunction removeHandler (address _handlerAddr) external onlyAllowedUpgrader returns(bool)  {\r\n        handlerAddrPermission[_handlerAddr] = false;\r\n\t\treturn true;\r\n\t}\r\n\r\n}",
  "sourcePath": "D:\\Workspace\\bndestoken\\Back-Blockchain-Upgrade\\contracts\\UpdatableHandleable.sol",
  "compiler": {
    "name": "solc",
    "version": "0.5.0+commit.1d4f565a.Emscripten.clang"
  },
  "schemaVersion": "3.0.5",
  "updatedAt": "2019-09-19T21:32:06.958Z",
  "devdoc": {
    "methods": {
      "pause()": {
        "details": "called by the owner to pause, triggers stopped state"
      },
      "paused()": {
        "return": "true if the contract is paused, false otherwise."
      },
      "unpause()": {
        "details": "called by the owner to unpause, returns to normal state"
      }
    }
  },
  "userdoc": {
    "methods": {}
  }
}