{
  "contractName": "Upgrader1",
  "abi": [
    {
      "constant": true,
      "inputs": [],
      "name": "storageContract",
      "outputs": [
        {
          "name": "",
          "type": "address"
        }
      ],
      "payable": false,
      "stateMutability": "view",
      "type": "function"
    },
    {
      "constant": true,
      "inputs": [],
      "name": "bndesRegistry",
      "outputs": [
        {
          "name": "",
          "type": "address"
        }
      ],
      "payable": false,
      "stateMutability": "view",
      "type": "function"
    },
    {
      "constant": true,
      "inputs": [],
      "name": "preUpgrader",
      "outputs": [
        {
          "name": "",
          "type": "address"
        }
      ],
      "payable": false,
      "stateMutability": "view",
      "type": "function"
    },
    {
      "constant": true,
      "inputs": [],
      "name": "legalEntityMapping",
      "outputs": [
        {
          "name": "",
          "type": "address"
        }
      ],
      "payable": false,
      "stateMutability": "view",
      "type": "function"
    },
    {
      "inputs": [
        {
          "name": "preUpgraderAddr",
          "type": "address"
        }
      ],
      "payable": false,
      "stateMutability": "nonpayable",
      "type": "constructor"
    },
    {
      "constant": false,
      "inputs": [],
      "name": "upgrade",
      "outputs": [],
      "payable": false,
      "stateMutability": "nonpayable",
      "type": "function"
    }
  ],
  "bytecode": "0x608060405234801561001057600080fd5b5060405160208061576d8339810180604052602081101561003057600080fd5b8101908080519060200190929190505050806000806101000a81548173ffffffffffffffffffffffffffffffffffffffff021916908373ffffffffffffffffffffffffffffffffffffffff160217905550506156dc806100916000396000f3fe60806040526004361062000073576000357c0100000000000000000000000000000000000000000000000000000000900463ffffffff16806311ce026714620000785780633436e6bb14620000d2578063562fe679146200012c578063bf8570511462000186578063d55ec69714620001e0575b600080fd5b3480156200008557600080fd5b5062000090620001fa565b604051808273ffffffffffffffffffffffffffffffffffffffff1673ffffffffffffffffffffffffffffffffffffffff16815260200191505060405180910390f35b348015620000df57600080fd5b50620000ea62000220565b604051808273ffffffffffffffffffffffffffffffffffffffff1673ffffffffffffffffffffffffffffffffffffffff16815260200191505060405180910390f35b3480156200013957600080fd5b506200014462000246565b604051808273ffffffffffffffffffffffffffffffffffffffff1673ffffffffffffffffffffffffffffffffffffffff16815260200191505060405180910390f35b3480156200019357600080fd5b506200019e6200026b565b604051808273ffffffffffffffffffffffffffffffffffffffff1673ffffffffffffffffffffffffffffffffffffffff16815260200191505060405180910390f35b348015620001ed57600080fd5b50620001f862000291565b005b600160009054906101000a900473ffffffffffffffffffffffffffffffffffffffff1681565b600360009054906101000a900473ffffffffffffffffffffffffffffffffffffffff1681565b6000809054906101000a900473ffffffffffffffffffffffffffffffffffffffff1681565b600260009054906101000a900473ffffffffffffffffffffffffffffffffffffffff1681565b3373ffffffffffffffffffffffffffffffffffffffff166000809054906101000a900473ffffffffffffffffffffffffffffffffffffffff1673ffffffffffffffffffffffffffffffffffffffff166343d4954f6040518163ffffffff167c010000000000000000000000000000000000000000000000000000000002815260040160206040518083038186803b1580156200032c57600080fd5b505afa15801562000341573d6000803e3d6000fd5b505050506040513d60208110156200035857600080fd5b810190808051906020019092919050505073ffffffffffffffffffffffffffffffffffffffff161415156200041b576040517f08c379a00000000000000000000000000000000000000000000000000000000081526004018080602001828103825260348152602001807f546869732066756e6374696f6e2063616e206f6e6c792062652065786563757481526020017f65642062792074686520476f7665726e616e636500000000000000000000000081525060400191505060405180910390fd5b60008060009054906101000a900473ffffffffffffffffffffffffffffffffffffffff1673ffffffffffffffffffffffffffffffffffffffff166343d4954f6040518163ffffffff167c010000000000000000000000000000000000000000000000000000000002815260040160206040518083038186803b158015620004a157600080fd5b505afa158015620004b6573d6000803e3d6000fd5b505050506040513d6020811015620004cd57600080fd5b81019080805190602001909291905050509050600081905060008173ffffffffffffffffffffffffffffffffffffffff1663a1a4ad586040518163ffffffff167c010000000000000000000000000000000000000000000000000000000002815260040160206040518083038186803b1580156200054a57600080fd5b505afa1580156200055f573d6000803e3d6000fd5b505050506040513d60208110156200057657600080fd5b81019080805190602001909291905050509050806200059462000e2e565b808273ffffffffffffffffffffffffffffffffffffffff1673ffffffffffffffffffffffffffffffffffffffff168152602001915050604051809103906000f080158015620005e7573d6000803e3d6000fd5b50600160006101000a81548173ffffffffffffffffffffffffffffffffffffffff021916908373ffffffffffffffffffffffffffffffffffffffff16021790555080600160009054906101000a900473ffffffffffffffffffffffffffffffffffffffff166200065662000e3f565b808373ffffffffffffffffffffffffffffffffffffffff1673ffffffffffffffffffffffffffffffffffffffff1681526020018273ffffffffffffffffffffffffffffffffffffffff1673ffffffffffffffffffffffffffffffffffffffff16815260200192505050604051809103906000f080158015620006dc573d6000803e3d6000fd5b50600260006101000a81548173ffffffffffffffffffffffffffffffffffffffff021916908373ffffffffffffffffffffffffffffffffffffffff16021790555080600260009054906101000a900473ffffffffffffffffffffffffffffffffffffffff166200074b62000e50565b808373ffffffffffffffffffffffffffffffffffffffff1673ffffffffffffffffffffffffffffffffffffffff1681526020018273ffffffffffffffffffffffffffffffffffffffff1673ffffffffffffffffffffffffffffffffffffffff16815260200192505050604051809103906000f080158015620007d1573d6000803e3d6000fd5b50600360006101000a81548173ffffffffffffffffffffffffffffffffffffffff021916908373ffffffffffffffffffffffffffffffffffffffff160217905550600160009054906101000a900473ffffffffffffffffffffffffffffffffffffffff1673ffffffffffffffffffffffffffffffffffffffff1663fb7d8a1e600260009054906101000a900473ffffffffffffffffffffffffffffffffffffffff166040518263ffffffff167c0100000000000000000000000000000000000000000000000000000000028152600401808273ffffffffffffffffffffffffffffffffffffffff1673ffffffffffffffffffffffffffffffffffffffff168152602001915050602060405180830381600087803b158015620008f257600080fd5b505af115801562000907573d6000803e3d6000fd5b505050506040513d60208110156200091e57600080fd5b810190808051906020019092919050505050600260009054906101000a900473ffffffffffffffffffffffffffffffffffffffff1673ffffffffffffffffffffffffffffffffffffffff1663fb7d8a1e600360009054906101000a900473ffffffffffffffffffffffffffffffffffffffff166040518263ffffffff167c0100000000000000000000000000000000000000000000000000000000028152600401808273ffffffffffffffffffffffffffffffffffffffff1673ffffffffffffffffffffffffffffffffffffffff168152602001915050602060405180830381600087803b15801562000a1057600080fd5b505af115801562000a25573d6000803e3d6000fd5b505050506040513d602081101562000a3c57600080fd5b81019080805190602001909291905050505060008060009054906101000a900473ffffffffffffffffffffffffffffffffffffffff1673ffffffffffffffffffffffffffffffffffffffff166309117d266040518163ffffffff167c010000000000000000000000000000000000000000000000000000000002815260040160206040518083038186803b15801562000ad457600080fd5b505afa15801562000ae9573d6000803e3d6000fd5b505050506040513d602081101562000b0057600080fd5b810190808051906020019092919050505090508073ffffffffffffffffffffffffffffffffffffffff1663cf1a652f600360009054906101000a900473ffffffffffffffffffffffffffffffffffffffff166040518263ffffffff167c010000000000000000000000000000000000000000000000000000000002815260040180806020018373ffffffffffffffffffffffffffffffffffffffff1673ffffffffffffffffffffffffffffffffffffffff1681526020018281038252600d8152602001807f424e44455352656769737472790000000000000000000000000000000000000081525060200192505050602060405180830381600087803b15801562000c0a57600080fd5b505af115801562000c1f573d6000803e3d6000fd5b505050506040513d602081101562000c3657600080fd5b810190808051906020019092919050505050600160009054906101000a900473ffffffffffffffffffffffffffffffffffffffff1673ffffffffffffffffffffffffffffffffffffffff16636ef8d66d6040518163ffffffff167c0100000000000000000000000000000000000000000000000000000000028152600401600060405180830381600087803b15801562000ccf57600080fd5b505af115801562000ce4573d6000803e3d6000fd5b50505050600260009054906101000a900473ffffffffffffffffffffffffffffffffffffffff1673ffffffffffffffffffffffffffffffffffffffff16636ef8d66d6040518163ffffffff167c0100000000000000000000000000000000000000000000000000000000028152600401600060405180830381600087803b15801562000d6f57600080fd5b505af115801562000d84573d6000803e3d6000fd5b50505050600360009054906101000a900473ffffffffffffffffffffffffffffffffffffffff1673ffffffffffffffffffffffffffffffffffffffff16636ef8d66d6040518163ffffffff167c0100000000000000000000000000000000000000000000000000000000028152600401600060405180830381600087803b15801562000e0f57600080fd5b505af115801562000e24573d6000803e3d6000fd5b5050505050505050565b604051611f7f8062000e6283390190565b60405161160a8062002de183390190565b6040516112c680620043eb8339019056fe60806040523480156200001157600080fd5b5060405160208062001f7f833981018060405260208110156200003357600080fd5b8101908080519060200190929190505050808062000060336200019d640100000000026401000000009004565b6000600160006101000a81548160ff021916908315150217905550806001806101000a81548173ffffffffffffffffffffffffffffffffffffffff021916908373ffffffffffffffffffffffffffffffffffffffff16021790555060018060156101000a81548160ff0219169083151502179055506000819050620001938173ffffffffffffffffffffffffffffffffffffffff16636d645b446040518163ffffffff167c010000000000000000000000000000000000000000000000000000000002815260040160206040518083038186803b1580156200014157600080fd5b505afa15801562000156573d6000803e3d6000fd5b505050506040513d60208110156200016d57600080fd5b810190808051906020019092919050505062000207640100000000026401000000009004565b50505050620003cf565b620001c18160006200024a640100000000026200199f179091906401000000009004565b8073ffffffffffffffffffffffffffffffffffffffff167f6719d08c1888103bea251a4ed56406bd0c3e69723c8a1686e017e7bbe159b6f860405160405180910390a250565b62000221336200030d640100000000026401000000009004565b15156200022d57600080fd5b62000247816200019d640100000000026401000000009004565b50565b600073ffffffffffffffffffffffffffffffffffffffff168173ffffffffffffffffffffffffffffffffffffffff16141515156200028757600080fd5b620002a282826200033a640100000000026401000000009004565b151515620002af57600080fd5b60018260000160008373ffffffffffffffffffffffffffffffffffffffff1673ffffffffffffffffffffffffffffffffffffffff16815260200190815260200160002060006101000a81548160ff0219169083151502179055505050565b6000620003338260006200033a64010000000002620017a8179091906401000000009004565b9050919050565b60008073ffffffffffffffffffffffffffffffffffffffff168273ffffffffffffffffffffffffffffffffffffffff16141515156200037857600080fd5b8260000160008373ffffffffffffffffffffffffffffffffffffffff1673ffffffffffffffffffffffffffffffffffffffff16815260200190815260200160002060009054906101000a900460ff16905092915050565b611ba080620003df6000396000f3fe608060405260043610610154576000357c0100000000000000000000000000000000000000000000000000000000900463ffffffff16806309ea27091461015957806316d3ffc31461019657806321f8a721146101ff5780632e28d0841461027a5780633848207a1461034c5780633e49bed01461039f5780633f4ba83a146103e457806346fbf68e146103fb57806352bf2c3c146104645780635389f8a6146104bb5780635c975abb146104ea5780635fa037ca146105195780636e899550146105485780636ef8d66d1461061a57806382dc1ec4146106315780638456cb5914610682578063901fe0471461069957806396a0604a146106c8578063986e791a146106f7578063bd02d0f5146107ab578063c031a180146107fa578063ca446dd9146108ae578063dc97d96214610909578063e2a4853a14610958578063f8715b3e1461099d578063fb7d8a1e146109e4575b600080fd5b34801561016557600080fd5b506101946004803603602081101561017c57600080fd5b81019080803515159060200190929190505050610a4d565b005b3480156101a257600080fd5b506101e5600480360360208110156101b957600080fd5b81019080803573ffffffffffffffffffffffffffffffffffffffff169060200190929190505050610b0c565b604051808215151515815260200191505060405180910390f35b34801561020b57600080fd5b506102386004803603602081101561022257600080fd5b8101908080359060200190929190505050610c11565b604051808273ffffffffffffffffffffffffffffffffffffffff1673ffffffffffffffffffffffffffffffffffffffff16815260200191505060405180910390f35b34801561028657600080fd5b5061034a6004803603604081101561029d57600080fd5b8101908080359060200190929190803590602001906401000000008111156102c457600080fd5b8201836020820111156102d657600080fd5b803590602001918460018302840111640100000000831117156102f857600080fd5b91908080601f016020809104026020016040519081016040528093929190818152602001838380828437600081840152601f19601f820116905080830192505050505050509192919290505050610c51565b005b34801561035857600080fd5b506103856004803603602081101561036f57600080fd5b8101908080359060200190929190505050610d31565b604051808215151515815260200191505060405180910390f35b3480156103ab57600080fd5b506103e2600480360360408110156103c257600080fd5b810190808035906020019092919080359060200190929190505050610d5e565b005b3480156103f057600080fd5b506103f9610e2e565b005b34801561040757600080fd5b5061044a6004803603602081101561041e57600080fd5b81019080803573ffffffffffffffffffffffffffffffffffffffff169060200190929190505050610edd565b604051808215151515815260200191505060405180910390f35b34801561047057600080fd5b50610479610efa565b604051808273ffffffffffffffffffffffffffffffffffffffff1673ffffffffffffffffffffffffffffffffffffffff16815260200191505060405180910390f35b3480156104c757600080fd5b506104d0610f1f565b604051808215151515815260200191505060405180910390f35b3480156104f657600080fd5b506104ff610f36565b604051808215151515815260200191505060405180910390f35b34801561052557600080fd5b5061052e610f4d565b604051808215151515815260200191505060405180910390f35b34801561055457600080fd5b506106186004803603604081101561056b57600080fd5b81019080803590602001909291908035906020019064010000000081111561059257600080fd5b8201836020820111156105a457600080fd5b803590602001918460018302840111640100000000831117156105c657600080fd5b91908080601f016020809104026020016040519081016040528093929190818152602001838380828437600081840152601f19601f820116905080830192505050505050509192919290505050610fa1565b005b34801561062657600080fd5b5061062f611080565b005b34801561063d57600080fd5b506106806004803603602081101561065457600080fd5b81019080803573ffffffffffffffffffffffffffffffffffffffff16906020019092919050505061108b565b005b34801561068e57600080fd5b506106976110ab565b005b3480156106a557600080fd5b506106ae61115a565b604051808215151515815260200191505060405180910390f35b3480156106d457600080fd5b506106dd61116d565b604051808215151515815260200191505060405180910390f35b34801561070357600080fd5b506107306004803603602081101561071a57600080fd5b8101908080359060200190929190505050611237565b6040518080602001828103825283818151815260200191508051906020019080838360005b83811015610770578082015181840152602081019050610755565b50505050905090810190601f16801561079d5780820380516001836020036101000a031916815260200191505b509250505060405180910390f35b3480156107b757600080fd5b506107e4600480360360208110156107ce57600080fd5b81019080803590602001909291905050506112ee565b6040518082815260200191505060405180910390f35b34801561080657600080fd5b506108336004803603602081101561081d57600080fd5b810190808035906020019092919050505061130e565b6040518080602001828103825283818151815260200191508051906020019080838360005b83811015610873578082015181840152602081019050610858565b50505050905090810190601f1680156108a05780820380516001836020036101000a031916815260200191505b509250505060405180910390f35b3480156108ba57600080fd5b50610907600480360360408110156108d157600080fd5b8101908080359060200190929190803573ffffffffffffffffffffffffffffffffffffffff1690602001909291905050506113c6565b005b34801561091557600080fd5b506109426004803603602081101561092c57600080fd5b81019080803590602001909291905050506114d0565b6040518082815260200191505060405180910390f35b34801561096457600080fd5b5061099b6004803603604081101561097b57600080fd5b8101908080359060200190929190803590602001909291905050506114f0565b005b3480156109a957600080fd5b506109e2600480360360408110156109c057600080fd5b81019080803590602001909291908035151590602001909291905050506115c0565b005b3480156109f057600080fd5b50610a3360048036036020811015610a0757600080fd5b81019080803573ffffffffffffffffffffffffffffffffffffffff1690602001909291905050506116a3565b604051808215151515815260200191505060405180910390f35b610a5561116d565b1515610aef576040517f08c379a000000000000000000000000000000000000000000000000000000000815260040180806020018281038252602f8152602001807f546869732066756e6374696f6e2063616e206f6e6c792062652065786563757481526020017f656420627920557067726164657273000000000000000000000000000000000081525060400191505060405180910390fd5b80600160156101000a81548160ff02191690831515021790555050565b6000610b1661116d565b1515610bb0576040517f08c379a000000000000000000000000000000000000000000000000000000000815260040180806020018281038252602f8152602001807f546869732066756e6374696f6e2063616e206f6e6c792062652065786563757481526020017f656420627920557067726164657273000000000000000000000000000000000081525060400191505060405180910390fd5b6000600260008473ffffffffffffffffffffffffffffffffffffffff1673ffffffffffffffffffffffffffffffffffffffff16815260200190815260200160002060006101000a81548160ff02191690831515021790555060019050919050565b60006003600401600083815260200190815260200160002060009054906101000a900473ffffffffffffffffffffffffffffffffffffffff169050919050565b610c59610f4d565b80610c685750610c6761116d565b5b1515610d02576040517f08c379a000000000000000000000000000000000000000000000000000000000815260040180806020018281038252602c8152602001807f446f206e6f742068617665207468652068616e646c6572207065726d6973736981526020017f6f6e20746f20777269746521000000000000000000000000000000000000000081525060400191505060405180910390fd5b80600360050160008481526020019081526020016000209080519060200190610d2c929190611a4f565b505050565b60006003600001600083815260200190815260200160002060009054906101000a900460ff169050919050565b610d66610f4d565b80610d755750610d7461116d565b5b1515610e0f576040517f08c379a000000000000000000000000000000000000000000000000000000000815260040180806020018281038252602c8152602001807f446f206e6f742068617665207468652068616e646c6572207065726d6973736981526020017f6f6e20746f20777269746521000000000000000000000000000000000000000081525060400191505060405180910390fd5b8060036001016000848152602001908152602001600020819055505050565b610e3733610edd565b1515610e4257600080fd5b600160009054906101000a900460ff161515610e5d57600080fd5b6000600160006101000a81548160ff0219169083151502179055507f5db9ee0a495bf2e6ff9c91a7834c1ba4fdd244a5e8aa4e537bd38aeae4b073aa33604051808273ffffffffffffffffffffffffffffffffffffffff1673ffffffffffffffffffffffffffffffffffffffff16815260200191505060405180910390a1565b6000610ef38260006117a890919063ffffffff16565b9050919050565b6001809054906101000a900473ffffffffffffffffffffffffffffffffffffffff1681565b6000600160159054906101000a900460ff16905090565b6000600160009054906101000a900460ff16905090565b6000600260003373ffffffffffffffffffffffffffffffffffffffff1673ffffffffffffffffffffffffffffffffffffffff16815260200190815260200160002060009054906101000a900460ff16905090565b610fa9610f4d565b80610fb85750610fb761116d565b5b1515611052576040517f08c379a000000000000000000000000000000000000000000000000000000000815260040180806020018281038252602c8152602001807f446f206e6f742068617665207468652068616e646c6572207065726d6973736981526020017f6f6e20746f20777269746521000000000000000000000000000000000000000081525060400191505060405180910390fd5b80600380016000848152602001908152602001600020908051906020019061107b929190611acf565b505050565b6110893361183c565b565b61109433610edd565b151561109f57600080fd5b6110a881611896565b50565b6110b433610edd565b15156110bf57600080fd5b600160009054906101000a900460ff161515156110db57600080fd5b60018060006101000a81548160ff0219169083151502179055507f62e78cea01bee320cd4e420270b5ea74000d11b0c9f74754ebdbfc544b05a25833604051808273ffffffffffffffffffffffffffffffffffffffff1673ffffffffffffffffffffffffffffffffffffffff16815260200191505060405180910390a1565b600160159054906101000a900460ff1681565b6000806001809054906101000a900473ffffffffffffffffffffffffffffffffffffffff1690508073ffffffffffffffffffffffffffffffffffffffff166396a0604a6040518163ffffffff167c010000000000000000000000000000000000000000000000000000000002815260040160206040518083038186803b1580156111f657600080fd5b505afa15801561120a573d6000803e3d6000fd5b505050506040513d602081101561122057600080fd5b810190808051906020019092919050505091505090565b60606003800160008381526020019081526020016000208054600181600116156101000203166002900480601f0160208091040260200160405190810160405280929190818152602001828054600181600116156101000203166002900480156112e25780601f106112b7576101008083540402835291602001916112e2565b820191906000526020600020905b8154815290600101906020018083116112c557829003601f168201915b50505050509050919050565b600060036002016000838152602001908152602001600020549050919050565b6060600360050160008381526020019081526020016000208054600181600116156101000203166002900480601f0160208091040260200160405190810160405280929190818152602001828054600181600116156101000203166002900480156113ba5780601f1061138f576101008083540402835291602001916113ba565b820191906000526020600020905b81548152906001019060200180831161139d57829003601f168201915b50505050509050919050565b6113ce610f4d565b806113dd57506113dc61116d565b5b1515611477576040517f08c379a000000000000000000000000000000000000000000000000000000000815260040180806020018281038252602c8152602001807f446f206e6f742068617665207468652068616e646c6572207065726d6973736981526020017f6f6e20746f20777269746521000000000000000000000000000000000000000081525060400191505060405180910390fd5b806003600401600084815260200190815260200160002060006101000a81548173ffffffffffffffffffffffffffffffffffffffff021916908373ffffffffffffffffffffffffffffffffffffffff1602179055505050565b600060036001016000838152602001908152602001600020549050919050565b6114f8610f4d565b80611507575061150661116d565b5b15156115a1576040517f08c379a000000000000000000000000000000000000000000000000000000000815260040180806020018281038252602c8152602001807f446f206e6f742068617665207468652068616e646c6572207065726d6973736981526020017f6f6e20746f20777269746521000000000000000000000000000000000000000081525060400191505060405180910390fd5b8060036002016000848152602001908152602001600020819055505050565b6115c8610f4d565b806115d757506115d661116d565b5b1515611671576040517f08c379a000000000000000000000000000000000000000000000000000000000815260040180806020018281038252602c8152602001807f446f206e6f742068617665207468652068616e646c6572207065726d6973736981526020017f6f6e20746f20777269746521000000000000000000000000000000000000000081525060400191505060405180910390fd5b806003600001600084815260200190815260200160002060006101000a81548160ff0219169083151502179055505050565b60006116ad61116d565b1515611747576040517f08c379a000000000000000000000000000000000000000000000000000000000815260040180806020018281038252602f8152602001807f546869732066756e6374696f6e2063616e206f6e6c792062652065786563757481526020017f656420627920557067726164657273000000000000000000000000000000000081525060400191505060405180910390fd5b6001600260008473ffffffffffffffffffffffffffffffffffffffff1673ffffffffffffffffffffffffffffffffffffffff16815260200190815260200160002060006101000a81548160ff02191690831515021790555060019050919050565b60008073ffffffffffffffffffffffffffffffffffffffff168273ffffffffffffffffffffffffffffffffffffffff16141515156117e557600080fd5b8260000160008373ffffffffffffffffffffffffffffffffffffffff1673ffffffffffffffffffffffffffffffffffffffff16815260200190815260200160002060009054906101000a900460ff16905092915050565b6118508160006118f090919063ffffffff16565b8073ffffffffffffffffffffffffffffffffffffffff167fcd265ebaf09df2871cc7bd4133404a235ba12eff2041bb89d9c714a2621c7c7e60405160405180910390a250565b6118aa81600061199f90919063ffffffff16565b8073ffffffffffffffffffffffffffffffffffffffff167f6719d08c1888103bea251a4ed56406bd0c3e69723c8a1686e017e7bbe159b6f860405160405180910390a250565b600073ffffffffffffffffffffffffffffffffffffffff168173ffffffffffffffffffffffffffffffffffffffff161415151561192c57600080fd5b61193682826117a8565b151561194157600080fd5b60008260000160008373ffffffffffffffffffffffffffffffffffffffff1673ffffffffffffffffffffffffffffffffffffffff16815260200190815260200160002060006101000a81548160ff0219169083151502179055505050565b600073ffffffffffffffffffffffffffffffffffffffff168173ffffffffffffffffffffffffffffffffffffffff16141515156119db57600080fd5b6119e582826117a8565b1515156119f157600080fd5b60018260000160008373ffffffffffffffffffffffffffffffffffffffff1673ffffffffffffffffffffffffffffffffffffffff16815260200190815260200160002060006101000a81548160ff0219169083151502179055505050565b828054600181600116156101000203166002900490600052602060002090601f016020900481019282601f10611a9057805160ff1916838001178555611abe565b82800160010185558215611abe579182015b82811115611abd578251825591602001919060010190611aa2565b5b509050611acb9190611b4f565b5090565b828054600181600116156101000203166002900490600052602060002090601f016020900481019282601f10611b1057805160ff1916838001178555611b3e565b82800160010185558215611b3e579182015b82811115611b3d578251825591602001919060010190611b22565b5b509050611b4b9190611b4f565b5090565b611b7191905b80821115611b6d576000816000905550600101611b55565b5090565b9056fea165627a7a72305820a424a3757396b112daa9a6dd5f70927898cb8a587a54ad4c9a94d40851472d1b002960806040523480156200001157600080fd5b506040516040806200160a833981018060405260408110156200003357600080fd5b81019080805190602001909291908051906020019092919050505081806200006a33620001e9640100000000026401000000009004565b6000600160006101000a81548160ff021916908315150217905550806001806101000a81548173ffffffffffffffffffffffffffffffffffffffff021916908373ffffffffffffffffffffffffffffffffffffffff16021790555060018060156101000a81548160ff02191690831515021790555060008190506200019d8173ffffffffffffffffffffffffffffffffffffffff16636d645b446040518163ffffffff167c010000000000000000000000000000000000000000000000000000000002815260040160206040518083038186803b1580156200014b57600080fd5b505afa15801562000160573d6000803e3d6000fd5b505050506040513d60208110156200017757600080fd5b810190808051906020019092919050505062000253640100000000026401000000009004565b50505080600360006101000a81548173ffffffffffffffffffffffffffffffffffffffff021916908373ffffffffffffffffffffffffffffffffffffffff16021790555050506200041b565b6200020d816000620002966401000000000262001103179091906401000000009004565b8073ffffffffffffffffffffffffffffffffffffffff167f6719d08c1888103bea251a4ed56406bd0c3e69723c8a1686e017e7bbe159b6f860405160405180910390a250565b6200026d3362000359640100000000026401000000009004565b15156200027957600080fd5b6200029381620001e9640100000000026401000000009004565b50565b600073ffffffffffffffffffffffffffffffffffffffff168173ffffffffffffffffffffffffffffffffffffffff1614151515620002d357600080fd5b620002ee828262000386640100000000026401000000009004565b151515620002fb57600080fd5b60018260000160008373ffffffffffffffffffffffffffffffffffffffff1673ffffffffffffffffffffffffffffffffffffffff16815260200190815260200160002060006101000a81548160ff0219169083151502179055505050565b60006200037f826000620003866401000000000262000f0c179091906401000000009004565b9050919050565b60008073ffffffffffffffffffffffffffffffffffffffff168273ffffffffffffffffffffffffffffffffffffffff1614151515620003c457600080fd5b8260000160008373ffffffffffffffffffffffffffffffffffffffff1673ffffffffffffffffffffffffffffffffffffffff16815260200190815260200160002060009054906101000a900460ff16905092915050565b6111df806200042b6000396000f3fe6080604052600436106100f1576000357c0100000000000000000000000000000000000000000000000000000000900463ffffffff16806309ea2709146100f657806316d3ffc3146101335780633f4ba83a1461019c57806346fbf68e146101b357806352bf2c3c1461021c5780635389f8a6146102735780635c975abb146102a25780635fa037ca146102d15780636ef8d66d146103005780637a0be7ba1461031757806382dc1ec4146103525780638456cb59146103a3578063901fe047146103ba57806396a0604a146103e9578063c802f1b414610418578063f837b45c14610443578063fb7d8a1e14610494575b600080fd5b34801561010257600080fd5b506101316004803603602081101561011957600080fd5b810190808035151590602001909291905050506104fd565b005b34801561013f57600080fd5b506101826004803603602081101561015657600080fd5b81019080803573ffffffffffffffffffffffffffffffffffffffff1690602001909291905050506105bc565b604051808215151515815260200191505060405180910390f35b3480156101a857600080fd5b506101b16106c1565b005b3480156101bf57600080fd5b50610202600480360360208110156101d657600080fd5b81019080803573ffffffffffffffffffffffffffffffffffffffff169060200190929190505050610770565b604051808215151515815260200191505060405180910390f35b34801561022857600080fd5b5061023161078d565b604051808273ffffffffffffffffffffffffffffffffffffffff1673ffffffffffffffffffffffffffffffffffffffff16815260200191505060405180910390f35b34801561027f57600080fd5b506102886107b2565b604051808215151515815260200191505060405180910390f35b3480156102ae57600080fd5b506102b76107c9565b604051808215151515815260200191505060405180910390f35b3480156102dd57600080fd5b506102e66107e0565b604051808215151515815260200191505060405180910390f35b34801561030c57600080fd5b50610315610834565b005b34801561032357600080fd5b506103506004803603602081101561033a57600080fd5b810190808035906020019092919050505061083f565b005b34801561035e57600080fd5b506103a16004803603602081101561037557600080fd5b81019080803573ffffffffffffffffffffffffffffffffffffffff169060200190929190505050610a6e565b005b3480156103af57600080fd5b506103b8610a8e565b005b3480156103c657600080fd5b506103cf610b3d565b604051808215151515815260200191505060405180910390f35b3480156103f557600080fd5b506103fe610b50565b604051808215151515815260200191505060405180910390f35b34801561042457600080fd5b5061042d610c1a565b6040518082815260200191505060405180910390f35b34801561044f57600080fd5b506104926004803603602081101561046657600080fd5b81019080803573ffffffffffffffffffffffffffffffffffffffff169060200190929190505050610dc3565b005b3480156104a057600080fd5b506104e3600480360360208110156104b757600080fd5b81019080803573ffffffffffffffffffffffffffffffffffffffff169060200190929190505050610e07565b604051808215151515815260200191505060405180910390f35b610505610b50565b151561059f576040517f08c379a000000000000000000000000000000000000000000000000000000000815260040180806020018281038252602f8152602001807f546869732066756e6374696f6e2063616e206f6e6c792062652065786563757481526020017f656420627920557067726164657273000000000000000000000000000000000081525060400191505060405180910390fd5b80600160156101000a81548160ff02191690831515021790555050565b60006105c6610b50565b1515610660576040517f08c379a000000000000000000000000000000000000000000000000000000000815260040180806020018281038252602f8152602001807f546869732066756e6374696f6e2063616e206f6e6c792062652065786563757481526020017f656420627920557067726164657273000000000000000000000000000000000081525060400191505060405180910390fd5b6000600260008473ffffffffffffffffffffffffffffffffffffffff1673ffffffffffffffffffffffffffffffffffffffff16815260200190815260200160002060006101000a81548160ff02191690831515021790555060019050919050565b6106ca33610770565b15156106d557600080fd5b600160009054906101000a900460ff1615156106f057600080fd5b6000600160006101000a81548160ff0219169083151502179055507f5db9ee0a495bf2e6ff9c91a7834c1ba4fdd244a5e8aa4e537bd38aeae4b073aa33604051808273ffffffffffffffffffffffffffffffffffffffff1673ffffffffffffffffffffffffffffffffffffffff16815260200191505060405180910390a1565b6000610786826000610f0c90919063ffffffff16565b9050919050565b6001809054906101000a900473ffffffffffffffffffffffffffffffffffffffff1681565b6000600160159054906101000a900460ff16905090565b6000600160009054906101000a900460ff16905090565b6000600260003373ffffffffffffffffffffffffffffffffffffffff1673ffffffffffffffffffffffffffffffffffffffff16815260200190815260200160002060009054906101000a900460ff16905090565b61083d33610fa0565b565b6108476107e0565b15156108e1576040517f08c379a000000000000000000000000000000000000000000000000000000000815260040180806020018281038252602c8152602001807f446f206e6f742068617665207468652068616e646c6572207065726d6973736981526020017f6f6e20746f20777269746521000000000000000000000000000000000000000081525060400191505060405180910390fd5b6000600460009054906101000a900473ffffffffffffffffffffffffffffffffffffffff1660405160200180807f4c6567616c456e74697479496e666f0000000000000000000000000000000000815250600f018273ffffffffffffffffffffffffffffffffffffffff1673ffffffffffffffffffffffffffffffffffffffff166c01000000000000000000000000028152601401807f636e706a00000000000000000000000000000000000000000000000000000000815250600401915050604051602081830303815290604052805190602001209050600360009054906101000a900473ffffffffffffffffffffffffffffffffffffffff1673ffffffffffffffffffffffffffffffffffffffff1663e2a4853a82846040518363ffffffff167c01000000000000000000000000000000000000000000000000000000000281526004018083815260200182815260200192505050600060405180830381600087803b158015610a5257600080fd5b505af1158015610a66573d6000803e3d6000fd5b505050505050565b610a7733610770565b1515610a8257600080fd5b610a8b81610ffa565b50565b610a9733610770565b1515610aa257600080fd5b600160009054906101000a900460ff16151515610abe57600080fd5b60018060006101000a81548160ff0219169083151502179055507f62e78cea01bee320cd4e420270b5ea74000d11b0c9f74754ebdbfc544b05a25833604051808273ffffffffffffffffffffffffffffffffffffffff1673ffffffffffffffffffffffffffffffffffffffff16815260200191505060405180910390a1565b600160159054906101000a900460ff1681565b6000806001809054906101000a900473ffffffffffffffffffffffffffffffffffffffff1690508073ffffffffffffffffffffffffffffffffffffffff166396a0604a6040518163ffffffff167c010000000000000000000000000000000000000000000000000000000002815260040160206040518083038186803b158015610bd957600080fd5b505afa158015610bed573d6000803e3d6000fd5b505050506040513d6020811015610c0357600080fd5b810190808051906020019092919050505091505090565b600080600460009054906101000a900473ffffffffffffffffffffffffffffffffffffffff1660405160200180807f4c6567616c456e74697479496e666f0000000000000000000000000000000000815250600f018273ffffffffffffffffffffffffffffffffffffffff1673ffffffffffffffffffffffffffffffffffffffff166c01000000000000000000000000028152601401807f636e706a00000000000000000000000000000000000000000000000000000000815250600401915050604051602081830303815290604052805190602001209050600360009054906101000a900473ffffffffffffffffffffffffffffffffffffffff1673ffffffffffffffffffffffffffffffffffffffff1663bd02d0f5826040518263ffffffff167c01000000000000000000000000000000000000000000000000000000000281526004018082815260200191505060206040518083038186803b158015610d8257600080fd5b505afa158015610d96573d6000803e3d6000fd5b505050506040513d6020811015610dac57600080fd5b810190808051906020019092919050505091505090565b80600460006101000a81548173ffffffffffffffffffffffffffffffffffffffff021916908373ffffffffffffffffffffffffffffffffffffffff16021790555050565b6000610e11610b50565b1515610eab576040517f08c379a000000000000000000000000000000000000000000000000000000000815260040180806020018281038252602f8152602001807f546869732066756e6374696f6e2063616e206f6e6c792062652065786563757481526020017f656420627920557067726164657273000000000000000000000000000000000081525060400191505060405180910390fd5b6001600260008473ffffffffffffffffffffffffffffffffffffffff1673ffffffffffffffffffffffffffffffffffffffff16815260200190815260200160002060006101000a81548160ff02191690831515021790555060019050919050565b60008073ffffffffffffffffffffffffffffffffffffffff168273ffffffffffffffffffffffffffffffffffffffff1614151515610f4957600080fd5b8260000160008373ffffffffffffffffffffffffffffffffffffffff1673ffffffffffffffffffffffffffffffffffffffff16815260200190815260200160002060009054906101000a900460ff16905092915050565b610fb481600061105490919063ffffffff16565b8073ffffffffffffffffffffffffffffffffffffffff167fcd265ebaf09df2871cc7bd4133404a235ba12eff2041bb89d9c714a2621c7c7e60405160405180910390a250565b61100e81600061110390919063ffffffff16565b8073ffffffffffffffffffffffffffffffffffffffff167f6719d08c1888103bea251a4ed56406bd0c3e69723c8a1686e017e7bbe159b6f860405160405180910390a250565b600073ffffffffffffffffffffffffffffffffffffffff168173ffffffffffffffffffffffffffffffffffffffff161415151561109057600080fd5b61109a8282610f0c565b15156110a557600080fd5b60008260000160008373ffffffffffffffffffffffffffffffffffffffff1673ffffffffffffffffffffffffffffffffffffffff16815260200190815260200160002060006101000a81548160ff0219169083151502179055505050565b600073ffffffffffffffffffffffffffffffffffffffff168173ffffffffffffffffffffffffffffffffffffffff161415151561113f57600080fd5b6111498282610f0c565b15151561115557600080fd5b60018260000160008373ffffffffffffffffffffffffffffffffffffffff1673ffffffffffffffffffffffffffffffffffffffff16815260200190815260200160002060006101000a81548160ff021916908315150217905550505056fea165627a7a723058207c150f506801331009c71f2d77eb898f2358c09f84772f4240e8ac952023e4c9002960806040523480156200001157600080fd5b50604051604080620012c6833981018060405260408110156200003357600080fd5b810190808051906020019092919080519060200190929190505050816200006933620001e7640100000000026401000000009004565b6000600160006101000a81548160ff021916908315150217905550806001806101000a81548173ffffffffffffffffffffffffffffffffffffffff021916908373ffffffffffffffffffffffffffffffffffffffff16021790555060018060156101000a81548160ff02191690831515021790555060008190506200019c8173ffffffffffffffffffffffffffffffffffffffff16636d645b446040518163ffffffff167c010000000000000000000000000000000000000000000000000000000002815260040160206040518083038186803b1580156200014a57600080fd5b505afa1580156200015f573d6000803e3d6000fd5b505050506040513d60208110156200017657600080fd5b810190808051906020019092919050505062000251640100000000026401000000009004565b505080600260006101000a81548173ffffffffffffffffffffffffffffffffffffffff021916908373ffffffffffffffffffffffffffffffffffffffff160217905550505062000419565b6200020b816000620002946401000000000262000dc1179091906401000000009004565b8073ffffffffffffffffffffffffffffffffffffffff167f6719d08c1888103bea251a4ed56406bd0c3e69723c8a1686e017e7bbe159b6f860405160405180910390a250565b6200026b3362000357640100000000026401000000009004565b15156200027757600080fd5b6200029181620001e7640100000000026401000000009004565b50565b600073ffffffffffffffffffffffffffffffffffffffff168173ffffffffffffffffffffffffffffffffffffffff1614151515620002d157600080fd5b620002ec828262000384640100000000026401000000009004565b151515620002f957600080fd5b60018260000160008373ffffffffffffffffffffffffffffffffffffffff1673ffffffffffffffffffffffffffffffffffffffff16815260200190815260200160002060006101000a81548160ff0219169083151502179055505050565b60006200037d826000620003846401000000000262000bca179091906401000000009004565b9050919050565b60008073ffffffffffffffffffffffffffffffffffffffff168273ffffffffffffffffffffffffffffffffffffffff1614151515620003c257600080fd5b8260000160008373ffffffffffffffffffffffffffffffffffffffff1673ffffffffffffffffffffffffffffffffffffffff16815260200190815260200160002060009054906101000a900460ff16905092915050565b610e9d80620004296000396000f3fe6080604052600436106100d0576000357c0100000000000000000000000000000000000000000000000000000000900463ffffffff16806309ea2709146100d557806322495780146101125780633f4ba83a1461015757806346fbf68e1461016e57806352bf2c3c146101d75780635389f8a61461022e5780635c975abb1461025d5780636ef8d66d1461028c57806379aa330c146102a357806382dc1ec4146102f45780638456cb5914610345578063901fe0471461035c57806396a0604a1461038b578063be49b78d146103ba575b600080fd5b3480156100e157600080fd5b50610110600480360360208110156100f857600080fd5b8101908080351515906020019092919050505061041f565b005b34801561011e57600080fd5b506101556004803603602081101561013557600080fd5b81019080803567ffffffffffffffff1690602001909291905050506104de565b005b34801561016357600080fd5b5061016c6105ef565b005b34801561017a57600080fd5b506101bd6004803603602081101561019157600080fd5b81019080803573ffffffffffffffffffffffffffffffffffffffff16906020019092919050505061069e565b604051808215151515815260200191505060405180910390f35b3480156101e357600080fd5b506101ec6106bb565b604051808273ffffffffffffffffffffffffffffffffffffffff1673ffffffffffffffffffffffffffffffffffffffff16815260200191505060405180910390f35b34801561023a57600080fd5b506102436106e0565b604051808215151515815260200191505060405180910390f35b34801561026957600080fd5b506102726106f7565b604051808215151515815260200191505060405180910390f35b34801561029857600080fd5b506102a161070e565b005b3480156102af57600080fd5b506102f2600480360360208110156102c657600080fd5b81019080803573ffffffffffffffffffffffffffffffffffffffff169060200190929190505050610719565b005b34801561030057600080fd5b506103436004803603602081101561031757600080fd5b81019080803573ffffffffffffffffffffffffffffffffffffffff1690602001909291905050506107ff565b005b34801561035157600080fd5b5061035a61081f565b005b34801561036857600080fd5b506103716108ce565b604051808215151515815260200191505060405180910390f35b34801561039757600080fd5b506103a06108e1565b604051808215151515815260200191505060405180910390f35b3480156103c657600080fd5b50610409600480360360208110156103dd57600080fd5b81019080803573ffffffffffffffffffffffffffffffffffffffff1690602001909291905050506109ab565b6040518082815260200191505060405180910390f35b6104276108e1565b15156104c1576040517f08c379a000000000000000000000000000000000000000000000000000000000815260040180806020018281038252602f8152602001807f546869732066756e6374696f6e2063616e206f6e6c792062652065786563757481526020017f656420627920557067726164657273000000000000000000000000000000000081525060400191505060405180910390fd5b80600160156101000a81548160ff02191690831515021790555050565b6104e733610ac9565b73ffffffffffffffffffffffffffffffffffffffff16637a0be7ba826040518263ffffffff167c0100000000000000000000000000000000000000000000000000000000028152600401808267ffffffffffffffff168152602001915050600060405180830381600087803b15801561055f57600080fd5b505af1158015610573573d6000803e3d6000fd5b505050507fa9f3119338764d1fee17848d0ed97f9be278c5dc4fa0639702efe88beebcffc13382604051808373ffffffffffffffffffffffffffffffffffffffff1673ffffffffffffffffffffffffffffffffffffffff1681526020018267ffffffffffffffff1681526020019250505060405180910390a150565b6105f83361069e565b151561060357600080fd5b600160009054906101000a900460ff16151561061e57600080fd5b6000600160006101000a81548160ff0219169083151502179055507f5db9ee0a495bf2e6ff9c91a7834c1ba4fdd244a5e8aa4e537bd38aeae4b073aa33604051808273ffffffffffffffffffffffffffffffffffffffff1673ffffffffffffffffffffffffffffffffffffffff16815260200191505060405180910390a1565b60006106b4826000610bca90919063ffffffff16565b9050919050565b6001809054906101000a900473ffffffffffffffffffffffffffffffffffffffff1681565b6000600160159054906101000a900460ff16905090565b6000600160009054906101000a900460ff16905090565b61071733610c5e565b565b6107216108e1565b15156107bb576040517f08c379a000000000000000000000000000000000000000000000000000000000815260040180806020018281038252602f8152602001807f546869732066756e6374696f6e2063616e206f6e6c792062652065786563757481526020017f656420627920557067726164657273000000000000000000000000000000000081525060400191505060405180910390fd5b80600260006101000a81548173ffffffffffffffffffffffffffffffffffffffff021916908373ffffffffffffffffffffffffffffffffffffffff16021790555050565b6108083361069e565b151561081357600080fd5b61081c81610cb8565b50565b6108283361069e565b151561083357600080fd5b600160009054906101000a900460ff1615151561084f57600080fd5b60018060006101000a81548160ff0219169083151502179055507f62e78cea01bee320cd4e420270b5ea74000d11b0c9f74754ebdbfc544b05a25833604051808273ffffffffffffffffffffffffffffffffffffffff1673ffffffffffffffffffffffffffffffffffffffff16815260200191505060405180910390a1565b600160159054906101000a900460ff1681565b6000806001809054906101000a900473ffffffffffffffffffffffffffffffffffffffff1690508073ffffffffffffffffffffffffffffffffffffffff166396a0604a6040518163ffffffff167c010000000000000000000000000000000000000000000000000000000002815260040160206040518083038186803b15801561096a57600080fd5b505afa15801561097e573d6000803e3d6000fd5b505050506040513d602081101561099457600080fd5b810190808051906020019092919050505091505090565b6000806109b783610ac9565b73ffffffffffffffffffffffffffffffffffffffff1663c802f1b46040518163ffffffff167c010000000000000000000000000000000000000000000000000000000002815260040160206040518083038186803b158015610a1857600080fd5b505afa158015610a2c573d6000803e3d6000fd5b505050506040513d6020811015610a4257600080fd5b810190808051906020019092919050505090507fa9f3119338764d1fee17848d0ed97f9be278c5dc4fa0639702efe88beebcffc18382604051808373ffffffffffffffffffffffffffffffffffffffff1673ffffffffffffffffffffffffffffffffffffffff1681526020018281526020019250505060405180910390a180915050919050565b6000600260009054906101000a900473ffffffffffffffffffffffffffffffffffffffff1673ffffffffffffffffffffffffffffffffffffffff1663f837b45c836040518263ffffffff167c0100000000000000000000000000000000000000000000000000000000028152600401808273ffffffffffffffffffffffffffffffffffffffff1673ffffffffffffffffffffffffffffffffffffffff168152602001915050600060405180830381600087803b158015610b8857600080fd5b505af1158015610b9c573d6000803e3d6000fd5b50505050600260009054906101000a900473ffffffffffffffffffffffffffffffffffffffff169050919050565b60008073ffffffffffffffffffffffffffffffffffffffff168273ffffffffffffffffffffffffffffffffffffffff1614151515610c0757600080fd5b8260000160008373ffffffffffffffffffffffffffffffffffffffff1673ffffffffffffffffffffffffffffffffffffffff16815260200190815260200160002060009054906101000a900460ff16905092915050565b610c72816000610d1290919063ffffffff16565b8073ffffffffffffffffffffffffffffffffffffffff167fcd265ebaf09df2871cc7bd4133404a235ba12eff2041bb89d9c714a2621c7c7e60405160405180910390a250565b610ccc816000610dc190919063ffffffff16565b8073ffffffffffffffffffffffffffffffffffffffff167f6719d08c1888103bea251a4ed56406bd0c3e69723c8a1686e017e7bbe159b6f860405160405180910390a250565b600073ffffffffffffffffffffffffffffffffffffffff168173ffffffffffffffffffffffffffffffffffffffff1614151515610d4e57600080fd5b610d588282610bca565b1515610d6357600080fd5b60008260000160008373ffffffffffffffffffffffffffffffffffffffff1673ffffffffffffffffffffffffffffffffffffffff16815260200190815260200160002060006101000a81548160ff0219169083151502179055505050565b600073ffffffffffffffffffffffffffffffffffffffff168173ffffffffffffffffffffffffffffffffffffffff1614151515610dfd57600080fd5b610e078282610bca565b151515610e1357600080fd5b60018260000160008373ffffffffffffffffffffffffffffffffffffffff1673ffffffffffffffffffffffffffffffffffffffff16815260200190815260200160002060006101000a81548160ff021916908315150217905550505056fea165627a7a723058203d7f1a4f6218f513dfce02b2ef555887498be93956ea3997cfa9f32da9c4f2ec0029a165627a7a7230582061f17a56614563d1afb8604161f05bb11fc58bd1ab9ff22c53f26f385f41d2640029",
  "source": "pragma solidity ^0.5.0;\r\n\r\nimport \"./Upgrader.sol\";\r\nimport \"./PreUpgrader.sol\";\r\nimport \"./LegalEntityMapping.sol\";\r\nimport \"./Storage.sol\";\r\nimport \"./BNDESRegistry.sol\";\r\nimport \"./Governance.sol\";\r\n\r\n\r\ncontract Upgrader1 is Upgrader {\r\n\r\n    PreUpgrader public preUpgrader;\r\n\r\n    Storage public storageContract;\r\n    LegalEntityMapping public legalEntityMapping;\r\n    BNDESRegistry public bndesRegistry;\r\n\r\n    constructor (address preUpgraderAddr) public {\r\n        preUpgrader = PreUpgrader(preUpgraderAddr);\r\n    }\r\n\r\n    modifier onlyGovernance() {\r\n        require(preUpgrader.getGovernanceAddr()==msg.sender, \"This function can only be executed by the Governance\");\r\n        _;\r\n    }\r\n\r\n    function upgrade () external onlyGovernance {\r\n\r\n        address governanceAddr = preUpgrader.getGovernanceAddr();\r\n        Governance governance = Governance (governanceAddr);\r\n        address upgraderInfoAddr = governance.getUpgraderInfoAddr();\r\n\r\n        storageContract = new Storage(upgraderInfoAddr);\r\n        legalEntityMapping = new LegalEntityMapping(upgraderInfoAddr, address(storageContract));\r\n        bndesRegistry = new BNDESRegistry(upgraderInfoAddr, address(legalEntityMapping));\r\n\r\n        storageContract.addHandler(address(legalEntityMapping));\r\n        legalEntityMapping.addHandler(address(bndesRegistry));\r\n\r\n        Resolver resolver = Resolver(preUpgrader.getResolverAddr());\r\n        resolver.changeContract(\"BNDESRegistry\", address(bndesRegistry));\r\n       \r\n        storageContract.renouncePauser();\r\n        legalEntityMapping.renouncePauser();\r\n        bndesRegistry.renouncePauser();\r\n\r\n    }\r\n\r\n\r\n\r\n    //TODO: gets\r\n}\r\n",
  "sourcePath": "D:/Workspace/bndestoken/Back-Blockchain-Upgrade/contracts/Upgrader1.sol",
  "compiler": {
    "name": "solc",
    "version": "0.5.0+commit.1d4f565a.Emscripten.clang"
  },
  "schemaVersion": "3.0.5",
  "updatedAt": "2019-09-16T21:42:25.661Z",
  "devdoc": {
    "methods": {}
  },
  "userdoc": {
    "methods": {}
  }
}