{
  "contractName": "Upgrader1",
  "abi": [
    {
      "inputs": [
        {
          "name": "preUpgraderAddr2",
          "type": "address"
        }
      ],
      "payable": false,
      "stateMutability": "nonpayable",
      "type": "constructor"
    },
    {
      "constant": false,
      "inputs": [],
      "name": "upgrade",
      "outputs": [],
      "payable": false,
      "stateMutability": "nonpayable",
      "type": "function"
    },
    {
      "constant": true,
      "inputs": [],
      "name": "governanceAddr",
      "outputs": [
        {
          "name": "",
          "type": "address"
        }
      ],
      "payable": false,
      "stateMutability": "view",
      "type": "function"
    },
    {
      "constant": true,
      "inputs": [],
      "name": "resolverAddr",
      "outputs": [
        {
          "name": "",
          "type": "address"
        }
      ],
      "payable": false,
      "stateMutability": "view",
      "type": "function"
    },
    {
      "constant": true,
      "inputs": [],
      "name": "storageContractAddr",
      "outputs": [
        {
          "name": "",
          "type": "address"
        }
      ],
      "payable": false,
      "stateMutability": "view",
      "type": "function"
    },
    {
      "constant": true,
      "inputs": [],
      "name": "legalEntityMappingAddr",
      "outputs": [
        {
          "name": "",
          "type": "address"
        }
      ],
      "payable": false,
      "stateMutability": "view",
      "type": "function"
    },
    {
      "constant": true,
      "inputs": [],
      "name": "bndesRegistryAddr",
      "outputs": [
        {
          "name": "",
          "type": "address"
        }
      ],
      "payable": false,
      "stateMutability": "view",
      "type": "function"
    }
  ],
  "bytecode": "0x608060405234801561001057600080fd5b5060405160208062006adf8339810180604052602081101561003157600080fd5b810190808051906020019092919050505060008190508073ffffffffffffffffffffffffffffffffffffffff1663133349bc6040518163ffffffff167c010000000000000000000000000000000000000000000000000000000002815260040160206040518083038186803b1580156100a957600080fd5b505afa1580156100bd573d6000803e3d6000fd5b505050506040513d60208110156100d357600080fd5b81019080805190602001909291905050506000806101000a81548173ffffffffffffffffffffffffffffffffffffffff021916908373ffffffffffffffffffffffffffffffffffffffff1602179055508073ffffffffffffffffffffffffffffffffffffffff166352daf7126040518163ffffffff167c010000000000000000000000000000000000000000000000000000000002815260040160206040518083038186803b15801561018557600080fd5b505afa158015610199573d6000803e3d6000fd5b505050506040513d60208110156101af57600080fd5b8101908080519060200190929190505050600160006101000a81548173ffffffffffffffffffffffffffffffffffffffff021916908373ffffffffffffffffffffffffffffffffffffffff16021790555050506168cd80620002126000396000f3fe6080604052600436106200007f576000357c0100000000000000000000000000000000000000000000000000000000900463ffffffff168063133349bc146200008457806316d0b57c14620000de57806352daf71214620001385780635f9a18201462000192578063a0d7c78514620001ec578063d55ec6971462000246575b600080fd5b3480156200009157600080fd5b506200009c62000260565b604051808273ffffffffffffffffffffffffffffffffffffffff1673ffffffffffffffffffffffffffffffffffffffff16815260200191505060405180910390f35b348015620000eb57600080fd5b50620000f662000289565b604051808273ffffffffffffffffffffffffffffffffffffffff1673ffffffffffffffffffffffffffffffffffffffff16815260200191505060405180910390f35b3480156200014557600080fd5b5062000150620002b3565b604051808273ffffffffffffffffffffffffffffffffffffffff1673ffffffffffffffffffffffffffffffffffffffff16815260200191505060405180910390f35b3480156200019f57600080fd5b50620001aa620002dd565b604051808273ffffffffffffffffffffffffffffffffffffffff1673ffffffffffffffffffffffffffffffffffffffff16815260200191505060405180910390f35b348015620001f957600080fd5b506200020462000307565b604051808273ffffffffffffffffffffffffffffffffffffffff1673ffffffffffffffffffffffffffffffffffffffff16815260200191505060405180910390f35b3480156200025357600080fd5b506200025e62000331565b005b60008060009054906101000a900473ffffffffffffffffffffffffffffffffffffffff16905090565b6000600460009054906101000a900473ffffffffffffffffffffffffffffffffffffffff16905090565b6000600160009054906101000a900473ffffffffffffffffffffffffffffffffffffffff16905090565b6000600360009054906101000a900473ffffffffffffffffffffffffffffffffffffffff16905090565b6000600260009054906101000a900473ffffffffffffffffffffffffffffffffffffffff16905090565b3373ffffffffffffffffffffffffffffffffffffffff166000809054906101000a900473ffffffffffffffffffffffffffffffffffffffff1673ffffffffffffffffffffffffffffffffffffffff161415156200041c576040517f08c379a00000000000000000000000000000000000000000000000000000000081526004018080602001828103825260348152602001807f546869732066756e6374696f6e2063616e206f6e6c792062652065786563757481526020017f65642062792074686520476f7665726e616e636500000000000000000000000081525060400191505060405180910390fd5b60008060009054906101000a900473ffffffffffffffffffffffffffffffffffffffff16905060008173ffffffffffffffffffffffffffffffffffffffff166352bf2c3c6040518163ffffffff167c010000000000000000000000000000000000000000000000000000000002815260040160206040518083038186803b158015620004a757600080fd5b505afa158015620004bc573d6000803e3d6000fd5b505050506040513d6020811015620004d357600080fd5b810190808051906020019092919050505090506000819050600082620004f862001a3d565b808273ffffffffffffffffffffffffffffffffffffffff1673ffffffffffffffffffffffffffffffffffffffff168152602001915050604051809103906000f0801580156200054b573d6000803e3d6000fd5b50905080600260006101000a81548173ffffffffffffffffffffffffffffffffffffffff021916908373ffffffffffffffffffffffffffffffffffffffff1602179055508073ffffffffffffffffffffffffffffffffffffffff166382dc1ec48573ffffffffffffffffffffffffffffffffffffffff16638da5cb5b6040518163ffffffff167c010000000000000000000000000000000000000000000000000000000002815260040160206040518083038186803b1580156200060e57600080fd5b505afa15801562000623573d6000803e3d6000fd5b505050506040513d60208110156200063a57600080fd5b81019080805190602001909291905050506040518263ffffffff167c0100000000000000000000000000000000000000000000000000000000028152600401808273ffffffffffffffffffffffffffffffffffffffff1673ffffffffffffffffffffffffffffffffffffffff168152602001915050600060405180830381600087803b158015620006ca57600080fd5b505af1158015620006df573d6000803e3d6000fd5b505050508173ffffffffffffffffffffffffffffffffffffffff1663818305936040518163ffffffff167c010000000000000000000000000000000000000000000000000000000002815260040160206040518083038186803b1580156200074657600080fd5b505afa1580156200075b573d6000803e3d6000fd5b505050506040513d60208110156200077257600080fd5b810190808051906020019092919050505073ffffffffffffffffffffffffffffffffffffffff168473ffffffffffffffffffffffffffffffffffffffff16638da5cb5b6040518163ffffffff167c010000000000000000000000000000000000000000000000000000000002815260040160206040518083038186803b158015620007fc57600080fd5b505afa15801562000811573d6000803e3d6000fd5b505050506040513d60208110156200082857600080fd5b810190808051906020019092919050505073ffffffffffffffffffffffffffffffffffffffff16141515620009ac578073ffffffffffffffffffffffffffffffffffffffff166382dc1ec48373ffffffffffffffffffffffffffffffffffffffff1663818305936040518163ffffffff167c010000000000000000000000000000000000000000000000000000000002815260040160206040518083038186803b158015620008d657600080fd5b505afa158015620008eb573d6000803e3d6000fd5b505050506040513d60208110156200090257600080fd5b81019080805190602001909291905050506040518263ffffffff167c0100000000000000000000000000000000000000000000000000000000028152600401808273ffffffffffffffffffffffffffffffffffffffff1673ffffffffffffffffffffffffffffffffffffffff168152602001915050600060405180830381600087803b1580156200099257600080fd5b505af1158015620009a7573d6000803e3d6000fd5b505050505b8073ffffffffffffffffffffffffffffffffffffffff16636ef8d66d6040518163ffffffff167c0100000000000000000000000000000000000000000000000000000000028152600401600060405180830381600087803b15801562000a1157600080fd5b505af115801562000a26573d6000803e3d6000fd5b50505050600083600260009054906101000a900473ffffffffffffffffffffffffffffffffffffffff1662000a5a62001a4e565b808373ffffffffffffffffffffffffffffffffffffffff1673ffffffffffffffffffffffffffffffffffffffff1681526020018273ffffffffffffffffffffffffffffffffffffffff1673ffffffffffffffffffffffffffffffffffffffff16815260200192505050604051809103906000f08015801562000ae0573d6000803e3d6000fd5b50905080600360006101000a81548173ffffffffffffffffffffffffffffffffffffffff021916908373ffffffffffffffffffffffffffffffffffffffff1602179055508073ffffffffffffffffffffffffffffffffffffffff166382dc1ec48673ffffffffffffffffffffffffffffffffffffffff16638da5cb5b6040518163ffffffff167c010000000000000000000000000000000000000000000000000000000002815260040160206040518083038186803b15801562000ba357600080fd5b505afa15801562000bb8573d6000803e3d6000fd5b505050506040513d602081101562000bcf57600080fd5b81019080805190602001909291905050506040518263ffffffff167c0100000000000000000000000000000000000000000000000000000000028152600401808273ffffffffffffffffffffffffffffffffffffffff1673ffffffffffffffffffffffffffffffffffffffff168152602001915050600060405180830381600087803b15801562000c5f57600080fd5b505af115801562000c74573d6000803e3d6000fd5b505050508273ffffffffffffffffffffffffffffffffffffffff1663818305936040518163ffffffff167c010000000000000000000000000000000000000000000000000000000002815260040160206040518083038186803b15801562000cdb57600080fd5b505afa15801562000cf0573d6000803e3d6000fd5b505050506040513d602081101562000d0757600080fd5b810190808051906020019092919050505073ffffffffffffffffffffffffffffffffffffffff168573ffffffffffffffffffffffffffffffffffffffff16638da5cb5b6040518163ffffffff167c010000000000000000000000000000000000000000000000000000000002815260040160206040518083038186803b15801562000d9157600080fd5b505afa15801562000da6573d6000803e3d6000fd5b505050506040513d602081101562000dbd57600080fd5b810190808051906020019092919050505073ffffffffffffffffffffffffffffffffffffffff1614151562000f41578073ffffffffffffffffffffffffffffffffffffffff166382dc1ec48473ffffffffffffffffffffffffffffffffffffffff1663818305936040518163ffffffff167c010000000000000000000000000000000000000000000000000000000002815260040160206040518083038186803b15801562000e6b57600080fd5b505afa15801562000e80573d6000803e3d6000fd5b505050506040513d602081101562000e9757600080fd5b81019080805190602001909291905050506040518263ffffffff167c0100000000000000000000000000000000000000000000000000000000028152600401808273ffffffffffffffffffffffffffffffffffffffff1673ffffffffffffffffffffffffffffffffffffffff168152602001915050600060405180830381600087803b15801562000f2757600080fd5b505af115801562000f3c573d6000803e3d6000fd5b505050505b8073ffffffffffffffffffffffffffffffffffffffff16636ef8d66d6040518163ffffffff167c0100000000000000000000000000000000000000000000000000000000028152600401600060405180830381600087803b15801562000fa657600080fd5b505af115801562000fbb573d6000803e3d6000fd5b50505050600084600360009054906101000a900473ffffffffffffffffffffffffffffffffffffffff1662000fef62001a5f565b808373ffffffffffffffffffffffffffffffffffffffff1673ffffffffffffffffffffffffffffffffffffffff1681526020018273ffffffffffffffffffffffffffffffffffffffff1673ffffffffffffffffffffffffffffffffffffffff16815260200192505050604051809103906000f08015801562001075573d6000803e3d6000fd5b50905080600460006101000a81548173ffffffffffffffffffffffffffffffffffffffff021916908373ffffffffffffffffffffffffffffffffffffffff1602179055508073ffffffffffffffffffffffffffffffffffffffff166382dc1ec4600160009054906101000a900473ffffffffffffffffffffffffffffffffffffffff166040518263ffffffff167c0100000000000000000000000000000000000000000000000000000000028152600401808273ffffffffffffffffffffffffffffffffffffffff1673ffffffffffffffffffffffffffffffffffffffff168152602001915050600060405180830381600087803b1580156200117757600080fd5b505af11580156200118c573d6000803e3d6000fd5b505050508073ffffffffffffffffffffffffffffffffffffffff166382dc1ec48773ffffffffffffffffffffffffffffffffffffffff16638da5cb5b6040518163ffffffff167c010000000000000000000000000000000000000000000000000000000002815260040160206040518083038186803b1580156200120f57600080fd5b505afa15801562001224573d6000803e3d6000fd5b505050506040513d60208110156200123b57600080fd5b81019080805190602001909291905050506040518263ffffffff167c0100000000000000000000000000000000000000000000000000000000028152600401808273ffffffffffffffffffffffffffffffffffffffff1673ffffffffffffffffffffffffffffffffffffffff168152602001915050600060405180830381600087803b158015620012cb57600080fd5b505af1158015620012e0573d6000803e3d6000fd5b505050508373ffffffffffffffffffffffffffffffffffffffff1663818305936040518163ffffffff167c010000000000000000000000000000000000000000000000000000000002815260040160206040518083038186803b1580156200134757600080fd5b505afa1580156200135c573d6000803e3d6000fd5b505050506040513d60208110156200137357600080fd5b810190808051906020019092919050505073ffffffffffffffffffffffffffffffffffffffff168673ffffffffffffffffffffffffffffffffffffffff16638da5cb5b6040518163ffffffff167c010000000000000000000000000000000000000000000000000000000002815260040160206040518083038186803b158015620013fd57600080fd5b505afa15801562001412573d6000803e3d6000fd5b505050506040513d60208110156200142957600080fd5b810190808051906020019092919050505073ffffffffffffffffffffffffffffffffffffffff16141515620015ad578073ffffffffffffffffffffffffffffffffffffffff166382dc1ec48573ffffffffffffffffffffffffffffffffffffffff1663818305936040518163ffffffff167c010000000000000000000000000000000000000000000000000000000002815260040160206040518083038186803b158015620014d757600080fd5b505afa158015620014ec573d6000803e3d6000fd5b505050506040513d60208110156200150357600080fd5b81019080805190602001909291905050506040518263ffffffff167c0100000000000000000000000000000000000000000000000000000000028152600401808273ffffffffffffffffffffffffffffffffffffffff1673ffffffffffffffffffffffffffffffffffffffff168152602001915050600060405180830381600087803b1580156200159357600080fd5b505af1158015620015a8573d6000803e3d6000fd5b505050505b8073ffffffffffffffffffffffffffffffffffffffff16636ef8d66d6040518163ffffffff167c0100000000000000000000000000000000000000000000000000000000028152600401600060405180830381600087803b1580156200161257600080fd5b505af115801562001627573d6000803e3d6000fd5b505050508573ffffffffffffffffffffffffffffffffffffffff1663b7087288826040518263ffffffff167c0100000000000000000000000000000000000000000000000000000000028152600401808273ffffffffffffffffffffffffffffffffffffffff1673ffffffffffffffffffffffffffffffffffffffff168152602001915050600060405180830381600087803b158015620016c757600080fd5b505af1158015620016dc573d6000803e3d6000fd5b505050508273ffffffffffffffffffffffffffffffffffffffff1663fb7d8a1e600360009054906101000a900473ffffffffffffffffffffffffffffffffffffffff166040518263ffffffff167c0100000000000000000000000000000000000000000000000000000000028152600401808273ffffffffffffffffffffffffffffffffffffffff1673ffffffffffffffffffffffffffffffffffffffff168152602001915050602060405180830381600087803b1580156200179e57600080fd5b505af1158015620017b3573d6000803e3d6000fd5b505050506040513d6020811015620017ca57600080fd5b8101908080519060200190929190505050508173ffffffffffffffffffffffffffffffffffffffff1663fb7d8a1e600460009054906101000a900473ffffffffffffffffffffffffffffffffffffffff166040518263ffffffff167c0100000000000000000000000000000000000000000000000000000000028152600401808273ffffffffffffffffffffffffffffffffffffffff1673ffffffffffffffffffffffffffffffffffffffff168152602001915050602060405180830381600087803b1580156200189a57600080fd5b505af1158015620018af573d6000803e3d6000fd5b505050506040513d6020811015620018c657600080fd5b8101908080519060200190929190505050506000600160009054906101000a900473ffffffffffffffffffffffffffffffffffffffff1690508073ffffffffffffffffffffffffffffffffffffffff1663cf1a652f600460009054906101000a900473ffffffffffffffffffffffffffffffffffffffff166040518263ffffffff167c010000000000000000000000000000000000000000000000000000000002815260040180806020018373ffffffffffffffffffffffffffffffffffffffff1673ffffffffffffffffffffffffffffffffffffffff1681526020018281038252600d8152602001807f424e44455352656769737472790000000000000000000000000000000000000081525060200192505050602060405180830381600087803b158015620019f657600080fd5b505af115801562001a0b573d6000803e3d6000fd5b505050506040513d602081101562001a2257600080fd5b81019080805190602001909291905050505050505050505050565b6040516121008062001a7183390190565b60405161178b8062003b7183390190565b6040516115a680620052fc8339019056fe60806040523480156200001157600080fd5b5060405160208062002100833981018060405260208110156200003357600080fd5b810190808051906020019092919050505080806200006033620000de640100000000026401000000009004565b6000600160006101000a81548160ff021916908315150217905550806001806101000a81548173ffffffffffffffffffffffffffffffffffffffff021916908373ffffffffffffffffffffffffffffffffffffffff16021790555060018060156101000a81548160ff021916908315150217905550505050620002a0565b62000102816000620001486401000000000262001c4f179091906401000000009004565b8073ffffffffffffffffffffffffffffffffffffffff167f6719d08c1888103bea251a4ed56406bd0c3e69723c8a1686e017e7bbe159b6f860405160405180910390a250565b600073ffffffffffffffffffffffffffffffffffffffff168173ffffffffffffffffffffffffffffffffffffffff16141515156200018557600080fd5b620001a082826200020b640100000000026401000000009004565b151515620001ad57600080fd5b60018260000160008373ffffffffffffffffffffffffffffffffffffffff1673ffffffffffffffffffffffffffffffffffffffff16815260200190815260200160002060006101000a81548160ff0219169083151502179055505050565b60008073ffffffffffffffffffffffffffffffffffffffff168273ffffffffffffffffffffffffffffffffffffffff16141515156200024957600080fd5b8260000160008373ffffffffffffffffffffffffffffffffffffffff1673ffffffffffffffffffffffffffffffffffffffff16815260200190815260200160002060009054906101000a900460ff16905092915050565b611e5080620002b06000396000f3fe608060405260043610610149576000357c0100000000000000000000000000000000000000000000000000000000900463ffffffff16806309ea27091461014e57806316d3ffc31461018b57806321f8a721146101f45780632e28d0841461026f5780633848207a146103415780633e49bed0146103945780633f4ba83a146103d957806346fbf68e146103f057806352bf2c3c146104595780635c975abb146104b05780635fa037ca146104df5780636e8995501461050e5780636ef8d66d146105e057806382dc1ec4146105f75780638456cb5914610648578063901fe0471461065f57806396a0604a1461068e578063986e791a146106bd578063bd02d0f514610771578063c031a180146107c0578063ca446dd914610874578063dc97d962146108cf578063e2a4853a1461091e578063f8715b3e14610963578063fb7d8a1e146109aa575b600080fd5b34801561015a57600080fd5b506101896004803603602081101561017157600080fd5b81019080803515159060200190929190505050610a13565b005b34801561019757600080fd5b506101da600480360360208110156101ae57600080fd5b81019080803573ffffffffffffffffffffffffffffffffffffffff169060200190929190505050610bbf565b604051808215151515815260200191505060405180910390f35b34801561020057600080fd5b5061022d6004803603602081101561021757600080fd5b8101908080359060200190929190505050610db1565b604051808273ffffffffffffffffffffffffffffffffffffffff1673ffffffffffffffffffffffffffffffffffffffff16815260200191505060405180910390f35b34801561027b57600080fd5b5061033f6004803603604081101561029257600080fd5b8101908080359060200190929190803590602001906401000000008111156102b957600080fd5b8201836020820111156102cb57600080fd5b803590602001918460018302840111640100000000831117156102ed57600080fd5b91908080601f016020809104026020016040519081016040528093929190818152602001838380828437600081840152601f19601f820116905080830192505050505050509192919290505050610df1565b005b34801561034d57600080fd5b5061037a6004803603602081101561036457600080fd5b8101908080359060200190929190505050610ed1565b604051808215151515815260200191505060405180910390f35b3480156103a057600080fd5b506103d7600480360360408110156103b757600080fd5b810190808035906020019092919080359060200190929190505050610efe565b005b3480156103e557600080fd5b506103ee610fce565b005b3480156103fc57600080fd5b5061043f6004803603602081101561041357600080fd5b81019080803573ffffffffffffffffffffffffffffffffffffffff16906020019092919050505061107d565b604051808215151515815260200191505060405180910390f35b34801561046557600080fd5b5061046e61109a565b604051808273ffffffffffffffffffffffffffffffffffffffff1673ffffffffffffffffffffffffffffffffffffffff16815260200191505060405180910390f35b3480156104bc57600080fd5b506104c56110c3565b604051808215151515815260200191505060405180910390f35b3480156104eb57600080fd5b506104f46110da565b604051808215151515815260200191505060405180910390f35b34801561051a57600080fd5b506105de6004803603604081101561053157600080fd5b81019080803590602001909291908035906020019064010000000081111561055857600080fd5b82018360208201111561056a57600080fd5b8035906020019184600183028401116401000000008311171561058c57600080fd5b91908080601f016020809104026020016040519081016040528093929190818152602001838380828437600081840152601f19601f82011690508083019250505050505050919291929050505061112e565b005b3480156105ec57600080fd5b506105f561120d565b005b34801561060357600080fd5b506106466004803603602081101561061a57600080fd5b81019080803573ffffffffffffffffffffffffffffffffffffffff169060200190929190505050611218565b005b34801561065457600080fd5b5061065d611238565b005b34801561066b57600080fd5b506106746112e7565b604051808215151515815260200191505060405180910390f35b34801561069a57600080fd5b506106a36112fe565b604051808215151515815260200191505060405180910390f35b3480156106c957600080fd5b506106f6600480360360208110156106e057600080fd5b81019080803590602001909291905050506113fa565b6040518080602001828103825283818151815260200191508051906020019080838360005b8381101561073657808201518184015260208101905061071b565b50505050905090810190601f1680156107635780820380516001836020036101000a031916815260200191505b509250505060405180910390f35b34801561077d57600080fd5b506107aa6004803603602081101561079457600080fd5b81019080803590602001909291905050506114b1565b6040518082815260200191505060405180910390f35b3480156107cc57600080fd5b506107f9600480360360208110156107e357600080fd5b81019080803590602001909291905050506114d1565b6040518080602001828103825283818151815260200191508051906020019080838360005b8381101561083957808201518184015260208101905061081e565b50505050905090810190601f1680156108665780820380516001836020036101000a031916815260200191505b509250505060405180910390f35b34801561088057600080fd5b506108cd6004803603604081101561089757600080fd5b8101908080359060200190929190803573ffffffffffffffffffffffffffffffffffffffff169060200190929190505050611589565b005b3480156108db57600080fd5b50610908600480360360208110156108f257600080fd5b8101908080359060200190929190505050611693565b6040518082815260200191505060405180910390f35b34801561092a57600080fd5b506109616004803603604081101561094157600080fd5b8101908080359060200190929190803590602001909291905050506116b3565b005b34801561096f57600080fd5b506109a86004803603604081101561098657600080fd5b8101908080359060200190929190803515159060200190929190505050611783565b005b3480156109b657600080fd5b506109f9600480360360208110156109cd57600080fd5b81019080803573ffffffffffffffffffffffffffffffffffffffff169060200190929190505050611866565b604051808215151515815260200191505060405180910390f35b6001809054906101000a900473ffffffffffffffffffffffffffffffffffffffff1673ffffffffffffffffffffffffffffffffffffffff16637e96549f336040518263ffffffff167c0100000000000000000000000000000000000000000000000000000000028152600401808273ffffffffffffffffffffffffffffffffffffffff1673ffffffffffffffffffffffffffffffffffffffff16815260200191505060206040518083038186803b158015610acd57600080fd5b505afa158015610ae1573d6000803e3d6000fd5b505050506040513d6020811015610af757600080fd5b81019080805190602001909291905050501515610ba2576040517f08c379a000000000000000000000000000000000000000000000000000000000815260040180806020018281038252602f8152602001807f546869732066756e6374696f6e2063616e206f6e6c792062652065786563757481526020017f656420627920557067726164657273000000000000000000000000000000000081525060400191505060405180910390fd5b80600160156101000a81548160ff02191690831515021790555050565b60006001809054906101000a900473ffffffffffffffffffffffffffffffffffffffff1673ffffffffffffffffffffffffffffffffffffffff16637e96549f336040518263ffffffff167c0100000000000000000000000000000000000000000000000000000000028152600401808273ffffffffffffffffffffffffffffffffffffffff1673ffffffffffffffffffffffffffffffffffffffff16815260200191505060206040518083038186803b158015610c7b57600080fd5b505afa158015610c8f573d6000803e3d6000fd5b505050506040513d6020811015610ca557600080fd5b81019080805190602001909291905050501515610d50576040517f08c379a000000000000000000000000000000000000000000000000000000000815260040180806020018281038252602f8152602001807f546869732066756e6374696f6e2063616e206f6e6c792062652065786563757481526020017f656420627920557067726164657273000000000000000000000000000000000081525060400191505060405180910390fd5b6000600260008473ffffffffffffffffffffffffffffffffffffffff1673ffffffffffffffffffffffffffffffffffffffff16815260200190815260200160002060006101000a81548160ff02191690831515021790555060019050919050565b60006003600401600083815260200190815260200160002060009054906101000a900473ffffffffffffffffffffffffffffffffffffffff169050919050565b610df96110da565b80610e085750610e076112fe565b5b1515610ea2576040517f08c379a000000000000000000000000000000000000000000000000000000000815260040180806020018281038252602c8152602001807f446f206e6f742068617665207468652068616e646c6572207065726d6973736981526020017f6f6e20746f20777269746521000000000000000000000000000000000000000081525060400191505060405180910390fd5b80600360050160008481526020019081526020016000209080519060200190610ecc929190611cff565b505050565b60006003600001600083815260200190815260200160002060009054906101000a900460ff169050919050565b610f066110da565b80610f155750610f146112fe565b5b1515610faf576040517f08c379a000000000000000000000000000000000000000000000000000000000815260040180806020018281038252602c8152602001807f446f206e6f742068617665207468652068616e646c6572207065726d6973736981526020017f6f6e20746f20777269746521000000000000000000000000000000000000000081525060400191505060405180910390fd5b8060036001016000848152602001908152602001600020819055505050565b610fd73361107d565b1515610fe257600080fd5b600160009054906101000a900460ff161515610ffd57600080fd5b6000600160006101000a81548160ff0219169083151502179055507f5db9ee0a495bf2e6ff9c91a7834c1ba4fdd244a5e8aa4e537bd38aeae4b073aa33604051808273ffffffffffffffffffffffffffffffffffffffff1673ffffffffffffffffffffffffffffffffffffffff16815260200191505060405180910390a1565b6000611093826000611a5890919063ffffffff16565b9050919050565b60006001809054906101000a900473ffffffffffffffffffffffffffffffffffffffff16905090565b6000600160009054906101000a900460ff16905090565b6000600260003373ffffffffffffffffffffffffffffffffffffffff1673ffffffffffffffffffffffffffffffffffffffff16815260200190815260200160002060009054906101000a900460ff16905090565b6111366110da565b8061114557506111446112fe565b5b15156111df576040517f08c379a000000000000000000000000000000000000000000000000000000000815260040180806020018281038252602c8152602001807f446f206e6f742068617665207468652068616e646c6572207065726d6973736981526020017f6f6e20746f20777269746521000000000000000000000000000000000000000081525060400191505060405180910390fd5b806003800160008481526020019081526020016000209080519060200190611208929190611d7f565b505050565b61121633611aec565b565b6112213361107d565b151561122c57600080fd5b61123581611b46565b50565b6112413361107d565b151561124c57600080fd5b600160009054906101000a900460ff1615151561126857600080fd5b60018060006101000a81548160ff0219169083151502179055507f62e78cea01bee320cd4e420270b5ea74000d11b0c9f74754ebdbfc544b05a25833604051808273ffffffffffffffffffffffffffffffffffffffff1673ffffffffffffffffffffffffffffffffffffffff16815260200191505060405180910390a1565b6000600160159054906101000a900460ff16905090565b60006001809054906101000a900473ffffffffffffffffffffffffffffffffffffffff1673ffffffffffffffffffffffffffffffffffffffff16637e96549f336040518263ffffffff167c0100000000000000000000000000000000000000000000000000000000028152600401808273ffffffffffffffffffffffffffffffffffffffff1673ffffffffffffffffffffffffffffffffffffffff16815260200191505060206040518083038186803b1580156113ba57600080fd5b505afa1580156113ce573d6000803e3d6000fd5b505050506040513d60208110156113e457600080fd5b8101908080519060200190929190505050905090565b60606003800160008381526020019081526020016000208054600181600116156101000203166002900480601f0160208091040260200160405190810160405280929190818152602001828054600181600116156101000203166002900480156114a55780601f1061147a576101008083540402835291602001916114a5565b820191906000526020600020905b81548152906001019060200180831161148857829003601f168201915b50505050509050919050565b600060036002016000838152602001908152602001600020549050919050565b6060600360050160008381526020019081526020016000208054600181600116156101000203166002900480601f01602080910402602001604051908101604052809291908181526020018280546001816001161561010002031660029004801561157d5780601f106115525761010080835404028352916020019161157d565b820191906000526020600020905b81548152906001019060200180831161156057829003601f168201915b50505050509050919050565b6115916110da565b806115a0575061159f6112fe565b5b151561163a576040517f08c379a000000000000000000000000000000000000000000000000000000000815260040180806020018281038252602c8152602001807f446f206e6f742068617665207468652068616e646c6572207065726d6973736981526020017f6f6e20746f20777269746521000000000000000000000000000000000000000081525060400191505060405180910390fd5b806003600401600084815260200190815260200160002060006101000a81548173ffffffffffffffffffffffffffffffffffffffff021916908373ffffffffffffffffffffffffffffffffffffffff1602179055505050565b600060036001016000838152602001908152602001600020549050919050565b6116bb6110da565b806116ca57506116c96112fe565b5b1515611764576040517f08c379a000000000000000000000000000000000000000000000000000000000815260040180806020018281038252602c8152602001807f446f206e6f742068617665207468652068616e646c6572207065726d6973736981526020017f6f6e20746f20777269746521000000000000000000000000000000000000000081525060400191505060405180910390fd5b8060036002016000848152602001908152602001600020819055505050565b61178b6110da565b8061179a57506117996112fe565b5b1515611834576040517f08c379a000000000000000000000000000000000000000000000000000000000815260040180806020018281038252602c8152602001807f446f206e6f742068617665207468652068616e646c6572207065726d6973736981526020017f6f6e20746f20777269746521000000000000000000000000000000000000000081525060400191505060405180910390fd5b806003600001600084815260200190815260200160002060006101000a81548160ff0219169083151502179055505050565b60006001809054906101000a900473ffffffffffffffffffffffffffffffffffffffff1673ffffffffffffffffffffffffffffffffffffffff16637e96549f336040518263ffffffff167c0100000000000000000000000000000000000000000000000000000000028152600401808273ffffffffffffffffffffffffffffffffffffffff1673ffffffffffffffffffffffffffffffffffffffff16815260200191505060206040518083038186803b15801561192257600080fd5b505afa158015611936573d6000803e3d6000fd5b505050506040513d602081101561194c57600080fd5b810190808051906020019092919050505015156119f7576040517f08c379a000000000000000000000000000000000000000000000000000000000815260040180806020018281038252602f8152602001807f546869732066756e6374696f6e2063616e206f6e6c792062652065786563757481526020017f656420627920557067726164657273000000000000000000000000000000000081525060400191505060405180910390fd5b6001600260008473ffffffffffffffffffffffffffffffffffffffff1673ffffffffffffffffffffffffffffffffffffffff16815260200190815260200160002060006101000a81548160ff02191690831515021790555060019050919050565b60008073ffffffffffffffffffffffffffffffffffffffff168273ffffffffffffffffffffffffffffffffffffffff1614151515611a9557600080fd5b8260000160008373ffffffffffffffffffffffffffffffffffffffff1673ffffffffffffffffffffffffffffffffffffffff16815260200190815260200160002060009054906101000a900460ff16905092915050565b611b00816000611ba090919063ffffffff16565b8073ffffffffffffffffffffffffffffffffffffffff167fcd265ebaf09df2871cc7bd4133404a235ba12eff2041bb89d9c714a2621c7c7e60405160405180910390a250565b611b5a816000611c4f90919063ffffffff16565b8073ffffffffffffffffffffffffffffffffffffffff167f6719d08c1888103bea251a4ed56406bd0c3e69723c8a1686e017e7bbe159b6f860405160405180910390a250565b600073ffffffffffffffffffffffffffffffffffffffff168173ffffffffffffffffffffffffffffffffffffffff1614151515611bdc57600080fd5b611be68282611a58565b1515611bf157600080fd5b60008260000160008373ffffffffffffffffffffffffffffffffffffffff1673ffffffffffffffffffffffffffffffffffffffff16815260200190815260200160002060006101000a81548160ff0219169083151502179055505050565b600073ffffffffffffffffffffffffffffffffffffffff168173ffffffffffffffffffffffffffffffffffffffff1614151515611c8b57600080fd5b611c958282611a58565b151515611ca157600080fd5b60018260000160008373ffffffffffffffffffffffffffffffffffffffff1673ffffffffffffffffffffffffffffffffffffffff16815260200190815260200160002060006101000a81548160ff0219169083151502179055505050565b828054600181600116156101000203166002900490600052602060002090601f016020900481019282601f10611d4057805160ff1916838001178555611d6e565b82800160010185558215611d6e579182015b82811115611d6d578251825591602001919060010190611d52565b5b509050611d7b9190611dff565b5090565b828054600181600116156101000203166002900490600052602060002090601f016020900481019282601f10611dc057805160ff1916838001178555611dee565b82800160010185558215611dee579182015b82811115611ded578251825591602001919060010190611dd2565b5b509050611dfb9190611dff565b5090565b611e2191905b80821115611e1d576000816000905550600101611e05565b5090565b9056fea165627a7a7230582073c8cbe04e10f532bcbffbf8a12c65532d41929fa23bb65e761796a8db49251f002960806040523480156200001157600080fd5b506040516040806200178b833981018060405260408110156200003357600080fd5b81019080805190602001909291908051906020019092919050505081806200006a336200012a640100000000026401000000009004565b6000600160006101000a81548160ff021916908315150217905550806001806101000a81548173ffffffffffffffffffffffffffffffffffffffff021916908373ffffffffffffffffffffffffffffffffffffffff16021790555060018060156101000a81548160ff021916908315150217905550505080600360006101000a81548173ffffffffffffffffffffffffffffffffffffffff021916908373ffffffffffffffffffffffffffffffffffffffff1602179055505050620002ec565b6200014e8160006200019464010000000002620013b3179091906401000000009004565b8073ffffffffffffffffffffffffffffffffffffffff167f6719d08c1888103bea251a4ed56406bd0c3e69723c8a1686e017e7bbe159b6f860405160405180910390a250565b600073ffffffffffffffffffffffffffffffffffffffff168173ffffffffffffffffffffffffffffffffffffffff1614151515620001d157600080fd5b620001ec828262000257640100000000026401000000009004565b151515620001f957600080fd5b60018260000160008373ffffffffffffffffffffffffffffffffffffffff1673ffffffffffffffffffffffffffffffffffffffff16815260200190815260200160002060006101000a81548160ff0219169083151502179055505050565b60008073ffffffffffffffffffffffffffffffffffffffff168273ffffffffffffffffffffffffffffffffffffffff16141515156200029557600080fd5b8260000160008373ffffffffffffffffffffffffffffffffffffffff1673ffffffffffffffffffffffffffffffffffffffff16815260200190815260200160002060009054906101000a900460ff16905092915050565b61148f80620002fc6000396000f3fe6080604052600436106100e6576000357c0100000000000000000000000000000000000000000000000000000000900463ffffffff16806309ea2709146100eb57806316d3ffc3146101285780633f4ba83a1461019157806346fbf68e146101a857806352bf2c3c146102115780635c975abb146102685780635fa037ca146102975780636ef8d66d146102c65780637a0be7ba146102dd57806382dc1ec4146103185780638456cb5914610369578063901fe0471461038057806396a0604a146103af578063c802f1b4146103de578063f837b45c14610409578063fb7d8a1e1461045a575b600080fd5b3480156100f757600080fd5b506101266004803603602081101561010e57600080fd5b810190808035151590602001909291905050506104c3565b005b34801561013457600080fd5b506101776004803603602081101561014b57600080fd5b81019080803573ffffffffffffffffffffffffffffffffffffffff16906020019092919050505061066f565b604051808215151515815260200191505060405180910390f35b34801561019d57600080fd5b506101a6610861565b005b3480156101b457600080fd5b506101f7600480360360208110156101cb57600080fd5b81019080803573ffffffffffffffffffffffffffffffffffffffff169060200190929190505050610910565b604051808215151515815260200191505060405180910390f35b34801561021d57600080fd5b5061022661092d565b604051808273ffffffffffffffffffffffffffffffffffffffff1673ffffffffffffffffffffffffffffffffffffffff16815260200191505060405180910390f35b34801561027457600080fd5b5061027d610956565b604051808215151515815260200191505060405180910390f35b3480156102a357600080fd5b506102ac61096d565b604051808215151515815260200191505060405180910390f35b3480156102d257600080fd5b506102db6109c1565b005b3480156102e957600080fd5b506103166004803603602081101561030057600080fd5b81019080803590602001909291905050506109cc565b005b34801561032457600080fd5b506103676004803603602081101561033b57600080fd5b81019080803573ffffffffffffffffffffffffffffffffffffffff169060200190929190505050610bfb565b005b34801561037557600080fd5b5061037e610c1b565b005b34801561038c57600080fd5b50610395610cca565b604051808215151515815260200191505060405180910390f35b3480156103bb57600080fd5b506103c4610ce1565b604051808215151515815260200191505060405180910390f35b3480156103ea57600080fd5b506103f3610ddd565b6040518082815260200191505060405180910390f35b34801561041557600080fd5b506104586004803603602081101561042c57600080fd5b81019080803573ffffffffffffffffffffffffffffffffffffffff169060200190929190505050610f86565b005b34801561046657600080fd5b506104a96004803603602081101561047d57600080fd5b81019080803573ffffffffffffffffffffffffffffffffffffffff169060200190929190505050610fca565b604051808215151515815260200191505060405180910390f35b6001809054906101000a900473ffffffffffffffffffffffffffffffffffffffff1673ffffffffffffffffffffffffffffffffffffffff16637e96549f336040518263ffffffff167c0100000000000000000000000000000000000000000000000000000000028152600401808273ffffffffffffffffffffffffffffffffffffffff1673ffffffffffffffffffffffffffffffffffffffff16815260200191505060206040518083038186803b15801561057d57600080fd5b505afa158015610591573d6000803e3d6000fd5b505050506040513d60208110156105a757600080fd5b81019080805190602001909291905050501515610652576040517f08c379a000000000000000000000000000000000000000000000000000000000815260040180806020018281038252602f8152602001807f546869732066756e6374696f6e2063616e206f6e6c792062652065786563757481526020017f656420627920557067726164657273000000000000000000000000000000000081525060400191505060405180910390fd5b80600160156101000a81548160ff02191690831515021790555050565b60006001809054906101000a900473ffffffffffffffffffffffffffffffffffffffff1673ffffffffffffffffffffffffffffffffffffffff16637e96549f336040518263ffffffff167c0100000000000000000000000000000000000000000000000000000000028152600401808273ffffffffffffffffffffffffffffffffffffffff1673ffffffffffffffffffffffffffffffffffffffff16815260200191505060206040518083038186803b15801561072b57600080fd5b505afa15801561073f573d6000803e3d6000fd5b505050506040513d602081101561075557600080fd5b81019080805190602001909291905050501515610800576040517f08c379a000000000000000000000000000000000000000000000000000000000815260040180806020018281038252602f8152602001807f546869732066756e6374696f6e2063616e206f6e6c792062652065786563757481526020017f656420627920557067726164657273000000000000000000000000000000000081525060400191505060405180910390fd5b6000600260008473ffffffffffffffffffffffffffffffffffffffff1673ffffffffffffffffffffffffffffffffffffffff16815260200190815260200160002060006101000a81548160ff02191690831515021790555060019050919050565b61086a33610910565b151561087557600080fd5b600160009054906101000a900460ff16151561089057600080fd5b6000600160006101000a81548160ff0219169083151502179055507f5db9ee0a495bf2e6ff9c91a7834c1ba4fdd244a5e8aa4e537bd38aeae4b073aa33604051808273ffffffffffffffffffffffffffffffffffffffff1673ffffffffffffffffffffffffffffffffffffffff16815260200191505060405180910390a1565b60006109268260006111bc90919063ffffffff16565b9050919050565b60006001809054906101000a900473ffffffffffffffffffffffffffffffffffffffff16905090565b6000600160009054906101000a900460ff16905090565b6000600260003373ffffffffffffffffffffffffffffffffffffffff1673ffffffffffffffffffffffffffffffffffffffff16815260200190815260200160002060009054906101000a900460ff16905090565b6109ca33611250565b565b6109d461096d565b1515610a6e576040517f08c379a000000000000000000000000000000000000000000000000000000000815260040180806020018281038252602c8152602001807f446f206e6f742068617665207468652068616e646c6572207065726d6973736981526020017f6f6e20746f20777269746521000000000000000000000000000000000000000081525060400191505060405180910390fd5b6000600460009054906101000a900473ffffffffffffffffffffffffffffffffffffffff1660405160200180807f4c6567616c456e74697479496e666f0000000000000000000000000000000000815250600f018273ffffffffffffffffffffffffffffffffffffffff1673ffffffffffffffffffffffffffffffffffffffff166c01000000000000000000000000028152601401807f636e706a00000000000000000000000000000000000000000000000000000000815250600401915050604051602081830303815290604052805190602001209050600360009054906101000a900473ffffffffffffffffffffffffffffffffffffffff1673ffffffffffffffffffffffffffffffffffffffff1663e2a4853a82846040518363ffffffff167c01000000000000000000000000000000000000000000000000000000000281526004018083815260200182815260200192505050600060405180830381600087803b158015610bdf57600080fd5b505af1158015610bf3573d6000803e3d6000fd5b505050505050565b610c0433610910565b1515610c0f57600080fd5b610c18816112aa565b50565b610c2433610910565b1515610c2f57600080fd5b600160009054906101000a900460ff16151515610c4b57600080fd5b60018060006101000a81548160ff0219169083151502179055507f62e78cea01bee320cd4e420270b5ea74000d11b0c9f74754ebdbfc544b05a25833604051808273ffffffffffffffffffffffffffffffffffffffff1673ffffffffffffffffffffffffffffffffffffffff16815260200191505060405180910390a1565b6000600160159054906101000a900460ff16905090565b60006001809054906101000a900473ffffffffffffffffffffffffffffffffffffffff1673ffffffffffffffffffffffffffffffffffffffff16637e96549f336040518263ffffffff167c0100000000000000000000000000000000000000000000000000000000028152600401808273ffffffffffffffffffffffffffffffffffffffff1673ffffffffffffffffffffffffffffffffffffffff16815260200191505060206040518083038186803b158015610d9d57600080fd5b505afa158015610db1573d6000803e3d6000fd5b505050506040513d6020811015610dc757600080fd5b8101908080519060200190929190505050905090565b600080600460009054906101000a900473ffffffffffffffffffffffffffffffffffffffff1660405160200180807f4c6567616c456e74697479496e666f0000000000000000000000000000000000815250600f018273ffffffffffffffffffffffffffffffffffffffff1673ffffffffffffffffffffffffffffffffffffffff166c01000000000000000000000000028152601401807f636e706a00000000000000000000000000000000000000000000000000000000815250600401915050604051602081830303815290604052805190602001209050600360009054906101000a900473ffffffffffffffffffffffffffffffffffffffff1673ffffffffffffffffffffffffffffffffffffffff1663bd02d0f5826040518263ffffffff167c01000000000000000000000000000000000000000000000000000000000281526004018082815260200191505060206040518083038186803b158015610f4557600080fd5b505afa158015610f59573d6000803e3d6000fd5b505050506040513d6020811015610f6f57600080fd5b810190808051906020019092919050505091505090565b80600460006101000a81548173ffffffffffffffffffffffffffffffffffffffff021916908373ffffffffffffffffffffffffffffffffffffffff16021790555050565b60006001809054906101000a900473ffffffffffffffffffffffffffffffffffffffff1673ffffffffffffffffffffffffffffffffffffffff16637e96549f336040518263ffffffff167c0100000000000000000000000000000000000000000000000000000000028152600401808273ffffffffffffffffffffffffffffffffffffffff1673ffffffffffffffffffffffffffffffffffffffff16815260200191505060206040518083038186803b15801561108657600080fd5b505afa15801561109a573d6000803e3d6000fd5b505050506040513d60208110156110b057600080fd5b8101908080519060200190929190505050151561115b576040517f08c379a000000000000000000000000000000000000000000000000000000000815260040180806020018281038252602f8152602001807f546869732066756e6374696f6e2063616e206f6e6c792062652065786563757481526020017f656420627920557067726164657273000000000000000000000000000000000081525060400191505060405180910390fd5b6001600260008473ffffffffffffffffffffffffffffffffffffffff1673ffffffffffffffffffffffffffffffffffffffff16815260200190815260200160002060006101000a81548160ff02191690831515021790555060019050919050565b60008073ffffffffffffffffffffffffffffffffffffffff168273ffffffffffffffffffffffffffffffffffffffff16141515156111f957600080fd5b8260000160008373ffffffffffffffffffffffffffffffffffffffff1673ffffffffffffffffffffffffffffffffffffffff16815260200190815260200160002060009054906101000a900460ff16905092915050565b61126481600061130490919063ffffffff16565b8073ffffffffffffffffffffffffffffffffffffffff167fcd265ebaf09df2871cc7bd4133404a235ba12eff2041bb89d9c714a2621c7c7e60405160405180910390a250565b6112be8160006113b390919063ffffffff16565b8073ffffffffffffffffffffffffffffffffffffffff167f6719d08c1888103bea251a4ed56406bd0c3e69723c8a1686e017e7bbe159b6f860405160405180910390a250565b600073ffffffffffffffffffffffffffffffffffffffff168173ffffffffffffffffffffffffffffffffffffffff161415151561134057600080fd5b61134a82826111bc565b151561135557600080fd5b60008260000160008373ffffffffffffffffffffffffffffffffffffffff1673ffffffffffffffffffffffffffffffffffffffff16815260200190815260200160002060006101000a81548160ff0219169083151502179055505050565b600073ffffffffffffffffffffffffffffffffffffffff168173ffffffffffffffffffffffffffffffffffffffff16141515156113ef57600080fd5b6113f982826111bc565b15151561140557600080fd5b60018260000160008373ffffffffffffffffffffffffffffffffffffffff1673ffffffffffffffffffffffffffffffffffffffff16815260200190815260200160002060006101000a81548160ff021916908315150217905550505056fea165627a7a72305820e242cbf3637514ecc1531da646f21bb2c04eeaa7ad931cf100def4b08cbba417002960806040523480156200001157600080fd5b50604051604080620015a6833981018060405260408110156200003357600080fd5b81019080805190602001909291908051906020019092919050505081620000693362000128640100000000026401000000009004565b6000600160006101000a81548160ff021916908315150217905550806001806101000a81548173ffffffffffffffffffffffffffffffffffffffff021916908373ffffffffffffffffffffffffffffffffffffffff16021790555060018060156101000a81548160ff0219169083151502179055505080600260006101000a81548173ffffffffffffffffffffffffffffffffffffffff021916908373ffffffffffffffffffffffffffffffffffffffff1602179055505050620002ea565b6200014c8160006200019264010000000002620011d0179091906401000000009004565b8073ffffffffffffffffffffffffffffffffffffffff167f6719d08c1888103bea251a4ed56406bd0c3e69723c8a1686e017e7bbe159b6f860405160405180910390a250565b600073ffffffffffffffffffffffffffffffffffffffff168173ffffffffffffffffffffffffffffffffffffffff1614151515620001cf57600080fd5b620001ea828262000255640100000000026401000000009004565b151515620001f757600080fd5b60018260000160008373ffffffffffffffffffffffffffffffffffffffff1673ffffffffffffffffffffffffffffffffffffffff16815260200190815260200160002060006101000a81548160ff0219169083151502179055505050565b60008073ffffffffffffffffffffffffffffffffffffffff168273ffffffffffffffffffffffffffffffffffffffff16141515156200029357600080fd5b8260000160008373ffffffffffffffffffffffffffffffffffffffff1673ffffffffffffffffffffffffffffffffffffffff16815260200190815260200160002060009054906101000a900460ff16905092915050565b6112ac80620002fa6000396000f3fe6080604052600436106100db576000357c0100000000000000000000000000000000000000000000000000000000900463ffffffff16806309ea2709146100e0578063224957801461011d5780633f4ba83a1461016257806341c0e1b51461017957806346fbf68e1461019057806352bf2c3c146101f95780635c975abb1461025057806365f68c891461027f5780636ef8d66d146102e457806379aa330c146102fb57806382dc1ec41461034c5780638456cb591461039d578063901fe047146103b457806396a0604a146103e3578063be49b78d14610412575b600080fd5b3480156100ec57600080fd5b5061011b6004803603602081101561010357600080fd5b81019080803515159060200190929190505050610477565b005b34801561012957600080fd5b506101606004803603602081101561014057600080fd5b81019080803567ffffffffffffffff169060200190929190505050610623565b005b34801561016e57600080fd5b50610177610734565b005b34801561018557600080fd5b5061018e6107e3565b005b34801561019c57600080fd5b506101df600480360360208110156101b357600080fd5b81019080803573ffffffffffffffffffffffffffffffffffffffff16906020019092919050505061098c565b604051808215151515815260200191505060405180910390f35b34801561020557600080fd5b5061020e6109a9565b604051808273ffffffffffffffffffffffffffffffffffffffff1673ffffffffffffffffffffffffffffffffffffffff16815260200191505060405180910390f35b34801561025c57600080fd5b506102656109d2565b604051808215151515815260200191505060405180910390f35b34801561028b57600080fd5b506102ce600480360360208110156102a257600080fd5b81019080803573ffffffffffffffffffffffffffffffffffffffff1690602001909291905050506109e9565b6040518082815260200191505060405180910390f35b3480156102f057600080fd5b506102f96109fa565b005b34801561030757600080fd5b5061034a6004803603602081101561031e57600080fd5b81019080803573ffffffffffffffffffffffffffffffffffffffff169060200190929190505050610a05565b005b34801561035857600080fd5b5061039b6004803603602081101561036f57600080fd5b81019080803573ffffffffffffffffffffffffffffffffffffffff169060200190929190505050610bd8565b005b3480156103a957600080fd5b506103b2610bf8565b005b3480156103c057600080fd5b506103c9610ca7565b604051808215151515815260200191505060405180910390f35b3480156103ef57600080fd5b506103f8610cbe565b604051808215151515815260200191505060405180910390f35b34801561041e57600080fd5b506104616004803603602081101561043557600080fd5b81019080803573ffffffffffffffffffffffffffffffffffffffff169060200190929190505050610dba565b6040518082815260200191505060405180910390f35b6001809054906101000a900473ffffffffffffffffffffffffffffffffffffffff1673ffffffffffffffffffffffffffffffffffffffff16637e96549f336040518263ffffffff167c0100000000000000000000000000000000000000000000000000000000028152600401808273ffffffffffffffffffffffffffffffffffffffff1673ffffffffffffffffffffffffffffffffffffffff16815260200191505060206040518083038186803b15801561053157600080fd5b505afa158015610545573d6000803e3d6000fd5b505050506040513d602081101561055b57600080fd5b81019080805190602001909291905050501515610606576040517f08c379a000000000000000000000000000000000000000000000000000000000815260040180806020018281038252602f8152602001807f546869732066756e6374696f6e2063616e206f6e6c792062652065786563757481526020017f656420627920557067726164657273000000000000000000000000000000000081525060400191505060405180910390fd5b80600160156101000a81548160ff02191690831515021790555050565b61062c33610ed8565b73ffffffffffffffffffffffffffffffffffffffff16637a0be7ba826040518263ffffffff167c0100000000000000000000000000000000000000000000000000000000028152600401808267ffffffffffffffff168152602001915050600060405180830381600087803b1580156106a457600080fd5b505af11580156106b8573d6000803e3d6000fd5b505050507fa9f3119338764d1fee17848d0ed97f9be278c5dc4fa0639702efe88beebcffc13382604051808373ffffffffffffffffffffffffffffffffffffffff1673ffffffffffffffffffffffffffffffffffffffff1681526020018267ffffffffffffffff1681526020019250505060405180910390a150565b61073d3361098c565b151561074857600080fd5b600160009054906101000a900460ff16151561076357600080fd5b6000600160006101000a81548160ff0219169083151502179055507f5db9ee0a495bf2e6ff9c91a7834c1ba4fdd244a5e8aa4e537bd38aeae4b073aa33604051808273ffffffffffffffffffffffffffffffffffffffff1673ffffffffffffffffffffffffffffffffffffffff16815260200191505060405180910390a1565b6001809054906101000a900473ffffffffffffffffffffffffffffffffffffffff1673ffffffffffffffffffffffffffffffffffffffff16637e96549f336040518263ffffffff167c0100000000000000000000000000000000000000000000000000000000028152600401808273ffffffffffffffffffffffffffffffffffffffff1673ffffffffffffffffffffffffffffffffffffffff16815260200191505060206040518083038186803b15801561089d57600080fd5b505afa1580156108b1573d6000803e3d6000fd5b505050506040513d60208110156108c757600080fd5b81019080805190602001909291905050501515610972576040517f08c379a000000000000000000000000000000000000000000000000000000000815260040180806020018281038252602f8152602001807f546869732066756e6374696f6e2063616e206f6e6c792062652065786563757481526020017f656420627920557067726164657273000000000000000000000000000000000081525060400191505060405180910390fd5b600073ffffffffffffffffffffffffffffffffffffffff16ff5b60006109a2826000610fd990919063ffffffff16565b9050919050565b60006001809054906101000a900473ffffffffffffffffffffffffffffffffffffffff16905090565b6000600160009054906101000a900460ff16905090565b60006109f482610dba565b50919050565b610a033361106d565b565b6001809054906101000a900473ffffffffffffffffffffffffffffffffffffffff1673ffffffffffffffffffffffffffffffffffffffff16637e96549f336040518263ffffffff167c0100000000000000000000000000000000000000000000000000000000028152600401808273ffffffffffffffffffffffffffffffffffffffff1673ffffffffffffffffffffffffffffffffffffffff16815260200191505060206040518083038186803b158015610abf57600080fd5b505afa158015610ad3573d6000803e3d6000fd5b505050506040513d6020811015610ae957600080fd5b81019080805190602001909291905050501515610b94576040517f08c379a000000000000000000000000000000000000000000000000000000000815260040180806020018281038252602f8152602001807f546869732066756e6374696f6e2063616e206f6e6c792062652065786563757481526020017f656420627920557067726164657273000000000000000000000000000000000081525060400191505060405180910390fd5b80600260006101000a81548173ffffffffffffffffffffffffffffffffffffffff021916908373ffffffffffffffffffffffffffffffffffffffff16021790555050565b610be13361098c565b1515610bec57600080fd5b610bf5816110c7565b50565b610c013361098c565b1515610c0c57600080fd5b600160009054906101000a900460ff16151515610c2857600080fd5b60018060006101000a81548160ff0219169083151502179055507f62e78cea01bee320cd4e420270b5ea74000d11b0c9f74754ebdbfc544b05a25833604051808273ffffffffffffffffffffffffffffffffffffffff1673ffffffffffffffffffffffffffffffffffffffff16815260200191505060405180910390a1565b6000600160159054906101000a900460ff16905090565b60006001809054906101000a900473ffffffffffffffffffffffffffffffffffffffff1673ffffffffffffffffffffffffffffffffffffffff16637e96549f336040518263ffffffff167c0100000000000000000000000000000000000000000000000000000000028152600401808273ffffffffffffffffffffffffffffffffffffffff1673ffffffffffffffffffffffffffffffffffffffff16815260200191505060206040518083038186803b158015610d7a57600080fd5b505afa158015610d8e573d6000803e3d6000fd5b505050506040513d6020811015610da457600080fd5b8101908080519060200190929190505050905090565b600080610dc683610ed8565b73ffffffffffffffffffffffffffffffffffffffff1663c802f1b46040518163ffffffff167c010000000000000000000000000000000000000000000000000000000002815260040160206040518083038186803b158015610e2757600080fd5b505afa158015610e3b573d6000803e3d6000fd5b505050506040513d6020811015610e5157600080fd5b810190808051906020019092919050505090507fa9f3119338764d1fee17848d0ed97f9be278c5dc4fa0639702efe88beebcffc18382604051808373ffffffffffffffffffffffffffffffffffffffff1673ffffffffffffffffffffffffffffffffffffffff1681526020018281526020019250505060405180910390a180915050919050565b6000600260009054906101000a900473ffffffffffffffffffffffffffffffffffffffff1673ffffffffffffffffffffffffffffffffffffffff1663f837b45c836040518263ffffffff167c0100000000000000000000000000000000000000000000000000000000028152600401808273ffffffffffffffffffffffffffffffffffffffff1673ffffffffffffffffffffffffffffffffffffffff168152602001915050600060405180830381600087803b158015610f9757600080fd5b505af1158015610fab573d6000803e3d6000fd5b50505050600260009054906101000a900473ffffffffffffffffffffffffffffffffffffffff169050919050565b60008073ffffffffffffffffffffffffffffffffffffffff168273ffffffffffffffffffffffffffffffffffffffff161415151561101657600080fd5b8260000160008373ffffffffffffffffffffffffffffffffffffffff1673ffffffffffffffffffffffffffffffffffffffff16815260200190815260200160002060009054906101000a900460ff16905092915050565b61108181600061112190919063ffffffff16565b8073ffffffffffffffffffffffffffffffffffffffff167fcd265ebaf09df2871cc7bd4133404a235ba12eff2041bb89d9c714a2621c7c7e60405160405180910390a250565b6110db8160006111d090919063ffffffff16565b8073ffffffffffffffffffffffffffffffffffffffff167f6719d08c1888103bea251a4ed56406bd0c3e69723c8a1686e017e7bbe159b6f860405160405180910390a250565b600073ffffffffffffffffffffffffffffffffffffffff168173ffffffffffffffffffffffffffffffffffffffff161415151561115d57600080fd5b6111678282610fd9565b151561117257600080fd5b60008260000160008373ffffffffffffffffffffffffffffffffffffffff1673ffffffffffffffffffffffffffffffffffffffff16815260200190815260200160002060006101000a81548160ff0219169083151502179055505050565b600073ffffffffffffffffffffffffffffffffffffffff168173ffffffffffffffffffffffffffffffffffffffff161415151561120c57600080fd5b6112168282610fd9565b15151561122257600080fd5b60018260000160008373ffffffffffffffffffffffffffffffffffffffff1673ffffffffffffffffffffffffffffffffffffffff16815260200190815260200160002060006101000a81548160ff021916908315150217905550505056fea165627a7a72305820ed7a5075056230eeef788244b896a6b01c891076188f04e8dd6c7eab3584d4fd0029a165627a7a723058202d0514d34efe36f962a912b7298c1dc39b9aa867d3e1b82f24e87d7eb7c876360029",
  "source": "pragma solidity ^0.5.0;\r\n\r\nimport \"../appGovernanceUpgrade/Upgrader.sol\";\r\nimport \"../appGovernanceUpgrade/Governance.sol\";\r\nimport \"../appGovernanceUpgrade/Storage.sol\";\r\n\r\nimport \"./PreUpgrader2.sol\";\r\nimport \"../LegalEntityMapping.sol\";\r\nimport \"../BNDESRegistry.sol\";\r\n\r\n\r\ncontract Upgrader1 is Upgrader {\r\n\r\n    //Variables from previous Migration\r\n    address private _governanceAddr;\r\n    address private _resolverAddr;\r\n\r\n    //New variables\r\n    address private _storageContractAddr;\r\n    address private _legalEntityMappingAddr;\r\n    address private _bndesRegistryAddr;\r\n\r\n    constructor (address preUpgraderAddr2) public {\r\n        PreUpgrader2 preUpgrader2 = PreUpgrader2(preUpgraderAddr2);\r\n        _governanceAddr = preUpgrader2.governanceAddr();\r\n        _resolverAddr = preUpgrader2.resolverAddr();\r\n    }\r\n\r\n    modifier onlyGovernance() {\r\n        require(_governanceAddr==msg.sender, \"This function can only be executed by the Governance\");\r\n        _;\r\n    }\r\n\r\n    function upgrade () external onlyGovernance {\r\n\r\n        Governance governance = Governance (_governanceAddr);\r\n        address upgraderInfoAddr = governance.upgraderInfoAddr();\r\n        UpgraderInfo ui = UpgraderInfo(upgraderInfoAddr);\r\n\r\n        Storage storageContract = new Storage(upgraderInfoAddr);\r\n        _storageContractAddr = address(storageContract);\r\n        \r\n        //Owner is a pausable because it enables him to remove other pausers\r\n        storageContract.addPauser(governance.owner());\r\n        if (governance.owner()!=ui.adminAddr()) {\r\n            storageContract.addPauser(ui.adminAddr());\r\n        }\r\n        storageContract.renouncePauser();\r\n\r\n\r\n        LegalEntityMapping legalEntityMapping = new LegalEntityMapping(upgraderInfoAddr,_storageContractAddr);\r\n        _legalEntityMappingAddr = address(legalEntityMapping);\r\n        legalEntityMapping.addPauser(governance.owner());\r\n        if (governance.owner()!=ui.adminAddr()) {\r\n            legalEntityMapping.addPauser(ui.adminAddr());\r\n        }\r\n        legalEntityMapping.renouncePauser();\r\n\r\n\r\n        BNDESRegistry bndesRegistry = new BNDESRegistry(upgraderInfoAddr, _legalEntityMappingAddr);\r\n        _bndesRegistryAddr = address(bndesRegistry);\r\n        bndesRegistry.addPauser(_resolverAddr);\r\n        bndesRegistry.addPauser(governance.owner());\r\n        if (governance.owner()!=ui.adminAddr()) {\r\n            bndesRegistry.addPauser(ui.adminAddr());\r\n        }\r\n        bndesRegistry.renouncePauser();\r\n\r\n        governance.setIdRegistryAddr(address(bndesRegistry));\r\n\r\n        storageContract.addHandler(_legalEntityMappingAddr);\r\n        legalEntityMapping.addHandler(_bndesRegistryAddr);\r\n\r\n        Resolver resolver = Resolver(_resolverAddr);\r\n        resolver.changeContract(\"BNDESRegistry\", _bndesRegistryAddr);\r\n    }\r\n\r\n    function governanceAddr() public view returns (address) {\r\n        return _governanceAddr;\r\n    }\r\n\r\n    function resolverAddr() public view returns (address) {\r\n        return _resolverAddr;\r\n    }\r\n\r\n    function storageContractAddr() public view returns (address) {\r\n        return _storageContractAddr;\r\n    }\r\n    function legalEntityMappingAddr() public view returns (address) {\r\n        return _legalEntityMappingAddr;\r\n    }\r\n    function bndesRegistryAddr() public view returns (address) {\r\n        return _bndesRegistryAddr;\r\n    }\r\n\r\n\r\n}\r\n",
  "sourcePath": "D:/Workspace/bndestoken/Back-Blockchain-Upgrade/contracts/appUpgraders/Upgrader1.sol",
  "compiler": {
    "name": "solc",
    "version": "0.5.0+commit.1d4f565a.Emscripten.clang"
  },
  "schemaVersion": "3.0.5",
  "updatedAt": "2019-10-02T19:57:14.724Z",
  "devdoc": {
    "methods": {}
  },
  "userdoc": {
    "methods": {}
  }
}