{
  "contractName": "BNDESToken",
  "abi": [
    {
      "constant": true,
      "inputs": [],
      "name": "name",
      "outputs": [
        {
          "name": "",
          "type": "string"
        }
      ],
      "payable": false,
      "stateMutability": "view",
      "type": "function",
      "signature": "0x06fdde03"
    },
    {
      "constant": true,
      "inputs": [
        {
          "name": "addr",
          "type": "address"
        }
      ],
      "name": "isWaitingValidationAccount",
      "outputs": [
        {
          "name": "",
          "type": "bool"
        }
      ],
      "payable": false,
      "stateMutability": "view",
      "type": "function",
      "signature": "0x0c4471bd"
    },
    {
      "constant": true,
      "inputs": [],
      "name": "totalSupply",
      "outputs": [
        {
          "name": "",
          "type": "uint256"
        }
      ],
      "payable": false,
      "stateMutability": "view",
      "type": "function",
      "signature": "0x18160ddd"
    },
    {
      "constant": true,
      "inputs": [
        {
          "name": "addr",
          "type": "address"
        }
      ],
      "name": "isReservedAccount",
      "outputs": [
        {
          "name": "",
          "type": "bool"
        }
      ],
      "payable": false,
      "stateMutability": "view",
      "type": "function",
      "signature": "0x184c8931"
    },
    {
      "constant": true,
      "inputs": [
        {
          "name": "",
          "type": "address"
        }
      ],
      "name": "legalEntitiesInfo",
      "outputs": [
        {
          "name": "cnpj",
          "type": "uint256"
        },
        {
          "name": "idFinancialSupportAgreement",
          "type": "uint256"
        },
        {
          "name": "salic",
          "type": "uint256"
        },
        {
          "name": "idProofHash",
          "type": "string"
        },
        {
          "name": "state",
          "type": "uint8"
        }
      ],
      "payable": false,
      "stateMutability": "view",
      "type": "function",
      "signature": "0x26ff4794"
    },
    {
      "constant": true,
      "inputs": [
        {
          "name": "addr",
          "type": "address"
        }
      ],
      "name": "isOwner",
      "outputs": [
        {
          "name": "",
          "type": "bool"
        }
      ],
      "payable": false,
      "stateMutability": "view",
      "type": "function",
      "signature": "0x2f54bf6e"
    },
    {
      "constant": true,
      "inputs": [],
      "name": "decimals",
      "outputs": [
        {
          "name": "",
          "type": "uint8"
        }
      ],
      "payable": false,
      "stateMutability": "view",
      "type": "function",
      "signature": "0x313ce567"
    },
    {
      "constant": true,
      "inputs": [
        {
          "name": "addr",
          "type": "address"
        }
      ],
      "name": "isValidatedSupplier",
      "outputs": [
        {
          "name": "",
          "type": "bool"
        }
      ],
      "payable": false,
      "stateMutability": "view",
      "type": "function",
      "signature": "0x348da3f2"
    },
    {
      "constant": true,
      "inputs": [
        {
          "name": "addr",
          "type": "address"
        }
      ],
      "name": "isResponsibleForRegistryValidation",
      "outputs": [
        {
          "name": "",
          "type": "bool"
        }
      ],
      "payable": false,
      "stateMutability": "view",
      "type": "function",
      "signature": "0x3abba2ef"
    },
    {
      "constant": false,
      "inputs": [],
      "name": "unpause",
      "outputs": [],
      "payable": false,
      "stateMutability": "nonpayable",
      "type": "function",
      "signature": "0x3f4ba83a"
    },
    {
      "constant": true,
      "inputs": [
        {
          "name": "addr",
          "type": "address"
        }
      ],
      "name": "isSupplier",
      "outputs": [
        {
          "name": "",
          "type": "bool"
        }
      ],
      "payable": false,
      "stateMutability": "view",
      "type": "function",
      "signature": "0x46336542"
    },
    {
      "constant": true,
      "inputs": [
        {
          "name": "account",
          "type": "address"
        }
      ],
      "name": "isPauser",
      "outputs": [
        {
          "name": "",
          "type": "bool"
        }
      ],
      "payable": false,
      "stateMutability": "view",
      "type": "function",
      "signature": "0x46fbf68e"
    },
    {
      "constant": true,
      "inputs": [
        {
          "name": "addr",
          "type": "address"
        }
      ],
      "name": "isResponsibleForDisbursement",
      "outputs": [
        {
          "name": "",
          "type": "bool"
        }
      ],
      "payable": false,
      "stateMutability": "view",
      "type": "function",
      "signature": "0x4add3110"
    },
    {
      "constant": true,
      "inputs": [],
      "name": "getResponsibleForDisbursement",
      "outputs": [
        {
          "name": "",
          "type": "address"
        }
      ],
      "payable": false,
      "stateMutability": "view",
      "type": "function",
      "signature": "0x57cdcb3e"
    },
    {
      "constant": true,
      "inputs": [],
      "name": "paused",
      "outputs": [
        {
          "name": "",
          "type": "bool"
        }
      ],
      "payable": false,
      "stateMutability": "view",
      "type": "function",
      "signature": "0x5c975abb"
    },
    {
      "constant": true,
      "inputs": [
        {
          "name": "addr",
          "type": "address"
        }
      ],
      "name": "isValidatedAccount",
      "outputs": [
        {
          "name": "",
          "type": "bool"
        }
      ],
      "payable": false,
      "stateMutability": "view",
      "type": "function",
      "signature": "0x6426a116"
    },
    {
      "constant": false,
      "inputs": [],
      "name": "renouncePauser",
      "outputs": [],
      "payable": false,
      "stateMutability": "nonpayable",
      "type": "function",
      "signature": "0x6ef8d66d"
    },
    {
      "constant": true,
      "inputs": [
        {
          "name": "owner",
          "type": "address"
        }
      ],
      "name": "balanceOf",
      "outputs": [
        {
          "name": "",
          "type": "uint256"
        }
      ],
      "payable": false,
      "stateMutability": "view",
      "type": "function",
      "signature": "0x70a08231"
    },
    {
      "constant": false,
      "inputs": [],
      "name": "renounceOwnership",
      "outputs": [],
      "payable": false,
      "stateMutability": "nonpayable",
      "type": "function",
      "signature": "0x715018a6"
    },
    {
      "constant": true,
      "inputs": [
        {
          "name": "addr",
          "type": "address"
        }
      ],
      "name": "isRedemptionAddress",
      "outputs": [
        {
          "name": "",
          "type": "bool"
        }
      ],
      "payable": false,
      "stateMutability": "view",
      "type": "function",
      "signature": "0x7943653d"
    },
    {
      "constant": true,
      "inputs": [],
      "name": "getRedemptionAddress",
      "outputs": [
        {
          "name": "",
          "type": "address"
        }
      ],
      "payable": false,
      "stateMutability": "view",
      "type": "function",
      "signature": "0x79b8369e"
    },
    {
      "constant": false,
      "inputs": [
        {
          "name": "addr",
          "type": "address"
        },
        {
          "name": "idProofHash",
          "type": "string"
        }
      ],
      "name": "validateRegistryLegalEntity",
      "outputs": [],
      "payable": false,
      "stateMutability": "nonpayable",
      "type": "function",
      "signature": "0x803b8a42"
    },
    {
      "constant": false,
      "inputs": [
        {
          "name": "account",
          "type": "address"
        }
      ],
      "name": "addPauser",
      "outputs": [],
      "payable": false,
      "stateMutability": "nonpayable",
      "type": "function",
      "signature": "0x82dc1ec4"
    },
    {
      "constant": true,
      "inputs": [
        {
          "name": "addr",
          "type": "address"
        }
      ],
      "name": "isInvalidatedByValidatorAccount",
      "outputs": [
        {
          "name": "",
          "type": "bool"
        }
      ],
      "payable": false,
      "stateMutability": "view",
      "type": "function",
      "signature": "0x845283de"
    },
    {
      "constant": false,
      "inputs": [],
      "name": "pause",
      "outputs": [],
      "payable": false,
      "stateMutability": "nonpayable",
      "type": "function",
      "signature": "0x8456cb59"
    },
    {
      "constant": true,
      "inputs": [
        {
          "name": "addr",
          "type": "address"
        }
      ],
      "name": "isClient",
      "outputs": [
        {
          "name": "",
          "type": "bool"
        }
      ],
      "payable": false,
      "stateMutability": "view",
      "type": "function",
      "signature": "0x84b7964f"
    },
    {
      "constant": true,
      "inputs": [
        {
          "name": "addr",
          "type": "address"
        }
      ],
      "name": "isResponsibleForSettlement",
      "outputs": [
        {
          "name": "",
          "type": "bool"
        }
      ],
      "payable": false,
      "stateMutability": "view",
      "type": "function",
      "signature": "0x85fecf9b"
    },
    {
      "constant": true,
      "inputs": [
        {
          "name": "addr",
          "type": "address"
        }
      ],
      "name": "getIdLegalFinancialAgreement",
      "outputs": [
        {
          "name": "",
          "type": "uint256"
        }
      ],
      "payable": false,
      "stateMutability": "view",
      "type": "function",
      "signature": "0x876c6e9b"
    },
    {
      "constant": false,
      "inputs": [
        {
          "name": "rs",
          "type": "address"
        }
      ],
      "name": "setResponsibleForRegistryValidation",
      "outputs": [],
      "payable": false,
      "stateMutability": "nonpayable",
      "type": "function",
      "signature": "0x8cbd258f"
    },
    {
      "constant": true,
      "inputs": [],
      "name": "owner",
      "outputs": [
        {
          "name": "",
          "type": "address"
        }
      ],
      "payable": false,
      "stateMutability": "view",
      "type": "function",
      "signature": "0x8da5cb5b"
    },
    {
      "constant": true,
      "inputs": [],
      "name": "isOwner",
      "outputs": [
        {
          "name": "",
          "type": "bool"
        }
      ],
      "payable": false,
      "stateMutability": "view",
      "type": "function",
      "signature": "0x8f32d59b"
    },
    {
      "constant": false,
      "inputs": [
        {
          "name": "rs",
          "type": "address"
        }
      ],
      "name": "setResponsibleForDisbursement",
      "outputs": [],
      "payable": false,
      "stateMutability": "nonpayable",
      "type": "function",
      "signature": "0x90e42c7e"
    },
    {
      "constant": true,
      "inputs": [],
      "name": "symbol",
      "outputs": [
        {
          "name": "",
          "type": "string"
        }
      ],
      "payable": false,
      "stateMutability": "view",
      "type": "function",
      "signature": "0x95d89b41"
    },
    {
      "constant": true,
      "inputs": [
        {
          "name": "addr",
          "type": "address"
        }
      ],
      "name": "getAccountState",
      "outputs": [
        {
          "name": "",
          "type": "int256"
        }
      ],
      "payable": false,
      "stateMutability": "view",
      "type": "function",
      "signature": "0x9ee2735b"
    },
    {
      "constant": true,
      "inputs": [
        {
          "name": "addr",
          "type": "address"
        }
      ],
      "name": "getLegalEntityInfo",
      "outputs": [
        {
          "name": "",
          "type": "uint256"
        },
        {
          "name": "",
          "type": "uint256"
        },
        {
          "name": "",
          "type": "uint256"
        },
        {
          "name": "",
          "type": "string"
        },
        {
          "name": "",
          "type": "uint256"
        },
        {
          "name": "",
          "type": "address"
        }
      ],
      "payable": false,
      "stateMutability": "view",
      "type": "function",
      "signature": "0x9f5e1ddd"
    },
    {
      "constant": true,
      "inputs": [
        {
          "name": "addr",
          "type": "address"
        }
      ],
      "name": "isAvailableAccount",
      "outputs": [
        {
          "name": "",
          "type": "bool"
        }
      ],
      "payable": false,
      "stateMutability": "view",
      "type": "function",
      "signature": "0xa3d88453"
    },
    {
      "constant": true,
      "inputs": [
        {
          "name": "cnpj",
          "type": "uint256"
        },
        {
          "name": "idFinancialSupportAgreement",
          "type": "uint256"
        }
      ],
      "name": "getBlockchainAccount",
      "outputs": [
        {
          "name": "",
          "type": "address"
        }
      ],
      "payable": false,
      "stateMutability": "view",
      "type": "function",
      "signature": "0xa4f335d3"
    },
    {
      "constant": false,
      "inputs": [
        {
          "name": "addr",
          "type": "address"
        }
      ],
      "name": "invalidateRegistryLegalEntity",
      "outputs": [],
      "payable": false,
      "stateMutability": "nonpayable",
      "type": "function",
      "signature": "0xb41842b9"
    },
    {
      "constant": true,
      "inputs": [],
      "name": "getResponsibleForRegistryValidation",
      "outputs": [
        {
          "name": "",
          "type": "address"
        }
      ],
      "payable": false,
      "stateMutability": "view",
      "type": "function",
      "signature": "0xb7196f37"
    },
    {
      "constant": false,
      "inputs": [
        {
          "name": "rs",
          "type": "address"
        }
      ],
      "name": "setResponsibleForSettlement",
      "outputs": [],
      "payable": false,
      "stateMutability": "nonpayable",
      "type": "function",
      "signature": "0xb7404ff5"
    },
    {
      "constant": true,
      "inputs": [
        {
          "name": "addr",
          "type": "address"
        }
      ],
      "name": "isInvalidatedByChangeAccount",
      "outputs": [
        {
          "name": "",
          "type": "bool"
        }
      ],
      "payable": false,
      "stateMutability": "view",
      "type": "function",
      "signature": "0xb8e7c21d"
    },
    {
      "constant": true,
      "inputs": [
        {
          "name": "addr",
          "type": "address"
        }
      ],
      "name": "getCNPJ",
      "outputs": [
        {
          "name": "",
          "type": "uint256"
        }
      ],
      "payable": false,
      "stateMutability": "view",
      "type": "function",
      "signature": "0xbe49b78d"
    },
    {
      "constant": true,
      "inputs": [
        {
          "name": "addr",
          "type": "address"
        }
      ],
      "name": "isValidatedClient",
      "outputs": [
        {
          "name": "",
          "type": "bool"
        }
      ],
      "payable": false,
      "stateMutability": "view",
      "type": "function",
      "signature": "0xc01ed210"
    },
    {
      "constant": false,
      "inputs": [
        {
          "name": "rs",
          "type": "address"
        }
      ],
      "name": "setRedemptionAddress",
      "outputs": [],
      "payable": false,
      "stateMutability": "nonpayable",
      "type": "function",
      "signature": "0xcc7e1b9a"
    },
    {
      "constant": true,
      "inputs": [
        {
          "name": "owner",
          "type": "address"
        },
        {
          "name": "spender",
          "type": "address"
        }
      ],
      "name": "allowance",
      "outputs": [
        {
          "name": "",
          "type": "uint256"
        }
      ],
      "payable": false,
      "stateMutability": "view",
      "type": "function",
      "signature": "0xdd62ed3e"
    },
    {
      "constant": true,
      "inputs": [
        {
          "name": "cnpj",
          "type": "uint256"
        },
        {
          "name": "idFinancialSupportAgreement",
          "type": "uint256"
        }
      ],
      "name": "getLegalEntityInfoByCNPJ",
      "outputs": [
        {
          "name": "",
          "type": "uint256"
        },
        {
          "name": "",
          "type": "uint256"
        },
        {
          "name": "",
          "type": "uint256"
        },
        {
          "name": "",
          "type": "string"
        },
        {
          "name": "",
          "type": "uint256"
        },
        {
          "name": "",
          "type": "address"
        }
      ],
      "payable": false,
      "stateMutability": "view",
      "type": "function",
      "signature": "0xe512b1ff"
    },
    {
      "constant": false,
      "inputs": [
        {
          "name": "newOwner",
          "type": "address"
        }
      ],
      "name": "transferOwnership",
      "outputs": [],
      "payable": false,
      "stateMutability": "nonpayable",
      "type": "function",
      "signature": "0xf2fde38b"
    },
    {
      "constant": true,
      "inputs": [],
      "name": "getResponsibleForSettlement",
      "outputs": [
        {
          "name": "",
          "type": "address"
        }
      ],
      "payable": false,
      "stateMutability": "view",
      "type": "function",
      "signature": "0xf4ec7367"
    },
    {
      "anonymous": false,
      "inputs": [
        {
          "indexed": false,
          "name": "cnpj",
          "type": "uint256"
        },
        {
          "indexed": false,
          "name": "idFinancialSupportAgreement",
          "type": "uint256"
        },
        {
          "indexed": false,
          "name": "value",
          "type": "uint256"
        }
      ],
      "name": "BNDESTokenDisbursement",
      "type": "event",
      "signature": "0x17402d7e9c93e5755ce4b9008c259de5059b180920a13885be54ebaf02e81119"
    },
    {
      "anonymous": false,
      "inputs": [
        {
          "indexed": false,
          "name": "fromCnpj",
          "type": "uint256"
        },
        {
          "indexed": false,
          "name": "fromIdFinancialSupportAgreement",
          "type": "uint256"
        },
        {
          "indexed": false,
          "name": "toCnpj",
          "type": "uint256"
        },
        {
          "indexed": false,
          "name": "value",
          "type": "uint256"
        }
      ],
      "name": "BNDESTokenTransfer",
      "type": "event",
      "signature": "0x675c75f5a4f583261cd1cca8d5fc670ce610221d8ec5cd2c74bb949f1cefd5b3"
    },
    {
      "anonymous": false,
      "inputs": [
        {
          "indexed": false,
          "name": "cnpj",
          "type": "uint256"
        },
        {
          "indexed": false,
          "name": "value",
          "type": "uint256"
        }
      ],
      "name": "BNDESTokenRedemption",
      "type": "event",
      "signature": "0x0a7caeac328e6212d649fc5f567f0b41d91ff5eb5fa01c647a7888b52f41af25"
    },
    {
      "anonymous": false,
      "inputs": [
        {
          "indexed": false,
          "name": "redemptionTransactionHash",
          "type": "string"
        },
        {
          "indexed": false,
          "name": "receiptHash",
          "type": "string"
        }
      ],
      "name": "BNDESTokenRedemptionSettlement",
      "type": "event",
      "signature": "0xa86b2b0d4d5df6e286898ddbf13f59ded7b39986717378878be628b878baa4b5"
    },
    {
      "anonymous": false,
      "inputs": [
        {
          "indexed": false,
          "name": "account",
          "type": "address"
        }
      ],
      "name": "Paused",
      "type": "event",
      "signature": "0x62e78cea01bee320cd4e420270b5ea74000d11b0c9f74754ebdbfc544b05a258"
    },
    {
      "anonymous": false,
      "inputs": [
        {
          "indexed": false,
          "name": "account",
          "type": "address"
        }
      ],
      "name": "Unpaused",
      "type": "event",
      "signature": "0x5db9ee0a495bf2e6ff9c91a7834c1ba4fdd244a5e8aa4e537bd38aeae4b073aa"
    },
    {
      "anonymous": false,
      "inputs": [
        {
          "indexed": true,
          "name": "account",
          "type": "address"
        }
      ],
      "name": "PauserAdded",
      "type": "event",
      "signature": "0x6719d08c1888103bea251a4ed56406bd0c3e69723c8a1686e017e7bbe159b6f8"
    },
    {
      "anonymous": false,
      "inputs": [
        {
          "indexed": true,
          "name": "account",
          "type": "address"
        }
      ],
      "name": "PauserRemoved",
      "type": "event",
      "signature": "0xcd265ebaf09df2871cc7bd4133404a235ba12eff2041bb89d9c714a2621c7c7e"
    },
    {
      "anonymous": false,
      "inputs": [
        {
          "indexed": true,
          "name": "from",
          "type": "address"
        },
        {
          "indexed": true,
          "name": "to",
          "type": "address"
        },
        {
          "indexed": false,
          "name": "value",
          "type": "uint256"
        }
      ],
      "name": "Transfer",
      "type": "event",
      "signature": "0xddf252ad1be2c89b69c2b068fc378daa952ba7f163c4a11628f55a4df523b3ef"
    },
    {
      "anonymous": false,
      "inputs": [
        {
          "indexed": true,
          "name": "owner",
          "type": "address"
        },
        {
          "indexed": true,
          "name": "spender",
          "type": "address"
        },
        {
          "indexed": false,
          "name": "value",
          "type": "uint256"
        }
      ],
      "name": "Approval",
      "type": "event",
      "signature": "0x8c5be1e5ebec7d5bd14f71427d1e84f3dd0314c0f7b2291e5b200ac8c7c3b925"
    },
    {
      "anonymous": false,
      "inputs": [
        {
          "indexed": false,
          "name": "addr",
          "type": "address"
        },
        {
          "indexed": false,
          "name": "cnpj",
          "type": "uint256"
        },
        {
          "indexed": false,
          "name": "idFinancialSupportAgreement",
          "type": "uint256"
        },
        {
          "indexed": false,
          "name": "salic",
          "type": "uint256"
        },
        {
          "indexed": false,
          "name": "idProofHash",
          "type": "string"
        }
      ],
      "name": "AccountRegistration",
      "type": "event",
      "signature": "0x51a4cfac9b4f8651b6f6c57772ddeeb9d393c411ae3a2be4aa1394c106bd3e9a"
    },
    {
      "anonymous": false,
      "inputs": [
        {
          "indexed": false,
          "name": "addr",
          "type": "address"
        },
        {
          "indexed": false,
          "name": "cnpj",
          "type": "uint256"
        },
        {
          "indexed": false,
          "name": "idFinancialSupportAgreement",
          "type": "uint256"
        },
        {
          "indexed": false,
          "name": "salic",
          "type": "uint256"
        },
        {
          "indexed": false,
          "name": "idProofHash",
          "type": "string"
        }
      ],
      "name": "AccountChange",
      "type": "event",
      "signature": "0x835c4d8f9bdbdf9782795d8d402350614edd9b8ffa70840bccafd38772ff1c52"
    },
    {
      "anonymous": false,
      "inputs": [
        {
          "indexed": false,
          "name": "addr",
          "type": "address"
        }
      ],
      "name": "AccountValidation",
      "type": "event",
      "signature": "0x4dc67ae38b3a2998081034ecd07cef8b98f45b9229ac9f2ee1052707298a2ea9"
    },
    {
      "anonymous": false,
      "inputs": [
        {
          "indexed": false,
          "name": "addr",
          "type": "address"
        }
      ],
      "name": "AccountInvalidation",
      "type": "event",
      "signature": "0x03454a2dd5c664b443b971b8e477ea5926510d0e93159d57d93293b484c7444f"
    },
    {
      "anonymous": false,
      "inputs": [
        {
          "indexed": true,
          "name": "previousOwner",
          "type": "address"
        },
        {
          "indexed": true,
          "name": "newOwner",
          "type": "address"
        }
      ],
      "name": "OwnershipTransferred",
      "type": "event",
      "signature": "0x8be0079c531659141344cd1fd0a4f28419497f9722a3daafe3b4186f6b6457e0"
    },
    {
      "constant": true,
      "inputs": [],
      "name": "getVersion",
      "outputs": [
        {
          "name": "",
          "type": "uint256"
        }
      ],
      "payable": false,
      "stateMutability": "view",
      "type": "function",
      "signature": "0x0d8e6e2c"
    },
    {
      "constant": false,
      "inputs": [
        {
          "name": "to",
          "type": "address"
        },
        {
          "name": "value",
          "type": "uint256"
        }
      ],
      "name": "transfer",
      "outputs": [
        {
          "name": "",
          "type": "bool"
        }
      ],
      "payable": false,
      "stateMutability": "nonpayable",
      "type": "function",
      "signature": "0xa9059cbb"
    },
    {
      "constant": false,
      "inputs": [
        {
          "name": "value",
          "type": "uint256"
        }
      ],
      "name": "redeem",
      "outputs": [
        {
          "name": "",
          "type": "bool"
        }
      ],
      "payable": false,
      "stateMutability": "nonpayable",
      "type": "function",
      "signature": "0xdb006a75"
    },
    {
      "constant": false,
      "inputs": [
        {
          "name": "redemptionTransactionHash",
          "type": "string"
        },
        {
          "name": "receiptHash",
          "type": "string"
        }
      ],
      "name": "notifyRedemptionSettlement",
      "outputs": [],
      "payable": false,
      "stateMutability": "nonpayable",
      "type": "function",
      "signature": "0x87cf6423"
    },
    {
      "constant": false,
      "inputs": [
        {
          "name": "cnpj",
          "type": "uint256"
        },
        {
          "name": "idFinancialSupportAgreement",
          "type": "uint256"
        },
        {
          "name": "salic",
          "type": "uint256"
        },
        {
          "name": "idProofHash",
          "type": "string"
        }
      ],
      "name": "registryLegalEntity",
      "outputs": [],
      "payable": false,
      "stateMutability": "nonpayable",
      "type": "function",
      "signature": "0x0cc79a50"
    },
    {
      "constant": false,
      "inputs": [
        {
          "name": "cnpj",
          "type": "uint256"
        },
        {
          "name": "idFinancialSupportAgreement",
          "type": "uint256"
        },
        {
          "name": "salic",
          "type": "uint256"
        },
        {
          "name": "idProofHash",
          "type": "string"
        }
      ],
      "name": "changeAccountLegalEntity",
      "outputs": [],
      "payable": false,
      "stateMutability": "nonpayable",
      "type": "function",
      "signature": "0x8bfbc598"
    },
    {
      "constant": false,
      "inputs": [
        {
          "name": "from",
          "type": "address"
        },
        {
          "name": "to",
          "type": "address"
        },
        {
          "name": "value",
          "type": "uint256"
        }
      ],
      "name": "transferFrom",
      "outputs": [
        {
          "name": "",
          "type": "bool"
        }
      ],
      "payable": false,
      "stateMutability": "nonpayable",
      "type": "function",
      "signature": "0x23b872dd"
    },
    {
      "constant": false,
      "inputs": [
        {
          "name": "spender",
          "type": "address"
        },
        {
          "name": "value",
          "type": "uint256"
        }
      ],
      "name": "approve",
      "outputs": [
        {
          "name": "",
          "type": "bool"
        }
      ],
      "payable": false,
      "stateMutability": "nonpayable",
      "type": "function",
      "signature": "0x095ea7b3"
    },
    {
      "constant": false,
      "inputs": [
        {
          "name": "spender",
          "type": "address"
        },
        {
          "name": "addedValue",
          "type": "uint256"
        }
      ],
      "name": "increaseAllowance",
      "outputs": [
        {
          "name": "success",
          "type": "bool"
        }
      ],
      "payable": false,
      "stateMutability": "nonpayable",
      "type": "function",
      "signature": "0x39509351"
    },
    {
      "constant": false,
      "inputs": [
        {
          "name": "spender",
          "type": "address"
        },
        {
          "name": "subtractedValue",
          "type": "uint256"
        }
      ],
      "name": "decreaseAllowance",
      "outputs": [
        {
          "name": "success",
          "type": "bool"
        }
      ],
      "payable": false,
      "stateMutability": "nonpayable",
      "type": "function",
      "signature": "0xa457c2d7"
    }
  ],
  "bytecode": "0x60806040526301341535600f556040805190810160405280600a81526020017f424e444553546f6b656e000000000000000000000000000000000000000000008152506040805190810160405280600381526020017f424e4400000000000000000000000000000000000000000000000000000000008152506002336000806101000a81548173ffffffffffffffffffffffffffffffffffffffff021916908373ffffffffffffffffffffffffffffffffffffffff1602179055506000809054906101000a900473ffffffffffffffffffffffffffffffffffffffff1673ffffffffffffffffffffffffffffffffffffffff16600073ffffffffffffffffffffffffffffffffffffffff167f8be0079c531659141344cd1fd0a4f28419497f9722a3daafe3b4186f6b6457e060405160405180910390a333600160006101000a81548173ffffffffffffffffffffffffffffffffffffffff021916908373ffffffffffffffffffffffffffffffffffffffff16021790555033600260006101000a81548173ffffffffffffffffffffffffffffffffffffffff021916908373ffffffffffffffffffffffffffffffffffffffff16021790555033600360006101000a81548173ffffffffffffffffffffffffffffffffffffffff021916908373ffffffffffffffffffffffffffffffffffffffff16021790555033600460006101000a81548173ffffffffffffffffffffffffffffffffffffffff021916908373ffffffffffffffffffffffffffffffffffffffff1602179055506200025433620002c5640100000000026401000000009004565b6000600b60006101000a81548160ff02191690831515021790555082600c90805190602001906200028792919062000487565b5081600d9080519060200190620002a092919062000487565b5080600e60006101000a81548160ff021916908360ff16021790555050505062000536565b620002e981600a6200032f6401000000000262004fc9179091906401000000009004565b8073ffffffffffffffffffffffffffffffffffffffff167f6719d08c1888103bea251a4ed56406bd0c3e69723c8a1686e017e7bbe159b6f860405160405180910390a250565b600073ffffffffffffffffffffffffffffffffffffffff168173ffffffffffffffffffffffffffffffffffffffff16141515156200036c57600080fd5b620003878282620003f2640100000000026401000000009004565b1515156200039457600080fd5b60018260000160008373ffffffffffffffffffffffffffffffffffffffff1673ffffffffffffffffffffffffffffffffffffffff16815260200190815260200160002060006101000a81548160ff0219169083151502179055505050565b60008073ffffffffffffffffffffffffffffffffffffffff168273ffffffffffffffffffffffffffffffffffffffff16141515156200043057600080fd5b8260000160008373ffffffffffffffffffffffffffffffffffffffff1673ffffffffffffffffffffffffffffffffffffffff16815260200190815260200160002060009054906101000a900460ff16905092915050565b828054600181600116156101000203166002900490600052602060002090601f016020900481019282601f10620004ca57805160ff1916838001178555620004fb565b82800160010185558215620004fb579182015b82811115620004fa578251825591602001919060010190620004dd565b5b5090506200050a91906200050e565b5090565b6200053391905b808211156200052f57600081600090555060010162000515565b5090565b90565b61518d80620005466000396000f3fe6080604052600436106102b4576000357c0100000000000000000000000000000000000000000000000000000000900463ffffffff16806306fdde03146102b9578063095ea7b3146103495780630c4471bd146103bc5780630cc79a50146104255780630d8e6e2c1461050b57806318160ddd14610536578063184c89311461056157806323b872dd146105ca57806326ff47941461065d5780632f54bf6e14610751578063313ce567146107ba578063348da3f2146107eb57806339509351146108545780633abba2ef146108c75780633f4ba83a14610930578063463365421461094757806346fbf68e146109b05780634add311014610a1957806357cdcb3e14610a825780635c975abb14610ad95780636426a11614610b085780636ef8d66d14610b7157806370a0823114610b88578063715018a614610bed5780637943653d14610c0457806379b8369e14610c6d578063803b8a4214610cc457806382dc1ec414610dac578063845283de14610dfd5780638456cb5914610e6657806384b7964f14610e7d57806385fecf9b14610ee6578063876c6e9b14610f4f57806387cf642314610fb45780638bfbc598146111135780638cbd258f146111f95780638da5cb5b1461124a5780638f32d59b146112a157806390e42c7e146112d057806395d89b41146113215780639ee2735b146113b15780639f5e1ddd14611416578063a3d884531461152f578063a457c2d714611598578063a4f335d31461160b578063a9059cbb14611690578063b41842b914611703578063b7196f3714611754578063b7404ff5146117ab578063b8e7c21d146117fc578063be49b78d14611865578063c01ed210146118ca578063cc7e1b9a14611933578063db006a7514611984578063dd62ed3e146119d7578063e512b1ff14611a5c578063f2fde38b14611b69578063f4ec736714611bba575b600080fd5b3480156102c557600080fd5b506102ce611c11565b6040518080602001828103825283818151815260200191508051906020019080838360005b8381101561030e5780820151818401526020810190506102f3565b50505050905090810190601f16801561033b5780820380516001836020036101000a031916815260200191505b509250505060405180910390f35b34801561035557600080fd5b506103a26004803603604081101561036c57600080fd5b81019080803573ffffffffffffffffffffffffffffffffffffffff16906020019092919080359060200190929190505050611cb3565b604051808215151515815260200191505060405180910390f35b3480156103c857600080fd5b5061040b600480360360208110156103df57600080fd5b81019080803573ffffffffffffffffffffffffffffffffffffffff169060200190929190505050611d4d565b604051808215151515815260200191505060405180910390f35b34801561043157600080fd5b506105096004803603608081101561044857600080fd5b810190808035906020019092919080359060200190929190803590602001909291908035906020019064010000000081111561048357600080fd5b82018360208201111561049557600080fd5b803590602001918460018302840111640100000000831117156104b757600080fd5b91908080601f016020809104026020016040519081016040528093929190818152602001838380828437600081840152601f19601f820116905080830192505050505050509192919290505050611dbf565b005b34801561051757600080fd5b50610520611ded565b6040518082815260200191505060405180910390f35b34801561054257600080fd5b5061054b611df7565b6040518082815260200191505060405180910390f35b34801561056d57600080fd5b506105b06004803603602081101561058457600080fd5b81019080803573ffffffffffffffffffffffffffffffffffffffff169060200190929190505050611e01565b604051808215151515815260200191505060405180910390f35b3480156105d657600080fd5b50610643600480360360608110156105ed57600080fd5b81019080803573ffffffffffffffffffffffffffffffffffffffff169060200190929190803573ffffffffffffffffffffffffffffffffffffffff16906020019092919080359060200190929190505050611e64565b604051808215151515815260200191505060405180910390f35b34801561066957600080fd5b506106ac6004803603602081101561068057600080fd5b81019080803573ffffffffffffffffffffffffffffffffffffffff169060200190929190505050611f25565b60405180868152602001858152602001848152602001806020018360048111156106d257fe5b60ff168152602001828103825284818151815260200191508051906020019080838360005b838110156107125780820151818401526020810190506106f7565b50505050905090810190601f16801561073f5780820380516001836020036101000a031916815260200191505b50965050505050505060405180910390f35b34801561075d57600080fd5b506107a06004803603602081101561077457600080fd5b81019080803573ffffffffffffffffffffffffffffffffffffffff169060200190929190505050612000565b604051808215151515815260200191505060405180910390f35b3480156107c657600080fd5b506107cf61203f565b604051808260ff1660ff16815260200191505060405180910390f35b3480156107f757600080fd5b5061083a6004803603602081101561080e57600080fd5b81019080803573ffffffffffffffffffffffffffffffffffffffff169060200190929190505050612056565b604051808215151515815260200191505060405180910390f35b34801561086057600080fd5b506108ad6004803603604081101561087757600080fd5b81019080803573ffffffffffffffffffffffffffffffffffffffff169060200190929190803590602001909291905050506120d9565b604051808215151515815260200191505060405180910390f35b3480156108d357600080fd5b50610916600480360360208110156108ea57600080fd5b81019080803573ffffffffffffffffffffffffffffffffffffffff169060200190929190505050612199565b604051808215151515815260200191505060405180910390f35b34801561093c57600080fd5b506109456121f3565b005b34801561095357600080fd5b506109966004803603602081101561096a57600080fd5b81019080803573ffffffffffffffffffffffffffffffffffffffff1690602001909291905050506122a2565b604051808215151515815260200191505060405180910390f35b3480156109bc57600080fd5b506109ff600480360360208110156109d357600080fd5b81019080803573ffffffffffffffffffffffffffffffffffffffff169060200190929190505050612320565b604051808215151515815260200191505060405180910390f35b348015610a2557600080fd5b50610a6860048036036020811015610a3c57600080fd5b81019080803573ffffffffffffffffffffffffffffffffffffffff16906020019092919050505061233d565b604051808215151515815260200191505060405180910390f35b348015610a8e57600080fd5b50610a97612397565b604051808273ffffffffffffffffffffffffffffffffffffffff1673ffffffffffffffffffffffffffffffffffffffff16815260200191505060405180910390f35b348015610ae557600080fd5b50610aee6123c1565b604051808215151515815260200191505060405180910390f35b348015610b1457600080fd5b50610b5760048036036020811015610b2b57600080fd5b81019080803573ffffffffffffffffffffffffffffffffffffffff1690602001909291905050506123d8565b604051808215151515815260200191505060405180910390f35b348015610b7d57600080fd5b50610b8661244a565b005b348015610b9457600080fd5b50610bd760048036036020811015610bab57600080fd5b81019080803573ffffffffffffffffffffffffffffffffffffffff169060200190929190505050612455565b6040518082815260200191505060405180910390f35b348015610bf957600080fd5b50610c0261249e565b005b348015610c1057600080fd5b50610c5360048036036020811015610c2757600080fd5b81019080803573ffffffffffffffffffffffffffffffffffffffff169060200190929190505050612570565b604051808215151515815260200191505060405180910390f35b348015610c7957600080fd5b50610c826125ca565b604051808273ffffffffffffffffffffffffffffffffffffffff1673ffffffffffffffffffffffffffffffffffffffff16815260200191505060405180910390f35b348015610cd057600080fd5b50610daa60048036036040811015610ce757600080fd5b81019080803573ffffffffffffffffffffffffffffffffffffffff16906020019092919080359060200190640100000000811115610d2457600080fd5b820183602082011115610d3657600080fd5b80359060200191846001830284011164010000000083111715610d5857600080fd5b91908080601f016020809104026020016040519081016040528093929190818152602001838380828437600081840152601f19601f8201169050808301925050505050505091929192905050506125f4565b005b348015610db857600080fd5b50610dfb60048036036020811015610dcf57600080fd5b81019080803573ffffffffffffffffffffffffffffffffffffffff16906020019092919050505061299f565b005b348015610e0957600080fd5b50610e4c60048036036020811015610e2057600080fd5b81019080803573ffffffffffffffffffffffffffffffffffffffff1690602001909291905050506129bf565b604051808215151515815260200191505060405180910390f35b348015610e7257600080fd5b50610e7b612a31565b005b348015610e8957600080fd5b50610ecc60048036036020811015610ea057600080fd5b81019080803573ffffffffffffffffffffffffffffffffffffffff169060200190929190505050612ae1565b604051808215151515815260200191505060405180910390f35b348015610ef257600080fd5b50610f3560048036036020811015610f0957600080fd5b81019080803573ffffffffffffffffffffffffffffffffffffffff169060200190929190505050612b49565b604051808215151515815260200191505060405180910390f35b348015610f5b57600080fd5b50610f9e60048036036020811015610f7257600080fd5b81019080803573ffffffffffffffffffffffffffffffffffffffff169060200190929190505050612ba3565b6040518082815260200191505060405180910390f35b348015610fc057600080fd5b5061111160048036036040811015610fd757600080fd5b8101908080359060200190640100000000811115610ff457600080fd5b82018360208201111561100657600080fd5b8035906020019184600183028401116401000000008311171561102857600080fd5b91908080601f016020809104026020016040519081016040528093929190818152602001838380828437600081840152601f19601f8201169050808301925050505050505091929192908035906020019064010000000081111561108b57600080fd5b82018360208201111561109d57600080fd5b803590602001918460018302840111640100000000831117156110bf57600080fd5b91908080601f016020809104026020016040519081016040528093929190818152602001838380828437600081840152601f19601f820116905080830192505050505050509192919290505050612bef565b005b34801561111f57600080fd5b506111f76004803603608081101561113657600080fd5b810190808035906020019092919080359060200190929190803590602001909291908035906020019064010000000081111561117157600080fd5b82018360208201111561118357600080fd5b803590602001918460018302840111640100000000831117156111a557600080fd5b91908080601f016020809104026020016040519081016040528093929190818152602001838380828437600081840152601f19601f820116905080830192505050505050509192919290505050612de1565b005b34801561120557600080fd5b506112486004803603602081101561121c57600080fd5b81019080803573ffffffffffffffffffffffffffffffffffffffff169060200190929190505050612e49565b005b34801561125657600080fd5b5061125f612ea0565b604051808273ffffffffffffffffffffffffffffffffffffffff1673ffffffffffffffffffffffffffffffffffffffff16815260200191505060405180910390f35b3480156112ad57600080fd5b506112b6612ec9565b604051808215151515815260200191505060405180910390f35b3480156112dc57600080fd5b5061131f600480360360208110156112f357600080fd5b81019080803573ffffffffffffffffffffffffffffffffffffffff169060200190929190505050612f20565b005b34801561132d57600080fd5b50611336612f77565b6040518080602001828103825283818151815260200191508051906020019080838360005b8381101561137657808201518184015260208101905061135b565b50505050905090810190601f1680156113a35780820380516001836020036101000a031916815260200191505b509250505060405180910390f35b3480156113bd57600080fd5b50611400600480360360208110156113d457600080fd5b81019080803573ffffffffffffffffffffffffffffffffffffffff169060200190929190505050613019565b6040518082815260200191505060405180910390f35b34801561142257600080fd5b506114656004803603602081101561143957600080fd5b81019080803573ffffffffffffffffffffffffffffffffffffffff169060200190929190505050613095565b60405180878152602001868152602001858152602001806020018481526020018373ffffffffffffffffffffffffffffffffffffffff1673ffffffffffffffffffffffffffffffffffffffff168152602001828103825285818151815260200191508051906020019080838360005b838110156114ef5780820151818401526020810190506114d4565b50505050905090810190601f16801561151c5780820380516001836020036101000a031916815260200191505b5097505050505050505060405180910390f35b34801561153b57600080fd5b5061157e6004803603602081101561155257600080fd5b81019080803573ffffffffffffffffffffffffffffffffffffffff1690602001909291905050506132b7565b604051808215151515815260200191505060405180910390f35b3480156115a457600080fd5b506115f1600480360360408110156115bb57600080fd5b81019080803573ffffffffffffffffffffffffffffffffffffffff16906020019092919080359060200190929190505050613341565b604051808215151515815260200191505060405180910390f35b34801561161757600080fd5b5061164e6004803603604081101561162e57600080fd5b810190808035906020019092919080359060200190929190505050613401565b604051808273ffffffffffffffffffffffffffffffffffffffff1673ffffffffffffffffffffffffffffffffffffffff16815260200191505060405180910390f35b34801561169c57600080fd5b506116e9600480360360408110156116b357600080fd5b81019080803573ffffffffffffffffffffffffffffffffffffffff16906020019092919080359060200190929190505050613450565b604051808215151515815260200191505060405180910390f35b34801561170f57600080fd5b506117526004803603602081101561172657600080fd5b81019080803573ffffffffffffffffffffffffffffffffffffffff16906020019092919050505061396c565b005b34801561176057600080fd5b50611769613a49565b604051808273ffffffffffffffffffffffffffffffffffffffff1673ffffffffffffffffffffffffffffffffffffffff16815260200191505060405180910390f35b3480156117b757600080fd5b506117fa600480360360208110156117ce57600080fd5b81019080803573ffffffffffffffffffffffffffffffffffffffff169060200190929190505050613a73565b005b34801561180857600080fd5b5061184b6004803603602081101561181f57600080fd5b81019080803573ffffffffffffffffffffffffffffffffffffffff169060200190929190505050613aca565b604051808215151515815260200191505060405180910390f35b34801561187157600080fd5b506118b46004803603602081101561188857600080fd5b81019080803573ffffffffffffffffffffffffffffffffffffffff169060200190929190505050613b3b565b6040518082815260200191505060405180910390f35b3480156118d657600080fd5b50611919600480360360208110156118ed57600080fd5b81019080803573ffffffffffffffffffffffffffffffffffffffff169060200190929190505050613b87565b604051808215151515815260200191505060405180910390f35b34801561193f57600080fd5b506119826004803603602081101561195657600080fd5b81019080803573ffffffffffffffffffffffffffffffffffffffff169060200190929190505050613c0a565b005b34801561199057600080fd5b506119bd600480360360208110156119a757600080fd5b8101908080359060200190929190505050613c61565b604051808215151515815260200191505060405180910390f35b3480156119e357600080fd5b50611a46600480360360408110156119fa57600080fd5b81019080803573ffffffffffffffffffffffffffffffffffffffff169060200190929190803573ffffffffffffffffffffffffffffffffffffffff169060200190929190505050613c97565b6040518082815260200191505060405180910390f35b348015611a6857600080fd5b50611a9f60048036036040811015611a7f57600080fd5b810190808035906020019092919080359060200190929190505050613d1e565b60405180878152602001868152602001858152602001806020018481526020018373ffffffffffffffffffffffffffffffffffffffff1673ffffffffffffffffffffffffffffffffffffffff168152602001828103825285818151815260200191508051906020019080838360005b83811015611b29578082015181840152602081019050611b0e565b50505050905090810190601f168015611b565780820380516001836020036101000a031916815260200191505b5097505050505050505060405180910390f35b348015611b7557600080fd5b50611bb860048036036020811015611b8c57600080fd5b81019080803573ffffffffffffffffffffffffffffffffffffffff169060200190929190505050613d56565b005b348015611bc657600080fd5b50611bcf613d75565b604051808273ffffffffffffffffffffffffffffffffffffffff1673ffffffffffffffffffffffffffffffffffffffff16815260200191505060405180910390f35b6060600c8054600181600116156101000203166002900480601f016020809104026020016040519081016040528092919081815260200182805460018160011615610100020316600290048015611ca95780601f10611c7e57610100808354040283529160200191611ca9565b820191906000526020600020905b815481529060010190602001808311611c8c57829003601f168201915b5050505050905090565b6000600b60009054906101000a900460ff16151515611cd157600080fd5b60001515611d47576040517f08c379a000000000000000000000000000000000000000000000000000000000815260040180806020018281038252601c8152602001807f556e737570706f72746564206d6574686f64202d20617070726f76650000000081525060200191505060405180910390fd5b92915050565b600060016004811115611d5c57fe5b600560008473ffffffffffffffffffffffffffffffffffffffff1673ffffffffffffffffffffffffffffffffffffffff16815260200190815260200160002060040160009054906101000a900460ff166004811115611db757fe5b149050919050565b600b60009054906101000a900460ff16151515611ddb57600080fd5b611de784848484613d9f565b50505050565b6000600f54905090565b6000600954905090565b6000611e0c82612000565b80611e1c5750611e1b82612b49565b5b80611e2c5750611e2b82612199565b5b80611e3c5750611e3b8261233d565b5b80611e4c5750611e4b82612570565b5b15611e5a5760019050611e5f565b600090505b919050565b6000600b60009054906101000a900460ff16151515611e8257600080fd5b60001515611f1e576040517f08c379a00000000000000000000000000000000000000000000000000000000081526004018080602001828103825260218152602001807f556e737570706f72746564206d6574686f64202d207472616e7366657246726f81526020017f6d0000000000000000000000000000000000000000000000000000000000000081525060400191505060405180910390fd5b9392505050565b6005602052806000526040600020600091509050806000015490806001015490806002015490806003018054600181600116156101000203166002900480601f016020809104026020016040519081016040528092919081815260200182805460018160011615610100020316600290048015611fe35780601f10611fb857610100808354040283529160200191611fe3565b820191906000526020600020905b815481529060010190602001808311611fc657829003601f168201915b5050505050908060040160009054906101000a900460ff16905085565b60008173ffffffffffffffffffffffffffffffffffffffff16612021612ea0565b73ffffffffffffffffffffffffffffffffffffffff16149050919050565b6000600e60009054906101000a900460ff16905090565b6000612061826122a2565b80156120d257506002600481111561207557fe5b600560008473ffffffffffffffffffffffffffffffffffffffff1673ffffffffffffffffffffffffffffffffffffffff16815260200190815260200160002060040160009054906101000a900460ff1660048111156120d057fe5b145b9050919050565b6000600b60009054906101000a900460ff161515156120f757600080fd5b60001515612193576040517f08c379a00000000000000000000000000000000000000000000000000000000081526004018080602001828103825260268152602001807f556e737570706f72746564206d6574686f64202d20696e637265617365416c6c81526020017f6f77616e6365000000000000000000000000000000000000000000000000000081525060400191505060405180910390fd5b92915050565b6000600260009054906101000a900473ffffffffffffffffffffffffffffffffffffffff1673ffffffffffffffffffffffffffffffffffffffff168273ffffffffffffffffffffffffffffffffffffffff16149050919050565b6121fc33612320565b151561220757600080fd5b600b60009054906101000a900460ff16151561222257600080fd5b6000600b60006101000a81548160ff0219169083151502179055507f5db9ee0a495bf2e6ff9c91a7834c1ba4fdd244a5e8aa4e537bd38aeae4b073aa33604051808273ffffffffffffffffffffffffffffffffffffffff1673ffffffffffffffffffffffffffffffffffffffff16815260200191505060405180910390a1565b60006122ad82611e01565b156122bb576000905061231b565b6122c4826132b7565b156122d2576000905061231b565b6000600560008473ffffffffffffffffffffffffffffffffffffffff1673ffffffffffffffffffffffffffffffffffffffff168152602001908152602001600020600101541490505b919050565b600061233682600a61414f90919063ffffffff16565b9050919050565b6000600360009054906101000a900473ffffffffffffffffffffffffffffffffffffffff1673ffffffffffffffffffffffffffffffffffffffff168273ffffffffffffffffffffffffffffffffffffffff16149050919050565b6000600360009054906101000a900473ffffffffffffffffffffffffffffffffffffffff16905090565b6000600b60009054906101000a900460ff16905090565b6000600260048111156123e757fe5b600560008473ffffffffffffffffffffffffffffffffffffffff1673ffffffffffffffffffffffffffffffffffffffff16815260200190815260200160002060040160009054906101000a900460ff16600481111561244257fe5b149050919050565b612453336141e3565b565b6000600760008373ffffffffffffffffffffffffffffffffffffffff1673ffffffffffffffffffffffffffffffffffffffff168152602001908152602001600020549050919050565b6124a6612ec9565b15156124b157600080fd5b600073ffffffffffffffffffffffffffffffffffffffff166000809054906101000a900473ffffffffffffffffffffffffffffffffffffffff1673ffffffffffffffffffffffffffffffffffffffff167f8be0079c531659141344cd1fd0a4f28419497f9722a3daafe3b4186f6b6457e060405160405180910390a360008060006101000a81548173ffffffffffffffffffffffffffffffffffffffff021916908373ffffffffffffffffffffffffffffffffffffffff160217905550565b6000600460009054906101000a900473ffffffffffffffffffffffffffffffffffffffff1673ffffffffffffffffffffffffffffffffffffffff168273ffffffffffffffffffffffffffffffffffffffff16149050919050565b6000600460009054906101000a900473ffffffffffffffffffffffffffffffffffffffff16905090565b6125fc612ec9565b151561260757600080fd5b6001600481111561261457fe5b600560008473ffffffffffffffffffffffffffffffffffffffff1673ffffffffffffffffffffffffffffffffffffffff16815260200190815260200160002060040160009054906101000a900460ff16600481111561266f57fe5b14151561270a576040517f08c379a00000000000000000000000000000000000000000000000000000000081526004018080602001828103825260368152602001807f4120636f6e74612070726563697361206573746172206e6f2065737461646f2081526020017f416775617264616e646f2056616c696461c3a7c3a36f0000000000000000000081525060400191505060405180910390fd5b806040516020018082805190602001908083835b602083101515612743578051825260208201915060208101905060208303925061271e565b6001836020036101000a03801982511681845116808217855250505050505090500191505060405160208183030381529060405280519060200120600560008473ffffffffffffffffffffffffffffffffffffffff1673ffffffffffffffffffffffffffffffffffffffff168152602001908152602001600020600301604051602001808280546001816001161561010002031660029004801561281e5780601f106127fc57610100808354040283529182019161281e565b820191906000526020600020905b81548152906001019060200180831161280a575b5050915050604051602081830303815290604052805190602001201415156128d4576040517f08c379a00000000000000000000000000000000000000000000000000000000081526004018080602001828103825260288152602001807f4f206861736820726563656269646f20c3a9206469666572656e746520646f2081526020017f657370657261646f00000000000000000000000000000000000000000000000081525060400191505060405180910390fd5b6002600560008473ffffffffffffffffffffffffffffffffffffffff1673ffffffffffffffffffffffffffffffffffffffff16815260200190815260200160002060040160006101000a81548160ff0219169083600481111561293357fe5b02179055507f4dc67ae38b3a2998081034ecd07cef8b98f45b9229ac9f2ee1052707298a2ea982604051808273ffffffffffffffffffffffffffffffffffffffff1673ffffffffffffffffffffffffffffffffffffffff16815260200191505060405180910390a15050565b6129a833612320565b15156129b357600080fd5b6129bc8161423d565b50565b6000600360048111156129ce57fe5b600560008473ffffffffffffffffffffffffffffffffffffffff1673ffffffffffffffffffffffffffffffffffffffff16815260200190815260200160002060040160009054906101000a900460ff166004811115612a2957fe5b149050919050565b612a3a33612320565b1515612a4557600080fd5b600b60009054906101000a900460ff16151515612a6157600080fd5b6001600b60006101000a81548160ff0219169083151502179055507f62e78cea01bee320cd4e420270b5ea74000d11b0c9f74754ebdbfc544b05a25833604051808273ffffffffffffffffffffffffffffffffffffffff1673ffffffffffffffffffffffffffffffffffffffff16815260200191505060405180910390a1565b6000612aec82611e01565b15612afa5760009050612b44565b6000600560008473ffffffffffffffffffffffffffffffffffffffff1673ffffffffffffffffffffffffffffffffffffffff16815260200190815260200160002060010154141590505b919050565b6000600160009054906101000a900473ffffffffffffffffffffffffffffffffffffffff1673ffffffffffffffffffffffffffffffffffffffff168273ffffffffffffffffffffffffffffffffffffffff16149050919050565b6000600560008373ffffffffffffffffffffffffffffffffffffffff1673ffffffffffffffffffffffffffffffffffffffff168152602001908152602001600020600101549050919050565b600b60009054906101000a900460ff16151515612c0b57600080fd5b612c1433612b49565b1515612cd4576040517f08c379a00000000000000000000000000000000000000000000000000000000081526004018080602001828103825260548152602001807f41206c697175696461c3a7c3a36f2073c3b3206ec3a36f20706f64652073657281526020017f207265616c697a6164612070656c6f20656e64657265c3a76f2071756520737581526020017f626d657465752061207472616e7361c3a7c3a36f00000000000000000000000081525060600191505060405180910390fd5b7fa86b2b0d4d5df6e286898ddbf13f59ded7b39986717378878be628b878baa4b58282604051808060200180602001838103835285818151815260200191508051906020019080838360005b83811015612d3b578082015181840152602081019050612d20565b50505050905090810190601f168015612d685780820380516001836020036101000a031916815260200191505b50838103825284818151815260200191508051906020019080838360005b83811015612da1578082015181840152602081019050612d86565b50505050905090810190601f168015612dce5780820380516001836020036101000a031916815260200191505b5094505050505060405180910390a15050565b600b60009054906101000a900460ff16151515612dfd57600080fd5b6000612e098585613401565b90506000339050612e1c86868686614297565b6000612e2783612455565b1115612e4157612e408282612e3b85612455565b6149a4565b5b505050505050565b612e51612ec9565b1515612e5c57600080fd5b80600260006101000a81548173ffffffffffffffffffffffffffffffffffffffff021916908373ffffffffffffffffffffffffffffffffffffffff16021790555050565b60008060009054906101000a900473ffffffffffffffffffffffffffffffffffffffff16905090565b60008060009054906101000a900473ffffffffffffffffffffffffffffffffffffffff1673ffffffffffffffffffffffffffffffffffffffff163373ffffffffffffffffffffffffffffffffffffffff1614905090565b612f28612ec9565b1515612f3357600080fd5b80600360006101000a81548173ffffffffffffffffffffffffffffffffffffffff021916908373ffffffffffffffffffffffffffffffffffffffff16021790555050565b6060600d8054600181600116156101000203166002900480601f01602080910402602001604051908101604052809291908181526020018280546001816001161561010002031660029004801561300f5780601f10612fe45761010080835404028352916020019161300f565b820191906000526020600020905b815481529060010190602001808311612ff257829003601f168201915b5050505050905090565b600061302482611e01565b156130325760649050613090565b600560008373ffffffffffffffffffffffffffffffffffffffff1673ffffffffffffffffffffffffffffffffffffffff16815260200190815260200160002060040160009054906101000a900460ff16600481111561308d57fe5b90505b919050565b60008060006060600080600560008873ffffffffffffffffffffffffffffffffffffffff1673ffffffffffffffffffffffffffffffffffffffff16815260200190815260200160002060000154600560008973ffffffffffffffffffffffffffffffffffffffff1673ffffffffffffffffffffffffffffffffffffffff16815260200190815260200160002060010154600560008a73ffffffffffffffffffffffffffffffffffffffff1673ffffffffffffffffffffffffffffffffffffffff16815260200190815260200160002060020154600560008b73ffffffffffffffffffffffffffffffffffffffff1673ffffffffffffffffffffffffffffffffffffffff168152602001908152602001600020600301600560008c73ffffffffffffffffffffffffffffffffffffffff1673ffffffffffffffffffffffffffffffffffffffff16815260200190815260200160002060040160009054906101000a900460ff16600481111561320557fe5b8b828054600181600116156101000203166002900480601f01602080910402602001604051908101604052809291908181526020018280546001816001161561010002031660029004801561329b5780601f106132705761010080835404028352916020019161329b565b820191906000526020600020905b81548152906001019060200180831161327e57829003601f168201915b5050505050925095509550955095509550955091939550919395565b60006132c282611e01565b156132d0576000905061333c565b600060048111156132dd57fe5b600560008473ffffffffffffffffffffffffffffffffffffffff1673ffffffffffffffffffffffffffffffffffffffff16815260200190815260200160002060040160009054906101000a900460ff16600481111561333857fe5b1490505b919050565b6000600b60009054906101000a900460ff1615151561335f57600080fd5b600015156133fb576040517f08c379a00000000000000000000000000000000000000000000000000000000081526004018080602001828103825260268152602001807f556e737570706f72746564206d6574686f64202d206465637265617365416c6c81526020017f6f77616e6365000000000000000000000000000000000000000000000000000081525060400191505060405180910390fd5b92915050565b600060066000848152602001908152602001600020600083815260200190815260200160002060009054906101000a900473ffffffffffffffffffffffffffffffffffffffff16905092915050565b6000600b60009054906101000a900460ff1615151561346e57600080fd5b60003390508373ffffffffffffffffffffffffffffffffffffffff168173ffffffffffffffffffffffffffffffffffffffff161415151561353d576040517f08c379a00000000000000000000000000000000000000000000000000000000081526004018080602001828103825260288152602001807f4ec3a36f20706f6465207472616e73666572697220746f6b656e20706172612081526020017f7369206d65736d6f00000000000000000000000000000000000000000000000081525060400191505060405180910390fd5b6135468161233d565b156136545761355484613b87565b15156135ee576040517f08c379a000000000000000000000000000000000000000000000000000000000815260040180806020018281038252603d8152602001807f4f20656e64657265c3a76f206ec3a36f2070657274656e6365206120756d206381526020017f6c69656e7465206f75206ec3a36f20657374c3a12076616c696461646100000081525060400191505060405180910390fd5b6135f88484614b74565b7f17402d7e9c93e5755ce4b9008c259de5059b180920a13885be54ebaf02e8111961362285613b3b565b61362b86612ba3565b8560405180848152602001838152602001828152602001935050505060405180910390a1613961565b61365d84612570565b156137815761366b81612056565b151561372b576040517f08c379a00000000000000000000000000000000000000000000000000000000081526004018080602001828103825260498152602001807f4120636f6e746120646f20656e64657265c3a76f206ec3a36f2070657274656e81526020017f6365206120756d20666f726e656365646f72206f75206ec3a36f20657374c3a181526020017f2076616c6964616461000000000000000000000000000000000000000000000081525060600191505060405180910390fd5b6137358184614cca565b7f0a7caeac328e6212d649fc5f567f0b41d91ff5eb5fa01c647a7888b52f41af2561375f82613b3b565b84604051808381526020018281526020019250505060405180910390a1613960565b61378a81613b87565b1515613824576040517f08c379a000000000000000000000000000000000000000000000000000000000815260040180806020018281038252603d8152602001807f4f20656e64657265c3a76f206ec3a36f2070657274656e6365206120756d206381526020017f6c69656e7465206f75206ec3a36f20657374c3a12076616c696461646100000081525060400191505060405180910390fd5b61382d84612056565b15156138ed576040517f08c379a00000000000000000000000000000000000000000000000000000000081526004018080602001828103825260498152602001807f4120636f6e746120646f20656e64657265c3a76f206ec3a36f2070657274656e81526020017f6365206120756d20666f726e656365646f72206f75206ec3a36f20657374c3a181526020017f2076616c6964616461000000000000000000000000000000000000000000000081525060600191505060405180910390fd5b6138f83385856149a4565b7f675c75f5a4f583261cd1cca8d5fc670ce610221d8ec5cd2c74bb949f1cefd5b361392282613b3b565b61392b83612ba3565b61393487613b3b565b866040518085815260200184815260200183815260200182815260200194505050505060405180910390a15b5b600191505092915050565b613974612ec9565b151561397f57600080fd5b6003600560008373ffffffffffffffffffffffffffffffffffffffff1673ffffffffffffffffffffffffffffffffffffffff16815260200190815260200160002060040160006101000a81548160ff021916908360048111156139de57fe5b02179055507f03454a2dd5c664b443b971b8e477ea5926510d0e93159d57d93293b484c7444f81604051808273ffffffffffffffffffffffffffffffffffffffff1673ffffffffffffffffffffffffffffffffffffffff16815260200191505060405180910390a150565b6000600260009054906101000a900473ffffffffffffffffffffffffffffffffffffffff16905090565b613a7b612ec9565b1515613a8657600080fd5b80600160006101000a81548173ffffffffffffffffffffffffffffffffffffffff021916908373ffffffffffffffffffffffffffffffffffffffff16021790555050565b6000600480811115613ad857fe5b600560008473ffffffffffffffffffffffffffffffffffffffff1673ffffffffffffffffffffffffffffffffffffffff16815260200190815260200160002060040160009054906101000a900460ff166004811115613b3357fe5b149050919050565b6000600560008373ffffffffffffffffffffffffffffffffffffffff1673ffffffffffffffffffffffffffffffffffffffff168152602001908152602001600020600001549050919050565b6000613b9282612ae1565b8015613c03575060026004811115613ba657fe5b600560008473ffffffffffffffffffffffffffffffffffffffff1673ffffffffffffffffffffffffffffffffffffffff16815260200190815260200160002060040160009054906101000a900460ff166004811115613c0157fe5b145b9050919050565b613c12612ec9565b1515613c1d57600080fd5b80600460006101000a81548173ffffffffffffffffffffffffffffffffffffffff021916908373ffffffffffffffffffffffffffffffffffffffff16021790555050565b6000600b60009054906101000a900460ff16151515613c7f57600080fd5b613c90613c8a6125ca565b83613450565b9050919050565b6000600860008473ffffffffffffffffffffffffffffffffffffffff1673ffffffffffffffffffffffffffffffffffffffff16815260200190815260200160002060008373ffffffffffffffffffffffffffffffffffffffff1673ffffffffffffffffffffffffffffffffffffffff16815260200190815260200160002054905092915050565b600080600060606000806000613d348989613401565b9050613d3f81613095565b965096509650965096509650509295509295509295565b613d5e612ec9565b1515613d6957600080fd5b613d7281614e20565b50565b6000600160009054906101000a900473ffffffffffffffffffffffffffffffffffffffff16905090565b6000339050613dad816132b7565b1515613e47576040517f08c379a00000000000000000000000000000000000000000000000000000000081526004018080602001828103825260358152602001807f456e64657265c3a76f206ec3a36f20706f646520746572207369646f2063616481526020017f6173747261646f20616e746572696f726d656e7465000000000000000000000081525060400191505060405180910390fd5b60a06040519081016040528086815260200185815260200184815260200183815260200160016004811115613e7857fe5b815250600560008373ffffffffffffffffffffffffffffffffffffffff1673ffffffffffffffffffffffffffffffffffffffff1681526020019081526020016000206000820151816000015560208201518160010155604082015181600201556060820151816003019080519060200190613ef49291906150bc565b5060808201518160040160006101000a81548160ff02191690836004811115613f1957fe5b02179055509050506000841115613ffd576000613f368686613401565b9050613f41816132b7565b80613f515750613f5081613aca565b5b80613f615750613f60816129bf565b5b1515613ffb576040517f08c379a00000000000000000000000000000000000000000000000000000000081526004018080602001828103825260388152602001807f5375626372656469746f206ac3a120657374c3a1206173736f636961646f206181526020017f206f7574726f20656e64657265c3a76f2076c3a16c69646f000000000000000081525060400191505060405180910390fd5b505b8060066000878152602001908152602001600020600086815260200190815260200160002060006101000a81548173ffffffffffffffffffffffffffffffffffffffff021916908373ffffffffffffffffffffffffffffffffffffffff1602179055507f51a4cfac9b4f8651b6f6c57772ddeeb9d393c411ae3a2be4aa1394c106bd3e9a8186868686604051808673ffffffffffffffffffffffffffffffffffffffff1673ffffffffffffffffffffffffffffffffffffffff16815260200185815260200184815260200183815260200180602001828103825283818151815260200191508051906020019080838360005b8381101561410a5780820151818401526020810190506140ef565b50505050905090810190601f1680156141375780820380516001836020036101000a031916815260200191505b50965050505050505060405180910390a15050505050565b60008073ffffffffffffffffffffffffffffffffffffffff168273ffffffffffffffffffffffffffffffffffffffff161415151561418c57600080fd5b8260000160008373ffffffffffffffffffffffffffffffffffffffff1673ffffffffffffffffffffffffffffffffffffffff16815260200190815260200160002060009054906101000a900460ff16905092915050565b6141f781600a614f1a90919063ffffffff16565b8073ffffffffffffffffffffffffffffffffffffffff167fcd265ebaf09df2871cc7bd4133404a235ba12eff2041bb89d9c714a2621c7c7e60405160405180910390a250565b61425181600a614fc990919063ffffffff16565b8073ffffffffffffffffffffffffffffffffffffffff167f6719d08c1888103bea251a4ed56406bd0c3e69723c8a1686e017e7bbe159b6f860405160405180910390a250565b600033905060006142a88686613401565b90506142b381611e01565b15151561434e576040517f08c379a000000000000000000000000000000000000000000000000000000000815260040180806020018281038252602d8152602001807f4ec3a36f20706f64652074726f63617220656e64657265c3a76f20646520636f81526020017f6e7461207265736572766164610000000000000000000000000000000000000081525060400191505060405180910390fd5b614357816132b7565b1515156143f2576040517f08c379a000000000000000000000000000000000000000000000000000000000815260040180806020018281038252603c8152602001807f54656d2071756520686176657220756d20656e64657265c3a76f206173736f6381526020017f6961646f2061206573736520636e706a2f7375626372c3a96469746f0000000081525060400191505060405180910390fd5b6143fb826132b7565b1515614495576040517f08c379a00000000000000000000000000000000000000000000000000000000081526004018080602001828103825260258152602001807f4e6f766f20656e64657265c3a76f206ec3a36f20657374c3a120646973706f6e81526020017fc3ad76656c00000000000000000000000000000000000000000000000000000081525060400191505060405180910390fd5b8073ffffffffffffffffffffffffffffffffffffffff168273ffffffffffffffffffffffffffffffffffffffff161415151561455f576040517f08c379a000000000000000000000000000000000000000000000000000000000815260040180806020018281038252602d8152602001807f4f20656e64657265c3a76f206e6f766f2064657665207365722064696665726581526020017f6e746520646f20616e7469676f0000000000000000000000000000000000000081525060400191505060405180910390fd5b85600560008373ffffffffffffffffffffffffffffffffffffffff1673ffffffffffffffffffffffffffffffffffffffff168152602001908152602001600020600001541480156145f1575084600560008373ffffffffffffffffffffffffffffffffffffffff1673ffffffffffffffffffffffffffffffffffffffff16815260200190815260200160002060010154145b151561468b576040517f08c379a000000000000000000000000000000000000000000000000000000000815260040180806020018281038252602b8152602001807f4461646f7320696e636f6e73697374656e74657320646520636e706a206f752081526020017f7375626372c3a96469746f00000000000000000000000000000000000000000081525060400191505060405180910390fd5b60a060405190810160405280878152602001868152602001858152602001848152602001600160048111156146bc57fe5b815250600560008473ffffffffffffffffffffffffffffffffffffffff1673ffffffffffffffffffffffffffffffffffffffff16815260200190815260200160002060008201518160000155602082015181600101556040820151816002015560608201518160030190805190602001906147389291906150bc565b5060808201518160040160006101000a81548160ff0219169083600481111561475d57fe5b021790555090505060a060405190810160405280600081526020016000815260200160008152602001602060405190810160405280600081525081526020016004808111156147a857fe5b815250600560008373ffffffffffffffffffffffffffffffffffffffff1673ffffffffffffffffffffffffffffffffffffffff16815260200190815260200160002060008201518160000155602082015181600101556040820151816002015560608201518160030190805190602001906148249291906150bc565b5060808201518160040160006101000a81548160ff0219169083600481111561484957fe5b02179055509050508160066000888152602001908152602001600020600087815260200190815260200160002060006101000a81548173ffffffffffffffffffffffffffffffffffffffff021916908373ffffffffffffffffffffffffffffffffffffffff1602179055507f835c4d8f9bdbdf9782795d8d402350614edd9b8ffa70840bccafd38772ff1c528287878787604051808673ffffffffffffffffffffffffffffffffffffffff1673ffffffffffffffffffffffffffffffffffffffff16815260200185815260200184815260200183815260200180602001828103825283818151815260200191508051906020019080838360005b8381101561495e578082015181840152602081019050614943565b50505050905090810190601f16801561498b5780820380516001836020036101000a031916815260200191505b50965050505050505060405180910390a1505050505050565b600073ffffffffffffffffffffffffffffffffffffffff168273ffffffffffffffffffffffffffffffffffffffff16141515156149e057600080fd5b614a3281600760008673ffffffffffffffffffffffffffffffffffffffff1673ffffffffffffffffffffffffffffffffffffffff1681526020019081526020016000205461507990919063ffffffff16565b600760008573ffffffffffffffffffffffffffffffffffffffff1673ffffffffffffffffffffffffffffffffffffffff16815260200190815260200160002081905550614ac781600760008573ffffffffffffffffffffffffffffffffffffffff1673ffffffffffffffffffffffffffffffffffffffff1681526020019081526020016000205461509b90919063ffffffff16565b600760008473ffffffffffffffffffffffffffffffffffffffff1673ffffffffffffffffffffffffffffffffffffffff168152602001908152602001600020819055508173ffffffffffffffffffffffffffffffffffffffff168373ffffffffffffffffffffffffffffffffffffffff167fddf252ad1be2c89b69c2b068fc378daa952ba7f163c4a11628f55a4df523b3ef836040518082815260200191505060405180910390a3505050565b600073ffffffffffffffffffffffffffffffffffffffff168273ffffffffffffffffffffffffffffffffffffffff1614151515614bb057600080fd5b614bc58160095461509b90919063ffffffff16565b600981905550614c1d81600760008573ffffffffffffffffffffffffffffffffffffffff1673ffffffffffffffffffffffffffffffffffffffff1681526020019081526020016000205461509b90919063ffffffff16565b600760008473ffffffffffffffffffffffffffffffffffffffff1673ffffffffffffffffffffffffffffffffffffffff168152602001908152602001600020819055508173ffffffffffffffffffffffffffffffffffffffff16600073ffffffffffffffffffffffffffffffffffffffff167fddf252ad1be2c89b69c2b068fc378daa952ba7f163c4a11628f55a4df523b3ef836040518082815260200191505060405180910390a35050565b600073ffffffffffffffffffffffffffffffffffffffff168273ffffffffffffffffffffffffffffffffffffffff1614151515614d0657600080fd5b614d1b8160095461507990919063ffffffff16565b600981905550614d7381600760008573ffffffffffffffffffffffffffffffffffffffff1673ffffffffffffffffffffffffffffffffffffffff1681526020019081526020016000205461507990919063ffffffff16565b600760008473ffffffffffffffffffffffffffffffffffffffff1673ffffffffffffffffffffffffffffffffffffffff16815260200190815260200160002081905550600073ffffffffffffffffffffffffffffffffffffffff168273ffffffffffffffffffffffffffffffffffffffff167fddf252ad1be2c89b69c2b068fc378daa952ba7f163c4a11628f55a4df523b3ef836040518082815260200191505060405180910390a35050565b600073ffffffffffffffffffffffffffffffffffffffff168173ffffffffffffffffffffffffffffffffffffffff1614151515614e5c57600080fd5b8073ffffffffffffffffffffffffffffffffffffffff166000809054906101000a900473ffffffffffffffffffffffffffffffffffffffff1673ffffffffffffffffffffffffffffffffffffffff167f8be0079c531659141344cd1fd0a4f28419497f9722a3daafe3b4186f6b6457e060405160405180910390a3806000806101000a81548173ffffffffffffffffffffffffffffffffffffffff021916908373ffffffffffffffffffffffffffffffffffffffff16021790555050565b600073ffffffffffffffffffffffffffffffffffffffff168173ffffffffffffffffffffffffffffffffffffffff1614151515614f5657600080fd5b614f60828261414f565b1515614f6b57600080fd5b60008260000160008373ffffffffffffffffffffffffffffffffffffffff1673ffffffffffffffffffffffffffffffffffffffff16815260200190815260200160002060006101000a81548160ff0219169083151502179055505050565b600073ffffffffffffffffffffffffffffffffffffffff168173ffffffffffffffffffffffffffffffffffffffff161415151561500557600080fd5b61500f828261414f565b15151561501b57600080fd5b60018260000160008373ffffffffffffffffffffffffffffffffffffffff1673ffffffffffffffffffffffffffffffffffffffff16815260200190815260200160002060006101000a81548160ff0219169083151502179055505050565b600082821115151561508a57600080fd5b600082840390508091505092915050565b60008082840190508381101515156150b257600080fd5b8091505092915050565b828054600181600116156101000203166002900490600052602060002090601f016020900481019282601f106150fd57805160ff191683800117855561512b565b8280016001018555821561512b579182015b8281111561512a57825182559160200191906001019061510f565b5b509050615138919061513c565b5090565b61515e91905b8082111561515a576000816000905550600101615142565b5090565b9056fea165627a7a723058203a8e896f467b56ee2886456f1b6fee7ed8041c983340b40bdf5b9080453162c00029",
  "source": "pragma solidity ^0.5.0;\r\n\r\nimport \"openzeppelin-solidity/contracts/token/ERC20/ERC20Pausable.sol\";\r\nimport \"openzeppelin-solidity/contracts/token/ERC20/ERC20Detailed.sol\";\r\nimport \"./BNDESRegistry.sol\";\r\n\r\n\r\ncontract BNDESToken is BNDESRegistry, ERC20Pausable, ERC20Detailed(\"BNDESToken\", \"BND\", 2) {\r\n\r\n    uint private version = 20190517;\r\n\r\n    event BNDESTokenDisbursement(uint cnpj, uint idFinancialSupportAgreement, uint256 value);\r\n    event BNDESTokenTransfer(uint fromCnpj, uint fromIdFinancialSupportAgreement, uint toCnpj, uint256 value);\r\n    event BNDESTokenRedemption(uint cnpj, uint256 value);\r\n    event BNDESTokenRedemptionSettlement(string redemptionTransactionHash, string receiptHash);\r\n\r\n\r\n    function getVersion() view public returns (uint) {\r\n        return version;\r\n    }\r\n\r\n\r\n    function transfer (address to, uint256 value) public whenNotPaused returns (bool) {\r\n\r\n        address from = msg.sender;\r\n\r\n        require(from != to, \"No pode transferir token para si mesmo\");\r\n\r\n        if (isResponsibleForDisbursement(from)) {\r\n\r\n            require(isValidatedClient(to), \"O endereo no pertence a um cliente ou no est validada\");\r\n\r\n            _mint(to, value);\r\n\r\n            emit BNDESTokenDisbursement(getCNPJ(to), getIdLegalFinancialAgreement(to), value);\r\n\r\n        } else { \r\n\r\n            if (isRedemptionAddress(to)) { \r\n\r\n                require(isValidatedSupplier(from), \"A conta do endereo no pertence a um fornecedor ou no est validada\");\r\n\r\n                _burn(from, value);\r\n\r\n                emit BNDESTokenRedemption(getCNPJ(from), value);\r\n\r\n            } else {\r\n\r\n                // Se nem from nem to so o Banco, eh transferencia normal\r\n\r\n                require(isValidatedClient(from), \"O endereo no pertence a um cliente ou no est validada\");\r\n                require(isValidatedSupplier(to), \"A conta do endereo no pertence a um fornecedor ou no est validada\");\r\n\r\n                _transfer(msg.sender, to, value);\r\n\r\n                emit BNDESTokenTransfer(getCNPJ(from), getIdLegalFinancialAgreement(from), getCNPJ(to), value);\r\n  \r\n            }\r\n        }\r\n\r\n        return true;\r\n    }\r\n\r\n\r\n    function redeem (uint256 value) public whenNotPaused returns (bool) {\r\n        return transfer(getRedemptionAddress(), value);\r\n    }\r\n\r\n\r\n    function notifyRedemptionSettlement(string memory redemptionTransactionHash, string memory receiptHash) \r\n        public whenNotPaused {\r\n        require (isResponsibleForSettlement(msg.sender), \"A liquidao s no pode ser realizada pelo endereo que submeteu a transao\"); \r\n        emit BNDESTokenRedemptionSettlement(redemptionTransactionHash, receiptHash);\r\n    }\r\n\r\n\r\n    function registryLegalEntity(uint cnpj, uint idFinancialSupportAgreement, uint salic, string memory idProofHash) \r\n        public whenNotPaused { \r\n        super.registryLegalEntity( cnpj,  idFinancialSupportAgreement,  salic, idProofHash);\r\n    }\r\n\r\n    function changeAccountLegalEntity(uint cnpj, uint idFinancialSupportAgreement, uint salic, string memory idProofHash) \r\n        public whenNotPaused {\r\n        \r\n        address oldAddr = getBlockchainAccount(cnpj, idFinancialSupportAgreement);\r\n        address newAddr = msg.sender;\r\n        \r\n        super.changeAccountLegalEntity(cnpj, idFinancialSupportAgreement, salic, idProofHash);\r\n\r\n        // Se h saldo no enderecoAntigo, precisa transferir\r\n        if (balanceOf(oldAddr) > 0) {\r\n            _transfer(oldAddr, newAddr, balanceOf(oldAddr));\r\n        }\r\n\r\n    }\r\n\r\n    //Unsupported methods\r\n    function transferFrom(address from, address to, uint256 value) public whenNotPaused returns (bool) {\r\n        require(false, \"Unsupported method - transferFrom\");\r\n    }\r\n\r\n    function approve(address spender, uint256 value) public whenNotPaused returns (bool) {\r\n        require(false, \"Unsupported method - approve\");\r\n    }\r\n\r\n    function increaseAllowance(address spender, uint addedValue) public whenNotPaused returns (bool success) {\r\n        require(false, \"Unsupported method - increaseAllowance\");\r\n    }\r\n\r\n    function decreaseAllowance(address spender, uint subtractedValue) public whenNotPaused returns (bool success) {\r\n        require(false, \"Unsupported method - decreaseAllowance\");\r\n    }\r\n\r\n\r\n\r\n}",
  "sourcePath": "D:/Workspace/bndestoken/Back-Blockchain/contracts/BNDESToken.sol",
  "compiler": {
    "name": "solc",
    "version": "0.5.0+commit.1d4f565a.Emscripten.clang"
  },
  "schemaVersion": "3.0.5",
  "updatedAt": "2019-05-20T18:59:15.464Z",
  "devdoc": {
    "methods": {
      "allowance(address,address)": {
        "details": "Function to check the amount of tokens that an owner allowed to a spender.",
        "params": {
          "owner": "address The address which owns the funds.",
          "spender": "address The address which will spend the funds."
        },
        "return": "A uint256 specifying the amount of tokens still available for the spender."
      },
      "balanceOf(address)": {
        "details": "Gets the balance of the specified address.",
        "params": {
          "owner": "The address to query the balance of."
        },
        "return": "An uint256 representing the amount owned by the passed address."
      },
      "decimals()": {
        "return": "the number of decimals of the token."
      },
      "isOwner()": {
        "return": "true if `msg.sender` is the owner of the contract."
      },
      "name()": {
        "return": "the name of the token."
      },
      "owner()": {
        "return": "the address of the owner."
      },
      "pause()": {
        "details": "called by the owner to pause, triggers stopped state"
      },
      "paused()": {
        "return": "true if the contract is paused, false otherwise."
      },
      "renounceOwnership()": {
        "details": "Allows the current owner to relinquish control of the contract."
      },
      "symbol()": {
        "return": "the symbol of the token."
      },
      "totalSupply()": {
        "details": "Total number of tokens in existence"
      },
      "transferOwnership(address)": {
        "details": "Allows the current owner to transfer control of the contract to a newOwner.",
        "params": {
          "newOwner": "The address to transfer ownership to."
        }
      },
      "unpause()": {
        "details": "called by the owner to unpause, returns to normal state"
      }
    }
  },
  "userdoc": {
    "methods": {
      "renounceOwnership()": {
        "notice": "Renouncing to ownership will leave the contract without an owner. It will not be possible to call the functions with the `onlyOwner` modifier anymore."
      }
    }
  }
}