{
  "contractName": "BNDESRegistry",
  "abi": [
    {
      "constant": true,
      "inputs": [
        {
          "name": "",
          "type": "address"
        }
      ],
      "name": "legalEntitiesInfo",
      "outputs": [
        {
          "name": "cnpj",
          "type": "uint256"
        },
        {
          "name": "idFinancialSupportAgreement",
          "type": "uint256"
        },
        {
          "name": "salic",
          "type": "uint256"
        },
        {
          "name": "idProofHash",
          "type": "string"
        },
        {
          "name": "state",
          "type": "uint8"
        }
      ],
      "payable": false,
      "stateMutability": "view",
      "type": "function"
    },
    {
      "constant": false,
      "inputs": [],
      "name": "renounceOwnership",
      "outputs": [],
      "payable": false,
      "stateMutability": "nonpayable",
      "type": "function"
    },
    {
      "constant": true,
      "inputs": [],
      "name": "owner",
      "outputs": [
        {
          "name": "",
          "type": "address"
        }
      ],
      "payable": false,
      "stateMutability": "view",
      "type": "function"
    },
    {
      "constant": false,
      "inputs": [
        {
          "name": "newOwner",
          "type": "address"
        }
      ],
      "name": "transferOwnership",
      "outputs": [],
      "payable": false,
      "stateMutability": "nonpayable",
      "type": "function"
    },
    {
      "inputs": [],
      "payable": false,
      "stateMutability": "nonpayable",
      "type": "constructor"
    },
    {
      "anonymous": false,
      "inputs": [
        {
          "indexed": false,
          "name": "addr",
          "type": "address"
        },
        {
          "indexed": false,
          "name": "cnpj",
          "type": "uint256"
        },
        {
          "indexed": false,
          "name": "idFinancialSupportAgreement",
          "type": "uint256"
        },
        {
          "indexed": false,
          "name": "salic",
          "type": "uint256"
        },
        {
          "indexed": false,
          "name": "idProofHash",
          "type": "string"
        }
      ],
      "name": "AccountRegistration",
      "type": "event"
    },
    {
      "anonymous": false,
      "inputs": [
        {
          "indexed": false,
          "name": "addr",
          "type": "address"
        },
        {
          "indexed": false,
          "name": "cnpj",
          "type": "uint256"
        },
        {
          "indexed": false,
          "name": "idFinancialSupportAgreement",
          "type": "uint256"
        },
        {
          "indexed": false,
          "name": "salic",
          "type": "uint256"
        },
        {
          "indexed": false,
          "name": "idProofHash",
          "type": "string"
        }
      ],
      "name": "AccountChange",
      "type": "event"
    },
    {
      "anonymous": false,
      "inputs": [
        {
          "indexed": false,
          "name": "addr",
          "type": "address"
        }
      ],
      "name": "AccountValidation",
      "type": "event"
    },
    {
      "anonymous": false,
      "inputs": [
        {
          "indexed": false,
          "name": "addr",
          "type": "address"
        }
      ],
      "name": "AccountInvalidation",
      "type": "event"
    },
    {
      "anonymous": false,
      "inputs": [
        {
          "indexed": true,
          "name": "previousOwner",
          "type": "address"
        },
        {
          "indexed": true,
          "name": "newOwner",
          "type": "address"
        }
      ],
      "name": "OwnershipTransferred",
      "type": "event"
    },
    {
      "constant": false,
      "inputs": [
        {
          "name": "cnpj",
          "type": "uint256"
        },
        {
          "name": "idFinancialSupportAgreement",
          "type": "uint256"
        },
        {
          "name": "salic",
          "type": "uint256"
        },
        {
          "name": "idProofHash",
          "type": "string"
        }
      ],
      "name": "registryLegalEntity",
      "outputs": [],
      "payable": false,
      "stateMutability": "nonpayable",
      "type": "function"
    },
    {
      "constant": false,
      "inputs": [
        {
          "name": "cnpj",
          "type": "uint256"
        },
        {
          "name": "idFinancialSupportAgreement",
          "type": "uint256"
        },
        {
          "name": "salic",
          "type": "uint256"
        },
        {
          "name": "idProofHash",
          "type": "string"
        }
      ],
      "name": "changeAccountLegalEntity",
      "outputs": [],
      "payable": false,
      "stateMutability": "nonpayable",
      "type": "function"
    },
    {
      "constant": false,
      "inputs": [
        {
          "name": "addr",
          "type": "address"
        },
        {
          "name": "idProofHash",
          "type": "string"
        }
      ],
      "name": "validateRegistryLegalEntity",
      "outputs": [],
      "payable": false,
      "stateMutability": "nonpayable",
      "type": "function"
    },
    {
      "constant": false,
      "inputs": [
        {
          "name": "addr",
          "type": "address"
        }
      ],
      "name": "invalidateRegistryLegalEntity",
      "outputs": [],
      "payable": false,
      "stateMutability": "nonpayable",
      "type": "function"
    },
    {
      "constant": false,
      "inputs": [
        {
          "name": "rs",
          "type": "address"
        }
      ],
      "name": "setResponsibleForSettlement",
      "outputs": [],
      "payable": false,
      "stateMutability": "nonpayable",
      "type": "function"
    },
    {
      "constant": false,
      "inputs": [
        {
          "name": "rs",
          "type": "address"
        }
      ],
      "name": "setResponsibleForRegistryValidation",
      "outputs": [],
      "payable": false,
      "stateMutability": "nonpayable",
      "type": "function"
    },
    {
      "constant": false,
      "inputs": [
        {
          "name": "rs",
          "type": "address"
        }
      ],
      "name": "setResponsibleForDisbursement",
      "outputs": [],
      "payable": false,
      "stateMutability": "nonpayable",
      "type": "function"
    },
    {
      "constant": false,
      "inputs": [
        {
          "name": "rs",
          "type": "address"
        }
      ],
      "name": "setRedemptionAddress",
      "outputs": [],
      "payable": false,
      "stateMutability": "nonpayable",
      "type": "function"
    },
    {
      "constant": true,
      "inputs": [
        {
          "name": "addr",
          "type": "address"
        }
      ],
      "name": "isResponsibleForSettlement",
      "outputs": [
        {
          "name": "",
          "type": "bool"
        }
      ],
      "payable": false,
      "stateMutability": "view",
      "type": "function"
    },
    {
      "constant": true,
      "inputs": [
        {
          "name": "addr",
          "type": "address"
        }
      ],
      "name": "isResponsibleForRegistryValidation",
      "outputs": [
        {
          "name": "",
          "type": "bool"
        }
      ],
      "payable": false,
      "stateMutability": "view",
      "type": "function"
    },
    {
      "constant": true,
      "inputs": [
        {
          "name": "addr",
          "type": "address"
        }
      ],
      "name": "isResponsibleForDisbursement",
      "outputs": [
        {
          "name": "",
          "type": "bool"
        }
      ],
      "payable": false,
      "stateMutability": "view",
      "type": "function"
    },
    {
      "constant": true,
      "inputs": [
        {
          "name": "addr",
          "type": "address"
        }
      ],
      "name": "isRedemptionAddress",
      "outputs": [
        {
          "name": "",
          "type": "bool"
        }
      ],
      "payable": false,
      "stateMutability": "view",
      "type": "function"
    },
    {
      "constant": true,
      "inputs": [
        {
          "name": "addr",
          "type": "address"
        }
      ],
      "name": "isReservedAccount",
      "outputs": [
        {
          "name": "",
          "type": "bool"
        }
      ],
      "payable": false,
      "stateMutability": "view",
      "type": "function"
    },
    {
      "constant": true,
      "inputs": [],
      "name": "isOwner",
      "outputs": [
        {
          "name": "",
          "type": "bool"
        }
      ],
      "payable": false,
      "stateMutability": "view",
      "type": "function"
    },
    {
      "constant": true,
      "inputs": [
        {
          "name": "addr",
          "type": "address"
        }
      ],
      "name": "isOwner",
      "outputs": [
        {
          "name": "",
          "type": "bool"
        }
      ],
      "payable": false,
      "stateMutability": "view",
      "type": "function"
    },
    {
      "constant": true,
      "inputs": [
        {
          "name": "addr",
          "type": "address"
        }
      ],
      "name": "isSupplier",
      "outputs": [
        {
          "name": "",
          "type": "bool"
        }
      ],
      "payable": false,
      "stateMutability": "view",
      "type": "function"
    },
    {
      "constant": true,
      "inputs": [
        {
          "name": "addr",
          "type": "address"
        }
      ],
      "name": "isValidatedSupplier",
      "outputs": [
        {
          "name": "",
          "type": "bool"
        }
      ],
      "payable": false,
      "stateMutability": "view",
      "type": "function"
    },
    {
      "constant": true,
      "inputs": [
        {
          "name": "addr",
          "type": "address"
        }
      ],
      "name": "isClient",
      "outputs": [
        {
          "name": "",
          "type": "bool"
        }
      ],
      "payable": false,
      "stateMutability": "view",
      "type": "function"
    },
    {
      "constant": true,
      "inputs": [
        {
          "name": "addr",
          "type": "address"
        }
      ],
      "name": "isValidatedClient",
      "outputs": [
        {
          "name": "",
          "type": "bool"
        }
      ],
      "payable": false,
      "stateMutability": "view",
      "type": "function"
    },
    {
      "constant": true,
      "inputs": [
        {
          "name": "addr",
          "type": "address"
        }
      ],
      "name": "isAvailableAccount",
      "outputs": [
        {
          "name": "",
          "type": "bool"
        }
      ],
      "payable": false,
      "stateMutability": "view",
      "type": "function"
    },
    {
      "constant": true,
      "inputs": [
        {
          "name": "addr",
          "type": "address"
        }
      ],
      "name": "isWaitingValidationAccount",
      "outputs": [
        {
          "name": "",
          "type": "bool"
        }
      ],
      "payable": false,
      "stateMutability": "view",
      "type": "function"
    },
    {
      "constant": true,
      "inputs": [
        {
          "name": "addr",
          "type": "address"
        }
      ],
      "name": "isValidatedAccount",
      "outputs": [
        {
          "name": "",
          "type": "bool"
        }
      ],
      "payable": false,
      "stateMutability": "view",
      "type": "function"
    },
    {
      "constant": true,
      "inputs": [
        {
          "name": "addr",
          "type": "address"
        }
      ],
      "name": "isInvalidatedByValidatorAccount",
      "outputs": [
        {
          "name": "",
          "type": "bool"
        }
      ],
      "payable": false,
      "stateMutability": "view",
      "type": "function"
    },
    {
      "constant": true,
      "inputs": [
        {
          "name": "addr",
          "type": "address"
        }
      ],
      "name": "isInvalidatedByChangeAccount",
      "outputs": [
        {
          "name": "",
          "type": "bool"
        }
      ],
      "payable": false,
      "stateMutability": "view",
      "type": "function"
    },
    {
      "constant": true,
      "inputs": [],
      "name": "getResponsibleForSettlement",
      "outputs": [
        {
          "name": "",
          "type": "address"
        }
      ],
      "payable": false,
      "stateMutability": "view",
      "type": "function"
    },
    {
      "constant": true,
      "inputs": [],
      "name": "getResponsibleForRegistryValidation",
      "outputs": [
        {
          "name": "",
          "type": "address"
        }
      ],
      "payable": false,
      "stateMutability": "view",
      "type": "function"
    },
    {
      "constant": true,
      "inputs": [],
      "name": "getResponsibleForDisbursement",
      "outputs": [
        {
          "name": "",
          "type": "address"
        }
      ],
      "payable": false,
      "stateMutability": "view",
      "type": "function"
    },
    {
      "constant": true,
      "inputs": [],
      "name": "getRedemptionAddress",
      "outputs": [
        {
          "name": "",
          "type": "address"
        }
      ],
      "payable": false,
      "stateMutability": "view",
      "type": "function"
    },
    {
      "constant": true,
      "inputs": [
        {
          "name": "addr",
          "type": "address"
        }
      ],
      "name": "getCNPJ",
      "outputs": [
        {
          "name": "",
          "type": "uint256"
        }
      ],
      "payable": false,
      "stateMutability": "view",
      "type": "function"
    },
    {
      "constant": true,
      "inputs": [
        {
          "name": "addr",
          "type": "address"
        }
      ],
      "name": "getIdLegalFinancialAgreement",
      "outputs": [
        {
          "name": "",
          "type": "uint256"
        }
      ],
      "payable": false,
      "stateMutability": "view",
      "type": "function"
    },
    {
      "constant": true,
      "inputs": [
        {
          "name": "addr",
          "type": "address"
        }
      ],
      "name": "getLegalEntityInfo",
      "outputs": [
        {
          "name": "",
          "type": "uint256"
        },
        {
          "name": "",
          "type": "uint256"
        },
        {
          "name": "",
          "type": "uint256"
        },
        {
          "name": "",
          "type": "string"
        },
        {
          "name": "",
          "type": "uint256"
        },
        {
          "name": "",
          "type": "address"
        }
      ],
      "payable": false,
      "stateMutability": "view",
      "type": "function"
    },
    {
      "constant": true,
      "inputs": [
        {
          "name": "cnpj",
          "type": "uint256"
        },
        {
          "name": "idFinancialSupportAgreement",
          "type": "uint256"
        }
      ],
      "name": "getBlockchainAccount",
      "outputs": [
        {
          "name": "",
          "type": "address"
        }
      ],
      "payable": false,
      "stateMutability": "view",
      "type": "function"
    },
    {
      "constant": true,
      "inputs": [
        {
          "name": "cnpj",
          "type": "uint256"
        },
        {
          "name": "idFinancialSupportAgreement",
          "type": "uint256"
        }
      ],
      "name": "getLegalEntityInfoByCNPJ",
      "outputs": [
        {
          "name": "",
          "type": "uint256"
        },
        {
          "name": "",
          "type": "uint256"
        },
        {
          "name": "",
          "type": "uint256"
        },
        {
          "name": "",
          "type": "string"
        },
        {
          "name": "",
          "type": "uint256"
        },
        {
          "name": "",
          "type": "address"
        }
      ],
      "payable": false,
      "stateMutability": "view",
      "type": "function"
    },
    {
      "constant": true,
      "inputs": [
        {
          "name": "addr",
          "type": "address"
        }
      ],
      "name": "getAccountState",
      "outputs": [
        {
          "name": "",
          "type": "int256"
        }
      ],
      "payable": false,
      "stateMutability": "view",
      "type": "function"
    }
  ],
  "bytecode": "0x608060405234801561001057600080fd5b50336000806101000a81548173ffffffffffffffffffffffffffffffffffffffff021916908373ffffffffffffffffffffffffffffffffffffffff1602179055506000809054906101000a900473ffffffffffffffffffffffffffffffffffffffff1673ffffffffffffffffffffffffffffffffffffffff16600073ffffffffffffffffffffffffffffffffffffffff167f8be0079c531659141344cd1fd0a4f28419497f9722a3daafe3b4186f6b6457e060405160405180910390a333600160006101000a81548173ffffffffffffffffffffffffffffffffffffffff021916908373ffffffffffffffffffffffffffffffffffffffff16021790555033600260006101000a81548173ffffffffffffffffffffffffffffffffffffffff021916908373ffffffffffffffffffffffffffffffffffffffff16021790555033600360006101000a81548173ffffffffffffffffffffffffffffffffffffffff021916908373ffffffffffffffffffffffffffffffffffffffff16021790555033600460006101000a81548173ffffffffffffffffffffffffffffffffffffffff021916908373ffffffffffffffffffffffffffffffffffffffff1602179055506132cf806101e06000396000f3fe6080604052600436106101d8576000357c0100000000000000000000000000000000000000000000000000000000900463ffffffff1680630c4471bd146101dd5780630cc79a5014610246578063184c89311461032c57806326ff4794146103955780632f54bf6e14610489578063348da3f2146104f25780633abba2ef1461055b57806346336542146105c45780634add31101461062d57806357cdcb3e146106965780636426a116146106ed578063715018a6146107565780637943653d1461076d57806379b8369e146107d6578063803b8a421461082d578063845283de1461091557806384b7964f1461097e57806385fecf9b146109e7578063876c6e9b14610a505780638bfbc59814610ab55780638cbd258f14610b9b5780638da5cb5b14610bec5780638f32d59b14610c4357806390e42c7e14610c725780639ee2735b14610cc35780639f5e1ddd14610d28578063a3d8845314610e41578063a4f335d314610eaa578063b41842b914610f2f578063b7196f3714610f80578063b7404ff514610fd7578063b8e7c21d14611028578063be49b78d14611091578063c01ed210146110f6578063cc7e1b9a1461115f578063e512b1ff146111b0578063f2fde38b146112bd578063f4ec73671461130e575b600080fd5b3480156101e957600080fd5b5061022c6004803603602081101561020057600080fd5b81019080803573ffffffffffffffffffffffffffffffffffffffff169060200190929190505050611365565b604051808215151515815260200191505060405180910390f35b34801561025257600080fd5b5061032a6004803603608081101561026957600080fd5b81019080803590602001909291908035906020019092919080359060200190929190803590602001906401000000008111156102a457600080fd5b8201836020820111156102b657600080fd5b803590602001918460018302840111640100000000831117156102d857600080fd5b91908080601f016020809104026020016040519081016040528093929190818152602001838380828437600081840152601f19601f8201169050808301925050505050505091929192905050506113d7565b005b34801561033857600080fd5b5061037b6004803603602081101561034f57600080fd5b81019080803573ffffffffffffffffffffffffffffffffffffffff16906020019092919050505061178d565b604051808215151515815260200191505060405180910390f35b3480156103a157600080fd5b506103e4600480360360208110156103b857600080fd5b81019080803573ffffffffffffffffffffffffffffffffffffffff1690602001909291905050506117f0565b604051808681526020018581526020018481526020018060200183600481111561040a57fe5b60ff168152602001828103825284818151815260200191508051906020019080838360005b8381101561044a57808201518184015260208101905061042f565b50505050905090810190601f1680156104775780820380516001836020036101000a031916815260200191505b50965050505050505060405180910390f35b34801561049557600080fd5b506104d8600480360360208110156104ac57600080fd5b81019080803573ffffffffffffffffffffffffffffffffffffffff1690602001909291905050506118cb565b604051808215151515815260200191505060405180910390f35b3480156104fe57600080fd5b506105416004803603602081101561051557600080fd5b81019080803573ffffffffffffffffffffffffffffffffffffffff16906020019092919050505061190a565b604051808215151515815260200191505060405180910390f35b34801561056757600080fd5b506105aa6004803603602081101561057e57600080fd5b81019080803573ffffffffffffffffffffffffffffffffffffffff16906020019092919050505061198d565b604051808215151515815260200191505060405180910390f35b3480156105d057600080fd5b50610613600480360360208110156105e757600080fd5b81019080803573ffffffffffffffffffffffffffffffffffffffff1690602001909291905050506119e7565b604051808215151515815260200191505060405180910390f35b34801561063957600080fd5b5061067c6004803603602081101561065057600080fd5b81019080803573ffffffffffffffffffffffffffffffffffffffff169060200190929190505050611a65565b604051808215151515815260200191505060405180910390f35b3480156106a257600080fd5b506106ab611abf565b604051808273ffffffffffffffffffffffffffffffffffffffff1673ffffffffffffffffffffffffffffffffffffffff16815260200191505060405180910390f35b3480156106f957600080fd5b5061073c6004803603602081101561071057600080fd5b81019080803573ffffffffffffffffffffffffffffffffffffffff169060200190929190505050611ae9565b604051808215151515815260200191505060405180910390f35b34801561076257600080fd5b5061076b611b5b565b005b34801561077957600080fd5b506107bc6004803603602081101561079057600080fd5b81019080803573ffffffffffffffffffffffffffffffffffffffff169060200190929190505050611c2d565b604051808215151515815260200191505060405180910390f35b3480156107e257600080fd5b506107eb611c87565b604051808273ffffffffffffffffffffffffffffffffffffffff1673ffffffffffffffffffffffffffffffffffffffff16815260200191505060405180910390f35b34801561083957600080fd5b506109136004803603604081101561085057600080fd5b81019080803573ffffffffffffffffffffffffffffffffffffffff1690602001909291908035906020019064010000000081111561088d57600080fd5b82018360208201111561089f57600080fd5b803590602001918460018302840111640100000000831117156108c157600080fd5b91908080601f016020809104026020016040519081016040528093929190818152602001838380828437600081840152601f19601f820116905080830192505050505050509192919290505050611cb1565b005b34801561092157600080fd5b506109646004803603602081101561093857600080fd5b81019080803573ffffffffffffffffffffffffffffffffffffffff16906020019092919050505061205c565b604051808215151515815260200191505060405180910390f35b34801561098a57600080fd5b506109cd600480360360208110156109a157600080fd5b81019080803573ffffffffffffffffffffffffffffffffffffffff1690602001909291905050506120ce565b604051808215151515815260200191505060405180910390f35b3480156109f357600080fd5b50610a3660048036036020811015610a0a57600080fd5b81019080803573ffffffffffffffffffffffffffffffffffffffff169060200190929190505050612136565b604051808215151515815260200191505060405180910390f35b348015610a5c57600080fd5b50610a9f60048036036020811015610a7357600080fd5b81019080803573ffffffffffffffffffffffffffffffffffffffff169060200190929190505050612190565b6040518082815260200191505060405180910390f35b348015610ac157600080fd5b50610b9960048036036080811015610ad857600080fd5b8101908080359060200190929190803590602001909291908035906020019092919080359060200190640100000000811115610b1357600080fd5b820183602082011115610b2557600080fd5b80359060200191846001830284011164010000000083111715610b4757600080fd5b91908080601f016020809104026020016040519081016040528093929190818152602001838380828437600081840152601f19601f8201169050808301925050505050505091929192905050506121dc565b005b348015610ba757600080fd5b50610bea60048036036020811015610bbe57600080fd5b81019080803573ffffffffffffffffffffffffffffffffffffffff1690602001909291905050506128e9565b005b348015610bf857600080fd5b50610c01612940565b604051808273ffffffffffffffffffffffffffffffffffffffff1673ffffffffffffffffffffffffffffffffffffffff16815260200191505060405180910390f35b348015610c4f57600080fd5b50610c58612969565b604051808215151515815260200191505060405180910390f35b348015610c7e57600080fd5b50610cc160048036036020811015610c9557600080fd5b81019080803573ffffffffffffffffffffffffffffffffffffffff1690602001909291905050506129c0565b005b348015610ccf57600080fd5b50610d1260048036036020811015610ce657600080fd5b81019080803573ffffffffffffffffffffffffffffffffffffffff169060200190929190505050612a17565b6040518082815260200191505060405180910390f35b348015610d3457600080fd5b50610d7760048036036020811015610d4b57600080fd5b81019080803573ffffffffffffffffffffffffffffffffffffffff169060200190929190505050612a93565b60405180878152602001868152602001858152602001806020018481526020018373ffffffffffffffffffffffffffffffffffffffff1673ffffffffffffffffffffffffffffffffffffffff168152602001828103825285818151815260200191508051906020019080838360005b83811015610e01578082015181840152602081019050610de6565b50505050905090810190601f168015610e2e5780820380516001836020036101000a031916815260200191505b5097505050505050505060405180910390f35b348015610e4d57600080fd5b50610e9060048036036020811015610e6457600080fd5b81019080803573ffffffffffffffffffffffffffffffffffffffff169060200190929190505050612cb5565b604051808215151515815260200191505060405180910390f35b348015610eb657600080fd5b50610eed60048036036040811015610ecd57600080fd5b810190808035906020019092919080359060200190929190505050612d3f565b604051808273ffffffffffffffffffffffffffffffffffffffff1673ffffffffffffffffffffffffffffffffffffffff16815260200191505060405180910390f35b348015610f3b57600080fd5b50610f7e60048036036020811015610f5257600080fd5b81019080803573ffffffffffffffffffffffffffffffffffffffff169060200190929190505050612d8e565b005b348015610f8c57600080fd5b50610f95612e6b565b604051808273ffffffffffffffffffffffffffffffffffffffff1673ffffffffffffffffffffffffffffffffffffffff16815260200191505060405180910390f35b348015610fe357600080fd5b5061102660048036036020811015610ffa57600080fd5b81019080803573ffffffffffffffffffffffffffffffffffffffff169060200190929190505050612e95565b005b34801561103457600080fd5b506110776004803603602081101561104b57600080fd5b81019080803573ffffffffffffffffffffffffffffffffffffffff169060200190929190505050612eec565b604051808215151515815260200191505060405180910390f35b34801561109d57600080fd5b506110e0600480360360208110156110b457600080fd5b81019080803573ffffffffffffffffffffffffffffffffffffffff169060200190929190505050612f5d565b6040518082815260200191505060405180910390f35b34801561110257600080fd5b506111456004803603602081101561111957600080fd5b81019080803573ffffffffffffffffffffffffffffffffffffffff169060200190929190505050612fa9565b604051808215151515815260200191505060405180910390f35b34801561116b57600080fd5b506111ae6004803603602081101561118257600080fd5b81019080803573ffffffffffffffffffffffffffffffffffffffff16906020019092919050505061302c565b005b3480156111bc57600080fd5b506111f3600480360360408110156111d357600080fd5b810190808035906020019092919080359060200190929190505050613083565b60405180878152602001868152602001858152602001806020018481526020018373ffffffffffffffffffffffffffffffffffffffff1673ffffffffffffffffffffffffffffffffffffffff168152602001828103825285818151815260200191508051906020019080838360005b8381101561127d578082015181840152602081019050611262565b50505050905090810190601f1680156112aa5780820380516001836020036101000a031916815260200191505b5097505050505050505060405180910390f35b3480156112c957600080fd5b5061130c600480360360208110156112e057600080fd5b81019080803573ffffffffffffffffffffffffffffffffffffffff1690602001909291905050506130bb565b005b34801561131a57600080fd5b506113236130da565b604051808273ffffffffffffffffffffffffffffffffffffffff1673ffffffffffffffffffffffffffffffffffffffff16815260200191505060405180910390f35b60006001600481111561137457fe5b600560008473ffffffffffffffffffffffffffffffffffffffff1673ffffffffffffffffffffffffffffffffffffffff16815260200190815260200160002060040160009054906101000a900460ff1660048111156113cf57fe5b149050919050565b60003390506113e581612cb5565b151561147f576040517f08c379a00000000000000000000000000000000000000000000000000000000081526004018080602001828103825260358152602001807f456e64657265c3a76f206ec3a36f20706f646520746572207369646f2063616481526020017f6173747261646f20616e746572696f726d656e7465000000000000000000000081525060400191505060405180910390fd5b60a060405190810160405280868152602001858152602001848152602001838152602001600160048111156114b057fe5b815250600560008373ffffffffffffffffffffffffffffffffffffffff1673ffffffffffffffffffffffffffffffffffffffff168152602001908152602001600020600082015181600001556020820151816001015560408201518160020155606082015181600301908051906020019061152c9291906131fe565b5060808201518160040160006101000a81548160ff0219169083600481111561155157fe5b0217905550905050600084111561163b57600061156e8686612d3f565b905061157981612cb5565b1515611639576040517f08c379a00000000000000000000000000000000000000000000000000000000081526004018080602001828103825260478152602001807f5375626372656469746f206ac3a120657374c3a1206173736f636961646f206181526020017f206f7574726f20656e64657265c3a76f2e2055736520612066756ec3a7c3a36f81526020017f2054726f63612e0000000000000000000000000000000000000000000000000081525060600191505060405180910390fd5b505b8060066000878152602001908152602001600020600086815260200190815260200160002060006101000a81548173ffffffffffffffffffffffffffffffffffffffff021916908373ffffffffffffffffffffffffffffffffffffffff1602179055507f51a4cfac9b4f8651b6f6c57772ddeeb9d393c411ae3a2be4aa1394c106bd3e9a8186868686604051808673ffffffffffffffffffffffffffffffffffffffff1673ffffffffffffffffffffffffffffffffffffffff16815260200185815260200184815260200183815260200180602001828103825283818151815260200191508051906020019080838360005b8381101561174857808201518184015260208101905061172d565b50505050905090810190601f1680156117755780820380516001836020036101000a031916815260200191505b50965050505050505060405180910390a15050505050565b6000611798826118cb565b806117a857506117a782612136565b5b806117b857506117b78261198d565b5b806117c857506117c782611a65565b5b806117d857506117d782611c2d565b5b156117e657600190506117eb565b600090505b919050565b6005602052806000526040600020600091509050806000015490806001015490806002015490806003018054600181600116156101000203166002900480601f0160208091040260200160405190810160405280929190818152602001828054600181600116156101000203166002900480156118ae5780601f10611883576101008083540402835291602001916118ae565b820191906000526020600020905b81548152906001019060200180831161189157829003601f168201915b5050505050908060040160009054906101000a900460ff16905085565b60008173ffffffffffffffffffffffffffffffffffffffff166118ec612940565b73ffffffffffffffffffffffffffffffffffffffff16149050919050565b6000611915826119e7565b801561198657506002600481111561192957fe5b600560008473ffffffffffffffffffffffffffffffffffffffff1673ffffffffffffffffffffffffffffffffffffffff16815260200190815260200160002060040160009054906101000a900460ff16600481111561198457fe5b145b9050919050565b6000600260009054906101000a900473ffffffffffffffffffffffffffffffffffffffff1673ffffffffffffffffffffffffffffffffffffffff168273ffffffffffffffffffffffffffffffffffffffff16149050919050565b60006119f28261178d565b15611a005760009050611a60565b611a0982612cb5565b15611a175760009050611a60565b6000600560008473ffffffffffffffffffffffffffffffffffffffff1673ffffffffffffffffffffffffffffffffffffffff168152602001908152602001600020600101541490505b919050565b6000600360009054906101000a900473ffffffffffffffffffffffffffffffffffffffff1673ffffffffffffffffffffffffffffffffffffffff168273ffffffffffffffffffffffffffffffffffffffff16149050919050565b6000600360009054906101000a900473ffffffffffffffffffffffffffffffffffffffff16905090565b600060026004811115611af857fe5b600560008473ffffffffffffffffffffffffffffffffffffffff1673ffffffffffffffffffffffffffffffffffffffff16815260200190815260200160002060040160009054906101000a900460ff166004811115611b5357fe5b149050919050565b611b63612969565b1515611b6e57600080fd5b600073ffffffffffffffffffffffffffffffffffffffff166000809054906101000a900473ffffffffffffffffffffffffffffffffffffffff1673ffffffffffffffffffffffffffffffffffffffff167f8be0079c531659141344cd1fd0a4f28419497f9722a3daafe3b4186f6b6457e060405160405180910390a360008060006101000a81548173ffffffffffffffffffffffffffffffffffffffff021916908373ffffffffffffffffffffffffffffffffffffffff160217905550565b6000600460009054906101000a900473ffffffffffffffffffffffffffffffffffffffff1673ffffffffffffffffffffffffffffffffffffffff168273ffffffffffffffffffffffffffffffffffffffff16149050919050565b6000600460009054906101000a900473ffffffffffffffffffffffffffffffffffffffff16905090565b611cb9612969565b1515611cc457600080fd5b60016004811115611cd157fe5b600560008473ffffffffffffffffffffffffffffffffffffffff1673ffffffffffffffffffffffffffffffffffffffff16815260200190815260200160002060040160009054906101000a900460ff166004811115611d2c57fe5b141515611dc7576040517f08c379a00000000000000000000000000000000000000000000000000000000081526004018080602001828103825260368152602001807f4120636f6e74612070726563697361206573746172206e6f2065737461646f2081526020017f416775617264616e646f2056616c696461c3a7c3a36f0000000000000000000081525060400191505060405180910390fd5b806040516020018082805190602001908083835b602083101515611e005780518252602082019150602081019050602083039250611ddb565b6001836020036101000a03801982511681845116808217855250505050505090500191505060405160208183030381529060405280519060200120600560008473ffffffffffffffffffffffffffffffffffffffff1673ffffffffffffffffffffffffffffffffffffffff1681526020019081526020016000206003016040516020018082805460018160011615610100020316600290048015611edb5780601f10611eb9576101008083540402835291820191611edb565b820191906000526020600020905b815481529060010190602001808311611ec7575b505091505060405160208183030381529060405280519060200120141515611f91576040517f08c379a00000000000000000000000000000000000000000000000000000000081526004018080602001828103825260288152602001807f4f206861736820726563656269646f20c3a9206469666572656e746520646f2081526020017f657370657261646f00000000000000000000000000000000000000000000000081525060400191505060405180910390fd5b6002600560008473ffffffffffffffffffffffffffffffffffffffff1673ffffffffffffffffffffffffffffffffffffffff16815260200190815260200160002060040160006101000a81548160ff02191690836004811115611ff057fe5b02179055507f4dc67ae38b3a2998081034ecd07cef8b98f45b9229ac9f2ee1052707298a2ea982604051808273ffffffffffffffffffffffffffffffffffffffff1673ffffffffffffffffffffffffffffffffffffffff16815260200191505060405180910390a15050565b60006003600481111561206b57fe5b600560008473ffffffffffffffffffffffffffffffffffffffff1673ffffffffffffffffffffffffffffffffffffffff16815260200190815260200160002060040160009054906101000a900460ff1660048111156120c657fe5b149050919050565b60006120d98261178d565b156120e75760009050612131565b6000600560008473ffffffffffffffffffffffffffffffffffffffff1673ffffffffffffffffffffffffffffffffffffffff16815260200190815260200160002060010154141590505b919050565b6000600160009054906101000a900473ffffffffffffffffffffffffffffffffffffffff1673ffffffffffffffffffffffffffffffffffffffff168273ffffffffffffffffffffffffffffffffffffffff16149050919050565b6000600560008373ffffffffffffffffffffffffffffffffffffffff1673ffffffffffffffffffffffffffffffffffffffff168152602001908152602001600020600101549050919050565b600033905060006121ed8686612d3f565b90506121f88161178d565b151515612293576040517f08c379a000000000000000000000000000000000000000000000000000000000815260040180806020018281038252602d8152602001807f4ec3a36f20706f64652074726f63617220656e64657265c3a76f20646520636f81526020017f6e7461207265736572766164610000000000000000000000000000000000000081525060400191505060405180910390fd5b61229c81612cb5565b151515612337576040517f08c379a000000000000000000000000000000000000000000000000000000000815260040180806020018281038252603c8152602001807f54656d2071756520686176657220756d20656e64657265c3a76f206173736f6381526020017f6961646f2061206573736520636e706a2f7375626372c3a96469746f0000000081525060400191505060405180910390fd5b61234082612cb5565b15156123da576040517f08c379a00000000000000000000000000000000000000000000000000000000081526004018080602001828103825260258152602001807f4e6f766f20656e64657265c3a76f206ec3a36f20657374c3a120646973706f6e81526020017fc3ad76656c00000000000000000000000000000000000000000000000000000081525060400191505060405180910390fd5b8073ffffffffffffffffffffffffffffffffffffffff168273ffffffffffffffffffffffffffffffffffffffff16141515156124a4576040517f08c379a000000000000000000000000000000000000000000000000000000000815260040180806020018281038252602d8152602001807f4f20656e64657265c3a76f206e6f766f2064657665207365722064696665726581526020017f6e746520646f20616e7469676f0000000000000000000000000000000000000081525060400191505060405180910390fd5b85600560008373ffffffffffffffffffffffffffffffffffffffff1673ffffffffffffffffffffffffffffffffffffffff16815260200190815260200160002060000154148015612536575084600560008373ffffffffffffffffffffffffffffffffffffffff1673ffffffffffffffffffffffffffffffffffffffff16815260200190815260200160002060010154145b15156125d0576040517f08c379a000000000000000000000000000000000000000000000000000000000815260040180806020018281038252602b8152602001807f4461646f7320696e636f6e73697374656e74657320646520636e706a206f752081526020017f7375626372c3a96469746f00000000000000000000000000000000000000000081525060400191505060405180910390fd5b60a0604051908101604052808781526020018681526020018581526020018481526020016001600481111561260157fe5b815250600560008473ffffffffffffffffffffffffffffffffffffffff1673ffffffffffffffffffffffffffffffffffffffff168152602001908152602001600020600082015181600001556020820151816001015560408201518160020155606082015181600301908051906020019061267d9291906131fe565b5060808201518160040160006101000a81548160ff021916908360048111156126a257fe5b021790555090505060a060405190810160405280600081526020016000815260200160008152602001602060405190810160405280600081525081526020016004808111156126ed57fe5b815250600560008373ffffffffffffffffffffffffffffffffffffffff1673ffffffffffffffffffffffffffffffffffffffff16815260200190815260200160002060008201518160000155602082015181600101556040820151816002015560608201518160030190805190602001906127699291906131fe565b5060808201518160040160006101000a81548160ff0219169083600481111561278e57fe5b02179055509050508160066000888152602001908152602001600020600087815260200190815260200160002060006101000a81548173ffffffffffffffffffffffffffffffffffffffff021916908373ffffffffffffffffffffffffffffffffffffffff1602179055507f835c4d8f9bdbdf9782795d8d402350614edd9b8ffa70840bccafd38772ff1c528287878787604051808673ffffffffffffffffffffffffffffffffffffffff1673ffffffffffffffffffffffffffffffffffffffff16815260200185815260200184815260200183815260200180602001828103825283818151815260200191508051906020019080838360005b838110156128a3578082015181840152602081019050612888565b50505050905090810190601f1680156128d05780820380516001836020036101000a031916815260200191505b50965050505050505060405180910390a1505050505050565b6128f1612969565b15156128fc57600080fd5b80600260006101000a81548173ffffffffffffffffffffffffffffffffffffffff021916908373ffffffffffffffffffffffffffffffffffffffff16021790555050565b60008060009054906101000a900473ffffffffffffffffffffffffffffffffffffffff16905090565b60008060009054906101000a900473ffffffffffffffffffffffffffffffffffffffff1673ffffffffffffffffffffffffffffffffffffffff163373ffffffffffffffffffffffffffffffffffffffff1614905090565b6129c8612969565b15156129d357600080fd5b80600360006101000a81548173ffffffffffffffffffffffffffffffffffffffff021916908373ffffffffffffffffffffffffffffffffffffffff16021790555050565b6000612a228261178d565b15612a305760649050612a8e565b600560008373ffffffffffffffffffffffffffffffffffffffff1673ffffffffffffffffffffffffffffffffffffffff16815260200190815260200160002060040160009054906101000a900460ff166004811115612a8b57fe5b90505b919050565b60008060006060600080600560008873ffffffffffffffffffffffffffffffffffffffff1673ffffffffffffffffffffffffffffffffffffffff16815260200190815260200160002060000154600560008973ffffffffffffffffffffffffffffffffffffffff1673ffffffffffffffffffffffffffffffffffffffff16815260200190815260200160002060010154600560008a73ffffffffffffffffffffffffffffffffffffffff1673ffffffffffffffffffffffffffffffffffffffff16815260200190815260200160002060020154600560008b73ffffffffffffffffffffffffffffffffffffffff1673ffffffffffffffffffffffffffffffffffffffff168152602001908152602001600020600301600560008c73ffffffffffffffffffffffffffffffffffffffff1673ffffffffffffffffffffffffffffffffffffffff16815260200190815260200160002060040160009054906101000a900460ff166004811115612c0357fe5b8b828054600181600116156101000203166002900480601f016020809104026020016040519081016040528092919081815260200182805460018160011615610100020316600290048015612c995780601f10612c6e57610100808354040283529160200191612c99565b820191906000526020600020905b815481529060010190602001808311612c7c57829003601f168201915b5050505050925095509550955095509550955091939550919395565b6000612cc08261178d565b15612cce5760009050612d3a565b60006004811115612cdb57fe5b600560008473ffffffffffffffffffffffffffffffffffffffff1673ffffffffffffffffffffffffffffffffffffffff16815260200190815260200160002060040160009054906101000a900460ff166004811115612d3657fe5b1490505b919050565b600060066000848152602001908152602001600020600083815260200190815260200160002060009054906101000a900473ffffffffffffffffffffffffffffffffffffffff16905092915050565b612d96612969565b1515612da157600080fd5b6003600560008373ffffffffffffffffffffffffffffffffffffffff1673ffffffffffffffffffffffffffffffffffffffff16815260200190815260200160002060040160006101000a81548160ff02191690836004811115612e0057fe5b02179055507f03454a2dd5c664b443b971b8e477ea5926510d0e93159d57d93293b484c7444f81604051808273ffffffffffffffffffffffffffffffffffffffff1673ffffffffffffffffffffffffffffffffffffffff16815260200191505060405180910390a150565b6000600260009054906101000a900473ffffffffffffffffffffffffffffffffffffffff16905090565b612e9d612969565b1515612ea857600080fd5b80600160006101000a81548173ffffffffffffffffffffffffffffffffffffffff021916908373ffffffffffffffffffffffffffffffffffffffff16021790555050565b6000600480811115612efa57fe5b600560008473ffffffffffffffffffffffffffffffffffffffff1673ffffffffffffffffffffffffffffffffffffffff16815260200190815260200160002060040160009054906101000a900460ff166004811115612f5557fe5b149050919050565b6000600560008373ffffffffffffffffffffffffffffffffffffffff1673ffffffffffffffffffffffffffffffffffffffff168152602001908152602001600020600001549050919050565b6000612fb4826120ce565b8015613025575060026004811115612fc857fe5b600560008473ffffffffffffffffffffffffffffffffffffffff1673ffffffffffffffffffffffffffffffffffffffff16815260200190815260200160002060040160009054906101000a900460ff16600481111561302357fe5b145b9050919050565b613034612969565b151561303f57600080fd5b80600460006101000a81548173ffffffffffffffffffffffffffffffffffffffff021916908373ffffffffffffffffffffffffffffffffffffffff16021790555050565b6000806000606060008060006130998989612d3f565b90506130a481612a93565b965096509650965096509650509295509295509295565b6130c3612969565b15156130ce57600080fd5b6130d781613104565b50565b6000600160009054906101000a900473ffffffffffffffffffffffffffffffffffffffff16905090565b600073ffffffffffffffffffffffffffffffffffffffff168173ffffffffffffffffffffffffffffffffffffffff161415151561314057600080fd5b8073ffffffffffffffffffffffffffffffffffffffff166000809054906101000a900473ffffffffffffffffffffffffffffffffffffffff1673ffffffffffffffffffffffffffffffffffffffff167f8be0079c531659141344cd1fd0a4f28419497f9722a3daafe3b4186f6b6457e060405160405180910390a3806000806101000a81548173ffffffffffffffffffffffffffffffffffffffff021916908373ffffffffffffffffffffffffffffffffffffffff16021790555050565b828054600181600116156101000203166002900490600052602060002090601f016020900481019282601f1061323f57805160ff191683800117855561326d565b8280016001018555821561326d579182015b8281111561326c578251825591602001919060010190613251565b5b50905061327a919061327e565b5090565b6132a091905b8082111561329c576000816000905550600101613284565b5090565b9056fea165627a7a72305820cc233174d709aa3f001910c7d96ee064be1df64212ed7213e9a291a24507ccba0029",
  "source": "pragma solidity ^0.5.0;\r\n\r\nimport \"openzeppelin-solidity/contracts/ownership/Ownable.sol\";\r\n\r\ncontract BNDESRegistry is Ownable() {\r\n\r\n    enum BlockchainAccountState {AVAILABLE,WAITING_VALIDATION,VALIDATED,INVALIDATED_BY_VALIDATOR,INVALIDATED_BY_CHANGE} \r\n    BlockchainAccountState blockchainState; //Not used. Defined to create the enum type.\r\n\r\n    address responsibleForSettlement;\r\n    address responsibleForRegistryValidation;\r\n    address responsibleForDisbursement;\r\n    address redemptionAddress;\r\n\r\n    struct LegalEntityInfo {\r\n        uint cnpj;\r\n        uint idFinancialSupportAgreement; //subcredit\r\n        uint salic;\r\n        string idProofHash;\r\n        BlockchainAccountState state;\r\n    } \r\n\r\n    mapping(address => LegalEntityInfo) public legalEntitiesInfo;\r\n\r\n    //cnpj => (idFinancialSupportAgreement => address)\r\n    mapping(uint => mapping(uint => address)) cnpjFSAddr; \r\n\r\n\r\n    event AccountRegistration(address addr, uint cnpj, uint idFinancialSupportAgreement, uint salic, string idProofHash);\r\n    event AccountChange(address addr, uint cnpj, uint idFinancialSupportAgreement, uint salic, string idProofHash);\r\n    event AccountValidation(address addr);\r\n    event AccountInvalidation(address addr);\r\n\r\n\r\n    constructor () public {\r\n        responsibleForSettlement = msg.sender;\r\n        responsibleForRegistryValidation = msg.sender;\r\n        responsibleForDisbursement = msg.sender;\r\n        redemptionAddress = msg.sender;\r\n    }\r\n\r\n\r\n    /**\r\n    Associa um endereo blockchain ao CNPJ\r\n    */\r\n    function registryLegalEntity(uint cnpj, uint idFinancialSupportAgreement, uint salic, string memory idProofHash) public { \r\n\r\n        address addr = msg.sender;\r\n\r\n        // Endereo no pode ter sido cadastrado anteriormente\r\n        require (isAvailableAccount(addr), \"Endereo no pode ter sido cadastrado anteriormente\");\r\n\r\n        legalEntitiesInfo[addr] = LegalEntityInfo(cnpj, idFinancialSupportAgreement, salic, idProofHash, BlockchainAccountState.WAITING_VALIDATION);\r\n        \r\n        // No pode haver outro endereo cadastrado para esse mesmo subcrdito\r\n        if (idFinancialSupportAgreement > 0) {\r\n            address account = getBlockchainAccount(cnpj,idFinancialSupportAgreement);\r\n            require (isAvailableAccount(account), \"Subcredito j est associado a outro endereo. Use a funo Troca.\");\r\n        }\r\n        \r\n        cnpjFSAddr[cnpj][idFinancialSupportAgreement] = addr;\r\n\r\n        emit AccountRegistration(addr, cnpj, idFinancialSupportAgreement, salic, idProofHash);\r\n    }\r\n\r\n    /**\r\n    Reassocia um cnpj/subcrdito a um novo endereo da blockchain (o sender)\r\n    */\r\n    function changeAccountLegalEntity(uint cnpj, uint idFinancialSupportAgreement, uint salic, string memory idProofHash) public {\r\n\r\n        address newAddr = msg.sender;\r\n        address oldAddr = getBlockchainAccount(cnpj, idFinancialSupportAgreement);\r\n\r\n        // Tem que haver um endereo associado a esse cnpj/subcrdito\r\n        require(!isReservedAccount(oldAddr), \"No pode trocar endereo de conta reservada\");\r\n\r\n        require(!isAvailableAccount(oldAddr), \"Tem que haver um endereo associado a esse cnpj/subcrdito\");\r\n\r\n        require(isAvailableAccount(newAddr), \"Novo endereo no est disponvel\");\r\n\r\n        require(newAddr != oldAddr, \"O endereo novo deve ser diferente do antigo\");\r\n\r\n        require(legalEntitiesInfo[oldAddr].cnpj==cnpj \r\n                    && legalEntitiesInfo[oldAddr].idFinancialSupportAgreement ==idFinancialSupportAgreement, \r\n                    \"Dados inconsistentes de cnpj ou subcrdito\");\r\n\r\n        // Aponta o novo endereo para o novo LegalEntityInfo\r\n        legalEntitiesInfo[newAddr] = LegalEntityInfo(cnpj, idFinancialSupportAgreement, salic, idProofHash, BlockchainAccountState.WAITING_VALIDATION);\r\n\r\n        // Apaga o mapping do endereo antigo\r\n        legalEntitiesInfo[oldAddr] = LegalEntityInfo(0, 0, 0, \"\", BlockchainAccountState.INVALIDATED_BY_CHANGE);\r\n\r\n        // Aponta mapping CNPJ e Subcredito para newAddr\r\n        cnpjFSAddr[cnpj][idFinancialSupportAgreement] = newAddr;\r\n\r\n        emit AccountChange(newAddr, cnpj, idFinancialSupportAgreement, salic, idProofHash); \r\n\r\n    }\r\n\r\n\r\n    function validateRegistryLegalEntity(address addr, string memory idProofHash) onlyOwner public {\r\n\r\n        require(legalEntitiesInfo[addr].state == BlockchainAccountState.WAITING_VALIDATION, \"A conta precisa estar no estado Aguardando Validao\");\r\n\r\n        require(keccak256(abi.encodePacked(legalEntitiesInfo[addr].idProofHash)) == keccak256(abi.encodePacked(idProofHash)), \"O hash recebido  diferente do esperado\");\r\n\r\n        legalEntitiesInfo[addr].state = BlockchainAccountState.VALIDATED;\r\n\r\n        emit AccountValidation(addr);\r\n    }\r\n\r\n    function invalidateRegistryLegalEntity(address addr) onlyOwner public {\r\n\r\n        legalEntitiesInfo[addr].state = BlockchainAccountState.INVALIDATED_BY_VALIDATOR;\r\n        \r\n        emit AccountInvalidation(addr);\r\n    }\r\n\r\n\r\n    function setResponsibleForSettlement(address rs) onlyOwner public {\r\n        responsibleForSettlement = rs;\r\n    }\r\n    function setResponsibleForRegistryValidation(address rs) onlyOwner public {\r\n        responsibleForRegistryValidation = rs;\r\n    }\r\n    function setResponsibleForDisbursement(address rs) onlyOwner public {\r\n        responsibleForDisbursement = rs;\r\n    }\r\n    function setRedemptionAddress(address rs) onlyOwner public {\r\n        redemptionAddress = rs;\r\n    }\r\n\r\n    function isResponsibleForSettlement(address addr) view public returns (bool) {\r\n        return (addr == responsibleForSettlement);\r\n    }\r\n    function isResponsibleForRegistryValidation(address addr) view public returns (bool) {\r\n        return (addr == responsibleForRegistryValidation);\r\n    }\r\n    function isResponsibleForDisbursement(address addr) view public returns (bool) {\r\n        return (addr == responsibleForDisbursement);\r\n    }\r\n    function isRedemptionAddress(address addr) view public returns (bool) {\r\n        return (addr == redemptionAddress);\r\n    }\r\n\r\n    function isReservedAccount(address addr) view public returns (bool) {\r\n\r\n        if (isOwner(addr) || isResponsibleForSettlement(addr) \r\n                           || isResponsibleForRegistryValidation(addr)\r\n                           || isResponsibleForDisbursement(addr)\r\n                           || isRedemptionAddress(addr) ) {\r\n            return true;\r\n        }\r\n        return false;\r\n    }\r\n    function isOwner(address addr) view public returns (bool) {\r\n        return owner()==addr;\r\n    }\r\n\r\n    function isSupplier(address addr) view public returns (bool) {\r\n\r\n        if (isReservedAccount(addr))\r\n            return false;\r\n\r\n        if (isAvailableAccount(addr))\r\n            return false;\r\n\r\n        return legalEntitiesInfo[addr].idFinancialSupportAgreement == 0;\r\n    }\r\n\r\n    function isValidatedSupplier (address addr) view public returns (bool) {\r\n        return isSupplier(addr) && (legalEntitiesInfo[addr].state == BlockchainAccountState.VALIDATED);\r\n    }\r\n\r\n    function isClient (address addr) view public returns (bool) {\r\n        if (isReservedAccount(addr)) {\r\n            return false;\r\n        }\r\n        return legalEntitiesInfo[addr].idFinancialSupportAgreement != 0;\r\n    }\r\n\r\n    function isValidatedClient (address addr) view public returns (bool) {\r\n        return isClient(addr) && (legalEntitiesInfo[addr].state == BlockchainAccountState.VALIDATED);\r\n    }\r\n\r\n    function isAvailableAccount(address addr) view public returns (bool) {\r\n        if ( isReservedAccount(addr) ) {\r\n            return false;\r\n        } \r\n        return legalEntitiesInfo[addr].state == BlockchainAccountState.AVAILABLE;\r\n    }\r\n\r\n    function isWaitingValidationAccount(address addr) view public returns (bool) {\r\n        return legalEntitiesInfo[addr].state == BlockchainAccountState.WAITING_VALIDATION;\r\n    }\r\n\r\n    function isValidatedAccount(address addr) view public returns (bool) {\r\n        return legalEntitiesInfo[addr].state == BlockchainAccountState.VALIDATED;\r\n    }\r\n\r\n    function isInvalidatedByValidatorAccount(address addr) view public returns (bool) {\r\n        return legalEntitiesInfo[addr].state == BlockchainAccountState.INVALIDATED_BY_VALIDATOR;\r\n    }\r\n\r\n    function isInvalidatedByChangeAccount(address addr) view public returns (bool) {\r\n        return legalEntitiesInfo[addr].state == BlockchainAccountState.INVALIDATED_BY_CHANGE;\r\n    }\r\n\r\n    function getResponsibleForSettlement() view public returns (address) {\r\n        return responsibleForSettlement;\r\n    }\r\n    function getResponsibleForRegistryValidation() view public returns (address) {\r\n        return responsibleForRegistryValidation;\r\n    }\r\n    function getResponsibleForDisbursement() view public returns (address) {\r\n        return responsibleForDisbursement;\r\n    }\r\n    function getRedemptionAddress() view public returns (address) {\r\n        return redemptionAddress;\r\n    }\r\n\r\n    function getCNPJ(address addr) view public returns (uint) {\r\n        return legalEntitiesInfo[addr].cnpj;\r\n    }\r\n\r\n    function getIdLegalFinancialAgreement(address addr) view public returns (uint) {\r\n        return legalEntitiesInfo[addr].idFinancialSupportAgreement;\r\n    }\r\n\r\n    function getLegalEntityInfo (address addr) view public returns (uint, uint, uint, string memory, uint, address) {\r\n        return (legalEntitiesInfo[addr].cnpj, legalEntitiesInfo[addr].idFinancialSupportAgreement, \r\n             legalEntitiesInfo[addr].salic, legalEntitiesInfo[addr].idProofHash, (uint) (legalEntitiesInfo[addr].state),\r\n             addr);\r\n    }\r\n\r\n    function getBlockchainAccount(uint256 cnpj, uint256 idFinancialSupportAgreement) view public returns (address) {\r\n        return cnpjFSAddr[cnpj][idFinancialSupportAgreement];\r\n    }\r\n\r\n    function getLegalEntityInfoByCNPJ (uint256 cnpj, uint256 idFinancialSupportAgreement) \r\n        view public returns (uint, uint, uint, string memory, uint, address) {\r\n        \r\n        address addr = getBlockchainAccount(cnpj,idFinancialSupportAgreement);\r\n        return getLegalEntityInfo (addr);\r\n    }\r\n\r\n    function getAccountState(address addr) view public returns (int) {\r\n\r\n        if ( isReservedAccount(addr) ) {\r\n            return 100;\r\n        } \r\n        else {\r\n            return ((int) (legalEntitiesInfo[addr].state));\r\n        }\r\n\r\n    }\r\n\r\n\r\n}",
  "sourcePath": "D:\\Workspace\\bndestoken\\Back-Blockchain\\contracts\\BNDESRegistry.sol",
  "compiler": {
    "name": "solc",
    "version": "0.5.0+commit.1d4f565a.Emscripten.clang"
  },
  "schemaVersion": "3.0.5",
  "updatedAt": "2019-05-22T21:06:03.498Z",
  "devdoc": {
    "methods": {
      "isOwner()": {
        "return": "true if `msg.sender` is the owner of the contract."
      },
      "owner()": {
        "return": "the address of the owner."
      },
      "renounceOwnership()": {
        "details": "Allows the current owner to relinquish control of the contract."
      },
      "transferOwnership(address)": {
        "details": "Allows the current owner to transfer control of the contract to a newOwner.",
        "params": {
          "newOwner": "The address to transfer ownership to."
        }
      }
    }
  },
  "userdoc": {
    "methods": {
      "changeAccountLegalEntity(uint256,uint256,uint256,string)": {
        "notice": "Reassocia um cnpj/subcrdito a um novo endereo da blockchain (o sender)\r"
      },
      "registryLegalEntity(uint256,uint256,uint256,string)": {
        "notice": "Associa um endereo blockchain ao CNPJ\r"
      },
      "renounceOwnership()": {
        "notice": "Renouncing to ownership will leave the contract without an owner. It will not be possible to call the functions with the `onlyOwner` modifier anymore."
      }
    }
  }
}