{
  "contractName": "BNDESToken",
  "abi": [
    {
      "constant": true,
      "inputs": [],
      "name": "name",
      "outputs": [
        {
          "name": "",
          "type": "string"
        }
      ],
      "payable": false,
      "stateMutability": "view",
      "type": "function",
      "signature": "0x06fdde03"
    },
    {
      "constant": true,
      "inputs": [
        {
          "name": "addr",
          "type": "address"
        }
      ],
      "name": "isWaitingValidationAccount",
      "outputs": [
        {
          "name": "",
          "type": "bool"
        }
      ],
      "payable": false,
      "stateMutability": "view",
      "type": "function",
      "signature": "0x0c4471bd"
    },
    {
      "constant": true,
      "inputs": [],
      "name": "totalSupply",
      "outputs": [
        {
          "name": "",
          "type": "uint256"
        }
      ],
      "payable": false,
      "stateMutability": "view",
      "type": "function",
      "signature": "0x18160ddd"
    },
    {
      "constant": true,
      "inputs": [
        {
          "name": "addr",
          "type": "address"
        }
      ],
      "name": "isReservedAccount",
      "outputs": [
        {
          "name": "",
          "type": "bool"
        }
      ],
      "payable": false,
      "stateMutability": "view",
      "type": "function",
      "signature": "0x184c8931"
    },
    {
      "constant": true,
      "inputs": [
        {
          "name": "",
          "type": "address"
        }
      ],
      "name": "legalEntitiesInfo",
      "outputs": [
        {
          "name": "cnpj",
          "type": "uint256"
        },
        {
          "name": "idFinancialSupportAgreement",
          "type": "uint256"
        },
        {
          "name": "salic",
          "type": "uint256"
        },
        {
          "name": "idProofHash",
          "type": "string"
        },
        {
          "name": "state",
          "type": "uint8"
        }
      ],
      "payable": false,
      "stateMutability": "view",
      "type": "function",
      "signature": "0x26ff4794"
    },
    {
      "constant": true,
      "inputs": [
        {
          "name": "addr",
          "type": "address"
        }
      ],
      "name": "isOwner",
      "outputs": [
        {
          "name": "",
          "type": "bool"
        }
      ],
      "payable": false,
      "stateMutability": "view",
      "type": "function",
      "signature": "0x2f54bf6e"
    },
    {
      "constant": true,
      "inputs": [],
      "name": "decimals",
      "outputs": [
        {
          "name": "",
          "type": "uint8"
        }
      ],
      "payable": false,
      "stateMutability": "view",
      "type": "function",
      "signature": "0x313ce567"
    },
    {
      "constant": true,
      "inputs": [
        {
          "name": "addr",
          "type": "address"
        }
      ],
      "name": "isValidatedSupplier",
      "outputs": [
        {
          "name": "",
          "type": "bool"
        }
      ],
      "payable": false,
      "stateMutability": "view",
      "type": "function",
      "signature": "0x348da3f2"
    },
    {
      "constant": true,
      "inputs": [
        {
          "name": "addr",
          "type": "address"
        }
      ],
      "name": "isResponsibleForRegistryValidation",
      "outputs": [
        {
          "name": "",
          "type": "bool"
        }
      ],
      "payable": false,
      "stateMutability": "view",
      "type": "function",
      "signature": "0x3abba2ef"
    },
    {
      "constant": false,
      "inputs": [],
      "name": "unpause",
      "outputs": [],
      "payable": false,
      "stateMutability": "nonpayable",
      "type": "function",
      "signature": "0x3f4ba83a"
    },
    {
      "constant": true,
      "inputs": [
        {
          "name": "addr",
          "type": "address"
        }
      ],
      "name": "isSupplier",
      "outputs": [
        {
          "name": "",
          "type": "bool"
        }
      ],
      "payable": false,
      "stateMutability": "view",
      "type": "function",
      "signature": "0x46336542"
    },
    {
      "constant": true,
      "inputs": [
        {
          "name": "account",
          "type": "address"
        }
      ],
      "name": "isPauser",
      "outputs": [
        {
          "name": "",
          "type": "bool"
        }
      ],
      "payable": false,
      "stateMutability": "view",
      "type": "function",
      "signature": "0x46fbf68e"
    },
    {
      "constant": true,
      "inputs": [
        {
          "name": "addr",
          "type": "address"
        }
      ],
      "name": "isResponsibleForDisbursement",
      "outputs": [
        {
          "name": "",
          "type": "bool"
        }
      ],
      "payable": false,
      "stateMutability": "view",
      "type": "function",
      "signature": "0x4add3110"
    },
    {
      "constant": true,
      "inputs": [],
      "name": "getResponsibleForDisbursement",
      "outputs": [
        {
          "name": "",
          "type": "address"
        }
      ],
      "payable": false,
      "stateMutability": "view",
      "type": "function",
      "signature": "0x57cdcb3e"
    },
    {
      "constant": true,
      "inputs": [],
      "name": "paused",
      "outputs": [
        {
          "name": "",
          "type": "bool"
        }
      ],
      "payable": false,
      "stateMutability": "view",
      "type": "function",
      "signature": "0x5c975abb"
    },
    {
      "constant": true,
      "inputs": [
        {
          "name": "addr",
          "type": "address"
        }
      ],
      "name": "isValidatedAccount",
      "outputs": [
        {
          "name": "",
          "type": "bool"
        }
      ],
      "payable": false,
      "stateMutability": "view",
      "type": "function",
      "signature": "0x6426a116"
    },
    {
      "constant": false,
      "inputs": [],
      "name": "renouncePauser",
      "outputs": [],
      "payable": false,
      "stateMutability": "nonpayable",
      "type": "function",
      "signature": "0x6ef8d66d"
    },
    {
      "constant": true,
      "inputs": [
        {
          "name": "owner",
          "type": "address"
        }
      ],
      "name": "balanceOf",
      "outputs": [
        {
          "name": "",
          "type": "uint256"
        }
      ],
      "payable": false,
      "stateMutability": "view",
      "type": "function",
      "signature": "0x70a08231"
    },
    {
      "constant": false,
      "inputs": [],
      "name": "renounceOwnership",
      "outputs": [],
      "payable": false,
      "stateMutability": "nonpayable",
      "type": "function",
      "signature": "0x715018a6"
    },
    {
      "constant": true,
      "inputs": [
        {
          "name": "addr",
          "type": "address"
        }
      ],
      "name": "isRedemptionAddress",
      "outputs": [
        {
          "name": "",
          "type": "bool"
        }
      ],
      "payable": false,
      "stateMutability": "view",
      "type": "function",
      "signature": "0x7943653d"
    },
    {
      "constant": true,
      "inputs": [],
      "name": "getRedemptionAddress",
      "outputs": [
        {
          "name": "",
          "type": "address"
        }
      ],
      "payable": false,
      "stateMutability": "view",
      "type": "function",
      "signature": "0x79b8369e"
    },
    {
      "constant": false,
      "inputs": [
        {
          "name": "addr",
          "type": "address"
        },
        {
          "name": "idProofHash",
          "type": "string"
        }
      ],
      "name": "validateRegistryLegalEntity",
      "outputs": [],
      "payable": false,
      "stateMutability": "nonpayable",
      "type": "function",
      "signature": "0x803b8a42"
    },
    {
      "constant": false,
      "inputs": [
        {
          "name": "account",
          "type": "address"
        }
      ],
      "name": "addPauser",
      "outputs": [],
      "payable": false,
      "stateMutability": "nonpayable",
      "type": "function",
      "signature": "0x82dc1ec4"
    },
    {
      "constant": true,
      "inputs": [
        {
          "name": "addr",
          "type": "address"
        }
      ],
      "name": "isInvalidatedByValidatorAccount",
      "outputs": [
        {
          "name": "",
          "type": "bool"
        }
      ],
      "payable": false,
      "stateMutability": "view",
      "type": "function",
      "signature": "0x845283de"
    },
    {
      "constant": false,
      "inputs": [],
      "name": "pause",
      "outputs": [],
      "payable": false,
      "stateMutability": "nonpayable",
      "type": "function",
      "signature": "0x8456cb59"
    },
    {
      "constant": true,
      "inputs": [
        {
          "name": "addr",
          "type": "address"
        }
      ],
      "name": "isClient",
      "outputs": [
        {
          "name": "",
          "type": "bool"
        }
      ],
      "payable": false,
      "stateMutability": "view",
      "type": "function",
      "signature": "0x84b7964f"
    },
    {
      "constant": true,
      "inputs": [
        {
          "name": "addr",
          "type": "address"
        }
      ],
      "name": "isResponsibleForSettlement",
      "outputs": [
        {
          "name": "",
          "type": "bool"
        }
      ],
      "payable": false,
      "stateMutability": "view",
      "type": "function",
      "signature": "0x85fecf9b"
    },
    {
      "constant": true,
      "inputs": [
        {
          "name": "addr",
          "type": "address"
        }
      ],
      "name": "getIdLegalFinancialAgreement",
      "outputs": [
        {
          "name": "",
          "type": "uint256"
        }
      ],
      "payable": false,
      "stateMutability": "view",
      "type": "function",
      "signature": "0x876c6e9b"
    },
    {
      "constant": false,
      "inputs": [
        {
          "name": "rs",
          "type": "address"
        }
      ],
      "name": "setResponsibleForRegistryValidation",
      "outputs": [],
      "payable": false,
      "stateMutability": "nonpayable",
      "type": "function",
      "signature": "0x8cbd258f"
    },
    {
      "constant": true,
      "inputs": [],
      "name": "owner",
      "outputs": [
        {
          "name": "",
          "type": "address"
        }
      ],
      "payable": false,
      "stateMutability": "view",
      "type": "function",
      "signature": "0x8da5cb5b"
    },
    {
      "constant": true,
      "inputs": [],
      "name": "isOwner",
      "outputs": [
        {
          "name": "",
          "type": "bool"
        }
      ],
      "payable": false,
      "stateMutability": "view",
      "type": "function",
      "signature": "0x8f32d59b"
    },
    {
      "constant": false,
      "inputs": [
        {
          "name": "rs",
          "type": "address"
        }
      ],
      "name": "setResponsibleForDisbursement",
      "outputs": [],
      "payable": false,
      "stateMutability": "nonpayable",
      "type": "function",
      "signature": "0x90e42c7e"
    },
    {
      "constant": true,
      "inputs": [],
      "name": "symbol",
      "outputs": [
        {
          "name": "",
          "type": "string"
        }
      ],
      "payable": false,
      "stateMutability": "view",
      "type": "function",
      "signature": "0x95d89b41"
    },
    {
      "constant": true,
      "inputs": [
        {
          "name": "addr",
          "type": "address"
        }
      ],
      "name": "getAccountState",
      "outputs": [
        {
          "name": "",
          "type": "int256"
        }
      ],
      "payable": false,
      "stateMutability": "view",
      "type": "function",
      "signature": "0x9ee2735b"
    },
    {
      "constant": true,
      "inputs": [
        {
          "name": "addr",
          "type": "address"
        }
      ],
      "name": "getLegalEntityInfo",
      "outputs": [
        {
          "name": "",
          "type": "uint256"
        },
        {
          "name": "",
          "type": "uint256"
        },
        {
          "name": "",
          "type": "uint256"
        },
        {
          "name": "",
          "type": "string"
        },
        {
          "name": "",
          "type": "uint256"
        },
        {
          "name": "",
          "type": "address"
        }
      ],
      "payable": false,
      "stateMutability": "view",
      "type": "function",
      "signature": "0x9f5e1ddd"
    },
    {
      "constant": true,
      "inputs": [
        {
          "name": "addr",
          "type": "address"
        }
      ],
      "name": "isAvailableAccount",
      "outputs": [
        {
          "name": "",
          "type": "bool"
        }
      ],
      "payable": false,
      "stateMutability": "view",
      "type": "function",
      "signature": "0xa3d88453"
    },
    {
      "constant": true,
      "inputs": [
        {
          "name": "cnpj",
          "type": "uint256"
        },
        {
          "name": "idFinancialSupportAgreement",
          "type": "uint256"
        }
      ],
      "name": "getBlockchainAccount",
      "outputs": [
        {
          "name": "",
          "type": "address"
        }
      ],
      "payable": false,
      "stateMutability": "view",
      "type": "function",
      "signature": "0xa4f335d3"
    },
    {
      "constant": false,
      "inputs": [
        {
          "name": "addr",
          "type": "address"
        }
      ],
      "name": "invalidateRegistryLegalEntity",
      "outputs": [],
      "payable": false,
      "stateMutability": "nonpayable",
      "type": "function",
      "signature": "0xb41842b9"
    },
    {
      "constant": true,
      "inputs": [],
      "name": "getResponsibleForRegistryValidation",
      "outputs": [
        {
          "name": "",
          "type": "address"
        }
      ],
      "payable": false,
      "stateMutability": "view",
      "type": "function",
      "signature": "0xb7196f37"
    },
    {
      "constant": false,
      "inputs": [
        {
          "name": "rs",
          "type": "address"
        }
      ],
      "name": "setResponsibleForSettlement",
      "outputs": [],
      "payable": false,
      "stateMutability": "nonpayable",
      "type": "function",
      "signature": "0xb7404ff5"
    },
    {
      "constant": true,
      "inputs": [
        {
          "name": "addr",
          "type": "address"
        }
      ],
      "name": "isInvalidatedByChangeAccount",
      "outputs": [
        {
          "name": "",
          "type": "bool"
        }
      ],
      "payable": false,
      "stateMutability": "view",
      "type": "function",
      "signature": "0xb8e7c21d"
    },
    {
      "constant": true,
      "inputs": [
        {
          "name": "addr",
          "type": "address"
        }
      ],
      "name": "getCNPJ",
      "outputs": [
        {
          "name": "",
          "type": "uint256"
        }
      ],
      "payable": false,
      "stateMutability": "view",
      "type": "function",
      "signature": "0xbe49b78d"
    },
    {
      "constant": true,
      "inputs": [
        {
          "name": "addr",
          "type": "address"
        }
      ],
      "name": "isValidatedClient",
      "outputs": [
        {
          "name": "",
          "type": "bool"
        }
      ],
      "payable": false,
      "stateMutability": "view",
      "type": "function",
      "signature": "0xc01ed210"
    },
    {
      "constant": false,
      "inputs": [
        {
          "name": "rs",
          "type": "address"
        }
      ],
      "name": "setRedemptionAddress",
      "outputs": [],
      "payable": false,
      "stateMutability": "nonpayable",
      "type": "function",
      "signature": "0xcc7e1b9a"
    },
    {
      "constant": true,
      "inputs": [
        {
          "name": "owner",
          "type": "address"
        },
        {
          "name": "spender",
          "type": "address"
        }
      ],
      "name": "allowance",
      "outputs": [
        {
          "name": "",
          "type": "uint256"
        }
      ],
      "payable": false,
      "stateMutability": "view",
      "type": "function",
      "signature": "0xdd62ed3e"
    },
    {
      "constant": true,
      "inputs": [
        {
          "name": "cnpj",
          "type": "uint256"
        },
        {
          "name": "idFinancialSupportAgreement",
          "type": "uint256"
        }
      ],
      "name": "getLegalEntityInfoByCNPJ",
      "outputs": [
        {
          "name": "",
          "type": "uint256"
        },
        {
          "name": "",
          "type": "uint256"
        },
        {
          "name": "",
          "type": "uint256"
        },
        {
          "name": "",
          "type": "string"
        },
        {
          "name": "",
          "type": "uint256"
        },
        {
          "name": "",
          "type": "address"
        }
      ],
      "payable": false,
      "stateMutability": "view",
      "type": "function",
      "signature": "0xe512b1ff"
    },
    {
      "constant": false,
      "inputs": [
        {
          "name": "newOwner",
          "type": "address"
        }
      ],
      "name": "transferOwnership",
      "outputs": [],
      "payable": false,
      "stateMutability": "nonpayable",
      "type": "function",
      "signature": "0xf2fde38b"
    },
    {
      "constant": true,
      "inputs": [],
      "name": "getResponsibleForSettlement",
      "outputs": [
        {
          "name": "",
          "type": "address"
        }
      ],
      "payable": false,
      "stateMutability": "view",
      "type": "function",
      "signature": "0xf4ec7367"
    },
    {
      "anonymous": false,
      "inputs": [
        {
          "indexed": false,
          "name": "cnpj",
          "type": "uint256"
        },
        {
          "indexed": false,
          "name": "idFinancialSupportAgreement",
          "type": "uint256"
        },
        {
          "indexed": false,
          "name": "value",
          "type": "uint256"
        }
      ],
      "name": "BNDESTokenDisbursement",
      "type": "event",
      "signature": "0x17402d7e9c93e5755ce4b9008c259de5059b180920a13885be54ebaf02e81119"
    },
    {
      "anonymous": false,
      "inputs": [
        {
          "indexed": false,
          "name": "fromCnpj",
          "type": "uint256"
        },
        {
          "indexed": false,
          "name": "fromIdFinancialSupportAgreement",
          "type": "uint256"
        },
        {
          "indexed": false,
          "name": "toCnpj",
          "type": "uint256"
        },
        {
          "indexed": false,
          "name": "value",
          "type": "uint256"
        }
      ],
      "name": "BNDESTokenTransfer",
      "type": "event",
      "signature": "0x675c75f5a4f583261cd1cca8d5fc670ce610221d8ec5cd2c74bb949f1cefd5b3"
    },
    {
      "anonymous": false,
      "inputs": [
        {
          "indexed": false,
          "name": "cnpj",
          "type": "uint256"
        },
        {
          "indexed": false,
          "name": "value",
          "type": "uint256"
        }
      ],
      "name": "BNDESTokenRedemption",
      "type": "event",
      "signature": "0x0a7caeac328e6212d649fc5f567f0b41d91ff5eb5fa01c647a7888b52f41af25"
    },
    {
      "anonymous": false,
      "inputs": [
        {
          "indexed": false,
          "name": "redemptionTransactionHash",
          "type": "string"
        },
        {
          "indexed": false,
          "name": "receiptHash",
          "type": "string"
        }
      ],
      "name": "BNDESTokenRedemptionSettlement",
      "type": "event",
      "signature": "0xa86b2b0d4d5df6e286898ddbf13f59ded7b39986717378878be628b878baa4b5"
    },
    {
      "anonymous": false,
      "inputs": [
        {
          "indexed": false,
          "name": "account",
          "type": "address"
        }
      ],
      "name": "Paused",
      "type": "event",
      "signature": "0x62e78cea01bee320cd4e420270b5ea74000d11b0c9f74754ebdbfc544b05a258"
    },
    {
      "anonymous": false,
      "inputs": [
        {
          "indexed": false,
          "name": "account",
          "type": "address"
        }
      ],
      "name": "Unpaused",
      "type": "event",
      "signature": "0x5db9ee0a495bf2e6ff9c91a7834c1ba4fdd244a5e8aa4e537bd38aeae4b073aa"
    },
    {
      "anonymous": false,
      "inputs": [
        {
          "indexed": true,
          "name": "account",
          "type": "address"
        }
      ],
      "name": "PauserAdded",
      "type": "event",
      "signature": "0x6719d08c1888103bea251a4ed56406bd0c3e69723c8a1686e017e7bbe159b6f8"
    },
    {
      "anonymous": false,
      "inputs": [
        {
          "indexed": true,
          "name": "account",
          "type": "address"
        }
      ],
      "name": "PauserRemoved",
      "type": "event",
      "signature": "0xcd265ebaf09df2871cc7bd4133404a235ba12eff2041bb89d9c714a2621c7c7e"
    },
    {
      "anonymous": false,
      "inputs": [
        {
          "indexed": true,
          "name": "from",
          "type": "address"
        },
        {
          "indexed": true,
          "name": "to",
          "type": "address"
        },
        {
          "indexed": false,
          "name": "value",
          "type": "uint256"
        }
      ],
      "name": "Transfer",
      "type": "event",
      "signature": "0xddf252ad1be2c89b69c2b068fc378daa952ba7f163c4a11628f55a4df523b3ef"
    },
    {
      "anonymous": false,
      "inputs": [
        {
          "indexed": true,
          "name": "owner",
          "type": "address"
        },
        {
          "indexed": true,
          "name": "spender",
          "type": "address"
        },
        {
          "indexed": false,
          "name": "value",
          "type": "uint256"
        }
      ],
      "name": "Approval",
      "type": "event",
      "signature": "0x8c5be1e5ebec7d5bd14f71427d1e84f3dd0314c0f7b2291e5b200ac8c7c3b925"
    },
    {
      "anonymous": false,
      "inputs": [
        {
          "indexed": false,
          "name": "addr",
          "type": "address"
        },
        {
          "indexed": false,
          "name": "cnpj",
          "type": "uint256"
        },
        {
          "indexed": false,
          "name": "idFinancialSupportAgreement",
          "type": "uint256"
        },
        {
          "indexed": false,
          "name": "salic",
          "type": "uint256"
        },
        {
          "indexed": false,
          "name": "idProofHash",
          "type": "string"
        }
      ],
      "name": "AccountRegistration",
      "type": "event",
      "signature": "0x51a4cfac9b4f8651b6f6c57772ddeeb9d393c411ae3a2be4aa1394c106bd3e9a"
    },
    {
      "anonymous": false,
      "inputs": [
        {
          "indexed": false,
          "name": "addr",
          "type": "address"
        },
        {
          "indexed": false,
          "name": "cnpj",
          "type": "uint256"
        },
        {
          "indexed": false,
          "name": "idFinancialSupportAgreement",
          "type": "uint256"
        },
        {
          "indexed": false,
          "name": "salic",
          "type": "uint256"
        },
        {
          "indexed": false,
          "name": "idProofHash",
          "type": "string"
        }
      ],
      "name": "AccountChange",
      "type": "event",
      "signature": "0x835c4d8f9bdbdf9782795d8d402350614edd9b8ffa70840bccafd38772ff1c52"
    },
    {
      "anonymous": false,
      "inputs": [
        {
          "indexed": false,
          "name": "addr",
          "type": "address"
        }
      ],
      "name": "AccountValidation",
      "type": "event",
      "signature": "0x4dc67ae38b3a2998081034ecd07cef8b98f45b9229ac9f2ee1052707298a2ea9"
    },
    {
      "anonymous": false,
      "inputs": [
        {
          "indexed": false,
          "name": "addr",
          "type": "address"
        }
      ],
      "name": "AccountInvalidation",
      "type": "event",
      "signature": "0x03454a2dd5c664b443b971b8e477ea5926510d0e93159d57d93293b484c7444f"
    },
    {
      "anonymous": false,
      "inputs": [
        {
          "indexed": true,
          "name": "previousOwner",
          "type": "address"
        },
        {
          "indexed": true,
          "name": "newOwner",
          "type": "address"
        }
      ],
      "name": "OwnershipTransferred",
      "type": "event",
      "signature": "0x8be0079c531659141344cd1fd0a4f28419497f9722a3daafe3b4186f6b6457e0"
    },
    {
      "constant": true,
      "inputs": [],
      "name": "getVersion",
      "outputs": [
        {
          "name": "",
          "type": "uint256"
        }
      ],
      "payable": false,
      "stateMutability": "view",
      "type": "function",
      "signature": "0x0d8e6e2c"
    },
    {
      "constant": false,
      "inputs": [
        {
          "name": "to",
          "type": "address"
        },
        {
          "name": "value",
          "type": "uint256"
        }
      ],
      "name": "transfer",
      "outputs": [
        {
          "name": "",
          "type": "bool"
        }
      ],
      "payable": false,
      "stateMutability": "nonpayable",
      "type": "function",
      "signature": "0xa9059cbb"
    },
    {
      "constant": false,
      "inputs": [
        {
          "name": "value",
          "type": "uint256"
        }
      ],
      "name": "redeem",
      "outputs": [
        {
          "name": "",
          "type": "bool"
        }
      ],
      "payable": false,
      "stateMutability": "nonpayable",
      "type": "function",
      "signature": "0xdb006a75"
    },
    {
      "constant": false,
      "inputs": [
        {
          "name": "redemptionTransactionHash",
          "type": "string"
        },
        {
          "name": "receiptHash",
          "type": "string"
        }
      ],
      "name": "notifyRedemptionSettlement",
      "outputs": [],
      "payable": false,
      "stateMutability": "nonpayable",
      "type": "function",
      "signature": "0x87cf6423"
    },
    {
      "constant": false,
      "inputs": [
        {
          "name": "cnpj",
          "type": "uint256"
        },
        {
          "name": "idFinancialSupportAgreement",
          "type": "uint256"
        },
        {
          "name": "salic",
          "type": "uint256"
        },
        {
          "name": "idProofHash",
          "type": "string"
        }
      ],
      "name": "registryLegalEntity",
      "outputs": [],
      "payable": false,
      "stateMutability": "nonpayable",
      "type": "function",
      "signature": "0x0cc79a50"
    },
    {
      "constant": false,
      "inputs": [
        {
          "name": "cnpj",
          "type": "uint256"
        },
        {
          "name": "idFinancialSupportAgreement",
          "type": "uint256"
        },
        {
          "name": "salic",
          "type": "uint256"
        },
        {
          "name": "idProofHash",
          "type": "string"
        }
      ],
      "name": "changeAccountLegalEntity",
      "outputs": [],
      "payable": false,
      "stateMutability": "nonpayable",
      "type": "function",
      "signature": "0x8bfbc598"
    },
    {
      "constant": false,
      "inputs": [
        {
          "name": "from",
          "type": "address"
        },
        {
          "name": "value",
          "type": "uint256"
        }
      ],
      "name": "burn",
      "outputs": [],
      "payable": false,
      "stateMutability": "nonpayable",
      "type": "function",
      "signature": "0x9dc29fac"
    },
    {
      "constant": false,
      "inputs": [
        {
          "name": "to",
          "type": "address"
        },
        {
          "name": "value",
          "type": "uint256"
        }
      ],
      "name": "mint",
      "outputs": [],
      "payable": false,
      "stateMutability": "nonpayable",
      "type": "function",
      "signature": "0x40c10f19"
    },
    {
      "constant": false,
      "inputs": [
        {
          "name": "from",
          "type": "address"
        },
        {
          "name": "to",
          "type": "address"
        },
        {
          "name": "value",
          "type": "uint256"
        }
      ],
      "name": "transferFrom",
      "outputs": [
        {
          "name": "",
          "type": "bool"
        }
      ],
      "payable": false,
      "stateMutability": "nonpayable",
      "type": "function",
      "signature": "0x23b872dd"
    },
    {
      "constant": false,
      "inputs": [
        {
          "name": "spender",
          "type": "address"
        },
        {
          "name": "value",
          "type": "uint256"
        }
      ],
      "name": "approve",
      "outputs": [
        {
          "name": "",
          "type": "bool"
        }
      ],
      "payable": false,
      "stateMutability": "nonpayable",
      "type": "function",
      "signature": "0x095ea7b3"
    },
    {
      "constant": false,
      "inputs": [
        {
          "name": "spender",
          "type": "address"
        },
        {
          "name": "addedValue",
          "type": "uint256"
        }
      ],
      "name": "increaseAllowance",
      "outputs": [
        {
          "name": "success",
          "type": "bool"
        }
      ],
      "payable": false,
      "stateMutability": "nonpayable",
      "type": "function",
      "signature": "0x39509351"
    },
    {
      "constant": false,
      "inputs": [
        {
          "name": "spender",
          "type": "address"
        },
        {
          "name": "subtractedValue",
          "type": "uint256"
        }
      ],
      "name": "decreaseAllowance",
      "outputs": [
        {
          "name": "success",
          "type": "bool"
        }
      ],
      "payable": false,
      "stateMutability": "nonpayable",
      "type": "function",
      "signature": "0xa457c2d7"
    }
  ],
  "bytecode": "0x60806040526301341535600f556040805190810160405280600a81526020017f424e444553546f6b656e000000000000000000000000000000000000000000008152506040805190810160405280600381526020017f424e4400000000000000000000000000000000000000000000000000000000008152506002336000806101000a81548173ffffffffffffffffffffffffffffffffffffffff021916908373ffffffffffffffffffffffffffffffffffffffff1602179055506000809054906101000a900473ffffffffffffffffffffffffffffffffffffffff1673ffffffffffffffffffffffffffffffffffffffff16600073ffffffffffffffffffffffffffffffffffffffff167f8be0079c531659141344cd1fd0a4f28419497f9722a3daafe3b4186f6b6457e060405160405180910390a333600160006101000a81548173ffffffffffffffffffffffffffffffffffffffff021916908373ffffffffffffffffffffffffffffffffffffffff16021790555033600260006101000a81548173ffffffffffffffffffffffffffffffffffffffff021916908373ffffffffffffffffffffffffffffffffffffffff16021790555033600360006101000a81548173ffffffffffffffffffffffffffffffffffffffff021916908373ffffffffffffffffffffffffffffffffffffffff16021790555033600460006101000a81548173ffffffffffffffffffffffffffffffffffffffff021916908373ffffffffffffffffffffffffffffffffffffffff1602179055506200025433620002c5640100000000026401000000009004565b6000600b60006101000a81548160ff02191690831515021790555082600c90805190602001906200028792919062000487565b5081600d9080519060200190620002a092919062000487565b5080600e60006101000a81548160ff021916908360ff16021790555050505062000536565b620002e981600a6200032f64010000000002620050fe179091906401000000009004565b8073ffffffffffffffffffffffffffffffffffffffff167f6719d08c1888103bea251a4ed56406bd0c3e69723c8a1686e017e7bbe159b6f860405160405180910390a250565b600073ffffffffffffffffffffffffffffffffffffffff168173ffffffffffffffffffffffffffffffffffffffff16141515156200036c57600080fd5b620003878282620003f2640100000000026401000000009004565b1515156200039457600080fd5b60018260000160008373ffffffffffffffffffffffffffffffffffffffff1673ffffffffffffffffffffffffffffffffffffffff16815260200190815260200160002060006101000a81548160ff0219169083151502179055505050565b60008073ffffffffffffffffffffffffffffffffffffffff168273ffffffffffffffffffffffffffffffffffffffff16141515156200043057600080fd5b8260000160008373ffffffffffffffffffffffffffffffffffffffff1673ffffffffffffffffffffffffffffffffffffffff16815260200190815260200160002060009054906101000a900460ff16905092915050565b828054600181600116156101000203166002900490600052602060002090601f016020900481019282601f10620004ca57805160ff1916838001178555620004fb565b82800160010185558215620004fb579182015b82811115620004fa578251825591602001919060010190620004dd565b5b5090506200050a91906200050e565b5090565b6200053391905b808211156200052f57600081600090555060010162000515565b5090565b90565b6152a180620005466000396000f3fe6080604052600436106102ca576000357c0100000000000000000000000000000000000000000000000000000000900463ffffffff16806306fdde03146102cf578063095ea7b31461035f5780630c4471bd146103d25780630cc79a501461043b5780630d8e6e2c1461052157806318160ddd1461054c578063184c89311461057757806323b872dd146105e057806326ff4794146106735780632f54bf6e14610767578063313ce567146107d0578063348da3f214610801578063395093511461086a5780633abba2ef146108dd5780633f4ba83a1461094657806340c10f191461095d57806346336542146109b857806346fbf68e14610a215780634add311014610a8a57806357cdcb3e14610af35780635c975abb14610b4a5780636426a11614610b795780636ef8d66d14610be257806370a0823114610bf9578063715018a614610c5e5780637943653d14610c7557806379b8369e14610cde578063803b8a4214610d3557806382dc1ec414610e1d578063845283de14610e6e5780638456cb5914610ed757806384b7964f14610eee57806385fecf9b14610f57578063876c6e9b14610fc057806387cf6423146110255780638bfbc598146111845780638cbd258f1461126a5780638da5cb5b146112bb5780638f32d59b1461131257806390e42c7e1461134157806395d89b41146113925780639dc29fac146114225780639ee2735b1461147d5780639f5e1ddd146114e2578063a3d88453146115fb578063a457c2d714611664578063a4f335d3146116d7578063a9059cbb1461175c578063b41842b9146117cf578063b7196f3714611820578063b7404ff514611877578063b8e7c21d146118c8578063be49b78d14611931578063c01ed21014611996578063cc7e1b9a146119ff578063db006a7514611a50578063dd62ed3e14611aa3578063e512b1ff14611b28578063f2fde38b14611c35578063f4ec736714611c86575b600080fd5b3480156102db57600080fd5b506102e4611cdd565b6040518080602001828103825283818151815260200191508051906020019080838360005b83811015610324578082015181840152602081019050610309565b50505050905090810190601f1680156103515780820380516001836020036101000a031916815260200191505b509250505060405180910390f35b34801561036b57600080fd5b506103b86004803603604081101561038257600080fd5b81019080803573ffffffffffffffffffffffffffffffffffffffff16906020019092919080359060200190929190505050611d7f565b604051808215151515815260200191505060405180910390f35b3480156103de57600080fd5b50610421600480360360208110156103f557600080fd5b81019080803573ffffffffffffffffffffffffffffffffffffffff169060200190929190505050611e19565b604051808215151515815260200191505060405180910390f35b34801561044757600080fd5b5061051f6004803603608081101561045e57600080fd5b810190808035906020019092919080359060200190929190803590602001909291908035906020019064010000000081111561049957600080fd5b8201836020820111156104ab57600080fd5b803590602001918460018302840111640100000000831117156104cd57600080fd5b91908080601f016020809104026020016040519081016040528093929190818152602001838380828437600081840152601f19601f820116905080830192505050505050509192919290505050611e8b565b005b34801561052d57600080fd5b50610536611eb9565b6040518082815260200191505060405180910390f35b34801561055857600080fd5b50610561611ec3565b6040518082815260200191505060405180910390f35b34801561058357600080fd5b506105c66004803603602081101561059a57600080fd5b81019080803573ffffffffffffffffffffffffffffffffffffffff169060200190929190505050611ecd565b604051808215151515815260200191505060405180910390f35b3480156105ec57600080fd5b506106596004803603606081101561060357600080fd5b81019080803573ffffffffffffffffffffffffffffffffffffffff169060200190929190803573ffffffffffffffffffffffffffffffffffffffff16906020019092919080359060200190929190505050611f30565b604051808215151515815260200191505060405180910390f35b34801561067f57600080fd5b506106c26004803603602081101561069657600080fd5b81019080803573ffffffffffffffffffffffffffffffffffffffff169060200190929190505050611ff1565b60405180868152602001858152602001848152602001806020018360048111156106e857fe5b60ff168152602001828103825284818151815260200191508051906020019080838360005b8381101561072857808201518184015260208101905061070d565b50505050905090810190601f1680156107555780820380516001836020036101000a031916815260200191505b50965050505050505060405180910390f35b34801561077357600080fd5b506107b66004803603602081101561078a57600080fd5b81019080803573ffffffffffffffffffffffffffffffffffffffff1690602001909291905050506120cc565b604051808215151515815260200191505060405180910390f35b3480156107dc57600080fd5b506107e561210b565b604051808260ff1660ff16815260200191505060405180910390f35b34801561080d57600080fd5b506108506004803603602081101561082457600080fd5b81019080803573ffffffffffffffffffffffffffffffffffffffff169060200190929190505050612122565b604051808215151515815260200191505060405180910390f35b34801561087657600080fd5b506108c36004803603604081101561088d57600080fd5b81019080803573ffffffffffffffffffffffffffffffffffffffff169060200190929190803590602001909291905050506121a5565b604051808215151515815260200191505060405180910390f35b3480156108e957600080fd5b5061092c6004803603602081101561090057600080fd5b81019080803573ffffffffffffffffffffffffffffffffffffffff169060200190929190505050612265565b604051808215151515815260200191505060405180910390f35b34801561095257600080fd5b5061095b6122bf565b005b34801561096957600080fd5b506109b66004803603604081101561098057600080fd5b81019080803573ffffffffffffffffffffffffffffffffffffffff1690602001909291908035906020019092919050505061236e565b005b3480156109c457600080fd5b50610a07600480360360208110156109db57600080fd5b81019080803573ffffffffffffffffffffffffffffffffffffffff16906020019092919050505061238f565b604051808215151515815260200191505060405180910390f35b348015610a2d57600080fd5b50610a7060048036036020811015610a4457600080fd5b81019080803573ffffffffffffffffffffffffffffffffffffffff16906020019092919050505061240d565b604051808215151515815260200191505060405180910390f35b348015610a9657600080fd5b50610ad960048036036020811015610aad57600080fd5b81019080803573ffffffffffffffffffffffffffffffffffffffff16906020019092919050505061242a565b604051808215151515815260200191505060405180910390f35b348015610aff57600080fd5b50610b08612484565b604051808273ffffffffffffffffffffffffffffffffffffffff1673ffffffffffffffffffffffffffffffffffffffff16815260200191505060405180910390f35b348015610b5657600080fd5b50610b5f6124ae565b604051808215151515815260200191505060405180910390f35b348015610b8557600080fd5b50610bc860048036036020811015610b9c57600080fd5b81019080803573ffffffffffffffffffffffffffffffffffffffff1690602001909291905050506124c5565b604051808215151515815260200191505060405180910390f35b348015610bee57600080fd5b50610bf7612537565b005b348015610c0557600080fd5b50610c4860048036036020811015610c1c57600080fd5b81019080803573ffffffffffffffffffffffffffffffffffffffff169060200190929190505050612542565b6040518082815260200191505060405180910390f35b348015610c6a57600080fd5b50610c7361258b565b005b348015610c8157600080fd5b50610cc460048036036020811015610c9857600080fd5b81019080803573ffffffffffffffffffffffffffffffffffffffff16906020019092919050505061265d565b604051808215151515815260200191505060405180910390f35b348015610cea57600080fd5b50610cf36126b7565b604051808273ffffffffffffffffffffffffffffffffffffffff1673ffffffffffffffffffffffffffffffffffffffff16815260200191505060405180910390f35b348015610d4157600080fd5b50610e1b60048036036040811015610d5857600080fd5b81019080803573ffffffffffffffffffffffffffffffffffffffff16906020019092919080359060200190640100000000811115610d9557600080fd5b820183602082011115610da757600080fd5b80359060200191846001830284011164010000000083111715610dc957600080fd5b91908080601f016020809104026020016040519081016040528093929190818152602001838380828437600081840152601f19601f8201169050808301925050505050505091929192905050506126e1565b005b348015610e2957600080fd5b50610e6c60048036036020811015610e4057600080fd5b81019080803573ffffffffffffffffffffffffffffffffffffffff169060200190929190505050612a8c565b005b348015610e7a57600080fd5b50610ebd60048036036020811015610e9157600080fd5b81019080803573ffffffffffffffffffffffffffffffffffffffff169060200190929190505050612aac565b604051808215151515815260200191505060405180910390f35b348015610ee357600080fd5b50610eec612b1e565b005b348015610efa57600080fd5b50610f3d60048036036020811015610f1157600080fd5b81019080803573ffffffffffffffffffffffffffffffffffffffff169060200190929190505050612bce565b604051808215151515815260200191505060405180910390f35b348015610f6357600080fd5b50610fa660048036036020811015610f7a57600080fd5b81019080803573ffffffffffffffffffffffffffffffffffffffff169060200190929190505050612c36565b604051808215151515815260200191505060405180910390f35b348015610fcc57600080fd5b5061100f60048036036020811015610fe357600080fd5b81019080803573ffffffffffffffffffffffffffffffffffffffff169060200190929190505050612c90565b6040518082815260200191505060405180910390f35b34801561103157600080fd5b506111826004803603604081101561104857600080fd5b810190808035906020019064010000000081111561106557600080fd5b82018360208201111561107757600080fd5b8035906020019184600183028401116401000000008311171561109957600080fd5b91908080601f016020809104026020016040519081016040528093929190818152602001838380828437600081840152601f19601f820116905080830192505050505050509192919290803590602001906401000000008111156110fc57600080fd5b82018360208201111561110e57600080fd5b8035906020019184600183028401116401000000008311171561113057600080fd5b91908080601f016020809104026020016040519081016040528093929190818152602001838380828437600081840152601f19601f820116905080830192505050505050509192919290505050612cdc565b005b34801561119057600080fd5b50611268600480360360808110156111a757600080fd5b81019080803590602001909291908035906020019092919080359060200190929190803590602001906401000000008111156111e257600080fd5b8201836020820111156111f457600080fd5b8035906020019184600183028401116401000000008311171561121657600080fd5b91908080601f016020809104026020016040519081016040528093929190818152602001838380828437600081840152601f19601f820116905080830192505050505050509192919290505050612ece565b005b34801561127657600080fd5b506112b96004803603602081101561128d57600080fd5b81019080803573ffffffffffffffffffffffffffffffffffffffff169060200190929190505050612f36565b005b3480156112c757600080fd5b506112d0612f8d565b604051808273ffffffffffffffffffffffffffffffffffffffff1673ffffffffffffffffffffffffffffffffffffffff16815260200191505060405180910390f35b34801561131e57600080fd5b50611327612fb6565b604051808215151515815260200191505060405180910390f35b34801561134d57600080fd5b506113906004803603602081101561136457600080fd5b81019080803573ffffffffffffffffffffffffffffffffffffffff16906020019092919050505061300d565b005b34801561139e57600080fd5b506113a7613064565b6040518080602001828103825283818151815260200191508051906020019080838360005b838110156113e75780820151818401526020810190506113cc565b50505050905090810190601f1680156114145780820380516001836020036101000a031916815260200191505b509250505060405180910390f35b34801561142e57600080fd5b5061147b6004803603604081101561144557600080fd5b81019080803573ffffffffffffffffffffffffffffffffffffffff16906020019092919080359060200190929190505050613106565b005b34801561148957600080fd5b506114cc600480360360208110156114a057600080fd5b81019080803573ffffffffffffffffffffffffffffffffffffffff169060200190929190505050613127565b6040518082815260200191505060405180910390f35b3480156114ee57600080fd5b506115316004803603602081101561150557600080fd5b81019080803573ffffffffffffffffffffffffffffffffffffffff1690602001909291905050506131a3565b60405180878152602001868152602001858152602001806020018481526020018373ffffffffffffffffffffffffffffffffffffffff1673ffffffffffffffffffffffffffffffffffffffff168152602001828103825285818151815260200191508051906020019080838360005b838110156115bb5780820151818401526020810190506115a0565b50505050905090810190601f1680156115e85780820380516001836020036101000a031916815260200191505b5097505050505050505060405180910390f35b34801561160757600080fd5b5061164a6004803603602081101561161e57600080fd5b81019080803573ffffffffffffffffffffffffffffffffffffffff1690602001909291905050506133c5565b604051808215151515815260200191505060405180910390f35b34801561167057600080fd5b506116bd6004803603604081101561168757600080fd5b81019080803573ffffffffffffffffffffffffffffffffffffffff1690602001909291908035906020019092919050505061344f565b604051808215151515815260200191505060405180910390f35b3480156116e357600080fd5b5061171a600480360360408110156116fa57600080fd5b81019080803590602001909291908035906020019092919050505061350f565b604051808273ffffffffffffffffffffffffffffffffffffffff1673ffffffffffffffffffffffffffffffffffffffff16815260200191505060405180910390f35b34801561176857600080fd5b506117b56004803603604081101561177f57600080fd5b81019080803573ffffffffffffffffffffffffffffffffffffffff1690602001909291908035906020019092919050505061355e565b604051808215151515815260200191505060405180910390f35b3480156117db57600080fd5b5061181e600480360360208110156117f257600080fd5b81019080803573ffffffffffffffffffffffffffffffffffffffff169060200190929190505050613a7a565b005b34801561182c57600080fd5b50611835613b57565b604051808273ffffffffffffffffffffffffffffffffffffffff1673ffffffffffffffffffffffffffffffffffffffff16815260200191505060405180910390f35b34801561188357600080fd5b506118c66004803603602081101561189a57600080fd5b81019080803573ffffffffffffffffffffffffffffffffffffffff169060200190929190505050613b81565b005b3480156118d457600080fd5b50611917600480360360208110156118eb57600080fd5b81019080803573ffffffffffffffffffffffffffffffffffffffff169060200190929190505050613bd8565b604051808215151515815260200191505060405180910390f35b34801561193d57600080fd5b506119806004803603602081101561195457600080fd5b81019080803573ffffffffffffffffffffffffffffffffffffffff169060200190929190505050613c49565b6040518082815260200191505060405180910390f35b3480156119a257600080fd5b506119e5600480360360208110156119b957600080fd5b81019080803573ffffffffffffffffffffffffffffffffffffffff169060200190929190505050613c95565b604051808215151515815260200191505060405180910390f35b348015611a0b57600080fd5b50611a4e60048036036020811015611a2257600080fd5b81019080803573ffffffffffffffffffffffffffffffffffffffff169060200190929190505050613d18565b005b348015611a5c57600080fd5b50611a8960048036036020811015611a7357600080fd5b8101908080359060200190929190505050613d6f565b604051808215151515815260200191505060405180910390f35b348015611aaf57600080fd5b50611b1260048036036040811015611ac657600080fd5b81019080803573ffffffffffffffffffffffffffffffffffffffff169060200190929190803573ffffffffffffffffffffffffffffffffffffffff169060200190929190505050613da5565b6040518082815260200191505060405180910390f35b348015611b3457600080fd5b50611b6b60048036036040811015611b4b57600080fd5b810190808035906020019092919080359060200190929190505050613e2c565b60405180878152602001868152602001858152602001806020018481526020018373ffffffffffffffffffffffffffffffffffffffff1673ffffffffffffffffffffffffffffffffffffffff168152602001828103825285818151815260200191508051906020019080838360005b83811015611bf5578082015181840152602081019050611bda565b50505050905090810190601f168015611c225780820380516001836020036101000a031916815260200191505b5097505050505050505060405180910390f35b348015611c4157600080fd5b50611c8460048036036020811015611c5857600080fd5b81019080803573ffffffffffffffffffffffffffffffffffffffff169060200190929190505050613e64565b005b348015611c9257600080fd5b50611c9b613e83565b604051808273ffffffffffffffffffffffffffffffffffffffff1673ffffffffffffffffffffffffffffffffffffffff16815260200191505060405180910390f35b6060600c8054600181600116156101000203166002900480601f016020809104026020016040519081016040528092919081815260200182805460018160011615610100020316600290048015611d755780601f10611d4a57610100808354040283529160200191611d75565b820191906000526020600020905b815481529060010190602001808311611d5857829003601f168201915b5050505050905090565b6000600b60009054906101000a900460ff16151515611d9d57600080fd5b60001515611e13576040517f08c379a000000000000000000000000000000000000000000000000000000000815260040180806020018281038252601c8152602001807f556e737570706f72746564206d6574686f64202d20617070726f76650000000081525060200191505060405180910390fd5b92915050565b600060016004811115611e2857fe5b600560008473ffffffffffffffffffffffffffffffffffffffff1673ffffffffffffffffffffffffffffffffffffffff16815260200190815260200160002060040160009054906101000a900460ff166004811115611e8357fe5b149050919050565b600b60009054906101000a900460ff16151515611ea757600080fd5b611eb384848484613ead565b50505050565b6000600f54905090565b6000600954905090565b6000611ed8826120cc565b80611ee85750611ee782612c36565b5b80611ef85750611ef782612265565b5b80611f085750611f078261242a565b5b80611f185750611f178261265d565b5b15611f265760019050611f2b565b600090505b919050565b6000600b60009054906101000a900460ff16151515611f4e57600080fd5b60001515611fea576040517f08c379a00000000000000000000000000000000000000000000000000000000081526004018080602001828103825260218152602001807f556e737570706f72746564206d6574686f64202d207472616e7366657246726f81526020017f6d0000000000000000000000000000000000000000000000000000000000000081525060400191505060405180910390fd5b9392505050565b6005602052806000526040600020600091509050806000015490806001015490806002015490806003018054600181600116156101000203166002900480601f0160208091040260200160405190810160405280929190818152602001828054600181600116156101000203166002900480156120af5780601f10612084576101008083540402835291602001916120af565b820191906000526020600020905b81548152906001019060200180831161209257829003601f168201915b5050505050908060040160009054906101000a900460ff16905085565b60008173ffffffffffffffffffffffffffffffffffffffff166120ed612f8d565b73ffffffffffffffffffffffffffffffffffffffff16149050919050565b6000600e60009054906101000a900460ff16905090565b600061212d8261238f565b801561219e57506002600481111561214157fe5b600560008473ffffffffffffffffffffffffffffffffffffffff1673ffffffffffffffffffffffffffffffffffffffff16815260200190815260200160002060040160009054906101000a900460ff16600481111561219c57fe5b145b9050919050565b6000600b60009054906101000a900460ff161515156121c357600080fd5b6000151561225f576040517f08c379a00000000000000000000000000000000000000000000000000000000081526004018080602001828103825260268152602001807f556e737570706f72746564206d6574686f64202d20696e637265617365416c6c81526020017f6f77616e6365000000000000000000000000000000000000000000000000000081525060400191505060405180910390fd5b92915050565b6000600260009054906101000a900473ffffffffffffffffffffffffffffffffffffffff1673ffffffffffffffffffffffffffffffffffffffff168273ffffffffffffffffffffffffffffffffffffffff16149050919050565b6122c83361240d565b15156122d357600080fd5b600b60009054906101000a900460ff1615156122ee57600080fd5b6000600b60006101000a81548160ff0219169083151502179055507f5db9ee0a495bf2e6ff9c91a7834c1ba4fdd244a5e8aa4e537bd38aeae4b073aa33604051808273ffffffffffffffffffffffffffffffffffffffff1673ffffffffffffffffffffffffffffffffffffffff16815260200191505060405180910390a1565b612376612fb6565b151561238157600080fd5b61238b8282614263565b5050565b600061239a82611ecd565b156123a85760009050612408565b6123b1826133c5565b156123bf5760009050612408565b6000600560008473ffffffffffffffffffffffffffffffffffffffff1673ffffffffffffffffffffffffffffffffffffffff168152602001908152602001600020600101541490505b919050565b600061242382600a6143b990919063ffffffff16565b9050919050565b6000600360009054906101000a900473ffffffffffffffffffffffffffffffffffffffff1673ffffffffffffffffffffffffffffffffffffffff168273ffffffffffffffffffffffffffffffffffffffff16149050919050565b6000600360009054906101000a900473ffffffffffffffffffffffffffffffffffffffff16905090565b6000600b60009054906101000a900460ff16905090565b6000600260048111156124d457fe5b600560008473ffffffffffffffffffffffffffffffffffffffff1673ffffffffffffffffffffffffffffffffffffffff16815260200190815260200160002060040160009054906101000a900460ff16600481111561252f57fe5b149050919050565b6125403361444d565b565b6000600760008373ffffffffffffffffffffffffffffffffffffffff1673ffffffffffffffffffffffffffffffffffffffff168152602001908152602001600020549050919050565b612593612fb6565b151561259e57600080fd5b600073ffffffffffffffffffffffffffffffffffffffff166000809054906101000a900473ffffffffffffffffffffffffffffffffffffffff1673ffffffffffffffffffffffffffffffffffffffff167f8be0079c531659141344cd1fd0a4f28419497f9722a3daafe3b4186f6b6457e060405160405180910390a360008060006101000a81548173ffffffffffffffffffffffffffffffffffffffff021916908373ffffffffffffffffffffffffffffffffffffffff160217905550565b6000600460009054906101000a900473ffffffffffffffffffffffffffffffffffffffff1673ffffffffffffffffffffffffffffffffffffffff168273ffffffffffffffffffffffffffffffffffffffff16149050919050565b6000600460009054906101000a900473ffffffffffffffffffffffffffffffffffffffff16905090565b6126e9612fb6565b15156126f457600080fd5b6001600481111561270157fe5b600560008473ffffffffffffffffffffffffffffffffffffffff1673ffffffffffffffffffffffffffffffffffffffff16815260200190815260200160002060040160009054906101000a900460ff16600481111561275c57fe5b1415156127f7576040517f08c379a00000000000000000000000000000000000000000000000000000000081526004018080602001828103825260368152602001807f4120636f6e74612070726563697361206573746172206e6f2065737461646f2081526020017f416775617264616e646f2056616c696461c3a7c3a36f0000000000000000000081525060400191505060405180910390fd5b806040516020018082805190602001908083835b602083101515612830578051825260208201915060208101905060208303925061280b565b6001836020036101000a03801982511681845116808217855250505050505090500191505060405160208183030381529060405280519060200120600560008473ffffffffffffffffffffffffffffffffffffffff1673ffffffffffffffffffffffffffffffffffffffff168152602001908152602001600020600301604051602001808280546001816001161561010002031660029004801561290b5780601f106128e957610100808354040283529182019161290b565b820191906000526020600020905b8154815290600101906020018083116128f7575b5050915050604051602081830303815290604052805190602001201415156129c1576040517f08c379a00000000000000000000000000000000000000000000000000000000081526004018080602001828103825260288152602001807f4f206861736820726563656269646f20c3a9206469666572656e746520646f2081526020017f657370657261646f00000000000000000000000000000000000000000000000081525060400191505060405180910390fd5b6002600560008473ffffffffffffffffffffffffffffffffffffffff1673ffffffffffffffffffffffffffffffffffffffff16815260200190815260200160002060040160006101000a81548160ff02191690836004811115612a2057fe5b02179055507f4dc67ae38b3a2998081034ecd07cef8b98f45b9229ac9f2ee1052707298a2ea982604051808273ffffffffffffffffffffffffffffffffffffffff1673ffffffffffffffffffffffffffffffffffffffff16815260200191505060405180910390a15050565b612a953361240d565b1515612aa057600080fd5b612aa9816144a7565b50565b600060036004811115612abb57fe5b600560008473ffffffffffffffffffffffffffffffffffffffff1673ffffffffffffffffffffffffffffffffffffffff16815260200190815260200160002060040160009054906101000a900460ff166004811115612b1657fe5b149050919050565b612b273361240d565b1515612b3257600080fd5b600b60009054906101000a900460ff16151515612b4e57600080fd5b6001600b60006101000a81548160ff0219169083151502179055507f62e78cea01bee320cd4e420270b5ea74000d11b0c9f74754ebdbfc544b05a25833604051808273ffffffffffffffffffffffffffffffffffffffff1673ffffffffffffffffffffffffffffffffffffffff16815260200191505060405180910390a1565b6000612bd982611ecd565b15612be75760009050612c31565b6000600560008473ffffffffffffffffffffffffffffffffffffffff1673ffffffffffffffffffffffffffffffffffffffff16815260200190815260200160002060010154141590505b919050565b6000600160009054906101000a900473ffffffffffffffffffffffffffffffffffffffff1673ffffffffffffffffffffffffffffffffffffffff168273ffffffffffffffffffffffffffffffffffffffff16149050919050565b6000600560008373ffffffffffffffffffffffffffffffffffffffff1673ffffffffffffffffffffffffffffffffffffffff168152602001908152602001600020600101549050919050565b600b60009054906101000a900460ff16151515612cf857600080fd5b612d0133612c36565b1515612dc1576040517f08c379a00000000000000000000000000000000000000000000000000000000081526004018080602001828103825260548152602001807f41206c697175696461c3a7c3a36f2073c3b3206ec3a36f20706f64652073657281526020017f207265616c697a6164612070656c6f20656e64657265c3a76f2071756520737581526020017f626d657465752061207472616e7361c3a7c3a36f00000000000000000000000081525060600191505060405180910390fd5b7fa86b2b0d4d5df6e286898ddbf13f59ded7b39986717378878be628b878baa4b58282604051808060200180602001838103835285818151815260200191508051906020019080838360005b83811015612e28578082015181840152602081019050612e0d565b50505050905090810190601f168015612e555780820380516001836020036101000a031916815260200191505b50838103825284818151815260200191508051906020019080838360005b83811015612e8e578082015181840152602081019050612e73565b50505050905090810190601f168015612ebb5780820380516001836020036101000a031916815260200191505b5094505050505060405180910390a15050565b600b60009054906101000a900460ff16151515612eea57600080fd5b6000612ef6858561350f565b90506000339050612f0986868686614501565b6000612f1483612542565b1115612f2e57612f2d8282612f2885612542565b614c0e565b5b505050505050565b612f3e612fb6565b1515612f4957600080fd5b80600260006101000a81548173ffffffffffffffffffffffffffffffffffffffff021916908373ffffffffffffffffffffffffffffffffffffffff16021790555050565b60008060009054906101000a900473ffffffffffffffffffffffffffffffffffffffff16905090565b60008060009054906101000a900473ffffffffffffffffffffffffffffffffffffffff1673ffffffffffffffffffffffffffffffffffffffff163373ffffffffffffffffffffffffffffffffffffffff1614905090565b613015612fb6565b151561302057600080fd5b80600360006101000a81548173ffffffffffffffffffffffffffffffffffffffff021916908373ffffffffffffffffffffffffffffffffffffffff16021790555050565b6060600d8054600181600116156101000203166002900480601f0160208091040260200160405190810160405280929190818152602001828054600181600116156101000203166002900480156130fc5780601f106130d1576101008083540402835291602001916130fc565b820191906000526020600020905b8154815290600101906020018083116130df57829003601f168201915b5050505050905090565b61310e612fb6565b151561311957600080fd5b6131238282614dde565b5050565b600061313282611ecd565b15613140576064905061319e565b600560008373ffffffffffffffffffffffffffffffffffffffff1673ffffffffffffffffffffffffffffffffffffffff16815260200190815260200160002060040160009054906101000a900460ff16600481111561319b57fe5b90505b919050565b60008060006060600080600560008873ffffffffffffffffffffffffffffffffffffffff1673ffffffffffffffffffffffffffffffffffffffff16815260200190815260200160002060000154600560008973ffffffffffffffffffffffffffffffffffffffff1673ffffffffffffffffffffffffffffffffffffffff16815260200190815260200160002060010154600560008a73ffffffffffffffffffffffffffffffffffffffff1673ffffffffffffffffffffffffffffffffffffffff16815260200190815260200160002060020154600560008b73ffffffffffffffffffffffffffffffffffffffff1673ffffffffffffffffffffffffffffffffffffffff168152602001908152602001600020600301600560008c73ffffffffffffffffffffffffffffffffffffffff1673ffffffffffffffffffffffffffffffffffffffff16815260200190815260200160002060040160009054906101000a900460ff16600481111561331357fe5b8b828054600181600116156101000203166002900480601f0160208091040260200160405190810160405280929190818152602001828054600181600116156101000203166002900480156133a95780601f1061337e576101008083540402835291602001916133a9565b820191906000526020600020905b81548152906001019060200180831161338c57829003601f168201915b5050505050925095509550955095509550955091939550919395565b60006133d082611ecd565b156133de576000905061344a565b600060048111156133eb57fe5b600560008473ffffffffffffffffffffffffffffffffffffffff1673ffffffffffffffffffffffffffffffffffffffff16815260200190815260200160002060040160009054906101000a900460ff16600481111561344657fe5b1490505b919050565b6000600b60009054906101000a900460ff1615151561346d57600080fd5b60001515613509576040517f08c379a00000000000000000000000000000000000000000000000000000000081526004018080602001828103825260268152602001807f556e737570706f72746564206d6574686f64202d206465637265617365416c6c81526020017f6f77616e6365000000000000000000000000000000000000000000000000000081525060400191505060405180910390fd5b92915050565b600060066000848152602001908152602001600020600083815260200190815260200160002060009054906101000a900473ffffffffffffffffffffffffffffffffffffffff16905092915050565b6000600b60009054906101000a900460ff1615151561357c57600080fd5b60003390508373ffffffffffffffffffffffffffffffffffffffff168173ffffffffffffffffffffffffffffffffffffffff161415151561364b576040517f08c379a00000000000000000000000000000000000000000000000000000000081526004018080602001828103825260288152602001807f4ec3a36f20706f6465207472616e73666572697220746f6b656e20706172612081526020017f7369206d65736d6f00000000000000000000000000000000000000000000000081525060400191505060405180910390fd5b6136548161242a565b156137625761366284613c95565b15156136fc576040517f08c379a000000000000000000000000000000000000000000000000000000000815260040180806020018281038252603d8152602001807f4f20656e64657265c3a76f206ec3a36f2070657274656e6365206120756d206381526020017f6c69656e7465206f75206ec3a36f20657374c3a12076616c696461646100000081525060400191505060405180910390fd5b6137068484614263565b7f17402d7e9c93e5755ce4b9008c259de5059b180920a13885be54ebaf02e8111961373085613c49565b61373986612c90565b8560405180848152602001838152602001828152602001935050505060405180910390a1613a6f565b61376b8461265d565b1561388f5761377981612122565b1515613839576040517f08c379a00000000000000000000000000000000000000000000000000000000081526004018080602001828103825260498152602001807f4120636f6e746120646f20656e64657265c3a76f206ec3a36f2070657274656e81526020017f6365206120756d20666f726e656365646f72206f75206ec3a36f20657374c3a181526020017f2076616c6964616461000000000000000000000000000000000000000000000081525060600191505060405180910390fd5b6138438184614dde565b7f0a7caeac328e6212d649fc5f567f0b41d91ff5eb5fa01c647a7888b52f41af2561386d82613c49565b84604051808381526020018281526020019250505060405180910390a1613a6e565b61389881613c95565b1515613932576040517f08c379a000000000000000000000000000000000000000000000000000000000815260040180806020018281038252603d8152602001807f4f20656e64657265c3a76f206ec3a36f2070657274656e6365206120756d206381526020017f6c69656e7465206f75206ec3a36f20657374c3a12076616c696461646100000081525060400191505060405180910390fd5b61393b84612122565b15156139fb576040517f08c379a00000000000000000000000000000000000000000000000000000000081526004018080602001828103825260498152602001807f4120636f6e746120646f20656e64657265c3a76f206ec3a36f2070657274656e81526020017f6365206120756d20666f726e656365646f72206f75206ec3a36f20657374c3a181526020017f2076616c6964616461000000000000000000000000000000000000000000000081525060600191505060405180910390fd5b613a06338585614c0e565b7f675c75f5a4f583261cd1cca8d5fc670ce610221d8ec5cd2c74bb949f1cefd5b3613a3082613c49565b613a3983612c90565b613a4287613c49565b866040518085815260200184815260200183815260200182815260200194505050505060405180910390a15b5b600191505092915050565b613a82612fb6565b1515613a8d57600080fd5b6003600560008373ffffffffffffffffffffffffffffffffffffffff1673ffffffffffffffffffffffffffffffffffffffff16815260200190815260200160002060040160006101000a81548160ff02191690836004811115613aec57fe5b02179055507f03454a2dd5c664b443b971b8e477ea5926510d0e93159d57d93293b484c7444f81604051808273ffffffffffffffffffffffffffffffffffffffff1673ffffffffffffffffffffffffffffffffffffffff16815260200191505060405180910390a150565b6000600260009054906101000a900473ffffffffffffffffffffffffffffffffffffffff16905090565b613b89612fb6565b1515613b9457600080fd5b80600160006101000a81548173ffffffffffffffffffffffffffffffffffffffff021916908373ffffffffffffffffffffffffffffffffffffffff16021790555050565b6000600480811115613be657fe5b600560008473ffffffffffffffffffffffffffffffffffffffff1673ffffffffffffffffffffffffffffffffffffffff16815260200190815260200160002060040160009054906101000a900460ff166004811115613c4157fe5b149050919050565b6000600560008373ffffffffffffffffffffffffffffffffffffffff1673ffffffffffffffffffffffffffffffffffffffff168152602001908152602001600020600001549050919050565b6000613ca082612bce565b8015613d11575060026004811115613cb457fe5b600560008473ffffffffffffffffffffffffffffffffffffffff1673ffffffffffffffffffffffffffffffffffffffff16815260200190815260200160002060040160009054906101000a900460ff166004811115613d0f57fe5b145b9050919050565b613d20612fb6565b1515613d2b57600080fd5b80600460006101000a81548173ffffffffffffffffffffffffffffffffffffffff021916908373ffffffffffffffffffffffffffffffffffffffff16021790555050565b6000600b60009054906101000a900460ff16151515613d8d57600080fd5b613d9e613d986126b7565b8361355e565b9050919050565b6000600860008473ffffffffffffffffffffffffffffffffffffffff1673ffffffffffffffffffffffffffffffffffffffff16815260200190815260200160002060008373ffffffffffffffffffffffffffffffffffffffff1673ffffffffffffffffffffffffffffffffffffffff16815260200190815260200160002054905092915050565b600080600060606000806000613e42898961350f565b9050613e4d816131a3565b965096509650965096509650509295509295509295565b613e6c612fb6565b1515613e7757600080fd5b613e8081614f34565b50565b6000600160009054906101000a900473ffffffffffffffffffffffffffffffffffffffff16905090565b6000339050613ebb816133c5565b1515613f55576040517f08c379a00000000000000000000000000000000000000000000000000000000081526004018080602001828103825260358152602001807f456e64657265c3a76f206ec3a36f20706f646520746572207369646f2063616481526020017f6173747261646f20616e746572696f726d656e7465000000000000000000000081525060400191505060405180910390fd5b60a06040519081016040528086815260200185815260200184815260200183815260200160016004811115613f8657fe5b815250600560008373ffffffffffffffffffffffffffffffffffffffff1673ffffffffffffffffffffffffffffffffffffffff16815260200190815260200160002060008201518160000155602082015181600101556040820151816002015560608201518160030190805190602001906140029291906151d0565b5060808201518160040160006101000a81548160ff0219169083600481111561402757fe5b02179055509050506000841115614111576000614044868661350f565b905061404f816133c5565b151561410f576040517f08c379a00000000000000000000000000000000000000000000000000000000081526004018080602001828103825260478152602001807f5375626372656469746f206ac3a120657374c3a1206173736f636961646f206181526020017f206f7574726f20656e64657265c3a76f2e2055736520612066756ec3a7c3a36f81526020017f2054726f63612e0000000000000000000000000000000000000000000000000081525060600191505060405180910390fd5b505b8060066000878152602001908152602001600020600086815260200190815260200160002060006101000a81548173ffffffffffffffffffffffffffffffffffffffff021916908373ffffffffffffffffffffffffffffffffffffffff1602179055507f51a4cfac9b4f8651b6f6c57772ddeeb9d393c411ae3a2be4aa1394c106bd3e9a8186868686604051808673ffffffffffffffffffffffffffffffffffffffff1673ffffffffffffffffffffffffffffffffffffffff16815260200185815260200184815260200183815260200180602001828103825283818151815260200191508051906020019080838360005b8381101561421e578082015181840152602081019050614203565b50505050905090810190601f16801561424b5780820380516001836020036101000a031916815260200191505b50965050505050505060405180910390a15050505050565b600073ffffffffffffffffffffffffffffffffffffffff168273ffffffffffffffffffffffffffffffffffffffff161415151561429f57600080fd5b6142b48160095461502e90919063ffffffff16565b60098190555061430c81600760008573ffffffffffffffffffffffffffffffffffffffff1673ffffffffffffffffffffffffffffffffffffffff1681526020019081526020016000205461502e90919063ffffffff16565b600760008473ffffffffffffffffffffffffffffffffffffffff1673ffffffffffffffffffffffffffffffffffffffff168152602001908152602001600020819055508173ffffffffffffffffffffffffffffffffffffffff16600073ffffffffffffffffffffffffffffffffffffffff167fddf252ad1be2c89b69c2b068fc378daa952ba7f163c4a11628f55a4df523b3ef836040518082815260200191505060405180910390a35050565b60008073ffffffffffffffffffffffffffffffffffffffff168273ffffffffffffffffffffffffffffffffffffffff16141515156143f657600080fd5b8260000160008373ffffffffffffffffffffffffffffffffffffffff1673ffffffffffffffffffffffffffffffffffffffff16815260200190815260200160002060009054906101000a900460ff16905092915050565b61446181600a61504f90919063ffffffff16565b8073ffffffffffffffffffffffffffffffffffffffff167fcd265ebaf09df2871cc7bd4133404a235ba12eff2041bb89d9c714a2621c7c7e60405160405180910390a250565b6144bb81600a6150fe90919063ffffffff16565b8073ffffffffffffffffffffffffffffffffffffffff167f6719d08c1888103bea251a4ed56406bd0c3e69723c8a1686e017e7bbe159b6f860405160405180910390a250565b60003390506000614512868661350f565b905061451d81611ecd565b1515156145b8576040517f08c379a000000000000000000000000000000000000000000000000000000000815260040180806020018281038252602d8152602001807f4ec3a36f20706f64652074726f63617220656e64657265c3a76f20646520636f81526020017f6e7461207265736572766164610000000000000000000000000000000000000081525060400191505060405180910390fd5b6145c1816133c5565b15151561465c576040517f08c379a000000000000000000000000000000000000000000000000000000000815260040180806020018281038252603c8152602001807f54656d2071756520686176657220756d20656e64657265c3a76f206173736f6381526020017f6961646f2061206573736520636e706a2f7375626372c3a96469746f0000000081525060400191505060405180910390fd5b614665826133c5565b15156146ff576040517f08c379a00000000000000000000000000000000000000000000000000000000081526004018080602001828103825260258152602001807f4e6f766f20656e64657265c3a76f206ec3a36f20657374c3a120646973706f6e81526020017fc3ad76656c00000000000000000000000000000000000000000000000000000081525060400191505060405180910390fd5b8073ffffffffffffffffffffffffffffffffffffffff168273ffffffffffffffffffffffffffffffffffffffff16141515156147c9576040517f08c379a000000000000000000000000000000000000000000000000000000000815260040180806020018281038252602d8152602001807f4f20656e64657265c3a76f206e6f766f2064657665207365722064696665726581526020017f6e746520646f20616e7469676f0000000000000000000000000000000000000081525060400191505060405180910390fd5b85600560008373ffffffffffffffffffffffffffffffffffffffff1673ffffffffffffffffffffffffffffffffffffffff1681526020019081526020016000206000015414801561485b575084600560008373ffffffffffffffffffffffffffffffffffffffff1673ffffffffffffffffffffffffffffffffffffffff16815260200190815260200160002060010154145b15156148f5576040517f08c379a000000000000000000000000000000000000000000000000000000000815260040180806020018281038252602b8152602001807f4461646f7320696e636f6e73697374656e74657320646520636e706a206f752081526020017f7375626372c3a96469746f00000000000000000000000000000000000000000081525060400191505060405180910390fd5b60a0604051908101604052808781526020018681526020018581526020018481526020016001600481111561492657fe5b815250600560008473ffffffffffffffffffffffffffffffffffffffff1673ffffffffffffffffffffffffffffffffffffffff16815260200190815260200160002060008201518160000155602082015181600101556040820151816002015560608201518160030190805190602001906149a29291906151d0565b5060808201518160040160006101000a81548160ff021916908360048111156149c757fe5b021790555090505060a06040519081016040528060008152602001600081526020016000815260200160206040519081016040528060008152508152602001600480811115614a1257fe5b815250600560008373ffffffffffffffffffffffffffffffffffffffff1673ffffffffffffffffffffffffffffffffffffffff1681526020019081526020016000206000820151816000015560208201518160010155604082015181600201556060820151816003019080519060200190614a8e9291906151d0565b5060808201518160040160006101000a81548160ff02191690836004811115614ab357fe5b02179055509050508160066000888152602001908152602001600020600087815260200190815260200160002060006101000a81548173ffffffffffffffffffffffffffffffffffffffff021916908373ffffffffffffffffffffffffffffffffffffffff1602179055507f835c4d8f9bdbdf9782795d8d402350614edd9b8ffa70840bccafd38772ff1c528287878787604051808673ffffffffffffffffffffffffffffffffffffffff1673ffffffffffffffffffffffffffffffffffffffff16815260200185815260200184815260200183815260200180602001828103825283818151815260200191508051906020019080838360005b83811015614bc8578082015181840152602081019050614bad565b50505050905090810190601f168015614bf55780820380516001836020036101000a031916815260200191505b50965050505050505060405180910390a1505050505050565b600073ffffffffffffffffffffffffffffffffffffffff168273ffffffffffffffffffffffffffffffffffffffff1614151515614c4a57600080fd5b614c9c81600760008673ffffffffffffffffffffffffffffffffffffffff1673ffffffffffffffffffffffffffffffffffffffff168152602001908152602001600020546151ae90919063ffffffff16565b600760008573ffffffffffffffffffffffffffffffffffffffff1673ffffffffffffffffffffffffffffffffffffffff16815260200190815260200160002081905550614d3181600760008573ffffffffffffffffffffffffffffffffffffffff1673ffffffffffffffffffffffffffffffffffffffff1681526020019081526020016000205461502e90919063ffffffff16565b600760008473ffffffffffffffffffffffffffffffffffffffff1673ffffffffffffffffffffffffffffffffffffffff168152602001908152602001600020819055508173ffffffffffffffffffffffffffffffffffffffff168373ffffffffffffffffffffffffffffffffffffffff167fddf252ad1be2c89b69c2b068fc378daa952ba7f163c4a11628f55a4df523b3ef836040518082815260200191505060405180910390a3505050565b600073ffffffffffffffffffffffffffffffffffffffff168273ffffffffffffffffffffffffffffffffffffffff1614151515614e1a57600080fd5b614e2f816009546151ae90919063ffffffff16565b600981905550614e8781600760008573ffffffffffffffffffffffffffffffffffffffff1673ffffffffffffffffffffffffffffffffffffffff168152602001908152602001600020546151ae90919063ffffffff16565b600760008473ffffffffffffffffffffffffffffffffffffffff1673ffffffffffffffffffffffffffffffffffffffff16815260200190815260200160002081905550600073ffffffffffffffffffffffffffffffffffffffff168273ffffffffffffffffffffffffffffffffffffffff167fddf252ad1be2c89b69c2b068fc378daa952ba7f163c4a11628f55a4df523b3ef836040518082815260200191505060405180910390a35050565b600073ffffffffffffffffffffffffffffffffffffffff168173ffffffffffffffffffffffffffffffffffffffff1614151515614f7057600080fd5b8073ffffffffffffffffffffffffffffffffffffffff166000809054906101000a900473ffffffffffffffffffffffffffffffffffffffff1673ffffffffffffffffffffffffffffffffffffffff167f8be0079c531659141344cd1fd0a4f28419497f9722a3daafe3b4186f6b6457e060405160405180910390a3806000806101000a81548173ffffffffffffffffffffffffffffffffffffffff021916908373ffffffffffffffffffffffffffffffffffffffff16021790555050565b600080828401905083811015151561504557600080fd5b8091505092915050565b600073ffffffffffffffffffffffffffffffffffffffff168173ffffffffffffffffffffffffffffffffffffffff161415151561508b57600080fd5b61509582826143b9565b15156150a057600080fd5b60008260000160008373ffffffffffffffffffffffffffffffffffffffff1673ffffffffffffffffffffffffffffffffffffffff16815260200190815260200160002060006101000a81548160ff0219169083151502179055505050565b600073ffffffffffffffffffffffffffffffffffffffff168173ffffffffffffffffffffffffffffffffffffffff161415151561513a57600080fd5b61514482826143b9565b15151561515057600080fd5b60018260000160008373ffffffffffffffffffffffffffffffffffffffff1673ffffffffffffffffffffffffffffffffffffffff16815260200190815260200160002060006101000a81548160ff0219169083151502179055505050565b60008282111515156151bf57600080fd5b600082840390508091505092915050565b828054600181600116156101000203166002900490600052602060002090601f016020900481019282601f1061521157805160ff191683800117855561523f565b8280016001018555821561523f579182015b8281111561523e578251825591602001919060010190615223565b5b50905061524c9190615250565b5090565b61527291905b8082111561526e576000816000905550600101615256565b5090565b9056fea165627a7a72305820da6073cc1bb2633e53793523e0c44df3938485a931f18ea7a15a398933f9fbcc0029",
  "source": "pragma solidity ^0.5.0;\r\n\r\nimport \"openzeppelin-solidity/contracts/token/ERC20/ERC20Pausable.sol\";\r\nimport \"openzeppelin-solidity/contracts/token/ERC20/ERC20Detailed.sol\";\r\nimport \"./BNDESRegistry.sol\";\r\n\r\n\r\ncontract BNDESToken is BNDESRegistry, ERC20Pausable, ERC20Detailed(\"BNDESToken\", \"BND\", 2) {\r\n\r\n    uint private version = 20190517;\r\n\r\n    event BNDESTokenDisbursement(uint cnpj, uint idFinancialSupportAgreement, uint256 value);\r\n    event BNDESTokenTransfer(uint fromCnpj, uint fromIdFinancialSupportAgreement, uint toCnpj, uint256 value);\r\n    event BNDESTokenRedemption(uint cnpj, uint256 value);\r\n    event BNDESTokenRedemptionSettlement(string redemptionTransactionHash, string receiptHash);\r\n\r\n\r\n    function getVersion() view public returns (uint) {\r\n        return version;\r\n    }\r\n\r\n\r\n    function transfer (address to, uint256 value) public whenNotPaused returns (bool) {\r\n\r\n        address from = msg.sender;\r\n\r\n        require(from != to, \"No pode transferir token para si mesmo\");\r\n\r\n        if (isResponsibleForDisbursement(from)) {\r\n\r\n            require(isValidatedClient(to), \"O endereo no pertence a um cliente ou no est validada\");\r\n\r\n            _mint(to, value);\r\n\r\n            emit BNDESTokenDisbursement(getCNPJ(to), getIdLegalFinancialAgreement(to), value);\r\n\r\n        } else { \r\n\r\n            if (isRedemptionAddress(to)) { \r\n\r\n                require(isValidatedSupplier(from), \"A conta do endereo no pertence a um fornecedor ou no est validada\");\r\n\r\n                _burn(from, value);\r\n\r\n                emit BNDESTokenRedemption(getCNPJ(from), value);\r\n\r\n            } else {\r\n\r\n                // Se nem from nem to so o Banco, eh transferencia normal\r\n\r\n                require(isValidatedClient(from), \"O endereo no pertence a um cliente ou no est validada\");\r\n                require(isValidatedSupplier(to), \"A conta do endereo no pertence a um fornecedor ou no est validada\");\r\n\r\n                _transfer(msg.sender, to, value);\r\n\r\n                emit BNDESTokenTransfer(getCNPJ(from), getIdLegalFinancialAgreement(from), getCNPJ(to), value);\r\n  \r\n            }\r\n        }\r\n\r\n        return true;\r\n    }\r\n\r\n\r\n    function redeem (uint256 value) public whenNotPaused returns (bool) {\r\n        return transfer(getRedemptionAddress(), value);\r\n    }\r\n\r\n\r\n    function notifyRedemptionSettlement(string memory redemptionTransactionHash, string memory receiptHash) \r\n        public whenNotPaused {\r\n        require (isResponsibleForSettlement(msg.sender), \"A liquidao s no pode ser realizada pelo endereo que submeteu a transao\"); \r\n        emit BNDESTokenRedemptionSettlement(redemptionTransactionHash, receiptHash);\r\n    }\r\n\r\n\r\n    function registryLegalEntity(uint cnpj, uint idFinancialSupportAgreement, uint salic, string memory idProofHash) \r\n        public whenNotPaused { \r\n        super.registryLegalEntity( cnpj,  idFinancialSupportAgreement,  salic, idProofHash);\r\n    }\r\n\r\n    function changeAccountLegalEntity(uint cnpj, uint idFinancialSupportAgreement, uint salic, string memory idProofHash) \r\n        public whenNotPaused {\r\n        \r\n        address oldAddr = getBlockchainAccount(cnpj, idFinancialSupportAgreement);\r\n        address newAddr = msg.sender;\r\n        \r\n        super.changeAccountLegalEntity(cnpj, idFinancialSupportAgreement, salic, idProofHash);\r\n\r\n        // Se h saldo no enderecoAntigo, precisa transferir\r\n        if (balanceOf(oldAddr) > 0) {\r\n            _transfer(oldAddr, newAddr, balanceOf(oldAddr));\r\n        }\r\n\r\n    }\r\n\r\n    //These methods may be necessary to solve incidents.\r\n    function burn(address from, uint256 value) public onlyOwner {\r\n        _burn(from, value);\r\n    }\r\n\r\n    function mint(address to, uint256 value) public onlyOwner {\r\n        _mint(to, value);\r\n    }\r\n\r\n\r\n    //Unsupported methods\r\n    function transferFrom(address from, address to, uint256 value) public whenNotPaused returns (bool) {\r\n        require(false, \"Unsupported method - transferFrom\");\r\n    }\r\n\r\n    function approve(address spender, uint256 value) public whenNotPaused returns (bool) {\r\n        require(false, \"Unsupported method - approve\");\r\n    }\r\n\r\n    function increaseAllowance(address spender, uint addedValue) public whenNotPaused returns (bool success) {\r\n        require(false, \"Unsupported method - increaseAllowance\");\r\n    }\r\n\r\n    function decreaseAllowance(address spender, uint subtractedValue) public whenNotPaused returns (bool success) {\r\n        require(false, \"Unsupported method - decreaseAllowance\");\r\n    }\r\n\r\n\r\n\r\n}",
  "sourcePath": "D:/Workspace/bndestoken/Back-Blockchain/contracts/BNDESToken.sol",
  "compiler": {
    "name": "solc",
    "version": "0.5.0+commit.1d4f565a.Emscripten.clang"
  },
  "schemaVersion": "3.0.5",
  "updatedAt": "2019-05-21T19:02:53.169Z",
  "devdoc": {
    "methods": {
      "allowance(address,address)": {
        "details": "Function to check the amount of tokens that an owner allowed to a spender.",
        "params": {
          "owner": "address The address which owns the funds.",
          "spender": "address The address which will spend the funds."
        },
        "return": "A uint256 specifying the amount of tokens still available for the spender."
      },
      "balanceOf(address)": {
        "details": "Gets the balance of the specified address.",
        "params": {
          "owner": "The address to query the balance of."
        },
        "return": "An uint256 representing the amount owned by the passed address."
      },
      "decimals()": {
        "return": "the number of decimals of the token."
      },
      "isOwner()": {
        "return": "true if `msg.sender` is the owner of the contract."
      },
      "name()": {
        "return": "the name of the token."
      },
      "owner()": {
        "return": "the address of the owner."
      },
      "pause()": {
        "details": "called by the owner to pause, triggers stopped state"
      },
      "paused()": {
        "return": "true if the contract is paused, false otherwise."
      },
      "renounceOwnership()": {
        "details": "Allows the current owner to relinquish control of the contract."
      },
      "symbol()": {
        "return": "the symbol of the token."
      },
      "totalSupply()": {
        "details": "Total number of tokens in existence"
      },
      "transferOwnership(address)": {
        "details": "Allows the current owner to transfer control of the contract to a newOwner.",
        "params": {
          "newOwner": "The address to transfer ownership to."
        }
      },
      "unpause()": {
        "details": "called by the owner to unpause, returns to normal state"
      }
    }
  },
  "userdoc": {
    "methods": {
      "renounceOwnership()": {
        "notice": "Renouncing to ownership will leave the contract without an owner. It will not be possible to call the functions with the `onlyOwner` modifier anymore."
      }
    }
  }
}