{
  "contractName": "BNDESToken",
  "abi": [
    {
      "constant": true,
      "inputs": [],
      "name": "name",
      "outputs": [
        {
          "name": "",
          "type": "string"
        }
      ],
      "payable": false,
      "stateMutability": "view",
      "type": "function",
      "signature": "0x06fdde03"
    },
    {
      "constant": false,
      "inputs": [
        {
          "name": "spender",
          "type": "address"
        },
        {
          "name": "value",
          "type": "uint256"
        }
      ],
      "name": "approve",
      "outputs": [
        {
          "name": "",
          "type": "bool"
        }
      ],
      "payable": false,
      "stateMutability": "nonpayable",
      "type": "function",
      "signature": "0x095ea7b3"
    },
    {
      "constant": true,
      "inputs": [],
      "name": "totalSupply",
      "outputs": [
        {
          "name": "",
          "type": "uint256"
        }
      ],
      "payable": false,
      "stateMutability": "view",
      "type": "function",
      "signature": "0x18160ddd"
    },
    {
      "constant": false,
      "inputs": [
        {
          "name": "from",
          "type": "address"
        },
        {
          "name": "to",
          "type": "address"
        },
        {
          "name": "value",
          "type": "uint256"
        }
      ],
      "name": "transferFrom",
      "outputs": [
        {
          "name": "",
          "type": "bool"
        }
      ],
      "payable": false,
      "stateMutability": "nonpayable",
      "type": "function",
      "signature": "0x23b872dd"
    },
    {
      "constant": true,
      "inputs": [],
      "name": "decimals",
      "outputs": [
        {
          "name": "",
          "type": "uint8"
        }
      ],
      "payable": false,
      "stateMutability": "view",
      "type": "function",
      "signature": "0x313ce567"
    },
    {
      "constant": false,
      "inputs": [
        {
          "name": "spender",
          "type": "address"
        },
        {
          "name": "addedValue",
          "type": "uint256"
        }
      ],
      "name": "increaseAllowance",
      "outputs": [
        {
          "name": "success",
          "type": "bool"
        }
      ],
      "payable": false,
      "stateMutability": "nonpayable",
      "type": "function",
      "signature": "0x39509351"
    },
    {
      "constant": false,
      "inputs": [],
      "name": "unpause",
      "outputs": [],
      "payable": false,
      "stateMutability": "nonpayable",
      "type": "function",
      "signature": "0x3f4ba83a"
    },
    {
      "constant": false,
      "inputs": [
        {
          "name": "to",
          "type": "address"
        },
        {
          "name": "value",
          "type": "uint256"
        }
      ],
      "name": "mint",
      "outputs": [
        {
          "name": "",
          "type": "bool"
        }
      ],
      "payable": false,
      "stateMutability": "nonpayable",
      "type": "function",
      "signature": "0x40c10f19"
    },
    {
      "constant": false,
      "inputs": [
        {
          "name": "value",
          "type": "uint256"
        }
      ],
      "name": "burn",
      "outputs": [],
      "payable": false,
      "stateMutability": "nonpayable",
      "type": "function",
      "signature": "0x42966c68"
    },
    {
      "constant": true,
      "inputs": [
        {
          "name": "account",
          "type": "address"
        }
      ],
      "name": "isPauser",
      "outputs": [
        {
          "name": "",
          "type": "bool"
        }
      ],
      "payable": false,
      "stateMutability": "view",
      "type": "function",
      "signature": "0x46fbf68e"
    },
    {
      "constant": true,
      "inputs": [],
      "name": "paused",
      "outputs": [
        {
          "name": "",
          "type": "bool"
        }
      ],
      "payable": false,
      "stateMutability": "view",
      "type": "function",
      "signature": "0x5c975abb"
    },
    {
      "constant": false,
      "inputs": [],
      "name": "renouncePauser",
      "outputs": [],
      "payable": false,
      "stateMutability": "nonpayable",
      "type": "function",
      "signature": "0x6ef8d66d"
    },
    {
      "constant": true,
      "inputs": [
        {
          "name": "owner",
          "type": "address"
        }
      ],
      "name": "balanceOf",
      "outputs": [
        {
          "name": "",
          "type": "uint256"
        }
      ],
      "payable": false,
      "stateMutability": "view",
      "type": "function",
      "signature": "0x70a08231"
    },
    {
      "constant": false,
      "inputs": [],
      "name": "renounceOwnership",
      "outputs": [],
      "payable": false,
      "stateMutability": "nonpayable",
      "type": "function",
      "signature": "0x715018a6"
    },
    {
      "constant": false,
      "inputs": [
        {
          "name": "from",
          "type": "address"
        },
        {
          "name": "value",
          "type": "uint256"
        }
      ],
      "name": "burnFrom",
      "outputs": [],
      "payable": false,
      "stateMutability": "nonpayable",
      "type": "function",
      "signature": "0x79cc6790"
    },
    {
      "constant": false,
      "inputs": [
        {
          "name": "account",
          "type": "address"
        }
      ],
      "name": "addPauser",
      "outputs": [],
      "payable": false,
      "stateMutability": "nonpayable",
      "type": "function",
      "signature": "0x82dc1ec4"
    },
    {
      "constant": false,
      "inputs": [],
      "name": "pause",
      "outputs": [],
      "payable": false,
      "stateMutability": "nonpayable",
      "type": "function",
      "signature": "0x8456cb59"
    },
    {
      "constant": true,
      "inputs": [],
      "name": "owner",
      "outputs": [
        {
          "name": "",
          "type": "address"
        }
      ],
      "payable": false,
      "stateMutability": "view",
      "type": "function",
      "signature": "0x8da5cb5b"
    },
    {
      "constant": true,
      "inputs": [],
      "name": "isOwner",
      "outputs": [
        {
          "name": "",
          "type": "bool"
        }
      ],
      "payable": false,
      "stateMutability": "view",
      "type": "function",
      "signature": "0x8f32d59b"
    },
    {
      "constant": true,
      "inputs": [],
      "name": "symbol",
      "outputs": [
        {
          "name": "",
          "type": "string"
        }
      ],
      "payable": false,
      "stateMutability": "view",
      "type": "function",
      "signature": "0x95d89b41"
    },
    {
      "constant": false,
      "inputs": [
        {
          "name": "account",
          "type": "address"
        }
      ],
      "name": "addMinter",
      "outputs": [],
      "payable": false,
      "stateMutability": "nonpayable",
      "type": "function",
      "signature": "0x983b2d56"
    },
    {
      "constant": false,
      "inputs": [],
      "name": "renounceMinter",
      "outputs": [],
      "payable": false,
      "stateMutability": "nonpayable",
      "type": "function",
      "signature": "0x98650275"
    },
    {
      "constant": false,
      "inputs": [
        {
          "name": "spender",
          "type": "address"
        },
        {
          "name": "subtractedValue",
          "type": "uint256"
        }
      ],
      "name": "decreaseAllowance",
      "outputs": [
        {
          "name": "success",
          "type": "bool"
        }
      ],
      "payable": false,
      "stateMutability": "nonpayable",
      "type": "function",
      "signature": "0xa457c2d7"
    },
    {
      "constant": true,
      "inputs": [
        {
          "name": "account",
          "type": "address"
        }
      ],
      "name": "isMinter",
      "outputs": [
        {
          "name": "",
          "type": "bool"
        }
      ],
      "payable": false,
      "stateMutability": "view",
      "type": "function",
      "signature": "0xaa271e1a"
    },
    {
      "constant": true,
      "inputs": [
        {
          "name": "owner",
          "type": "address"
        },
        {
          "name": "spender",
          "type": "address"
        }
      ],
      "name": "allowance",
      "outputs": [
        {
          "name": "",
          "type": "uint256"
        }
      ],
      "payable": false,
      "stateMutability": "view",
      "type": "function",
      "signature": "0xdd62ed3e"
    },
    {
      "constant": true,
      "inputs": [
        {
          "name": "",
          "type": "address"
        }
      ],
      "name": "pjsInfo",
      "outputs": [
        {
          "name": "cnpj",
          "type": "uint256"
        },
        {
          "name": "idSubcredito",
          "type": "uint256"
        },
        {
          "name": "salic",
          "type": "uint256"
        },
        {
          "name": "hashdeclaracao",
          "type": "string"
        },
        {
          "name": "estado",
          "type": "uint8"
        }
      ],
      "payable": false,
      "stateMutability": "view",
      "type": "function",
      "signature": "0xeb8786a3"
    },
    {
      "constant": false,
      "inputs": [
        {
          "name": "newOwner",
          "type": "address"
        }
      ],
      "name": "transferOwnership",
      "outputs": [],
      "payable": false,
      "stateMutability": "nonpayable",
      "type": "function",
      "signature": "0xf2fde38b"
    },
    {
      "inputs": [],
      "payable": false,
      "stateMutability": "nonpayable",
      "type": "constructor",
      "signature": "constructor"
    },
    {
      "anonymous": false,
      "inputs": [
        {
          "indexed": false,
          "name": "endereco",
          "type": "address"
        },
        {
          "indexed": false,
          "name": "cnpj",
          "type": "uint256"
        },
        {
          "indexed": false,
          "name": "idSubcredito",
          "type": "uint256"
        },
        {
          "indexed": false,
          "name": "salic",
          "type": "uint256"
        },
        {
          "indexed": false,
          "name": "hashdeclaracao",
          "type": "string"
        }
      ],
      "name": "CadastroConta",
      "type": "event",
      "signature": "0x8ec53aa58c6aeaba77afa132c2419aac81b51cc3a70482ba0d9b207a4db9d315"
    },
    {
      "anonymous": false,
      "inputs": [
        {
          "indexed": false,
          "name": "endereco",
          "type": "address"
        },
        {
          "indexed": false,
          "name": "cnpj",
          "type": "uint256"
        },
        {
          "indexed": false,
          "name": "idSubcredito",
          "type": "uint256"
        },
        {
          "indexed": false,
          "name": "salic",
          "type": "uint256"
        }
      ],
      "name": "TrocaConta",
      "type": "event",
      "signature": "0x1f86a6d711a7de1f1c37397bf465fc15356c8b4dba822d2ecbd4ea2f10287ea8"
    },
    {
      "anonymous": false,
      "inputs": [
        {
          "indexed": false,
          "name": "endereco",
          "type": "address"
        }
      ],
      "name": "ValidacaoConta",
      "type": "event",
      "signature": "0x28b8b7b8f52bbe893d4290bc2a5d3328a194eceb6b3a7398737d0bbf075a1e02"
    },
    {
      "anonymous": false,
      "inputs": [
        {
          "indexed": false,
          "name": "endereco",
          "type": "address"
        }
      ],
      "name": "InvalidacaoCadastroConta",
      "type": "event",
      "signature": "0xf88096f95619381cee1f86cd4df1d8d1c46c6356a98d01e58f308fba80d51bcf"
    },
    {
      "anonymous": false,
      "inputs": [
        {
          "indexed": false,
          "name": "cnpj",
          "type": "uint256"
        },
        {
          "indexed": false,
          "name": "idSubcredito",
          "type": "uint256"
        },
        {
          "indexed": false,
          "name": "valor",
          "type": "uint256"
        }
      ],
      "name": "Liberacao",
      "type": "event",
      "signature": "0x47d719b82e81a39b08d84987f8ad51a5ea9a21abcce186f6e6ff9d976d108d88"
    },
    {
      "anonymous": false,
      "inputs": [
        {
          "indexed": false,
          "name": "fromCnpj",
          "type": "uint256"
        },
        {
          "indexed": false,
          "name": "fromSubcredito",
          "type": "uint256"
        },
        {
          "indexed": false,
          "name": "toCnpj",
          "type": "uint256"
        },
        {
          "indexed": false,
          "name": "valor",
          "type": "uint256"
        }
      ],
      "name": "Transferencia",
      "type": "event",
      "signature": "0xaec818078011dacff79dbaf41c20c89bfb2251fcb05054fe5122908d3889bd91"
    },
    {
      "anonymous": false,
      "inputs": [
        {
          "indexed": false,
          "name": "fromCnpj",
          "type": "uint256"
        },
        {
          "indexed": false,
          "name": "fromSubcredito",
          "type": "uint256"
        },
        {
          "indexed": false,
          "name": "toCnpj",
          "type": "uint256"
        },
        {
          "indexed": false,
          "name": "valor",
          "type": "uint256"
        }
      ],
      "name": "Repasse",
      "type": "event",
      "signature": "0xf0ca622a49d520fd170158731fd9d9478bab38887f40a2d9f05e0da184e4e705"
    },
    {
      "anonymous": false,
      "inputs": [
        {
          "indexed": false,
          "name": "cnpj",
          "type": "uint256"
        },
        {
          "indexed": false,
          "name": "valor",
          "type": "uint256"
        }
      ],
      "name": "Resgate",
      "type": "event",
      "signature": "0x17a9cafb1bb84312c4e08209598c86c2844a433e998bb1bd472c696cca0c95b7"
    },
    {
      "anonymous": false,
      "inputs": [
        {
          "indexed": false,
          "name": "hashResgate",
          "type": "string"
        },
        {
          "indexed": false,
          "name": "hashComprovante",
          "type": "string"
        },
        {
          "indexed": false,
          "name": "isOk",
          "type": "bool"
        }
      ],
      "name": "LiquidacaoResgate",
      "type": "event",
      "signature": "0x98f191d7ada5335667849fbd5155b5196feea99dacc2673cc2e0388223c6533e"
    },
    {
      "anonymous": false,
      "inputs": [
        {
          "indexed": true,
          "name": "previousOwner",
          "type": "address"
        },
        {
          "indexed": true,
          "name": "newOwner",
          "type": "address"
        }
      ],
      "name": "OwnershipTransferred",
      "type": "event",
      "signature": "0x8be0079c531659141344cd1fd0a4f28419497f9722a3daafe3b4186f6b6457e0"
    },
    {
      "anonymous": false,
      "inputs": [
        {
          "indexed": true,
          "name": "account",
          "type": "address"
        }
      ],
      "name": "MinterAdded",
      "type": "event",
      "signature": "0x6ae172837ea30b801fbfcdd4108aa1d5bf8ff775444fd70256b44e6bf3dfc3f6"
    },
    {
      "anonymous": false,
      "inputs": [
        {
          "indexed": true,
          "name": "account",
          "type": "address"
        }
      ],
      "name": "MinterRemoved",
      "type": "event",
      "signature": "0xe94479a9f7e1952cc78f2d6baab678adc1b772d936c6583def489e524cb66692"
    },
    {
      "anonymous": false,
      "inputs": [
        {
          "indexed": false,
          "name": "account",
          "type": "address"
        }
      ],
      "name": "Paused",
      "type": "event",
      "signature": "0x62e78cea01bee320cd4e420270b5ea74000d11b0c9f74754ebdbfc544b05a258"
    },
    {
      "anonymous": false,
      "inputs": [
        {
          "indexed": false,
          "name": "account",
          "type": "address"
        }
      ],
      "name": "Unpaused",
      "type": "event",
      "signature": "0x5db9ee0a495bf2e6ff9c91a7834c1ba4fdd244a5e8aa4e537bd38aeae4b073aa"
    },
    {
      "anonymous": false,
      "inputs": [
        {
          "indexed": true,
          "name": "account",
          "type": "address"
        }
      ],
      "name": "PauserAdded",
      "type": "event",
      "signature": "0x6719d08c1888103bea251a4ed56406bd0c3e69723c8a1686e017e7bbe159b6f8"
    },
    {
      "anonymous": false,
      "inputs": [
        {
          "indexed": true,
          "name": "account",
          "type": "address"
        }
      ],
      "name": "PauserRemoved",
      "type": "event",
      "signature": "0xcd265ebaf09df2871cc7bd4133404a235ba12eff2041bb89d9c714a2621c7c7e"
    },
    {
      "anonymous": false,
      "inputs": [
        {
          "indexed": true,
          "name": "from",
          "type": "address"
        },
        {
          "indexed": true,
          "name": "to",
          "type": "address"
        },
        {
          "indexed": false,
          "name": "value",
          "type": "uint256"
        }
      ],
      "name": "Transfer",
      "type": "event",
      "signature": "0xddf252ad1be2c89b69c2b068fc378daa952ba7f163c4a11628f55a4df523b3ef"
    },
    {
      "anonymous": false,
      "inputs": [
        {
          "indexed": true,
          "name": "owner",
          "type": "address"
        },
        {
          "indexed": true,
          "name": "spender",
          "type": "address"
        },
        {
          "indexed": false,
          "name": "value",
          "type": "uint256"
        }
      ],
      "name": "Approval",
      "type": "event",
      "signature": "0x8c5be1e5ebec7d5bd14f71427d1e84f3dd0314c0f7b2291e5b200ac8c7c3b925"
    },
    {
      "constant": false,
      "inputs": [
        {
          "name": "rs",
          "type": "address"
        }
      ],
      "name": "setResponsibleForSettlement",
      "outputs": [],
      "payable": false,
      "stateMutability": "nonpayable",
      "type": "function",
      "signature": "0xb7404ff5"
    },
    {
      "constant": false,
      "inputs": [
        {
          "name": "_cnpj",
          "type": "uint256"
        },
        {
          "name": "_idSubcredito",
          "type": "uint256"
        },
        {
          "name": "_salic",
          "type": "uint256"
        },
        {
          "name": "hashdeclaracao",
          "type": "string"
        }
      ],
      "name": "cadastra",
      "outputs": [],
      "payable": false,
      "stateMutability": "nonpayable",
      "type": "function",
      "signature": "0xe1ebf4e0"
    },
    {
      "constant": false,
      "inputs": [
        {
          "name": "_cnpj",
          "type": "uint256"
        },
        {
          "name": "_idSubcredito",
          "type": "uint256"
        }
      ],
      "name": "troca",
      "outputs": [],
      "payable": false,
      "stateMutability": "nonpayable",
      "type": "function",
      "signature": "0x42e6e4a5"
    },
    {
      "constant": true,
      "inputs": [],
      "name": "getVersao",
      "outputs": [
        {
          "name": "",
          "type": "uint256"
        }
      ],
      "payable": false,
      "stateMutability": "view",
      "type": "function",
      "signature": "0x7134c73b"
    },
    {
      "constant": true,
      "inputs": [
        {
          "name": "_addr",
          "type": "address"
        }
      ],
      "name": "getCNPJ",
      "outputs": [
        {
          "name": "",
          "type": "uint256"
        }
      ],
      "payable": false,
      "stateMutability": "view",
      "type": "function",
      "signature": "0xbe49b78d"
    },
    {
      "constant": true,
      "inputs": [
        {
          "name": "_addr",
          "type": "address"
        }
      ],
      "name": "getSubcredito",
      "outputs": [
        {
          "name": "",
          "type": "uint256"
        }
      ],
      "payable": false,
      "stateMutability": "view",
      "type": "function",
      "signature": "0x88137e34"
    },
    {
      "constant": true,
      "inputs": [
        {
          "name": "_addr",
          "type": "address"
        }
      ],
      "name": "getPJInfo",
      "outputs": [
        {
          "name": "",
          "type": "uint256"
        },
        {
          "name": "",
          "type": "uint256"
        },
        {
          "name": "",
          "type": "uint256"
        },
        {
          "name": "",
          "type": "string"
        },
        {
          "name": "",
          "type": "uint256"
        }
      ],
      "payable": false,
      "stateMutability": "view",
      "type": "function",
      "signature": "0x097ec48c"
    },
    {
      "constant": true,
      "inputs": [
        {
          "name": "_cnpj",
          "type": "uint256"
        },
        {
          "name": "_idSubcredito",
          "type": "uint256"
        }
      ],
      "name": "getContaBlockchain",
      "outputs": [
        {
          "name": "",
          "type": "address"
        }
      ],
      "payable": false,
      "stateMutability": "view",
      "type": "function",
      "signature": "0x0098cbac"
    },
    {
      "constant": false,
      "inputs": [
        {
          "name": "_to",
          "type": "address"
        },
        {
          "name": "_value",
          "type": "uint256"
        }
      ],
      "name": "transfer",
      "outputs": [
        {
          "name": "",
          "type": "bool"
        }
      ],
      "payable": false,
      "stateMutability": "nonpayable",
      "type": "function",
      "signature": "0xa9059cbb"
    },
    {
      "constant": false,
      "inputs": [
        {
          "name": "_addr",
          "type": "address"
        },
        {
          "name": "_hashdeclaracao",
          "type": "string"
        }
      ],
      "name": "validarCadastro",
      "outputs": [],
      "payable": false,
      "stateMutability": "nonpayable",
      "type": "function",
      "signature": "0xd58b54c9"
    },
    {
      "constant": false,
      "inputs": [
        {
          "name": "_addr",
          "type": "address"
        }
      ],
      "name": "invalidarCadastro",
      "outputs": [],
      "payable": false,
      "stateMutability": "nonpayable",
      "type": "function",
      "signature": "0x88e7238b"
    },
    {
      "constant": true,
      "inputs": [
        {
          "name": "_addr",
          "type": "address"
        }
      ],
      "name": "isContaValidada",
      "outputs": [
        {
          "name": "",
          "type": "bool"
        }
      ],
      "payable": false,
      "stateMutability": "view",
      "type": "function",
      "signature": "0xefa4b969"
    },
    {
      "constant": true,
      "inputs": [
        {
          "name": "_addr",
          "type": "address"
        }
      ],
      "name": "isFornecedor",
      "outputs": [
        {
          "name": "",
          "type": "bool"
        }
      ],
      "payable": false,
      "stateMutability": "view",
      "type": "function",
      "signature": "0xe704a107"
    },
    {
      "constant": true,
      "inputs": [
        {
          "name": "_addr",
          "type": "address"
        }
      ],
      "name": "isValidatedSupplier",
      "outputs": [
        {
          "name": "",
          "type": "bool"
        }
      ],
      "payable": false,
      "stateMutability": "view",
      "type": "function",
      "signature": "0x348da3f2"
    },
    {
      "constant": true,
      "inputs": [
        {
          "name": "_addr",
          "type": "address"
        }
      ],
      "name": "isCliente",
      "outputs": [
        {
          "name": "",
          "type": "bool"
        }
      ],
      "payable": false,
      "stateMutability": "view",
      "type": "function",
      "signature": "0x68b183d4"
    },
    {
      "constant": true,
      "inputs": [
        {
          "name": "_addr",
          "type": "address"
        }
      ],
      "name": "isValidatedClient",
      "outputs": [
        {
          "name": "",
          "type": "bool"
        }
      ],
      "payable": false,
      "stateMutability": "view",
      "type": "function",
      "signature": "0xc01ed210"
    },
    {
      "constant": true,
      "inputs": [
        {
          "name": "_addr",
          "type": "address"
        }
      ],
      "name": "isBNDES",
      "outputs": [
        {
          "name": "",
          "type": "bool"
        }
      ],
      "payable": false,
      "stateMutability": "view",
      "type": "function",
      "signature": "0x46dbc664"
    },
    {
      "constant": true,
      "inputs": [
        {
          "name": "_addr",
          "type": "address"
        }
      ],
      "name": "isResponsibleForSettlement",
      "outputs": [
        {
          "name": "",
          "type": "bool"
        }
      ],
      "payable": false,
      "stateMutability": "view",
      "type": "function",
      "signature": "0x85fecf9b"
    },
    {
      "constant": false,
      "inputs": [
        {
          "name": "redemptionTransactionHash",
          "type": "string"
        },
        {
          "name": "receiptHash",
          "type": "string"
        },
        {
          "name": "isOk",
          "type": "bool"
        }
      ],
      "name": "notificaLiquidacaoResgate",
      "outputs": [],
      "payable": false,
      "stateMutability": "nonpayable",
      "type": "function",
      "signature": "0xc415f8df"
    },
    {
      "constant": true,
      "inputs": [
        {
          "name": "_addr",
          "type": "address"
        }
      ],
      "name": "getEstadoContaAsString",
      "outputs": [
        {
          "name": "",
          "type": "string"
        }
      ],
      "payable": false,
      "stateMutability": "view",
      "type": "function",
      "signature": "0x32fe141a"
    }
  ],
  "bytecode": "0x60806040526301341475600a553480156200001957600080fd5b506040805190810160405280600a81526020017f424e444553546f6b656e000000000000000000000000000000000000000000008152506040805190810160405280600381526020017f424e4400000000000000000000000000000000000000000000000000000000008152506002620000a2336200022c640100000000026401000000009004565b6000600460006101000a81548160ff0219169083151502179055508260059080519060200190620000d592919062000458565b508160069080519060200190620000ee92919062000458565b5080600760006101000a81548160ff021916908360ff160217905550505050620001273362000296640100000000026401000000009004565b33600960006101000a81548173ffffffffffffffffffffffffffffffffffffffff021916908373ffffffffffffffffffffffffffffffffffffffff160217905550600960009054906101000a900473ffffffffffffffffffffffffffffffffffffffff1673ffffffffffffffffffffffffffffffffffffffff16600073ffffffffffffffffffffffffffffffffffffffff167f8be0079c531659141344cd1fd0a4f28419497f9722a3daafe3b4186f6b6457e060405160405180910390a333600b60016101000a81548173ffffffffffffffffffffffffffffffffffffffff021916908373ffffffffffffffffffffffffffffffffffffffff16021790555062000507565b62000250816003620003006401000000000262005840179091906401000000009004565b8073ffffffffffffffffffffffffffffffffffffffff167f6719d08c1888103bea251a4ed56406bd0c3e69723c8a1686e017e7bbe159b6f860405160405180910390a250565b620002ba816008620003006401000000000262005840179091906401000000009004565b8073ffffffffffffffffffffffffffffffffffffffff167f6ae172837ea30b801fbfcdd4108aa1d5bf8ff775444fd70256b44e6bf3dfc3f660405160405180910390a250565b600073ffffffffffffffffffffffffffffffffffffffff168173ffffffffffffffffffffffffffffffffffffffff16141515156200033d57600080fd5b620003588282620003c3640100000000026401000000009004565b1515156200036557600080fd5b60018260000160008373ffffffffffffffffffffffffffffffffffffffff1673ffffffffffffffffffffffffffffffffffffffff16815260200190815260200160002060006101000a81548160ff0219169083151502179055505050565b60008073ffffffffffffffffffffffffffffffffffffffff168273ffffffffffffffffffffffffffffffffffffffff16141515156200040157600080fd5b8260000160008373ffffffffffffffffffffffffffffffffffffffff1673ffffffffffffffffffffffffffffffffffffffff16815260200190815260200160002060009054906101000a900460ff16905092915050565b828054600181600116156101000203166002900490600052602060002090601f016020900481019282601f106200049b57805160ff1916838001178555620004cc565b82800160010185558215620004cc579182015b82811115620004cb578251825591602001919060010190620004ae565b5b509050620004db9190620004df565b5090565b6200050491905b8082111562000500576000816000905550600101620004e6565b5090565b90565b615a4880620005176000396000f3fe60806040526004361061023a576000357c0100000000000000000000000000000000000000000000000000000000900463ffffffff16806298cbac1461023f57806306fdde03146102c4578063095ea7b314610354578063097ec48c146103c757806318160ddd146104ad57806323b872dd146104d8578063313ce5671461056b57806332fe141a1461059c578063348da3f21461066657806339509351146106cf5780633f4ba83a1461074257806340c10f191461075957806342966c68146107cc57806342e6e4a51461080757806346dbc6641461084c57806346fbf68e146108b55780635c975abb1461091e57806368b183d41461094d5780636ef8d66d146109b657806370a08231146109cd5780637134c73b14610a32578063715018a614610a5d57806379cc679014610a7457806382dc1ec414610acf5780638456cb5914610b2057806385fecf9b14610b3757806388137e3414610ba057806388e7238b14610c055780638da5cb5b14610c565780638f32d59b14610cad57806395d89b4114610cdc578063983b2d5614610d6c5780639865027514610dbd578063a457c2d714610dd4578063a9059cbb14610e47578063aa271e1a14610eba578063b7404ff514610f23578063be49b78d14610f74578063c01ed21014610fd9578063c415f8df14611042578063d58b54c9146111ad578063dd62ed3e14611295578063e1ebf4e01461131a578063e704a10714611400578063eb8786a314611469578063efa4b9691461155d578063f2fde38b146115c6575b600080fd5b34801561024b57600080fd5b506102826004803603604081101561026257600080fd5b810190808035906020019092919080359060200190929190505050611617565b604051808273ffffffffffffffffffffffffffffffffffffffff1673ffffffffffffffffffffffffffffffffffffffff16815260200191505060405180910390f35b3480156102d057600080fd5b506102d9611666565b6040518080602001828103825283818151815260200191508051906020019080838360005b838110156103195780820151818401526020810190506102fe565b50505050905090810190601f1680156103465780820380516001836020036101000a031916815260200191505b509250505060405180910390f35b34801561036057600080fd5b506103ad6004803603604081101561037757600080fd5b81019080803573ffffffffffffffffffffffffffffffffffffffff16906020019092919080359060200190929190505050611708565b604051808215151515815260200191505060405180910390f35b3480156103d357600080fd5b50610416600480360360208110156103ea57600080fd5b81019080803573ffffffffffffffffffffffffffffffffffffffff169060200190929190505050611738565b6040518086815260200185815260200184815260200180602001838152602001828103825284818151815260200191508051906020019080838360005b8381101561046e578082015181840152602081019050610453565b50505050905090810190601f16801561049b5780820380516001836020036101000a031916815260200191505b50965050505050505060405180910390f35b3480156104b957600080fd5b506104c2611956565b6040518082815260200191505060405180910390f35b3480156104e457600080fd5b50610551600480360360608110156104fb57600080fd5b81019080803573ffffffffffffffffffffffffffffffffffffffff169060200190929190803573ffffffffffffffffffffffffffffffffffffffff16906020019092919080359060200190929190505050611960565b604051808215151515815260200191505060405180910390f35b34801561057757600080fd5b50610580611992565b604051808260ff1660ff16815260200191505060405180910390f35b3480156105a857600080fd5b506105eb600480360360208110156105bf57600080fd5b81019080803573ffffffffffffffffffffffffffffffffffffffff1690602001909291905050506119a9565b6040518080602001828103825283818151815260200191508051906020019080838360005b8381101561062b578082015181840152602081019050610610565b50505050905090810190601f1680156106585780820380516001836020036101000a031916815260200191505b509250505060405180910390f35b34801561067257600080fd5b506106b56004803603602081101561068957600080fd5b81019080803573ffffffffffffffffffffffffffffffffffffffff169060200190929190505050611ddb565b604051808215151515815260200191505060405180910390f35b3480156106db57600080fd5b50610728600480360360408110156106f257600080fd5b81019080803573ffffffffffffffffffffffffffffffffffffffff16906020019092919080359060200190929190505050611e5e565b604051808215151515815260200191505060405180910390f35b34801561074e57600080fd5b50610757611e8e565b005b34801561076557600080fd5b506107b26004803603604081101561077c57600080fd5b81019080803573ffffffffffffffffffffffffffffffffffffffff16906020019092919080359060200190929190505050611f3d565b604051808215151515815260200191505060405180910390f35b3480156107d857600080fd5b50610805600480360360208110156107ef57600080fd5b8101908080359060200190929190505050611f67565b005b34801561081357600080fd5b5061084a6004803603604081101561082a57600080fd5b810190808035906020019092919080359060200190929190505050611f74565b005b34801561085857600080fd5b5061089b6004803603602081101561086f57600080fd5b81019080803573ffffffffffffffffffffffffffffffffffffffff1690602001909291905050506125d2565b604051808215151515815260200191505060405180910390f35b3480156108c157600080fd5b50610904600480360360208110156108d857600080fd5b81019080803573ffffffffffffffffffffffffffffffffffffffff169060200190929190505050612611565b604051808215151515815260200191505060405180910390f35b34801561092a57600080fd5b5061093361262e565b604051808215151515815260200191505060405180910390f35b34801561095957600080fd5b5061099c6004803603602081101561097057600080fd5b81019080803573ffffffffffffffffffffffffffffffffffffffff169060200190929190505050612645565b604051808215151515815260200191505060405180910390f35b3480156109c257600080fd5b506109cb6126da565b005b3480156109d957600080fd5b50610a1c600480360360208110156109f057600080fd5b81019080803573ffffffffffffffffffffffffffffffffffffffff1690602001909291905050506126e5565b6040518082815260200191505060405180910390f35b348015610a3e57600080fd5b50610a4761272d565b6040518082815260200191505060405180910390f35b348015610a6957600080fd5b50610a72612737565b005b348015610a8057600080fd5b50610acd60048036036040811015610a9757600080fd5b81019080803573ffffffffffffffffffffffffffffffffffffffff1690602001909291908035906020019092919050505061280b565b005b348015610adb57600080fd5b50610b1e60048036036020811015610af257600080fd5b81019080803573ffffffffffffffffffffffffffffffffffffffff169060200190929190505050612819565b005b348015610b2c57600080fd5b50610b35612839565b005b348015610b4357600080fd5b50610b8660048036036020811015610b5a57600080fd5b81019080803573ffffffffffffffffffffffffffffffffffffffff1690602001909291905050506128e9565b604051808215151515815260200191505060405180910390f35b348015610bac57600080fd5b50610bef60048036036020811015610bc357600080fd5b81019080803573ffffffffffffffffffffffffffffffffffffffff169060200190929190505050612943565b6040518082815260200191505060405180910390f35b348015610c1157600080fd5b50610c5460048036036020811015610c2857600080fd5b81019080803573ffffffffffffffffffffffffffffffffffffffff16906020019092919050505061298f565b005b348015610c6257600080fd5b50610c6b612b6f565b604051808273ffffffffffffffffffffffffffffffffffffffff1673ffffffffffffffffffffffffffffffffffffffff16815260200191505060405180910390f35b348015610cb957600080fd5b50610cc2612b99565b604051808215151515815260200191505060405180910390f35b348015610ce857600080fd5b50610cf1612bf1565b6040518080602001828103825283818151815260200191508051906020019080838360005b83811015610d31578082015181840152602081019050610d16565b50505050905090810190601f168015610d5e5780820380516001836020036101000a031916815260200191505b509250505060405180910390f35b348015610d7857600080fd5b50610dbb60048036036020811015610d8f57600080fd5b81019080803573ffffffffffffffffffffffffffffffffffffffff169060200190929190505050612c93565b005b348015610dc957600080fd5b50610dd2612cb3565b005b348015610de057600080fd5b50610e2d60048036036040811015610df757600080fd5b81019080803573ffffffffffffffffffffffffffffffffffffffff16906020019092919080359060200190929190505050612cbe565b604051808215151515815260200191505060405180910390f35b348015610e5357600080fd5b50610ea060048036036040811015610e6a57600080fd5b81019080803573ffffffffffffffffffffffffffffffffffffffff16906020019092919080359060200190929190505050612cee565b604051808215151515815260200191505060405180910390f35b348015610ec657600080fd5b50610f0960048036036020811015610edd57600080fd5b81019080803573ffffffffffffffffffffffffffffffffffffffff1690602001909291905050506138c3565b604051808215151515815260200191505060405180910390f35b348015610f2f57600080fd5b50610f7260048036036020811015610f4657600080fd5b81019080803573ffffffffffffffffffffffffffffffffffffffff1690602001909291905050506138e0565b005b348015610f8057600080fd5b50610fc360048036036020811015610f9757600080fd5b81019080803573ffffffffffffffffffffffffffffffffffffffff169060200190929190505050613937565b6040518082815260200191505060405180910390f35b348015610fe557600080fd5b5061102860048036036020811015610ffc57600080fd5b81019080803573ffffffffffffffffffffffffffffffffffffffff169060200190929190505050613983565b604051808215151515815260200191505060405180910390f35b34801561104e57600080fd5b506111ab6004803603606081101561106557600080fd5b810190808035906020019064010000000081111561108257600080fd5b82018360208201111561109457600080fd5b803590602001918460018302840111640100000000831117156110b657600080fd5b91908080601f016020809104026020016040519081016040528093929190818152602001838380828437600081840152601f19601f8201169050808301925050505050505091929192908035906020019064010000000081111561111957600080fd5b82018360208201111561112b57600080fd5b8035906020019184600183028401116401000000008311171561114d57600080fd5b91908080601f016020809104026020016040519081016040528093929190818152602001838380828437600081840152601f19601f820116905080830192505050505050509192919290803515159060200190929190505050613a06565b005b3480156111b957600080fd5b50611293600480360360408110156111d057600080fd5b81019080803573ffffffffffffffffffffffffffffffffffffffff1690602001909291908035906020019064010000000081111561120d57600080fd5b82018360208201111561121f57600080fd5b8035906020019184600183028401116401000000008311171561124157600080fd5b91908080601f016020809104026020016040519081016040528093929190818152602001838380828437600081840152601f19601f820116905080830192505050505050509192919290505050613c31565b005b3480156112a157600080fd5b50611304600480360360408110156112b857600080fd5b81019080803573ffffffffffffffffffffffffffffffffffffffff169060200190929190803573ffffffffffffffffffffffffffffffffffffffff169060200190929190505050613f91565b6040518082815260200191505060405180910390f35b34801561132657600080fd5b506113fe6004803603608081101561133d57600080fd5b810190808035906020019092919080359060200190929190803590602001909291908035906020019064010000000081111561137857600080fd5b82018360208201111561138a57600080fd5b803590602001918460018302840111640100000000831117156113ac57600080fd5b91908080601f016020809104026020016040519081016040528093929190818152602001838380828437600081840152601f19601f820116905080830192505050505050509192919290505050614018565b005b34801561140c57600080fd5b5061144f6004803603602081101561142357600080fd5b81019080803573ffffffffffffffffffffffffffffffffffffffff169060200190929190505050614441565b604051808215151515815260200191505060405180910390f35b34801561147557600080fd5b506114b86004803603602081101561148c57600080fd5b81019080803573ffffffffffffffffffffffffffffffffffffffff1690602001909291905050506144d5565b60405180868152602001858152602001848152602001806020018360048111156114de57fe5b60ff168152602001828103825284818151815260200191508051906020019080838360005b8381101561151e578082015181840152602081019050611503565b50505050905090810190601f16801561154b5780820380516001836020036101000a031916815260200191505b50965050505050505060405180910390f35b34801561156957600080fd5b506115ac6004803603602081101561158057600080fd5b81019080803573ffffffffffffffffffffffffffffffffffffffff1690602001909291905050506145b0565b604051808215151515815260200191505060405180910390f35b3480156115d257600080fd5b50611615600480360360208110156115e957600080fd5b81019080803573ffffffffffffffffffffffffffffffffffffffff169060200190929190505050614622565b005b6000600d6000848152602001908152602001600020600083815260200190815260200160002060009054906101000a900473ffffffffffffffffffffffffffffffffffffffff16905092915050565b606060058054600181600116156101000203166002900480601f0160208091040260200160405190810160405280929190818152602001828054600181600116156101000203166002900480156116fe5780601f106116d3576101008083540402835291602001916116fe565b820191906000526020600020905b8154815290600101906020018083116116e157829003601f168201915b5050505050905090565b6000600460009054906101000a900460ff1615151561172657600080fd5b6117308383614641565b905092915050565b600080600060606000600c60008773ffffffffffffffffffffffffffffffffffffffff1673ffffffffffffffffffffffffffffffffffffffff16815260200190815260200160002060000154600c60008873ffffffffffffffffffffffffffffffffffffffff1673ffffffffffffffffffffffffffffffffffffffff16815260200190815260200160002060010154600c60008973ffffffffffffffffffffffffffffffffffffffff1673ffffffffffffffffffffffffffffffffffffffff16815260200190815260200160002060020154600c60008a73ffffffffffffffffffffffffffffffffffffffff1673ffffffffffffffffffffffffffffffffffffffff168152602001908152602001600020600301600c60008b73ffffffffffffffffffffffffffffffffffffffff1673ffffffffffffffffffffffffffffffffffffffff16815260200190815260200160002060040160009054906101000a900460ff1660048111156118a757fe5b818054600181600116156101000203166002900480601f01602080910402602001604051908101604052809291908181526020018280546001816001161561010002031660029004801561193c5780601f106119115761010080835404028352916020019161193c565b820191906000526020600020905b81548152906001019060200180831161191f57829003601f168201915b505050505091509450945094509450945091939590929450565b6000600254905090565b6000600460009054906101000a900460ff1615151561197e57600080fd5b61198984848461476e565b90509392505050565b6000600760009054906101000a900460ff16905090565b6060600260048111156119b857fe5b600c60008473ffffffffffffffffffffffffffffffffffffffff1673ffffffffffffffffffffffffffffffffffffffff16815260200190815260200160002060040160009054906101000a900460ff166004811115611a1357fe5b1415611a56576040805190810160405280600881526020017f56616c69646164610000000000000000000000000000000000000000000000008152509050611dd6565b60036004811115611a6357fe5b600c60008473ffffffffffffffffffffffffffffffffffffffff1673ffffffffffffffffffffffffffffffffffffffff16815260200190815260200160002060040160009054906101000a900460ff166004811115611abe57fe5b1415611b01576040805190810160405280601c81526020017f436f6e746120696e76616c6964616461206e6f20436164617374726f000000008152509050611dd6565b600480811115611b0d57fe5b600c60008473ffffffffffffffffffffffffffffffffffffffff1673ffffffffffffffffffffffffffffffffffffffff16815260200190815260200160002060040160009054906101000a900460ff166004811115611b6857fe5b1415611bd257606060405190810160405280602381526020017f436f6e746120696e76616c696461646120706f722054726f636120646520436f81526020017f6e746100000000000000000000000000000000000000000000000000000000008152509050611dd6565b60016004811115611bdf57fe5b600c60008473ffffffffffffffffffffffffffffffffffffffff1673ffffffffffffffffffffffffffffffffffffffff16815260200190815260200160002060040160009054906101000a900460ff166004811115611c3a57fe5b1415611ca457606060405190810160405280602281526020017f416775617264616e646f2076616c696461c3a7c3a36f20646f2043616461737481526020017f726f0000000000000000000000000000000000000000000000000000000000008152509050611dd6565b6000600c60008473ffffffffffffffffffffffffffffffffffffffff1673ffffffffffffffffffffffffffffffffffffffff16815260200190815260200160002060000154148015611d5b575060006004811115611cfe57fe5b600c60008473ffffffffffffffffffffffffffffffffffffffff1673ffffffffffffffffffffffffffffffffffffffff16815260200190815260200160002060040160009054906101000a900460ff166004811115611d5957fe5b145b15611d9d576040805190810160405280600b81526020017f446973706f6ec3ad76656c0000000000000000000000000000000000000000008152509050611dd6565b6040805190810160405280600481526020017f4572726f0000000000000000000000000000000000000000000000000000000081525090505b919050565b6000611de682614441565b8015611e57575060026004811115611dfa57fe5b600c60008473ffffffffffffffffffffffffffffffffffffffff1673ffffffffffffffffffffffffffffffffffffffff16815260200190815260200160002060040160009054906101000a900460ff166004811115611e5557fe5b145b9050919050565b6000600460009054906101000a900460ff16151515611e7c57600080fd5b611e868383614976565b905092915050565b611e9733612611565b1515611ea257600080fd5b600460009054906101000a900460ff161515611ebd57600080fd5b6000600460006101000a81548160ff0219169083151502179055507f5db9ee0a495bf2e6ff9c91a7834c1ba4fdd244a5e8aa4e537bd38aeae4b073aa33604051808273ffffffffffffffffffffffffffffffffffffffff1673ffffffffffffffffffffffffffffffffffffffff16815260200191505060405180910390a1565b6000611f48336138c3565b1515611f5357600080fd5b611f5d8383614bad565b6001905092915050565b611f713382614d01565b50565b60003390506000600c60008373ffffffffffffffffffffffffffffffffffffffff1673ffffffffffffffffffffffffffffffffffffffff16815260200190815260200160002060000154141515612059576040517f08c379a00000000000000000000000000000000000000000000000000000000081526004018080602001828103825260288152602001807f456e64657265c3a76f206e6f766f206ac3a120657374c3a12073656e646f207581526020017f74696c697a61646f00000000000000000000000000000000000000000000000081525060400191505060405180910390fd5b600073ffffffffffffffffffffffffffffffffffffffff16600d6000858152602001908152602001600020600084815260200190815260200160002060009054906101000a900473ffffffffffffffffffffffffffffffffffffffff1673ffffffffffffffffffffffffffffffffffffffff1614151515612168576040517f08c379a000000000000000000000000000000000000000000000000000000000815260040180806020018281038252603c8152602001807f54656d2071756520686176657220756d20656e64657265c3a76f206173736f6381526020017f6961646f2061206573736520636e706a2f7375626372c3a96469746f0000000081525060400191505060405180910390fd5b6000600d6000858152602001908152602001600020600084815260200190815260200160002060009054906101000a900473ffffffffffffffffffffffffffffffffffffffff1690508073ffffffffffffffffffffffffffffffffffffffff168273ffffffffffffffffffffffffffffffffffffffff161415151561227b576040517f08c379a000000000000000000000000000000000000000000000000000000000815260040180806020018281038252602d8152602001807f4f20656e64657265c3a76f206e6f766f2064657665207365722064696665726581526020017f6e746520646f20616e7469676f0000000000000000000000000000000000000081525060400191505060405180910390fd5b6000612286826126e5565b11156122a05761229f818361229a846126e5565b614e55565b5b600c60008273ffffffffffffffffffffffffffffffffffffffff1673ffffffffffffffffffffffffffffffffffffffff168152602001908152602001600020600c60008473ffffffffffffffffffffffffffffffffffffffff1673ffffffffffffffffffffffffffffffffffffffff168152602001908152602001600020600082015481600001556001820154816001015560028201548160020155600382018160030190805460018160011615610100020316600290046123639291906158f0565b506004820160009054906101000a900460ff168160040160006101000a81548160ff0219169083600481111561239557fe5b021790555090505060a060405190810160405280600081526020016000815260200160008152602001602060405190810160405280600081525081526020016004808111156123e057fe5b815250600c60008373ffffffffffffffffffffffffffffffffffffffff1673ffffffffffffffffffffffffffffffffffffffff168152602001908152602001600020600082015181600001556020820151816001015560408201518160020155606082015181600301908051906020019061245c929190615977565b5060808201518160040160006101000a81548160ff0219169083600481111561248157fe5b02179055509050506001600c60008473ffffffffffffffffffffffffffffffffffffffff1673ffffffffffffffffffffffffffffffffffffffff16815260200190815260200160002060040160006101000a81548160ff021916908360048111156124e857fe5b021790555081600d6000868152602001908152602001600020600085815260200190815260200160002060006101000a81548173ffffffffffffffffffffffffffffffffffffffff021916908373ffffffffffffffffffffffffffffffffffffffff1602179055507f1f86a6d711a7de1f1c37397bf465fc15356c8b4dba822d2ecbd4ea2f10287ea88285856000604051808573ffffffffffffffffffffffffffffffffffffffff1673ffffffffffffffffffffffffffffffffffffffff16815260200184815260200183815260200182815260200194505050505060405180910390a150505050565b60006125dc612b6f565b73ffffffffffffffffffffffffffffffffffffffff168273ffffffffffffffffffffffffffffffffffffffff16149050919050565b600061262782600361502190919063ffffffff16565b9050919050565b6000600460009054906101000a900460ff16905090565b600061264f612b6f565b73ffffffffffffffffffffffffffffffffffffffff168273ffffffffffffffffffffffffffffffffffffffff16141561268b57600090506126d5565b6000600c60008473ffffffffffffffffffffffffffffffffffffffff1673ffffffffffffffffffffffffffffffffffffffff16815260200190815260200160002060010154141590505b919050565b6126e3336150b5565b565b60008060008373ffffffffffffffffffffffffffffffffffffffff1673ffffffffffffffffffffffffffffffffffffffff168152602001908152602001600020549050919050565b6000600a54905090565b61273f612b99565b151561274a57600080fd5b600073ffffffffffffffffffffffffffffffffffffffff16600960009054906101000a900473ffffffffffffffffffffffffffffffffffffffff1673ffffffffffffffffffffffffffffffffffffffff167f8be0079c531659141344cd1fd0a4f28419497f9722a3daafe3b4186f6b6457e060405160405180910390a36000600960006101000a81548173ffffffffffffffffffffffffffffffffffffffff021916908373ffffffffffffffffffffffffffffffffffffffff160217905550565b612815828261510f565b5050565b61282233612611565b151561282d57600080fd5b6128368161530d565b50565b61284233612611565b151561284d57600080fd5b600460009054906101000a900460ff1615151561286957600080fd5b6001600460006101000a81548160ff0219169083151502179055507f62e78cea01bee320cd4e420270b5ea74000d11b0c9f74754ebdbfc544b05a25833604051808273ffffffffffffffffffffffffffffffffffffffff1673ffffffffffffffffffffffffffffffffffffffff16815260200191505060405180910390a1565b6000600b60019054906101000a900473ffffffffffffffffffffffffffffffffffffffff1673ffffffffffffffffffffffffffffffffffffffff168273ffffffffffffffffffffffffffffffffffffffff16149050919050565b6000600c60008373ffffffffffffffffffffffffffffffffffffffff1673ffffffffffffffffffffffffffffffffffffffff168152602001908152602001600020600101549050919050565b612997612b99565b15156129a257600080fd5b600160048111156129af57fe5b600c60008373ffffffffffffffffffffffffffffffffffffffff1673ffffffffffffffffffffffffffffffffffffffff16815260200190815260200160002060040160009054906101000a900460ff166004811115612a0a57fe5b141515612aa5576040517f08c379a00000000000000000000000000000000000000000000000000000000081526004018080602001828103825260368152602001807f4120636f6e74612070726563697361206573746172206e6f2065737461646f2081526020017f416775617264616e646f2056616c696461c3a7c3a36f0000000000000000000081525060400191505060405180910390fd5b6003600c60008373ffffffffffffffffffffffffffffffffffffffff1673ffffffffffffffffffffffffffffffffffffffff16815260200190815260200160002060040160006101000a81548160ff02191690836004811115612b0457fe5b02179055507ff88096f95619381cee1f86cd4df1d8d1c46c6356a98d01e58f308fba80d51bcf81604051808273ffffffffffffffffffffffffffffffffffffffff1673ffffffffffffffffffffffffffffffffffffffff16815260200191505060405180910390a150565b6000600960009054906101000a900473ffffffffffffffffffffffffffffffffffffffff16905090565b6000600960009054906101000a900473ffffffffffffffffffffffffffffffffffffffff1673ffffffffffffffffffffffffffffffffffffffff163373ffffffffffffffffffffffffffffffffffffffff1614905090565b606060068054600181600116156101000203166002900480601f016020809104026020016040519081016040528092919081815260200182805460018160011615610100020316600290048015612c895780601f10612c5e57610100808354040283529160200191612c89565b820191906000526020600020905b815481529060010190602001808311612c6c57829003601f168201915b5050505050905090565b612c9c336138c3565b1515612ca757600080fd5b612cb081615367565b50565b612cbc336153c1565b565b6000600460009054906101000a900460ff16151515612cdc57600080fd5b612ce6838361541b565b905092915050565b6000803390508373ffffffffffffffffffffffffffffffffffffffff168173ffffffffffffffffffffffffffffffffffffffff1614151515612dbe576040517f08c379a00000000000000000000000000000000000000000000000000000000081526004018080602001828103825260288152602001807f4ec3a36f20706f6465207472616e73666572697220746f6b656e20706172612081526020017f7369206d65736d6f00000000000000000000000000000000000000000000000081525060400191505060405180910390fd5b612dc7816125d2565b1561316d576000600c60008673ffffffffffffffffffffffffffffffffffffffff1673ffffffffffffffffffffffffffffffffffffffff1681526020019081526020016000206000015414151515612e87576040517f08c379a000000000000000000000000000000000000000000000000000000000815260040180806020018281038252601e8152602001807f4ec3a36f20666f6920656e636f6e747261646f20756d20636c69656e7465000081525060200191505060405180910390fd5b612e9084612645565b1515612f2a576040517f08c379a00000000000000000000000000000000000000000000000000000000081526004018080602001828103825260268152602001807f4f20656e64657265c3a76f206ec3a36f2070657274656e6365206120756d206381526020017f6c69656e7465000000000000000000000000000000000000000000000000000081525060400191505060405180910390fd5b60026004811115612f3757fe5b600c60008673ffffffffffffffffffffffffffffffffffffffff1673ffffffffffffffffffffffffffffffffffffffff16815260200190815260200160002060040160009054906101000a900460ff166004811115612f9257fe5b14151561302d576040517f08c379a00000000000000000000000000000000000000000000000000000000081526004018080602001828103825260288152602001807f4120636f6e746120646f20656e64657265c3a76f206ec3a36f20657374c3a12081526020017f76616c696461646100000000000000000000000000000000000000000000000081525060400191505060405180910390fd5b6130378484611f3d565b508373ffffffffffffffffffffffffffffffffffffffff168173ffffffffffffffffffffffffffffffffffffffff167fddf252ad1be2c89b69c2b068fc378daa952ba7f163c4a11628f55a4df523b3ef856040518082815260200191505060405180910390a37f47d719b82e81a39b08d84987f8ad51a5ea9a21abcce186f6e6ff9d976d108d88600c60008673ffffffffffffffffffffffffffffffffffffffff1673ffffffffffffffffffffffffffffffffffffffff16815260200190815260200160002060000154600c60008773ffffffffffffffffffffffffffffffffffffffff1673ffffffffffffffffffffffffffffffffffffffff168152602001908152602001600020600101548560405180848152602001838152602001828152602001935050505060405180910390a16138b8565b6000600c60008373ffffffffffffffffffffffffffffffffffffffff1673ffffffffffffffffffffffffffffffffffffffff168152602001908152602001600020600001541415151561324e576040517f08c379a00000000000000000000000000000000000000000000000000000000081526004018080602001828103825260288152602001807f4ec3a36f2065786973746520636f6e7461206173736f636961646120616f206581526020017f6e64657265c3a76f00000000000000000000000000000000000000000000000081525060400191505060405180910390fd5b6002600481111561325b57fe5b600c60008373ffffffffffffffffffffffffffffffffffffffff1673ffffffffffffffffffffffffffffffffffffffff16815260200190815260200160002060040160009054906101000a900460ff1660048111156132b657fe5b141515613351576040517f08c379a00000000000000000000000000000000000000000000000000000000081526004018080602001828103825260288152602001807f4120636f6e746120646f20656e64657265c3a76f206ec3a36f20657374c3a12081526020017f76616c696461646100000000000000000000000000000000000000000000000081525060400191505060405180910390fd5b61335a846125d2565b1561346c5761336881614441565b15156133dc576040517f08c379a00000000000000000000000000000000000000000000000000000000081526004018080602001828103825260208152602001807f4120636f6e7461206ec3a36f20c3a920646520756d20666f726e656365646f7281525060200191505060405180910390fd5b6133e6818461280b565b7f17a9cafb1bb84312c4e08209598c86c2844a433e998bb1bd472c696cca0c95b7600c60008373ffffffffffffffffffffffffffffffffffffffff1673ffffffffffffffffffffffffffffffffffffffff1681526020019081526020016000206000015484604051808381526020018281526020019250505060405180910390a16138b7565b61347581612645565b151561350f576040517f08c379a000000000000000000000000000000000000000000000000000000000815260040180806020018281038252602c8152602001807f4f20656e64657265c3a76f206465206f726967656d207072656369736120736581526020017f7220756d20636c69656e7465000000000000000000000000000000000000000081525060400191505060405180910390fd5b6000600c60008673ffffffffffffffffffffffffffffffffffffffff1673ffffffffffffffffffffffffffffffffffffffff16815260200190815260200160002060000154141515156135f0576040517f08c379a00000000000000000000000000000000000000000000000000000000081526004018080602001828103825260298152602001807f4ec3a36f2065786973746520636f6e7461206173736f636961646120616f206581526020017f6e64657265c3a76f20000000000000000000000000000000000000000000000081525060400191505060405180910390fd5b6135f984614441565b1515613693576040517f08c379a000000000000000000000000000000000000000000000000000000000815260040180806020018281038252602f8152602001807f4120636f6e74612064652064657374696e6f207072656369736120736572206481526020017f6520756d20666f726e656365646f72000000000000000000000000000000000081525060400191505060405180910390fd5b600260048111156136a057fe5b600c60008673ffffffffffffffffffffffffffffffffffffffff1673ffffffffffffffffffffffffffffffffffffffff16815260200190815260200160002060040160009054906101000a900460ff1660048111156136fb57fe5b141515613796576040517f08c379a00000000000000000000000000000000000000000000000000000000081526004018080602001828103825260288152602001807f4120636f6e746120646f20656e64657265c3a76f206ec3a36f20657374c3a12081526020017f76616c696461646100000000000000000000000000000000000000000000000081525060400191505060405180910390fd5b7faec818078011dacff79dbaf41c20c89bfb2251fcb05054fe5122908d3889bd91600c60008373ffffffffffffffffffffffffffffffffffffffff1673ffffffffffffffffffffffffffffffffffffffff16815260200190815260200160002060000154600c60008473ffffffffffffffffffffffffffffffffffffffff1673ffffffffffffffffffffffffffffffffffffffff16815260200190815260200160002060010154600c60008873ffffffffffffffffffffffffffffffffffffffff1673ffffffffffffffffffffffffffffffffffffffff16815260200190815260200160002060000154866040518085815260200184815260200183815260200182815260200194505050505060405180910390a16138b6338585614e55565b5b5b600191505092915050565b60006138d982600861502190919063ffffffff16565b9050919050565b6138e8612b99565b15156138f357600080fd5b80600b60016101000a81548173ffffffffffffffffffffffffffffffffffffffff021916908373ffffffffffffffffffffffffffffffffffffffff16021790555050565b6000600c60008373ffffffffffffffffffffffffffffffffffffffff1673ffffffffffffffffffffffffffffffffffffffff168152602001908152602001600020600001549050919050565b600061398e82612645565b80156139ff5750600260048111156139a257fe5b600c60008473ffffffffffffffffffffffffffffffffffffffff1673ffffffffffffffffffffffffffffffffffffffff16815260200190815260200160002060040160009054906101000a900460ff1660048111156139fd57fe5b145b9050919050565b600b60019054906101000a900473ffffffffffffffffffffffffffffffffffffffff1673ffffffffffffffffffffffffffffffffffffffff163373ffffffffffffffffffffffffffffffffffffffff16141515613b17576040517f08c379a00000000000000000000000000000000000000000000000000000000081526004018080602001828103825260508152602001807f41206c697175696461c3a7c3a36f206ec3a36f20706f6465207365722072656181526020017f6c697a6164612070656c6f20656e64657265c3a76f20717565207375626d657481526020017f65752061207472616e7361c3a7c3a36f0000000000000000000000000000000081525060600191505060405180910390fd5b7f98f191d7ada5335667849fbd5155b5196feea99dacc2673cc2e0388223c6533e83838360405180806020018060200184151515158152602001838103835286818151815260200191508051906020019080838360005b83811015613b89578082015181840152602081019050613b6e565b50505050905090810190601f168015613bb65780820380516001836020036101000a031916815260200191505b50838103825285818151815260200191508051906020019080838360005b83811015613bef578082015181840152602081019050613bd4565b50505050905090810190601f168015613c1c5780820380516001836020036101000a031916815260200191505b509550505050505060405180910390a1505050565b613c39612b99565b1515613c4457600080fd5b60016004811115613c5157fe5b600c60008473ffffffffffffffffffffffffffffffffffffffff1673ffffffffffffffffffffffffffffffffffffffff16815260200190815260200160002060040160009054906101000a900460ff166004811115613cac57fe5b141515613d47576040517f08c379a00000000000000000000000000000000000000000000000000000000081526004018080602001828103825260368152602001807f4120636f6e74612070726563697361206573746172206e6f2065737461646f2081526020017f416775617264616e646f2056616c696461c3a7c3a36f0000000000000000000081525060400191505060405180910390fd5b806040516020018082805190602001908083835b602083101515613d805780518252602082019150602081019050602083039250613d5b565b6001836020036101000a03801982511681845116808217855250505050505090500191505060405160208183030381529060405280519060200120600c60008473ffffffffffffffffffffffffffffffffffffffff1673ffffffffffffffffffffffffffffffffffffffff1681526020019081526020016000206003016040516020018082805460018160011615610100020316600290048015613e5b5780601f10613e39576101008083540402835291820191613e5b565b820191906000526020600020905b815481529060010190602001808311613e47575b505091505060405160208183030381529060405280519060200120141515613ec6576040517f08c379a0000000000000000000000000000000000000000000000000000000008152600401808060200182810382526000815260200160200191505060405180910390fd5b6002600c60008473ffffffffffffffffffffffffffffffffffffffff1673ffffffffffffffffffffffffffffffffffffffff16815260200190815260200160002060040160006101000a81548160ff02191690836004811115613f2557fe5b02179055507f28b8b7b8f52bbe893d4290bc2a5d3328a194eceb6b3a7398737d0bbf075a1e0282604051808273ffffffffffffffffffffffffffffffffffffffff1673ffffffffffffffffffffffffffffffffffffffff16815260200191505060405180910390a15050565b6000600160008473ffffffffffffffffffffffffffffffffffffffff1673ffffffffffffffffffffffffffffffffffffffff16815260200190815260200160002060008373ffffffffffffffffffffffffffffffffffffffff1673ffffffffffffffffffffffffffffffffffffffff16815260200190815260200160002054905092915050565b60003390506000600c60008373ffffffffffffffffffffffffffffffffffffffff1673ffffffffffffffffffffffffffffffffffffffff168152602001908152602001600020600001541415156140fd576040517f08c379a00000000000000000000000000000000000000000000000000000000081526004018080602001828103825260358152602001807f456e64657265c3a76f206ec3a36f20706f646520746572207369646f2063616481526020017f6173747261646f20616e746572696f726d656e7465000000000000000000000081525060400191505060405180910390fd5b60a0604051908101604052808681526020018581526020018481526020018381526020016001600481111561412e57fe5b815250600c60008373ffffffffffffffffffffffffffffffffffffffff1673ffffffffffffffffffffffffffffffffffffffff16815260200190815260200160002060008201518160000155602082015181600101556040820151816002015560608201518160030190805190602001906141aa929190615977565b5060808201518160040160006101000a81548160ff021916908360048111156141cf57fe5b021790555090505060008411156142ef57600073ffffffffffffffffffffffffffffffffffffffff16600d6000878152602001908152602001600020600086815260200190815260200160002060009054906101000a900473ffffffffffffffffffffffffffffffffffffffff1673ffffffffffffffffffffffffffffffffffffffff161415156142ee576040517f08c379a00000000000000000000000000000000000000000000000000000000081526004018080602001828103825260308152602001807f5375626372656469746f206ac3a120657374c3a1206173736f636961646f206181526020017f206f7574726f20656e64657265c3a76f0000000000000000000000000000000081525060400191505060405180910390fd5b5b80600d6000878152602001908152602001600020600086815260200190815260200160002060006101000a81548173ffffffffffffffffffffffffffffffffffffffff021916908373ffffffffffffffffffffffffffffffffffffffff1602179055507f8ec53aa58c6aeaba77afa132c2419aac81b51cc3a70482ba0d9b207a4db9d3158186868686604051808673ffffffffffffffffffffffffffffffffffffffff1673ffffffffffffffffffffffffffffffffffffffff16815260200185815260200184815260200183815260200180602001828103825283818151815260200191508051906020019080838360005b838110156143fc5780820151818401526020810190506143e1565b50505050905090810190601f1680156144295780820380516001836020036101000a031916815260200191505b50965050505050505060405180910390a15050505050565b600061444b612b6f565b73ffffffffffffffffffffffffffffffffffffffff168273ffffffffffffffffffffffffffffffffffffffff16141561448757600090506144d0565b6000600c60008473ffffffffffffffffffffffffffffffffffffffff1673ffffffffffffffffffffffffffffffffffffffff168152602001908152602001600020600101541490505b919050565b600c602052806000526040600020600091509050806000015490806001015490806002015490806003018054600181600116156101000203166002900480601f0160208091040260200160405190810160405280929190818152602001828054600181600116156101000203166002900480156145935780601f1061456857610100808354040283529160200191614593565b820191906000526020600020905b81548152906001019060200180831161457657829003601f168201915b5050505050908060040160009054906101000a900460ff16905085565b6000600260048111156145bf57fe5b600c60008473ffffffffffffffffffffffffffffffffffffffff1673ffffffffffffffffffffffffffffffffffffffff16815260200190815260200160002060040160009054906101000a900460ff16600481111561461a57fe5b149050919050565b61462a612b99565b151561463557600080fd5b61463e81615652565b50565b60008073ffffffffffffffffffffffffffffffffffffffff168373ffffffffffffffffffffffffffffffffffffffff161415151561467e57600080fd5b81600160003373ffffffffffffffffffffffffffffffffffffffff1673ffffffffffffffffffffffffffffffffffffffff16815260200190815260200160002060008573ffffffffffffffffffffffffffffffffffffffff1673ffffffffffffffffffffffffffffffffffffffff168152602001908152602001600020819055508273ffffffffffffffffffffffffffffffffffffffff163373ffffffffffffffffffffffffffffffffffffffff167f8c5be1e5ebec7d5bd14f71427d1e84f3dd0314c0f7b2291e5b200ac8c7c3b925846040518082815260200191505060405180910390a36001905092915050565b60006147ff82600160008773ffffffffffffffffffffffffffffffffffffffff1673ffffffffffffffffffffffffffffffffffffffff16815260200190815260200160002060003373ffffffffffffffffffffffffffffffffffffffff1673ffffffffffffffffffffffffffffffffffffffff1681526020019081526020016000205461574e90919063ffffffff16565b600160008673ffffffffffffffffffffffffffffffffffffffff1673ffffffffffffffffffffffffffffffffffffffff16815260200190815260200160002060003373ffffffffffffffffffffffffffffffffffffffff1673ffffffffffffffffffffffffffffffffffffffff1681526020019081526020016000208190555061488a848484614e55565b3373ffffffffffffffffffffffffffffffffffffffff168473ffffffffffffffffffffffffffffffffffffffff167f8c5be1e5ebec7d5bd14f71427d1e84f3dd0314c0f7b2291e5b200ac8c7c3b925600160008873ffffffffffffffffffffffffffffffffffffffff1673ffffffffffffffffffffffffffffffffffffffff16815260200190815260200160002060003373ffffffffffffffffffffffffffffffffffffffff1673ffffffffffffffffffffffffffffffffffffffff168152602001908152602001600020546040518082815260200191505060405180910390a3600190509392505050565b60008073ffffffffffffffffffffffffffffffffffffffff168373ffffffffffffffffffffffffffffffffffffffff16141515156149b357600080fd5b614a4282600160003373ffffffffffffffffffffffffffffffffffffffff1673ffffffffffffffffffffffffffffffffffffffff16815260200190815260200160002060008673ffffffffffffffffffffffffffffffffffffffff1673ffffffffffffffffffffffffffffffffffffffff1681526020019081526020016000205461577090919063ffffffff16565b600160003373ffffffffffffffffffffffffffffffffffffffff1673ffffffffffffffffffffffffffffffffffffffff16815260200190815260200160002060008573ffffffffffffffffffffffffffffffffffffffff1673ffffffffffffffffffffffffffffffffffffffff168152602001908152602001600020819055508273ffffffffffffffffffffffffffffffffffffffff163373ffffffffffffffffffffffffffffffffffffffff167f8c5be1e5ebec7d5bd14f71427d1e84f3dd0314c0f7b2291e5b200ac8c7c3b925600160003373ffffffffffffffffffffffffffffffffffffffff1673ffffffffffffffffffffffffffffffffffffffff16815260200190815260200160002060008773ffffffffffffffffffffffffffffffffffffffff1673ffffffffffffffffffffffffffffffffffffffff168152602001908152602001600020546040518082815260200191505060405180910390a36001905092915050565b600073ffffffffffffffffffffffffffffffffffffffff168273ffffffffffffffffffffffffffffffffffffffff1614151515614be957600080fd5b614bfe8160025461577090919063ffffffff16565b600281905550614c55816000808573ffffffffffffffffffffffffffffffffffffffff1673ffffffffffffffffffffffffffffffffffffffff1681526020019081526020016000205461577090919063ffffffff16565b6000808473ffffffffffffffffffffffffffffffffffffffff1673ffffffffffffffffffffffffffffffffffffffff168152602001908152602001600020819055508173ffffffffffffffffffffffffffffffffffffffff16600073ffffffffffffffffffffffffffffffffffffffff167fddf252ad1be2c89b69c2b068fc378daa952ba7f163c4a11628f55a4df523b3ef836040518082815260200191505060405180910390a35050565b600073ffffffffffffffffffffffffffffffffffffffff168273ffffffffffffffffffffffffffffffffffffffff1614151515614d3d57600080fd5b614d528160025461574e90919063ffffffff16565b600281905550614da9816000808573ffffffffffffffffffffffffffffffffffffffff1673ffffffffffffffffffffffffffffffffffffffff1681526020019081526020016000205461574e90919063ffffffff16565b6000808473ffffffffffffffffffffffffffffffffffffffff1673ffffffffffffffffffffffffffffffffffffffff16815260200190815260200160002081905550600073ffffffffffffffffffffffffffffffffffffffff168273ffffffffffffffffffffffffffffffffffffffff167fddf252ad1be2c89b69c2b068fc378daa952ba7f163c4a11628f55a4df523b3ef836040518082815260200191505060405180910390a35050565b600073ffffffffffffffffffffffffffffffffffffffff168273ffffffffffffffffffffffffffffffffffffffff1614151515614e9157600080fd5b614ee2816000808673ffffffffffffffffffffffffffffffffffffffff1673ffffffffffffffffffffffffffffffffffffffff1681526020019081526020016000205461574e90919063ffffffff16565b6000808573ffffffffffffffffffffffffffffffffffffffff1673ffffffffffffffffffffffffffffffffffffffff16815260200190815260200160002081905550614f75816000808573ffffffffffffffffffffffffffffffffffffffff1673ffffffffffffffffffffffffffffffffffffffff1681526020019081526020016000205461577090919063ffffffff16565b6000808473ffffffffffffffffffffffffffffffffffffffff1673ffffffffffffffffffffffffffffffffffffffff168152602001908152602001600020819055508173ffffffffffffffffffffffffffffffffffffffff168373ffffffffffffffffffffffffffffffffffffffff167fddf252ad1be2c89b69c2b068fc378daa952ba7f163c4a11628f55a4df523b3ef836040518082815260200191505060405180910390a3505050565b60008073ffffffffffffffffffffffffffffffffffffffff168273ffffffffffffffffffffffffffffffffffffffff161415151561505e57600080fd5b8260000160008373ffffffffffffffffffffffffffffffffffffffff1673ffffffffffffffffffffffffffffffffffffffff16815260200190815260200160002060009054906101000a900460ff16905092915050565b6150c981600361579190919063ffffffff16565b8073ffffffffffffffffffffffffffffffffffffffff167fcd265ebaf09df2871cc7bd4133404a235ba12eff2041bb89d9c714a2621c7c7e60405160405180910390a250565b61519e81600160008573ffffffffffffffffffffffffffffffffffffffff1673ffffffffffffffffffffffffffffffffffffffff16815260200190815260200160002060003373ffffffffffffffffffffffffffffffffffffffff1673ffffffffffffffffffffffffffffffffffffffff1681526020019081526020016000205461574e90919063ffffffff16565b600160008473ffffffffffffffffffffffffffffffffffffffff1673ffffffffffffffffffffffffffffffffffffffff16815260200190815260200160002060003373ffffffffffffffffffffffffffffffffffffffff1673ffffffffffffffffffffffffffffffffffffffff168152602001908152602001600020819055506152288282614d01565b3373ffffffffffffffffffffffffffffffffffffffff168273ffffffffffffffffffffffffffffffffffffffff167f8c5be1e5ebec7d5bd14f71427d1e84f3dd0314c0f7b2291e5b200ac8c7c3b925600160008673ffffffffffffffffffffffffffffffffffffffff1673ffffffffffffffffffffffffffffffffffffffff16815260200190815260200160002060003373ffffffffffffffffffffffffffffffffffffffff1673ffffffffffffffffffffffffffffffffffffffff168152602001908152602001600020546040518082815260200191505060405180910390a35050565b61532181600361584090919063ffffffff16565b8073ffffffffffffffffffffffffffffffffffffffff167f6719d08c1888103bea251a4ed56406bd0c3e69723c8a1686e017e7bbe159b6f860405160405180910390a250565b61537b81600861584090919063ffffffff16565b8073ffffffffffffffffffffffffffffffffffffffff167f6ae172837ea30b801fbfcdd4108aa1d5bf8ff775444fd70256b44e6bf3dfc3f660405160405180910390a250565b6153d581600861579190919063ffffffff16565b8073ffffffffffffffffffffffffffffffffffffffff167fe94479a9f7e1952cc78f2d6baab678adc1b772d936c6583def489e524cb6669260405160405180910390a250565b60008073ffffffffffffffffffffffffffffffffffffffff168373ffffffffffffffffffffffffffffffffffffffff161415151561545857600080fd5b6154e782600160003373ffffffffffffffffffffffffffffffffffffffff1673ffffffffffffffffffffffffffffffffffffffff16815260200190815260200160002060008673ffffffffffffffffffffffffffffffffffffffff1673ffffffffffffffffffffffffffffffffffffffff1681526020019081526020016000205461574e90919063ffffffff16565b600160003373ffffffffffffffffffffffffffffffffffffffff1673ffffffffffffffffffffffffffffffffffffffff16815260200190815260200160002060008573ffffffffffffffffffffffffffffffffffffffff1673ffffffffffffffffffffffffffffffffffffffff168152602001908152602001600020819055508273ffffffffffffffffffffffffffffffffffffffff163373ffffffffffffffffffffffffffffffffffffffff167f8c5be1e5ebec7d5bd14f71427d1e84f3dd0314c0f7b2291e5b200ac8c7c3b925600160003373ffffffffffffffffffffffffffffffffffffffff1673ffffffffffffffffffffffffffffffffffffffff16815260200190815260200160002060008773ffffffffffffffffffffffffffffffffffffffff1673ffffffffffffffffffffffffffffffffffffffff168152602001908152602001600020546040518082815260200191505060405180910390a36001905092915050565b600073ffffffffffffffffffffffffffffffffffffffff168173ffffffffffffffffffffffffffffffffffffffff161415151561568e57600080fd5b8073ffffffffffffffffffffffffffffffffffffffff16600960009054906101000a900473ffffffffffffffffffffffffffffffffffffffff1673ffffffffffffffffffffffffffffffffffffffff167f8be0079c531659141344cd1fd0a4f28419497f9722a3daafe3b4186f6b6457e060405160405180910390a380600960006101000a81548173ffffffffffffffffffffffffffffffffffffffff021916908373ffffffffffffffffffffffffffffffffffffffff16021790555050565b600082821115151561575f57600080fd5b600082840390508091505092915050565b600080828401905083811015151561578757600080fd5b8091505092915050565b600073ffffffffffffffffffffffffffffffffffffffff168173ffffffffffffffffffffffffffffffffffffffff16141515156157cd57600080fd5b6157d78282615021565b15156157e257600080fd5b60008260000160008373ffffffffffffffffffffffffffffffffffffffff1673ffffffffffffffffffffffffffffffffffffffff16815260200190815260200160002060006101000a81548160ff0219169083151502179055505050565b600073ffffffffffffffffffffffffffffffffffffffff168173ffffffffffffffffffffffffffffffffffffffff161415151561587c57600080fd5b6158868282615021565b15151561589257600080fd5b60018260000160008373ffffffffffffffffffffffffffffffffffffffff1673ffffffffffffffffffffffffffffffffffffffff16815260200190815260200160002060006101000a81548160ff0219169083151502179055505050565b828054600181600116156101000203166002900490600052602060002090601f016020900481019282601f106159295780548555615966565b8280016001018555821561596657600052602060002091601f016020900482015b8281111561596557825482559160010191906001019061594a565b5b50905061597391906159f7565b5090565b828054600181600116156101000203166002900490600052602060002090601f016020900481019282601f106159b857805160ff19168380011785556159e6565b828001600101855582156159e6579182015b828111156159e55782518255916020019190600101906159ca565b5b5090506159f391906159f7565b5090565b615a1991905b80821115615a155760008160009055506001016159fd565b5090565b9056fea165627a7a72305820f442a502c387f09d758dea96e9bb55312d1eac4903e803038b83f9164d9dbb780029",
  "source": "pragma solidity ^0.5.0;\r\n\r\nimport \"openzeppelin-solidity/contracts/token/ERC20/ERC20Pausable.sol\";\r\nimport \"openzeppelin-solidity/contracts/token/ERC20/ERC20Detailed.sol\";\r\nimport \"openzeppelin-solidity/contracts/token/ERC20/ERC20Burnable.sol\";\r\nimport \"openzeppelin-solidity/contracts/token/ERC20/ERC20Mintable.sol\";\r\nimport \"openzeppelin-solidity/contracts/ownership/Ownable.sol\";\r\n\r\n\r\ncontract BNDESToken is ERC20Pausable, ERC20Detailed(\"BNDESToken\", \"BND\", 2), ERC20Mintable, ERC20Burnable, Ownable() {\r\n\r\n    uint private versao = 20190325;\r\n\r\n\r\n    //TODO: Vale a pena adicionar o estado de conta SUSPENSA para casos excepcionais?\r\n    //TODO: Vale a pena adicionar o estado de conta INVALIDADA_INCONFORMIDADE para casos excepcionais?\r\n    enum EstadoContaBlockchain {DISPONIVEL,AGUARDANDO_VALIDACAO,VALIDADA,INVALIDADA_CADASTRO,INVALIDADA_TROCA} \r\n\r\n    EstadoContaBlockchain estadosPossiveis; //variavel nao utilizada, apenas para definir o enum\r\n\r\n    address responsibleForSettlement;\r\n\r\n    struct PJInfo {\r\n        uint cnpj;\r\n        uint idSubcredito;\r\n        uint salic;\r\n        string hashdeclaracao;\r\n        EstadoContaBlockchain estado;\r\n    } \r\n\r\n    mapping(address => PJInfo) public pjsInfo;\r\n    mapping(uint => mapping(uint => address)) cnpjSubEndereco; \r\n\r\n    event CadastroConta(address endereco, uint cnpj, uint idSubcredito, uint salic, string hashdeclaracao);\r\n    event TrocaConta(address endereco, uint cnpj, uint idSubcredito, uint salic);//TODO: rever troca. Deveria seguir os mesmos parametros do Cadastro?\r\n    event ValidacaoConta(address endereco);\r\n    event InvalidacaoCadastroConta(address endereco);\r\n\r\n    event Liberacao(uint cnpj, uint idSubcredito, uint256 valor);\r\n    event Transferencia(uint fromCnpj, uint fromSubcredito, uint toCnpj, uint256 valor);\r\n    event Repasse(uint fromCnpj, uint fromSubcredito, uint toCnpj, uint256 valor);\r\n    event Resgate(uint cnpj, uint256 valor);\r\n    event LiquidacaoResgate(string hashResgate, string hashComprovante, bool isOk);\r\n\r\n    constructor () public {\r\n        responsibleForSettlement = msg.sender;\r\n    }\r\n\r\n\r\n    function setResponsibleForSettlement(address rs) onlyOwner public {\r\n        responsibleForSettlement = rs;\r\n    }\r\n\r\n    /**\r\n    Associa um endereo blockchain ao CNPJ\r\n    */\r\n    function cadastra(uint _cnpj, uint _idSubcredito, uint _salic, string memory hashdeclaracao) public { \r\n\r\n        address endereco = msg.sender;\r\n        \r\n        // Endereo no pode ter sido cadastrado anteriormente\r\n        require(pjsInfo[endereco].cnpj == 0, \"Endereo no pode ter sido cadastrado anteriormente\");\r\n\r\n        pjsInfo[endereco] = PJInfo(_cnpj, _idSubcredito, _salic, hashdeclaracao, EstadoContaBlockchain.AGUARDANDO_VALIDACAO);\r\n        \r\n        // No pode haver outro endereo cadastrado para esse mesmo subcrdito\r\n        if (_idSubcredito > 0) {\r\n            require (cnpjSubEndereco[_cnpj][_idSubcredito] == address(0x0), \"Subcredito j est associado a outro endereo\");\r\n        }\r\n        \r\n        cnpjSubEndereco[_cnpj][_idSubcredito] = endereco;\r\n\r\n        emit CadastroConta(endereco, _cnpj, _idSubcredito, _salic, hashdeclaracao);\r\n    }\r\n\r\n    /**\r\n    Reassocia um cnpj/subcrdito a um novo endereo da blockchain (o sender)\r\n    */\r\n    function troca(uint _cnpj, uint _idSubcredito) public {\r\n\r\n        address enderecoNovo = msg.sender;\r\n\r\n        // O endereo novo no pode estar sendo utilizado\r\n        require(pjsInfo[enderecoNovo].cnpj == 0, \"Endereo novo j est sendo utilizado\");\r\n\r\n        // Tem que haver um endereo associado a esse cnpj/subcrdito\r\n        require(cnpjSubEndereco[_cnpj][_idSubcredito] != address(0x0), \"Tem que haver um endereo associado a esse cnpj/subcrdito\");\r\n\r\n        address enderecoAntigo = cnpjSubEndereco[_cnpj][_idSubcredito];\r\n\r\n        require(enderecoNovo != enderecoAntigo, \"O endereo novo deve ser diferente do antigo\");\r\n\r\n        // Se h saldo no enderecoAntigo, precisa transferir\r\n        if (balanceOf(enderecoAntigo) > 0) {\r\n            _transfer(enderecoAntigo, enderecoNovo, balanceOf(enderecoAntigo));\r\n        }\r\n\r\n        // Aponta o novo endereo para o registro existente no mapping\r\n        pjsInfo[enderecoNovo] = pjsInfo[enderecoAntigo];\r\n        // Apaga o mapping do endereo antigo\r\n        pjsInfo[enderecoAntigo] = PJInfo(0, 0, 0, \"\", EstadoContaBlockchain.INVALIDADA_TROCA);\r\n        // Aponta mapping CNPJ e Subcredito para enderecoNovo\r\n        pjsInfo[enderecoNovo].estado = EstadoContaBlockchain.AGUARDANDO_VALIDACAO;\r\n        cnpjSubEndereco[_cnpj][_idSubcredito] = enderecoNovo;\r\n\r\n        emit TrocaConta(enderecoNovo, _cnpj, _idSubcredito, 0); //TODO: refatorar para incluir salic no metodo troca \r\n    }\r\n\r\n    function getVersao() view public returns (uint) {\r\n        return versao;\r\n    }\r\n\r\n    function getCNPJ(address _addr) view public returns (uint) {\r\n        return pjsInfo[_addr].cnpj;\r\n    }\r\n\r\n    function getSubcredito(address _addr) view public returns (uint) {\r\n        return pjsInfo[_addr].idSubcredito;\r\n    }\r\n\r\n    function getPJInfo (address _addr) view public returns (uint, uint, uint, string memory, uint) {\r\n        return (pjsInfo[_addr].cnpj, pjsInfo[_addr].idSubcredito, pjsInfo[_addr].salic, pjsInfo[_addr].hashdeclaracao, (uint) (pjsInfo[_addr].estado));\r\n    }\r\n\r\n    function getContaBlockchain(uint256 _cnpj, uint256 _idSubcredito) view public returns (address) {\r\n        return cnpjSubEndereco[_cnpj][_idSubcredito];\r\n    }\r\n\r\n    function transfer (address _to, uint256 _value) public returns (bool) {\r\n\r\n        address from = msg.sender;\r\n\r\n        // O cara no  louco de transferir para si mesmo!!!\r\n        require(from != _to, \"No pode transferir token para si mesmo\");\r\n\r\n        // Se a origem eh o BNDES, eh uma LIBERACAO\r\n        if (isBNDES(from)) {\r\n\r\n            // A conta de destino existe        \r\n            require(pjsInfo[_to].cnpj != 0, \"No foi encontrado um cliente\");\r\n\r\n            // A conta de destino  de um cliente\r\n            require(isCliente(_to), \"O endereo no pertence a um cliente\");\r\n\r\n            require(pjsInfo[_to].estado == EstadoContaBlockchain.VALIDADA, \"A conta do endereo no est validada\");\r\n\r\n            mint(_to, _value);\r\n\r\n            emit Transfer(from, _to, _value); // Evento do ERC-20 para manter o padro na visualizao da transao \r\n            emit Liberacao(pjsInfo[_to].cnpj, pjsInfo[_to].idSubcredito, _value);\r\n\r\n        } else { \r\n\r\n            // A conta de origem existe\r\n            require(pjsInfo[from].cnpj != 0, \"No existe conta associada ao endereo\");\r\n\r\n            // O Cadastro esta valido para operar o BNDESToken\r\n            require(pjsInfo[from].estado == EstadoContaBlockchain.VALIDADA, \"A conta do endereo no est validada\");\r\n\r\n\r\n            if (isBNDES(_to)) { \r\n                // _to eh o BNDES. Entao eh RESGATE\r\n\r\n                // Garante que a conta de origem eh um fornecedor\r\n                require(isFornecedor(from), \"A conta no  de um fornecedor\");\r\n\r\n                burnFrom(from, _value);\r\n\r\n                emit Resgate(pjsInfo[from].cnpj, _value);\r\n\r\n            } else {\r\n\r\n                // Se nem from nem to so o Banco, eh transferencia normal\r\n\r\n                require(isCliente(from), \"O endereo de origem precisa ser um cliente\");\r\n\r\n                // A conta de destino existe        \r\n                require(pjsInfo[_to].cnpj != 0, \"No existe conta associada ao endereo \");\r\n\r\n                require(isFornecedor(_to), \"A conta de destino precisa ser de um fornecedor\");\r\n                require(pjsInfo[_to].estado == EstadoContaBlockchain.VALIDADA, \"A conta do endereo no est validada\");\r\n\r\n                emit Transferencia(pjsInfo[from].cnpj, pjsInfo[from].idSubcredito, pjsInfo[_to].cnpj, _value);\r\n  \r\n                _transfer(msg.sender, _to, _value);\r\n            }\r\n        }\r\n\r\n        return true;\r\n    }\r\n\r\n    function validarCadastro(address _addr, string memory _hashdeclaracao) onlyOwner public {\r\n\r\n        require(pjsInfo[_addr].estado == EstadoContaBlockchain.AGUARDANDO_VALIDACAO, \"A conta precisa estar no estado Aguardando Validao\");\r\n\r\n        require(keccak256(abi.encodePacked(pjsInfo[_addr].hashdeclaracao)) == keccak256(abi.encodePacked(_hashdeclaracao)), \"\");\r\n\r\n        pjsInfo[_addr].estado = EstadoContaBlockchain.VALIDADA;\r\n\r\n        emit ValidacaoConta(_addr);\r\n    }\r\n\r\n    function invalidarCadastro(address _addr) onlyOwner public {\r\n\r\n        require(pjsInfo[_addr].estado == EstadoContaBlockchain.AGUARDANDO_VALIDACAO, \"A conta precisa estar no estado Aguardando Validao\");\r\n\r\n        pjsInfo[_addr].estado = EstadoContaBlockchain.INVALIDADA_CADASTRO;\r\n\r\n        emit InvalidacaoCadastroConta(_addr);\r\n    }\r\n\r\n    function isContaValidada(address _addr) view public returns (bool) {\r\n\r\n        return pjsInfo[_addr].estado == EstadoContaBlockchain.VALIDADA;\r\n    }\r\n\r\n    function isFornecedor(address _addr) view public returns (bool) {\r\n\r\n        if (_addr == owner())\r\n            return false;\r\n\r\n        return pjsInfo[_addr].idSubcredito == 0;\r\n    }\r\n\r\n    function isValidatedSupplier (address _addr) view public returns (bool) {\r\n        return isFornecedor(_addr) && (pjsInfo[_addr].estado == EstadoContaBlockchain.VALIDADA);\r\n    }\r\n\r\n\r\n    function isCliente (address _addr) view public returns (bool) {\r\n\r\n        if (_addr == owner())\r\n            return false;\r\n\r\n        return pjsInfo[_addr].idSubcredito != 0;\r\n    }\r\n\r\n    function isValidatedClient (address _addr) view public returns (bool) {\r\n        return isCliente(_addr) && (pjsInfo[_addr].estado == EstadoContaBlockchain.VALIDADA);\r\n    }\r\n\r\n    //TODO: isBNDES deveria pegar minters tb? Openzepellin abriu a possibilidade de adicionarmos novos minters\r\n    function isBNDES(address _addr) view public returns (bool) {\r\n        return (_addr == owner());\r\n    }\r\n\r\n    function isResponsibleForSettlement(address _addr) view public returns (bool) {\r\n        return (_addr == responsibleForSettlement);\r\n    }    \r\n\r\n    function notificaLiquidacaoResgate(string memory redemptionTransactionHash, string memory receiptHash, bool isOk) \r\n        public {\r\n        require (msg.sender==responsibleForSettlement, \"A liquidao no pode ser realizada pelo endereo que submeteu a transao\"); \r\n        emit LiquidacaoResgate(redemptionTransactionHash, receiptHash, isOk);\r\n    }\r\n\r\n    function getEstadoContaAsString(address _addr) view public returns (string memory) {\r\n\r\n        if ( pjsInfo[_addr].estado == EstadoContaBlockchain.VALIDADA ) {\r\n            return \"Validada\"; \r\n        } else if ( pjsInfo[_addr].estado == EstadoContaBlockchain.INVALIDADA_CADASTRO ) {\r\n            return \"Conta invalidada no Cadastro\";\r\n        } else if ( pjsInfo[_addr].estado == EstadoContaBlockchain.INVALIDADA_TROCA ) {\r\n            return \"Conta invalidada por Troca de Conta\";\r\n        } else if ( pjsInfo[_addr].estado == EstadoContaBlockchain.AGUARDANDO_VALIDACAO ) {\r\n            return \"Aguardando validao do Cadastro\";\r\n        } else if ( pjsInfo[_addr].cnpj == 0 && pjsInfo[_addr].estado == EstadoContaBlockchain.DISPONIVEL) {\r\n            return \"Disponvel\";\r\n        } else {\r\n            return \"Erro\";\r\n        }\r\n\r\n    }\r\n\r\n\r\n\r\n}",
  "sourcePath": "D:/git.repo/bndestoken/Back-Blockchain/contracts/BNDESToken.sol",
  "compiler": {
    "name": "solc",
    "version": "0.5.0+commit.1d4f565a.Emscripten.clang"
  },
  "schemaVersion": "3.0.2",
  "updatedAt": "2019-04-01T14:55:52.522Z",
  "devdoc": {
    "methods": {
      "allowance(address,address)": {
        "details": "Function to check the amount of tokens that an owner allowed to a spender.",
        "params": {
          "owner": "address The address which owns the funds.",
          "spender": "address The address which will spend the funds."
        },
        "return": "A uint256 specifying the amount of tokens still available for the spender."
      },
      "balanceOf(address)": {
        "details": "Gets the balance of the specified address.",
        "params": {
          "owner": "The address to query the balance of."
        },
        "return": "An uint256 representing the amount owned by the passed address."
      },
      "burn(uint256)": {
        "details": "Burns a specific amount of tokens.",
        "params": {
          "value": "The amount of token to be burned."
        }
      },
      "burnFrom(address,uint256)": {
        "details": "Burns a specific amount of tokens from the target address and decrements allowance",
        "params": {
          "from": "address The address which you want to send tokens from",
          "value": "uint256 The amount of token to be burned"
        }
      },
      "decimals()": {
        "return": "the number of decimals of the token."
      },
      "isOwner()": {
        "return": "true if `msg.sender` is the owner of the contract."
      },
      "mint(address,uint256)": {
        "details": "Function to mint tokens",
        "params": {
          "to": "The address that will receive the minted tokens.",
          "value": "The amount of tokens to mint."
        },
        "return": "A boolean that indicates if the operation was successful."
      },
      "name()": {
        "return": "the name of the token."
      },
      "owner()": {
        "return": "the address of the owner."
      },
      "pause()": {
        "details": "called by the owner to pause, triggers stopped state"
      },
      "paused()": {
        "return": "true if the contract is paused, false otherwise."
      },
      "renounceOwnership()": {
        "details": "Allows the current owner to relinquish control of the contract."
      },
      "symbol()": {
        "return": "the symbol of the token."
      },
      "totalSupply()": {
        "details": "Total number of tokens in existence"
      },
      "transferOwnership(address)": {
        "details": "Allows the current owner to transfer control of the contract to a newOwner.",
        "params": {
          "newOwner": "The address to transfer ownership to."
        }
      },
      "unpause()": {
        "details": "called by the owner to unpause, returns to normal state"
      }
    }
  },
  "userdoc": {
    "methods": {
      "cadastra(uint256,uint256,uint256,string)": {
        "notice": "Associa um endereo blockchain ao CNPJ\r"
      },
      "renounceOwnership()": {
        "notice": "Renouncing to ownership will leave the contract without an owner. It will not be possible to call the functions with the `onlyOwner` modifier anymore."
      },
      "troca(uint256,uint256)": {
        "notice": "Reassocia um cnpj/subcrdito a um novo endereo da blockchain (o sender)\r"
      }
    }
  }
}