{
  "contractName": "BNDESRegistry",
  "abi": [
    {
      "constant": true,
      "inputs": [
        {
          "name": "",
          "type": "address"
        }
      ],
      "name": "legalEntitiesInfo",
      "outputs": [
        {
          "name": "cnpj",
          "type": "uint64"
        },
        {
          "name": "idFinancialSupportAgreement",
          "type": "uint64"
        },
        {
          "name": "salic",
          "type": "uint32"
        },
        {
          "name": "idProofHash",
          "type": "string"
        },
        {
          "name": "state",
          "type": "uint8"
        }
      ],
      "payable": false,
      "stateMutability": "view",
      "type": "function"
    },
    {
      "constant": true,
      "inputs": [
        {
          "name": "",
          "type": "address"
        }
      ],
      "name": "legalEntitiesChangeAccount",
      "outputs": [
        {
          "name": "",
          "type": "bool"
        }
      ],
      "payable": false,
      "stateMutability": "view",
      "type": "function"
    },
    {
      "constant": false,
      "inputs": [],
      "name": "renounceOwnership",
      "outputs": [],
      "payable": false,
      "stateMutability": "nonpayable",
      "type": "function"
    },
    {
      "constant": true,
      "inputs": [],
      "name": "owner",
      "outputs": [
        {
          "name": "",
          "type": "address"
        }
      ],
      "payable": false,
      "stateMutability": "view",
      "type": "function"
    },
    {
      "constant": false,
      "inputs": [
        {
          "name": "newOwner",
          "type": "address"
        }
      ],
      "name": "transferOwnership",
      "outputs": [],
      "payable": false,
      "stateMutability": "nonpayable",
      "type": "function"
    },
    {
      "inputs": [],
      "payable": false,
      "stateMutability": "nonpayable",
      "type": "constructor"
    },
    {
      "anonymous": false,
      "inputs": [
        {
          "indexed": false,
          "name": "addr",
          "type": "address"
        },
        {
          "indexed": false,
          "name": "cnpj",
          "type": "uint64"
        },
        {
          "indexed": false,
          "name": "idFinancialSupportAgreement",
          "type": "uint64"
        },
        {
          "indexed": false,
          "name": "salic",
          "type": "uint32"
        },
        {
          "indexed": false,
          "name": "idProofHash",
          "type": "string"
        }
      ],
      "name": "AccountRegistration",
      "type": "event"
    },
    {
      "anonymous": false,
      "inputs": [
        {
          "indexed": false,
          "name": "oldAddr",
          "type": "address"
        },
        {
          "indexed": false,
          "name": "newAddr",
          "type": "address"
        },
        {
          "indexed": false,
          "name": "cnpj",
          "type": "uint64"
        },
        {
          "indexed": false,
          "name": "idFinancialSupportAgreement",
          "type": "uint64"
        },
        {
          "indexed": false,
          "name": "salic",
          "type": "uint32"
        },
        {
          "indexed": false,
          "name": "idProofHash",
          "type": "string"
        }
      ],
      "name": "AccountChange",
      "type": "event"
    },
    {
      "anonymous": false,
      "inputs": [
        {
          "indexed": false,
          "name": "addr",
          "type": "address"
        },
        {
          "indexed": false,
          "name": "cnpj",
          "type": "uint64"
        },
        {
          "indexed": false,
          "name": "idFinancialSupportAgreement",
          "type": "uint64"
        },
        {
          "indexed": false,
          "name": "salic",
          "type": "uint32"
        }
      ],
      "name": "AccountValidation",
      "type": "event"
    },
    {
      "anonymous": false,
      "inputs": [
        {
          "indexed": false,
          "name": "addr",
          "type": "address"
        },
        {
          "indexed": false,
          "name": "cnpj",
          "type": "uint64"
        },
        {
          "indexed": false,
          "name": "idFinancialSupportAgreement",
          "type": "uint64"
        },
        {
          "indexed": false,
          "name": "salic",
          "type": "uint32"
        }
      ],
      "name": "AccountInvalidation",
      "type": "event"
    },
    {
      "anonymous": false,
      "inputs": [
        {
          "indexed": true,
          "name": "previousOwner",
          "type": "address"
        },
        {
          "indexed": true,
          "name": "newOwner",
          "type": "address"
        }
      ],
      "name": "OwnershipTransferred",
      "type": "event"
    },
    {
      "constant": false,
      "inputs": [
        {
          "name": "cnpj",
          "type": "uint64"
        },
        {
          "name": "idFinancialSupportAgreement",
          "type": "uint64"
        },
        {
          "name": "salic",
          "type": "uint32"
        },
        {
          "name": "idProofHash",
          "type": "string"
        }
      ],
      "name": "registryLegalEntity",
      "outputs": [],
      "payable": false,
      "stateMutability": "nonpayable",
      "type": "function"
    },
    {
      "constant": false,
      "inputs": [
        {
          "name": "cnpj",
          "type": "uint64"
        },
        {
          "name": "idFinancialSupportAgreement",
          "type": "uint64"
        },
        {
          "name": "salic",
          "type": "uint32"
        },
        {
          "name": "idProofHash",
          "type": "string"
        }
      ],
      "name": "changeAccountLegalEntity",
      "outputs": [],
      "payable": false,
      "stateMutability": "nonpayable",
      "type": "function"
    },
    {
      "constant": false,
      "inputs": [
        {
          "name": "addr",
          "type": "address"
        },
        {
          "name": "idProofHash",
          "type": "string"
        }
      ],
      "name": "validateRegistryLegalEntity",
      "outputs": [],
      "payable": false,
      "stateMutability": "nonpayable",
      "type": "function"
    },
    {
      "constant": false,
      "inputs": [
        {
          "name": "addr",
          "type": "address"
        }
      ],
      "name": "invalidateRegistryLegalEntity",
      "outputs": [],
      "payable": false,
      "stateMutability": "nonpayable",
      "type": "function"
    },
    {
      "constant": false,
      "inputs": [
        {
          "name": "rs",
          "type": "address"
        }
      ],
      "name": "setResponsibleForSettlement",
      "outputs": [],
      "payable": false,
      "stateMutability": "nonpayable",
      "type": "function"
    },
    {
      "constant": false,
      "inputs": [
        {
          "name": "rs",
          "type": "address"
        }
      ],
      "name": "setResponsibleForRegistryValidation",
      "outputs": [],
      "payable": false,
      "stateMutability": "nonpayable",
      "type": "function"
    },
    {
      "constant": false,
      "inputs": [
        {
          "name": "rs",
          "type": "address"
        }
      ],
      "name": "setResponsibleForDisbursement",
      "outputs": [],
      "payable": false,
      "stateMutability": "nonpayable",
      "type": "function"
    },
    {
      "constant": false,
      "inputs": [
        {
          "name": "rs",
          "type": "address"
        }
      ],
      "name": "setRedemptionAddress",
      "outputs": [],
      "payable": false,
      "stateMutability": "nonpayable",
      "type": "function"
    },
    {
      "constant": false,
      "inputs": [
        {
          "name": "rs",
          "type": "address"
        }
      ],
      "name": "enableChangeAccount",
      "outputs": [],
      "payable": false,
      "stateMutability": "nonpayable",
      "type": "function"
    },
    {
      "constant": true,
      "inputs": [
        {
          "name": "rs",
          "type": "address"
        }
      ],
      "name": "isChangeAccountEnabled",
      "outputs": [
        {
          "name": "",
          "type": "bool"
        }
      ],
      "payable": false,
      "stateMutability": "view",
      "type": "function"
    },
    {
      "constant": true,
      "inputs": [
        {
          "name": "addr",
          "type": "address"
        }
      ],
      "name": "isResponsibleForSettlement",
      "outputs": [
        {
          "name": "",
          "type": "bool"
        }
      ],
      "payable": false,
      "stateMutability": "view",
      "type": "function"
    },
    {
      "constant": true,
      "inputs": [
        {
          "name": "addr",
          "type": "address"
        }
      ],
      "name": "isResponsibleForRegistryValidation",
      "outputs": [
        {
          "name": "",
          "type": "bool"
        }
      ],
      "payable": false,
      "stateMutability": "view",
      "type": "function"
    },
    {
      "constant": true,
      "inputs": [
        {
          "name": "addr",
          "type": "address"
        }
      ],
      "name": "isResponsibleForDisbursement",
      "outputs": [
        {
          "name": "",
          "type": "bool"
        }
      ],
      "payable": false,
      "stateMutability": "view",
      "type": "function"
    },
    {
      "constant": true,
      "inputs": [
        {
          "name": "addr",
          "type": "address"
        }
      ],
      "name": "isRedemptionAddress",
      "outputs": [
        {
          "name": "",
          "type": "bool"
        }
      ],
      "payable": false,
      "stateMutability": "view",
      "type": "function"
    },
    {
      "constant": true,
      "inputs": [
        {
          "name": "addr",
          "type": "address"
        }
      ],
      "name": "isReservedAccount",
      "outputs": [
        {
          "name": "",
          "type": "bool"
        }
      ],
      "payable": false,
      "stateMutability": "view",
      "type": "function"
    },
    {
      "constant": true,
      "inputs": [
        {
          "name": "addr",
          "type": "address"
        }
      ],
      "name": "isOwner",
      "outputs": [
        {
          "name": "",
          "type": "bool"
        }
      ],
      "payable": false,
      "stateMutability": "view",
      "type": "function"
    },
    {
      "constant": true,
      "inputs": [],
      "name": "isOwner",
      "outputs": [
        {
          "name": "",
          "type": "bool"
        }
      ],
      "payable": false,
      "stateMutability": "view",
      "type": "function"
    },
    {
      "constant": true,
      "inputs": [
        {
          "name": "addr",
          "type": "address"
        }
      ],
      "name": "isSupplier",
      "outputs": [
        {
          "name": "",
          "type": "bool"
        }
      ],
      "payable": false,
      "stateMutability": "view",
      "type": "function"
    },
    {
      "constant": true,
      "inputs": [
        {
          "name": "addr",
          "type": "address"
        }
      ],
      "name": "isValidatedSupplier",
      "outputs": [
        {
          "name": "",
          "type": "bool"
        }
      ],
      "payable": false,
      "stateMutability": "view",
      "type": "function"
    },
    {
      "constant": true,
      "inputs": [
        {
          "name": "addr",
          "type": "address"
        }
      ],
      "name": "isClient",
      "outputs": [
        {
          "name": "",
          "type": "bool"
        }
      ],
      "payable": false,
      "stateMutability": "view",
      "type": "function"
    },
    {
      "constant": true,
      "inputs": [
        {
          "name": "addr",
          "type": "address"
        }
      ],
      "name": "isValidatedClient",
      "outputs": [
        {
          "name": "",
          "type": "bool"
        }
      ],
      "payable": false,
      "stateMutability": "view",
      "type": "function"
    },
    {
      "constant": true,
      "inputs": [
        {
          "name": "addr",
          "type": "address"
        }
      ],
      "name": "isAvailableAccount",
      "outputs": [
        {
          "name": "",
          "type": "bool"
        }
      ],
      "payable": false,
      "stateMutability": "view",
      "type": "function"
    },
    {
      "constant": true,
      "inputs": [
        {
          "name": "addr",
          "type": "address"
        }
      ],
      "name": "isWaitingValidationAccount",
      "outputs": [
        {
          "name": "",
          "type": "bool"
        }
      ],
      "payable": false,
      "stateMutability": "view",
      "type": "function"
    },
    {
      "constant": true,
      "inputs": [
        {
          "name": "addr",
          "type": "address"
        }
      ],
      "name": "isValidatedAccount",
      "outputs": [
        {
          "name": "",
          "type": "bool"
        }
      ],
      "payable": false,
      "stateMutability": "view",
      "type": "function"
    },
    {
      "constant": true,
      "inputs": [
        {
          "name": "addr",
          "type": "address"
        }
      ],
      "name": "isInvalidatedByValidatorAccount",
      "outputs": [
        {
          "name": "",
          "type": "bool"
        }
      ],
      "payable": false,
      "stateMutability": "view",
      "type": "function"
    },
    {
      "constant": true,
      "inputs": [
        {
          "name": "addr",
          "type": "address"
        }
      ],
      "name": "isInvalidatedByChangeAccount",
      "outputs": [
        {
          "name": "",
          "type": "bool"
        }
      ],
      "payable": false,
      "stateMutability": "view",
      "type": "function"
    },
    {
      "constant": true,
      "inputs": [],
      "name": "getResponsibleForSettlement",
      "outputs": [
        {
          "name": "",
          "type": "address"
        }
      ],
      "payable": false,
      "stateMutability": "view",
      "type": "function"
    },
    {
      "constant": true,
      "inputs": [],
      "name": "getResponsibleForRegistryValidation",
      "outputs": [
        {
          "name": "",
          "type": "address"
        }
      ],
      "payable": false,
      "stateMutability": "view",
      "type": "function"
    },
    {
      "constant": true,
      "inputs": [],
      "name": "getResponsibleForDisbursement",
      "outputs": [
        {
          "name": "",
          "type": "address"
        }
      ],
      "payable": false,
      "stateMutability": "view",
      "type": "function"
    },
    {
      "constant": true,
      "inputs": [],
      "name": "getRedemptionAddress",
      "outputs": [
        {
          "name": "",
          "type": "address"
        }
      ],
      "payable": false,
      "stateMutability": "view",
      "type": "function"
    },
    {
      "constant": true,
      "inputs": [
        {
          "name": "addr",
          "type": "address"
        }
      ],
      "name": "getCNPJ",
      "outputs": [
        {
          "name": "",
          "type": "uint64"
        }
      ],
      "payable": false,
      "stateMutability": "view",
      "type": "function"
    },
    {
      "constant": true,
      "inputs": [
        {
          "name": "addr",
          "type": "address"
        }
      ],
      "name": "getIdLegalFinancialAgreement",
      "outputs": [
        {
          "name": "",
          "type": "uint64"
        }
      ],
      "payable": false,
      "stateMutability": "view",
      "type": "function"
    },
    {
      "constant": true,
      "inputs": [
        {
          "name": "addr",
          "type": "address"
        }
      ],
      "name": "getLegalEntityInfo",
      "outputs": [
        {
          "name": "",
          "type": "uint64"
        },
        {
          "name": "",
          "type": "uint64"
        },
        {
          "name": "",
          "type": "uint32"
        },
        {
          "name": "",
          "type": "string"
        },
        {
          "name": "",
          "type": "uint256"
        },
        {
          "name": "",
          "type": "address"
        }
      ],
      "payable": false,
      "stateMutability": "view",
      "type": "function"
    },
    {
      "constant": true,
      "inputs": [
        {
          "name": "cnpj",
          "type": "uint64"
        },
        {
          "name": "idFinancialSupportAgreement",
          "type": "uint64"
        }
      ],
      "name": "getBlockchainAccount",
      "outputs": [
        {
          "name": "",
          "type": "address"
        }
      ],
      "payable": false,
      "stateMutability": "view",
      "type": "function"
    },
    {
      "constant": true,
      "inputs": [
        {
          "name": "cnpj",
          "type": "uint64"
        },
        {
          "name": "idFinancialSupportAgreement",
          "type": "uint64"
        }
      ],
      "name": "getLegalEntityInfoByCNPJ",
      "outputs": [
        {
          "name": "",
          "type": "uint64"
        },
        {
          "name": "",
          "type": "uint64"
        },
        {
          "name": "",
          "type": "uint32"
        },
        {
          "name": "",
          "type": "string"
        },
        {
          "name": "",
          "type": "uint256"
        },
        {
          "name": "",
          "type": "address"
        }
      ],
      "payable": false,
      "stateMutability": "view",
      "type": "function"
    },
    {
      "constant": true,
      "inputs": [
        {
          "name": "addr",
          "type": "address"
        }
      ],
      "name": "getAccountState",
      "outputs": [
        {
          "name": "",
          "type": "int256"
        }
      ],
      "payable": false,
      "stateMutability": "view",
      "type": "function"
    },
    {
      "constant": true,
      "inputs": [
        {
          "name": "str",
          "type": "string"
        }
      ],
      "name": "isValidHash",
      "outputs": [
        {
          "name": "",
          "type": "bool"
        }
      ],
      "payable": false,
      "stateMutability": "pure",
      "type": "function"
    }
  ],
  "bytecode": "0x608060405234801561001057600080fd5b50336000806101000a81548173ffffffffffffffffffffffffffffffffffffffff021916908373ffffffffffffffffffffffffffffffffffffffff1602179055506000809054906101000a900473ffffffffffffffffffffffffffffffffffffffff1673ffffffffffffffffffffffffffffffffffffffff16600073ffffffffffffffffffffffffffffffffffffffff167f8be0079c531659141344cd1fd0a4f28419497f9722a3daafe3b4186f6b6457e060405160405180910390a333600160006101000a81548173ffffffffffffffffffffffffffffffffffffffff021916908373ffffffffffffffffffffffffffffffffffffffff16021790555033600260006101000a81548173ffffffffffffffffffffffffffffffffffffffff021916908373ffffffffffffffffffffffffffffffffffffffff16021790555033600360006101000a81548173ffffffffffffffffffffffffffffffffffffffff021916908373ffffffffffffffffffffffffffffffffffffffff16021790555033600460006101000a81548173ffffffffffffffffffffffffffffffffffffffff021916908373ffffffffffffffffffffffffffffffffffffffff160217905550614593806101e06000396000f3fe608060405260043610610204576000357c0100000000000000000000000000000000000000000000000000000000900463ffffffff1680630c4471bd146102095780631675506514610272578063184c89311461037257806326ff4794146103db5780632f54bf6e14610503578063348da3f21461056c57806339333849146105d55780633abba2ef1461066e5780633d44e5c6146106d7578063434baaf21461072857806346336542146107915780634add3110146107fa578063576590cb1461086357806357cdcb3e146108cc5780635e096cef146109235780636426a11614610a235780636edcb12f14610a8c578063715018a614610b6c5780637943653d14610b8357806379b8369e14610bec578063803b8a4214610c43578063845283de14610d2b57806384b7964f14610d9457806385fecf9b14610dfd578063876c6e9b14610e665780638cbd258f14610edf5780638da5cb5b14610f305780638f32d59b14610f8757806390e42c7e14610fb65780639ee2735b146110075780639f5e1ddd1461106c578063a3d88453146111b9578063a530634c14611222578063b41842b914611377578063b7196f37146113c8578063b7404ff51461141f578063b8e7c21d14611470578063be49b78d146114d9578063c01ed21014611552578063cc7e1b9a146115bb578063f2fde38b1461160c578063f4ec73671461165d575b600080fd5b34801561021557600080fd5b506102586004803603602081101561022c57600080fd5b81019080803573ffffffffffffffffffffffffffffffffffffffff1690602001909291905050506116b4565b604051808215151515815260200191505060405180910390f35b34801561027e57600080fd5b506103706004803603608081101561029557600080fd5b81019080803567ffffffffffffffff169060200190929190803567ffffffffffffffff169060200190929190803563ffffffff169060200190929190803590602001906401000000008111156102ea57600080fd5b8201836020820111156102fc57600080fd5b8035906020019184600183028401116401000000008311171561031e57600080fd5b91908080601f016020809104026020016040519081016040528093929190818152602001838380828437600081840152601f19601f820116905080830192505050505050509192919290505050611726565b005b34801561037e57600080fd5b506103c16004803603602081101561039557600080fd5b81019080803573ffffffffffffffffffffffffffffffffffffffff169060200190929190505050611d44565b604051808215151515815260200191505060405180910390f35b3480156103e757600080fd5b5061042a600480360360208110156103fe57600080fd5b81019080803573ffffffffffffffffffffffffffffffffffffffff169060200190929190505050611da7565b604051808667ffffffffffffffff1667ffffffffffffffff1681526020018567ffffffffffffffff1667ffffffffffffffff1681526020018463ffffffff1663ffffffff1681526020018060200183600481111561048457fe5b60ff168152602001828103825284818151815260200191508051906020019080838360005b838110156104c45780820151818401526020810190506104a9565b50505050905090810190601f1680156104f15780820380516001836020036101000a031916815260200191505b50965050505050505060405180910390f35b34801561050f57600080fd5b506105526004803603602081101561052657600080fd5b81019080803573ffffffffffffffffffffffffffffffffffffffff169060200190929190505050611eba565b604051808215151515815260200191505060405180910390f35b34801561057857600080fd5b506105bb6004803603602081101561058f57600080fd5b81019080803573ffffffffffffffffffffffffffffffffffffffff169060200190929190505050611ef9565b604051808215151515815260200191505060405180910390f35b3480156105e157600080fd5b5061062c600480360360408110156105f857600080fd5b81019080803567ffffffffffffffff169060200190929190803567ffffffffffffffff169060200190929190505050611f7c565b604051808273ffffffffffffffffffffffffffffffffffffffff1673ffffffffffffffffffffffffffffffffffffffff16815260200191505060405180910390f35b34801561067a57600080fd5b506106bd6004803603602081101561069157600080fd5b81019080803573ffffffffffffffffffffffffffffffffffffffff169060200190929190505050611ff3565b604051808215151515815260200191505060405180910390f35b3480156106e357600080fd5b50610726600480360360208110156106fa57600080fd5b81019080803573ffffffffffffffffffffffffffffffffffffffff16906020019092919050505061204d565b005b34801561073457600080fd5b506107776004803603602081101561074b57600080fd5b81019080803573ffffffffffffffffffffffffffffffffffffffff169060200190929190505050612171565b604051808215151515815260200191505060405180910390f35b34801561079d57600080fd5b506107e0600480360360208110156107b457600080fd5b81019080803573ffffffffffffffffffffffffffffffffffffffff1690602001909291905050506121ce565b604051808215151515815260200191505060405180910390f35b34801561080657600080fd5b506108496004803603602081101561081d57600080fd5b81019080803573ffffffffffffffffffffffffffffffffffffffff16906020019092919050505061226a565b604051808215151515815260200191505060405180910390f35b34801561086f57600080fd5b506108b26004803603602081101561088657600080fd5b81019080803573ffffffffffffffffffffffffffffffffffffffff1690602001909291905050506122c4565b604051808215151515815260200191505060405180910390f35b3480156108d857600080fd5b506108e16122e4565b604051808273ffffffffffffffffffffffffffffffffffffffff1673ffffffffffffffffffffffffffffffffffffffff16815260200191505060405180910390f35b34801561092f57600080fd5b50610a216004803603608081101561094657600080fd5b81019080803567ffffffffffffffff169060200190929190803567ffffffffffffffff169060200190929190803563ffffffff1690602001909291908035906020019064010000000081111561099b57600080fd5b8201836020820111156109ad57600080fd5b803590602001918460018302840111640100000000831117156109cf57600080fd5b91908080601f016020809104026020016040519081016040528093929190818152602001838380828437600081840152601f19601f82011690508083019250505050505050919291929050505061230e565b005b348015610a2f57600080fd5b50610a7260048036036020811015610a4657600080fd5b81019080803573ffffffffffffffffffffffffffffffffffffffff169060200190929190505050612d43565b604051808215151515815260200191505060405180910390f35b348015610a9857600080fd5b50610b5260048036036020811015610aaf57600080fd5b8101908080359060200190640100000000811115610acc57600080fd5b820183602082011115610ade57600080fd5b80359060200191846001830284011164010000000083111715610b0057600080fd5b91908080601f016020809104026020016040519081016040528093929190818152602001838380828437600081840152601f19601f820116905080830192505050505050509192919290505050612db5565b604051808215151515815260200191505060405180910390f35b348015610b7857600080fd5b50610b816130a5565b005b348015610b8f57600080fd5b50610bd260048036036020811015610ba657600080fd5b81019080803573ffffffffffffffffffffffffffffffffffffffff169060200190929190505050613177565b604051808215151515815260200191505060405180910390f35b348015610bf857600080fd5b50610c016131d1565b604051808273ffffffffffffffffffffffffffffffffffffffff1673ffffffffffffffffffffffffffffffffffffffff16815260200191505060405180910390f35b348015610c4f57600080fd5b50610d2960048036036040811015610c6657600080fd5b81019080803573ffffffffffffffffffffffffffffffffffffffff16906020019092919080359060200190640100000000811115610ca357600080fd5b820183602082011115610cb557600080fd5b80359060200191846001830284011164010000000083111715610cd757600080fd5b91908080601f016020809104026020016040519081016040528093929190818152602001838380828437600081840152601f19601f8201169050808301925050505050505091929192905050506131fb565b005b348015610d3757600080fd5b50610d7a60048036036020811015610d4e57600080fd5b81019080803573ffffffffffffffffffffffffffffffffffffffff169060200190929190505050613780565b604051808215151515815260200191505060405180910390f35b348015610da057600080fd5b50610de360048036036020811015610db757600080fd5b81019080803573ffffffffffffffffffffffffffffffffffffffff1690602001909291905050506137f2565b604051808215151515815260200191505060405180910390f35b348015610e0957600080fd5b50610e4c60048036036020811015610e2057600080fd5b81019080803573ffffffffffffffffffffffffffffffffffffffff169060200190929190505050613878565b604051808215151515815260200191505060405180910390f35b348015610e7257600080fd5b50610eb560048036036020811015610e8957600080fd5b81019080803573ffffffffffffffffffffffffffffffffffffffff1690602001909291905050506138d2565b604051808267ffffffffffffffff1667ffffffffffffffff16815260200191505060405180910390f35b348015610eeb57600080fd5b50610f2e60048036036020811015610f0257600080fd5b81019080803573ffffffffffffffffffffffffffffffffffffffff169060200190929190505050613932565b005b348015610f3c57600080fd5b50610f45613989565b604051808273ffffffffffffffffffffffffffffffffffffffff1673ffffffffffffffffffffffffffffffffffffffff16815260200191505060405180910390f35b348015610f9357600080fd5b50610f9c6139b2565b604051808215151515815260200191505060405180910390f35b348015610fc257600080fd5b5061100560048036036020811015610fd957600080fd5b81019080803573ffffffffffffffffffffffffffffffffffffffff169060200190929190505050613a09565b005b34801561101357600080fd5b506110566004803603602081101561102a57600080fd5b81019080803573ffffffffffffffffffffffffffffffffffffffff169060200190929190505050613a60565b6040518082815260200191505060405180910390f35b34801561107857600080fd5b506110bb6004803603602081101561108f57600080fd5b81019080803573ffffffffffffffffffffffffffffffffffffffff169060200190929190505050613adc565b604051808767ffffffffffffffff1667ffffffffffffffff1681526020018667ffffffffffffffff1667ffffffffffffffff1681526020018563ffffffff1663ffffffff168152602001806020018481526020018373ffffffffffffffffffffffffffffffffffffffff1673ffffffffffffffffffffffffffffffffffffffff168152602001828103825285818151815260200191508051906020019080838360005b8381101561117957808201518184015260208101905061115e565b50505050905090810190601f1680156111a65780820380516001836020036101000a031916815260200191505b5097505050505050505060405180910390f35b3480156111c557600080fd5b50611208600480360360208110156111dc57600080fd5b81019080803573ffffffffffffffffffffffffffffffffffffffff169060200190929190505050613d36565b604051808215151515815260200191505060405180910390f35b34801561122e57600080fd5b506112796004803603604081101561124557600080fd5b81019080803567ffffffffffffffff169060200190929190803567ffffffffffffffff169060200190929190505050613dc0565b604051808767ffffffffffffffff1667ffffffffffffffff1681526020018667ffffffffffffffff1667ffffffffffffffff1681526020018563ffffffff1663ffffffff168152602001806020018481526020018373ffffffffffffffffffffffffffffffffffffffff1673ffffffffffffffffffffffffffffffffffffffff168152602001828103825285818151815260200191508051906020019080838360005b8381101561133757808201518184015260208101905061131c565b50505050905090810190601f1680156113645780820380516001836020036101000a031916815260200191505b5097505050505050505060405180910390f35b34801561138357600080fd5b506113c66004803603602081101561139a57600080fd5b81019080803573ffffffffffffffffffffffffffffffffffffffff169060200190929190505050613df8565b005b3480156113d457600080fd5b506113dd614153565b604051808273ffffffffffffffffffffffffffffffffffffffff1673ffffffffffffffffffffffffffffffffffffffff16815260200191505060405180910390f35b34801561142b57600080fd5b5061146e6004803603602081101561144257600080fd5b81019080803573ffffffffffffffffffffffffffffffffffffffff16906020019092919050505061417d565b005b34801561147c57600080fd5b506114bf6004803603602081101561149357600080fd5b81019080803573ffffffffffffffffffffffffffffffffffffffff1690602001909291905050506141d4565b604051808215151515815260200191505060405180910390f35b3480156114e557600080fd5b50611528600480360360208110156114fc57600080fd5b81019080803573ffffffffffffffffffffffffffffffffffffffff169060200190929190505050614245565b604051808267ffffffffffffffff1667ffffffffffffffff16815260200191505060405180910390f35b34801561155e57600080fd5b506115a16004803603602081101561157557600080fd5b81019080803573ffffffffffffffffffffffffffffffffffffffff1690602001909291905050506142a5565b604051808215151515815260200191505060405180910390f35b3480156115c757600080fd5b5061160a600480360360208110156115de57600080fd5b81019080803573ffffffffffffffffffffffffffffffffffffffff169060200190929190505050614328565b005b34801561161857600080fd5b5061165b6004803603602081101561162f57600080fd5b81019080803573ffffffffffffffffffffffffffffffffffffffff16906020019092919050505061437f565b005b34801561166957600080fd5b5061167261439e565b604051808273ffffffffffffffffffffffffffffffffffffffff1673ffffffffffffffffffffffffffffffffffffffff16815260200191505060405180910390f35b6000600160048111156116c357fe5b600560008473ffffffffffffffffffffffffffffffffffffffff1673ffffffffffffffffffffffffffffffffffffffff16815260200190815260200160002060020160009054906101000a900460ff16600481111561171e57fe5b149050919050565b600033905061173481613d36565b15156117ce576040517f08c379a00000000000000000000000000000000000000000000000000000000081526004018080602001828103825260358152602001807f456e64657265c3a76f206ec3a36f20706f646520746572207369646f2063616481526020017f6173747261646f20616e746572696f726d656e7465000000000000000000000081525060400191505060405180910390fd5b6117d782612db5565b1515611871576040517f08c379a00000000000000000000000000000000000000000000000000000000081526004018080602001828103825260238152602001807f4f2068617368206461206465636c617261c3a7c3a36f20c3a920696e76c3a16c81526020017f69646f000000000000000000000000000000000000000000000000000000000081525060400191505060405180910390fd5b60a0604051908101604052808667ffffffffffffffff1681526020018567ffffffffffffffff1681526020018463ffffffff168152602001838152602001600160048111156118bc57fe5b815250600560008373ffffffffffffffffffffffffffffffffffffffff1673ffffffffffffffffffffffffffffffffffffffff16815260200190815260200160002060008201518160000160006101000a81548167ffffffffffffffff021916908367ffffffffffffffff16021790555060208201518160000160086101000a81548167ffffffffffffffff021916908367ffffffffffffffff16021790555060408201518160000160106101000a81548163ffffffff021916908363ffffffff160217905550606082015181600101908051906020019061199f9291906144c2565b5060808201518160020160006101000a81548160ff021916908360048111156119c457fe5b021790555090505060008467ffffffffffffffff161115611abc5760006119eb8686611f7c565b90506119f681613d36565b1515611ab6576040517f08c379a00000000000000000000000000000000000000000000000000000000081526004018080602001828103825260448152602001807f436c69656e7465206ac3a120657374c3a1206173736f636961646f2061206f7581526020017f74726f20656e64657265c3a76f2e2055736520612066756ec3a7c3a36f20547281526020017f6f63612e0000000000000000000000000000000000000000000000000000000081525060600191505060405180910390fd5b50611b96565b6000611ac9866000611f7c565b9050611ad481613d36565b1515611b94576040517f08c379a00000000000000000000000000000000000000000000000000000000081526004018080602001828103825260478152602001807f466f726e656365646f72206ac3a120657374c3a1206173736f636961646f206181526020017f206f7574726f20656e64657265c3a76f2e2055736520612066756ec3a7c3a36f81526020017f2054726f63612e0000000000000000000000000000000000000000000000000081525060600191505060405180910390fd5b505b80600660008767ffffffffffffffff1667ffffffffffffffff16815260200190815260200160002060008667ffffffffffffffff1667ffffffffffffffff16815260200190815260200160002060006101000a81548173ffffffffffffffffffffffffffffffffffffffff021916908373ffffffffffffffffffffffffffffffffffffffff1602179055507fdd642935494d30eab1c42790f71b6483dfc5962a284ec034372d9d49e0cb13bb8186868686604051808673ffffffffffffffffffffffffffffffffffffffff1673ffffffffffffffffffffffffffffffffffffffff1681526020018567ffffffffffffffff1667ffffffffffffffff1681526020018467ffffffffffffffff1667ffffffffffffffff1681526020018363ffffffff1663ffffffff16815260200180602001828103825283818151815260200191508051906020019080838360005b83811015611cff578082015181840152602081019050611ce4565b50505050905090810190601f168015611d2c5780820380516001836020036101000a031916815260200191505b50965050505050505060405180910390a15050505050565b6000611d4f82611eba565b80611d5f5750611d5e82613878565b5b80611d6f5750611d6e82611ff3565b5b80611d7f5750611d7e8261226a565b5b80611d8f5750611d8e82613177565b5b15611d9d5760019050611da2565b600090505b919050565b60056020528060005260406000206000915090508060000160009054906101000a900467ffffffffffffffff16908060000160089054906101000a900467ffffffffffffffff16908060000160109054906101000a900463ffffffff1690806001018054600181600116156101000203166002900480601f016020809104026020016040519081016040528092919081815260200182805460018160011615610100020316600290048015611e9d5780601f10611e7257610100808354040283529160200191611e9d565b820191906000526020600020905b815481529060010190602001808311611e8057829003601f168201915b5050505050908060020160009054906101000a900460ff16905085565b60008173ffffffffffffffffffffffffffffffffffffffff16611edb613989565b73ffffffffffffffffffffffffffffffffffffffff16149050919050565b6000611f04826121ce565b8015611f75575060026004811115611f1857fe5b600560008473ffffffffffffffffffffffffffffffffffffffff1673ffffffffffffffffffffffffffffffffffffffff16815260200190815260200160002060020160009054906101000a900460ff166004811115611f7357fe5b145b9050919050565b6000600660008467ffffffffffffffff1667ffffffffffffffff16815260200190815260200160002060008367ffffffffffffffff1667ffffffffffffffff16815260200190815260200160002060009054906101000a900473ffffffffffffffffffffffffffffffffffffffff16905092915050565b6000600260009054906101000a900473ffffffffffffffffffffffffffffffffffffffff1673ffffffffffffffffffffffffffffffffffffffff168273ffffffffffffffffffffffffffffffffffffffff16149050919050565b61205633611ff3565b1515612116576040517f08c379a00000000000000000000000000000000000000000000000000000000081526004018080602001828103825260478152602001807f536f6d656e7465206f20726573706f6e73c3a176656c2070656c612076616c6981526020017f6461c3a7c3a36f20706f646520686162696c6974617220612074726f6361206481526020017f6520636f6e74610000000000000000000000000000000000000000000000000081525060600191505060405180910390fd5b6001600760008373ffffffffffffffffffffffffffffffffffffffff1673ffffffffffffffffffffffffffffffffffffffff16815260200190815260200160002060006101000a81548160ff02191690831515021790555050565b600060011515600760008473ffffffffffffffffffffffffffffffffffffffff1673ffffffffffffffffffffffffffffffffffffffff16815260200190815260200160002060009054906101000a900460ff161515149050919050565b60006121d982611d44565b156121e75760009050612265565b6121f082613d36565b156121fe5760009050612265565b6000600560008473ffffffffffffffffffffffffffffffffffffffff1673ffffffffffffffffffffffffffffffffffffffff16815260200190815260200160002060000160089054906101000a900467ffffffffffffffff1667ffffffffffffffff161490505b919050565b6000600360009054906101000a900473ffffffffffffffffffffffffffffffffffffffff1673ffffffffffffffffffffffffffffffffffffffff168273ffffffffffffffffffffffffffffffffffffffff16149050919050565b60076020528060005260406000206000915054906101000a900460ff1681565b6000600360009054906101000a900473ffffffffffffffffffffffffffffffffffffffff16905090565b6000339050600061231f8686611f7c565b905061232a81611d44565b1515156123c5576040517f08c379a000000000000000000000000000000000000000000000000000000000815260040180806020018281038252602d8152602001807f4ec3a36f20706f64652074726f63617220656e64657265c3a76f20646520636f81526020017f6e7461207265736572766164610000000000000000000000000000000000000081525060400191505060405180910390fd5b6123ce81613d36565b151515612469576040517f08c379a000000000000000000000000000000000000000000000000000000000815260040180806020018281038252603c8152602001807f54656d2071756520686176657220756d20656e64657265c3a76f206173736f6381526020017f6961646f2061206573736520636e706a2f7375626372c3a96469746f0000000081525060400191505060405180910390fd5b61247282613d36565b151561250c576040517f08c379a00000000000000000000000000000000000000000000000000000000081526004018080602001828103825260258152602001807f4e6f766f20656e64657265c3a76f206ec3a36f20657374c3a120646973706f6e81526020017fc3ad76656c00000000000000000000000000000000000000000000000000000081525060400191505060405180910390fd5b8073ffffffffffffffffffffffffffffffffffffffff168273ffffffffffffffffffffffffffffffffffffffff16141515156125d6576040517f08c379a000000000000000000000000000000000000000000000000000000000815260040180806020018281038252602d8152602001807f4f20656e64657265c3a76f206e6f766f2064657665207365722064696665726581526020017f6e746520646f20616e7469676f0000000000000000000000000000000000000081525060400191505060405180910390fd5b6125df81612171565b1515612679576040517f08c379a000000000000000000000000000000000000000000000000000000000815260040180806020018281038252602e8152602001807f4120636f6e746120617475616c206ec3a36f20657374c3a120686162696c697481526020017f61646120706172612074726f636100000000000000000000000000000000000081525060400191505060405180910390fd5b61268283612db5565b151561271c576040517f08c379a00000000000000000000000000000000000000000000000000000000081526004018080602001828103825260238152602001807f4f2068617368206461206465636c617261c3a7c3a36f20c3a920696e76c3a16c81526020017f69646f000000000000000000000000000000000000000000000000000000000081525060400191505060405180910390fd5b8567ffffffffffffffff16600560008373ffffffffffffffffffffffffffffffffffffffff1673ffffffffffffffffffffffffffffffffffffffff16815260200190815260200160002060000160009054906101000a900467ffffffffffffffff1667ffffffffffffffff161480156127fe57508467ffffffffffffffff16600560008373ffffffffffffffffffffffffffffffffffffffff1673ffffffffffffffffffffffffffffffffffffffff16815260200190815260200160002060000160089054906101000a900467ffffffffffffffff1667ffffffffffffffff16145b1515612898576040517f08c379a000000000000000000000000000000000000000000000000000000000815260040180806020018281038252602b8152602001807f4461646f7320696e636f6e73697374656e74657320646520636e706a206f752081526020017f7375626372c3a96469746f00000000000000000000000000000000000000000081525060400191505060405180910390fd5b60a0604051908101604052808767ffffffffffffffff1681526020018667ffffffffffffffff1681526020018563ffffffff168152602001848152602001600160048111156128e357fe5b815250600560008473ffffffffffffffffffffffffffffffffffffffff1673ffffffffffffffffffffffffffffffffffffffff16815260200190815260200160002060008201518160000160006101000a81548167ffffffffffffffff021916908367ffffffffffffffff16021790555060208201518160000160086101000a81548167ffffffffffffffff021916908367ffffffffffffffff16021790555060408201518160000160106101000a81548163ffffffff021916908363ffffffff16021790555060608201518160010190805190602001906129c69291906144c2565b5060808201518160020160006101000a81548160ff021916908360048111156129eb57fe5b021790555090505060a060405190810160405280600067ffffffffffffffff168152602001600067ffffffffffffffff168152602001600063ffffffff16815260200160206040519081016040528060008152508152602001600480811115612a5057fe5b815250600560008373ffffffffffffffffffffffffffffffffffffffff1673ffffffffffffffffffffffffffffffffffffffff16815260200190815260200160002060008201518160000160006101000a81548167ffffffffffffffff021916908367ffffffffffffffff16021790555060208201518160000160086101000a81548167ffffffffffffffff021916908367ffffffffffffffff16021790555060408201518160000160106101000a81548163ffffffff021916908363ffffffff1602179055506060820151816001019080519060200190612b339291906144c2565b5060808201518160020160006101000a81548160ff02191690836004811115612b5857fe5b021790555090505081600660008867ffffffffffffffff1667ffffffffffffffff16815260200190815260200160002060008767ffffffffffffffff1667ffffffffffffffff16815260200190815260200160002060006101000a81548173ffffffffffffffffffffffffffffffffffffffff021916908373ffffffffffffffffffffffffffffffffffffffff1602179055507fd82d5fb8d459ced400a06631b9ab5eeffafb65a8c0bf5d8346035374ceeeafc5818388888888604051808773ffffffffffffffffffffffffffffffffffffffff1673ffffffffffffffffffffffffffffffffffffffff1681526020018673ffffffffffffffffffffffffffffffffffffffff1673ffffffffffffffffffffffffffffffffffffffff1681526020018567ffffffffffffffff1667ffffffffffffffff1681526020018467ffffffffffffffff1667ffffffffffffffff1681526020018363ffffffff1663ffffffff16815260200180602001828103825283818151815260200191508051906020019080838360005b83811015612cfc578082015181840152602081019050612ce1565b50505050905090810190601f168015612d295780820380516001836020036101000a031916815260200191505b5097505050505050505060405180910390a1505050505050565b600060026004811115612d5257fe5b600560008473ffffffffffffffffffffffffffffffffffffffff1673ffffffffffffffffffffffffffffffffffffffff16815260200190815260200160002060020160009054906101000a900460ff166004811115612dad57fe5b149050919050565b6000606082905060408151141515612dd15760009150506130a0565b60008090505b6040811015613099577f30000000000000000000000000000000000000000000000000000000000000008282815181101515612e0f57fe5b9060200101517f010000000000000000000000000000000000000000000000000000000000000090047f0100000000000000000000000000000000000000000000000000000000000000027effffffffffffffffffffffffffffffffffffffffffffffffffffffffffffff19161015612e8d576000925050506130a0565b7f39000000000000000000000000000000000000000000000000000000000000008282815181101515612ebc57fe5b9060200101517f010000000000000000000000000000000000000000000000000000000000000090047f0100000000000000000000000000000000000000000000000000000000000000027effffffffffffffffffffffffffffffffffffffffffffffffffffffffffffff1916118015612fcf57507f61000000000000000000000000000000000000000000000000000000000000008282815181101515612f6057fe5b9060200101517f010000000000000000000000000000000000000000000000000000000000000090047f0100000000000000000000000000000000000000000000000000000000000000027effffffffffffffffffffffffffffffffffffffffffffffffffffffffffffff1916105b15612fdf576000925050506130a0565b7f6600000000000000000000000000000000000000000000000000000000000000828281518110151561300e57fe5b9060200101517f010000000000000000000000000000000000000000000000000000000000000090047f0100000000000000000000000000000000000000000000000000000000000000027effffffffffffffffffffffffffffffffffffffffffffffffffffffffffffff1916111561308c576000925050506130a0565b8080600101915050612dd7565b5060019150505b919050565b6130ad6139b2565b15156130b857600080fd5b600073ffffffffffffffffffffffffffffffffffffffff166000809054906101000a900473ffffffffffffffffffffffffffffffffffffffff1673ffffffffffffffffffffffffffffffffffffffff167f8be0079c531659141344cd1fd0a4f28419497f9722a3daafe3b4186f6b6457e060405160405180910390a360008060006101000a81548173ffffffffffffffffffffffffffffffffffffffff021916908373ffffffffffffffffffffffffffffffffffffffff160217905550565b6000600460009054906101000a900473ffffffffffffffffffffffffffffffffffffffff1673ffffffffffffffffffffffffffffffffffffffff168273ffffffffffffffffffffffffffffffffffffffff16149050919050565b6000600460009054906101000a900473ffffffffffffffffffffffffffffffffffffffff16905090565b61320433611ff3565b151561329e576040517f08c379a000000000000000000000000000000000000000000000000000000000815260040180806020018281038252603b8152602001807f536f6d656e7465206f20726573706f6e73c3a176656c2070656c612076616c6981526020017f6461c3a7c3a36f20706f64652076616c6964617220636f6e746173000000000081525060400191505060405180910390fd5b600160048111156132ab57fe5b600560008473ffffffffffffffffffffffffffffffffffffffff1673ffffffffffffffffffffffffffffffffffffffff16815260200190815260200160002060020160009054906101000a900460ff16600481111561330657fe5b1415156133a1576040517f08c379a00000000000000000000000000000000000000000000000000000000081526004018080602001828103825260368152602001807f4120636f6e74612070726563697361206573746172206e6f2065737461646f2081526020017f416775617264616e646f2056616c696461c3a7c3a36f0000000000000000000081525060400191505060405180910390fd5b806040516020018082805190602001908083835b6020831015156133da57805182526020820191506020810190506020830392506133b5565b6001836020036101000a03801982511681845116808217855250505050505090500191505060405160208183030381529060405280519060200120600560008473ffffffffffffffffffffffffffffffffffffffff1673ffffffffffffffffffffffffffffffffffffffff16815260200190815260200160002060010160405160200180828054600181600116156101000203166002900480156134b55780601f106134935761010080835404028352918201916134b5565b820191906000526020600020905b8154815290600101906020018083116134a1575b50509150506040516020818303038152906040528051906020012014151561356b576040517f08c379a00000000000000000000000000000000000000000000000000000000081526004018080602001828103825260288152602001807f4f206861736820726563656269646f20c3a9206469666572656e746520646f2081526020017f657370657261646f00000000000000000000000000000000000000000000000081525060400191505060405180910390fd5b6002600560008473ffffffffffffffffffffffffffffffffffffffff1673ffffffffffffffffffffffffffffffffffffffff16815260200190815260200160002060020160006101000a81548160ff021916908360048111156135ca57fe5b02179055507fd562fa69cd7f9f29b17f15cc04b6c895f0222835755d3617a61455b92da554db82600560008573ffffffffffffffffffffffffffffffffffffffff1673ffffffffffffffffffffffffffffffffffffffff16815260200190815260200160002060000160009054906101000a900467ffffffffffffffff16600560008673ffffffffffffffffffffffffffffffffffffffff1673ffffffffffffffffffffffffffffffffffffffff16815260200190815260200160002060000160089054906101000a900467ffffffffffffffff16600560008773ffffffffffffffffffffffffffffffffffffffff1673ffffffffffffffffffffffffffffffffffffffff16815260200190815260200160002060000160109054906101000a900463ffffffff16604051808573ffffffffffffffffffffffffffffffffffffffff1673ffffffffffffffffffffffffffffffffffffffff1681526020018467ffffffffffffffff1667ffffffffffffffff1681526020018367ffffffffffffffff1667ffffffffffffffff1681526020018263ffffffff1663ffffffff16815260200194505050505060405180910390a15050565b60006003600481111561378f57fe5b600560008473ffffffffffffffffffffffffffffffffffffffff1673ffffffffffffffffffffffffffffffffffffffff16815260200190815260200160002060020160009054906101000a900460ff1660048111156137ea57fe5b149050919050565b60006137fd82611d44565b1561380b5760009050613873565b6000600560008473ffffffffffffffffffffffffffffffffffffffff1673ffffffffffffffffffffffffffffffffffffffff16815260200190815260200160002060000160089054906101000a900467ffffffffffffffff1667ffffffffffffffff16141590505b919050565b6000600160009054906101000a900473ffffffffffffffffffffffffffffffffffffffff1673ffffffffffffffffffffffffffffffffffffffff168273ffffffffffffffffffffffffffffffffffffffff16149050919050565b6000600560008373ffffffffffffffffffffffffffffffffffffffff1673ffffffffffffffffffffffffffffffffffffffff16815260200190815260200160002060000160089054906101000a900467ffffffffffffffff169050919050565b61393a6139b2565b151561394557600080fd5b80600260006101000a81548173ffffffffffffffffffffffffffffffffffffffff021916908373ffffffffffffffffffffffffffffffffffffffff16021790555050565b60008060009054906101000a900473ffffffffffffffffffffffffffffffffffffffff16905090565b60008060009054906101000a900473ffffffffffffffffffffffffffffffffffffffff1673ffffffffffffffffffffffffffffffffffffffff163373ffffffffffffffffffffffffffffffffffffffff1614905090565b613a116139b2565b1515613a1c57600080fd5b80600360006101000a81548173ffffffffffffffffffffffffffffffffffffffff021916908373ffffffffffffffffffffffffffffffffffffffff16021790555050565b6000613a6b82611d44565b15613a795760649050613ad7565b600560008373ffffffffffffffffffffffffffffffffffffffff1673ffffffffffffffffffffffffffffffffffffffff16815260200190815260200160002060020160009054906101000a900460ff166004811115613ad457fe5b90505b919050565b60008060006060600080600560008873ffffffffffffffffffffffffffffffffffffffff1673ffffffffffffffffffffffffffffffffffffffff16815260200190815260200160002060000160009054906101000a900467ffffffffffffffff16600560008973ffffffffffffffffffffffffffffffffffffffff1673ffffffffffffffffffffffffffffffffffffffff16815260200190815260200160002060000160089054906101000a900467ffffffffffffffff16600560008a73ffffffffffffffffffffffffffffffffffffffff1673ffffffffffffffffffffffffffffffffffffffff16815260200190815260200160002060000160109054906101000a900463ffffffff16600560008b73ffffffffffffffffffffffffffffffffffffffff1673ffffffffffffffffffffffffffffffffffffffff168152602001908152602001600020600101600560008c73ffffffffffffffffffffffffffffffffffffffff1673ffffffffffffffffffffffffffffffffffffffff16815260200190815260200160002060020160009054906101000a900460ff166004811115613c8457fe5b8b828054600181600116156101000203166002900480601f016020809104026020016040519081016040528092919081815260200182805460018160011615610100020316600290048015613d1a5780601f10613cef57610100808354040283529160200191613d1a565b820191906000526020600020905b815481529060010190602001808311613cfd57829003601f168201915b5050505050925095509550955095509550955091939550919395565b6000613d4182611d44565b15613d4f5760009050613dbb565b60006004811115613d5c57fe5b600560008473ffffffffffffffffffffffffffffffffffffffff1673ffffffffffffffffffffffffffffffffffffffff16815260200190815260200160002060020160009054906101000a900460ff166004811115613db757fe5b1490505b919050565b600080600060606000806000613dd68989611f7c565b9050613de181613adc565b965096509650965096509650509295509295509295565b613e0133611ff3565b1515613e9b576040517f08c379a000000000000000000000000000000000000000000000000000000000815260040180806020018281038252603d8152602001807f536f6d656e7465206f20726573706f6e73c3a176656c2070656c612076616c6981526020017f6461c3a7c3a36f20706f646520696e76616c6964617220636f6e74617300000081525060400191505060405180910390fd5b613ea481611d44565b151515613f3f576040517f08c379a000000000000000000000000000000000000000000000000000000000815260040180806020018281038252602b8152602001807f4ec3a36f20c3a920706f7373c3ad76656c20696e76616c6964617220636f6e7481526020017f612072657365727661646100000000000000000000000000000000000000000081525060400191505060405180910390fd5b6003600560008373ffffffffffffffffffffffffffffffffffffffff1673ffffffffffffffffffffffffffffffffffffffff16815260200190815260200160002060020160006101000a81548160ff02191690836004811115613f9e57fe5b02179055507fefbe34d940db094a2bd0cf0857f4ef56ae5d3a6ece355e2efbb75b3f7147cd0d81600560008473ffffffffffffffffffffffffffffffffffffffff1673ffffffffffffffffffffffffffffffffffffffff16815260200190815260200160002060000160009054906101000a900467ffffffffffffffff16600560008573ffffffffffffffffffffffffffffffffffffffff1673ffffffffffffffffffffffffffffffffffffffff16815260200190815260200160002060000160089054906101000a900467ffffffffffffffff16600560008673ffffffffffffffffffffffffffffffffffffffff1673ffffffffffffffffffffffffffffffffffffffff16815260200190815260200160002060000160109054906101000a900463ffffffff16604051808573ffffffffffffffffffffffffffffffffffffffff1673ffffffffffffffffffffffffffffffffffffffff1681526020018467ffffffffffffffff1667ffffffffffffffff1681526020018367ffffffffffffffff1667ffffffffffffffff1681526020018263ffffffff1663ffffffff16815260200194505050505060405180910390a150565b6000600260009054906101000a900473ffffffffffffffffffffffffffffffffffffffff16905090565b6141856139b2565b151561419057600080fd5b80600160006101000a81548173ffffffffffffffffffffffffffffffffffffffff021916908373ffffffffffffffffffffffffffffffffffffffff16021790555050565b60006004808111156141e257fe5b600560008473ffffffffffffffffffffffffffffffffffffffff1673ffffffffffffffffffffffffffffffffffffffff16815260200190815260200160002060020160009054906101000a900460ff16600481111561423d57fe5b149050919050565b6000600560008373ffffffffffffffffffffffffffffffffffffffff1673ffffffffffffffffffffffffffffffffffffffff16815260200190815260200160002060000160009054906101000a900467ffffffffffffffff169050919050565b60006142b0826137f2565b80156143215750600260048111156142c457fe5b600560008473ffffffffffffffffffffffffffffffffffffffff1673ffffffffffffffffffffffffffffffffffffffff16815260200190815260200160002060020160009054906101000a900460ff16600481111561431f57fe5b145b9050919050565b6143306139b2565b151561433b57600080fd5b80600460006101000a81548173ffffffffffffffffffffffffffffffffffffffff021916908373ffffffffffffffffffffffffffffffffffffffff16021790555050565b6143876139b2565b151561439257600080fd5b61439b816143c8565b50565b6000600160009054906101000a900473ffffffffffffffffffffffffffffffffffffffff16905090565b600073ffffffffffffffffffffffffffffffffffffffff168173ffffffffffffffffffffffffffffffffffffffff161415151561440457600080fd5b8073ffffffffffffffffffffffffffffffffffffffff166000809054906101000a900473ffffffffffffffffffffffffffffffffffffffff1673ffffffffffffffffffffffffffffffffffffffff167f8be0079c531659141344cd1fd0a4f28419497f9722a3daafe3b4186f6b6457e060405160405180910390a3806000806101000a81548173ffffffffffffffffffffffffffffffffffffffff021916908373ffffffffffffffffffffffffffffffffffffffff16021790555050565b828054600181600116156101000203166002900490600052602060002090601f016020900481019282601f1061450357805160ff1916838001178555614531565b82800160010185558215614531579182015b82811115614530578251825591602001919060010190614515565b5b50905061453e9190614542565b5090565b61456491905b80821115614560576000816000905550600101614548565b5090565b9056fea165627a7a7230582057fe9c7e24b65fadaa71c3255f48f45127e6e01f80688c6550a846d32daa16980029",
  "source": "pragma solidity ^0.5.0;\r\n\r\nimport \"openzeppelin-solidity/contracts/ownership/Ownable.sol\";\r\n\r\ncontract BNDESRegistry is Ownable() {\r\n\r\n    /**\r\n        The account of clients and suppliers are assigned to states. \r\n        Reserved accounts (e.g. from BNDES and ANCINE) do not have state.\r\n        AVAILABLE - The account is not yet assigned any role (any of them - client, supplier or any reserved addresses).\r\n        WAITING_VALIDATION - The account was linked to a legal entity but it still needs to be validated\r\n        VALIDATED - The account was validated\r\n        INVALIDATED_BY_VALIDATOR - The account was invalidated\r\n        INVALIDATED_BY_CHANGE - The client or supplier changed the ethereum account so the original one must be invalidated.\r\n     */\r\n    enum BlockchainAccountState {AVAILABLE,WAITING_VALIDATION,VALIDATED,INVALIDATED_BY_VALIDATOR,INVALIDATED_BY_CHANGE} \r\n    BlockchainAccountState blockchainState; //Not used. Defined to create the enum type.\r\n\r\n    address responsibleForSettlement;\r\n    address responsibleForRegistryValidation;\r\n    address responsibleForDisbursement;\r\n    address redemptionAddress;\r\n\r\n    /**\r\n        Describes the Legal Entity - clients or suppliers\r\n     */\r\n    struct LegalEntityInfo {\r\n        uint64 cnpj; //Brazilian identification of legal entity\r\n        uint64 idFinancialSupportAgreement; //SCC contract\r\n        uint32 salic; //ANCINE identifier\r\n        string idProofHash; //hash of declaration\r\n        BlockchainAccountState state;\r\n    } \r\n\r\n    /**\r\n        Links Ethereum addresses to LegalEntityInfo        \r\n     */\r\n    mapping(address => LegalEntityInfo) public legalEntitiesInfo;\r\n\r\n    /**\r\n        Links Legal Entity to Ethereum address. \r\n        cnpj => (idFinancialSupportAgreement => address)\r\n     */\r\n    mapping(uint64 => mapping(uint64 => address)) cnpjFSAddr; \r\n\r\n\r\n    /**\r\n        Links Ethereum addresses to the possibility to change the account\r\n        Since the Ethereum account can be changed once, it is not necessary to put the bool to false.\r\n        TODO: Discuss later what is the best data structure\r\n     */\r\n    mapping(address => bool) public legalEntitiesChangeAccount;\r\n\r\n\r\n    event AccountRegistration(address addr, uint64 cnpj, uint64 idFinancialSupportAgreement, uint32 salic, string idProofHash);\r\n    event AccountChange(address oldAddr, address newAddr, uint64 cnpj, uint64 idFinancialSupportAgreement, uint32 salic, string idProofHash);\r\n    event AccountValidation(address addr, uint64 cnpj, uint64 idFinancialSupportAgreement, uint32 salic);\r\n    event AccountInvalidation(address addr, uint64 cnpj, uint64 idFinancialSupportAgreement, uint32 salic);\r\n\r\n\r\n    constructor () public {\r\n        responsibleForSettlement = msg.sender;\r\n        responsibleForRegistryValidation = msg.sender;\r\n        responsibleForDisbursement = msg.sender;\r\n        redemptionAddress = msg.sender;\r\n    }\r\n\r\n\r\n   /**\r\n    * Link blockchain address with CNPJ - It can be a cliente or a supplier\r\n    * The link still needs to be validated by BNDES\r\n    * @param cnpj Brazilian identifier to legal entities\r\n    * @param idFinancialSupportAgreement contract number of financial contract with BNDES. It assumes 0 if it is a supplier.\r\n    * @param salic contract number of financial contract with ANCINE. It assumes 0 if it is a supplier.\r\n    * @param idProofHash The legal entities have to send BNDES a PDF where it assumes as responsible for an Ethereum account. \r\n    *                   This PDF is signed with eCNPJ and send to BNDES. \r\n    */\r\n    function registryLegalEntity(uint64 cnpj, uint64 idFinancialSupportAgreement, uint32 salic, string memory idProofHash) public { \r\n\r\n        address addr = msg.sender;\r\n\r\n        // Endereo no pode ter sido cadastrado anteriormente\r\n        require (isAvailableAccount(addr), \"Endereo no pode ter sido cadastrado anteriormente\");\r\n\r\n        require (isValidHash(idProofHash), \"O hash da declarao  invlido\");\r\n\r\n        legalEntitiesInfo[addr] = LegalEntityInfo(cnpj, idFinancialSupportAgreement, salic, idProofHash, BlockchainAccountState.WAITING_VALIDATION);\r\n        \r\n        // No pode haver outro endereo cadastrado para esse mesmo subcrdito\r\n        if (idFinancialSupportAgreement > 0) {\r\n            address account = getBlockchainAccount(cnpj,idFinancialSupportAgreement);\r\n            require (isAvailableAccount(account), \"Cliente j est associado a outro endereo. Use a funo Troca.\");\r\n        }\r\n        else {\r\n            address account = getBlockchainAccount(cnpj,0);\r\n            require (isAvailableAccount(account), \"Fornecedor j est associado a outro endereo. Use a funo Troca.\");\r\n        }\r\n        \r\n        cnpjFSAddr[cnpj][idFinancialSupportAgreement] = addr;\r\n\r\n        emit AccountRegistration(addr, cnpj, idFinancialSupportAgreement, salic, idProofHash);\r\n    }\r\n\r\n   /**\r\n    * Changes the original link between CNPJ and Ethereum account. \r\n    * The new link still needs to be validated by BNDES    \r\n    * @param cnpj Brazilian identifier to legal entities\r\n    * @param idFinancialSupportAgreement contract number of financial contract with BNDES. It assumes 0 if it is a supplier.\r\n    * @param salic contract number of financial contract with ANCINE. It assumes 0 if it is a supplier.\r\n    * @param idProofHash The legal entities have to send BNDES a PDF where it assumes as responsible for an Ethereum account. \r\n    *                   This PDF is signed with eCNPJ and send to BNDES. \r\n    */\r\n    function changeAccountLegalEntity(uint64 cnpj, uint64 idFinancialSupportAgreement, uint32 salic, string memory idProofHash) public {\r\n\r\n        address newAddr = msg.sender;\r\n        address oldAddr = getBlockchainAccount(cnpj, idFinancialSupportAgreement);\r\n    \r\n        // Tem que haver um endereo associado a esse cnpj/subcrdito\r\n        require(!isReservedAccount(oldAddr), \"No pode trocar endereo de conta reservada\");\r\n\r\n        require(!isAvailableAccount(oldAddr), \"Tem que haver um endereo associado a esse cnpj/subcrdito\");\r\n\r\n        require(isAvailableAccount(newAddr), \"Novo endereo no est disponvel\");\r\n\r\n        require(newAddr != oldAddr, \"O endereo novo deve ser diferente do antigo\");        \r\n\r\n        require (isChangeAccountEnabled(oldAddr), \"A conta atual no est habilitada para troca\");\r\n\r\n        require (isValidHash(idProofHash), \"O hash da declarao  invlido\");        \r\n\r\n        require(legalEntitiesInfo[oldAddr].cnpj==cnpj \r\n                    && legalEntitiesInfo[oldAddr].idFinancialSupportAgreement ==idFinancialSupportAgreement, \r\n                    \"Dados inconsistentes de cnpj ou subcrdito\");\r\n\r\n        // Aponta o novo endereo para o novo LegalEntityInfo\r\n        legalEntitiesInfo[newAddr] = LegalEntityInfo(cnpj, idFinancialSupportAgreement, salic, idProofHash, BlockchainAccountState.WAITING_VALIDATION);\r\n\r\n        // Apaga o mapping do endereo antigo\r\n        legalEntitiesInfo[oldAddr] = LegalEntityInfo(0, 0, 0, \"\", BlockchainAccountState.INVALIDATED_BY_CHANGE);\r\n\r\n        // Aponta mapping CNPJ e Subcredito para newAddr\r\n        cnpjFSAddr[cnpj][idFinancialSupportAgreement] = newAddr;\r\n\r\n        emit AccountChange(oldAddr, newAddr, cnpj, idFinancialSupportAgreement, salic, idProofHash); \r\n\r\n    }\r\n\r\n   /**\r\n    * Validates the initial registry of a legal entity or the change of its registry\r\n    * @param addr Ethereum address that needs to be validated\r\n    * @param idProofHash The legal entities have to send BNDES a PDF where it assumes as responsible for an Ethereum account. \r\n    *                   This PDF is signed with eCNPJ and send to BNDES. \r\n    */\r\n    function validateRegistryLegalEntity(address addr, string memory idProofHash) public {\r\n\r\n        require(isResponsibleForRegistryValidation(msg.sender), \"Somente o responsvel pela validao pode validar contas\");\r\n\r\n        require(legalEntitiesInfo[addr].state == BlockchainAccountState.WAITING_VALIDATION, \"A conta precisa estar no estado Aguardando Validao\");\r\n\r\n        require(keccak256(abi.encodePacked(legalEntitiesInfo[addr].idProofHash)) == keccak256(abi.encodePacked(idProofHash)), \"O hash recebido  diferente do esperado\");\r\n\r\n        legalEntitiesInfo[addr].state = BlockchainAccountState.VALIDATED;\r\n\r\n        emit AccountValidation(addr, legalEntitiesInfo[addr].cnpj, \r\n            legalEntitiesInfo[addr].idFinancialSupportAgreement,\r\n            legalEntitiesInfo[addr].salic);\r\n    }\r\n\r\n   /**\r\n    * Invalidates the initial registry of a legal entity or the change of its registry\r\n    * The invalidation can be called at any time in the lifecycle of the address (not only when it is WAITING_VALIDATION)\r\n    * @param addr Ethereum address that needs to be validated\r\n    */\r\n    function invalidateRegistryLegalEntity(address addr) public {\r\n\r\n        require(isResponsibleForRegistryValidation(msg.sender), \"Somente o responsvel pela validao pode invalidar contas\");\r\n\r\n        require(!isReservedAccount(addr), \"No  possvel invalidar conta reservada\");\r\n\r\n        legalEntitiesInfo[addr].state = BlockchainAccountState.INVALIDATED_BY_VALIDATOR;\r\n        \r\n        emit AccountInvalidation(addr, legalEntitiesInfo[addr].cnpj, \r\n            legalEntitiesInfo[addr].idFinancialSupportAgreement,\r\n            legalEntitiesInfo[addr].salic);\r\n    }\r\n\r\n\r\n   /**\r\n    * By default, the owner is also the Responsible for Settlement. \r\n    * The owner can assign other address to be the Responsible for Settlement. \r\n    * @param rs Ethereum address to be assigned as Responsible for Settlement.\r\n    */\r\n    function setResponsibleForSettlement(address rs) onlyOwner public {\r\n        responsibleForSettlement = rs;\r\n    }\r\n\r\n   /**\r\n    * By default, the owner is also the Responsible for Validation. \r\n    * The owner can assign other address to be the Responsible for Validation. \r\n    * @param rs Ethereum address to be assigned as Responsible for Validation.\r\n    */\r\n    function setResponsibleForRegistryValidation(address rs) onlyOwner public {\r\n        responsibleForRegistryValidation = rs;\r\n    }\r\n\r\n   /**\r\n    * By default, the owner is also the Responsible for Disbursment. \r\n    * The owner can assign other address to be the Responsible for Disbursment. \r\n    * @param rs Ethereum address to be assigned as Responsible for Disbursment.\r\n    */\r\n    function setResponsibleForDisbursement(address rs) onlyOwner public {\r\n        responsibleForDisbursement = rs;\r\n    }\r\n\r\n   /**\r\n    * The supplier reedems the BNDESToken by transfering the tokens to a specific address, \r\n    * called Redemption address. \r\n    * By default, the redemption address is the address of the owner. \r\n    * The owner can change the redemption address using this function. \r\n    * @param rs new Redemption address\r\n    */\r\n    function setRedemptionAddress(address rs) onlyOwner public {\r\n        redemptionAddress = rs;\r\n    }\r\n\r\n   /**\r\n    * Enable the legal entity to change the account\r\n    * @param rs account that can be changed.\r\n    */\r\n    function enableChangeAccount (address rs) public {\r\n        require(isResponsibleForRegistryValidation(msg.sender), \"Somente o responsvel pela validao pode habilitar a troca de conta\");\r\n        legalEntitiesChangeAccount[rs] = true;\r\n    }\r\n\r\n    function isChangeAccountEnabled (address rs) view public returns (bool) {\r\n        return legalEntitiesChangeAccount[rs] == true;\r\n    }    \r\n\r\n    function isResponsibleForSettlement(address addr) view public returns (bool) {\r\n        return (addr == responsibleForSettlement);\r\n    }\r\n    function isResponsibleForRegistryValidation(address addr) view public returns (bool) {\r\n        return (addr == responsibleForRegistryValidation);\r\n    }\r\n    function isResponsibleForDisbursement(address addr) view public returns (bool) {\r\n        return (addr == responsibleForDisbursement);\r\n    }\r\n    function isRedemptionAddress(address addr) view public returns (bool) {\r\n        return (addr == redemptionAddress);\r\n    }\r\n\r\n    function isReservedAccount(address addr) view public returns (bool) {\r\n\r\n        if (isOwner(addr) || isResponsibleForSettlement(addr) \r\n                           || isResponsibleForRegistryValidation(addr)\r\n                           || isResponsibleForDisbursement(addr)\r\n                           || isRedemptionAddress(addr) ) {\r\n            return true;\r\n        }\r\n        return false;\r\n    }\r\n    function isOwner(address addr) view public returns (bool) {\r\n        return owner()==addr;\r\n    }\r\n\r\n    function isSupplier(address addr) view public returns (bool) {\r\n\r\n        if (isReservedAccount(addr))\r\n            return false;\r\n\r\n        if (isAvailableAccount(addr))\r\n            return false;\r\n\r\n        return legalEntitiesInfo[addr].idFinancialSupportAgreement == 0;\r\n    }\r\n\r\n    function isValidatedSupplier (address addr) view public returns (bool) {\r\n        return isSupplier(addr) && (legalEntitiesInfo[addr].state == BlockchainAccountState.VALIDATED);\r\n    }\r\n\r\n    function isClient (address addr) view public returns (bool) {\r\n        if (isReservedAccount(addr)) {\r\n            return false;\r\n        }\r\n        return legalEntitiesInfo[addr].idFinancialSupportAgreement != 0;\r\n    }\r\n\r\n    function isValidatedClient (address addr) view public returns (bool) {\r\n        return isClient(addr) && (legalEntitiesInfo[addr].state == BlockchainAccountState.VALIDATED);\r\n    }\r\n\r\n    function isAvailableAccount(address addr) view public returns (bool) {\r\n        if ( isReservedAccount(addr) ) {\r\n            return false;\r\n        } \r\n        return legalEntitiesInfo[addr].state == BlockchainAccountState.AVAILABLE;\r\n    }\r\n\r\n    function isWaitingValidationAccount(address addr) view public returns (bool) {\r\n        return legalEntitiesInfo[addr].state == BlockchainAccountState.WAITING_VALIDATION;\r\n    }\r\n\r\n    function isValidatedAccount(address addr) view public returns (bool) {\r\n        return legalEntitiesInfo[addr].state == BlockchainAccountState.VALIDATED;\r\n    }\r\n\r\n    function isInvalidatedByValidatorAccount(address addr) view public returns (bool) {\r\n        return legalEntitiesInfo[addr].state == BlockchainAccountState.INVALIDATED_BY_VALIDATOR;\r\n    }\r\n\r\n    function isInvalidatedByChangeAccount(address addr) view public returns (bool) {\r\n        return legalEntitiesInfo[addr].state == BlockchainAccountState.INVALIDATED_BY_CHANGE;\r\n    }\r\n\r\n    function getResponsibleForSettlement() view public returns (address) {\r\n        return responsibleForSettlement;\r\n    }\r\n    function getResponsibleForRegistryValidation() view public returns (address) {\r\n        return responsibleForRegistryValidation;\r\n    }\r\n    function getResponsibleForDisbursement() view public returns (address) {\r\n        return responsibleForDisbursement;\r\n    }\r\n    function getRedemptionAddress() view public returns (address) {\r\n        return redemptionAddress;\r\n    }\r\n\r\n    function getCNPJ(address addr) view public returns (uint64) {\r\n        return legalEntitiesInfo[addr].cnpj;\r\n    }\r\n\r\n    function getIdLegalFinancialAgreement(address addr) view public returns (uint64) {\r\n        return legalEntitiesInfo[addr].idFinancialSupportAgreement;\r\n    }\r\n\r\n    function getLegalEntityInfo (address addr) view public returns (uint64, uint64, uint32, string memory, uint, address) {\r\n        return (legalEntitiesInfo[addr].cnpj, legalEntitiesInfo[addr].idFinancialSupportAgreement, \r\n             legalEntitiesInfo[addr].salic, legalEntitiesInfo[addr].idProofHash, (uint) (legalEntitiesInfo[addr].state),\r\n             addr);\r\n    }\r\n\r\n    function getBlockchainAccount(uint64 cnpj, uint64 idFinancialSupportAgreement) view public returns (address) {\r\n        return cnpjFSAddr[cnpj][idFinancialSupportAgreement];\r\n    }\r\n\r\n    function getLegalEntityInfoByCNPJ (uint64 cnpj, uint64 idFinancialSupportAgreement) \r\n        view public returns (uint64, uint64, uint32, string memory, uint, address) {\r\n        \r\n        address addr = getBlockchainAccount(cnpj,idFinancialSupportAgreement);\r\n        return getLegalEntityInfo (addr);\r\n    }\r\n\r\n    function getAccountState(address addr) view public returns (int) {\r\n\r\n        if ( isReservedAccount(addr) ) {\r\n            return 100;\r\n        } \r\n        else {\r\n            return ((int) (legalEntitiesInfo[addr].state));\r\n        }\r\n\r\n    }\r\n\r\n\r\n  function isValidHash(string memory str) pure public returns (bool)  {\r\n\r\n    bytes memory b = bytes(str);\r\n    if(b.length != 64) return false;\r\n\r\n    for (uint i=0; i<64; i++) {\r\n        if (b[i] < \"0\") return false;\r\n        if (b[i] > \"9\" && b[i] <\"a\") return false;\r\n        if (b[i] > \"f\") return false;\r\n    }\r\n        \r\n    return true;\r\n }\r\n\r\n\r\n}",
  "sourcePath": "D:\\Workspace\\bndestoken\\Back-Blockchain\\contracts\\BNDESRegistry.sol",
  "compiler": {
    "name": "solc",
    "version": "0.5.0+commit.1d4f565a.Emscripten.clang"
  },
  "schemaVersion": "3.0.5",
  "updatedAt": "2019-06-17T20:24:26.553Z",
  "devdoc": {
    "methods": {
      "changeAccountLegalEntity(uint64,uint64,uint32,string)": {
        "params": {
          "cnpj": "Brazilian identifier to legal entities\r",
          "idFinancialSupportAgreement": "contract number of financial contract with BNDES. It assumes 0 if it is a supplier.\r",
          "idProofHash": "The legal entities have to send BNDES a PDF where it assumes as responsible for an Ethereum account. \r                  This PDF is signed with eCNPJ and send to BNDES. \r",
          "salic": "contract number of financial contract with ANCINE. It assumes 0 if it is a supplier.\r"
        }
      },
      "enableChangeAccount(address)": {
        "params": {
          "rs": "account that can be changed.\r"
        }
      },
      "invalidateRegistryLegalEntity(address)": {
        "params": {
          "addr": "Ethereum address that needs to be validated\r"
        }
      },
      "isOwner()": {
        "return": "true if `msg.sender` is the owner of the contract."
      },
      "owner()": {
        "return": "the address of the owner."
      },
      "registryLegalEntity(uint64,uint64,uint32,string)": {
        "params": {
          "cnpj": "Brazilian identifier to legal entities\r",
          "idFinancialSupportAgreement": "contract number of financial contract with BNDES. It assumes 0 if it is a supplier.\r",
          "idProofHash": "The legal entities have to send BNDES a PDF where it assumes as responsible for an Ethereum account. \r                  This PDF is signed with eCNPJ and send to BNDES. \r",
          "salic": "contract number of financial contract with ANCINE. It assumes 0 if it is a supplier.\r"
        }
      },
      "renounceOwnership()": {
        "details": "Allows the current owner to relinquish control of the contract."
      },
      "setRedemptionAddress(address)": {
        "params": {
          "rs": "new Redemption address\r"
        }
      },
      "setResponsibleForDisbursement(address)": {
        "params": {
          "rs": "Ethereum address to be assigned as Responsible for Disbursment.\r"
        }
      },
      "setResponsibleForRegistryValidation(address)": {
        "params": {
          "rs": "Ethereum address to be assigned as Responsible for Validation.\r"
        }
      },
      "setResponsibleForSettlement(address)": {
        "params": {
          "rs": "Ethereum address to be assigned as Responsible for Settlement.\r"
        }
      },
      "transferOwnership(address)": {
        "details": "Allows the current owner to transfer control of the contract to a newOwner.",
        "params": {
          "newOwner": "The address to transfer ownership to."
        }
      },
      "validateRegistryLegalEntity(address,string)": {
        "params": {
          "addr": "Ethereum address that needs to be validated\r",
          "idProofHash": "The legal entities have to send BNDES a PDF where it assumes as responsible for an Ethereum account. \r                  This PDF is signed with eCNPJ and send to BNDES. \r"
        }
      }
    }
  },
  "userdoc": {
    "methods": {
      "changeAccountLegalEntity(uint64,uint64,uint32,string)": {
        "notice": "Changes the original link between CNPJ and Ethereum account. \r The new link still needs to be validated by BNDES    \r"
      },
      "enableChangeAccount(address)": {
        "notice": "Enable the legal entity to change the account\r"
      },
      "invalidateRegistryLegalEntity(address)": {
        "notice": "Invalidates the initial registry of a legal entity or the change of its registry\r The invalidation can be called at any time in the lifecycle of the address (not only when it is WAITING_VALIDATION)\r"
      },
      "registryLegalEntity(uint64,uint64,uint32,string)": {
        "notice": "Link blockchain address with CNPJ - It can be a cliente or a supplier\r The link still needs to be validated by BNDES\r"
      },
      "renounceOwnership()": {
        "notice": "Renouncing to ownership will leave the contract without an owner. It will not be possible to call the functions with the `onlyOwner` modifier anymore."
      },
      "setRedemptionAddress(address)": {
        "notice": "The supplier reedems the BNDESToken by transfering the tokens to a specific address, \r called Redemption address. \r By default, the redemption address is the address of the owner. \r The owner can change the redemption address using this function. \r"
      },
      "setResponsibleForDisbursement(address)": {
        "notice": "By default, the owner is also the Responsible for Disbursment. \r The owner can assign other address to be the Responsible for Disbursment. \r"
      },
      "setResponsibleForRegistryValidation(address)": {
        "notice": "By default, the owner is also the Responsible for Validation. \r The owner can assign other address to be the Responsible for Validation. \r"
      },
      "setResponsibleForSettlement(address)": {
        "notice": "By default, the owner is also the Responsible for Settlement. \r The owner can assign other address to be the Responsible for Settlement. \r"
      },
      "validateRegistryLegalEntity(address,string)": {
        "notice": "Validates the initial registry of a legal entity or the change of its registry\r"
      }
    }
  }
}