{
  "contractName": "BNDESRegistry",
  "abi": [
    {
      "constant": false,
      "inputs": [],
      "name": "renounceOwnership",
      "outputs": [],
      "payable": false,
      "stateMutability": "nonpayable",
      "type": "function",
      "signature": "0x715018a6"
    },
    {
      "constant": true,
      "inputs": [],
      "name": "owner",
      "outputs": [
        {
          "name": "",
          "type": "address"
        }
      ],
      "payable": false,
      "stateMutability": "view",
      "type": "function",
      "signature": "0x8da5cb5b"
    },
    {
      "constant": true,
      "inputs": [],
      "name": "isOwner",
      "outputs": [
        {
          "name": "",
          "type": "bool"
        }
      ],
      "payable": false,
      "stateMutability": "view",
      "type": "function",
      "signature": "0x8f32d59b"
    },
    {
      "constant": true,
      "inputs": [
        {
          "name": "",
          "type": "address"
        }
      ],
      "name": "pjsInfo",
      "outputs": [
        {
          "name": "cnpj",
          "type": "uint256"
        },
        {
          "name": "idSubcredito",
          "type": "uint256"
        },
        {
          "name": "salic",
          "type": "uint256"
        },
        {
          "name": "hashdeclaracao",
          "type": "string"
        },
        {
          "name": "estado",
          "type": "uint8"
        }
      ],
      "payable": false,
      "stateMutability": "view",
      "type": "function",
      "signature": "0xeb8786a3"
    },
    {
      "constant": false,
      "inputs": [
        {
          "name": "newOwner",
          "type": "address"
        }
      ],
      "name": "transferOwnership",
      "outputs": [],
      "payable": false,
      "stateMutability": "nonpayable",
      "type": "function",
      "signature": "0xf2fde38b"
    },
    {
      "inputs": [],
      "payable": false,
      "stateMutability": "nonpayable",
      "type": "constructor",
      "signature": "constructor"
    },
    {
      "anonymous": false,
      "inputs": [
        {
          "indexed": false,
          "name": "endereco",
          "type": "address"
        },
        {
          "indexed": false,
          "name": "cnpj",
          "type": "uint256"
        },
        {
          "indexed": false,
          "name": "idSubcredito",
          "type": "uint256"
        },
        {
          "indexed": false,
          "name": "salic",
          "type": "uint256"
        },
        {
          "indexed": false,
          "name": "hashdeclaracao",
          "type": "string"
        }
      ],
      "name": "CadastroConta",
      "type": "event",
      "signature": "0x8ec53aa58c6aeaba77afa132c2419aac81b51cc3a70482ba0d9b207a4db9d315"
    },
    {
      "anonymous": false,
      "inputs": [
        {
          "indexed": false,
          "name": "endereco",
          "type": "address"
        },
        {
          "indexed": false,
          "name": "cnpj",
          "type": "uint256"
        },
        {
          "indexed": false,
          "name": "idSubcredito",
          "type": "uint256"
        },
        {
          "indexed": false,
          "name": "salic",
          "type": "uint256"
        },
        {
          "indexed": false,
          "name": "hashdeclaracao",
          "type": "string"
        }
      ],
      "name": "TrocaConta",
      "type": "event",
      "signature": "0x1bf55d918db6a8051eda4ecd2d786648884b24d401e7907190cf191a8da47520"
    },
    {
      "anonymous": false,
      "inputs": [
        {
          "indexed": false,
          "name": "endereco",
          "type": "address"
        }
      ],
      "name": "ValidacaoConta",
      "type": "event",
      "signature": "0x28b8b7b8f52bbe893d4290bc2a5d3328a194eceb6b3a7398737d0bbf075a1e02"
    },
    {
      "anonymous": false,
      "inputs": [
        {
          "indexed": false,
          "name": "endereco",
          "type": "address"
        }
      ],
      "name": "InvalidacaoCadastroConta",
      "type": "event",
      "signature": "0xf88096f95619381cee1f86cd4df1d8d1c46c6356a98d01e58f308fba80d51bcf"
    },
    {
      "anonymous": false,
      "inputs": [
        {
          "indexed": true,
          "name": "previousOwner",
          "type": "address"
        },
        {
          "indexed": true,
          "name": "newOwner",
          "type": "address"
        }
      ],
      "name": "OwnershipTransferred",
      "type": "event",
      "signature": "0x8be0079c531659141344cd1fd0a4f28419497f9722a3daafe3b4186f6b6457e0"
    },
    {
      "constant": false,
      "inputs": [
        {
          "name": "_cnpj",
          "type": "uint256"
        },
        {
          "name": "_idSubcredito",
          "type": "uint256"
        },
        {
          "name": "_salic",
          "type": "uint256"
        },
        {
          "name": "hashdeclaracao",
          "type": "string"
        }
      ],
      "name": "cadastra",
      "outputs": [],
      "payable": false,
      "stateMutability": "nonpayable",
      "type": "function",
      "signature": "0xe1ebf4e0"
    },
    {
      "constant": false,
      "inputs": [
        {
          "name": "_cnpj",
          "type": "uint256"
        },
        {
          "name": "_idSubcredito",
          "type": "uint256"
        },
        {
          "name": "_salic",
          "type": "uint256"
        },
        {
          "name": "_hashdeclaracao",
          "type": "string"
        }
      ],
      "name": "troca",
      "outputs": [],
      "payable": false,
      "stateMutability": "nonpayable",
      "type": "function",
      "signature": "0xd04df6b3"
    },
    {
      "constant": false,
      "inputs": [
        {
          "name": "_addr",
          "type": "address"
        },
        {
          "name": "_hashdeclaracao",
          "type": "string"
        }
      ],
      "name": "validarCadastro",
      "outputs": [],
      "payable": false,
      "stateMutability": "nonpayable",
      "type": "function",
      "signature": "0xd58b54c9"
    },
    {
      "constant": false,
      "inputs": [
        {
          "name": "_addr",
          "type": "address"
        }
      ],
      "name": "invalidarCadastro",
      "outputs": [],
      "payable": false,
      "stateMutability": "nonpayable",
      "type": "function",
      "signature": "0x88e7238b"
    },
    {
      "constant": false,
      "inputs": [
        {
          "name": "rs",
          "type": "address"
        }
      ],
      "name": "setResponsibleForSettlement",
      "outputs": [],
      "payable": false,
      "stateMutability": "nonpayable",
      "type": "function",
      "signature": "0xb7404ff5"
    },
    {
      "constant": true,
      "inputs": [
        {
          "name": "_addr",
          "type": "address"
        }
      ],
      "name": "getCNPJ",
      "outputs": [
        {
          "name": "",
          "type": "uint256"
        }
      ],
      "payable": false,
      "stateMutability": "view",
      "type": "function",
      "signature": "0xbe49b78d"
    },
    {
      "constant": true,
      "inputs": [
        {
          "name": "_addr",
          "type": "address"
        }
      ],
      "name": "getSubcredito",
      "outputs": [
        {
          "name": "",
          "type": "uint256"
        }
      ],
      "payable": false,
      "stateMutability": "view",
      "type": "function",
      "signature": "0x88137e34"
    },
    {
      "constant": true,
      "inputs": [
        {
          "name": "_addr",
          "type": "address"
        }
      ],
      "name": "getPJInfo",
      "outputs": [
        {
          "name": "",
          "type": "uint256"
        },
        {
          "name": "",
          "type": "uint256"
        },
        {
          "name": "",
          "type": "uint256"
        },
        {
          "name": "",
          "type": "string"
        },
        {
          "name": "",
          "type": "uint256"
        }
      ],
      "payable": false,
      "stateMutability": "view",
      "type": "function",
      "signature": "0x097ec48c"
    },
    {
      "constant": true,
      "inputs": [
        {
          "name": "_cnpj",
          "type": "uint256"
        },
        {
          "name": "_idSubcredito",
          "type": "uint256"
        }
      ],
      "name": "getContaBlockchain",
      "outputs": [
        {
          "name": "",
          "type": "address"
        }
      ],
      "payable": false,
      "stateMutability": "view",
      "type": "function",
      "signature": "0x0098cbac"
    },
    {
      "constant": true,
      "inputs": [
        {
          "name": "_addr",
          "type": "address"
        }
      ],
      "name": "isContaReservada",
      "outputs": [
        {
          "name": "",
          "type": "bool"
        }
      ],
      "payable": false,
      "stateMutability": "view",
      "type": "function",
      "signature": "0x1202761c"
    },
    {
      "constant": true,
      "inputs": [
        {
          "name": "_addr",
          "type": "address"
        }
      ],
      "name": "isFornecedor",
      "outputs": [
        {
          "name": "",
          "type": "bool"
        }
      ],
      "payable": false,
      "stateMutability": "view",
      "type": "function",
      "signature": "0xe704a107"
    },
    {
      "constant": true,
      "inputs": [
        {
          "name": "_addr",
          "type": "address"
        }
      ],
      "name": "isValidatedSupplier",
      "outputs": [
        {
          "name": "",
          "type": "bool"
        }
      ],
      "payable": false,
      "stateMutability": "view",
      "type": "function",
      "signature": "0x348da3f2"
    },
    {
      "constant": true,
      "inputs": [
        {
          "name": "_addr",
          "type": "address"
        }
      ],
      "name": "isCliente",
      "outputs": [
        {
          "name": "",
          "type": "bool"
        }
      ],
      "payable": false,
      "stateMutability": "view",
      "type": "function",
      "signature": "0x68b183d4"
    },
    {
      "constant": true,
      "inputs": [
        {
          "name": "_addr",
          "type": "address"
        }
      ],
      "name": "isValidatedClient",
      "outputs": [
        {
          "name": "",
          "type": "bool"
        }
      ],
      "payable": false,
      "stateMutability": "view",
      "type": "function",
      "signature": "0xc01ed210"
    },
    {
      "constant": true,
      "inputs": [
        {
          "name": "_addr",
          "type": "address"
        }
      ],
      "name": "isBNDES",
      "outputs": [
        {
          "name": "",
          "type": "bool"
        }
      ],
      "payable": false,
      "stateMutability": "view",
      "type": "function",
      "signature": "0x46dbc664"
    },
    {
      "constant": true,
      "inputs": [
        {
          "name": "_addr",
          "type": "address"
        }
      ],
      "name": "isResponsibleForSettlement",
      "outputs": [
        {
          "name": "",
          "type": "bool"
        }
      ],
      "payable": false,
      "stateMutability": "view",
      "type": "function",
      "signature": "0x85fecf9b"
    },
    {
      "constant": true,
      "inputs": [
        {
          "name": "_addr",
          "type": "address"
        }
      ],
      "name": "isContaDisponivel",
      "outputs": [
        {
          "name": "",
          "type": "bool"
        }
      ],
      "payable": false,
      "stateMutability": "view",
      "type": "function",
      "signature": "0x7450cf77"
    },
    {
      "constant": true,
      "inputs": [
        {
          "name": "_addr",
          "type": "address"
        }
      ],
      "name": "isContaAguardandoValidacao",
      "outputs": [
        {
          "name": "",
          "type": "bool"
        }
      ],
      "payable": false,
      "stateMutability": "view",
      "type": "function",
      "signature": "0x5835e281"
    },
    {
      "constant": true,
      "inputs": [
        {
          "name": "_addr",
          "type": "address"
        }
      ],
      "name": "isContaValidada",
      "outputs": [
        {
          "name": "",
          "type": "bool"
        }
      ],
      "payable": false,
      "stateMutability": "view",
      "type": "function",
      "signature": "0xefa4b969"
    },
    {
      "constant": true,
      "inputs": [
        {
          "name": "_addr",
          "type": "address"
        }
      ],
      "name": "getEstadoContaAsString",
      "outputs": [
        {
          "name": "",
          "type": "string"
        }
      ],
      "payable": false,
      "stateMutability": "view",
      "type": "function",
      "signature": "0x32fe141a"
    }
  ],
  "bytecode": "0x608060405234801561001057600080fd5b50336000806101000a81548173ffffffffffffffffffffffffffffffffffffffff021916908373ffffffffffffffffffffffffffffffffffffffff1602179055506000809054906101000a900473ffffffffffffffffffffffffffffffffffffffff1673ffffffffffffffffffffffffffffffffffffffff16600073ffffffffffffffffffffffffffffffffffffffff167f8be0079c531659141344cd1fd0a4f28419497f9722a3daafe3b4186f6b6457e060405160405180910390a333600160006101000a81548173ffffffffffffffffffffffffffffffffffffffff021916908373ffffffffffffffffffffffffffffffffffffffff160217905550612c888061011d6000396000f3fe608060405260043610610148576000357c0100000000000000000000000000000000000000000000000000000000900463ffffffff16806298cbac1461014d578063097ec48c146101d25780631202761c146102b857806332fe141a14610321578063348da3f2146103eb57806346dbc664146104545780635835e281146104bd57806368b183d414610526578063715018a61461058f5780637450cf77146105a657806385fecf9b1461060f57806388137e341461067857806388e7238b146106dd5780638da5cb5b1461072e5780638f32d59b14610785578063b7404ff5146107b4578063be49b78d14610805578063c01ed2101461086a578063d04df6b3146108d3578063d58b54c9146109b9578063e1ebf4e014610aa1578063e704a10714610b87578063eb8786a314610bf0578063efa4b96914610ce4578063f2fde38b14610d4d575b600080fd5b34801561015957600080fd5b506101906004803603604081101561017057600080fd5b810190808035906020019092919080359060200190929190505050610d9e565b604051808273ffffffffffffffffffffffffffffffffffffffff1673ffffffffffffffffffffffffffffffffffffffff16815260200191505060405180910390f35b3480156101de57600080fd5b50610221600480360360208110156101f557600080fd5b81019080803573ffffffffffffffffffffffffffffffffffffffff169060200190929190505050610ded565b6040518086815260200185815260200184815260200180602001838152602001828103825284818151815260200191508051906020019080838360005b8381101561027957808201518184015260208101905061025e565b50505050905090810190601f1680156102a65780820380516001836020036101000a031916815260200191505b50965050505050505060405180910390f35b3480156102c457600080fd5b50610307600480360360208110156102db57600080fd5b81019080803573ffffffffffffffffffffffffffffffffffffffff16906020019092919050505061100b565b604051808215151515815260200191505060405180910390f35b34801561032d57600080fd5b506103706004803603602081101561034457600080fd5b81019080803573ffffffffffffffffffffffffffffffffffffffff16906020019092919050505061103e565b6040518080602001828103825283818151815260200191508051906020019080838360005b838110156103b0578082015181840152602081019050610395565b50505050905090810190601f1680156103dd5780820380516001836020036101000a031916815260200191505b509250505060405180910390f35b3480156103f757600080fd5b5061043a6004803603602081101561040e57600080fd5b81019080803573ffffffffffffffffffffffffffffffffffffffff1690602001909291905050506113bf565b604051808215151515815260200191505060405180910390f35b34801561046057600080fd5b506104a36004803603602081101561047757600080fd5b81019080803573ffffffffffffffffffffffffffffffffffffffff169060200190929190505050611442565b604051808215151515815260200191505060405180910390f35b3480156104c957600080fd5b5061050c600480360360208110156104e057600080fd5b81019080803573ffffffffffffffffffffffffffffffffffffffff169060200190929190505050611481565b604051808215151515815260200191505060405180910390f35b34801561053257600080fd5b506105756004803603602081101561054957600080fd5b81019080803573ffffffffffffffffffffffffffffffffffffffff1690602001909291905050506114f3565b604051808215151515815260200191505060405180910390f35b34801561059b57600080fd5b506105a461155b565b005b3480156105b257600080fd5b506105f5600480360360208110156105c957600080fd5b81019080803573ffffffffffffffffffffffffffffffffffffffff16906020019092919050505061162d565b604051808215151515815260200191505060405180910390f35b34801561061b57600080fd5b5061065e6004803603602081101561063257600080fd5b81019080803573ffffffffffffffffffffffffffffffffffffffff169060200190929190505050611705565b604051808215151515815260200191505060405180910390f35b34801561068457600080fd5b506106c76004803603602081101561069b57600080fd5b81019080803573ffffffffffffffffffffffffffffffffffffffff16906020019092919050505061175f565b6040518082815260200191505060405180910390f35b3480156106e957600080fd5b5061072c6004803603602081101561070057600080fd5b81019080803573ffffffffffffffffffffffffffffffffffffffff1690602001909291905050506117ab565b005b34801561073a57600080fd5b50610743611888565b604051808273ffffffffffffffffffffffffffffffffffffffff1673ffffffffffffffffffffffffffffffffffffffff16815260200191505060405180910390f35b34801561079157600080fd5b5061079a6118b1565b604051808215151515815260200191505060405180910390f35b3480156107c057600080fd5b50610803600480360360208110156107d757600080fd5b81019080803573ffffffffffffffffffffffffffffffffffffffff169060200190929190505050611908565b005b34801561081157600080fd5b506108546004803603602081101561082857600080fd5b81019080803573ffffffffffffffffffffffffffffffffffffffff16906020019092919050505061195f565b6040518082815260200191505060405180910390f35b34801561087657600080fd5b506108b96004803603602081101561088d57600080fd5b81019080803573ffffffffffffffffffffffffffffffffffffffff1690602001909291905050506119ab565b604051808215151515815260200191505060405180910390f35b3480156108df57600080fd5b506109b7600480360360808110156108f657600080fd5b810190808035906020019092919080359060200190929190803590602001909291908035906020019064010000000081111561093157600080fd5b82018360208201111561094357600080fd5b8035906020019184600183028401116401000000008311171561096557600080fd5b91908080601f016020809104026020016040519081016040528093929190818152602001838380828437600081840152601f19601f820116905080830192505050505050509192919290505050611a2e565b005b3480156109c557600080fd5b50610a9f600480360360408110156109dc57600080fd5b81019080803573ffffffffffffffffffffffffffffffffffffffff16906020019092919080359060200190640100000000811115610a1957600080fd5b820183602082011115610a2b57600080fd5b80359060200191846001830284011164010000000083111715610a4d57600080fd5b91908080601f016020809104026020016040519081016040528093929190818152602001838380828437600081840152601f19601f82011690508083019250505050505050919291929050505061213d565b005b348015610aad57600080fd5b50610b8560048036036080811015610ac457600080fd5b8101908080359060200190929190803590602001909291908035906020019092919080359060200190640100000000811115610aff57600080fd5b820183602082011115610b1157600080fd5b80359060200191846001830284011164010000000083111715610b3357600080fd5b91908080601f016020809104026020016040519081016040528093929190818152602001838380828437600081840152601f19601f8201169050808301925050505050505091929192905050506124e7565b005b348015610b9357600080fd5b50610bd660048036036020811015610baa57600080fd5b81019080803573ffffffffffffffffffffffffffffffffffffffff1690602001909291905050506128d3565b604051808215151515815260200191505060405180910390f35b348015610bfc57600080fd5b50610c3f60048036036020811015610c1357600080fd5b81019080803573ffffffffffffffffffffffffffffffffffffffff169060200190929190505050612951565b6040518086815260200185815260200184815260200180602001836004811115610c6557fe5b60ff168152602001828103825284818151815260200191508051906020019080838360005b83811015610ca5578082015181840152602081019050610c8a565b50505050905090810190601f168015610cd25780820380516001836020036101000a031916815260200191505b50965050505050505060405180910390f35b348015610cf057600080fd5b50610d3360048036036020811015610d0757600080fd5b81019080803573ffffffffffffffffffffffffffffffffffffffff169060200190929190505050612a2c565b604051808215151515815260200191505060405180910390f35b348015610d5957600080fd5b50610d9c60048036036020811015610d7057600080fd5b81019080803573ffffffffffffffffffffffffffffffffffffffff169060200190929190505050612a9e565b005b600060036000848152602001908152602001600020600083815260200190815260200160002060009054906101000a900473ffffffffffffffffffffffffffffffffffffffff16905092915050565b600080600060606000600260008773ffffffffffffffffffffffffffffffffffffffff1673ffffffffffffffffffffffffffffffffffffffff16815260200190815260200160002060000154600260008873ffffffffffffffffffffffffffffffffffffffff1673ffffffffffffffffffffffffffffffffffffffff16815260200190815260200160002060010154600260008973ffffffffffffffffffffffffffffffffffffffff1673ffffffffffffffffffffffffffffffffffffffff16815260200190815260200160002060020154600260008a73ffffffffffffffffffffffffffffffffffffffff1673ffffffffffffffffffffffffffffffffffffffff168152602001908152602001600020600301600260008b73ffffffffffffffffffffffffffffffffffffffff1673ffffffffffffffffffffffffffffffffffffffff16815260200190815260200160002060040160009054906101000a900460ff166004811115610f5c57fe5b818054600181600116156101000203166002900480601f016020809104026020016040519081016040528092919081815260200182805460018160011615610100020316600290048015610ff15780601f10610fc657610100808354040283529160200191610ff1565b820191906000526020600020905b815481529060010190602001808311610fd457829003601f168201915b505050505091509450945094509450945091939590929450565b600061101682611442565b80611026575061102582611705565b5b156110345760019050611039565b600090505b919050565b606061104982611442565b1561108b576040805190810160405280601781526020017f436f6e746120526573657276616461202d20424e44455300000000000000000081525090506113ba565b61109482611705565b156110fd57606060405190810160405280602881526020017f436f6e746120526573657276616461202d204c6971756964616e746520646f2081526020017f636f6e747261746f00000000000000000000000000000000000000000000000081525090506113ba565b61110682612a2c565b15611148576040805190810160405280600881526020017f56616c696461646100000000000000000000000000000000000000000000000081525090506113ba565b6003600481111561115557fe5b600260008473ffffffffffffffffffffffffffffffffffffffff1673ffffffffffffffffffffffffffffffffffffffff16815260200190815260200160002060040160009054906101000a900460ff1660048111156111b057fe5b14156111f3576040805190810160405280601c81526020017f436f6e746120696e76616c6964616461206e6f20436164617374726f0000000081525090506113ba565b6004808111156111ff57fe5b600260008473ffffffffffffffffffffffffffffffffffffffff1673ffffffffffffffffffffffffffffffffffffffff16815260200190815260200160002060040160009054906101000a900460ff16600481111561125a57fe5b14156112c457606060405190810160405280602381526020017f436f6e746120696e76616c696461646120706f722054726f636120646520436f81526020017f6e7461000000000000000000000000000000000000000000000000000000000081525090506113ba565b6112cd82611481565b1561133657606060405190810160405280602281526020017f416775617264616e646f2076616c696461c3a7c3a36f20646f2043616461737481526020017f726f00000000000000000000000000000000000000000000000000000000000081525090506113ba565b61133f8261162d565b15611381576040805190810160405280600b81526020017f446973706f6ec3ad76656c00000000000000000000000000000000000000000081525090506113ba565b6040805190810160405280600481526020017f4572726f0000000000000000000000000000000000000000000000000000000081525090505b919050565b60006113ca826128d3565b801561143b5750600260048111156113de57fe5b600260008473ffffffffffffffffffffffffffffffffffffffff1673ffffffffffffffffffffffffffffffffffffffff16815260200190815260200160002060040160009054906101000a900460ff16600481111561143957fe5b145b9050919050565b600061144c611888565b73ffffffffffffffffffffffffffffffffffffffff168273ffffffffffffffffffffffffffffffffffffffff16149050919050565b60006001600481111561149057fe5b600260008473ffffffffffffffffffffffffffffffffffffffff1673ffffffffffffffffffffffffffffffffffffffff16815260200190815260200160002060040160009054906101000a900460ff1660048111156114eb57fe5b149050919050565b60006114fe8261100b565b1561150c5760009050611556565b6000600260008473ffffffffffffffffffffffffffffffffffffffff1673ffffffffffffffffffffffffffffffffffffffff16815260200190815260200160002060010154141590505b919050565b6115636118b1565b151561156e57600080fd5b600073ffffffffffffffffffffffffffffffffffffffff166000809054906101000a900473ffffffffffffffffffffffffffffffffffffffff1673ffffffffffffffffffffffffffffffffffffffff167f8be0079c531659141344cd1fd0a4f28419497f9722a3daafe3b4186f6b6457e060405160405180910390a360008060006101000a81548173ffffffffffffffffffffffffffffffffffffffff021916908373ffffffffffffffffffffffffffffffffffffffff160217905550565b60006116388261100b565b156116465760009050611700565b6000600260008473ffffffffffffffffffffffffffffffffffffffff1673ffffffffffffffffffffffffffffffffffffffff168152602001908152602001600020600001541480156116fd5750600060048111156116a057fe5b600260008473ffffffffffffffffffffffffffffffffffffffff1673ffffffffffffffffffffffffffffffffffffffff16815260200190815260200160002060040160009054906101000a900460ff1660048111156116fb57fe5b145b90505b919050565b6000600160009054906101000a900473ffffffffffffffffffffffffffffffffffffffff1673ffffffffffffffffffffffffffffffffffffffff168273ffffffffffffffffffffffffffffffffffffffff16149050919050565b6000600260008373ffffffffffffffffffffffffffffffffffffffff1673ffffffffffffffffffffffffffffffffffffffff168152602001908152602001600020600101549050919050565b6117b36118b1565b15156117be57600080fd5b6003600260008373ffffffffffffffffffffffffffffffffffffffff1673ffffffffffffffffffffffffffffffffffffffff16815260200190815260200160002060040160006101000a81548160ff0219169083600481111561181d57fe5b02179055507ff88096f95619381cee1f86cd4df1d8d1c46c6356a98d01e58f308fba80d51bcf81604051808273ffffffffffffffffffffffffffffffffffffffff1673ffffffffffffffffffffffffffffffffffffffff16815260200191505060405180910390a150565b60008060009054906101000a900473ffffffffffffffffffffffffffffffffffffffff16905090565b60008060009054906101000a900473ffffffffffffffffffffffffffffffffffffffff1673ffffffffffffffffffffffffffffffffffffffff163373ffffffffffffffffffffffffffffffffffffffff1614905090565b6119106118b1565b151561191b57600080fd5b80600160006101000a81548173ffffffffffffffffffffffffffffffffffffffff021916908373ffffffffffffffffffffffffffffffffffffffff16021790555050565b6000600260008373ffffffffffffffffffffffffffffffffffffffff1673ffffffffffffffffffffffffffffffffffffffff168152602001908152602001600020600001549050919050565b60006119b6826114f3565b8015611a275750600260048111156119ca57fe5b600260008473ffffffffffffffffffffffffffffffffffffffff1673ffffffffffffffffffffffffffffffffffffffff16815260200190815260200160002060040160009054906101000a900460ff166004811115611a2557fe5b145b9050919050565b6000339050611a3c8161162d565b1515611ad6576040517f08c379a000000000000000000000000000000000000000000000000000000000815260040180806020018281038252603a8152602001807f4e6f766f20656e64657265c3a76f206ec3a36f20706f6465207465722073696481526020017f6f206361646173747261646f20616e746572696f726d656e746500000000000081525060400191505060405180910390fd5b600073ffffffffffffffffffffffffffffffffffffffff1660036000878152602001908152602001600020600086815260200190815260200160002060009054906101000a900473ffffffffffffffffffffffffffffffffffffffff1673ffffffffffffffffffffffffffffffffffffffff1614151515611be5576040517f08c379a000000000000000000000000000000000000000000000000000000000815260040180806020018281038252603c8152602001807f54656d2071756520686176657220756d20656e64657265c3a76f206173736f6381526020017f6961646f2061206573736520636e706a2f7375626372c3a96469746f0000000081525060400191505060405180910390fd5b600060036000878152602001908152602001600020600086815260200190815260200160002060009054906101000a900473ffffffffffffffffffffffffffffffffffffffff1690508073ffffffffffffffffffffffffffffffffffffffff168273ffffffffffffffffffffffffffffffffffffffff1614151515611cf8576040517f08c379a000000000000000000000000000000000000000000000000000000000815260040180806020018281038252602d8152602001807f4f20656e64657265c3a76f206e6f766f2064657665207365722064696665726581526020017f6e746520646f20616e7469676f0000000000000000000000000000000000000081525060400191505060405180910390fd5b85600260008373ffffffffffffffffffffffffffffffffffffffff1673ffffffffffffffffffffffffffffffffffffffff16815260200190815260200160002060000154148015611d8a575084600260008373ffffffffffffffffffffffffffffffffffffffff1673ffffffffffffffffffffffffffffffffffffffff16815260200190815260200160002060010154145b1515611e24576040517f08c379a000000000000000000000000000000000000000000000000000000000815260040180806020018281038252602b8152602001807f4461646f7320696e636f6e73697374656e74657320646520636e706a206f752081526020017f7375626372c3a96469746f00000000000000000000000000000000000000000081525060400191505060405180910390fd5b60a06040519081016040528087815260200186815260200185815260200184815260200160016004811115611e5557fe5b815250600260008473ffffffffffffffffffffffffffffffffffffffff1673ffffffffffffffffffffffffffffffffffffffff1681526020019081526020016000206000820151816000015560208201518160010155604082015181600201556060820151816003019080519060200190611ed1929190612bb7565b5060808201518160040160006101000a81548160ff02191690836004811115611ef657fe5b021790555090505060a06040519081016040528060008152602001600081526020016000815260200160206040519081016040528060008152508152602001600480811115611f4157fe5b815250600260008373ffffffffffffffffffffffffffffffffffffffff1673ffffffffffffffffffffffffffffffffffffffff1681526020019081526020016000206000820151816000015560208201518160010155604082015181600201556060820151816003019080519060200190611fbd929190612bb7565b5060808201518160040160006101000a81548160ff02191690836004811115611fe257fe5b02179055509050508160036000888152602001908152602001600020600087815260200190815260200160002060006101000a81548173ffffffffffffffffffffffffffffffffffffffff021916908373ffffffffffffffffffffffffffffffffffffffff1602179055507f1bf55d918db6a8051eda4ecd2d786648884b24d401e7907190cf191a8da475208287878787604051808673ffffffffffffffffffffffffffffffffffffffff1673ffffffffffffffffffffffffffffffffffffffff16815260200185815260200184815260200183815260200180602001828103825283818151815260200191508051906020019080838360005b838110156120f75780820151818401526020810190506120dc565b50505050905090810190601f1680156121245780820380516001836020036101000a031916815260200191505b50965050505050505060405180910390a1505050505050565b6121456118b1565b151561215057600080fd5b6001600481111561215d57fe5b600260008473ffffffffffffffffffffffffffffffffffffffff1673ffffffffffffffffffffffffffffffffffffffff16815260200190815260200160002060040160009054906101000a900460ff1660048111156121b857fe5b141515612253576040517f08c379a00000000000000000000000000000000000000000000000000000000081526004018080602001828103825260368152602001807f4120636f6e74612070726563697361206573746172206e6f2065737461646f2081526020017f416775617264616e646f2056616c696461c3a7c3a36f0000000000000000000081525060400191505060405180910390fd5b806040516020018082805190602001908083835b60208310151561228c5780518252602082019150602081019050602083039250612267565b6001836020036101000a03801982511681845116808217855250505050505090500191505060405160208183030381529060405280519060200120600260008473ffffffffffffffffffffffffffffffffffffffff1673ffffffffffffffffffffffffffffffffffffffff16815260200190815260200160002060030160405160200180828054600181600116156101000203166002900480156123675780601f10612345576101008083540402835291820191612367565b820191906000526020600020905b815481529060010190602001808311612353575b50509150506040516020818303038152906040528051906020012014151561241d576040517f08c379a00000000000000000000000000000000000000000000000000000000081526004018080602001828103825260288152602001807f4f206861736820726563656269646f20c3a9206469666572656e746520646f2081526020017f657370657261646f00000000000000000000000000000000000000000000000081525060400191505060405180910390fd5b60028060008473ffffffffffffffffffffffffffffffffffffffff1673ffffffffffffffffffffffffffffffffffffffff16815260200190815260200160002060040160006101000a81548160ff0219169083600481111561247b57fe5b02179055507f28b8b7b8f52bbe893d4290bc2a5d3328a194eceb6b3a7398737d0bbf075a1e0282604051808273ffffffffffffffffffffffffffffffffffffffff1673ffffffffffffffffffffffffffffffffffffffff16815260200191505060405180910390a15050565b60003390506124f58161162d565b151561258f576040517f08c379a00000000000000000000000000000000000000000000000000000000081526004018080602001828103825260358152602001807f456e64657265c3a76f206ec3a36f20706f646520746572207369646f2063616481526020017f6173747261646f20616e746572696f726d656e7465000000000000000000000081525060400191505060405180910390fd5b60a060405190810160405280868152602001858152602001848152602001838152602001600160048111156125c057fe5b815250600260008373ffffffffffffffffffffffffffffffffffffffff1673ffffffffffffffffffffffffffffffffffffffff168152602001908152602001600020600082015181600001556020820151816001015560408201518160020155606082015181600301908051906020019061263c929190612bb7565b5060808201518160040160006101000a81548160ff0219169083600481111561266157fe5b0217905550905050600084111561278157600073ffffffffffffffffffffffffffffffffffffffff1660036000878152602001908152602001600020600086815260200190815260200160002060009054906101000a900473ffffffffffffffffffffffffffffffffffffffff1673ffffffffffffffffffffffffffffffffffffffff16141515612780576040517f08c379a00000000000000000000000000000000000000000000000000000000081526004018080602001828103825260308152602001807f5375626372656469746f206ac3a120657374c3a1206173736f636961646f206181526020017f206f7574726f20656e64657265c3a76f0000000000000000000000000000000081525060400191505060405180910390fd5b5b8060036000878152602001908152602001600020600086815260200190815260200160002060006101000a81548173ffffffffffffffffffffffffffffffffffffffff021916908373ffffffffffffffffffffffffffffffffffffffff1602179055507f8ec53aa58c6aeaba77afa132c2419aac81b51cc3a70482ba0d9b207a4db9d3158186868686604051808673ffffffffffffffffffffffffffffffffffffffff1673ffffffffffffffffffffffffffffffffffffffff16815260200185815260200184815260200183815260200180602001828103825283818151815260200191508051906020019080838360005b8381101561288e578082015181840152602081019050612873565b50505050905090810190601f1680156128bb5780820380516001836020036101000a031916815260200191505b50965050505050505060405180910390a15050505050565b60006128de8261100b565b156128ec576000905061294c565b6128f58261162d565b15612903576000905061294c565b6000600260008473ffffffffffffffffffffffffffffffffffffffff1673ffffffffffffffffffffffffffffffffffffffff168152602001908152602001600020600101541490505b919050565b6002602052806000526040600020600091509050806000015490806001015490806002015490806003018054600181600116156101000203166002900480601f016020809104026020016040519081016040528092919081815260200182805460018160011615610100020316600290048015612a0f5780601f106129e457610100808354040283529160200191612a0f565b820191906000526020600020905b8154815290600101906020018083116129f257829003601f168201915b5050505050908060040160009054906101000a900460ff16905085565b600060026004811115612a3b57fe5b600260008473ffffffffffffffffffffffffffffffffffffffff1673ffffffffffffffffffffffffffffffffffffffff16815260200190815260200160002060040160009054906101000a900460ff166004811115612a9657fe5b149050919050565b612aa66118b1565b1515612ab157600080fd5b612aba81612abd565b50565b600073ffffffffffffffffffffffffffffffffffffffff168173ffffffffffffffffffffffffffffffffffffffff1614151515612af957600080fd5b8073ffffffffffffffffffffffffffffffffffffffff166000809054906101000a900473ffffffffffffffffffffffffffffffffffffffff1673ffffffffffffffffffffffffffffffffffffffff167f8be0079c531659141344cd1fd0a4f28419497f9722a3daafe3b4186f6b6457e060405160405180910390a3806000806101000a81548173ffffffffffffffffffffffffffffffffffffffff021916908373ffffffffffffffffffffffffffffffffffffffff16021790555050565b828054600181600116156101000203166002900490600052602060002090601f016020900481019282601f10612bf857805160ff1916838001178555612c26565b82800160010185558215612c26579182015b82811115612c25578251825591602001919060010190612c0a565b5b509050612c339190612c37565b5090565b612c5991905b80821115612c55576000816000905550600101612c3d565b5090565b9056fea165627a7a72305820022b8940f12f42a9600d8b6c59effd7425ad77725b85c7f598a17a93985676370029",
  "source": "pragma solidity ^0.5.0;\r\n\r\nimport \"openzeppelin-solidity/contracts/ownership/Ownable.sol\";\r\n\r\ncontract BNDESRegistry is Ownable() {\r\n\r\n    //TODO: Vale a pena adicionar o estado de conta SUSPENSA para casos excepcionais?\r\n    //TODO: Vale a pena adicionar o estado de conta INVALIDADA_INCONFORMIDADE para casos excepcionais?\r\n    enum EstadoContaBlockchain {DISPONIVEL,AGUARDANDO_VALIDACAO,VALIDADA,INVALIDADA_CADASTRO,INVALIDADA_TROCA} \r\n\r\n    EstadoContaBlockchain estadosPossiveis; //variavel nao utilizada, apenas para definir o enum\r\n\r\n    address responsibleForSettlement;\r\n\r\n    struct PJInfo {\r\n        uint cnpj;\r\n        uint idSubcredito;\r\n        uint salic;\r\n        string hashdeclaracao;\r\n        EstadoContaBlockchain estado;\r\n    } \r\n\r\n    mapping(address => PJInfo) public pjsInfo;\r\n\r\n    //_cnpj => (_idSubcredito => endereco)\r\n    mapping(uint => mapping(uint => address)) cnpjSubEndereco; \r\n\r\n\r\n\r\n    event CadastroConta(address endereco, uint cnpj, uint idSubcredito, uint salic, string hashdeclaracao);\r\n    event TrocaConta(address endereco, uint cnpj, uint idSubcredito, uint salic, string hashdeclaracao);\r\n    event ValidacaoConta(address endereco);\r\n    event InvalidacaoCadastroConta(address endereco);\r\n\r\n\r\n    constructor () public {\r\n        responsibleForSettlement = msg.sender;\r\n    }\r\n\r\n\r\n    /**\r\n    Associa um endereo blockchain ao CNPJ\r\n    */\r\n    function cadastra(uint _cnpj, uint _idSubcredito, uint _salic, string memory hashdeclaracao) public { \r\n\r\n        address endereco = msg.sender;\r\n\r\n        // Endereo no pode ter sido cadastrado anteriormente\r\n        require (isContaDisponivel(endereco), \"Endereo no pode ter sido cadastrado anteriormente\");\r\n\r\n        pjsInfo[endereco] = PJInfo(_cnpj, _idSubcredito, _salic, hashdeclaracao, EstadoContaBlockchain.AGUARDANDO_VALIDACAO);\r\n        \r\n        // No pode haver outro endereo cadastrado para esse mesmo subcrdito\r\n        if (_idSubcredito > 0) {\r\n            require (cnpjSubEndereco[_cnpj][_idSubcredito] == address(0x0), \"Subcredito j est associado a outro endereo\");\r\n        }\r\n        \r\n        cnpjSubEndereco[_cnpj][_idSubcredito] = endereco;\r\n\r\n        emit CadastroConta(endereco, _cnpj, _idSubcredito, _salic, hashdeclaracao);\r\n    }\r\n\r\n    /**\r\n    Reassocia um cnpj/subcrdito a um novo endereo da blockchain (o sender)\r\n    */\r\n    function troca(uint _cnpj, uint _idSubcredito, uint _salic, string memory _hashdeclaracao) public {\r\n\r\n        address enderecoNovo = msg.sender;\r\n     \r\n        require (isContaDisponivel(enderecoNovo), \"Novo endereo no pode ter sido cadastrado anteriormente\");\r\n\r\n        // Tem que haver um endereo associado a esse cnpj/subcrdito\r\n        require(cnpjSubEndereco[_cnpj][_idSubcredito] != address(0x0), \"Tem que haver um endereo associado a esse cnpj/subcrdito\");\r\n\r\n        address enderecoAntigo = cnpjSubEndereco[_cnpj][_idSubcredito];\r\n\r\n        require(enderecoNovo != enderecoAntigo, \"O endereo novo deve ser diferente do antigo\");\r\n\r\n        require(pjsInfo[enderecoAntigo].cnpj==_cnpj && pjsInfo[enderecoAntigo].idSubcredito ==_idSubcredito, \"Dados inconsistentes de cnpj ou subcrdito\");\r\n\r\n        // Aponta o novo endereo para o novo PJInfo\r\n        pjsInfo[enderecoNovo] = PJInfo(_cnpj, _idSubcredito, _salic, _hashdeclaracao, EstadoContaBlockchain.AGUARDANDO_VALIDACAO);\r\n\r\n        // Apaga o mapping do endereo antigo\r\n        pjsInfo[enderecoAntigo] = PJInfo(0, 0, 0, \"\", EstadoContaBlockchain.INVALIDADA_TROCA);\r\n\r\n        // Aponta mapping CNPJ e Subcredito para enderecoNovo\r\n        cnpjSubEndereco[_cnpj][_idSubcredito] = enderecoNovo;\r\n\r\n        emit TrocaConta(enderecoNovo, _cnpj, _idSubcredito, _salic, _hashdeclaracao); \r\n\r\n    }\r\n\r\n\r\n    function validarCadastro(address _addr, string memory _hashdeclaracao) onlyOwner public {\r\n\r\n        require(pjsInfo[_addr].estado == EstadoContaBlockchain.AGUARDANDO_VALIDACAO, \"A conta precisa estar no estado Aguardando Validao\");\r\n\r\n        require(keccak256(abi.encodePacked(pjsInfo[_addr].hashdeclaracao)) == keccak256(abi.encodePacked(_hashdeclaracao)), \"O hash recebido  diferente do esperado\");\r\n\r\n        pjsInfo[_addr].estado = EstadoContaBlockchain.VALIDADA;\r\n\r\n        emit ValidacaoConta(_addr);\r\n    }\r\n\r\n    function invalidarCadastro(address _addr) onlyOwner public {\r\n\r\n        pjsInfo[_addr].estado = EstadoContaBlockchain.INVALIDADA_CADASTRO;\r\n\r\n        emit InvalidacaoCadastroConta(_addr);\r\n    }\r\n\r\n\r\n    function setResponsibleForSettlement(address rs) onlyOwner public {\r\n        responsibleForSettlement = rs;\r\n    }\r\n\r\n\r\n    function getCNPJ(address _addr) view public returns (uint) {\r\n        return pjsInfo[_addr].cnpj;\r\n    }\r\n\r\n    function getSubcredito(address _addr) view public returns (uint) {\r\n        return pjsInfo[_addr].idSubcredito;\r\n    }\r\n\r\n    function getPJInfo (address _addr) view public returns (uint, uint, uint, string memory, uint) {\r\n        return (pjsInfo[_addr].cnpj, pjsInfo[_addr].idSubcredito, pjsInfo[_addr].salic, pjsInfo[_addr].hashdeclaracao, (uint) (pjsInfo[_addr].estado));\r\n    }\r\n\r\n    function getContaBlockchain(uint256 _cnpj, uint256 _idSubcredito) view public returns (address) {\r\n        return cnpjSubEndereco[_cnpj][_idSubcredito];\r\n    }\r\n\r\n    function isContaReservada(address _addr) view public returns (bool) {\r\n\r\n        if (isBNDES(_addr) || isResponsibleForSettlement(_addr))\r\n            return true;\r\n\r\n        return false;\r\n    }\r\n\r\n    function isFornecedor(address _addr) view public returns (bool) {\r\n\r\n        if (isContaReservada(_addr))\r\n            return false;\r\n\r\n        if (isContaDisponivel(_addr))\r\n            return false;\r\n\r\n        return pjsInfo[_addr].idSubcredito == 0;\r\n    }\r\n\r\n    function isValidatedSupplier (address _addr) view public returns (bool) {\r\n        return isFornecedor(_addr) && (pjsInfo[_addr].estado == EstadoContaBlockchain.VALIDADA);\r\n    }\r\n\r\n\r\n    function isCliente (address _addr) view public returns (bool) {\r\n\r\n        if (isContaReservada(_addr))\r\n            return false;\r\n\r\n        return pjsInfo[_addr].idSubcredito != 0;\r\n    }\r\n\r\n    function isValidatedClient (address _addr) view public returns (bool) {\r\n        return isCliente(_addr) && (pjsInfo[_addr].estado == EstadoContaBlockchain.VALIDADA);\r\n    }\r\n\r\n    //TODO: isBNDES deveria pegar minters tb? Openzepellin abriu a possibilidade de adicionarmos novos minters\r\n    function isBNDES(address _addr) view public returns (bool) {\r\n        return (_addr == owner());\r\n    }\r\n\r\n    function isResponsibleForSettlement(address _addr) view public returns (bool) {\r\n        return (_addr == responsibleForSettlement);\r\n    }    \r\n\r\n\r\n    function isContaDisponivel(address _addr) view public returns (bool) {\r\n        \r\n        if ( isContaReservada(_addr) ) {\r\n            return false;\r\n        } \r\n\r\n        return pjsInfo[_addr].cnpj == 0 && pjsInfo[_addr].estado == EstadoContaBlockchain.DISPONIVEL;\r\n    }\r\n\r\n    function isContaAguardandoValidacao(address _addr) view public returns (bool) {\r\n        return pjsInfo[_addr].estado == EstadoContaBlockchain.AGUARDANDO_VALIDACAO;\r\n    }\r\n\r\n    function isContaValidada(address _addr) view public returns (bool) {\r\n        return pjsInfo[_addr].estado == EstadoContaBlockchain.VALIDADA;\r\n    }\r\n\r\n\r\n    function getEstadoContaAsString(address _addr) view public returns (string memory) {\r\n\r\n        if ( isBNDES(_addr) ) {\r\n            return \"Conta Reservada - BNDES\";\r\n        } else if ( isResponsibleForSettlement(_addr)) {\r\n            return \"Conta Reservada - Liquidante do contrato\";\r\n        } else if ( isContaValidada(_addr) ) {\r\n            return \"Validada\"; \r\n        } else if ( pjsInfo[_addr].estado == EstadoContaBlockchain.INVALIDADA_CADASTRO ) {\r\n            return \"Conta invalidada no Cadastro\";\r\n        } else if ( pjsInfo[_addr].estado == EstadoContaBlockchain.INVALIDADA_TROCA ) {\r\n            return \"Conta invalidada por Troca de Conta\";\r\n        } else if ( isContaAguardandoValidacao(_addr) ) {\r\n            return \"Aguardando validao do Cadastro\";\r\n        } else if (isContaDisponivel (_addr)) {\r\n            return \"Disponvel\";\r\n        } else {\r\n            return \"Erro\";\r\n        }\r\n\r\n    }\r\n\r\n\r\n}",
  "sourcePath": "D:\\Workspace\\bndestoken\\Back-Blockchain\\contracts\\BNDESRegistry.sol",
  "compiler": {
    "name": "solc",
    "version": "0.5.0+commit.1d4f565a.Emscripten.clang"
  },
  "schemaVersion": "3.0.5",
  "updatedAt": "2019-05-14T19:05:39.272Z",
  "devdoc": {
    "methods": {
      "isOwner()": {
        "return": "true if `msg.sender` is the owner of the contract."
      },
      "owner()": {
        "return": "the address of the owner."
      },
      "renounceOwnership()": {
        "details": "Allows the current owner to relinquish control of the contract."
      },
      "transferOwnership(address)": {
        "details": "Allows the current owner to transfer control of the contract to a newOwner.",
        "params": {
          "newOwner": "The address to transfer ownership to."
        }
      }
    }
  },
  "userdoc": {
    "methods": {
      "cadastra(uint256,uint256,uint256,string)": {
        "notice": "Associa um endereo blockchain ao CNPJ\r"
      },
      "renounceOwnership()": {
        "notice": "Renouncing to ownership will leave the contract without an owner. It will not be possible to call the functions with the `onlyOwner` modifier anymore."
      },
      "troca(uint256,uint256,uint256,string)": {
        "notice": "Reassocia um cnpj/subcrdito a um novo endereo da blockchain (o sender)\r"
      }
    }
  }
}