{
  "contractName": "BNDESToken",
  "abi": [
    {
      "constant": true,
      "inputs": [],
      "name": "name",
      "outputs": [
        {
          "name": "",
          "type": "string"
        }
      ],
      "payable": false,
      "stateMutability": "view",
      "type": "function"
    },
    {
      "constant": true,
      "inputs": [],
      "name": "totalSupply",
      "outputs": [
        {
          "name": "",
          "type": "uint256"
        }
      ],
      "payable": false,
      "stateMutability": "view",
      "type": "function"
    },
    {
      "constant": true,
      "inputs": [],
      "name": "decimals",
      "outputs": [
        {
          "name": "",
          "type": "uint8"
        }
      ],
      "payable": false,
      "stateMutability": "view",
      "type": "function"
    },
    {
      "constant": false,
      "inputs": [],
      "name": "unpause",
      "outputs": [],
      "payable": false,
      "stateMutability": "nonpayable",
      "type": "function"
    },
    {
      "constant": true,
      "inputs": [
        {
          "name": "account",
          "type": "address"
        }
      ],
      "name": "isPauser",
      "outputs": [
        {
          "name": "",
          "type": "bool"
        }
      ],
      "payable": false,
      "stateMutability": "view",
      "type": "function"
    },
    {
      "constant": true,
      "inputs": [],
      "name": "paused",
      "outputs": [
        {
          "name": "",
          "type": "bool"
        }
      ],
      "payable": false,
      "stateMutability": "view",
      "type": "function"
    },
    {
      "constant": false,
      "inputs": [],
      "name": "renouncePauser",
      "outputs": [],
      "payable": false,
      "stateMutability": "nonpayable",
      "type": "function"
    },
    {
      "constant": true,
      "inputs": [
        {
          "name": "owner",
          "type": "address"
        }
      ],
      "name": "balanceOf",
      "outputs": [
        {
          "name": "",
          "type": "uint256"
        }
      ],
      "payable": false,
      "stateMutability": "view",
      "type": "function"
    },
    {
      "constant": false,
      "inputs": [
        {
          "name": "account",
          "type": "address"
        }
      ],
      "name": "addPauser",
      "outputs": [],
      "payable": false,
      "stateMutability": "nonpayable",
      "type": "function"
    },
    {
      "constant": false,
      "inputs": [],
      "name": "pause",
      "outputs": [],
      "payable": false,
      "stateMutability": "nonpayable",
      "type": "function"
    },
    {
      "constant": true,
      "inputs": [],
      "name": "symbol",
      "outputs": [
        {
          "name": "",
          "type": "string"
        }
      ],
      "payable": false,
      "stateMutability": "view",
      "type": "function"
    },
    {
      "constant": true,
      "inputs": [
        {
          "name": "owner",
          "type": "address"
        },
        {
          "name": "spender",
          "type": "address"
        }
      ],
      "name": "allowance",
      "outputs": [
        {
          "name": "",
          "type": "uint256"
        }
      ],
      "payable": false,
      "stateMutability": "view",
      "type": "function"
    },
    {
      "inputs": [
        {
          "name": "newRegistryAddr",
          "type": "address"
        }
      ],
      "payable": false,
      "stateMutability": "nonpayable",
      "type": "constructor"
    },
    {
      "anonymous": false,
      "inputs": [
        {
          "indexed": false,
          "name": "cnpj",
          "type": "uint64"
        },
        {
          "indexed": false,
          "name": "idFinancialSupportAgreement",
          "type": "uint64"
        },
        {
          "indexed": false,
          "name": "value",
          "type": "uint256"
        }
      ],
      "name": "BNDESTokenDisbursement",
      "type": "event"
    },
    {
      "anonymous": false,
      "inputs": [
        {
          "indexed": false,
          "name": "fromCnpj",
          "type": "uint64"
        },
        {
          "indexed": false,
          "name": "fromIdFinancialSupportAgreement",
          "type": "uint64"
        },
        {
          "indexed": false,
          "name": "toCnpj",
          "type": "uint64"
        },
        {
          "indexed": false,
          "name": "value",
          "type": "uint256"
        }
      ],
      "name": "BNDESTokenTransfer",
      "type": "event"
    },
    {
      "anonymous": false,
      "inputs": [
        {
          "indexed": false,
          "name": "cnpj",
          "type": "uint64"
        },
        {
          "indexed": false,
          "name": "value",
          "type": "uint256"
        }
      ],
      "name": "BNDESTokenRedemption",
      "type": "event"
    },
    {
      "anonymous": false,
      "inputs": [
        {
          "indexed": false,
          "name": "redemptionTransactionHash",
          "type": "string"
        },
        {
          "indexed": false,
          "name": "receiptHash",
          "type": "string"
        }
      ],
      "name": "BNDESTokenRedemptionSettlement",
      "type": "event"
    },
    {
      "anonymous": false,
      "inputs": [
        {
          "indexed": false,
          "name": "description",
          "type": "string"
        }
      ],
      "name": "BNDESManualIntervention",
      "type": "event"
    },
    {
      "anonymous": false,
      "inputs": [
        {
          "indexed": false,
          "name": "account",
          "type": "address"
        }
      ],
      "name": "Paused",
      "type": "event"
    },
    {
      "anonymous": false,
      "inputs": [
        {
          "indexed": false,
          "name": "account",
          "type": "address"
        }
      ],
      "name": "Unpaused",
      "type": "event"
    },
    {
      "anonymous": false,
      "inputs": [
        {
          "indexed": true,
          "name": "account",
          "type": "address"
        }
      ],
      "name": "PauserAdded",
      "type": "event"
    },
    {
      "anonymous": false,
      "inputs": [
        {
          "indexed": true,
          "name": "account",
          "type": "address"
        }
      ],
      "name": "PauserRemoved",
      "type": "event"
    },
    {
      "anonymous": false,
      "inputs": [
        {
          "indexed": true,
          "name": "from",
          "type": "address"
        },
        {
          "indexed": true,
          "name": "to",
          "type": "address"
        },
        {
          "indexed": false,
          "name": "value",
          "type": "uint256"
        }
      ],
      "name": "Transfer",
      "type": "event"
    },
    {
      "anonymous": false,
      "inputs": [
        {
          "indexed": true,
          "name": "owner",
          "type": "address"
        },
        {
          "indexed": true,
          "name": "spender",
          "type": "address"
        },
        {
          "indexed": false,
          "name": "value",
          "type": "uint256"
        }
      ],
      "name": "Approval",
      "type": "event"
    },
    {
      "constant": true,
      "inputs": [],
      "name": "getVersion",
      "outputs": [
        {
          "name": "",
          "type": "uint256"
        }
      ],
      "payable": false,
      "stateMutability": "view",
      "type": "function"
    },
    {
      "constant": false,
      "inputs": [
        {
          "name": "to",
          "type": "address"
        },
        {
          "name": "value",
          "type": "uint256"
        }
      ],
      "name": "transfer",
      "outputs": [
        {
          "name": "",
          "type": "bool"
        }
      ],
      "payable": false,
      "stateMutability": "nonpayable",
      "type": "function"
    },
    {
      "constant": false,
      "inputs": [
        {
          "name": "value",
          "type": "uint256"
        }
      ],
      "name": "redeem",
      "outputs": [
        {
          "name": "",
          "type": "bool"
        }
      ],
      "payable": false,
      "stateMutability": "nonpayable",
      "type": "function"
    },
    {
      "constant": false,
      "inputs": [
        {
          "name": "redemptionTransactionHash",
          "type": "string"
        },
        {
          "name": "receiptHash",
          "type": "string"
        }
      ],
      "name": "notifyRedemptionSettlement",
      "outputs": [],
      "payable": false,
      "stateMutability": "nonpayable",
      "type": "function"
    },
    {
      "constant": false,
      "inputs": [
        {
          "name": "cnpj",
          "type": "uint64"
        },
        {
          "name": "idFinancialSupportAgreement",
          "type": "uint64"
        },
        {
          "name": "salic",
          "type": "uint32"
        },
        {
          "name": "idProofHash",
          "type": "string"
        }
      ],
      "name": "registryLegalEntity",
      "outputs": [],
      "payable": false,
      "stateMutability": "nonpayable",
      "type": "function"
    },
    {
      "constant": false,
      "inputs": [
        {
          "name": "cnpj",
          "type": "uint64"
        },
        {
          "name": "idFinancialSupportAgreement",
          "type": "uint64"
        },
        {
          "name": "salic",
          "type": "uint32"
        },
        {
          "name": "idProofHash",
          "type": "string"
        }
      ],
      "name": "changeAccountLegalEntity",
      "outputs": [],
      "payable": false,
      "stateMutability": "nonpayable",
      "type": "function"
    },
    {
      "constant": false,
      "inputs": [
        {
          "name": "from",
          "type": "address"
        },
        {
          "name": "value",
          "type": "uint256"
        },
        {
          "name": "description",
          "type": "string"
        }
      ],
      "name": "burn",
      "outputs": [],
      "payable": false,
      "stateMutability": "nonpayable",
      "type": "function"
    },
    {
      "constant": false,
      "inputs": [
        {
          "name": "to",
          "type": "address"
        },
        {
          "name": "value",
          "type": "uint256"
        },
        {
          "name": "description",
          "type": "string"
        }
      ],
      "name": "mint",
      "outputs": [],
      "payable": false,
      "stateMutability": "nonpayable",
      "type": "function"
    },
    {
      "constant": true,
      "inputs": [],
      "name": "isOwner",
      "outputs": [
        {
          "name": "",
          "type": "bool"
        }
      ],
      "payable": false,
      "stateMutability": "view",
      "type": "function"
    },
    {
      "constant": false,
      "inputs": [
        {
          "name": "from",
          "type": "address"
        },
        {
          "name": "to",
          "type": "address"
        },
        {
          "name": "value",
          "type": "uint256"
        }
      ],
      "name": "transferFrom",
      "outputs": [
        {
          "name": "",
          "type": "bool"
        }
      ],
      "payable": false,
      "stateMutability": "nonpayable",
      "type": "function"
    },
    {
      "constant": false,
      "inputs": [
        {
          "name": "spender",
          "type": "address"
        },
        {
          "name": "value",
          "type": "uint256"
        }
      ],
      "name": "approve",
      "outputs": [
        {
          "name": "",
          "type": "bool"
        }
      ],
      "payable": false,
      "stateMutability": "nonpayable",
      "type": "function"
    },
    {
      "constant": false,
      "inputs": [
        {
          "name": "spender",
          "type": "address"
        },
        {
          "name": "addedValue",
          "type": "uint256"
        }
      ],
      "name": "increaseAllowance",
      "outputs": [
        {
          "name": "success",
          "type": "bool"
        }
      ],
      "payable": false,
      "stateMutability": "nonpayable",
      "type": "function"
    },
    {
      "constant": false,
      "inputs": [
        {
          "name": "spender",
          "type": "address"
        },
        {
          "name": "subtractedValue",
          "type": "uint256"
        }
      ],
      "name": "decreaseAllowance",
      "outputs": [
        {
          "name": "success",
          "type": "bool"
        }
      ],
      "payable": false,
      "stateMutability": "nonpayable",
      "type": "function"
    }
  ],
  "bytecode": "0x608060405263013415356008553480156200001957600080fd5b5060405160208062003c4b833981018060405260208110156200003b57600080fd5b81019080805190602001909291905050506040805190810160405280600a81526020017f424e444553546f6b656e000000000000000000000000000000000000000000008152506040805190810160405280600381526020017f424e4400000000000000000000000000000000000000000000000000000000008152506002620000d43362000187640100000000026401000000009004565b6000600460006101000a81548160ff02191690831515021790555082600590805190602001906200010792919062000349565b5081600690805190602001906200012092919062000349565b5080600760006101000a81548160ff021916908360ff16021790555050505080600960006101000a81548173ffffffffffffffffffffffffffffffffffffffff021916908373ffffffffffffffffffffffffffffffffffffffff16021790555050620003f8565b620001ab816003620001f16401000000000262003767179091906401000000009004565b8073ffffffffffffffffffffffffffffffffffffffff167f6719d08c1888103bea251a4ed56406bd0c3e69723c8a1686e017e7bbe159b6f860405160405180910390a250565b600073ffffffffffffffffffffffffffffffffffffffff168173ffffffffffffffffffffffffffffffffffffffff16141515156200022e57600080fd5b620002498282620002b4640100000000026401000000009004565b1515156200025657600080fd5b60018260000160008373ffffffffffffffffffffffffffffffffffffffff1673ffffffffffffffffffffffffffffffffffffffff16815260200190815260200160002060006101000a81548160ff0219169083151502179055505050565b60008073ffffffffffffffffffffffffffffffffffffffff168273ffffffffffffffffffffffffffffffffffffffff1614151515620002f257600080fd5b8260000160008373ffffffffffffffffffffffffffffffffffffffff1673ffffffffffffffffffffffffffffffffffffffff16815260200190815260200160002060009054906101000a900460ff16905092915050565b828054600181600116156101000203166002900490600052602060002090601f016020900481019282601f106200038c57805160ff1916838001178555620003bd565b82800160010185558215620003bd579182015b82811115620003bc5782518255916020019190600101906200039f565b5b509050620003cc9190620003d0565b5090565b620003f591905b80821115620003f1576000816000905550600101620003d7565b5090565b90565b61384380620004086000396000f3fe608060405260043610610149576000357c0100000000000000000000000000000000000000000000000000000000900463ffffffff16806306fdde031461014e578063095ea7b3146101de5780630d8e6e2c1461025157806315f570dc1461027c578063167550651461036e57806318160ddd1461046e57806323b872dd14610499578063313ce5671461052c578063395093511461055d5780633f4ba83a146105d057806346fbf68e146105e75780635c975abb146106505780635e096cef1461067f5780636ef8d66d1461077f57806370a082311461079657806382dc1ec4146107fb5780638456cb591461084c57806387cf6423146108635780638f32d59b146109c257806395d89b41146109f1578063a457c2d714610a81578063a9059cbb14610af4578063d3fc986414610b67578063db006a7514610c59578063dd62ed3e14610cac575b600080fd5b34801561015a57600080fd5b50610163610d31565b6040518080602001828103825283818151815260200191508051906020019080838360005b838110156101a3578082015181840152602081019050610188565b50505050905090810190601f1680156101d05780820380516001836020036101000a031916815260200191505b509250505060405180910390f35b3480156101ea57600080fd5b506102376004803603604081101561020157600080fd5b81019080803573ffffffffffffffffffffffffffffffffffffffff16906020019092919080359060200190929190505050610dd3565b604051808215151515815260200191505060405180910390f35b34801561025d57600080fd5b50610266610e6d565b6040518082815260200191505060405180910390f35b34801561028857600080fd5b5061036c6004803603606081101561029f57600080fd5b81019080803573ffffffffffffffffffffffffffffffffffffffff16906020019092919080359060200190929190803590602001906401000000008111156102e657600080fd5b8201836020820111156102f857600080fd5b8035906020019184600183028401116401000000008311171561031a57600080fd5b91908080601f016020809104026020016040519081016040528093929190818152602001838380828437600081840152601f19601f820116905080830192505050505050509192919290505050610e77565b005b34801561037a57600080fd5b5061046c6004803603608081101561039157600080fd5b81019080803567ffffffffffffffff169060200190929190803567ffffffffffffffff169060200190929190803563ffffffff169060200190929190803590602001906401000000008111156103e657600080fd5b8201836020820111156103f857600080fd5b8035906020019184600183028401116401000000008311171561041a57600080fd5b91908080601f016020809104026020016040519081016040528093929190818152602001838380828437600081840152601f19601f820116905080830192505050505050509192919290505050610f35565b005b34801561047a57600080fd5b506104836110b1565b6040518082815260200191505060405180910390f35b3480156104a557600080fd5b50610512600480360360608110156104bc57600080fd5b81019080803573ffffffffffffffffffffffffffffffffffffffff169060200190929190803573ffffffffffffffffffffffffffffffffffffffff169060200190929190803590602001909291905050506110bb565b604051808215151515815260200191505060405180910390f35b34801561053857600080fd5b5061054161117c565b604051808260ff1660ff16815260200191505060405180910390f35b34801561056957600080fd5b506105b66004803603604081101561058057600080fd5b81019080803573ffffffffffffffffffffffffffffffffffffffff16906020019092919080359060200190929190505050611193565b604051808215151515815260200191505060405180910390f35b3480156105dc57600080fd5b506105e5611253565b005b3480156105f357600080fd5b506106366004803603602081101561060a57600080fd5b81019080803573ffffffffffffffffffffffffffffffffffffffff169060200190929190505050611302565b604051808215151515815260200191505060405180910390f35b34801561065c57600080fd5b5061066561131f565b604051808215151515815260200191505060405180910390f35b34801561068b57600080fd5b5061077d600480360360808110156106a257600080fd5b81019080803567ffffffffffffffff169060200190929190803567ffffffffffffffff169060200190929190803563ffffffff169060200190929190803590602001906401000000008111156106f757600080fd5b82018360208201111561070957600080fd5b8035906020019184600183028401116401000000008311171561072b57600080fd5b91908080601f016020809104026020016040519081016040528093929190818152602001838380828437600081840152601f19601f820116905080830192505050505050509192919290505050611336565b005b34801561078b57600080fd5b506107946115dc565b005b3480156107a257600080fd5b506107e5600480360360208110156107b957600080fd5b81019080803573ffffffffffffffffffffffffffffffffffffffff1690602001909291905050506115e7565b6040518082815260200191505060405180910390f35b34801561080757600080fd5b5061084a6004803603602081101561081e57600080fd5b81019080803573ffffffffffffffffffffffffffffffffffffffff16906020019092919050505061162f565b005b34801561085857600080fd5b5061086161164f565b005b34801561086f57600080fd5b506109c06004803603604081101561088657600080fd5b81019080803590602001906401000000008111156108a357600080fd5b8201836020820111156108b557600080fd5b803590602001918460018302840111640100000000831117156108d757600080fd5b91908080601f016020809104026020016040519081016040528093929190818152602001838380828437600081840152601f19601f8201169050808301925050505050505091929192908035906020019064010000000081111561093a57600080fd5b82018360208201111561094c57600080fd5b8035906020019184600183028401116401000000008311171561096e57600080fd5b91908080601f016020809104026020016040519081016040528093929190818152602001838380828437600081840152601f19601f8201169050808301925050505050505091929192905050506116ff565b005b3480156109ce57600080fd5b506109d7611b81565b604051808215151515815260200191505060405180910390f35b3480156109fd57600080fd5b50610a06611c75565b6040518080602001828103825283818151815260200191508051906020019080838360005b83811015610a46578082015181840152602081019050610a2b565b50505050905090810190601f168015610a735780820380516001836020036101000a031916815260200191505b509250505060405180910390f35b348015610a8d57600080fd5b50610ada60048036036040811015610aa457600080fd5b81019080803573ffffffffffffffffffffffffffffffffffffffff16906020019092919080359060200190929190505050611d17565b604051808215151515815260200191505060405180910390f35b348015610b0057600080fd5b50610b4d60048036036040811015610b1757600080fd5b81019080803573ffffffffffffffffffffffffffffffffffffffff16906020019092919080359060200190929190505050611dd7565b604051808215151515815260200191505060405180910390f35b348015610b7357600080fd5b50610c5760048036036060811015610b8a57600080fd5b81019080803573ffffffffffffffffffffffffffffffffffffffff1690602001909291908035906020019092919080359060200190640100000000811115610bd157600080fd5b820183602082011115610be357600080fd5b80359060200191846001830284011164010000000083111715610c0557600080fd5b91908080601f016020809104026020016040519081016040528093929190818152602001838380828437600081840152601f19601f820116905080830192505050505050509192919290505050612e87565b005b348015610c6557600080fd5b50610c9260048036036020811015610c7c57600080fd5b8101908080359060200190929190505050612f45565b604051808215151515815260200191505060405180910390f35b348015610cb857600080fd5b50610d1b60048036036040811015610ccf57600080fd5b81019080803573ffffffffffffffffffffffffffffffffffffffff169060200190929190803573ffffffffffffffffffffffffffffffffffffffff169060200190929190505050613032565b6040518082815260200191505060405180910390f35b606060058054600181600116156101000203166002900480601f016020809104026020016040519081016040528092919081815260200182805460018160011615610100020316600290048015610dc95780601f10610d9e57610100808354040283529160200191610dc9565b820191906000526020600020905b815481529060010190602001808311610dac57829003601f168201915b5050505050905090565b6000600460009054906101000a900460ff16151515610df157600080fd5b60001515610e67576040517f08c379a000000000000000000000000000000000000000000000000000000000815260040180806020018281038252601c8152602001807f556e737570706f72746564206d6574686f64202d20617070726f76650000000081525060200191505060405180910390fd5b92915050565b6000600854905090565b610e7f611b81565b1515610e8a57600080fd5b610e9483836130b9565b7f0ef351a22e7f7e0df9ea85d91ccca6ea50ed3c91242e3b79c81ec71e36848a1b816040518080602001828103825283818151815260200191508051906020019080838360005b83811015610ef6578082015181840152602081019050610edb565b50505050905090810190601f168015610f235780820380516001836020036101000a031916815260200191505b509250505060405180910390a1505050565b600460009054906101000a900460ff16151515610f5157600080fd5b600960009054906101000a900473ffffffffffffffffffffffffffffffffffffffff1673ffffffffffffffffffffffffffffffffffffffff166316755065858585856040518563ffffffff167c0100000000000000000000000000000000000000000000000000000000028152600401808567ffffffffffffffff1667ffffffffffffffff1681526020018467ffffffffffffffff1667ffffffffffffffff1681526020018363ffffffff1663ffffffff16815260200180602001828103825283818151815260200191508051906020019080838360005b83811015611044578082015181840152602081019050611029565b50505050905090810190601f1680156110715780820380516001836020036101000a031916815260200191505b5095505050505050600060405180830381600087803b15801561109357600080fd5b505af11580156110a7573d6000803e3d6000fd5b5050505050505050565b6000600254905090565b6000600460009054906101000a900460ff161515156110d957600080fd5b60001515611175576040517f08c379a00000000000000000000000000000000000000000000000000000000081526004018080602001828103825260218152602001807f556e737570706f72746564206d6574686f64202d207472616e7366657246726f81526020017f6d0000000000000000000000000000000000000000000000000000000000000081525060400191505060405180910390fd5b9392505050565b6000600760009054906101000a900460ff16905090565b6000600460009054906101000a900460ff161515156111b157600080fd5b6000151561124d576040517f08c379a00000000000000000000000000000000000000000000000000000000081526004018080602001828103825260268152602001807f556e737570706f72746564206d6574686f64202d20696e637265617365416c6c81526020017f6f77616e6365000000000000000000000000000000000000000000000000000081525060400191505060405180910390fd5b92915050565b61125c33611302565b151561126757600080fd5b600460009054906101000a900460ff16151561128257600080fd5b6000600460006101000a81548160ff0219169083151502179055507f5db9ee0a495bf2e6ff9c91a7834c1ba4fdd244a5e8aa4e537bd38aeae4b073aa33604051808273ffffffffffffffffffffffffffffffffffffffff1673ffffffffffffffffffffffffffffffffffffffff16815260200191505060405180910390a1565b600061131882600361320d90919063ffffffff16565b9050919050565b6000600460009054906101000a900460ff16905090565b600460009054906101000a900460ff1615151561135257600080fd5b6000600960009054906101000a900473ffffffffffffffffffffffffffffffffffffffff1673ffffffffffffffffffffffffffffffffffffffff16633933384986866040518363ffffffff167c0100000000000000000000000000000000000000000000000000000000028152600401808367ffffffffffffffff1667ffffffffffffffff1681526020018267ffffffffffffffff1667ffffffffffffffff1681526020019250505060206040518083038186803b15801561141357600080fd5b505afa158015611427573d6000803e3d6000fd5b505050506040513d602081101561143d57600080fd5b810190808051906020019092919050505090506000339050600960009054906101000a900473ffffffffffffffffffffffffffffffffffffffff1673ffffffffffffffffffffffffffffffffffffffff16635e096cef878787876040518563ffffffff167c0100000000000000000000000000000000000000000000000000000000028152600401808567ffffffffffffffff1667ffffffffffffffff1681526020018467ffffffffffffffff1667ffffffffffffffff1681526020018363ffffffff1663ffffffff16815260200180602001828103825283818151815260200191508051906020019080838360005b8381101561154857808201518184015260208101905061152d565b50505050905090810190601f1680156115755780820380516001836020036101000a031916815260200191505b5095505050505050600060405180830381600087803b15801561159757600080fd5b505af11580156115ab573d6000803e3d6000fd5b5050505060006115ba836115e7565b11156115d4576115d382826115ce856115e7565b6132a1565b5b505050505050565b6115e53361346d565b565b60008060008373ffffffffffffffffffffffffffffffffffffffff1673ffffffffffffffffffffffffffffffffffffffff168152602001908152602001600020549050919050565b61163833611302565b151561164357600080fd5b61164c816134c7565b50565b61165833611302565b151561166357600080fd5b600460009054906101000a900460ff1615151561167f57600080fd5b6001600460006101000a81548160ff0219169083151502179055507f62e78cea01bee320cd4e420270b5ea74000d11b0c9f74754ebdbfc544b05a25833604051808273ffffffffffffffffffffffffffffffffffffffff1673ffffffffffffffffffffffffffffffffffffffff16815260200191505060405180910390a1565b600460009054906101000a900460ff1615151561171b57600080fd5b600960009054906101000a900473ffffffffffffffffffffffffffffffffffffffff1673ffffffffffffffffffffffffffffffffffffffff166385fecf9b336040518263ffffffff167c0100000000000000000000000000000000000000000000000000000000028152600401808273ffffffffffffffffffffffffffffffffffffffff1673ffffffffffffffffffffffffffffffffffffffff16815260200191505060206040518083038186803b1580156117d657600080fd5b505afa1580156117ea573d6000803e3d6000fd5b505050506040513d602081101561180057600080fd5b810190808051906020019092919050505015156118d1576040517f08c379a00000000000000000000000000000000000000000000000000000000081526004018080602001828103825260548152602001807f41206c697175696461c3a7c3a36f2073c3b3206ec3a36f20706f64652073657281526020017f207265616c697a6164612070656c6f20656e64657265c3a76f2071756520737581526020017f626d657465752061207472616e7361c3a7c3a36f00000000000000000000000081525060600191505060405180910390fd5b600960009054906101000a900473ffffffffffffffffffffffffffffffffffffffff1673ffffffffffffffffffffffffffffffffffffffff16636edcb12f826040518263ffffffff167c01000000000000000000000000000000000000000000000000000000000281526004018080602001828103825283818151815260200191508051906020019080838360005b8381101561197b578082015181840152602081019050611960565b50505050905090810190601f1680156119a85780820380516001836020036101000a031916815260200191505b509250505060206040518083038186803b1580156119c557600080fd5b505afa1580156119d9573d6000803e3d6000fd5b505050506040513d60208110156119ef57600080fd5b81019080805190602001909291905050501515611a74576040517f08c379a000000000000000000000000000000000000000000000000000000000815260040180806020018281038252601d8152602001807f4f206861736820646f2072656369626f20c3a920696e76c3a16c69646f00000081525060200191505060405180910390fd5b7fa86b2b0d4d5df6e286898ddbf13f59ded7b39986717378878be628b878baa4b58282604051808060200180602001838103835285818151815260200191508051906020019080838360005b83811015611adb578082015181840152602081019050611ac0565b50505050905090810190601f168015611b085780820380516001836020036101000a031916815260200191505b50838103825284818151815260200191508051906020019080838360005b83811015611b41578082015181840152602081019050611b26565b50505050905090810190601f168015611b6e5780820380516001836020036101000a031916815260200191505b5094505050505060405180910390a15050565b60003373ffffffffffffffffffffffffffffffffffffffff16600960009054906101000a900473ffffffffffffffffffffffffffffffffffffffff1673ffffffffffffffffffffffffffffffffffffffff16638da5cb5b6040518163ffffffff167c010000000000000000000000000000000000000000000000000000000002815260040160206040518083038186803b158015611c1e57600080fd5b505afa158015611c32573d6000803e3d6000fd5b505050506040513d6020811015611c4857600080fd5b810190808051906020019092919050505073ffffffffffffffffffffffffffffffffffffffff1614905090565b606060068054600181600116156101000203166002900480601f016020809104026020016040519081016040528092919081815260200182805460018160011615610100020316600290048015611d0d5780601f10611ce257610100808354040283529160200191611d0d565b820191906000526020600020905b815481529060010190602001808311611cf057829003601f168201915b5050505050905090565b6000600460009054906101000a900460ff16151515611d3557600080fd5b60001515611dd1576040517f08c379a00000000000000000000000000000000000000000000000000000000081526004018080602001828103825260268152602001807f556e737570706f72746564206d6574686f64202d206465637265617365416c6c81526020017f6f77616e6365000000000000000000000000000000000000000000000000000081525060400191505060405180910390fd5b92915050565b6000600460009054906101000a900460ff16151515611df557600080fd5b60003390508373ffffffffffffffffffffffffffffffffffffffff168173ffffffffffffffffffffffffffffffffffffffff1614151515611ec4576040517f08c379a00000000000000000000000000000000000000000000000000000000081526004018080602001828103825260288152602001807f4ec3a36f20706f6465207472616e73666572697220746f6b656e20706172612081526020017f7369206d65736d6f00000000000000000000000000000000000000000000000081525060400191505060405180910390fd5b600960009054906101000a900473ffffffffffffffffffffffffffffffffffffffff1673ffffffffffffffffffffffffffffffffffffffff16634add3110826040518263ffffffff167c0100000000000000000000000000000000000000000000000000000000028152600401808273ffffffffffffffffffffffffffffffffffffffff1673ffffffffffffffffffffffffffffffffffffffff16815260200191505060206040518083038186803b158015611f7f57600080fd5b505afa158015611f93573d6000803e3d6000fd5b505050506040513d6020811015611fa957600080fd5b8101908080519060200190929190505050156123b757600960009054906101000a900473ffffffffffffffffffffffffffffffffffffffff1673ffffffffffffffffffffffffffffffffffffffff1663c01ed210856040518263ffffffff167c0100000000000000000000000000000000000000000000000000000000028152600401808273ffffffffffffffffffffffffffffffffffffffff1673ffffffffffffffffffffffffffffffffffffffff16815260200191505060206040518083038186803b15801561207a57600080fd5b505afa15801561208e573d6000803e3d6000fd5b505050506040513d60208110156120a457600080fd5b8101908080519060200190929190505050151561214f576040517f08c379a000000000000000000000000000000000000000000000000000000000815260040180806020018281038252603d8152602001807f4f20656e64657265c3a76f206ec3a36f2070657274656e6365206120756d206381526020017f6c69656e7465206f75206ec3a36f20657374c3a12076616c696461646100000081525060400191505060405180910390fd5b6121598484613521565b7f7fa74a4a3409ff0d3bc5b9559d578e925d0c775fe818d2fab1b9482aeefcabd5600960009054906101000a900473ffffffffffffffffffffffffffffffffffffffff1673ffffffffffffffffffffffffffffffffffffffff1663be49b78d866040518263ffffffff167c0100000000000000000000000000000000000000000000000000000000028152600401808273ffffffffffffffffffffffffffffffffffffffff1673ffffffffffffffffffffffffffffffffffffffff16815260200191505060206040518083038186803b15801561223557600080fd5b505afa158015612249573d6000803e3d6000fd5b505050506040513d602081101561225f57600080fd5b8101908080519060200190929190505050600960009054906101000a900473ffffffffffffffffffffffffffffffffffffffff1673ffffffffffffffffffffffffffffffffffffffff1663876c6e9b876040518263ffffffff167c0100000000000000000000000000000000000000000000000000000000028152600401808273ffffffffffffffffffffffffffffffffffffffff1673ffffffffffffffffffffffffffffffffffffffff16815260200191505060206040518083038186803b15801561232b57600080fd5b505afa15801561233f573d6000803e3d6000fd5b505050506040513d602081101561235557600080fd5b810190808051906020019092919050505085604051808467ffffffffffffffff1667ffffffffffffffff1681526020018367ffffffffffffffff1667ffffffffffffffff168152602001828152602001935050505060405180910390a1612e7c565b600960009054906101000a900473ffffffffffffffffffffffffffffffffffffffff1673ffffffffffffffffffffffffffffffffffffffff16637943653d856040518263ffffffff167c0100000000000000000000000000000000000000000000000000000000028152600401808273ffffffffffffffffffffffffffffffffffffffff1673ffffffffffffffffffffffffffffffffffffffff16815260200191505060206040518083038186803b15801561247257600080fd5b505afa158015612486573d6000803e3d6000fd5b505050506040513d602081101561249c57600080fd5b8101908080519060200190929190505050156127bf57600960009054906101000a900473ffffffffffffffffffffffffffffffffffffffff1673ffffffffffffffffffffffffffffffffffffffff1663348da3f2826040518263ffffffff167c0100000000000000000000000000000000000000000000000000000000028152600401808273ffffffffffffffffffffffffffffffffffffffff1673ffffffffffffffffffffffffffffffffffffffff16815260200191505060206040518083038186803b15801561256d57600080fd5b505afa158015612581573d6000803e3d6000fd5b505050506040513d602081101561259757600080fd5b81019080805190602001909291905050501515612668576040517f08c379a00000000000000000000000000000000000000000000000000000000081526004018080602001828103825260498152602001807f4120636f6e746120646f20656e64657265c3a76f206ec3a36f2070657274656e81526020017f6365206120756d20666f726e656365646f72206f75206ec3a36f20657374c3a181526020017f2076616c6964616461000000000000000000000000000000000000000000000081525060600191505060405180910390fd5b61267281846130b9565b7fed4f509ceb9443ee5dcf7e7b74b70d2f3b58785f04ab4a82237af07c28fb961d600960009054906101000a900473ffffffffffffffffffffffffffffffffffffffff1673ffffffffffffffffffffffffffffffffffffffff1663be49b78d836040518263ffffffff167c0100000000000000000000000000000000000000000000000000000000028152600401808273ffffffffffffffffffffffffffffffffffffffff1673ffffffffffffffffffffffffffffffffffffffff16815260200191505060206040518083038186803b15801561274e57600080fd5b505afa158015612762573d6000803e3d6000fd5b505050506040513d602081101561277857600080fd5b810190808051906020019092919050505084604051808367ffffffffffffffff1667ffffffffffffffff1681526020018281526020019250505060405180910390a1612e7b565b600960009054906101000a900473ffffffffffffffffffffffffffffffffffffffff1673ffffffffffffffffffffffffffffffffffffffff1663c01ed210826040518263ffffffff167c0100000000000000000000000000000000000000000000000000000000028152600401808273ffffffffffffffffffffffffffffffffffffffff1673ffffffffffffffffffffffffffffffffffffffff16815260200191505060206040518083038186803b15801561287a57600080fd5b505afa15801561288e573d6000803e3d6000fd5b505050506040513d60208110156128a457600080fd5b8101908080519060200190929190505050151561294f576040517f08c379a000000000000000000000000000000000000000000000000000000000815260040180806020018281038252603d8152602001807f4f20656e64657265c3a76f206ec3a36f2070657274656e6365206120756d206381526020017f6c69656e7465206f75206ec3a36f20657374c3a12076616c696461646100000081525060400191505060405180910390fd5b600960009054906101000a900473ffffffffffffffffffffffffffffffffffffffff1673ffffffffffffffffffffffffffffffffffffffff1663348da3f2856040518263ffffffff167c0100000000000000000000000000000000000000000000000000000000028152600401808273ffffffffffffffffffffffffffffffffffffffff1673ffffffffffffffffffffffffffffffffffffffff16815260200191505060206040518083038186803b158015612a0a57600080fd5b505afa158015612a1e573d6000803e3d6000fd5b505050506040513d6020811015612a3457600080fd5b81019080805190602001909291905050501515612b05576040517f08c379a00000000000000000000000000000000000000000000000000000000081526004018080602001828103825260498152602001807f4120636f6e746120646f20656e64657265c3a76f206ec3a36f2070657274656e81526020017f6365206120756d20666f726e656365646f72206f75206ec3a36f20657374c3a181526020017f2076616c6964616461000000000000000000000000000000000000000000000081525060600191505060405180910390fd5b612b103385856132a1565b7fac6acaf5da807133c780784f15d8de810654df0be7da578e595c5534970a1ca7600960009054906101000a900473ffffffffffffffffffffffffffffffffffffffff1673ffffffffffffffffffffffffffffffffffffffff1663be49b78d836040518263ffffffff167c0100000000000000000000000000000000000000000000000000000000028152600401808273ffffffffffffffffffffffffffffffffffffffff1673ffffffffffffffffffffffffffffffffffffffff16815260200191505060206040518083038186803b158015612bec57600080fd5b505afa158015612c00573d6000803e3d6000fd5b505050506040513d6020811015612c1657600080fd5b8101908080519060200190929190505050600960009054906101000a900473ffffffffffffffffffffffffffffffffffffffff1673ffffffffffffffffffffffffffffffffffffffff1663876c6e9b846040518263ffffffff167c0100000000000000000000000000000000000000000000000000000000028152600401808273ffffffffffffffffffffffffffffffffffffffff1673ffffffffffffffffffffffffffffffffffffffff16815260200191505060206040518083038186803b158015612ce257600080fd5b505afa158015612cf6573d6000803e3d6000fd5b505050506040513d6020811015612d0c57600080fd5b8101908080519060200190929190505050600960009054906101000a900473ffffffffffffffffffffffffffffffffffffffff1673ffffffffffffffffffffffffffffffffffffffff1663be49b78d886040518263ffffffff167c0100000000000000000000000000000000000000000000000000000000028152600401808273ffffffffffffffffffffffffffffffffffffffff1673ffffffffffffffffffffffffffffffffffffffff16815260200191505060206040518083038186803b158015612dd857600080fd5b505afa158015612dec573d6000803e3d6000fd5b505050506040513d6020811015612e0257600080fd5b810190808051906020019092919050505086604051808567ffffffffffffffff1667ffffffffffffffff1681526020018467ffffffffffffffff1667ffffffffffffffff1681526020018367ffffffffffffffff1667ffffffffffffffff16815260200182815260200194505050505060405180910390a15b5b600191505092915050565b612e8f611b81565b1515612e9a57600080fd5b612ea48383613521565b7f0ef351a22e7f7e0df9ea85d91ccca6ea50ed3c91242e3b79c81ec71e36848a1b816040518080602001828103825283818151815260200191508051906020019080838360005b83811015612f06578082015181840152602081019050612eeb565b50505050905090810190601f168015612f335780820380516001836020036101000a031916815260200191505b509250505060405180910390a1505050565b6000600460009054906101000a900460ff16151515612f6357600080fd5b61302b600960009054906101000a900473ffffffffffffffffffffffffffffffffffffffff1673ffffffffffffffffffffffffffffffffffffffff166379b8369e6040518163ffffffff167c010000000000000000000000000000000000000000000000000000000002815260040160206040518083038186803b158015612fea57600080fd5b505afa158015612ffe573d6000803e3d6000fd5b505050506040513d602081101561301457600080fd5b810190808051906020019092919050505083611dd7565b9050919050565b6000600160008473ffffffffffffffffffffffffffffffffffffffff1673ffffffffffffffffffffffffffffffffffffffff16815260200190815260200160002060008373ffffffffffffffffffffffffffffffffffffffff1673ffffffffffffffffffffffffffffffffffffffff16815260200190815260200160002054905092915050565b600073ffffffffffffffffffffffffffffffffffffffff168273ffffffffffffffffffffffffffffffffffffffff16141515156130f557600080fd5b61310a8160025461367590919063ffffffff16565b600281905550613161816000808573ffffffffffffffffffffffffffffffffffffffff1673ffffffffffffffffffffffffffffffffffffffff1681526020019081526020016000205461367590919063ffffffff16565b6000808473ffffffffffffffffffffffffffffffffffffffff1673ffffffffffffffffffffffffffffffffffffffff16815260200190815260200160002081905550600073ffffffffffffffffffffffffffffffffffffffff168273ffffffffffffffffffffffffffffffffffffffff167fddf252ad1be2c89b69c2b068fc378daa952ba7f163c4a11628f55a4df523b3ef836040518082815260200191505060405180910390a35050565b60008073ffffffffffffffffffffffffffffffffffffffff168273ffffffffffffffffffffffffffffffffffffffff161415151561324a57600080fd5b8260000160008373ffffffffffffffffffffffffffffffffffffffff1673ffffffffffffffffffffffffffffffffffffffff16815260200190815260200160002060009054906101000a900460ff16905092915050565b600073ffffffffffffffffffffffffffffffffffffffff168273ffffffffffffffffffffffffffffffffffffffff16141515156132dd57600080fd5b61332e816000808673ffffffffffffffffffffffffffffffffffffffff1673ffffffffffffffffffffffffffffffffffffffff1681526020019081526020016000205461367590919063ffffffff16565b6000808573ffffffffffffffffffffffffffffffffffffffff1673ffffffffffffffffffffffffffffffffffffffff168152602001908152602001600020819055506133c1816000808573ffffffffffffffffffffffffffffffffffffffff1673ffffffffffffffffffffffffffffffffffffffff1681526020019081526020016000205461369790919063ffffffff16565b6000808473ffffffffffffffffffffffffffffffffffffffff1673ffffffffffffffffffffffffffffffffffffffff168152602001908152602001600020819055508173ffffffffffffffffffffffffffffffffffffffff168373ffffffffffffffffffffffffffffffffffffffff167fddf252ad1be2c89b69c2b068fc378daa952ba7f163c4a11628f55a4df523b3ef836040518082815260200191505060405180910390a3505050565b6134818160036136b890919063ffffffff16565b8073ffffffffffffffffffffffffffffffffffffffff167fcd265ebaf09df2871cc7bd4133404a235ba12eff2041bb89d9c714a2621c7c7e60405160405180910390a250565b6134db81600361376790919063ffffffff16565b8073ffffffffffffffffffffffffffffffffffffffff167f6719d08c1888103bea251a4ed56406bd0c3e69723c8a1686e017e7bbe159b6f860405160405180910390a250565b600073ffffffffffffffffffffffffffffffffffffffff168273ffffffffffffffffffffffffffffffffffffffff161415151561355d57600080fd5b6135728160025461369790919063ffffffff16565b6002819055506135c9816000808573ffffffffffffffffffffffffffffffffffffffff1673ffffffffffffffffffffffffffffffffffffffff1681526020019081526020016000205461369790919063ffffffff16565b6000808473ffffffffffffffffffffffffffffffffffffffff1673ffffffffffffffffffffffffffffffffffffffff168152602001908152602001600020819055508173ffffffffffffffffffffffffffffffffffffffff16600073ffffffffffffffffffffffffffffffffffffffff167fddf252ad1be2c89b69c2b068fc378daa952ba7f163c4a11628f55a4df523b3ef836040518082815260200191505060405180910390a35050565b600082821115151561368657600080fd5b600082840390508091505092915050565b60008082840190508381101515156136ae57600080fd5b8091505092915050565b600073ffffffffffffffffffffffffffffffffffffffff168173ffffffffffffffffffffffffffffffffffffffff16141515156136f457600080fd5b6136fe828261320d565b151561370957600080fd5b60008260000160008373ffffffffffffffffffffffffffffffffffffffff1673ffffffffffffffffffffffffffffffffffffffff16815260200190815260200160002060006101000a81548160ff0219169083151502179055505050565b600073ffffffffffffffffffffffffffffffffffffffff168173ffffffffffffffffffffffffffffffffffffffff16141515156137a357600080fd5b6137ad828261320d565b1515156137b957600080fd5b60018260000160008373ffffffffffffffffffffffffffffffffffffffff1673ffffffffffffffffffffffffffffffffffffffff16815260200190815260200160002060006101000a81548160ff021916908315150217905550505056fea165627a7a7230582058e0a5882eaeb5b2aecdcc0497dc2d0b8d302e9bc8e49734f2a100766026ff9e0029",
  "source": "pragma solidity ^0.5.0;\r\n\r\nimport \"openzeppelin-solidity/contracts/token/ERC20/ERC20Pausable.sol\";\r\nimport \"openzeppelin-solidity/contracts/token/ERC20/ERC20Detailed.sol\";\r\nimport \"./BNDESRegistry.sol\";\r\n\r\n\r\ncontract BNDESToken is ERC20Pausable, ERC20Detailed(\"BNDESToken\", \"BND\", 2) {\r\n\r\n    uint private version = 20190517;\r\n\r\n    BNDESRegistry registry;\r\n\r\n    event BNDESTokenDisbursement(uint64 cnpj, uint64 idFinancialSupportAgreement, uint256 value);\r\n    event BNDESTokenTransfer(uint64 fromCnpj, uint64 fromIdFinancialSupportAgreement, uint64 toCnpj, uint256 value);\r\n    event BNDESTokenRedemption(uint64 cnpj, uint256 value);\r\n    event BNDESTokenRedemptionSettlement(string redemptionTransactionHash, string receiptHash);\r\n    event BNDESManualIntervention(string description);\r\n\r\n    /**\r\n     * @dev Throws if called by any account other than the owner.\r\n     */\r\n    modifier onlyOwner() {\r\n        require(isOwner());\r\n        _;\r\n    }\r\n\r\n    constructor (address newRegistryAddr) public {\r\n        registry = BNDESRegistry(newRegistryAddr);\r\n    }\r\n\r\n\r\n    function getVersion() view public returns (uint) {\r\n        return version;\r\n    }\r\n\r\n\r\n   /**\r\n    * The transfer funcion follows ERC20 token signature. \r\n    * Using them, it is possible to disburse money to the client, transfer from client to supplier and redeem.\r\n    * @param to the Ethereum address to where the money should be sent\r\n    * @param value how much BNDESToken the supplier wants to redeem\r\n    */\r\n    function transfer (address to, uint256 value) public whenNotPaused returns (bool) {\r\n\r\n        address from = msg.sender;\r\n\r\n        require(from != to, \"No pode transferir token para si mesmo\");\r\n\r\n        if (registry.isResponsibleForDisbursement(from)) {\r\n\r\n            require(registry.isValidatedClient(to), \"O endereo no pertence a um cliente ou no est validada\");\r\n\r\n            _mint(to, value);\r\n\r\n            emit BNDESTokenDisbursement(registry.getCNPJ(to), registry.getIdLegalFinancialAgreement(to), value);\r\n\r\n        } else { \r\n\r\n            if (registry.isRedemptionAddress(to)) { \r\n\r\n                require(registry.isValidatedSupplier(from), \"A conta do endereo no pertence a um fornecedor ou no est validada\");\r\n\r\n                _burn(from, value);\r\n\r\n                emit BNDESTokenRedemption(registry.getCNPJ(from), value);\r\n\r\n            } else {\r\n\r\n                // Se nem from nem to so o Banco, eh transferencia normal\r\n\r\n                require(registry.isValidatedClient(from), \"O endereo no pertence a um cliente ou no est validada\");\r\n                require(registry.isValidatedSupplier(to), \"A conta do endereo no pertence a um fornecedor ou no est validada\");\r\n\r\n                _transfer(msg.sender, to, value);\r\n\r\n                emit BNDESTokenTransfer(registry.getCNPJ(from), registry.getIdLegalFinancialAgreement(from), \r\n                                registry.getCNPJ(to), value);\r\n  \r\n            }\r\n        }\r\n\r\n        return true;\r\n    }\r\n\r\n   /**\r\n    * When redeeming, the supplier indicated to the Resposible for Settlement that he wants to receive \r\n    * the FIAT money.\r\n    * @param value - how much BNDESToken the supplier wants to redeem\r\n    */\r\n    function redeem (uint256 value) public whenNotPaused returns (bool) {\r\n        return transfer(registry.getRedemptionAddress(), value);\r\n    }\r\n\r\n   /**\r\n    * Using this function, the Responsible for Settlement indicates that he has made the FIAT money transfer.\r\n    * @param redemptionTransactionHash hash of the redeem transaction in which the FIAT money settlement occurred.\r\n    * @param receiptHash hash that proof the FIAT money transfer\r\n    */\r\n    function notifyRedemptionSettlement(string memory redemptionTransactionHash, string memory receiptHash) \r\n        public whenNotPaused {\r\n        require (registry.isResponsibleForSettlement(msg.sender), \"A liquidao s no pode ser realizada pelo endereo que submeteu a transao\"); \r\n        require (registry.isValidHash(receiptHash), \"O hash do recibo  invlido\");\r\n        emit BNDESTokenRedemptionSettlement(redemptionTransactionHash, receiptHash);\r\n    }\r\n\r\n\r\n    function registryLegalEntity(uint64 cnpj, uint64 idFinancialSupportAgreement, uint32 salic, string memory idProofHash) \r\n        public whenNotPaused { \r\n        registry.registryLegalEntity(cnpj,  idFinancialSupportAgreement,  salic, idProofHash);\r\n    }\r\n\r\n   /**\r\n    * Changes the original link between CNPJ and Ethereum account. \r\n    * The new link still needs to be validated by BNDES.\r\n    * IMPORTANT: The BNDESTOKENs are transfered from the original to the new Ethereum address \r\n    * @param cnpj Brazilian identifier to legal entities\r\n    * @param idFinancialSupportAgreement contract number of financial contract with BNDES. It assumes 0 if it is a supplier.\r\n    * @param salic contract number of financial contract with ANCINE. It assumes 0 if it is a supplier.\r\n    * @param idProofHash The legal entities have to send BNDES a PDF where it assumes as responsible for an Ethereum account. \r\n    *                   This PDF is signed with eCNPJ and send to BNDES. \r\n    */\r\n    function changeAccountLegalEntity(uint64 cnpj, uint64 idFinancialSupportAgreement, uint32 salic, string memory idProofHash) \r\n        public whenNotPaused {\r\n        \r\n        address oldAddr = registry.getBlockchainAccount(cnpj, idFinancialSupportAgreement);\r\n        address newAddr = msg.sender;\r\n        \r\n        registry.changeAccountLegalEntity(cnpj, idFinancialSupportAgreement, salic, idProofHash);\r\n\r\n        // Se h saldo no enderecoAntigo, precisa transferir\r\n        if (balanceOf(oldAddr) > 0) {\r\n            _transfer(oldAddr, newAddr, balanceOf(oldAddr));\r\n        }\r\n\r\n    }\r\n\r\n    //These methods may be necessary to solve incidents.\r\n    function burn(address from, uint256 value, string memory description) public onlyOwner {\r\n        _burn(from, value);\r\n        emit BNDESManualIntervention(description);        \r\n    }\r\n\r\n    //These methods may be necessary to solve incidents.\r\n    function mint(address to, uint256 value, string memory description) public onlyOwner {\r\n        _mint(to, value);\r\n        emit BNDESManualIntervention(description);        \r\n    }\r\n\r\n    function isOwner() public view returns (bool) {\r\n        return registry.owner() == msg.sender;\r\n    } \r\n\r\n    //Unsupported methods - created to avoid call the lib functions by overriding them\r\n    function transferFrom(address from, address to, uint256 value) public whenNotPaused returns (bool) {\r\n        require(false, \"Unsupported method - transferFrom\");\r\n    }\r\n\r\n    //Unsupported methods - created to avoid call the lib functions by overriding them\r\n    function approve(address spender, uint256 value) public whenNotPaused returns (bool) {\r\n        require(false, \"Unsupported method - approve\");\r\n    }\r\n\r\n    //Unsupported methods - created to avoid call the lib functions by overriding them\r\n    function increaseAllowance(address spender, uint addedValue) public whenNotPaused returns (bool success) {\r\n        require(false, \"Unsupported method - increaseAllowance\");\r\n    }\r\n\r\n    //Unsupported methods - created to avoid call the lib functions by overriding them\r\n    function decreaseAllowance(address spender, uint subtractedValue) public whenNotPaused returns (bool success) {\r\n        require(false, \"Unsupported method - decreaseAllowance\");\r\n    }\r\n\r\n\r\n\r\n}",
  "sourcePath": "D:/Workspace/bndestoken/Back-Blockchain/contracts/BNDESToken.sol",
  "compiler": {
    "name": "solc",
    "version": "0.5.0+commit.1d4f565a.Emscripten.clang"
  },
  "schemaVersion": "3.0.5",
  "updatedAt": "2019-06-17T23:17:36.247Z",
  "devdoc": {
    "methods": {
      "allowance(address,address)": {
        "details": "Function to check the amount of tokens that an owner allowed to a spender.",
        "params": {
          "owner": "address The address which owns the funds.",
          "spender": "address The address which will spend the funds."
        },
        "return": "A uint256 specifying the amount of tokens still available for the spender."
      },
      "balanceOf(address)": {
        "details": "Gets the balance of the specified address.",
        "params": {
          "owner": "The address to query the balance of."
        },
        "return": "An uint256 representing the amount owned by the passed address."
      },
      "changeAccountLegalEntity(uint64,uint64,uint32,string)": {
        "params": {
          "cnpj": "Brazilian identifier to legal entities\r",
          "idFinancialSupportAgreement": "contract number of financial contract with BNDES. It assumes 0 if it is a supplier.\r",
          "idProofHash": "The legal entities have to send BNDES a PDF where it assumes as responsible for an Ethereum account. \r                  This PDF is signed with eCNPJ and send to BNDES. \r",
          "salic": "contract number of financial contract with ANCINE. It assumes 0 if it is a supplier.\r"
        }
      },
      "decimals()": {
        "return": "the number of decimals of the token."
      },
      "name()": {
        "return": "the name of the token."
      },
      "notifyRedemptionSettlement(string,string)": {
        "params": {
          "receiptHash": "hash that proof the FIAT money transfer\r",
          "redemptionTransactionHash": "hash of the redeem transaction in which the FIAT money settlement occurred.\r"
        }
      },
      "pause()": {
        "details": "called by the owner to pause, triggers stopped state"
      },
      "paused()": {
        "return": "true if the contract is paused, false otherwise."
      },
      "redeem(uint256)": {
        "params": {
          "value": "- how much BNDESToken the supplier wants to redeem\r"
        }
      },
      "symbol()": {
        "return": "the symbol of the token."
      },
      "totalSupply()": {
        "details": "Total number of tokens in existence"
      },
      "transfer(address,uint256)": {
        "params": {
          "to": "the Ethereum address to where the money should be sent\r",
          "value": "how much BNDESToken the supplier wants to redeem\r"
        }
      },
      "unpause()": {
        "details": "called by the owner to unpause, returns to normal state"
      }
    }
  },
  "userdoc": {
    "methods": {
      "changeAccountLegalEntity(uint64,uint64,uint32,string)": {
        "notice": "Changes the original link between CNPJ and Ethereum account. \r The new link still needs to be validated by BNDES.\r IMPORTANT: The BNDESTOKENs are transfered from the original to the new Ethereum address \r"
      },
      "notifyRedemptionSettlement(string,string)": {
        "notice": "Using this function, the Responsible for Settlement indicates that he has made the FIAT money transfer.\r"
      },
      "redeem(uint256)": {
        "notice": "When redeeming, the supplier indicated to the Resposible for Settlement that he wants to receive \r the FIAT money.\r"
      },
      "transfer(address,uint256)": {
        "notice": "The transfer funcion follows ERC20 token signature. \r Using them, it is possible to disburse money to the client, transfer from client to supplier and redeem.\r"
      }
    }
  }
}