{
  "contractName": "BNDESToken",
  "abi": [
    {
      "constant": true,
      "inputs": [],
      "name": "name",
      "outputs": [
        {
          "name": "",
          "type": "string"
        }
      ],
      "payable": false,
      "stateMutability": "view",
      "type": "function"
    },
    {
      "constant": true,
      "inputs": [
        {
          "name": "addr",
          "type": "address"
        }
      ],
      "name": "isWaitingValidationAccount",
      "outputs": [
        {
          "name": "",
          "type": "bool"
        }
      ],
      "payable": false,
      "stateMutability": "view",
      "type": "function"
    },
    {
      "constant": true,
      "inputs": [],
      "name": "totalSupply",
      "outputs": [
        {
          "name": "",
          "type": "uint256"
        }
      ],
      "payable": false,
      "stateMutability": "view",
      "type": "function"
    },
    {
      "constant": true,
      "inputs": [
        {
          "name": "addr",
          "type": "address"
        }
      ],
      "name": "isReservedAccount",
      "outputs": [
        {
          "name": "",
          "type": "bool"
        }
      ],
      "payable": false,
      "stateMutability": "view",
      "type": "function"
    },
    {
      "constant": true,
      "inputs": [
        {
          "name": "",
          "type": "address"
        }
      ],
      "name": "legalEntitiesInfo",
      "outputs": [
        {
          "name": "cnpj",
          "type": "uint64"
        },
        {
          "name": "idFinancialSupportAgreement",
          "type": "uint64"
        },
        {
          "name": "salic",
          "type": "uint32"
        },
        {
          "name": "idProofHash",
          "type": "string"
        },
        {
          "name": "state",
          "type": "uint8"
        }
      ],
      "payable": false,
      "stateMutability": "view",
      "type": "function"
    },
    {
      "constant": true,
      "inputs": [
        {
          "name": "addr",
          "type": "address"
        }
      ],
      "name": "isOwner",
      "outputs": [
        {
          "name": "",
          "type": "bool"
        }
      ],
      "payable": false,
      "stateMutability": "view",
      "type": "function"
    },
    {
      "constant": true,
      "inputs": [],
      "name": "decimals",
      "outputs": [
        {
          "name": "",
          "type": "uint8"
        }
      ],
      "payable": false,
      "stateMutability": "view",
      "type": "function"
    },
    {
      "constant": true,
      "inputs": [
        {
          "name": "addr",
          "type": "address"
        }
      ],
      "name": "isValidatedSupplier",
      "outputs": [
        {
          "name": "",
          "type": "bool"
        }
      ],
      "payable": false,
      "stateMutability": "view",
      "type": "function"
    },
    {
      "constant": true,
      "inputs": [
        {
          "name": "cnpj",
          "type": "uint64"
        },
        {
          "name": "idFinancialSupportAgreement",
          "type": "uint64"
        }
      ],
      "name": "getBlockchainAccount",
      "outputs": [
        {
          "name": "",
          "type": "address"
        }
      ],
      "payable": false,
      "stateMutability": "view",
      "type": "function"
    },
    {
      "constant": true,
      "inputs": [
        {
          "name": "addr",
          "type": "address"
        }
      ],
      "name": "isResponsibleForRegistryValidation",
      "outputs": [
        {
          "name": "",
          "type": "bool"
        }
      ],
      "payable": false,
      "stateMutability": "view",
      "type": "function"
    },
    {
      "constant": false,
      "inputs": [
        {
          "name": "rs",
          "type": "address"
        }
      ],
      "name": "enableChangeAccount",
      "outputs": [],
      "payable": false,
      "stateMutability": "nonpayable",
      "type": "function"
    },
    {
      "constant": false,
      "inputs": [],
      "name": "unpause",
      "outputs": [],
      "payable": false,
      "stateMutability": "nonpayable",
      "type": "function"
    },
    {
      "constant": true,
      "inputs": [
        {
          "name": "rs",
          "type": "address"
        }
      ],
      "name": "isChangeAccountEnabled",
      "outputs": [
        {
          "name": "",
          "type": "bool"
        }
      ],
      "payable": false,
      "stateMutability": "view",
      "type": "function"
    },
    {
      "constant": true,
      "inputs": [
        {
          "name": "addr",
          "type": "address"
        }
      ],
      "name": "isSupplier",
      "outputs": [
        {
          "name": "",
          "type": "bool"
        }
      ],
      "payable": false,
      "stateMutability": "view",
      "type": "function"
    },
    {
      "constant": true,
      "inputs": [
        {
          "name": "account",
          "type": "address"
        }
      ],
      "name": "isPauser",
      "outputs": [
        {
          "name": "",
          "type": "bool"
        }
      ],
      "payable": false,
      "stateMutability": "view",
      "type": "function"
    },
    {
      "constant": true,
      "inputs": [
        {
          "name": "addr",
          "type": "address"
        }
      ],
      "name": "isResponsibleForDisbursement",
      "outputs": [
        {
          "name": "",
          "type": "bool"
        }
      ],
      "payable": false,
      "stateMutability": "view",
      "type": "function"
    },
    {
      "constant": true,
      "inputs": [
        {
          "name": "",
          "type": "address"
        }
      ],
      "name": "legalEntitiesChangeAccount",
      "outputs": [
        {
          "name": "",
          "type": "bool"
        }
      ],
      "payable": false,
      "stateMutability": "view",
      "type": "function"
    },
    {
      "constant": true,
      "inputs": [],
      "name": "getResponsibleForDisbursement",
      "outputs": [
        {
          "name": "",
          "type": "address"
        }
      ],
      "payable": false,
      "stateMutability": "view",
      "type": "function"
    },
    {
      "constant": true,
      "inputs": [],
      "name": "paused",
      "outputs": [
        {
          "name": "",
          "type": "bool"
        }
      ],
      "payable": false,
      "stateMutability": "view",
      "type": "function"
    },
    {
      "constant": true,
      "inputs": [
        {
          "name": "addr",
          "type": "address"
        }
      ],
      "name": "isValidatedAccount",
      "outputs": [
        {
          "name": "",
          "type": "bool"
        }
      ],
      "payable": false,
      "stateMutability": "view",
      "type": "function"
    },
    {
      "constant": true,
      "inputs": [
        {
          "name": "str",
          "type": "string"
        }
      ],
      "name": "isValidHash",
      "outputs": [
        {
          "name": "",
          "type": "bool"
        }
      ],
      "payable": false,
      "stateMutability": "pure",
      "type": "function"
    },
    {
      "constant": false,
      "inputs": [],
      "name": "renouncePauser",
      "outputs": [],
      "payable": false,
      "stateMutability": "nonpayable",
      "type": "function"
    },
    {
      "constant": true,
      "inputs": [
        {
          "name": "owner",
          "type": "address"
        }
      ],
      "name": "balanceOf",
      "outputs": [
        {
          "name": "",
          "type": "uint256"
        }
      ],
      "payable": false,
      "stateMutability": "view",
      "type": "function"
    },
    {
      "constant": false,
      "inputs": [],
      "name": "renounceOwnership",
      "outputs": [],
      "payable": false,
      "stateMutability": "nonpayable",
      "type": "function"
    },
    {
      "constant": true,
      "inputs": [
        {
          "name": "addr",
          "type": "address"
        }
      ],
      "name": "isRedemptionAddress",
      "outputs": [
        {
          "name": "",
          "type": "bool"
        }
      ],
      "payable": false,
      "stateMutability": "view",
      "type": "function"
    },
    {
      "constant": true,
      "inputs": [],
      "name": "getRedemptionAddress",
      "outputs": [
        {
          "name": "",
          "type": "address"
        }
      ],
      "payable": false,
      "stateMutability": "view",
      "type": "function"
    },
    {
      "constant": false,
      "inputs": [
        {
          "name": "addr",
          "type": "address"
        },
        {
          "name": "idProofHash",
          "type": "string"
        }
      ],
      "name": "validateRegistryLegalEntity",
      "outputs": [],
      "payable": false,
      "stateMutability": "nonpayable",
      "type": "function"
    },
    {
      "constant": false,
      "inputs": [
        {
          "name": "account",
          "type": "address"
        }
      ],
      "name": "addPauser",
      "outputs": [],
      "payable": false,
      "stateMutability": "nonpayable",
      "type": "function"
    },
    {
      "constant": true,
      "inputs": [
        {
          "name": "addr",
          "type": "address"
        }
      ],
      "name": "isInvalidatedByValidatorAccount",
      "outputs": [
        {
          "name": "",
          "type": "bool"
        }
      ],
      "payable": false,
      "stateMutability": "view",
      "type": "function"
    },
    {
      "constant": false,
      "inputs": [],
      "name": "pause",
      "outputs": [],
      "payable": false,
      "stateMutability": "nonpayable",
      "type": "function"
    },
    {
      "constant": true,
      "inputs": [
        {
          "name": "addr",
          "type": "address"
        }
      ],
      "name": "isClient",
      "outputs": [
        {
          "name": "",
          "type": "bool"
        }
      ],
      "payable": false,
      "stateMutability": "view",
      "type": "function"
    },
    {
      "constant": true,
      "inputs": [
        {
          "name": "addr",
          "type": "address"
        }
      ],
      "name": "isResponsibleForSettlement",
      "outputs": [
        {
          "name": "",
          "type": "bool"
        }
      ],
      "payable": false,
      "stateMutability": "view",
      "type": "function"
    },
    {
      "constant": true,
      "inputs": [
        {
          "name": "addr",
          "type": "address"
        }
      ],
      "name": "getIdLegalFinancialAgreement",
      "outputs": [
        {
          "name": "",
          "type": "uint64"
        }
      ],
      "payable": false,
      "stateMutability": "view",
      "type": "function"
    },
    {
      "constant": false,
      "inputs": [
        {
          "name": "rs",
          "type": "address"
        }
      ],
      "name": "setResponsibleForRegistryValidation",
      "outputs": [],
      "payable": false,
      "stateMutability": "nonpayable",
      "type": "function"
    },
    {
      "constant": true,
      "inputs": [],
      "name": "owner",
      "outputs": [
        {
          "name": "",
          "type": "address"
        }
      ],
      "payable": false,
      "stateMutability": "view",
      "type": "function"
    },
    {
      "constant": true,
      "inputs": [],
      "name": "isOwner",
      "outputs": [
        {
          "name": "",
          "type": "bool"
        }
      ],
      "payable": false,
      "stateMutability": "view",
      "type": "function"
    },
    {
      "constant": false,
      "inputs": [
        {
          "name": "rs",
          "type": "address"
        }
      ],
      "name": "setResponsibleForDisbursement",
      "outputs": [],
      "payable": false,
      "stateMutability": "nonpayable",
      "type": "function"
    },
    {
      "constant": true,
      "inputs": [],
      "name": "symbol",
      "outputs": [
        {
          "name": "",
          "type": "string"
        }
      ],
      "payable": false,
      "stateMutability": "view",
      "type": "function"
    },
    {
      "constant": true,
      "inputs": [
        {
          "name": "addr",
          "type": "address"
        }
      ],
      "name": "getAccountState",
      "outputs": [
        {
          "name": "",
          "type": "int256"
        }
      ],
      "payable": false,
      "stateMutability": "view",
      "type": "function"
    },
    {
      "constant": true,
      "inputs": [
        {
          "name": "addr",
          "type": "address"
        }
      ],
      "name": "getLegalEntityInfo",
      "outputs": [
        {
          "name": "",
          "type": "uint64"
        },
        {
          "name": "",
          "type": "uint64"
        },
        {
          "name": "",
          "type": "uint32"
        },
        {
          "name": "",
          "type": "string"
        },
        {
          "name": "",
          "type": "uint256"
        },
        {
          "name": "",
          "type": "address"
        }
      ],
      "payable": false,
      "stateMutability": "view",
      "type": "function"
    },
    {
      "constant": true,
      "inputs": [
        {
          "name": "addr",
          "type": "address"
        }
      ],
      "name": "isAvailableAccount",
      "outputs": [
        {
          "name": "",
          "type": "bool"
        }
      ],
      "payable": false,
      "stateMutability": "view",
      "type": "function"
    },
    {
      "constant": true,
      "inputs": [
        {
          "name": "cnpj",
          "type": "uint64"
        },
        {
          "name": "idFinancialSupportAgreement",
          "type": "uint64"
        }
      ],
      "name": "getLegalEntityInfoByCNPJ",
      "outputs": [
        {
          "name": "",
          "type": "uint64"
        },
        {
          "name": "",
          "type": "uint64"
        },
        {
          "name": "",
          "type": "uint32"
        },
        {
          "name": "",
          "type": "string"
        },
        {
          "name": "",
          "type": "uint256"
        },
        {
          "name": "",
          "type": "address"
        }
      ],
      "payable": false,
      "stateMutability": "view",
      "type": "function"
    },
    {
      "constant": false,
      "inputs": [
        {
          "name": "addr",
          "type": "address"
        }
      ],
      "name": "invalidateRegistryLegalEntity",
      "outputs": [],
      "payable": false,
      "stateMutability": "nonpayable",
      "type": "function"
    },
    {
      "constant": true,
      "inputs": [],
      "name": "getResponsibleForRegistryValidation",
      "outputs": [
        {
          "name": "",
          "type": "address"
        }
      ],
      "payable": false,
      "stateMutability": "view",
      "type": "function"
    },
    {
      "constant": false,
      "inputs": [
        {
          "name": "rs",
          "type": "address"
        }
      ],
      "name": "setResponsibleForSettlement",
      "outputs": [],
      "payable": false,
      "stateMutability": "nonpayable",
      "type": "function"
    },
    {
      "constant": true,
      "inputs": [
        {
          "name": "addr",
          "type": "address"
        }
      ],
      "name": "isInvalidatedByChangeAccount",
      "outputs": [
        {
          "name": "",
          "type": "bool"
        }
      ],
      "payable": false,
      "stateMutability": "view",
      "type": "function"
    },
    {
      "constant": true,
      "inputs": [
        {
          "name": "addr",
          "type": "address"
        }
      ],
      "name": "getCNPJ",
      "outputs": [
        {
          "name": "",
          "type": "uint64"
        }
      ],
      "payable": false,
      "stateMutability": "view",
      "type": "function"
    },
    {
      "constant": true,
      "inputs": [
        {
          "name": "addr",
          "type": "address"
        }
      ],
      "name": "isValidatedClient",
      "outputs": [
        {
          "name": "",
          "type": "bool"
        }
      ],
      "payable": false,
      "stateMutability": "view",
      "type": "function"
    },
    {
      "constant": false,
      "inputs": [
        {
          "name": "rs",
          "type": "address"
        }
      ],
      "name": "setRedemptionAddress",
      "outputs": [],
      "payable": false,
      "stateMutability": "nonpayable",
      "type": "function"
    },
    {
      "constant": true,
      "inputs": [
        {
          "name": "owner",
          "type": "address"
        },
        {
          "name": "spender",
          "type": "address"
        }
      ],
      "name": "allowance",
      "outputs": [
        {
          "name": "",
          "type": "uint256"
        }
      ],
      "payable": false,
      "stateMutability": "view",
      "type": "function"
    },
    {
      "constant": false,
      "inputs": [
        {
          "name": "newOwner",
          "type": "address"
        }
      ],
      "name": "transferOwnership",
      "outputs": [],
      "payable": false,
      "stateMutability": "nonpayable",
      "type": "function"
    },
    {
      "constant": true,
      "inputs": [],
      "name": "getResponsibleForSettlement",
      "outputs": [
        {
          "name": "",
          "type": "address"
        }
      ],
      "payable": false,
      "stateMutability": "view",
      "type": "function"
    },
    {
      "anonymous": false,
      "inputs": [
        {
          "indexed": false,
          "name": "cnpj",
          "type": "uint64"
        },
        {
          "indexed": false,
          "name": "idFinancialSupportAgreement",
          "type": "uint64"
        },
        {
          "indexed": false,
          "name": "value",
          "type": "uint256"
        }
      ],
      "name": "BNDESTokenDisbursement",
      "type": "event"
    },
    {
      "anonymous": false,
      "inputs": [
        {
          "indexed": false,
          "name": "fromCnpj",
          "type": "uint64"
        },
        {
          "indexed": false,
          "name": "fromIdFinancialSupportAgreement",
          "type": "uint64"
        },
        {
          "indexed": false,
          "name": "toCnpj",
          "type": "uint64"
        },
        {
          "indexed": false,
          "name": "value",
          "type": "uint256"
        }
      ],
      "name": "BNDESTokenTransfer",
      "type": "event"
    },
    {
      "anonymous": false,
      "inputs": [
        {
          "indexed": false,
          "name": "cnpj",
          "type": "uint64"
        },
        {
          "indexed": false,
          "name": "value",
          "type": "uint256"
        }
      ],
      "name": "BNDESTokenRedemption",
      "type": "event"
    },
    {
      "anonymous": false,
      "inputs": [
        {
          "indexed": false,
          "name": "redemptionTransactionHash",
          "type": "string"
        },
        {
          "indexed": false,
          "name": "receiptHash",
          "type": "string"
        }
      ],
      "name": "BNDESTokenRedemptionSettlement",
      "type": "event"
    },
    {
      "anonymous": false,
      "inputs": [
        {
          "indexed": false,
          "name": "description",
          "type": "string"
        }
      ],
      "name": "BNDESManualIntervention",
      "type": "event"
    },
    {
      "anonymous": false,
      "inputs": [
        {
          "indexed": false,
          "name": "account",
          "type": "address"
        }
      ],
      "name": "Paused",
      "type": "event"
    },
    {
      "anonymous": false,
      "inputs": [
        {
          "indexed": false,
          "name": "account",
          "type": "address"
        }
      ],
      "name": "Unpaused",
      "type": "event"
    },
    {
      "anonymous": false,
      "inputs": [
        {
          "indexed": true,
          "name": "account",
          "type": "address"
        }
      ],
      "name": "PauserAdded",
      "type": "event"
    },
    {
      "anonymous": false,
      "inputs": [
        {
          "indexed": true,
          "name": "account",
          "type": "address"
        }
      ],
      "name": "PauserRemoved",
      "type": "event"
    },
    {
      "anonymous": false,
      "inputs": [
        {
          "indexed": true,
          "name": "from",
          "type": "address"
        },
        {
          "indexed": true,
          "name": "to",
          "type": "address"
        },
        {
          "indexed": false,
          "name": "value",
          "type": "uint256"
        }
      ],
      "name": "Transfer",
      "type": "event"
    },
    {
      "anonymous": false,
      "inputs": [
        {
          "indexed": true,
          "name": "owner",
          "type": "address"
        },
        {
          "indexed": true,
          "name": "spender",
          "type": "address"
        },
        {
          "indexed": false,
          "name": "value",
          "type": "uint256"
        }
      ],
      "name": "Approval",
      "type": "event"
    },
    {
      "anonymous": false,
      "inputs": [
        {
          "indexed": false,
          "name": "addr",
          "type": "address"
        },
        {
          "indexed": false,
          "name": "cnpj",
          "type": "uint64"
        },
        {
          "indexed": false,
          "name": "idFinancialSupportAgreement",
          "type": "uint64"
        },
        {
          "indexed": false,
          "name": "salic",
          "type": "uint32"
        },
        {
          "indexed": false,
          "name": "idProofHash",
          "type": "string"
        }
      ],
      "name": "AccountRegistration",
      "type": "event"
    },
    {
      "anonymous": false,
      "inputs": [
        {
          "indexed": false,
          "name": "oldAddr",
          "type": "address"
        },
        {
          "indexed": false,
          "name": "newAddr",
          "type": "address"
        },
        {
          "indexed": false,
          "name": "cnpj",
          "type": "uint64"
        },
        {
          "indexed": false,
          "name": "idFinancialSupportAgreement",
          "type": "uint64"
        },
        {
          "indexed": false,
          "name": "salic",
          "type": "uint32"
        },
        {
          "indexed": false,
          "name": "idProofHash",
          "type": "string"
        }
      ],
      "name": "AccountChange",
      "type": "event"
    },
    {
      "anonymous": false,
      "inputs": [
        {
          "indexed": false,
          "name": "addr",
          "type": "address"
        },
        {
          "indexed": false,
          "name": "cnpj",
          "type": "uint64"
        },
        {
          "indexed": false,
          "name": "idFinancialSupportAgreement",
          "type": "uint64"
        },
        {
          "indexed": false,
          "name": "salic",
          "type": "uint32"
        }
      ],
      "name": "AccountValidation",
      "type": "event"
    },
    {
      "anonymous": false,
      "inputs": [
        {
          "indexed": false,
          "name": "addr",
          "type": "address"
        },
        {
          "indexed": false,
          "name": "cnpj",
          "type": "uint64"
        },
        {
          "indexed": false,
          "name": "idFinancialSupportAgreement",
          "type": "uint64"
        },
        {
          "indexed": false,
          "name": "salic",
          "type": "uint32"
        }
      ],
      "name": "AccountInvalidation",
      "type": "event"
    },
    {
      "anonymous": false,
      "inputs": [
        {
          "indexed": true,
          "name": "previousOwner",
          "type": "address"
        },
        {
          "indexed": true,
          "name": "newOwner",
          "type": "address"
        }
      ],
      "name": "OwnershipTransferred",
      "type": "event"
    },
    {
      "constant": true,
      "inputs": [],
      "name": "getVersion",
      "outputs": [
        {
          "name": "",
          "type": "uint256"
        }
      ],
      "payable": false,
      "stateMutability": "view",
      "type": "function"
    },
    {
      "constant": false,
      "inputs": [
        {
          "name": "to",
          "type": "address"
        },
        {
          "name": "value",
          "type": "uint256"
        }
      ],
      "name": "transfer",
      "outputs": [
        {
          "name": "",
          "type": "bool"
        }
      ],
      "payable": false,
      "stateMutability": "nonpayable",
      "type": "function"
    },
    {
      "constant": false,
      "inputs": [
        {
          "name": "value",
          "type": "uint256"
        }
      ],
      "name": "redeem",
      "outputs": [
        {
          "name": "",
          "type": "bool"
        }
      ],
      "payable": false,
      "stateMutability": "nonpayable",
      "type": "function"
    },
    {
      "constant": false,
      "inputs": [
        {
          "name": "redemptionTransactionHash",
          "type": "string"
        },
        {
          "name": "receiptHash",
          "type": "string"
        }
      ],
      "name": "notifyRedemptionSettlement",
      "outputs": [],
      "payable": false,
      "stateMutability": "nonpayable",
      "type": "function"
    },
    {
      "constant": false,
      "inputs": [
        {
          "name": "cnpj",
          "type": "uint64"
        },
        {
          "name": "idFinancialSupportAgreement",
          "type": "uint64"
        },
        {
          "name": "salic",
          "type": "uint32"
        },
        {
          "name": "idProofHash",
          "type": "string"
        }
      ],
      "name": "registryLegalEntity",
      "outputs": [],
      "payable": false,
      "stateMutability": "nonpayable",
      "type": "function"
    },
    {
      "constant": false,
      "inputs": [
        {
          "name": "cnpj",
          "type": "uint64"
        },
        {
          "name": "idFinancialSupportAgreement",
          "type": "uint64"
        },
        {
          "name": "salic",
          "type": "uint32"
        },
        {
          "name": "idProofHash",
          "type": "string"
        }
      ],
      "name": "changeAccountLegalEntity",
      "outputs": [],
      "payable": false,
      "stateMutability": "nonpayable",
      "type": "function"
    },
    {
      "constant": false,
      "inputs": [
        {
          "name": "from",
          "type": "address"
        },
        {
          "name": "value",
          "type": "uint256"
        },
        {
          "name": "description",
          "type": "string"
        }
      ],
      "name": "burn",
      "outputs": [],
      "payable": false,
      "stateMutability": "nonpayable",
      "type": "function"
    },
    {
      "constant": false,
      "inputs": [
        {
          "name": "to",
          "type": "address"
        },
        {
          "name": "value",
          "type": "uint256"
        },
        {
          "name": "description",
          "type": "string"
        }
      ],
      "name": "mint",
      "outputs": [],
      "payable": false,
      "stateMutability": "nonpayable",
      "type": "function"
    },
    {
      "constant": false,
      "inputs": [
        {
          "name": "from",
          "type": "address"
        },
        {
          "name": "to",
          "type": "address"
        },
        {
          "name": "value",
          "type": "uint256"
        }
      ],
      "name": "transferFrom",
      "outputs": [
        {
          "name": "",
          "type": "bool"
        }
      ],
      "payable": false,
      "stateMutability": "nonpayable",
      "type": "function"
    },
    {
      "constant": false,
      "inputs": [
        {
          "name": "spender",
          "type": "address"
        },
        {
          "name": "value",
          "type": "uint256"
        }
      ],
      "name": "approve",
      "outputs": [
        {
          "name": "",
          "type": "bool"
        }
      ],
      "payable": false,
      "stateMutability": "nonpayable",
      "type": "function"
    },
    {
      "constant": false,
      "inputs": [
        {
          "name": "spender",
          "type": "address"
        },
        {
          "name": "addedValue",
          "type": "uint256"
        }
      ],
      "name": "increaseAllowance",
      "outputs": [
        {
          "name": "success",
          "type": "bool"
        }
      ],
      "payable": false,
      "stateMutability": "nonpayable",
      "type": "function"
    },
    {
      "constant": false,
      "inputs": [
        {
          "name": "spender",
          "type": "address"
        },
        {
          "name": "subtractedValue",
          "type": "uint256"
        }
      ],
      "name": "decreaseAllowance",
      "outputs": [
        {
          "name": "success",
          "type": "bool"
        }
      ],
      "payable": false,
      "stateMutability": "nonpayable",
      "type": "function"
    }
  ],
  "bytecode": "0x608060405263013415356010556040805190810160405280600a81526020017f424e444553546f6b656e000000000000000000000000000000000000000000008152506040805190810160405280600381526020017f424e4400000000000000000000000000000000000000000000000000000000008152506002336000806101000a81548173ffffffffffffffffffffffffffffffffffffffff021916908373ffffffffffffffffffffffffffffffffffffffff1602179055506000809054906101000a900473ffffffffffffffffffffffffffffffffffffffff1673ffffffffffffffffffffffffffffffffffffffff16600073ffffffffffffffffffffffffffffffffffffffff167f8be0079c531659141344cd1fd0a4f28419497f9722a3daafe3b4186f6b6457e060405160405180910390a333600160006101000a81548173ffffffffffffffffffffffffffffffffffffffff021916908373ffffffffffffffffffffffffffffffffffffffff16021790555033600260006101000a81548173ffffffffffffffffffffffffffffffffffffffff021916908373ffffffffffffffffffffffffffffffffffffffff16021790555033600360006101000a81548173ffffffffffffffffffffffffffffffffffffffff021916908373ffffffffffffffffffffffffffffffffffffffff16021790555033600460006101000a81548173ffffffffffffffffffffffffffffffffffffffff021916908373ffffffffffffffffffffffffffffffffffffffff1602179055506200025433620002c5640100000000026401000000009004565b6000600c60006101000a81548160ff02191690831515021790555082600d90805190602001906200028792919062000487565b5081600e9080519060200190620002a092919062000487565b5080600f60006101000a81548160ff021916908360ff16021790555050505062000536565b620002e981600b6200032f6401000000000262006741179091906401000000009004565b8073ffffffffffffffffffffffffffffffffffffffff167f6719d08c1888103bea251a4ed56406bd0c3e69723c8a1686e017e7bbe159b6f860405160405180910390a250565b600073ffffffffffffffffffffffffffffffffffffffff168173ffffffffffffffffffffffffffffffffffffffff16141515156200036c57600080fd5b620003878282620003f2640100000000026401000000009004565b1515156200039457600080fd5b60018260000160008373ffffffffffffffffffffffffffffffffffffffff1673ffffffffffffffffffffffffffffffffffffffff16815260200190815260200160002060006101000a81548160ff0219169083151502179055505050565b60008073ffffffffffffffffffffffffffffffffffffffff168273ffffffffffffffffffffffffffffffffffffffff16141515156200043057600080fd5b8260000160008373ffffffffffffffffffffffffffffffffffffffff1673ffffffffffffffffffffffffffffffffffffffff16815260200190815260200160002060009054906101000a900460ff16905092915050565b828054600181600116156101000203166002900490600052602060002090601f016020900481019282601f10620004ca57805160ff1916838001178555620004fb565b82800160010185558215620004fb579182015b82811115620004fa578251825591602001919060010190620004dd565b5b5090506200050a91906200050e565b5090565b6200053391905b808211156200052f57600081600090555060010162000515565b5090565b90565b6168c280620005466000396000f3fe6080604052600436106102f6576000357c0100000000000000000000000000000000000000000000000000000000900463ffffffff16806306fdde03146102fb578063095ea7b31461038b5780630c4471bd146103fe5780630d8e6e2c1461046757806315f570dc14610492578063167550651461058457806318160ddd14610684578063184c8931146106af57806323b872dd1461071857806326ff4794146107ab5780632f54bf6e146108d3578063313ce5671461093c578063348da3f21461096d57806339333849146109d65780633950935114610a6f5780633abba2ef14610ae25780633d44e5c614610b4b5780633f4ba83a14610b9c578063434baaf214610bb35780634633654214610c1c57806346fbf68e14610c855780634add311014610cee578063576590cb14610d5757806357cdcb3e14610dc05780635c975abb14610e175780635e096cef14610e465780636426a11614610f465780636edcb12f14610faf5780636ef8d66d1461108f57806370a08231146110a6578063715018a61461110b5780637943653d1461112257806379b8369e1461118b578063803b8a42146111e257806382dc1ec4146112ca578063845283de1461131b5780638456cb591461138457806384b7964f1461139b57806385fecf9b14611404578063876c6e9b1461146d57806387cf6423146114e65780638cbd258f146116455780638da5cb5b146116965780638f32d59b146116ed57806390e42c7e1461171c57806395d89b411461176d5780639ee2735b146117fd5780639f5e1ddd14611862578063a3d88453146119af578063a457c2d714611a18578063a530634c14611a8b578063a9059cbb14611be0578063b41842b914611c53578063b7196f3714611ca4578063b7404ff514611cfb578063b8e7c21d14611d4c578063be49b78d14611db5578063c01ed21014611e2e578063cc7e1b9a14611e97578063d3fc986414611ee8578063db006a7514611fda578063dd62ed3e1461202d578063f2fde38b146120b2578063f4ec736714612103575b600080fd5b34801561030757600080fd5b5061031061215a565b6040518080602001828103825283818151815260200191508051906020019080838360005b83811015610350578082015181840152602081019050610335565b50505050905090810190601f16801561037d5780820380516001836020036101000a031916815260200191505b509250505060405180910390f35b34801561039757600080fd5b506103e4600480360360408110156103ae57600080fd5b81019080803573ffffffffffffffffffffffffffffffffffffffff169060200190929190803590602001909291905050506121fc565b604051808215151515815260200191505060405180910390f35b34801561040a57600080fd5b5061044d6004803603602081101561042157600080fd5b81019080803573ffffffffffffffffffffffffffffffffffffffff169060200190929190505050612296565b604051808215151515815260200191505060405180910390f35b34801561047357600080fd5b5061047c612308565b6040518082815260200191505060405180910390f35b34801561049e57600080fd5b50610582600480360360608110156104b557600080fd5b81019080803573ffffffffffffffffffffffffffffffffffffffff16906020019092919080359060200190929190803590602001906401000000008111156104fc57600080fd5b82018360208201111561050e57600080fd5b8035906020019184600183028401116401000000008311171561053057600080fd5b91908080601f016020809104026020016040519081016040528093929190818152602001838380828437600081840152601f19601f820116905080830192505050505050509192919290505050612312565b005b34801561059057600080fd5b50610682600480360360808110156105a757600080fd5b81019080803567ffffffffffffffff169060200190929190803567ffffffffffffffff169060200190929190803563ffffffff169060200190929190803590602001906401000000008111156105fc57600080fd5b82018360208201111561060e57600080fd5b8035906020019184600183028401116401000000008311171561063057600080fd5b91908080601f016020809104026020016040519081016040528093929190818152602001838380828437600081840152601f19601f8201169050808301925050505050505091929192905050506123d0565b005b34801561069057600080fd5b506106996123fe565b6040518082815260200191505060405180910390f35b3480156106bb57600080fd5b506106fe600480360360208110156106d257600080fd5b81019080803573ffffffffffffffffffffffffffffffffffffffff169060200190929190505050612408565b604051808215151515815260200191505060405180910390f35b34801561072457600080fd5b506107916004803603606081101561073b57600080fd5b81019080803573ffffffffffffffffffffffffffffffffffffffff169060200190929190803573ffffffffffffffffffffffffffffffffffffffff1690602001909291908035906020019092919050505061246b565b604051808215151515815260200191505060405180910390f35b3480156107b757600080fd5b506107fa600480360360208110156107ce57600080fd5b81019080803573ffffffffffffffffffffffffffffffffffffffff16906020019092919050505061252c565b604051808667ffffffffffffffff1667ffffffffffffffff1681526020018567ffffffffffffffff1667ffffffffffffffff1681526020018463ffffffff1663ffffffff1681526020018060200183600481111561085457fe5b60ff168152602001828103825284818151815260200191508051906020019080838360005b83811015610894578082015181840152602081019050610879565b50505050905090810190601f1680156108c15780820380516001836020036101000a031916815260200191505b50965050505050505060405180910390f35b3480156108df57600080fd5b50610922600480360360208110156108f657600080fd5b81019080803573ffffffffffffffffffffffffffffffffffffffff16906020019092919050505061263f565b604051808215151515815260200191505060405180910390f35b34801561094857600080fd5b5061095161267e565b604051808260ff1660ff16815260200191505060405180910390f35b34801561097957600080fd5b506109bc6004803603602081101561099057600080fd5b81019080803573ffffffffffffffffffffffffffffffffffffffff169060200190929190505050612695565b604051808215151515815260200191505060405180910390f35b3480156109e257600080fd5b50610a2d600480360360408110156109f957600080fd5b81019080803567ffffffffffffffff169060200190929190803567ffffffffffffffff169060200190929190505050612718565b604051808273ffffffffffffffffffffffffffffffffffffffff1673ffffffffffffffffffffffffffffffffffffffff16815260200191505060405180910390f35b348015610a7b57600080fd5b50610ac860048036036040811015610a9257600080fd5b81019080803573ffffffffffffffffffffffffffffffffffffffff1690602001909291908035906020019092919050505061278f565b604051808215151515815260200191505060405180910390f35b348015610aee57600080fd5b50610b3160048036036020811015610b0557600080fd5b81019080803573ffffffffffffffffffffffffffffffffffffffff16906020019092919050505061284f565b604051808215151515815260200191505060405180910390f35b348015610b5757600080fd5b50610b9a60048036036020811015610b6e57600080fd5b81019080803573ffffffffffffffffffffffffffffffffffffffff1690602001909291905050506128a9565b005b348015610ba857600080fd5b50610bb16129cd565b005b348015610bbf57600080fd5b50610c0260048036036020811015610bd657600080fd5b81019080803573ffffffffffffffffffffffffffffffffffffffff169060200190929190505050612a7c565b604051808215151515815260200191505060405180910390f35b348015610c2857600080fd5b50610c6b60048036036020811015610c3f57600080fd5b81019080803573ffffffffffffffffffffffffffffffffffffffff169060200190929190505050612ad9565b604051808215151515815260200191505060405180910390f35b348015610c9157600080fd5b50610cd460048036036020811015610ca857600080fd5b81019080803573ffffffffffffffffffffffffffffffffffffffff169060200190929190505050612b75565b604051808215151515815260200191505060405180910390f35b348015610cfa57600080fd5b50610d3d60048036036020811015610d1157600080fd5b81019080803573ffffffffffffffffffffffffffffffffffffffff169060200190929190505050612b92565b604051808215151515815260200191505060405180910390f35b348015610d6357600080fd5b50610da660048036036020811015610d7a57600080fd5b81019080803573ffffffffffffffffffffffffffffffffffffffff169060200190929190505050612bec565b604051808215151515815260200191505060405180910390f35b348015610dcc57600080fd5b50610dd5612c0c565b604051808273ffffffffffffffffffffffffffffffffffffffff1673ffffffffffffffffffffffffffffffffffffffff16815260200191505060405180910390f35b348015610e2357600080fd5b50610e2c612c36565b604051808215151515815260200191505060405180910390f35b348015610e5257600080fd5b50610f4460048036036080811015610e6957600080fd5b81019080803567ffffffffffffffff169060200190929190803567ffffffffffffffff169060200190929190803563ffffffff16906020019092919080359060200190640100000000811115610ebe57600080fd5b820183602082011115610ed057600080fd5b80359060200191846001830284011164010000000083111715610ef257600080fd5b91908080601f016020809104026020016040519081016040528093929190818152602001838380828437600081840152601f19601f820116905080830192505050505050509192919290505050612c4d565b005b348015610f5257600080fd5b50610f9560048036036020811015610f6957600080fd5b81019080803573ffffffffffffffffffffffffffffffffffffffff169060200190929190505050612cb5565b604051808215151515815260200191505060405180910390f35b348015610fbb57600080fd5b5061107560048036036020811015610fd257600080fd5b8101908080359060200190640100000000811115610fef57600080fd5b82018360208201111561100157600080fd5b8035906020019184600183028401116401000000008311171561102357600080fd5b91908080601f016020809104026020016040519081016040528093929190818152602001838380828437600081840152601f19601f820116905080830192505050505050509192919290505050612d27565b604051808215151515815260200191505060405180910390f35b34801561109b57600080fd5b506110a4613017565b005b3480156110b257600080fd5b506110f5600480360360208110156110c957600080fd5b81019080803573ffffffffffffffffffffffffffffffffffffffff169060200190929190505050613022565b6040518082815260200191505060405180910390f35b34801561111757600080fd5b5061112061306b565b005b34801561112e57600080fd5b506111716004803603602081101561114557600080fd5b81019080803573ffffffffffffffffffffffffffffffffffffffff16906020019092919050505061313d565b604051808215151515815260200191505060405180910390f35b34801561119757600080fd5b506111a0613197565b604051808273ffffffffffffffffffffffffffffffffffffffff1673ffffffffffffffffffffffffffffffffffffffff16815260200191505060405180910390f35b3480156111ee57600080fd5b506112c86004803603604081101561120557600080fd5b81019080803573ffffffffffffffffffffffffffffffffffffffff1690602001909291908035906020019064010000000081111561124257600080fd5b82018360208201111561125457600080fd5b8035906020019184600183028401116401000000008311171561127657600080fd5b91908080601f016020809104026020016040519081016040528093929190818152602001838380828437600081840152601f19601f8201169050808301925050505050505091929192905050506131c1565b005b3480156112d657600080fd5b50611319600480360360208110156112ed57600080fd5b81019080803573ffffffffffffffffffffffffffffffffffffffff169060200190929190505050613746565b005b34801561132757600080fd5b5061136a6004803603602081101561133e57600080fd5b81019080803573ffffffffffffffffffffffffffffffffffffffff169060200190929190505050613766565b604051808215151515815260200191505060405180910390f35b34801561139057600080fd5b506113996137d8565b005b3480156113a757600080fd5b506113ea600480360360208110156113be57600080fd5b81019080803573ffffffffffffffffffffffffffffffffffffffff169060200190929190505050613888565b604051808215151515815260200191505060405180910390f35b34801561141057600080fd5b506114536004803603602081101561142757600080fd5b81019080803573ffffffffffffffffffffffffffffffffffffffff16906020019092919050505061390e565b604051808215151515815260200191505060405180910390f35b34801561147957600080fd5b506114bc6004803603602081101561149057600080fd5b81019080803573ffffffffffffffffffffffffffffffffffffffff169060200190929190505050613968565b604051808267ffffffffffffffff1667ffffffffffffffff16815260200191505060405180910390f35b3480156114f257600080fd5b506116436004803603604081101561150957600080fd5b810190808035906020019064010000000081111561152657600080fd5b82018360208201111561153857600080fd5b8035906020019184600183028401116401000000008311171561155a57600080fd5b91908080601f016020809104026020016040519081016040528093929190818152602001838380828437600081840152601f19601f820116905080830192505050505050509192919290803590602001906401000000008111156115bd57600080fd5b8201836020820111156115cf57600080fd5b803590602001918460018302840111640100000000831117156115f157600080fd5b91908080601f016020809104026020016040519081016040528093929190818152602001838380828437600081840152601f19601f8201169050808301925050505050505091929192905050506139c8565b005b34801561165157600080fd5b506116946004803603602081101561166857600080fd5b81019080803573ffffffffffffffffffffffffffffffffffffffff169060200190929190505050613c37565b005b3480156116a257600080fd5b506116ab613c8e565b604051808273ffffffffffffffffffffffffffffffffffffffff1673ffffffffffffffffffffffffffffffffffffffff16815260200191505060405180910390f35b3480156116f957600080fd5b50611702613cb7565b604051808215151515815260200191505060405180910390f35b34801561172857600080fd5b5061176b6004803603602081101561173f57600080fd5b81019080803573ffffffffffffffffffffffffffffffffffffffff169060200190929190505050613d0e565b005b34801561177957600080fd5b50611782613d65565b6040518080602001828103825283818151815260200191508051906020019080838360005b838110156117c25780820151818401526020810190506117a7565b50505050905090810190601f1680156117ef5780820380516001836020036101000a031916815260200191505b509250505060405180910390f35b34801561180957600080fd5b5061184c6004803603602081101561182057600080fd5b81019080803573ffffffffffffffffffffffffffffffffffffffff169060200190929190505050613e07565b6040518082815260200191505060405180910390f35b34801561186e57600080fd5b506118b16004803603602081101561188557600080fd5b81019080803573ffffffffffffffffffffffffffffffffffffffff169060200190929190505050613e83565b604051808767ffffffffffffffff1667ffffffffffffffff1681526020018667ffffffffffffffff1667ffffffffffffffff1681526020018563ffffffff1663ffffffff168152602001806020018481526020018373ffffffffffffffffffffffffffffffffffffffff1673ffffffffffffffffffffffffffffffffffffffff168152602001828103825285818151815260200191508051906020019080838360005b8381101561196f578082015181840152602081019050611954565b50505050905090810190601f16801561199c5780820380516001836020036101000a031916815260200191505b5097505050505050505060405180910390f35b3480156119bb57600080fd5b506119fe600480360360208110156119d257600080fd5b81019080803573ffffffffffffffffffffffffffffffffffffffff1690602001909291905050506140dd565b604051808215151515815260200191505060405180910390f35b348015611a2457600080fd5b50611a7160048036036040811015611a3b57600080fd5b81019080803573ffffffffffffffffffffffffffffffffffffffff16906020019092919080359060200190929190505050614167565b604051808215151515815260200191505060405180910390f35b348015611a9757600080fd5b50611ae260048036036040811015611aae57600080fd5b81019080803567ffffffffffffffff169060200190929190803567ffffffffffffffff169060200190929190505050614227565b604051808767ffffffffffffffff1667ffffffffffffffff1681526020018667ffffffffffffffff1667ffffffffffffffff1681526020018563ffffffff1663ffffffff168152602001806020018481526020018373ffffffffffffffffffffffffffffffffffffffff1673ffffffffffffffffffffffffffffffffffffffff168152602001828103825285818151815260200191508051906020019080838360005b83811015611ba0578082015181840152602081019050611b85565b50505050905090810190601f168015611bcd5780820380516001836020036101000a031916815260200191505b5097505050505050505060405180910390f35b348015611bec57600080fd5b50611c3960048036036040811015611c0357600080fd5b81019080803573ffffffffffffffffffffffffffffffffffffffff1690602001909291908035906020019092919050505061425f565b604051808215151515815260200191505060405180910390f35b348015611c5f57600080fd5b50611ca260048036036020811015611c7657600080fd5b81019080803573ffffffffffffffffffffffffffffffffffffffff1690602001909291905050506147f3565b005b348015611cb057600080fd5b50611cb9614b4e565b604051808273ffffffffffffffffffffffffffffffffffffffff1673ffffffffffffffffffffffffffffffffffffffff16815260200191505060405180910390f35b348015611d0757600080fd5b50611d4a60048036036020811015611d1e57600080fd5b81019080803573ffffffffffffffffffffffffffffffffffffffff169060200190929190505050614b78565b005b348015611d5857600080fd5b50611d9b60048036036020811015611d6f57600080fd5b81019080803573ffffffffffffffffffffffffffffffffffffffff169060200190929190505050614bcf565b604051808215151515815260200191505060405180910390f35b348015611dc157600080fd5b50611e0460048036036020811015611dd857600080fd5b81019080803573ffffffffffffffffffffffffffffffffffffffff169060200190929190505050614c40565b604051808267ffffffffffffffff1667ffffffffffffffff16815260200191505060405180910390f35b348015611e3a57600080fd5b50611e7d60048036036020811015611e5157600080fd5b81019080803573ffffffffffffffffffffffffffffffffffffffff169060200190929190505050614ca0565b604051808215151515815260200191505060405180910390f35b348015611ea357600080fd5b50611ee660048036036020811015611eba57600080fd5b81019080803573ffffffffffffffffffffffffffffffffffffffff169060200190929190505050614d23565b005b348015611ef457600080fd5b50611fd860048036036060811015611f0b57600080fd5b81019080803573ffffffffffffffffffffffffffffffffffffffff1690602001909291908035906020019092919080359060200190640100000000811115611f5257600080fd5b820183602082011115611f6457600080fd5b80359060200191846001830284011164010000000083111715611f8657600080fd5b91908080601f016020809104026020016040519081016040528093929190818152602001838380828437600081840152601f19601f820116905080830192505050505050509192919290505050614d7a565b005b348015611fe657600080fd5b5061201360048036036020811015611ffd57600080fd5b8101908080359060200190929190505050614e38565b604051808215151515815260200191505060405180910390f35b34801561203957600080fd5b5061209c6004803603604081101561205057600080fd5b81019080803573ffffffffffffffffffffffffffffffffffffffff169060200190929190803573ffffffffffffffffffffffffffffffffffffffff169060200190929190505050614e6e565b6040518082815260200191505060405180910390f35b3480156120be57600080fd5b50612101600480360360208110156120d557600080fd5b81019080803573ffffffffffffffffffffffffffffffffffffffff169060200190929190505050614ef5565b005b34801561210f57600080fd5b50612118614f14565b604051808273ffffffffffffffffffffffffffffffffffffffff1673ffffffffffffffffffffffffffffffffffffffff16815260200191505060405180910390f35b6060600d8054600181600116156101000203166002900480601f0160208091040260200160405190810160405280929190818152602001828054600181600116156101000203166002900480156121f25780601f106121c7576101008083540402835291602001916121f2565b820191906000526020600020905b8154815290600101906020018083116121d557829003601f168201915b5050505050905090565b6000600c60009054906101000a900460ff1615151561221a57600080fd5b60001515612290576040517f08c379a000000000000000000000000000000000000000000000000000000000815260040180806020018281038252601c8152602001807f556e737570706f72746564206d6574686f64202d20617070726f76650000000081525060200191505060405180910390fd5b92915050565b6000600160048111156122a557fe5b600560008473ffffffffffffffffffffffffffffffffffffffff1673ffffffffffffffffffffffffffffffffffffffff16815260200190815260200160002060020160009054906101000a900460ff16600481111561230057fe5b149050919050565b6000601054905090565b61231a613cb7565b151561232557600080fd5b7f0ef351a22e7f7e0df9ea85d91ccca6ea50ed3c91242e3b79c81ec71e36848a1b816040518080602001828103825283818151815260200191508051906020019080838360005b8381101561238757808201518184015260208101905061236c565b50505050905090810190601f1680156123b45780820380516001836020036101000a031916815260200191505b509250505060405180910390a16123cb8383614f3e565b505050565b600c60009054906101000a900460ff161515156123ec57600080fd5b6123f884848484615094565b50505050565b6000600a54905090565b60006124138261263f565b8061242357506124228261390e565b5b8061243357506124328261284f565b5b80612443575061244282612b92565b5b8061245357506124528261313d565b5b156124615760019050612466565b600090505b919050565b6000600c60009054906101000a900460ff1615151561248957600080fd5b60001515612525576040517f08c379a00000000000000000000000000000000000000000000000000000000081526004018080602001828103825260218152602001807f556e737570706f72746564206d6574686f64202d207472616e7366657246726f81526020017f6d0000000000000000000000000000000000000000000000000000000000000081525060400191505060405180910390fd5b9392505050565b60056020528060005260406000206000915090508060000160009054906101000a900467ffffffffffffffff16908060000160089054906101000a900467ffffffffffffffff16908060000160109054906101000a900463ffffffff1690806001018054600181600116156101000203166002900480601f0160208091040260200160405190810160405280929190818152602001828054600181600116156101000203166002900480156126225780601f106125f757610100808354040283529160200191612622565b820191906000526020600020905b81548152906001019060200180831161260557829003601f168201915b5050505050908060020160009054906101000a900460ff16905085565b60008173ffffffffffffffffffffffffffffffffffffffff16612660613c8e565b73ffffffffffffffffffffffffffffffffffffffff16149050919050565b6000600f60009054906101000a900460ff16905090565b60006126a082612ad9565b80156127115750600260048111156126b457fe5b600560008473ffffffffffffffffffffffffffffffffffffffff1673ffffffffffffffffffffffffffffffffffffffff16815260200190815260200160002060020160009054906101000a900460ff16600481111561270f57fe5b145b9050919050565b6000600660008467ffffffffffffffff1667ffffffffffffffff16815260200190815260200160002060008367ffffffffffffffff1667ffffffffffffffff16815260200190815260200160002060009054906101000a900473ffffffffffffffffffffffffffffffffffffffff16905092915050565b6000600c60009054906101000a900460ff161515156127ad57600080fd5b60001515612849576040517f08c379a00000000000000000000000000000000000000000000000000000000081526004018080602001828103825260268152602001807f556e737570706f72746564206d6574686f64202d20696e637265617365416c6c81526020017f6f77616e6365000000000000000000000000000000000000000000000000000081525060400191505060405180910390fd5b92915050565b6000600260009054906101000a900473ffffffffffffffffffffffffffffffffffffffff1673ffffffffffffffffffffffffffffffffffffffff168273ffffffffffffffffffffffffffffffffffffffff16149050919050565b6128b23361284f565b1515612972576040517f08c379a00000000000000000000000000000000000000000000000000000000081526004018080602001828103825260478152602001807f536f6d656e7465206f20726573706f6e73c3a176656c2070656c612076616c6981526020017f6461c3a7c3a36f20706f646520686162696c6974617220612074726f6361206481526020017f6520636f6e74610000000000000000000000000000000000000000000000000081525060600191505060405180910390fd5b6001600760008373ffffffffffffffffffffffffffffffffffffffff1673ffffffffffffffffffffffffffffffffffffffff16815260200190815260200160002060006101000a81548160ff02191690831515021790555050565b6129d633612b75565b15156129e157600080fd5b600c60009054906101000a900460ff1615156129fc57600080fd5b6000600c60006101000a81548160ff0219169083151502179055507f5db9ee0a495bf2e6ff9c91a7834c1ba4fdd244a5e8aa4e537bd38aeae4b073aa33604051808273ffffffffffffffffffffffffffffffffffffffff1673ffffffffffffffffffffffffffffffffffffffff16815260200191505060405180910390a1565b600060011515600760008473ffffffffffffffffffffffffffffffffffffffff1673ffffffffffffffffffffffffffffffffffffffff16815260200190815260200160002060009054906101000a900460ff161515149050919050565b6000612ae482612408565b15612af25760009050612b70565b612afb826140dd565b15612b095760009050612b70565b6000600560008473ffffffffffffffffffffffffffffffffffffffff1673ffffffffffffffffffffffffffffffffffffffff16815260200190815260200160002060000160089054906101000a900467ffffffffffffffff1667ffffffffffffffff161490505b919050565b6000612b8b82600b6156b290919063ffffffff16565b9050919050565b6000600360009054906101000a900473ffffffffffffffffffffffffffffffffffffffff1673ffffffffffffffffffffffffffffffffffffffff168273ffffffffffffffffffffffffffffffffffffffff16149050919050565b60076020528060005260406000206000915054906101000a900460ff1681565b6000600360009054906101000a900473ffffffffffffffffffffffffffffffffffffffff16905090565b6000600c60009054906101000a900460ff16905090565b600c60009054906101000a900460ff16151515612c6957600080fd5b6000612c758585612718565b90506000339050612c8886868686615746565b6000612c9383613022565b1115612cad57612cac8282612ca785613022565b61617b565b5b505050505050565b600060026004811115612cc457fe5b600560008473ffffffffffffffffffffffffffffffffffffffff1673ffffffffffffffffffffffffffffffffffffffff16815260200190815260200160002060020160009054906101000a900460ff166004811115612d1f57fe5b149050919050565b6000606082905060408151141515612d43576000915050613012565b60008090505b604081101561300b577f30000000000000000000000000000000000000000000000000000000000000008282815181101515612d8157fe5b9060200101517f010000000000000000000000000000000000000000000000000000000000000090047f0100000000000000000000000000000000000000000000000000000000000000027effffffffffffffffffffffffffffffffffffffffffffffffffffffffffffff19161015612dff57600092505050613012565b7f39000000000000000000000000000000000000000000000000000000000000008282815181101515612e2e57fe5b9060200101517f010000000000000000000000000000000000000000000000000000000000000090047f0100000000000000000000000000000000000000000000000000000000000000027effffffffffffffffffffffffffffffffffffffffffffffffffffffffffffff1916118015612f4157507f61000000000000000000000000000000000000000000000000000000000000008282815181101515612ed257fe5b9060200101517f010000000000000000000000000000000000000000000000000000000000000090047f0100000000000000000000000000000000000000000000000000000000000000027effffffffffffffffffffffffffffffffffffffffffffffffffffffffffffff1916105b15612f5157600092505050613012565b7f66000000000000000000000000000000000000000000000000000000000000008282815181101515612f8057fe5b9060200101517f010000000000000000000000000000000000000000000000000000000000000090047f0100000000000000000000000000000000000000000000000000000000000000027effffffffffffffffffffffffffffffffffffffffffffffffffffffffffffff19161115612ffe57600092505050613012565b8080600101915050612d49565b5060019150505b919050565b6130203361634b565b565b6000600860008373ffffffffffffffffffffffffffffffffffffffff1673ffffffffffffffffffffffffffffffffffffffff168152602001908152602001600020549050919050565b613073613cb7565b151561307e57600080fd5b600073ffffffffffffffffffffffffffffffffffffffff166000809054906101000a900473ffffffffffffffffffffffffffffffffffffffff1673ffffffffffffffffffffffffffffffffffffffff167f8be0079c531659141344cd1fd0a4f28419497f9722a3daafe3b4186f6b6457e060405160405180910390a360008060006101000a81548173ffffffffffffffffffffffffffffffffffffffff021916908373ffffffffffffffffffffffffffffffffffffffff160217905550565b6000600460009054906101000a900473ffffffffffffffffffffffffffffffffffffffff1673ffffffffffffffffffffffffffffffffffffffff168273ffffffffffffffffffffffffffffffffffffffff16149050919050565b6000600460009054906101000a900473ffffffffffffffffffffffffffffffffffffffff16905090565b6131ca3361284f565b1515613264576040517f08c379a000000000000000000000000000000000000000000000000000000000815260040180806020018281038252603b8152602001807f536f6d656e7465206f20726573706f6e73c3a176656c2070656c612076616c6981526020017f6461c3a7c3a36f20706f64652076616c6964617220636f6e746173000000000081525060400191505060405180910390fd5b6001600481111561327157fe5b600560008473ffffffffffffffffffffffffffffffffffffffff1673ffffffffffffffffffffffffffffffffffffffff16815260200190815260200160002060020160009054906101000a900460ff1660048111156132cc57fe5b141515613367576040517f08c379a00000000000000000000000000000000000000000000000000000000081526004018080602001828103825260368152602001807f4120636f6e74612070726563697361206573746172206e6f2065737461646f2081526020017f416775617264616e646f2056616c696461c3a7c3a36f0000000000000000000081525060400191505060405180910390fd5b806040516020018082805190602001908083835b6020831015156133a0578051825260208201915060208101905060208303925061337b565b6001836020036101000a03801982511681845116808217855250505050505090500191505060405160208183030381529060405280519060200120600560008473ffffffffffffffffffffffffffffffffffffffff1673ffffffffffffffffffffffffffffffffffffffff168152602001908152602001600020600101604051602001808280546001816001161561010002031660029004801561347b5780601f1061345957610100808354040283529182019161347b565b820191906000526020600020905b815481529060010190602001808311613467575b505091505060405160208183030381529060405280519060200120141515613531576040517f08c379a00000000000000000000000000000000000000000000000000000000081526004018080602001828103825260288152602001807f4f206861736820726563656269646f20c3a9206469666572656e746520646f2081526020017f657370657261646f00000000000000000000000000000000000000000000000081525060400191505060405180910390fd5b6002600560008473ffffffffffffffffffffffffffffffffffffffff1673ffffffffffffffffffffffffffffffffffffffff16815260200190815260200160002060020160006101000a81548160ff0219169083600481111561359057fe5b02179055507fd562fa69cd7f9f29b17f15cc04b6c895f0222835755d3617a61455b92da554db82600560008573ffffffffffffffffffffffffffffffffffffffff1673ffffffffffffffffffffffffffffffffffffffff16815260200190815260200160002060000160009054906101000a900467ffffffffffffffff16600560008673ffffffffffffffffffffffffffffffffffffffff1673ffffffffffffffffffffffffffffffffffffffff16815260200190815260200160002060000160089054906101000a900467ffffffffffffffff16600560008773ffffffffffffffffffffffffffffffffffffffff1673ffffffffffffffffffffffffffffffffffffffff16815260200190815260200160002060000160109054906101000a900463ffffffff16604051808573ffffffffffffffffffffffffffffffffffffffff1673ffffffffffffffffffffffffffffffffffffffff1681526020018467ffffffffffffffff1667ffffffffffffffff1681526020018367ffffffffffffffff1667ffffffffffffffff1681526020018263ffffffff1663ffffffff16815260200194505050505060405180910390a15050565b61374f33612b75565b151561375a57600080fd5b613763816163a5565b50565b60006003600481111561377557fe5b600560008473ffffffffffffffffffffffffffffffffffffffff1673ffffffffffffffffffffffffffffffffffffffff16815260200190815260200160002060020160009054906101000a900460ff1660048111156137d057fe5b149050919050565b6137e133612b75565b15156137ec57600080fd5b600c60009054906101000a900460ff1615151561380857600080fd5b6001600c60006101000a81548160ff0219169083151502179055507f62e78cea01bee320cd4e420270b5ea74000d11b0c9f74754ebdbfc544b05a25833604051808273ffffffffffffffffffffffffffffffffffffffff1673ffffffffffffffffffffffffffffffffffffffff16815260200191505060405180910390a1565b600061389382612408565b156138a15760009050613909565b6000600560008473ffffffffffffffffffffffffffffffffffffffff1673ffffffffffffffffffffffffffffffffffffffff16815260200190815260200160002060000160089054906101000a900467ffffffffffffffff1667ffffffffffffffff16141590505b919050565b6000600160009054906101000a900473ffffffffffffffffffffffffffffffffffffffff1673ffffffffffffffffffffffffffffffffffffffff168273ffffffffffffffffffffffffffffffffffffffff16149050919050565b6000600560008373ffffffffffffffffffffffffffffffffffffffff1673ffffffffffffffffffffffffffffffffffffffff16815260200190815260200160002060000160089054906101000a900467ffffffffffffffff169050919050565b600c60009054906101000a900460ff161515156139e457600080fd5b6139ed3361390e565b1515613aad576040517f08c379a00000000000000000000000000000000000000000000000000000000081526004018080602001828103825260548152602001807f41206c697175696461c3a7c3a36f2073c3b3206ec3a36f20706f64652073657281526020017f207265616c697a6164612070656c6f20656e64657265c3a76f2071756520737581526020017f626d657465752061207472616e7361c3a7c3a36f00000000000000000000000081525060600191505060405180910390fd5b613ab681612d27565b1515613b2a576040517f08c379a000000000000000000000000000000000000000000000000000000000815260040180806020018281038252601d8152602001807f4f206861736820646f2072656369626f20c3a920696e76c3a16c69646f00000081525060200191505060405180910390fd5b7fa86b2b0d4d5df6e286898ddbf13f59ded7b39986717378878be628b878baa4b58282604051808060200180602001838103835285818151815260200191508051906020019080838360005b83811015613b91578082015181840152602081019050613b76565b50505050905090810190601f168015613bbe5780820380516001836020036101000a031916815260200191505b50838103825284818151815260200191508051906020019080838360005b83811015613bf7578082015181840152602081019050613bdc565b50505050905090810190601f168015613c245780820380516001836020036101000a031916815260200191505b5094505050505060405180910390a15050565b613c3f613cb7565b1515613c4a57600080fd5b80600260006101000a81548173ffffffffffffffffffffffffffffffffffffffff021916908373ffffffffffffffffffffffffffffffffffffffff16021790555050565b60008060009054906101000a900473ffffffffffffffffffffffffffffffffffffffff16905090565b60008060009054906101000a900473ffffffffffffffffffffffffffffffffffffffff1673ffffffffffffffffffffffffffffffffffffffff163373ffffffffffffffffffffffffffffffffffffffff1614905090565b613d16613cb7565b1515613d2157600080fd5b80600360006101000a81548173ffffffffffffffffffffffffffffffffffffffff021916908373ffffffffffffffffffffffffffffffffffffffff16021790555050565b6060600e8054600181600116156101000203166002900480601f016020809104026020016040519081016040528092919081815260200182805460018160011615610100020316600290048015613dfd5780601f10613dd257610100808354040283529160200191613dfd565b820191906000526020600020905b815481529060010190602001808311613de057829003601f168201915b5050505050905090565b6000613e1282612408565b15613e205760649050613e7e565b600560008373ffffffffffffffffffffffffffffffffffffffff1673ffffffffffffffffffffffffffffffffffffffff16815260200190815260200160002060020160009054906101000a900460ff166004811115613e7b57fe5b90505b919050565b60008060006060600080600560008873ffffffffffffffffffffffffffffffffffffffff1673ffffffffffffffffffffffffffffffffffffffff16815260200190815260200160002060000160009054906101000a900467ffffffffffffffff16600560008973ffffffffffffffffffffffffffffffffffffffff1673ffffffffffffffffffffffffffffffffffffffff16815260200190815260200160002060000160089054906101000a900467ffffffffffffffff16600560008a73ffffffffffffffffffffffffffffffffffffffff1673ffffffffffffffffffffffffffffffffffffffff16815260200190815260200160002060000160109054906101000a900463ffffffff16600560008b73ffffffffffffffffffffffffffffffffffffffff1673ffffffffffffffffffffffffffffffffffffffff168152602001908152602001600020600101600560008c73ffffffffffffffffffffffffffffffffffffffff1673ffffffffffffffffffffffffffffffffffffffff16815260200190815260200160002060020160009054906101000a900460ff16600481111561402b57fe5b8b828054600181600116156101000203166002900480601f0160208091040260200160405190810160405280929190818152602001828054600181600116156101000203166002900480156140c15780601f10614096576101008083540402835291602001916140c1565b820191906000526020600020905b8154815290600101906020018083116140a457829003601f168201915b5050505050925095509550955095509550955091939550919395565b60006140e882612408565b156140f65760009050614162565b6000600481111561410357fe5b600560008473ffffffffffffffffffffffffffffffffffffffff1673ffffffffffffffffffffffffffffffffffffffff16815260200190815260200160002060020160009054906101000a900460ff16600481111561415e57fe5b1490505b919050565b6000600c60009054906101000a900460ff1615151561418557600080fd5b60001515614221576040517f08c379a00000000000000000000000000000000000000000000000000000000081526004018080602001828103825260268152602001807f556e737570706f72746564206d6574686f64202d206465637265617365416c6c81526020017f6f77616e6365000000000000000000000000000000000000000000000000000081525060400191505060405180910390fd5b92915050565b60008060006060600080600061423d8989612718565b905061424881613e83565b965096509650965096509650509295509295509295565b6000600c60009054906101000a900460ff1615151561427d57600080fd5b60003390508373ffffffffffffffffffffffffffffffffffffffff168173ffffffffffffffffffffffffffffffffffffffff161415151561434c576040517f08c379a00000000000000000000000000000000000000000000000000000000081526004018080602001828103825260288152602001807f4ec3a36f20706f6465207472616e73666572697220746f6b656e20706172612081526020017f7369206d65736d6f00000000000000000000000000000000000000000000000081525060400191505060405180910390fd5b61435581612b92565b1561448b5761436384614ca0565b15156143fd576040517f08c379a000000000000000000000000000000000000000000000000000000000815260040180806020018281038252603d8152602001807f4f20656e64657265c3a76f206ec3a36f2070657274656e6365206120756d206381526020017f6c69656e7465206f75206ec3a36f20657374c3a12076616c696461646100000081525060400191505060405180910390fd5b61440784846163ff565b7f7fa74a4a3409ff0d3bc5b9559d578e925d0c775fe818d2fab1b9482aeefcabd561443185614c40565b61443a86613968565b85604051808467ffffffffffffffff1667ffffffffffffffff1681526020018367ffffffffffffffff1667ffffffffffffffff168152602001828152602001935050505060405180910390a16147e8565b6144948461313d565b156145cc576144a281612695565b1515614562576040517f08c379a00000000000000000000000000000000000000000000000000000000081526004018080602001828103825260498152602001807f4120636f6e746120646f20656e64657265c3a76f206ec3a36f2070657274656e81526020017f6365206120756d20666f726e656365646f72206f75206ec3a36f20657374c3a181526020017f2076616c6964616461000000000000000000000000000000000000000000000081525060600191505060405180910390fd5b61456c8184614f3e565b7fed4f509ceb9443ee5dcf7e7b74b70d2f3b58785f04ab4a82237af07c28fb961d61459682614c40565b84604051808367ffffffffffffffff1667ffffffffffffffff1681526020018281526020019250505060405180910390a16147e7565b6145d581614ca0565b151561466f576040517f08c379a000000000000000000000000000000000000000000000000000000000815260040180806020018281038252603d8152602001807f4f20656e64657265c3a76f206ec3a36f2070657274656e6365206120756d206381526020017f6c69656e7465206f75206ec3a36f20657374c3a12076616c696461646100000081525060400191505060405180910390fd5b61467884612695565b1515614738576040517f08c379a00000000000000000000000000000000000000000000000000000000081526004018080602001828103825260498152602001807f4120636f6e746120646f20656e64657265c3a76f206ec3a36f2070657274656e81526020017f6365206120756d20666f726e656365646f72206f75206ec3a36f20657374c3a181526020017f2076616c6964616461000000000000000000000000000000000000000000000081525060600191505060405180910390fd5b61474333858561617b565b7fac6acaf5da807133c780784f15d8de810654df0be7da578e595c5534970a1ca761476d82614c40565b61477683613968565b61477f87614c40565b86604051808567ffffffffffffffff1667ffffffffffffffff1681526020018467ffffffffffffffff1667ffffffffffffffff1681526020018367ffffffffffffffff1667ffffffffffffffff16815260200182815260200194505050505060405180910390a15b5b600191505092915050565b6147fc3361284f565b1515614896576040517f08c379a000000000000000000000000000000000000000000000000000000000815260040180806020018281038252603d8152602001807f536f6d656e7465206f20726573706f6e73c3a176656c2070656c612076616c6981526020017f6461c3a7c3a36f20706f646520696e76616c6964617220636f6e74617300000081525060400191505060405180910390fd5b61489f81612408565b15151561493a576040517f08c379a000000000000000000000000000000000000000000000000000000000815260040180806020018281038252602b8152602001807f4ec3a36f20c3a920706f7373c3ad76656c20696e76616c6964617220636f6e7481526020017f612072657365727661646100000000000000000000000000000000000000000081525060400191505060405180910390fd5b6003600560008373ffffffffffffffffffffffffffffffffffffffff1673ffffffffffffffffffffffffffffffffffffffff16815260200190815260200160002060020160006101000a81548160ff0219169083600481111561499957fe5b02179055507fefbe34d940db094a2bd0cf0857f4ef56ae5d3a6ece355e2efbb75b3f7147cd0d81600560008473ffffffffffffffffffffffffffffffffffffffff1673ffffffffffffffffffffffffffffffffffffffff16815260200190815260200160002060000160009054906101000a900467ffffffffffffffff16600560008573ffffffffffffffffffffffffffffffffffffffff1673ffffffffffffffffffffffffffffffffffffffff16815260200190815260200160002060000160089054906101000a900467ffffffffffffffff16600560008673ffffffffffffffffffffffffffffffffffffffff1673ffffffffffffffffffffffffffffffffffffffff16815260200190815260200160002060000160109054906101000a900463ffffffff16604051808573ffffffffffffffffffffffffffffffffffffffff1673ffffffffffffffffffffffffffffffffffffffff1681526020018467ffffffffffffffff1667ffffffffffffffff1681526020018367ffffffffffffffff1667ffffffffffffffff1681526020018263ffffffff1663ffffffff16815260200194505050505060405180910390a150565b6000600260009054906101000a900473ffffffffffffffffffffffffffffffffffffffff16905090565b614b80613cb7565b1515614b8b57600080fd5b80600160006101000a81548173ffffffffffffffffffffffffffffffffffffffff021916908373ffffffffffffffffffffffffffffffffffffffff16021790555050565b6000600480811115614bdd57fe5b600560008473ffffffffffffffffffffffffffffffffffffffff1673ffffffffffffffffffffffffffffffffffffffff16815260200190815260200160002060020160009054906101000a900460ff166004811115614c3857fe5b149050919050565b6000600560008373ffffffffffffffffffffffffffffffffffffffff1673ffffffffffffffffffffffffffffffffffffffff16815260200190815260200160002060000160009054906101000a900467ffffffffffffffff169050919050565b6000614cab82613888565b8015614d1c575060026004811115614cbf57fe5b600560008473ffffffffffffffffffffffffffffffffffffffff1673ffffffffffffffffffffffffffffffffffffffff16815260200190815260200160002060020160009054906101000a900460ff166004811115614d1a57fe5b145b9050919050565b614d2b613cb7565b1515614d3657600080fd5b80600460006101000a81548173ffffffffffffffffffffffffffffffffffffffff021916908373ffffffffffffffffffffffffffffffffffffffff16021790555050565b614d82613cb7565b1515614d8d57600080fd5b7f0ef351a22e7f7e0df9ea85d91ccca6ea50ed3c91242e3b79c81ec71e36848a1b816040518080602001828103825283818151815260200191508051906020019080838360005b83811015614def578082015181840152602081019050614dd4565b50505050905090810190601f168015614e1c5780820380516001836020036101000a031916815260200191505b509250505060405180910390a1614e3383836163ff565b505050565b6000600c60009054906101000a900460ff16151515614e5657600080fd5b614e67614e61613197565b8361425f565b9050919050565b6000600960008473ffffffffffffffffffffffffffffffffffffffff1673ffffffffffffffffffffffffffffffffffffffff16815260200190815260200160002060008373ffffffffffffffffffffffffffffffffffffffff1673ffffffffffffffffffffffffffffffffffffffff16815260200190815260200160002054905092915050565b614efd613cb7565b1515614f0857600080fd5b614f1181616555565b50565b6000600160009054906101000a900473ffffffffffffffffffffffffffffffffffffffff16905090565b600073ffffffffffffffffffffffffffffffffffffffff168273ffffffffffffffffffffffffffffffffffffffff1614151515614f7a57600080fd5b614f8f81600a5461664f90919063ffffffff16565b600a81905550614fe781600860008573ffffffffffffffffffffffffffffffffffffffff1673ffffffffffffffffffffffffffffffffffffffff1681526020019081526020016000205461664f90919063ffffffff16565b600860008473ffffffffffffffffffffffffffffffffffffffff1673ffffffffffffffffffffffffffffffffffffffff16815260200190815260200160002081905550600073ffffffffffffffffffffffffffffffffffffffff168273ffffffffffffffffffffffffffffffffffffffff167fddf252ad1be2c89b69c2b068fc378daa952ba7f163c4a11628f55a4df523b3ef836040518082815260200191505060405180910390a35050565b60003390506150a2816140dd565b151561513c576040517f08c379a00000000000000000000000000000000000000000000000000000000081526004018080602001828103825260358152602001807f456e64657265c3a76f206ec3a36f20706f646520746572207369646f2063616481526020017f6173747261646f20616e746572696f726d656e7465000000000000000000000081525060400191505060405180910390fd5b61514582612d27565b15156151df576040517f08c379a00000000000000000000000000000000000000000000000000000000081526004018080602001828103825260238152602001807f4f2068617368206461206465636c617261c3a7c3a36f20c3a920696e76c3a16c81526020017f69646f000000000000000000000000000000000000000000000000000000000081525060400191505060405180910390fd5b60a0604051908101604052808667ffffffffffffffff1681526020018567ffffffffffffffff1681526020018463ffffffff1681526020018381526020016001600481111561522a57fe5b815250600560008373ffffffffffffffffffffffffffffffffffffffff1673ffffffffffffffffffffffffffffffffffffffff16815260200190815260200160002060008201518160000160006101000a81548167ffffffffffffffff021916908367ffffffffffffffff16021790555060208201518160000160086101000a81548167ffffffffffffffff021916908367ffffffffffffffff16021790555060408201518160000160106101000a81548163ffffffff021916908363ffffffff160217905550606082015181600101908051906020019061530d9291906167f1565b5060808201518160020160006101000a81548160ff0219169083600481111561533257fe5b021790555090505060008467ffffffffffffffff16111561542a5760006153598686612718565b9050615364816140dd565b1515615424576040517f08c379a00000000000000000000000000000000000000000000000000000000081526004018080602001828103825260448152602001807f436c69656e7465206ac3a120657374c3a1206173736f636961646f2061206f7581526020017f74726f20656e64657265c3a76f2e2055736520612066756ec3a7c3a36f20547281526020017f6f63612e0000000000000000000000000000000000000000000000000000000081525060600191505060405180910390fd5b50615504565b6000615437866000612718565b9050615442816140dd565b1515615502576040517f08c379a00000000000000000000000000000000000000000000000000000000081526004018080602001828103825260478152602001807f466f726e656365646f72206ac3a120657374c3a1206173736f636961646f206181526020017f206f7574726f20656e64657265c3a76f2e2055736520612066756ec3a7c3a36f81526020017f2054726f63612e0000000000000000000000000000000000000000000000000081525060600191505060405180910390fd5b505b80600660008767ffffffffffffffff1667ffffffffffffffff16815260200190815260200160002060008667ffffffffffffffff1667ffffffffffffffff16815260200190815260200160002060006101000a81548173ffffffffffffffffffffffffffffffffffffffff021916908373ffffffffffffffffffffffffffffffffffffffff1602179055507fdd642935494d30eab1c42790f71b6483dfc5962a284ec034372d9d49e0cb13bb8186868686604051808673ffffffffffffffffffffffffffffffffffffffff1673ffffffffffffffffffffffffffffffffffffffff1681526020018567ffffffffffffffff1667ffffffffffffffff1681526020018467ffffffffffffffff1667ffffffffffffffff1681526020018363ffffffff1663ffffffff16815260200180602001828103825283818151815260200191508051906020019080838360005b8381101561566d578082015181840152602081019050615652565b50505050905090810190601f16801561569a5780820380516001836020036101000a031916815260200191505b50965050505050505060405180910390a15050505050565b60008073ffffffffffffffffffffffffffffffffffffffff168273ffffffffffffffffffffffffffffffffffffffff16141515156156ef57600080fd5b8260000160008373ffffffffffffffffffffffffffffffffffffffff1673ffffffffffffffffffffffffffffffffffffffff16815260200190815260200160002060009054906101000a900460ff16905092915050565b600033905060006157578686612718565b905061576281612408565b1515156157fd576040517f08c379a000000000000000000000000000000000000000000000000000000000815260040180806020018281038252602d8152602001807f4ec3a36f20706f64652074726f63617220656e64657265c3a76f20646520636f81526020017f6e7461207265736572766164610000000000000000000000000000000000000081525060400191505060405180910390fd5b615806816140dd565b1515156158a1576040517f08c379a000000000000000000000000000000000000000000000000000000000815260040180806020018281038252603c8152602001807f54656d2071756520686176657220756d20656e64657265c3a76f206173736f6381526020017f6961646f2061206573736520636e706a2f7375626372c3a96469746f0000000081525060400191505060405180910390fd5b6158aa826140dd565b1515615944576040517f08c379a00000000000000000000000000000000000000000000000000000000081526004018080602001828103825260258152602001807f4e6f766f20656e64657265c3a76f206ec3a36f20657374c3a120646973706f6e81526020017fc3ad76656c00000000000000000000000000000000000000000000000000000081525060400191505060405180910390fd5b8073ffffffffffffffffffffffffffffffffffffffff168273ffffffffffffffffffffffffffffffffffffffff1614151515615a0e576040517f08c379a000000000000000000000000000000000000000000000000000000000815260040180806020018281038252602d8152602001807f4f20656e64657265c3a76f206e6f766f2064657665207365722064696665726581526020017f6e746520646f20616e7469676f0000000000000000000000000000000000000081525060400191505060405180910390fd5b615a1781612a7c565b1515615ab1576040517f08c379a000000000000000000000000000000000000000000000000000000000815260040180806020018281038252602e8152602001807f4120636f6e746120617475616c206ec3a36f20657374c3a120686162696c697481526020017f61646120706172612074726f636100000000000000000000000000000000000081525060400191505060405180910390fd5b615aba83612d27565b1515615b54576040517f08c379a00000000000000000000000000000000000000000000000000000000081526004018080602001828103825260238152602001807f4f2068617368206461206465636c617261c3a7c3a36f20c3a920696e76c3a16c81526020017f69646f000000000000000000000000000000000000000000000000000000000081525060400191505060405180910390fd5b8567ffffffffffffffff16600560008373ffffffffffffffffffffffffffffffffffffffff1673ffffffffffffffffffffffffffffffffffffffff16815260200190815260200160002060000160009054906101000a900467ffffffffffffffff1667ffffffffffffffff16148015615c3657508467ffffffffffffffff16600560008373ffffffffffffffffffffffffffffffffffffffff1673ffffffffffffffffffffffffffffffffffffffff16815260200190815260200160002060000160089054906101000a900467ffffffffffffffff1667ffffffffffffffff16145b1515615cd0576040517f08c379a000000000000000000000000000000000000000000000000000000000815260040180806020018281038252602b8152602001807f4461646f7320696e636f6e73697374656e74657320646520636e706a206f752081526020017f7375626372c3a96469746f00000000000000000000000000000000000000000081525060400191505060405180910390fd5b60a0604051908101604052808767ffffffffffffffff1681526020018667ffffffffffffffff1681526020018563ffffffff16815260200184815260200160016004811115615d1b57fe5b815250600560008473ffffffffffffffffffffffffffffffffffffffff1673ffffffffffffffffffffffffffffffffffffffff16815260200190815260200160002060008201518160000160006101000a81548167ffffffffffffffff021916908367ffffffffffffffff16021790555060208201518160000160086101000a81548167ffffffffffffffff021916908367ffffffffffffffff16021790555060408201518160000160106101000a81548163ffffffff021916908363ffffffff1602179055506060820151816001019080519060200190615dfe9291906167f1565b5060808201518160020160006101000a81548160ff02191690836004811115615e2357fe5b021790555090505060a060405190810160405280600067ffffffffffffffff168152602001600067ffffffffffffffff168152602001600063ffffffff16815260200160206040519081016040528060008152508152602001600480811115615e8857fe5b815250600560008373ffffffffffffffffffffffffffffffffffffffff1673ffffffffffffffffffffffffffffffffffffffff16815260200190815260200160002060008201518160000160006101000a81548167ffffffffffffffff021916908367ffffffffffffffff16021790555060208201518160000160086101000a81548167ffffffffffffffff021916908367ffffffffffffffff16021790555060408201518160000160106101000a81548163ffffffff021916908363ffffffff1602179055506060820151816001019080519060200190615f6b9291906167f1565b5060808201518160020160006101000a81548160ff02191690836004811115615f9057fe5b021790555090505081600660008867ffffffffffffffff1667ffffffffffffffff16815260200190815260200160002060008767ffffffffffffffff1667ffffffffffffffff16815260200190815260200160002060006101000a81548173ffffffffffffffffffffffffffffffffffffffff021916908373ffffffffffffffffffffffffffffffffffffffff1602179055507fd82d5fb8d459ced400a06631b9ab5eeffafb65a8c0bf5d8346035374ceeeafc5818388888888604051808773ffffffffffffffffffffffffffffffffffffffff1673ffffffffffffffffffffffffffffffffffffffff1681526020018673ffffffffffffffffffffffffffffffffffffffff1673ffffffffffffffffffffffffffffffffffffffff1681526020018567ffffffffffffffff1667ffffffffffffffff1681526020018467ffffffffffffffff1667ffffffffffffffff1681526020018363ffffffff1663ffffffff16815260200180602001828103825283818151815260200191508051906020019080838360005b83811015616134578082015181840152602081019050616119565b50505050905090810190601f1680156161615780820380516001836020036101000a031916815260200191505b5097505050505050505060405180910390a1505050505050565b600073ffffffffffffffffffffffffffffffffffffffff168273ffffffffffffffffffffffffffffffffffffffff16141515156161b757600080fd5b61620981600860008673ffffffffffffffffffffffffffffffffffffffff1673ffffffffffffffffffffffffffffffffffffffff1681526020019081526020016000205461664f90919063ffffffff16565b600860008573ffffffffffffffffffffffffffffffffffffffff1673ffffffffffffffffffffffffffffffffffffffff1681526020019081526020016000208190555061629e81600860008573ffffffffffffffffffffffffffffffffffffffff1673ffffffffffffffffffffffffffffffffffffffff1681526020019081526020016000205461667190919063ffffffff16565b600860008473ffffffffffffffffffffffffffffffffffffffff1673ffffffffffffffffffffffffffffffffffffffff168152602001908152602001600020819055508173ffffffffffffffffffffffffffffffffffffffff168373ffffffffffffffffffffffffffffffffffffffff167fddf252ad1be2c89b69c2b068fc378daa952ba7f163c4a11628f55a4df523b3ef836040518082815260200191505060405180910390a3505050565b61635f81600b61669290919063ffffffff16565b8073ffffffffffffffffffffffffffffffffffffffff167fcd265ebaf09df2871cc7bd4133404a235ba12eff2041bb89d9c714a2621c7c7e60405160405180910390a250565b6163b981600b61674190919063ffffffff16565b8073ffffffffffffffffffffffffffffffffffffffff167f6719d08c1888103bea251a4ed56406bd0c3e69723c8a1686e017e7bbe159b6f860405160405180910390a250565b600073ffffffffffffffffffffffffffffffffffffffff168273ffffffffffffffffffffffffffffffffffffffff161415151561643b57600080fd5b61645081600a5461667190919063ffffffff16565b600a819055506164a881600860008573ffffffffffffffffffffffffffffffffffffffff1673ffffffffffffffffffffffffffffffffffffffff1681526020019081526020016000205461667190919063ffffffff16565b600860008473ffffffffffffffffffffffffffffffffffffffff1673ffffffffffffffffffffffffffffffffffffffff168152602001908152602001600020819055508173ffffffffffffffffffffffffffffffffffffffff16600073ffffffffffffffffffffffffffffffffffffffff167fddf252ad1be2c89b69c2b068fc378daa952ba7f163c4a11628f55a4df523b3ef836040518082815260200191505060405180910390a35050565b600073ffffffffffffffffffffffffffffffffffffffff168173ffffffffffffffffffffffffffffffffffffffff161415151561659157600080fd5b8073ffffffffffffffffffffffffffffffffffffffff166000809054906101000a900473ffffffffffffffffffffffffffffffffffffffff1673ffffffffffffffffffffffffffffffffffffffff167f8be0079c531659141344cd1fd0a4f28419497f9722a3daafe3b4186f6b6457e060405160405180910390a3806000806101000a81548173ffffffffffffffffffffffffffffffffffffffff021916908373ffffffffffffffffffffffffffffffffffffffff16021790555050565b600082821115151561666057600080fd5b600082840390508091505092915050565b600080828401905083811015151561668857600080fd5b8091505092915050565b600073ffffffffffffffffffffffffffffffffffffffff168173ffffffffffffffffffffffffffffffffffffffff16141515156166ce57600080fd5b6166d882826156b2565b15156166e357600080fd5b60008260000160008373ffffffffffffffffffffffffffffffffffffffff1673ffffffffffffffffffffffffffffffffffffffff16815260200190815260200160002060006101000a81548160ff0219169083151502179055505050565b600073ffffffffffffffffffffffffffffffffffffffff168173ffffffffffffffffffffffffffffffffffffffff161415151561677d57600080fd5b61678782826156b2565b15151561679357600080fd5b60018260000160008373ffffffffffffffffffffffffffffffffffffffff1673ffffffffffffffffffffffffffffffffffffffff16815260200190815260200160002060006101000a81548160ff0219169083151502179055505050565b828054600181600116156101000203166002900490600052602060002090601f016020900481019282601f1061683257805160ff1916838001178555616860565b82800160010185558215616860579182015b8281111561685f578251825591602001919060010190616844565b5b50905061686d9190616871565b5090565b61689391905b8082111561688f576000816000905550600101616877565b5090565b9056fea165627a7a72305820606a545ce93c5999d568cb42896fae5835bfdebd25c98768f1de1a7fd7e2b1210029",
  "source": "pragma solidity ^0.5.0;\r\n\r\nimport \"openzeppelin-solidity/contracts/token/ERC20/ERC20Pausable.sol\";\r\nimport \"openzeppelin-solidity/contracts/token/ERC20/ERC20Detailed.sol\";\r\nimport \"./BNDESRegistry.sol\";\r\n\r\n\r\ncontract BNDESToken is BNDESRegistry, ERC20Pausable, ERC20Detailed(\"BNDESToken\", \"BND\", 2) {\r\n\r\n    uint private version = 20190517;\r\n\r\n    event BNDESTokenDisbursement(uint64 cnpj, uint64 idFinancialSupportAgreement, uint256 value);\r\n    event BNDESTokenTransfer(uint64 fromCnpj, uint64 fromIdFinancialSupportAgreement, uint64 toCnpj, uint256 value);\r\n    event BNDESTokenRedemption(uint64 cnpj, uint256 value);\r\n    event BNDESTokenRedemptionSettlement(string redemptionTransactionHash, string receiptHash);\r\n    event BNDESManualIntervention(string description);    \r\n\r\n\r\n    function getVersion() view public returns (uint) {\r\n        return version;\r\n    }\r\n\r\n   /**\r\n    * The transfer funcion follows ERC20 token signature. \r\n    * Using them, it is possible to disburse money to the client, transfer from client to supplier and redeem.\r\n    * @param to the Ethereum address to where the money should be sent\r\n    * @param value how much BNDESToken the supplier wants to redeem\r\n    */\r\n    function transfer (address to, uint256 value) public whenNotPaused returns (bool) {\r\n\r\n        address from = msg.sender;\r\n\r\n        require(from != to, \"No pode transferir token para si mesmo\");\r\n\r\n        if (isResponsibleForDisbursement(from)) {\r\n\r\n            require(isValidatedClient(to), \"O endereo no pertence a um cliente ou no est validada\");\r\n\r\n            _mint(to, value);\r\n\r\n            emit BNDESTokenDisbursement(getCNPJ(to), getIdLegalFinancialAgreement(to), value);\r\n\r\n        } else { \r\n\r\n            if (isRedemptionAddress(to)) { \r\n\r\n                require(isValidatedSupplier(from), \"A conta do endereo no pertence a um fornecedor ou no est validada\");\r\n\r\n                _burn(from, value);\r\n\r\n                emit BNDESTokenRedemption(getCNPJ(from), value);\r\n\r\n            } else {\r\n\r\n                // Se nem from nem to so o Banco, eh transferencia normal\r\n\r\n                require(isValidatedClient(from), \"O endereo no pertence a um cliente ou no est validada\");\r\n                require(isValidatedSupplier(to), \"A conta do endereo no pertence a um fornecedor ou no est validada\");\r\n\r\n                _transfer(msg.sender, to, value);\r\n\r\n                emit BNDESTokenTransfer(getCNPJ(from), getIdLegalFinancialAgreement(from), getCNPJ(to), value);\r\n  \r\n            }\r\n        }\r\n\r\n        return true;\r\n    }\r\n\r\n   /**\r\n    * When redeeming, the supplier indicated to the Resposible for Settlement that he wants to receive \r\n    * the FIAT money.\r\n    * @param value - how much BNDESToken the supplier wants to redeem\r\n    */\r\n    function redeem (uint256 value) public whenNotPaused returns (bool) {\r\n        return transfer(getRedemptionAddress(), value);\r\n    }\r\n\r\n   /**\r\n    * Using this function, the Responsible for Settlement indicates that he has made the FIAT money transfer.\r\n    * @param redemptionTransactionHash hash of the redeem transaction in which the FIAT money settlement occurred.\r\n    * @param receiptHash hash that proof the FIAT money transfer\r\n    */\r\n    function notifyRedemptionSettlement(string memory redemptionTransactionHash, string memory receiptHash) \r\n        public whenNotPaused {\r\n        require (isResponsibleForSettlement(msg.sender), \"A liquidao s no pode ser realizada pelo endereo que submeteu a transao\"); \r\n        require (super.isValidHash(receiptHash), \"O hash do recibo  invlido\");\r\n        emit BNDESTokenRedemptionSettlement(redemptionTransactionHash, receiptHash);\r\n    }\r\n\r\n\r\n    function registryLegalEntity(uint64 cnpj, uint64 idFinancialSupportAgreement, uint32 salic, string memory idProofHash) \r\n        public whenNotPaused { \r\n        super.registryLegalEntity( cnpj,  idFinancialSupportAgreement,  salic, idProofHash);\r\n    }\r\n\r\n   /**\r\n    * Changes the original link between CNPJ and Ethereum account. \r\n    * The new link still needs to be validated by BNDES.\r\n    * IMPORTANT: The BNDESTOKENs are transfered from the original to the new Ethereum address \r\n    * @param cnpj Brazilian identifier to legal entities\r\n    * @param idFinancialSupportAgreement contract number of financial contract with BNDES. It assumes 0 if it is a supplier.\r\n    * @param salic contract number of financial contract with ANCINE. It assumes 0 if it is a supplier.\r\n    * @param idProofHash The legal entities have to send BNDES a PDF where it assumes as responsible for an Ethereum account. \r\n    *                   This PDF is signed with eCNPJ and send to BNDES. \r\n    */\r\n    function changeAccountLegalEntity(uint64 cnpj, uint64 idFinancialSupportAgreement, uint32 salic, string memory idProofHash) \r\n        public whenNotPaused {\r\n        \r\n        address oldAddr = getBlockchainAccount(cnpj, idFinancialSupportAgreement);\r\n        address newAddr = msg.sender;\r\n        \r\n        super.changeAccountLegalEntity(cnpj, idFinancialSupportAgreement, salic, idProofHash);\r\n\r\n        // Se h saldo no enderecoAntigo, precisa transferir\r\n        if (balanceOf(oldAddr) > 0) {\r\n            _transfer(oldAddr, newAddr, balanceOf(oldAddr));\r\n        }\r\n\r\n    }\r\n\r\n    //These methods may be necessary to solve incidents.\r\n    function burn(address from, uint256 value, string memory description) public onlyOwner {\r\n        emit BNDESManualIntervention(description);\r\n        _burn(from, value);\r\n    }\r\n\r\n    //These methods may be necessary to solve incidents.\r\n    function mint(address to, uint256 value, string memory description) public onlyOwner {\r\n        emit BNDESManualIntervention(description);\r\n        _mint(to, value);\r\n    }\r\n\r\n\r\n    //Unsupported methods - created to avoid call the lib functions by overriding them\r\n    function transferFrom(address from, address to, uint256 value) public whenNotPaused returns (bool) {\r\n        require(false, \"Unsupported method - transferFrom\");\r\n    }\r\n\r\n    //Unsupported methods - created to avoid call the lib functions by overriding them\r\n    function approve(address spender, uint256 value) public whenNotPaused returns (bool) {\r\n        require(false, \"Unsupported method - approve\");\r\n    }\r\n\r\n    //Unsupported methods - created to avoid call the lib functions by overriding them\r\n    function increaseAllowance(address spender, uint addedValue) public whenNotPaused returns (bool success) {\r\n        require(false, \"Unsupported method - increaseAllowance\");\r\n    }\r\n\r\n    //Unsupported methods - created to avoid call the lib functions by overriding them\r\n    function decreaseAllowance(address spender, uint subtractedValue) public whenNotPaused returns (bool success) {\r\n        require(false, \"Unsupported method - decreaseAllowance\");\r\n    }\r\n\r\n\r\n\r\n}",
  "sourcePath": "D:/Workspace/bndestoken/Back-Blockchain/contracts/BNDESToken.sol",
  "compiler": {
    "name": "solc",
    "version": "0.5.0+commit.1d4f565a.Emscripten.clang"
  },
  "schemaVersion": "3.0.5",
  "updatedAt": "2019-06-17T20:24:26.532Z",
  "devdoc": {
    "methods": {
      "allowance(address,address)": {
        "details": "Function to check the amount of tokens that an owner allowed to a spender.",
        "params": {
          "owner": "address The address which owns the funds.",
          "spender": "address The address which will spend the funds."
        },
        "return": "A uint256 specifying the amount of tokens still available for the spender."
      },
      "balanceOf(address)": {
        "details": "Gets the balance of the specified address.",
        "params": {
          "owner": "The address to query the balance of."
        },
        "return": "An uint256 representing the amount owned by the passed address."
      },
      "changeAccountLegalEntity(uint64,uint64,uint32,string)": {
        "params": {
          "cnpj": "Brazilian identifier to legal entities\r",
          "idFinancialSupportAgreement": "contract number of financial contract with BNDES. It assumes 0 if it is a supplier.\r",
          "idProofHash": "The legal entities have to send BNDES a PDF where it assumes as responsible for an Ethereum account. \r                  This PDF is signed with eCNPJ and send to BNDES. \r",
          "salic": "contract number of financial contract with ANCINE. It assumes 0 if it is a supplier.\r"
        }
      },
      "decimals()": {
        "return": "the number of decimals of the token."
      },
      "enableChangeAccount(address)": {
        "params": {
          "rs": "account that can be changed.\r"
        }
      },
      "invalidateRegistryLegalEntity(address)": {
        "params": {
          "addr": "Ethereum address that needs to be validated\r"
        }
      },
      "isOwner()": {
        "return": "true if `msg.sender` is the owner of the contract."
      },
      "name()": {
        "return": "the name of the token."
      },
      "notifyRedemptionSettlement(string,string)": {
        "params": {
          "receiptHash": "hash that proof the FIAT money transfer\r",
          "redemptionTransactionHash": "hash of the redeem transaction in which the FIAT money settlement occurred.\r"
        }
      },
      "owner()": {
        "return": "the address of the owner."
      },
      "pause()": {
        "details": "called by the owner to pause, triggers stopped state"
      },
      "paused()": {
        "return": "true if the contract is paused, false otherwise."
      },
      "redeem(uint256)": {
        "params": {
          "value": "- how much BNDESToken the supplier wants to redeem\r"
        }
      },
      "renounceOwnership()": {
        "details": "Allows the current owner to relinquish control of the contract."
      },
      "setRedemptionAddress(address)": {
        "params": {
          "rs": "new Redemption address\r"
        }
      },
      "setResponsibleForDisbursement(address)": {
        "params": {
          "rs": "Ethereum address to be assigned as Responsible for Disbursment.\r"
        }
      },
      "setResponsibleForRegistryValidation(address)": {
        "params": {
          "rs": "Ethereum address to be assigned as Responsible for Validation.\r"
        }
      },
      "setResponsibleForSettlement(address)": {
        "params": {
          "rs": "Ethereum address to be assigned as Responsible for Settlement.\r"
        }
      },
      "symbol()": {
        "return": "the symbol of the token."
      },
      "totalSupply()": {
        "details": "Total number of tokens in existence"
      },
      "transfer(address,uint256)": {
        "params": {
          "to": "the Ethereum address to where the money should be sent\r",
          "value": "how much BNDESToken the supplier wants to redeem\r"
        }
      },
      "transferOwnership(address)": {
        "details": "Allows the current owner to transfer control of the contract to a newOwner.",
        "params": {
          "newOwner": "The address to transfer ownership to."
        }
      },
      "unpause()": {
        "details": "called by the owner to unpause, returns to normal state"
      },
      "validateRegistryLegalEntity(address,string)": {
        "params": {
          "addr": "Ethereum address that needs to be validated\r",
          "idProofHash": "The legal entities have to send BNDES a PDF where it assumes as responsible for an Ethereum account. \r                  This PDF is signed with eCNPJ and send to BNDES. \r"
        }
      }
    }
  },
  "userdoc": {
    "methods": {
      "changeAccountLegalEntity(uint64,uint64,uint32,string)": {
        "notice": "Changes the original link between CNPJ and Ethereum account. \r The new link still needs to be validated by BNDES.\r IMPORTANT: The BNDESTOKENs are transfered from the original to the new Ethereum address \r"
      },
      "enableChangeAccount(address)": {
        "notice": "Enable the legal entity to change the account\r"
      },
      "invalidateRegistryLegalEntity(address)": {
        "notice": "Invalidates the initial registry of a legal entity or the change of its registry\r The invalidation can be called at any time in the lifecycle of the address (not only when it is WAITING_VALIDATION)\r"
      },
      "notifyRedemptionSettlement(string,string)": {
        "notice": "Using this function, the Responsible for Settlement indicates that he has made the FIAT money transfer.\r"
      },
      "redeem(uint256)": {
        "notice": "When redeeming, the supplier indicated to the Resposible for Settlement that he wants to receive \r the FIAT money.\r"
      },
      "renounceOwnership()": {
        "notice": "Renouncing to ownership will leave the contract without an owner. It will not be possible to call the functions with the `onlyOwner` modifier anymore."
      },
      "setRedemptionAddress(address)": {
        "notice": "The supplier reedems the BNDESToken by transfering the tokens to a specific address, \r called Redemption address. \r By default, the redemption address is the address of the owner. \r The owner can change the redemption address using this function. \r"
      },
      "setResponsibleForDisbursement(address)": {
        "notice": "By default, the owner is also the Responsible for Disbursment. \r The owner can assign other address to be the Responsible for Disbursment. \r"
      },
      "setResponsibleForRegistryValidation(address)": {
        "notice": "By default, the owner is also the Responsible for Validation. \r The owner can assign other address to be the Responsible for Validation. \r"
      },
      "setResponsibleForSettlement(address)": {
        "notice": "By default, the owner is also the Responsible for Settlement. \r The owner can assign other address to be the Responsible for Settlement. \r"
      },
      "transfer(address,uint256)": {
        "notice": "The transfer funcion follows ERC20 token signature. \r Using them, it is possible to disburse money to the client, transfer from client to supplier and redeem.\r"
      },
      "validateRegistryLegalEntity(address,string)": {
        "notice": "Validates the initial registry of a legal entity or the change of its registry\r"
      }
    }
  }
}