{
  "contractName": "BNDESToken",
  "abi": [
    {
      "constant": true,
      "inputs": [
        {
          "name": "_cnpj",
          "type": "uint256"
        },
        {
          "name": "_idSubcredito",
          "type": "uint256"
        }
      ],
      "name": "getContaBlockchain",
      "outputs": [
        {
          "name": "",
          "type": "address"
        }
      ],
      "payable": false,
      "stateMutability": "view",
      "type": "function",
      "signature": "0x0098cbac"
    },
    {
      "constant": true,
      "inputs": [],
      "name": "name",
      "outputs": [
        {
          "name": "",
          "type": "string"
        }
      ],
      "payable": false,
      "stateMutability": "view",
      "type": "function",
      "signature": "0x06fdde03"
    },
    {
      "constant": true,
      "inputs": [
        {
          "name": "_addr",
          "type": "address"
        }
      ],
      "name": "getPJInfo",
      "outputs": [
        {
          "name": "",
          "type": "uint256"
        },
        {
          "name": "",
          "type": "uint256"
        },
        {
          "name": "",
          "type": "uint256"
        },
        {
          "name": "",
          "type": "string"
        },
        {
          "name": "",
          "type": "uint256"
        }
      ],
      "payable": false,
      "stateMutability": "view",
      "type": "function",
      "signature": "0x097ec48c"
    },
    {
      "constant": true,
      "inputs": [
        {
          "name": "_addr",
          "type": "address"
        }
      ],
      "name": "isContaReservada",
      "outputs": [
        {
          "name": "",
          "type": "bool"
        }
      ],
      "payable": false,
      "stateMutability": "view",
      "type": "function",
      "signature": "0x1202761c"
    },
    {
      "constant": true,
      "inputs": [],
      "name": "totalSupply",
      "outputs": [
        {
          "name": "",
          "type": "uint256"
        }
      ],
      "payable": false,
      "stateMutability": "view",
      "type": "function",
      "signature": "0x18160ddd"
    },
    {
      "constant": true,
      "inputs": [],
      "name": "decimals",
      "outputs": [
        {
          "name": "",
          "type": "uint8"
        }
      ],
      "payable": false,
      "stateMutability": "view",
      "type": "function",
      "signature": "0x313ce567"
    },
    {
      "constant": true,
      "inputs": [
        {
          "name": "_addr",
          "type": "address"
        }
      ],
      "name": "getEstadoContaAsString",
      "outputs": [
        {
          "name": "",
          "type": "string"
        }
      ],
      "payable": false,
      "stateMutability": "view",
      "type": "function",
      "signature": "0x32fe141a"
    },
    {
      "constant": true,
      "inputs": [
        {
          "name": "_addr",
          "type": "address"
        }
      ],
      "name": "isValidatedSupplier",
      "outputs": [
        {
          "name": "",
          "type": "bool"
        }
      ],
      "payable": false,
      "stateMutability": "view",
      "type": "function",
      "signature": "0x348da3f2"
    },
    {
      "constant": false,
      "inputs": [],
      "name": "unpause",
      "outputs": [],
      "payable": false,
      "stateMutability": "nonpayable",
      "type": "function",
      "signature": "0x3f4ba83a"
    },
    {
      "constant": false,
      "inputs": [
        {
          "name": "value",
          "type": "uint256"
        }
      ],
      "name": "burn",
      "outputs": [],
      "payable": false,
      "stateMutability": "nonpayable",
      "type": "function",
      "signature": "0x42966c68"
    },
    {
      "constant": true,
      "inputs": [
        {
          "name": "_addr",
          "type": "address"
        }
      ],
      "name": "isBNDES",
      "outputs": [
        {
          "name": "",
          "type": "bool"
        }
      ],
      "payable": false,
      "stateMutability": "view",
      "type": "function",
      "signature": "0x46dbc664"
    },
    {
      "constant": true,
      "inputs": [
        {
          "name": "account",
          "type": "address"
        }
      ],
      "name": "isPauser",
      "outputs": [
        {
          "name": "",
          "type": "bool"
        }
      ],
      "payable": false,
      "stateMutability": "view",
      "type": "function",
      "signature": "0x46fbf68e"
    },
    {
      "constant": true,
      "inputs": [
        {
          "name": "_addr",
          "type": "address"
        }
      ],
      "name": "isContaAguardandoValidacao",
      "outputs": [
        {
          "name": "",
          "type": "bool"
        }
      ],
      "payable": false,
      "stateMutability": "view",
      "type": "function",
      "signature": "0x5835e281"
    },
    {
      "constant": true,
      "inputs": [],
      "name": "paused",
      "outputs": [
        {
          "name": "",
          "type": "bool"
        }
      ],
      "payable": false,
      "stateMutability": "view",
      "type": "function",
      "signature": "0x5c975abb"
    },
    {
      "constant": true,
      "inputs": [
        {
          "name": "_addr",
          "type": "address"
        }
      ],
      "name": "isCliente",
      "outputs": [
        {
          "name": "",
          "type": "bool"
        }
      ],
      "payable": false,
      "stateMutability": "view",
      "type": "function",
      "signature": "0x68b183d4"
    },
    {
      "constant": false,
      "inputs": [],
      "name": "renouncePauser",
      "outputs": [],
      "payable": false,
      "stateMutability": "nonpayable",
      "type": "function",
      "signature": "0x6ef8d66d"
    },
    {
      "constant": true,
      "inputs": [
        {
          "name": "owner",
          "type": "address"
        }
      ],
      "name": "balanceOf",
      "outputs": [
        {
          "name": "",
          "type": "uint256"
        }
      ],
      "payable": false,
      "stateMutability": "view",
      "type": "function",
      "signature": "0x70a08231"
    },
    {
      "constant": false,
      "inputs": [],
      "name": "renounceOwnership",
      "outputs": [],
      "payable": false,
      "stateMutability": "nonpayable",
      "type": "function",
      "signature": "0x715018a6"
    },
    {
      "constant": true,
      "inputs": [
        {
          "name": "_addr",
          "type": "address"
        }
      ],
      "name": "isContaDisponivel",
      "outputs": [
        {
          "name": "",
          "type": "bool"
        }
      ],
      "payable": false,
      "stateMutability": "view",
      "type": "function",
      "signature": "0x7450cf77"
    },
    {
      "constant": false,
      "inputs": [
        {
          "name": "account",
          "type": "address"
        }
      ],
      "name": "addPauser",
      "outputs": [],
      "payable": false,
      "stateMutability": "nonpayable",
      "type": "function",
      "signature": "0x82dc1ec4"
    },
    {
      "constant": false,
      "inputs": [],
      "name": "pause",
      "outputs": [],
      "payable": false,
      "stateMutability": "nonpayable",
      "type": "function",
      "signature": "0x8456cb59"
    },
    {
      "constant": true,
      "inputs": [
        {
          "name": "_addr",
          "type": "address"
        }
      ],
      "name": "isResponsibleForSettlement",
      "outputs": [
        {
          "name": "",
          "type": "bool"
        }
      ],
      "payable": false,
      "stateMutability": "view",
      "type": "function",
      "signature": "0x85fecf9b"
    },
    {
      "constant": true,
      "inputs": [
        {
          "name": "_addr",
          "type": "address"
        }
      ],
      "name": "getSubcredito",
      "outputs": [
        {
          "name": "",
          "type": "uint256"
        }
      ],
      "payable": false,
      "stateMutability": "view",
      "type": "function",
      "signature": "0x88137e34"
    },
    {
      "constant": false,
      "inputs": [
        {
          "name": "_addr",
          "type": "address"
        }
      ],
      "name": "invalidarCadastro",
      "outputs": [],
      "payable": false,
      "stateMutability": "nonpayable",
      "type": "function",
      "signature": "0x88e7238b"
    },
    {
      "constant": true,
      "inputs": [],
      "name": "owner",
      "outputs": [
        {
          "name": "",
          "type": "address"
        }
      ],
      "payable": false,
      "stateMutability": "view",
      "type": "function",
      "signature": "0x8da5cb5b"
    },
    {
      "constant": true,
      "inputs": [],
      "name": "isOwner",
      "outputs": [
        {
          "name": "",
          "type": "bool"
        }
      ],
      "payable": false,
      "stateMutability": "view",
      "type": "function",
      "signature": "0x8f32d59b"
    },
    {
      "constant": true,
      "inputs": [],
      "name": "symbol",
      "outputs": [
        {
          "name": "",
          "type": "string"
        }
      ],
      "payable": false,
      "stateMutability": "view",
      "type": "function",
      "signature": "0x95d89b41"
    },
    {
      "constant": false,
      "inputs": [
        {
          "name": "account",
          "type": "address"
        }
      ],
      "name": "addMinter",
      "outputs": [],
      "payable": false,
      "stateMutability": "nonpayable",
      "type": "function",
      "signature": "0x983b2d56"
    },
    {
      "constant": false,
      "inputs": [],
      "name": "renounceMinter",
      "outputs": [],
      "payable": false,
      "stateMutability": "nonpayable",
      "type": "function",
      "signature": "0x98650275"
    },
    {
      "constant": true,
      "inputs": [
        {
          "name": "account",
          "type": "address"
        }
      ],
      "name": "isMinter",
      "outputs": [
        {
          "name": "",
          "type": "bool"
        }
      ],
      "payable": false,
      "stateMutability": "view",
      "type": "function",
      "signature": "0xaa271e1a"
    },
    {
      "constant": false,
      "inputs": [
        {
          "name": "rs",
          "type": "address"
        }
      ],
      "name": "setResponsibleForSettlement",
      "outputs": [],
      "payable": false,
      "stateMutability": "nonpayable",
      "type": "function",
      "signature": "0xb7404ff5"
    },
    {
      "constant": true,
      "inputs": [
        {
          "name": "_addr",
          "type": "address"
        }
      ],
      "name": "getCNPJ",
      "outputs": [
        {
          "name": "",
          "type": "uint256"
        }
      ],
      "payable": false,
      "stateMutability": "view",
      "type": "function",
      "signature": "0xbe49b78d"
    },
    {
      "constant": true,
      "inputs": [
        {
          "name": "_addr",
          "type": "address"
        }
      ],
      "name": "isValidatedClient",
      "outputs": [
        {
          "name": "",
          "type": "bool"
        }
      ],
      "payable": false,
      "stateMutability": "view",
      "type": "function",
      "signature": "0xc01ed210"
    },
    {
      "constant": false,
      "inputs": [
        {
          "name": "_addr",
          "type": "address"
        },
        {
          "name": "_hashdeclaracao",
          "type": "string"
        }
      ],
      "name": "validarCadastro",
      "outputs": [],
      "payable": false,
      "stateMutability": "nonpayable",
      "type": "function",
      "signature": "0xd58b54c9"
    },
    {
      "constant": true,
      "inputs": [
        {
          "name": "owner",
          "type": "address"
        },
        {
          "name": "spender",
          "type": "address"
        }
      ],
      "name": "allowance",
      "outputs": [
        {
          "name": "",
          "type": "uint256"
        }
      ],
      "payable": false,
      "stateMutability": "view",
      "type": "function",
      "signature": "0xdd62ed3e"
    },
    {
      "constant": true,
      "inputs": [
        {
          "name": "_addr",
          "type": "address"
        }
      ],
      "name": "isFornecedor",
      "outputs": [
        {
          "name": "",
          "type": "bool"
        }
      ],
      "payable": false,
      "stateMutability": "view",
      "type": "function",
      "signature": "0xe704a107"
    },
    {
      "constant": true,
      "inputs": [
        {
          "name": "",
          "type": "address"
        }
      ],
      "name": "pjsInfo",
      "outputs": [
        {
          "name": "cnpj",
          "type": "uint256"
        },
        {
          "name": "idSubcredito",
          "type": "uint256"
        },
        {
          "name": "salic",
          "type": "uint256"
        },
        {
          "name": "hashdeclaracao",
          "type": "string"
        },
        {
          "name": "estado",
          "type": "uint8"
        }
      ],
      "payable": false,
      "stateMutability": "view",
      "type": "function",
      "signature": "0xeb8786a3"
    },
    {
      "constant": true,
      "inputs": [
        {
          "name": "_addr",
          "type": "address"
        }
      ],
      "name": "isContaValidada",
      "outputs": [
        {
          "name": "",
          "type": "bool"
        }
      ],
      "payable": false,
      "stateMutability": "view",
      "type": "function",
      "signature": "0xefa4b969"
    },
    {
      "constant": false,
      "inputs": [
        {
          "name": "newOwner",
          "type": "address"
        }
      ],
      "name": "transferOwnership",
      "outputs": [],
      "payable": false,
      "stateMutability": "nonpayable",
      "type": "function",
      "signature": "0xf2fde38b"
    },
    {
      "anonymous": false,
      "inputs": [
        {
          "indexed": false,
          "name": "cnpj",
          "type": "uint256"
        },
        {
          "indexed": false,
          "name": "idSubcredito",
          "type": "uint256"
        },
        {
          "indexed": false,
          "name": "valor",
          "type": "uint256"
        }
      ],
      "name": "Liberacao",
      "type": "event",
      "signature": "0x47d719b82e81a39b08d84987f8ad51a5ea9a21abcce186f6e6ff9d976d108d88"
    },
    {
      "anonymous": false,
      "inputs": [
        {
          "indexed": false,
          "name": "fromCnpj",
          "type": "uint256"
        },
        {
          "indexed": false,
          "name": "fromSubcredito",
          "type": "uint256"
        },
        {
          "indexed": false,
          "name": "toCnpj",
          "type": "uint256"
        },
        {
          "indexed": false,
          "name": "valor",
          "type": "uint256"
        }
      ],
      "name": "Transferencia",
      "type": "event",
      "signature": "0xaec818078011dacff79dbaf41c20c89bfb2251fcb05054fe5122908d3889bd91"
    },
    {
      "anonymous": false,
      "inputs": [
        {
          "indexed": false,
          "name": "cnpj",
          "type": "uint256"
        },
        {
          "indexed": false,
          "name": "valor",
          "type": "uint256"
        }
      ],
      "name": "Resgate",
      "type": "event",
      "signature": "0x17a9cafb1bb84312c4e08209598c86c2844a433e998bb1bd472c696cca0c95b7"
    },
    {
      "anonymous": false,
      "inputs": [
        {
          "indexed": false,
          "name": "hashResgate",
          "type": "string"
        },
        {
          "indexed": false,
          "name": "hashComprovante",
          "type": "string"
        },
        {
          "indexed": false,
          "name": "isOk",
          "type": "bool"
        }
      ],
      "name": "LiquidacaoResgate",
      "type": "event",
      "signature": "0x98f191d7ada5335667849fbd5155b5196feea99dacc2673cc2e0388223c6533e"
    },
    {
      "anonymous": false,
      "inputs": [
        {
          "indexed": true,
          "name": "account",
          "type": "address"
        }
      ],
      "name": "MinterAdded",
      "type": "event",
      "signature": "0x6ae172837ea30b801fbfcdd4108aa1d5bf8ff775444fd70256b44e6bf3dfc3f6"
    },
    {
      "anonymous": false,
      "inputs": [
        {
          "indexed": true,
          "name": "account",
          "type": "address"
        }
      ],
      "name": "MinterRemoved",
      "type": "event",
      "signature": "0xe94479a9f7e1952cc78f2d6baab678adc1b772d936c6583def489e524cb66692"
    },
    {
      "anonymous": false,
      "inputs": [
        {
          "indexed": false,
          "name": "account",
          "type": "address"
        }
      ],
      "name": "Paused",
      "type": "event",
      "signature": "0x62e78cea01bee320cd4e420270b5ea74000d11b0c9f74754ebdbfc544b05a258"
    },
    {
      "anonymous": false,
      "inputs": [
        {
          "indexed": false,
          "name": "account",
          "type": "address"
        }
      ],
      "name": "Unpaused",
      "type": "event",
      "signature": "0x5db9ee0a495bf2e6ff9c91a7834c1ba4fdd244a5e8aa4e537bd38aeae4b073aa"
    },
    {
      "anonymous": false,
      "inputs": [
        {
          "indexed": true,
          "name": "account",
          "type": "address"
        }
      ],
      "name": "PauserAdded",
      "type": "event",
      "signature": "0x6719d08c1888103bea251a4ed56406bd0c3e69723c8a1686e017e7bbe159b6f8"
    },
    {
      "anonymous": false,
      "inputs": [
        {
          "indexed": true,
          "name": "account",
          "type": "address"
        }
      ],
      "name": "PauserRemoved",
      "type": "event",
      "signature": "0xcd265ebaf09df2871cc7bd4133404a235ba12eff2041bb89d9c714a2621c7c7e"
    },
    {
      "anonymous": false,
      "inputs": [
        {
          "indexed": true,
          "name": "from",
          "type": "address"
        },
        {
          "indexed": true,
          "name": "to",
          "type": "address"
        },
        {
          "indexed": false,
          "name": "value",
          "type": "uint256"
        }
      ],
      "name": "Transfer",
      "type": "event",
      "signature": "0xddf252ad1be2c89b69c2b068fc378daa952ba7f163c4a11628f55a4df523b3ef"
    },
    {
      "anonymous": false,
      "inputs": [
        {
          "indexed": true,
          "name": "owner",
          "type": "address"
        },
        {
          "indexed": true,
          "name": "spender",
          "type": "address"
        },
        {
          "indexed": false,
          "name": "value",
          "type": "uint256"
        }
      ],
      "name": "Approval",
      "type": "event",
      "signature": "0x8c5be1e5ebec7d5bd14f71427d1e84f3dd0314c0f7b2291e5b200ac8c7c3b925"
    },
    {
      "anonymous": false,
      "inputs": [
        {
          "indexed": false,
          "name": "endereco",
          "type": "address"
        },
        {
          "indexed": false,
          "name": "cnpj",
          "type": "uint256"
        },
        {
          "indexed": false,
          "name": "idSubcredito",
          "type": "uint256"
        },
        {
          "indexed": false,
          "name": "salic",
          "type": "uint256"
        },
        {
          "indexed": false,
          "name": "hashdeclaracao",
          "type": "string"
        }
      ],
      "name": "CadastroConta",
      "type": "event",
      "signature": "0x8ec53aa58c6aeaba77afa132c2419aac81b51cc3a70482ba0d9b207a4db9d315"
    },
    {
      "anonymous": false,
      "inputs": [
        {
          "indexed": false,
          "name": "endereco",
          "type": "address"
        },
        {
          "indexed": false,
          "name": "cnpj",
          "type": "uint256"
        },
        {
          "indexed": false,
          "name": "idSubcredito",
          "type": "uint256"
        },
        {
          "indexed": false,
          "name": "salic",
          "type": "uint256"
        },
        {
          "indexed": false,
          "name": "hashdeclaracao",
          "type": "string"
        }
      ],
      "name": "TrocaConta",
      "type": "event",
      "signature": "0x1bf55d918db6a8051eda4ecd2d786648884b24d401e7907190cf191a8da47520"
    },
    {
      "anonymous": false,
      "inputs": [
        {
          "indexed": false,
          "name": "endereco",
          "type": "address"
        }
      ],
      "name": "ValidacaoConta",
      "type": "event",
      "signature": "0x28b8b7b8f52bbe893d4290bc2a5d3328a194eceb6b3a7398737d0bbf075a1e02"
    },
    {
      "anonymous": false,
      "inputs": [
        {
          "indexed": false,
          "name": "endereco",
          "type": "address"
        }
      ],
      "name": "InvalidacaoCadastroConta",
      "type": "event",
      "signature": "0xf88096f95619381cee1f86cd4df1d8d1c46c6356a98d01e58f308fba80d51bcf"
    },
    {
      "anonymous": false,
      "inputs": [
        {
          "indexed": true,
          "name": "previousOwner",
          "type": "address"
        },
        {
          "indexed": true,
          "name": "newOwner",
          "type": "address"
        }
      ],
      "name": "OwnershipTransferred",
      "type": "event",
      "signature": "0x8be0079c531659141344cd1fd0a4f28419497f9722a3daafe3b4186f6b6457e0"
    },
    {
      "constant": true,
      "inputs": [],
      "name": "getVersao",
      "outputs": [
        {
          "name": "",
          "type": "uint256"
        }
      ],
      "payable": false,
      "stateMutability": "view",
      "type": "function",
      "signature": "0x7134c73b"
    },
    {
      "constant": false,
      "inputs": [
        {
          "name": "_to",
          "type": "address"
        },
        {
          "name": "_value",
          "type": "uint256"
        }
      ],
      "name": "transfer",
      "outputs": [
        {
          "name": "",
          "type": "bool"
        }
      ],
      "payable": false,
      "stateMutability": "nonpayable",
      "type": "function",
      "signature": "0xa9059cbb"
    },
    {
      "constant": false,
      "inputs": [
        {
          "name": "redemptionTransactionHash",
          "type": "string"
        },
        {
          "name": "receiptHash",
          "type": "string"
        },
        {
          "name": "isOk",
          "type": "bool"
        }
      ],
      "name": "notificaLiquidacaoResgate",
      "outputs": [],
      "payable": false,
      "stateMutability": "nonpayable",
      "type": "function",
      "signature": "0xc415f8df"
    },
    {
      "constant": false,
      "inputs": [
        {
          "name": "_cnpj",
          "type": "uint256"
        },
        {
          "name": "_idSubcredito",
          "type": "uint256"
        },
        {
          "name": "_salic",
          "type": "uint256"
        },
        {
          "name": "hashdeclaracao",
          "type": "string"
        }
      ],
      "name": "cadastra",
      "outputs": [],
      "payable": false,
      "stateMutability": "nonpayable",
      "type": "function",
      "signature": "0xe1ebf4e0"
    },
    {
      "constant": false,
      "inputs": [
        {
          "name": "_cnpj",
          "type": "uint256"
        },
        {
          "name": "_idSubcredito",
          "type": "uint256"
        },
        {
          "name": "_salic",
          "type": "uint256"
        },
        {
          "name": "_hashdeclaracao",
          "type": "string"
        }
      ],
      "name": "troca",
      "outputs": [],
      "payable": false,
      "stateMutability": "nonpayable",
      "type": "function",
      "signature": "0xd04df6b3"
    },
    {
      "constant": false,
      "inputs": [
        {
          "name": "from",
          "type": "address"
        },
        {
          "name": "to",
          "type": "address"
        },
        {
          "name": "value",
          "type": "uint256"
        }
      ],
      "name": "transferFrom",
      "outputs": [
        {
          "name": "",
          "type": "bool"
        }
      ],
      "payable": false,
      "stateMutability": "nonpayable",
      "type": "function",
      "signature": "0x23b872dd"
    },
    {
      "constant": false,
      "inputs": [
        {
          "name": "spender",
          "type": "address"
        },
        {
          "name": "value",
          "type": "uint256"
        }
      ],
      "name": "approve",
      "outputs": [
        {
          "name": "",
          "type": "bool"
        }
      ],
      "payable": false,
      "stateMutability": "nonpayable",
      "type": "function",
      "signature": "0x095ea7b3"
    },
    {
      "constant": false,
      "inputs": [
        {
          "name": "spender",
          "type": "address"
        },
        {
          "name": "addedValue",
          "type": "uint256"
        }
      ],
      "name": "increaseAllowance",
      "outputs": [
        {
          "name": "success",
          "type": "bool"
        }
      ],
      "payable": false,
      "stateMutability": "nonpayable",
      "type": "function",
      "signature": "0x39509351"
    },
    {
      "constant": false,
      "inputs": [
        {
          "name": "spender",
          "type": "address"
        },
        {
          "name": "subtractedValue",
          "type": "uint256"
        }
      ],
      "name": "decreaseAllowance",
      "outputs": [
        {
          "name": "success",
          "type": "bool"
        }
      ],
      "payable": false,
      "stateMutability": "nonpayable",
      "type": "function",
      "signature": "0xa457c2d7"
    },
    {
      "constant": false,
      "inputs": [
        {
          "name": "to",
          "type": "address"
        },
        {
          "name": "value",
          "type": "uint256"
        }
      ],
      "name": "mint",
      "outputs": [
        {
          "name": "",
          "type": "bool"
        }
      ],
      "payable": false,
      "stateMutability": "nonpayable",
      "type": "function",
      "signature": "0x40c10f19"
    },
    {
      "constant": false,
      "inputs": [
        {
          "name": "from",
          "type": "address"
        },
        {
          "name": "value",
          "type": "uint256"
        }
      ],
      "name": "burnFrom",
      "outputs": [],
      "payable": false,
      "stateMutability": "nonpayable",
      "type": "function",
      "signature": "0x79cc6790"
    }
  ],
  "bytecode": "0x608060405263013414ce600d556040805190810160405280600a81526020017f424e444553546f6b656e000000000000000000000000000000000000000000008152506040805190810160405280600381526020017f424e4400000000000000000000000000000000000000000000000000000000008152506002336000806101000a81548173ffffffffffffffffffffffffffffffffffffffff021916908373ffffffffffffffffffffffffffffffffffffffff1602179055506000809054906101000a900473ffffffffffffffffffffffffffffffffffffffff1673ffffffffffffffffffffffffffffffffffffffff16600073ffffffffffffffffffffffffffffffffffffffff167f8be0079c531659141344cd1fd0a4f28419497f9722a3daafe3b4186f6b6457e060405160405180910390a333600160006101000a81548173ffffffffffffffffffffffffffffffffffffffff021916908373ffffffffffffffffffffffffffffffffffffffff16021790555062000191336200021c640100000000026401000000009004565b6000600860006101000a81548160ff0219169083151502179055508260099080519060200190620001c492919062000448565b5081600a9080519060200190620001dd92919062000448565b5080600b60006101000a81548160ff021916908360ff160217905550505050620002163362000286640100000000026401000000009004565b620004f7565b62000240816007620002f06401000000000262004d60179091906401000000009004565b8073ffffffffffffffffffffffffffffffffffffffff167f6719d08c1888103bea251a4ed56406bd0c3e69723c8a1686e017e7bbe159b6f860405160405180910390a250565b620002aa81600c620002f06401000000000262004d60179091906401000000009004565b8073ffffffffffffffffffffffffffffffffffffffff167f6ae172837ea30b801fbfcdd4108aa1d5bf8ff775444fd70256b44e6bf3dfc3f660405160405180910390a250565b600073ffffffffffffffffffffffffffffffffffffffff168173ffffffffffffffffffffffffffffffffffffffff16141515156200032d57600080fd5b620003488282620003b3640100000000026401000000009004565b1515156200035557600080fd5b60018260000160008373ffffffffffffffffffffffffffffffffffffffff1673ffffffffffffffffffffffffffffffffffffffff16815260200190815260200160002060006101000a81548160ff0219169083151502179055505050565b60008073ffffffffffffffffffffffffffffffffffffffff168273ffffffffffffffffffffffffffffffffffffffff1614151515620003f157600080fd5b8260000160008373ffffffffffffffffffffffffffffffffffffffff1673ffffffffffffffffffffffffffffffffffffffff16815260200190815260200160002060009054906101000a900460ff16905092915050565b828054600181600116156101000203166002900490600052602060002090601f016020900481019282601f106200048b57805160ff1916838001178555620004bc565b82800160010185558215620004bc579182015b82811115620004bb5782518255916020019190600101906200049e565b5b509050620004cb9190620004cf565b5090565b620004f491905b80821115620004f0576000816000905550600101620004d6565b5090565b90565b614f0280620005076000396000f3fe60806040526004361061025b576000357c0100000000000000000000000000000000000000000000000000000000900463ffffffff16806298cbac1461026057806306fdde03146102e5578063095ea7b314610375578063097ec48c146103e85780631202761c146104ce57806318160ddd1461053757806323b872dd14610562578063313ce567146105f557806332fe141a14610626578063348da3f2146106f057806339509351146107595780633f4ba83a146107cc57806340c10f19146107e357806342966c681461085657806346dbc6641461089157806346fbf68e146108fa5780635835e281146109635780635c975abb146109cc57806368b183d4146109fb5780636ef8d66d14610a6457806370a0823114610a7b5780637134c73b14610ae0578063715018a614610b0b5780637450cf7714610b2257806379cc679014610b8b57806382dc1ec414610be65780638456cb5914610c3757806385fecf9b14610c4e57806388137e3414610cb757806388e7238b14610d1c5780638da5cb5b14610d6d5780638f32d59b14610dc457806395d89b4114610df3578063983b2d5614610e835780639865027514610ed4578063a457c2d714610eeb578063a9059cbb14610f5e578063aa271e1a14610fd1578063b7404ff51461103a578063be49b78d1461108b578063c01ed210146110f0578063c415f8df14611159578063d04df6b3146112c4578063d58b54c9146113aa578063dd62ed3e14611492578063e1ebf4e014611517578063e704a107146115fd578063eb8786a314611666578063efa4b9691461175a578063f2fde38b146117c3575b600080fd5b34801561026c57600080fd5b506102a36004803603604081101561028357600080fd5b810190808035906020019092919080359060200190929190505050611814565b604051808273ffffffffffffffffffffffffffffffffffffffff1673ffffffffffffffffffffffffffffffffffffffff16815260200191505060405180910390f35b3480156102f157600080fd5b506102fa611863565b6040518080602001828103825283818151815260200191508051906020019080838360005b8381101561033a57808201518184015260208101905061031f565b50505050905090810190601f1680156103675780820380516001836020036101000a031916815260200191505b509250505060405180910390f35b34801561038157600080fd5b506103ce6004803603604081101561039857600080fd5b81019080803573ffffffffffffffffffffffffffffffffffffffff16906020019092919080359060200190929190505050611905565b604051808215151515815260200191505060405180910390f35b3480156103f457600080fd5b506104376004803603602081101561040b57600080fd5b81019080803573ffffffffffffffffffffffffffffffffffffffff16906020019092919050505061199f565b6040518086815260200185815260200184815260200180602001838152602001828103825284818151815260200191508051906020019080838360005b8381101561048f578082015181840152602081019050610474565b50505050905090810190601f1680156104bc5780820380516001836020036101000a031916815260200191505b50965050505050505060405180910390f35b3480156104da57600080fd5b5061051d600480360360208110156104f157600080fd5b81019080803573ffffffffffffffffffffffffffffffffffffffff169060200190929190505050611bbd565b604051808215151515815260200191505060405180910390f35b34801561054357600080fd5b5061054c611bf0565b6040518082815260200191505060405180910390f35b34801561056e57600080fd5b506105db6004803603606081101561058557600080fd5b81019080803573ffffffffffffffffffffffffffffffffffffffff169060200190929190803573ffffffffffffffffffffffffffffffffffffffff16906020019092919080359060200190929190505050611bfa565b604051808215151515815260200191505060405180910390f35b34801561060157600080fd5b5061060a611cbb565b604051808260ff1660ff16815260200191505060405180910390f35b34801561063257600080fd5b506106756004803603602081101561064957600080fd5b81019080803573ffffffffffffffffffffffffffffffffffffffff169060200190929190505050611cd2565b6040518080602001828103825283818151815260200191508051906020019080838360005b838110156106b557808201518184015260208101905061069a565b50505050905090810190601f1680156106e25780820380516001836020036101000a031916815260200191505b509250505060405180910390f35b3480156106fc57600080fd5b5061073f6004803603602081101561071357600080fd5b81019080803573ffffffffffffffffffffffffffffffffffffffff169060200190929190505050612053565b604051808215151515815260200191505060405180910390f35b34801561076557600080fd5b506107b26004803603604081101561077c57600080fd5b81019080803573ffffffffffffffffffffffffffffffffffffffff169060200190929190803590602001909291905050506120d6565b604051808215151515815260200191505060405180910390f35b3480156107d857600080fd5b506107e1612196565b005b3480156107ef57600080fd5b5061083c6004803603604081101561080657600080fd5b81019080803573ffffffffffffffffffffffffffffffffffffffff16906020019092919080359060200190929190505050612245565b604051808215151515815260200191505060405180910390f35b34801561086257600080fd5b5061088f6004803603602081101561087957600080fd5b81019080803590602001909291905050506122d7565b005b34801561089d57600080fd5b506108e0600480360360208110156108b457600080fd5b81019080803573ffffffffffffffffffffffffffffffffffffffff1690602001909291905050506122e4565b604051808215151515815260200191505060405180910390f35b34801561090657600080fd5b506109496004803603602081101561091d57600080fd5b81019080803573ffffffffffffffffffffffffffffffffffffffff169060200190929190505050612323565b604051808215151515815260200191505060405180910390f35b34801561096f57600080fd5b506109b26004803603602081101561098657600080fd5b81019080803573ffffffffffffffffffffffffffffffffffffffff169060200190929190505050612340565b604051808215151515815260200191505060405180910390f35b3480156109d857600080fd5b506109e16123b2565b604051808215151515815260200191505060405180910390f35b348015610a0757600080fd5b50610a4a60048036036020811015610a1e57600080fd5b81019080803573ffffffffffffffffffffffffffffffffffffffff1690602001909291905050506123c9565b604051808215151515815260200191505060405180910390f35b348015610a7057600080fd5b50610a79612431565b005b348015610a8757600080fd5b50610aca60048036036020811015610a9e57600080fd5b81019080803573ffffffffffffffffffffffffffffffffffffffff16906020019092919050505061243c565b6040518082815260200191505060405180910390f35b348015610aec57600080fd5b50610af5612485565b6040518082815260200191505060405180910390f35b348015610b1757600080fd5b50610b2061248f565b005b348015610b2e57600080fd5b50610b7160048036036020811015610b4557600080fd5b81019080803573ffffffffffffffffffffffffffffffffffffffff169060200190929190505050612561565b604051808215151515815260200191505060405180910390f35b348015610b9757600080fd5b50610be460048036036040811015610bae57600080fd5b81019080803573ffffffffffffffffffffffffffffffffffffffff16906020019092919080359060200190929190505050612639565b005b348015610bf257600080fd5b50610c3560048036036020811015610c0957600080fd5b81019080803573ffffffffffffffffffffffffffffffffffffffff1690602001909291905050506126b3565b005b348015610c4357600080fd5b50610c4c6126d3565b005b348015610c5a57600080fd5b50610c9d60048036036020811015610c7157600080fd5b81019080803573ffffffffffffffffffffffffffffffffffffffff169060200190929190505050612783565b604051808215151515815260200191505060405180910390f35b348015610cc357600080fd5b50610d0660048036036020811015610cda57600080fd5b81019080803573ffffffffffffffffffffffffffffffffffffffff1690602001909291905050506127dd565b6040518082815260200191505060405180910390f35b348015610d2857600080fd5b50610d6b60048036036020811015610d3f57600080fd5b81019080803573ffffffffffffffffffffffffffffffffffffffff169060200190929190505050612829565b005b348015610d7957600080fd5b50610d82612906565b604051808273ffffffffffffffffffffffffffffffffffffffff1673ffffffffffffffffffffffffffffffffffffffff16815260200191505060405180910390f35b348015610dd057600080fd5b50610dd961292f565b604051808215151515815260200191505060405180910390f35b348015610dff57600080fd5b50610e08612986565b6040518080602001828103825283818151815260200191508051906020019080838360005b83811015610e48578082015181840152602081019050610e2d565b50505050905090810190601f168015610e755780820380516001836020036101000a031916815260200191505b509250505060405180910390f35b348015610e8f57600080fd5b50610ed260048036036020811015610ea657600080fd5b81019080803573ffffffffffffffffffffffffffffffffffffffff169060200190929190505050612a28565b005b348015610ee057600080fd5b50610ee9612a48565b005b348015610ef757600080fd5b50610f4460048036036040811015610f0e57600080fd5b81019080803573ffffffffffffffffffffffffffffffffffffffff16906020019092919080359060200190929190505050612a53565b604051808215151515815260200191505060405180910390f35b348015610f6a57600080fd5b50610fb760048036036040811015610f8157600080fd5b81019080803573ffffffffffffffffffffffffffffffffffffffff16906020019092919080359060200190929190505050612b13565b604051808215151515815260200191505060405180910390f35b348015610fdd57600080fd5b5061102060048036036020811015610ff457600080fd5b81019080803573ffffffffffffffffffffffffffffffffffffffff16906020019092919050505061302f565b604051808215151515815260200191505060405180910390f35b34801561104657600080fd5b506110896004803603602081101561105d57600080fd5b81019080803573ffffffffffffffffffffffffffffffffffffffff16906020019092919050505061304c565b005b34801561109757600080fd5b506110da600480360360208110156110ae57600080fd5b81019080803573ffffffffffffffffffffffffffffffffffffffff1690602001909291905050506130a3565b6040518082815260200191505060405180910390f35b3480156110fc57600080fd5b5061113f6004803603602081101561111357600080fd5b81019080803573ffffffffffffffffffffffffffffffffffffffff1690602001909291905050506130ef565b604051808215151515815260200191505060405180910390f35b34801561116557600080fd5b506112c26004803603606081101561117c57600080fd5b810190808035906020019064010000000081111561119957600080fd5b8201836020820111156111ab57600080fd5b803590602001918460018302840111640100000000831117156111cd57600080fd5b91908080601f016020809104026020016040519081016040528093929190818152602001838380828437600081840152601f19601f8201169050808301925050505050505091929192908035906020019064010000000081111561123057600080fd5b82018360208201111561124257600080fd5b8035906020019184600183028401116401000000008311171561126457600080fd5b91908080601f016020809104026020016040519081016040528093929190818152602001838380828437600081840152601f19601f820116905080830192505050505050509192919290803515159060200190929190505050613172565b005b3480156112d057600080fd5b506113a8600480360360808110156112e757600080fd5b810190808035906020019092919080359060200190929190803590602001909291908035906020019064010000000081111561132257600080fd5b82018360208201111561133457600080fd5b8035906020019184600183028401116401000000008311171561135657600080fd5b91908080601f016020809104026020016040519081016040528093929190818152602001838380828437600081840152601f19601f820116905080830192505050505050509192919290505050613371565b005b3480156113b657600080fd5b50611490600480360360408110156113cd57600080fd5b81019080803573ffffffffffffffffffffffffffffffffffffffff1690602001909291908035906020019064010000000081111561140a57600080fd5b82018360208201111561141c57600080fd5b8035906020019184600183028401116401000000008311171561143e57600080fd5b91908080601f016020809104026020016040519081016040528093929190818152602001838380828437600081840152601f19601f8201169050808301925050505050505091929192905050506133d9565b005b34801561149e57600080fd5b50611501600480360360408110156114b557600080fd5b81019080803573ffffffffffffffffffffffffffffffffffffffff169060200190929190803573ffffffffffffffffffffffffffffffffffffffff169060200190929190505050613783565b6040518082815260200191505060405180910390f35b34801561152357600080fd5b506115fb6004803603608081101561153a57600080fd5b810190808035906020019092919080359060200190929190803590602001909291908035906020019064010000000081111561157557600080fd5b82018360208201111561158757600080fd5b803590602001918460018302840111640100000000831117156115a957600080fd5b91908080601f016020809104026020016040519081016040528093929190818152602001838380828437600081840152601f19601f82011690508083019250505050505050919291929050505061380a565b005b34801561160957600080fd5b5061164c6004803603602081101561162057600080fd5b81019080803573ffffffffffffffffffffffffffffffffffffffff169060200190929190505050613838565b604051808215151515815260200191505060405180910390f35b34801561167257600080fd5b506116b56004803603602081101561168957600080fd5b81019080803573ffffffffffffffffffffffffffffffffffffffff1690602001909291905050506138b6565b60405180868152602001858152602001848152602001806020018360048111156116db57fe5b60ff168152602001828103825284818151815260200191508051906020019080838360005b8381101561171b578082015181840152602081019050611700565b50505050905090810190601f1680156117485780820380516001836020036101000a031916815260200191505b50965050505050505060405180910390f35b34801561176657600080fd5b506117a96004803603602081101561177d57600080fd5b81019080803573ffffffffffffffffffffffffffffffffffffffff169060200190929190505050613991565b604051808215151515815260200191505060405180910390f35b3480156117cf57600080fd5b50611812600480360360208110156117e657600080fd5b81019080803573ffffffffffffffffffffffffffffffffffffffff169060200190929190505050613a03565b005b600060036000848152602001908152602001600020600083815260200190815260200160002060009054906101000a900473ffffffffffffffffffffffffffffffffffffffff16905092915050565b606060098054600181600116156101000203166002900480601f0160208091040260200160405190810160405280929190818152602001828054600181600116156101000203166002900480156118fb5780601f106118d0576101008083540402835291602001916118fb565b820191906000526020600020905b8154815290600101906020018083116118de57829003601f168201915b5050505050905090565b6000600860009054906101000a900460ff1615151561192357600080fd5b60001515611999576040517f08c379a000000000000000000000000000000000000000000000000000000000815260040180806020018281038252601c8152602001807f556e737570706f72746564206d6574686f64202d20617070726f76650000000081525060200191505060405180910390fd5b92915050565b600080600060606000600260008773ffffffffffffffffffffffffffffffffffffffff1673ffffffffffffffffffffffffffffffffffffffff16815260200190815260200160002060000154600260008873ffffffffffffffffffffffffffffffffffffffff1673ffffffffffffffffffffffffffffffffffffffff16815260200190815260200160002060010154600260008973ffffffffffffffffffffffffffffffffffffffff1673ffffffffffffffffffffffffffffffffffffffff16815260200190815260200160002060020154600260008a73ffffffffffffffffffffffffffffffffffffffff1673ffffffffffffffffffffffffffffffffffffffff168152602001908152602001600020600301600260008b73ffffffffffffffffffffffffffffffffffffffff1673ffffffffffffffffffffffffffffffffffffffff16815260200190815260200160002060040160009054906101000a900460ff166004811115611b0e57fe5b818054600181600116156101000203166002900480601f016020809104026020016040519081016040528092919081815260200182805460018160011615610100020316600290048015611ba35780601f10611b7857610100808354040283529160200191611ba3565b820191906000526020600020905b815481529060010190602001808311611b8657829003601f168201915b505050505091509450945094509450945091939590929450565b6000611bc8826122e4565b80611bd85750611bd782612783565b5b15611be65760019050611beb565b600090505b919050565b6000600654905090565b6000600860009054906101000a900460ff16151515611c1857600080fd5b60001515611cb4576040517f08c379a00000000000000000000000000000000000000000000000000000000081526004018080602001828103825260218152602001807f556e737570706f72746564206d6574686f64202d207472616e7366657246726f81526020017f6d0000000000000000000000000000000000000000000000000000000000000081525060400191505060405180910390fd5b9392505050565b6000600b60009054906101000a900460ff16905090565b6060611cdd826122e4565b15611d1f576040805190810160405280601781526020017f436f6e746120526573657276616461202d20424e444553000000000000000000815250905061204e565b611d2882612783565b15611d9157606060405190810160405280602881526020017f436f6e746120526573657276616461202d204c6971756964616e746520646f2081526020017f636f6e747261746f000000000000000000000000000000000000000000000000815250905061204e565b611d9a82613991565b15611ddc576040805190810160405280600881526020017f56616c6964616461000000000000000000000000000000000000000000000000815250905061204e565b60036004811115611de957fe5b600260008473ffffffffffffffffffffffffffffffffffffffff1673ffffffffffffffffffffffffffffffffffffffff16815260200190815260200160002060040160009054906101000a900460ff166004811115611e4457fe5b1415611e87576040805190810160405280601c81526020017f436f6e746120696e76616c6964616461206e6f20436164617374726f00000000815250905061204e565b600480811115611e9357fe5b600260008473ffffffffffffffffffffffffffffffffffffffff1673ffffffffffffffffffffffffffffffffffffffff16815260200190815260200160002060040160009054906101000a900460ff166004811115611eee57fe5b1415611f5857606060405190810160405280602381526020017f436f6e746120696e76616c696461646120706f722054726f636120646520436f81526020017f6e74610000000000000000000000000000000000000000000000000000000000815250905061204e565b611f6182612340565b15611fca57606060405190810160405280602281526020017f416775617264616e646f2076616c696461c3a7c3a36f20646f2043616461737481526020017f726f000000000000000000000000000000000000000000000000000000000000815250905061204e565b611fd382612561565b15612015576040805190810160405280600b81526020017f446973706f6ec3ad76656c000000000000000000000000000000000000000000815250905061204e565b6040805190810160405280600481526020017f4572726f0000000000000000000000000000000000000000000000000000000081525090505b919050565b600061205e82613838565b80156120cf57506002600481111561207257fe5b600260008473ffffffffffffffffffffffffffffffffffffffff1673ffffffffffffffffffffffffffffffffffffffff16815260200190815260200160002060040160009054906101000a900460ff1660048111156120cd57fe5b145b9050919050565b6000600860009054906101000a900460ff161515156120f457600080fd5b60001515612190576040517f08c379a00000000000000000000000000000000000000000000000000000000081526004018080602001828103825260268152602001807f556e737570706f72746564206d6574686f64202d20696e637265617365416c6c81526020017f6f77616e6365000000000000000000000000000000000000000000000000000081525060400191505060405180910390fd5b92915050565b61219f33612323565b15156121aa57600080fd5b600860009054906101000a900460ff1615156121c557600080fd5b6000600860006101000a81548160ff0219169083151502179055507f5db9ee0a495bf2e6ff9c91a7834c1ba4fdd244a5e8aa4e537bd38aeae4b073aa33604051808273ffffffffffffffffffffffffffffffffffffffff1673ffffffffffffffffffffffffffffffffffffffff16815260200191505060405180910390a1565b60006122503361302f565b151561225b57600080fd5b600015156122d1576040517f08c379a00000000000000000000000000000000000000000000000000000000081526004018080602001828103825260198152602001807f556e737570706f72746564206d6574686f64202d206d696e740000000000000081525060200191505060405180910390fd5b92915050565b6122e13382613a22565b50565b60006122ee612906565b73ffffffffffffffffffffffffffffffffffffffff168273ffffffffffffffffffffffffffffffffffffffff16149050919050565b6000612339826007613b7890919063ffffffff16565b9050919050565b60006001600481111561234f57fe5b600260008473ffffffffffffffffffffffffffffffffffffffff1673ffffffffffffffffffffffffffffffffffffffff16815260200190815260200160002060040160009054906101000a900460ff1660048111156123aa57fe5b149050919050565b6000600860009054906101000a900460ff16905090565b60006123d482611bbd565b156123e2576000905061242c565b6000600260008473ffffffffffffffffffffffffffffffffffffffff1673ffffffffffffffffffffffffffffffffffffffff16815260200190815260200160002060010154141590505b919050565b61243a33613c0c565b565b6000600460008373ffffffffffffffffffffffffffffffffffffffff1673ffffffffffffffffffffffffffffffffffffffff168152602001908152602001600020549050919050565b6000600d54905090565b61249761292f565b15156124a257600080fd5b600073ffffffffffffffffffffffffffffffffffffffff166000809054906101000a900473ffffffffffffffffffffffffffffffffffffffff1673ffffffffffffffffffffffffffffffffffffffff167f8be0079c531659141344cd1fd0a4f28419497f9722a3daafe3b4186f6b6457e060405160405180910390a360008060006101000a81548173ffffffffffffffffffffffffffffffffffffffff021916908373ffffffffffffffffffffffffffffffffffffffff160217905550565b600061256c82611bbd565b1561257a5760009050612634565b6000600260008473ffffffffffffffffffffffffffffffffffffffff1673ffffffffffffffffffffffffffffffffffffffff168152602001908152602001600020600001541480156126315750600060048111156125d457fe5b600260008473ffffffffffffffffffffffffffffffffffffffff1673ffffffffffffffffffffffffffffffffffffffff16815260200190815260200160002060040160009054906101000a900460ff16600481111561262f57fe5b145b90505b919050565b600015156126af576040517f08c379a000000000000000000000000000000000000000000000000000000000815260040180806020018281038252601d8152602001807f556e737570706f72746564206d6574686f64202d206275726e46726f6d00000081525060200191505060405180910390fd5b5050565b6126bc33612323565b15156126c757600080fd5b6126d081613c66565b50565b6126dc33612323565b15156126e757600080fd5b600860009054906101000a900460ff1615151561270357600080fd5b6001600860006101000a81548160ff0219169083151502179055507f62e78cea01bee320cd4e420270b5ea74000d11b0c9f74754ebdbfc544b05a25833604051808273ffffffffffffffffffffffffffffffffffffffff1673ffffffffffffffffffffffffffffffffffffffff16815260200191505060405180910390a1565b6000600160009054906101000a900473ffffffffffffffffffffffffffffffffffffffff1673ffffffffffffffffffffffffffffffffffffffff168273ffffffffffffffffffffffffffffffffffffffff16149050919050565b6000600260008373ffffffffffffffffffffffffffffffffffffffff1673ffffffffffffffffffffffffffffffffffffffff168152602001908152602001600020600101549050919050565b61283161292f565b151561283c57600080fd5b6003600260008373ffffffffffffffffffffffffffffffffffffffff1673ffffffffffffffffffffffffffffffffffffffff16815260200190815260200160002060040160006101000a81548160ff0219169083600481111561289b57fe5b02179055507ff88096f95619381cee1f86cd4df1d8d1c46c6356a98d01e58f308fba80d51bcf81604051808273ffffffffffffffffffffffffffffffffffffffff1673ffffffffffffffffffffffffffffffffffffffff16815260200191505060405180910390a150565b60008060009054906101000a900473ffffffffffffffffffffffffffffffffffffffff16905090565b60008060009054906101000a900473ffffffffffffffffffffffffffffffffffffffff1673ffffffffffffffffffffffffffffffffffffffff163373ffffffffffffffffffffffffffffffffffffffff1614905090565b6060600a8054600181600116156101000203166002900480601f016020809104026020016040519081016040528092919081815260200182805460018160011615610100020316600290048015612a1e5780601f106129f357610100808354040283529160200191612a1e565b820191906000526020600020905b815481529060010190602001808311612a0157829003601f168201915b5050505050905090565b612a313361302f565b1515612a3c57600080fd5b612a4581613cc0565b50565b612a5133613d1a565b565b6000600860009054906101000a900460ff16151515612a7157600080fd5b60001515612b0d576040517f08c379a00000000000000000000000000000000000000000000000000000000081526004018080602001828103825260268152602001807f556e737570706f72746564206d6574686f64202d206465637265617365416c6c81526020017f6f77616e6365000000000000000000000000000000000000000000000000000081525060400191505060405180910390fd5b92915050565b6000600860009054906101000a900460ff16151515612b3157600080fd5b60003390508373ffffffffffffffffffffffffffffffffffffffff168173ffffffffffffffffffffffffffffffffffffffff1614151515612c00576040517f08c379a00000000000000000000000000000000000000000000000000000000081526004018080602001828103825260288152602001807f4ec3a36f20706f6465207472616e73666572697220746f6b656e20706172612081526020017f7369206d65736d6f00000000000000000000000000000000000000000000000081525060400191505060405180910390fd5b612c09816122e4565b15612d1757612c17846130ef565b1515612cb1576040517f08c379a000000000000000000000000000000000000000000000000000000000815260040180806020018281038252603d8152602001807f4f20656e64657265c3a76f206ec3a36f2070657274656e6365206120756d206381526020017f6c69656e7465206f75206ec3a36f20657374c3a12076616c696461646100000081525060400191505060405180910390fd5b612cbb8484613d74565b7f47d719b82e81a39b08d84987f8ad51a5ea9a21abcce186f6e6ff9d976d108d88612ce5856130a3565b612cee866127dd565b8560405180848152602001838152602001828152602001935050505060405180910390a1613024565b612d20846122e4565b15612e4457612d2e81612053565b1515612dee576040517f08c379a00000000000000000000000000000000000000000000000000000000081526004018080602001828103825260498152602001807f4120636f6e746120646f20656e64657265c3a76f206ec3a36f2070657274656e81526020017f6365206120756d20666f726e656365646f72206f75206ec3a36f20657374c3a181526020017f2076616c6964616461000000000000000000000000000000000000000000000081525060600191505060405180910390fd5b612df88184613a22565b7f17a9cafb1bb84312c4e08209598c86c2844a433e998bb1bd472c696cca0c95b7612e22826130a3565b84604051808381526020018281526020019250505060405180910390a1613023565b612e4d816130ef565b1515612ee7576040517f08c379a000000000000000000000000000000000000000000000000000000000815260040180806020018281038252603d8152602001807f4f20656e64657265c3a76f206ec3a36f2070657274656e6365206120756d206381526020017f6c69656e7465206f75206ec3a36f20657374c3a12076616c696461646100000081525060400191505060405180910390fd5b612ef084612053565b1515612fb0576040517f08c379a00000000000000000000000000000000000000000000000000000000081526004018080602001828103825260498152602001807f4120636f6e746120646f20656e64657265c3a76f206ec3a36f2070657274656e81526020017f6365206120756d20666f726e656365646f72206f75206ec3a36f20657374c3a181526020017f2076616c6964616461000000000000000000000000000000000000000000000081525060600191505060405180910390fd5b612fbb338585613eca565b7faec818078011dacff79dbaf41c20c89bfb2251fcb05054fe5122908d3889bd91612fe5826130a3565b612fee836127dd565b612ff7876130a3565b866040518085815260200184815260200183815260200182815260200194505050505060405180910390a15b5b600191505092915050565b600061304582600c613b7890919063ffffffff16565b9050919050565b61305461292f565b151561305f57600080fd5b80600160006101000a81548173ffffffffffffffffffffffffffffffffffffffff021916908373ffffffffffffffffffffffffffffffffffffffff16021790555050565b6000600260008373ffffffffffffffffffffffffffffffffffffffff1673ffffffffffffffffffffffffffffffffffffffff168152602001908152602001600020600001549050919050565b60006130fa826123c9565b801561316b57506002600481111561310e57fe5b600260008473ffffffffffffffffffffffffffffffffffffffff1673ffffffffffffffffffffffffffffffffffffffff16815260200190815260200160002060040160009054906101000a900460ff16600481111561316957fe5b145b9050919050565b600860009054906101000a900460ff1615151561318e57600080fd5b61319733612783565b1515613257576040517f08c379a00000000000000000000000000000000000000000000000000000000081526004018080602001828103825260548152602001807f41206c697175696461c3a7c3a36f2073c3b3206ec3a36f20706f64652073657281526020017f207265616c697a6164612070656c6f20656e64657265c3a76f2071756520737581526020017f626d657465752061207472616e7361c3a7c3a36f00000000000000000000000081525060600191505060405180910390fd5b7f98f191d7ada5335667849fbd5155b5196feea99dacc2673cc2e0388223c6533e83838360405180806020018060200184151515158152602001838103835286818151815260200191508051906020019080838360005b838110156132c95780820151818401526020810190506132ae565b50505050905090810190601f1680156132f65780820380516001836020036101000a031916815260200191505b50838103825285818151815260200191508051906020019080838360005b8381101561332f578082015181840152602081019050613314565b50505050905090810190601f16801561335c5780820380516001836020036101000a031916815260200191505b509550505050505060405180910390a1505050565b600860009054906101000a900460ff1615151561338d57600080fd5b60006133998585611814565b905060003390506133ac8686868661409a565b60006133b78361243c565b11156133d1576133d082826133cb8561243c565b613eca565b5b505050505050565b6133e161292f565b15156133ec57600080fd5b600160048111156133f957fe5b600260008473ffffffffffffffffffffffffffffffffffffffff1673ffffffffffffffffffffffffffffffffffffffff16815260200190815260200160002060040160009054906101000a900460ff16600481111561345457fe5b1415156134ef576040517f08c379a00000000000000000000000000000000000000000000000000000000081526004018080602001828103825260368152602001807f4120636f6e74612070726563697361206573746172206e6f2065737461646f2081526020017f416775617264616e646f2056616c696461c3a7c3a36f0000000000000000000081525060400191505060405180910390fd5b806040516020018082805190602001908083835b6020831015156135285780518252602082019150602081019050602083039250613503565b6001836020036101000a03801982511681845116808217855250505050505090500191505060405160208183030381529060405280519060200120600260008473ffffffffffffffffffffffffffffffffffffffff1673ffffffffffffffffffffffffffffffffffffffff16815260200190815260200160002060030160405160200180828054600181600116156101000203166002900480156136035780601f106135e1576101008083540402835291820191613603565b820191906000526020600020905b8154815290600101906020018083116135ef575b5050915050604051602081830303815290604052805190602001201415156136b9576040517f08c379a00000000000000000000000000000000000000000000000000000000081526004018080602001828103825260288152602001807f4f206861736820726563656269646f20c3a9206469666572656e746520646f2081526020017f657370657261646f00000000000000000000000000000000000000000000000081525060400191505060405180910390fd5b60028060008473ffffffffffffffffffffffffffffffffffffffff1673ffffffffffffffffffffffffffffffffffffffff16815260200190815260200160002060040160006101000a81548160ff0219169083600481111561371757fe5b02179055507f28b8b7b8f52bbe893d4290bc2a5d3328a194eceb6b3a7398737d0bbf075a1e0282604051808273ffffffffffffffffffffffffffffffffffffffff1673ffffffffffffffffffffffffffffffffffffffff16815260200191505060405180910390a15050565b6000600560008473ffffffffffffffffffffffffffffffffffffffff1673ffffffffffffffffffffffffffffffffffffffff16815260200190815260200160002060008373ffffffffffffffffffffffffffffffffffffffff1673ffffffffffffffffffffffffffffffffffffffff16815260200190815260200160002054905092915050565b600860009054906101000a900460ff1615151561382657600080fd5b613832848484846147a9565b50505050565b600061384382611bbd565b1561385157600090506138b1565b61385a82612561565b1561386857600090506138b1565b6000600260008473ffffffffffffffffffffffffffffffffffffffff1673ffffffffffffffffffffffffffffffffffffffff168152602001908152602001600020600101541490505b919050565b6002602052806000526040600020600091509050806000015490806001015490806002015490806003018054600181600116156101000203166002900480601f0160208091040260200160405190810160405280929190818152602001828054600181600116156101000203166002900480156139745780601f1061394957610100808354040283529160200191613974565b820191906000526020600020905b81548152906001019060200180831161395757829003601f168201915b5050505050908060040160009054906101000a900460ff16905085565b6000600260048111156139a057fe5b600260008473ffffffffffffffffffffffffffffffffffffffff1673ffffffffffffffffffffffffffffffffffffffff16815260200190815260200160002060040160009054906101000a900460ff1660048111156139fb57fe5b149050919050565b613a0b61292f565b1515613a1657600080fd5b613a1f81614b95565b50565b600073ffffffffffffffffffffffffffffffffffffffff168273ffffffffffffffffffffffffffffffffffffffff1614151515613a5e57600080fd5b613a7381600654614c8f90919063ffffffff16565b600681905550613acb81600460008573ffffffffffffffffffffffffffffffffffffffff1673ffffffffffffffffffffffffffffffffffffffff16815260200190815260200160002054614c8f90919063ffffffff16565b600460008473ffffffffffffffffffffffffffffffffffffffff1673ffffffffffffffffffffffffffffffffffffffff16815260200190815260200160002081905550600073ffffffffffffffffffffffffffffffffffffffff168273ffffffffffffffffffffffffffffffffffffffff167fddf252ad1be2c89b69c2b068fc378daa952ba7f163c4a11628f55a4df523b3ef836040518082815260200191505060405180910390a35050565b60008073ffffffffffffffffffffffffffffffffffffffff168273ffffffffffffffffffffffffffffffffffffffff1614151515613bb557600080fd5b8260000160008373ffffffffffffffffffffffffffffffffffffffff1673ffffffffffffffffffffffffffffffffffffffff16815260200190815260200160002060009054906101000a900460ff16905092915050565b613c20816007614cb190919063ffffffff16565b8073ffffffffffffffffffffffffffffffffffffffff167fcd265ebaf09df2871cc7bd4133404a235ba12eff2041bb89d9c714a2621c7c7e60405160405180910390a250565b613c7a816007614d6090919063ffffffff16565b8073ffffffffffffffffffffffffffffffffffffffff167f6719d08c1888103bea251a4ed56406bd0c3e69723c8a1686e017e7bbe159b6f860405160405180910390a250565b613cd481600c614d6090919063ffffffff16565b8073ffffffffffffffffffffffffffffffffffffffff167f6ae172837ea30b801fbfcdd4108aa1d5bf8ff775444fd70256b44e6bf3dfc3f660405160405180910390a250565b613d2e81600c614cb190919063ffffffff16565b8073ffffffffffffffffffffffffffffffffffffffff167fe94479a9f7e1952cc78f2d6baab678adc1b772d936c6583def489e524cb6669260405160405180910390a250565b600073ffffffffffffffffffffffffffffffffffffffff168273ffffffffffffffffffffffffffffffffffffffff1614151515613db057600080fd5b613dc581600654614e1090919063ffffffff16565b600681905550613e1d81600460008573ffffffffffffffffffffffffffffffffffffffff1673ffffffffffffffffffffffffffffffffffffffff16815260200190815260200160002054614e1090919063ffffffff16565b600460008473ffffffffffffffffffffffffffffffffffffffff1673ffffffffffffffffffffffffffffffffffffffff168152602001908152602001600020819055508173ffffffffffffffffffffffffffffffffffffffff16600073ffffffffffffffffffffffffffffffffffffffff167fddf252ad1be2c89b69c2b068fc378daa952ba7f163c4a11628f55a4df523b3ef836040518082815260200191505060405180910390a35050565b600073ffffffffffffffffffffffffffffffffffffffff168273ffffffffffffffffffffffffffffffffffffffff1614151515613f0657600080fd5b613f5881600460008673ffffffffffffffffffffffffffffffffffffffff1673ffffffffffffffffffffffffffffffffffffffff16815260200190815260200160002054614c8f90919063ffffffff16565b600460008573ffffffffffffffffffffffffffffffffffffffff1673ffffffffffffffffffffffffffffffffffffffff16815260200190815260200160002081905550613fed81600460008573ffffffffffffffffffffffffffffffffffffffff1673ffffffffffffffffffffffffffffffffffffffff16815260200190815260200160002054614e1090919063ffffffff16565b600460008473ffffffffffffffffffffffffffffffffffffffff1673ffffffffffffffffffffffffffffffffffffffff168152602001908152602001600020819055508173ffffffffffffffffffffffffffffffffffffffff168373ffffffffffffffffffffffffffffffffffffffff167fddf252ad1be2c89b69c2b068fc378daa952ba7f163c4a11628f55a4df523b3ef836040518082815260200191505060405180910390a3505050565b60003390506140a881612561565b1515614142576040517f08c379a000000000000000000000000000000000000000000000000000000000815260040180806020018281038252603a8152602001807f4e6f766f20656e64657265c3a76f206ec3a36f20706f6465207465722073696481526020017f6f206361646173747261646f20616e746572696f726d656e746500000000000081525060400191505060405180910390fd5b600073ffffffffffffffffffffffffffffffffffffffff1660036000878152602001908152602001600020600086815260200190815260200160002060009054906101000a900473ffffffffffffffffffffffffffffffffffffffff1673ffffffffffffffffffffffffffffffffffffffff1614151515614251576040517f08c379a000000000000000000000000000000000000000000000000000000000815260040180806020018281038252603c8152602001807f54656d2071756520686176657220756d20656e64657265c3a76f206173736f6381526020017f6961646f2061206573736520636e706a2f7375626372c3a96469746f0000000081525060400191505060405180910390fd5b600060036000878152602001908152602001600020600086815260200190815260200160002060009054906101000a900473ffffffffffffffffffffffffffffffffffffffff1690508073ffffffffffffffffffffffffffffffffffffffff168273ffffffffffffffffffffffffffffffffffffffff1614151515614364576040517f08c379a000000000000000000000000000000000000000000000000000000000815260040180806020018281038252602d8152602001807f4f20656e64657265c3a76f206e6f766f2064657665207365722064696665726581526020017f6e746520646f20616e7469676f0000000000000000000000000000000000000081525060400191505060405180910390fd5b85600260008373ffffffffffffffffffffffffffffffffffffffff1673ffffffffffffffffffffffffffffffffffffffff168152602001908152602001600020600001541480156143f6575084600260008373ffffffffffffffffffffffffffffffffffffffff1673ffffffffffffffffffffffffffffffffffffffff16815260200190815260200160002060010154145b1515614490576040517f08c379a000000000000000000000000000000000000000000000000000000000815260040180806020018281038252602b8152602001807f4461646f7320696e636f6e73697374656e74657320646520636e706a206f752081526020017f7375626372c3a96469746f00000000000000000000000000000000000000000081525060400191505060405180910390fd5b60a060405190810160405280878152602001868152602001858152602001848152602001600160048111156144c157fe5b815250600260008473ffffffffffffffffffffffffffffffffffffffff1673ffffffffffffffffffffffffffffffffffffffff168152602001908152602001600020600082015181600001556020820151816001015560408201518160020155606082015181600301908051906020019061453d929190614e31565b5060808201518160040160006101000a81548160ff0219169083600481111561456257fe5b021790555090505060a060405190810160405280600081526020016000815260200160008152602001602060405190810160405280600081525081526020016004808111156145ad57fe5b815250600260008373ffffffffffffffffffffffffffffffffffffffff1673ffffffffffffffffffffffffffffffffffffffff1681526020019081526020016000206000820151816000015560208201518160010155604082015181600201556060820151816003019080519060200190614629929190614e31565b5060808201518160040160006101000a81548160ff0219169083600481111561464e57fe5b02179055509050508160036000888152602001908152602001600020600087815260200190815260200160002060006101000a81548173ffffffffffffffffffffffffffffffffffffffff021916908373ffffffffffffffffffffffffffffffffffffffff1602179055507f1bf55d918db6a8051eda4ecd2d786648884b24d401e7907190cf191a8da475208287878787604051808673ffffffffffffffffffffffffffffffffffffffff1673ffffffffffffffffffffffffffffffffffffffff16815260200185815260200184815260200183815260200180602001828103825283818151815260200191508051906020019080838360005b83811015614763578082015181840152602081019050614748565b50505050905090810190601f1680156147905780820380516001836020036101000a031916815260200191505b50965050505050505060405180910390a1505050505050565b60003390506147b781612561565b1515614851576040517f08c379a00000000000000000000000000000000000000000000000000000000081526004018080602001828103825260358152602001807f456e64657265c3a76f206ec3a36f20706f646520746572207369646f2063616481526020017f6173747261646f20616e746572696f726d656e7465000000000000000000000081525060400191505060405180910390fd5b60a0604051908101604052808681526020018581526020018481526020018381526020016001600481111561488257fe5b815250600260008373ffffffffffffffffffffffffffffffffffffffff1673ffffffffffffffffffffffffffffffffffffffff16815260200190815260200160002060008201518160000155602082015181600101556040820151816002015560608201518160030190805190602001906148fe929190614e31565b5060808201518160040160006101000a81548160ff0219169083600481111561492357fe5b02179055509050506000841115614a4357600073ffffffffffffffffffffffffffffffffffffffff1660036000878152602001908152602001600020600086815260200190815260200160002060009054906101000a900473ffffffffffffffffffffffffffffffffffffffff1673ffffffffffffffffffffffffffffffffffffffff16141515614a42576040517f08c379a00000000000000000000000000000000000000000000000000000000081526004018080602001828103825260308152602001807f5375626372656469746f206ac3a120657374c3a1206173736f636961646f206181526020017f206f7574726f20656e64657265c3a76f0000000000000000000000000000000081525060400191505060405180910390fd5b5b8060036000878152602001908152602001600020600086815260200190815260200160002060006101000a81548173ffffffffffffffffffffffffffffffffffffffff021916908373ffffffffffffffffffffffffffffffffffffffff1602179055507f8ec53aa58c6aeaba77afa132c2419aac81b51cc3a70482ba0d9b207a4db9d3158186868686604051808673ffffffffffffffffffffffffffffffffffffffff1673ffffffffffffffffffffffffffffffffffffffff16815260200185815260200184815260200183815260200180602001828103825283818151815260200191508051906020019080838360005b83811015614b50578082015181840152602081019050614b35565b50505050905090810190601f168015614b7d5780820380516001836020036101000a031916815260200191505b50965050505050505060405180910390a15050505050565b600073ffffffffffffffffffffffffffffffffffffffff168173ffffffffffffffffffffffffffffffffffffffff1614151515614bd157600080fd5b8073ffffffffffffffffffffffffffffffffffffffff166000809054906101000a900473ffffffffffffffffffffffffffffffffffffffff1673ffffffffffffffffffffffffffffffffffffffff167f8be0079c531659141344cd1fd0a4f28419497f9722a3daafe3b4186f6b6457e060405160405180910390a3806000806101000a81548173ffffffffffffffffffffffffffffffffffffffff021916908373ffffffffffffffffffffffffffffffffffffffff16021790555050565b6000828211151515614ca057600080fd5b600082840390508091505092915050565b600073ffffffffffffffffffffffffffffffffffffffff168173ffffffffffffffffffffffffffffffffffffffff1614151515614ced57600080fd5b614cf78282613b78565b1515614d0257600080fd5b60008260000160008373ffffffffffffffffffffffffffffffffffffffff1673ffffffffffffffffffffffffffffffffffffffff16815260200190815260200160002060006101000a81548160ff0219169083151502179055505050565b600073ffffffffffffffffffffffffffffffffffffffff168173ffffffffffffffffffffffffffffffffffffffff1614151515614d9c57600080fd5b614da68282613b78565b151515614db257600080fd5b60018260000160008373ffffffffffffffffffffffffffffffffffffffff1673ffffffffffffffffffffffffffffffffffffffff16815260200190815260200160002060006101000a81548160ff0219169083151502179055505050565b6000808284019050838110151515614e2757600080fd5b8091505092915050565b828054600181600116156101000203166002900490600052602060002090601f016020900481019282601f10614e7257805160ff1916838001178555614ea0565b82800160010185558215614ea0579182015b82811115614e9f578251825591602001919060010190614e84565b5b509050614ead9190614eb1565b5090565b614ed391905b80821115614ecf576000816000905550600101614eb7565b5090565b9056fea165627a7a72305820853b63088bfffc7585172ec662d186f094e4a724ddd5dd2acd345206bda9500f0029",
  "source": "pragma solidity ^0.5.0;\r\n\r\nimport \"openzeppelin-solidity/contracts/token/ERC20/ERC20Pausable.sol\";\r\nimport \"openzeppelin-solidity/contracts/token/ERC20/ERC20Detailed.sol\";\r\nimport \"openzeppelin-solidity/contracts/token/ERC20/ERC20Burnable.sol\";\r\nimport \"openzeppelin-solidity/contracts/token/ERC20/ERC20Mintable.sol\";\r\nimport \"./BNDESRegistry.sol\";\r\n\r\n\r\ncontract BNDESToken is BNDESRegistry, ERC20Pausable, \r\n    ERC20Detailed(\"BNDESToken\", \"BND\", 2), ERC20Mintable, ERC20Burnable {\r\n\r\n    uint private versao = 20190414;\r\n\r\n    event Liberacao(uint cnpj, uint idSubcredito, uint256 valor);\r\n    event Transferencia(uint fromCnpj, uint fromSubcredito, uint toCnpj, uint256 valor);\r\n    event Resgate(uint cnpj, uint256 valor);\r\n    event LiquidacaoResgate(string hashResgate, string hashComprovante, bool isOk);\r\n\r\n\r\n    function getVersao() view public returns (uint) {\r\n        return versao;\r\n    }\r\n\r\n\r\n    function transfer (address _to, uint256 _value) \r\n        public whenNotPaused returns (bool) {\r\n\r\n        address from = msg.sender;\r\n\r\n        // O cara no  louco de transferir para si mesmo!!!\r\n        require(from != _to, \"No pode transferir token para si mesmo\");\r\n\r\n        // Se a origem eh o BNDES, eh uma LIBERACAO\r\n        if (isBNDES(from)) {\r\n\r\n            // A conta de destino  de um cliente\r\n            require(isValidatedClient(_to), \"O endereo no pertence a um cliente ou no est validada\");\r\n\r\n            _mint(_to, _value);\r\n\r\n            emit Liberacao(getCNPJ(_to), getSubcredito(_to), _value);\r\n\r\n        } else { \r\n\r\n            if (isBNDES(_to)) { \r\n\r\n                // _to eh o BNDES. Entao eh RESGATE\r\n                require(isValidatedSupplier(from), \"A conta do endereo no pertence a um fornecedor ou no est validada\");\r\n\r\n                _burn(from, _value);\r\n\r\n                emit Resgate(getCNPJ(from), _value);\r\n\r\n            } else {\r\n\r\n                // Se nem from nem to so o Banco, eh transferencia normal\r\n\r\n                require(isValidatedClient(from), \"O endereo no pertence a um cliente ou no est validada\");\r\n                require(isValidatedSupplier(_to), \"A conta do endereo no pertence a um fornecedor ou no est validada\");\r\n\r\n                _transfer(msg.sender, _to, _value);\r\n\r\n                emit Transferencia(getCNPJ(from), getSubcredito(from), getCNPJ(_to), _value);\r\n  \r\n            }\r\n        }\r\n\r\n        return true;\r\n    }\r\n\r\n\r\n\r\n    function notificaLiquidacaoResgate(string memory redemptionTransactionHash, string memory receiptHash, bool isOk) \r\n        public whenNotPaused {\r\n        require (isResponsibleForSettlement(msg.sender), \"A liquidao s no pode ser realizada pelo endereo que submeteu a transao\"); \r\n        emit LiquidacaoResgate(redemptionTransactionHash, receiptHash, isOk);\r\n    }\r\n\r\n\r\n    function cadastra(uint _cnpj, uint _idSubcredito, uint _salic, string memory hashdeclaracao) \r\n        public whenNotPaused { \r\n        super.cadastra( _cnpj,  _idSubcredito,  _salic, hashdeclaracao);\r\n    }\r\n\r\n    function troca(uint _cnpj, uint _idSubcredito, uint _salic, string memory _hashdeclaracao) \r\n        public whenNotPaused {\r\n        \r\n        address oldAddr = getContaBlockchain(_cnpj, _idSubcredito);\r\n        address newAddr = msg.sender;\r\n        \r\n        super.troca(_cnpj, _idSubcredito, _salic, _hashdeclaracao);\r\n\r\n        // Se h saldo no enderecoAntigo, precisa transferir\r\n        if (balanceOf(oldAddr) > 0) {\r\n            _transfer(oldAddr, newAddr, balanceOf(oldAddr));\r\n        }\r\n\r\n    }\r\n\r\n    //Unsupported methods\r\n    function transferFrom(address from, address to, uint256 value) public whenNotPaused returns (bool) {\r\n        require(false, \"Unsupported method - transferFrom\");\r\n    }\r\n\r\n    function approve(address spender, uint256 value) public whenNotPaused returns (bool) {\r\n        require(false, \"Unsupported method - approve\");\r\n    }\r\n\r\n    function increaseAllowance(address spender, uint addedValue) public whenNotPaused returns (bool success) {\r\n        require(false, \"Unsupported method - increaseAllowance\");\r\n    }\r\n\r\n    function decreaseAllowance(address spender, uint subtractedValue) public whenNotPaused returns (bool success) {\r\n        require(false, \"Unsupported method - decreaseAllowance\");\r\n    }\r\n\r\n    function mint(address to, uint256 value) public onlyMinter returns (bool) {\r\n        require(false, \"Unsupported method - mint\");\r\n    }\r\n\r\n    function burnFrom(address from, uint256 value) public {\r\n        require(false, \"Unsupported method - burnFrom\");\r\n    }\r\n\r\n\r\n\r\n}",
  "sourcePath": "D:/Workspace/bndestoken/Back-Blockchain/contracts/BNDESToken.sol",
  "compiler": {
    "name": "solc",
    "version": "0.5.0+commit.1d4f565a.Emscripten.clang"
  },
  "schemaVersion": "3.0.5",
  "updatedAt": "2019-05-14T20:35:08.849Z",
  "devdoc": {
    "methods": {
      "allowance(address,address)": {
        "details": "Function to check the amount of tokens that an owner allowed to a spender.",
        "params": {
          "owner": "address The address which owns the funds.",
          "spender": "address The address which will spend the funds."
        },
        "return": "A uint256 specifying the amount of tokens still available for the spender."
      },
      "balanceOf(address)": {
        "details": "Gets the balance of the specified address.",
        "params": {
          "owner": "The address to query the balance of."
        },
        "return": "An uint256 representing the amount owned by the passed address."
      },
      "burn(uint256)": {
        "details": "Burns a specific amount of tokens.",
        "params": {
          "value": "The amount of token to be burned."
        }
      },
      "decimals()": {
        "return": "the number of decimals of the token."
      },
      "isOwner()": {
        "return": "true if `msg.sender` is the owner of the contract."
      },
      "name()": {
        "return": "the name of the token."
      },
      "owner()": {
        "return": "the address of the owner."
      },
      "pause()": {
        "details": "called by the owner to pause, triggers stopped state"
      },
      "paused()": {
        "return": "true if the contract is paused, false otherwise."
      },
      "renounceOwnership()": {
        "details": "Allows the current owner to relinquish control of the contract."
      },
      "symbol()": {
        "return": "the symbol of the token."
      },
      "totalSupply()": {
        "details": "Total number of tokens in existence"
      },
      "transferOwnership(address)": {
        "details": "Allows the current owner to transfer control of the contract to a newOwner.",
        "params": {
          "newOwner": "The address to transfer ownership to."
        }
      },
      "unpause()": {
        "details": "called by the owner to unpause, returns to normal state"
      }
    }
  },
  "userdoc": {
    "methods": {
      "renounceOwnership()": {
        "notice": "Renouncing to ownership will leave the contract without an owner. It will not be possible to call the functions with the `onlyOwner` modifier anymore."
      }
    }
  }
}