{
  "contractName": "BNDESRegistry",
  "abi": [
    {
      "constant": true,
      "inputs": [
        {
          "name": "",
          "type": "address"
        }
      ],
      "name": "legalEntitiesInfo",
      "outputs": [
        {
          "name": "cnpj",
          "type": "uint64"
        },
        {
          "name": "idFinancialSupportAgreement",
          "type": "uint64"
        },
        {
          "name": "salic",
          "type": "uint32"
        },
        {
          "name": "idProofHash",
          "type": "string"
        },
        {
          "name": "state",
          "type": "uint8"
        }
      ],
      "payable": false,
      "stateMutability": "view",
      "type": "function"
    },
    {
      "constant": true,
      "inputs": [
        {
          "name": "",
          "type": "address"
        }
      ],
      "name": "legalEntitiesChangeAccount",
      "outputs": [
        {
          "name": "",
          "type": "bool"
        }
      ],
      "payable": false,
      "stateMutability": "view",
      "type": "function"
    },
    {
      "constant": false,
      "inputs": [],
      "name": "renounceOwnership",
      "outputs": [],
      "payable": false,
      "stateMutability": "nonpayable",
      "type": "function"
    },
    {
      "constant": true,
      "inputs": [],
      "name": "owner",
      "outputs": [
        {
          "name": "",
          "type": "address"
        }
      ],
      "payable": false,
      "stateMutability": "view",
      "type": "function"
    },
    {
      "constant": false,
      "inputs": [
        {
          "name": "newOwner",
          "type": "address"
        }
      ],
      "name": "transferOwnership",
      "outputs": [],
      "payable": false,
      "stateMutability": "nonpayable",
      "type": "function"
    },
    {
      "inputs": [],
      "payable": false,
      "stateMutability": "nonpayable",
      "type": "constructor"
    },
    {
      "anonymous": false,
      "inputs": [
        {
          "indexed": false,
          "name": "addr",
          "type": "address"
        },
        {
          "indexed": false,
          "name": "cnpj",
          "type": "uint64"
        },
        {
          "indexed": false,
          "name": "idFinancialSupportAgreement",
          "type": "uint64"
        },
        {
          "indexed": false,
          "name": "salic",
          "type": "uint32"
        },
        {
          "indexed": false,
          "name": "idProofHash",
          "type": "string"
        }
      ],
      "name": "AccountRegistration",
      "type": "event"
    },
    {
      "anonymous": false,
      "inputs": [
        {
          "indexed": false,
          "name": "oldAddr",
          "type": "address"
        },
        {
          "indexed": false,
          "name": "newAddr",
          "type": "address"
        },
        {
          "indexed": false,
          "name": "cnpj",
          "type": "uint64"
        },
        {
          "indexed": false,
          "name": "idFinancialSupportAgreement",
          "type": "uint64"
        },
        {
          "indexed": false,
          "name": "salic",
          "type": "uint32"
        },
        {
          "indexed": false,
          "name": "idProofHash",
          "type": "string"
        }
      ],
      "name": "AccountChange",
      "type": "event"
    },
    {
      "anonymous": false,
      "inputs": [
        {
          "indexed": false,
          "name": "addr",
          "type": "address"
        },
        {
          "indexed": false,
          "name": "cnpj",
          "type": "uint64"
        },
        {
          "indexed": false,
          "name": "idFinancialSupportAgreement",
          "type": "uint64"
        },
        {
          "indexed": false,
          "name": "salic",
          "type": "uint32"
        }
      ],
      "name": "AccountValidation",
      "type": "event"
    },
    {
      "anonymous": false,
      "inputs": [
        {
          "indexed": false,
          "name": "addr",
          "type": "address"
        },
        {
          "indexed": false,
          "name": "cnpj",
          "type": "uint64"
        },
        {
          "indexed": false,
          "name": "idFinancialSupportAgreement",
          "type": "uint64"
        },
        {
          "indexed": false,
          "name": "salic",
          "type": "uint32"
        }
      ],
      "name": "AccountInvalidation",
      "type": "event"
    },
    {
      "anonymous": false,
      "inputs": [
        {
          "indexed": true,
          "name": "previousOwner",
          "type": "address"
        },
        {
          "indexed": true,
          "name": "newOwner",
          "type": "address"
        }
      ],
      "name": "OwnershipTransferred",
      "type": "event"
    },
    {
      "constant": false,
      "inputs": [
        {
          "name": "cnpj",
          "type": "uint64"
        },
        {
          "name": "idFinancialSupportAgreement",
          "type": "uint64"
        },
        {
          "name": "salic",
          "type": "uint32"
        },
        {
          "name": "addr",
          "type": "address"
        },
        {
          "name": "idProofHash",
          "type": "string"
        }
      ],
      "name": "registryLegalEntity",
      "outputs": [],
      "payable": false,
      "stateMutability": "nonpayable",
      "type": "function"
    },
    {
      "constant": false,
      "inputs": [
        {
          "name": "cnpj",
          "type": "uint64"
        },
        {
          "name": "idFinancialSupportAgreement",
          "type": "uint64"
        },
        {
          "name": "salic",
          "type": "uint32"
        },
        {
          "name": "newAddr",
          "type": "address"
        },
        {
          "name": "idProofHash",
          "type": "string"
        }
      ],
      "name": "changeAccountLegalEntity",
      "outputs": [],
      "payable": false,
      "stateMutability": "nonpayable",
      "type": "function"
    },
    {
      "constant": false,
      "inputs": [
        {
          "name": "addr",
          "type": "address"
        },
        {
          "name": "idProofHash",
          "type": "string"
        }
      ],
      "name": "validateRegistryLegalEntity",
      "outputs": [],
      "payable": false,
      "stateMutability": "nonpayable",
      "type": "function"
    },
    {
      "constant": false,
      "inputs": [
        {
          "name": "addr",
          "type": "address"
        }
      ],
      "name": "invalidateRegistryLegalEntity",
      "outputs": [],
      "payable": false,
      "stateMutability": "nonpayable",
      "type": "function"
    },
    {
      "constant": false,
      "inputs": [
        {
          "name": "rs",
          "type": "address"
        }
      ],
      "name": "setResponsibleForSettlement",
      "outputs": [],
      "payable": false,
      "stateMutability": "nonpayable",
      "type": "function"
    },
    {
      "constant": false,
      "inputs": [
        {
          "name": "rs",
          "type": "address"
        }
      ],
      "name": "setResponsibleForRegistryValidation",
      "outputs": [],
      "payable": false,
      "stateMutability": "nonpayable",
      "type": "function"
    },
    {
      "constant": false,
      "inputs": [
        {
          "name": "rs",
          "type": "address"
        }
      ],
      "name": "setResponsibleForDisbursement",
      "outputs": [],
      "payable": false,
      "stateMutability": "nonpayable",
      "type": "function"
    },
    {
      "constant": false,
      "inputs": [
        {
          "name": "rs",
          "type": "address"
        }
      ],
      "name": "setRedemptionAddress",
      "outputs": [],
      "payable": false,
      "stateMutability": "nonpayable",
      "type": "function"
    },
    {
      "constant": false,
      "inputs": [
        {
          "name": "rs",
          "type": "address"
        }
      ],
      "name": "setTokenAddress",
      "outputs": [],
      "payable": false,
      "stateMutability": "nonpayable",
      "type": "function"
    },
    {
      "constant": false,
      "inputs": [
        {
          "name": "rs",
          "type": "address"
        }
      ],
      "name": "enableChangeAccount",
      "outputs": [],
      "payable": false,
      "stateMutability": "nonpayable",
      "type": "function"
    },
    {
      "constant": true,
      "inputs": [
        {
          "name": "rs",
          "type": "address"
        }
      ],
      "name": "isChangeAccountEnabled",
      "outputs": [
        {
          "name": "",
          "type": "bool"
        }
      ],
      "payable": false,
      "stateMutability": "view",
      "type": "function"
    },
    {
      "constant": true,
      "inputs": [],
      "name": "isTokenAddress",
      "outputs": [
        {
          "name": "",
          "type": "bool"
        }
      ],
      "payable": false,
      "stateMutability": "view",
      "type": "function"
    },
    {
      "constant": true,
      "inputs": [
        {
          "name": "addr",
          "type": "address"
        }
      ],
      "name": "isResponsibleForSettlement",
      "outputs": [
        {
          "name": "",
          "type": "bool"
        }
      ],
      "payable": false,
      "stateMutability": "view",
      "type": "function"
    },
    {
      "constant": true,
      "inputs": [
        {
          "name": "addr",
          "type": "address"
        }
      ],
      "name": "isResponsibleForRegistryValidation",
      "outputs": [
        {
          "name": "",
          "type": "bool"
        }
      ],
      "payable": false,
      "stateMutability": "view",
      "type": "function"
    },
    {
      "constant": true,
      "inputs": [
        {
          "name": "addr",
          "type": "address"
        }
      ],
      "name": "isResponsibleForDisbursement",
      "outputs": [
        {
          "name": "",
          "type": "bool"
        }
      ],
      "payable": false,
      "stateMutability": "view",
      "type": "function"
    },
    {
      "constant": true,
      "inputs": [
        {
          "name": "addr",
          "type": "address"
        }
      ],
      "name": "isRedemptionAddress",
      "outputs": [
        {
          "name": "",
          "type": "bool"
        }
      ],
      "payable": false,
      "stateMutability": "view",
      "type": "function"
    },
    {
      "constant": true,
      "inputs": [
        {
          "name": "addr",
          "type": "address"
        }
      ],
      "name": "isReservedAccount",
      "outputs": [
        {
          "name": "",
          "type": "bool"
        }
      ],
      "payable": false,
      "stateMutability": "view",
      "type": "function"
    },
    {
      "constant": true,
      "inputs": [],
      "name": "isOwner",
      "outputs": [
        {
          "name": "",
          "type": "bool"
        }
      ],
      "payable": false,
      "stateMutability": "view",
      "type": "function"
    },
    {
      "constant": true,
      "inputs": [
        {
          "name": "addr",
          "type": "address"
        }
      ],
      "name": "isOwner",
      "outputs": [
        {
          "name": "",
          "type": "bool"
        }
      ],
      "payable": false,
      "stateMutability": "view",
      "type": "function"
    },
    {
      "constant": true,
      "inputs": [
        {
          "name": "addr",
          "type": "address"
        }
      ],
      "name": "isSupplier",
      "outputs": [
        {
          "name": "",
          "type": "bool"
        }
      ],
      "payable": false,
      "stateMutability": "view",
      "type": "function"
    },
    {
      "constant": true,
      "inputs": [
        {
          "name": "addr",
          "type": "address"
        }
      ],
      "name": "isValidatedSupplier",
      "outputs": [
        {
          "name": "",
          "type": "bool"
        }
      ],
      "payable": false,
      "stateMutability": "view",
      "type": "function"
    },
    {
      "constant": true,
      "inputs": [
        {
          "name": "addr",
          "type": "address"
        }
      ],
      "name": "isClient",
      "outputs": [
        {
          "name": "",
          "type": "bool"
        }
      ],
      "payable": false,
      "stateMutability": "view",
      "type": "function"
    },
    {
      "constant": true,
      "inputs": [
        {
          "name": "addr",
          "type": "address"
        }
      ],
      "name": "isValidatedClient",
      "outputs": [
        {
          "name": "",
          "type": "bool"
        }
      ],
      "payable": false,
      "stateMutability": "view",
      "type": "function"
    },
    {
      "constant": true,
      "inputs": [
        {
          "name": "addr",
          "type": "address"
        }
      ],
      "name": "isAvailableAccount",
      "outputs": [
        {
          "name": "",
          "type": "bool"
        }
      ],
      "payable": false,
      "stateMutability": "view",
      "type": "function"
    },
    {
      "constant": true,
      "inputs": [
        {
          "name": "addr",
          "type": "address"
        }
      ],
      "name": "isWaitingValidationAccount",
      "outputs": [
        {
          "name": "",
          "type": "bool"
        }
      ],
      "payable": false,
      "stateMutability": "view",
      "type": "function"
    },
    {
      "constant": true,
      "inputs": [
        {
          "name": "addr",
          "type": "address"
        }
      ],
      "name": "isValidatedAccount",
      "outputs": [
        {
          "name": "",
          "type": "bool"
        }
      ],
      "payable": false,
      "stateMutability": "view",
      "type": "function"
    },
    {
      "constant": true,
      "inputs": [
        {
          "name": "addr",
          "type": "address"
        }
      ],
      "name": "isInvalidatedByValidatorAccount",
      "outputs": [
        {
          "name": "",
          "type": "bool"
        }
      ],
      "payable": false,
      "stateMutability": "view",
      "type": "function"
    },
    {
      "constant": true,
      "inputs": [
        {
          "name": "addr",
          "type": "address"
        }
      ],
      "name": "isInvalidatedByChangeAccount",
      "outputs": [
        {
          "name": "",
          "type": "bool"
        }
      ],
      "payable": false,
      "stateMutability": "view",
      "type": "function"
    },
    {
      "constant": true,
      "inputs": [],
      "name": "getResponsibleForSettlement",
      "outputs": [
        {
          "name": "",
          "type": "address"
        }
      ],
      "payable": false,
      "stateMutability": "view",
      "type": "function"
    },
    {
      "constant": true,
      "inputs": [],
      "name": "getResponsibleForRegistryValidation",
      "outputs": [
        {
          "name": "",
          "type": "address"
        }
      ],
      "payable": false,
      "stateMutability": "view",
      "type": "function"
    },
    {
      "constant": true,
      "inputs": [],
      "name": "getResponsibleForDisbursement",
      "outputs": [
        {
          "name": "",
          "type": "address"
        }
      ],
      "payable": false,
      "stateMutability": "view",
      "type": "function"
    },
    {
      "constant": true,
      "inputs": [],
      "name": "getRedemptionAddress",
      "outputs": [
        {
          "name": "",
          "type": "address"
        }
      ],
      "payable": false,
      "stateMutability": "view",
      "type": "function"
    },
    {
      "constant": true,
      "inputs": [
        {
          "name": "addr",
          "type": "address"
        }
      ],
      "name": "getCNPJ",
      "outputs": [
        {
          "name": "",
          "type": "uint64"
        }
      ],
      "payable": false,
      "stateMutability": "view",
      "type": "function"
    },
    {
      "constant": true,
      "inputs": [
        {
          "name": "addr",
          "type": "address"
        }
      ],
      "name": "getIdLegalFinancialAgreement",
      "outputs": [
        {
          "name": "",
          "type": "uint64"
        }
      ],
      "payable": false,
      "stateMutability": "view",
      "type": "function"
    },
    {
      "constant": true,
      "inputs": [
        {
          "name": "addr",
          "type": "address"
        }
      ],
      "name": "getLegalEntityInfo",
      "outputs": [
        {
          "name": "",
          "type": "uint64"
        },
        {
          "name": "",
          "type": "uint64"
        },
        {
          "name": "",
          "type": "uint32"
        },
        {
          "name": "",
          "type": "string"
        },
        {
          "name": "",
          "type": "uint256"
        },
        {
          "name": "",
          "type": "address"
        }
      ],
      "payable": false,
      "stateMutability": "view",
      "type": "function"
    },
    {
      "constant": true,
      "inputs": [
        {
          "name": "cnpj",
          "type": "uint64"
        },
        {
          "name": "idFinancialSupportAgreement",
          "type": "uint64"
        }
      ],
      "name": "getBlockchainAccount",
      "outputs": [
        {
          "name": "",
          "type": "address"
        }
      ],
      "payable": false,
      "stateMutability": "view",
      "type": "function"
    },
    {
      "constant": true,
      "inputs": [
        {
          "name": "cnpj",
          "type": "uint64"
        },
        {
          "name": "idFinancialSupportAgreement",
          "type": "uint64"
        }
      ],
      "name": "getLegalEntityInfoByCNPJ",
      "outputs": [
        {
          "name": "",
          "type": "uint64"
        },
        {
          "name": "",
          "type": "uint64"
        },
        {
          "name": "",
          "type": "uint32"
        },
        {
          "name": "",
          "type": "string"
        },
        {
          "name": "",
          "type": "uint256"
        },
        {
          "name": "",
          "type": "address"
        }
      ],
      "payable": false,
      "stateMutability": "view",
      "type": "function"
    },
    {
      "constant": true,
      "inputs": [
        {
          "name": "addr",
          "type": "address"
        }
      ],
      "name": "getAccountState",
      "outputs": [
        {
          "name": "",
          "type": "int256"
        }
      ],
      "payable": false,
      "stateMutability": "view",
      "type": "function"
    },
    {
      "constant": true,
      "inputs": [
        {
          "name": "str",
          "type": "string"
        }
      ],
      "name": "isValidHash",
      "outputs": [
        {
          "name": "",
          "type": "bool"
        }
      ],
      "payable": false,
      "stateMutability": "pure",
      "type": "function"
    }
  ],
  "bytecode": "0x608060405234801561001057600080fd5b50336000806101000a81548173ffffffffffffffffffffffffffffffffffffffff021916908373ffffffffffffffffffffffffffffffffffffffff1602179055506000809054906101000a900473ffffffffffffffffffffffffffffffffffffffff1673ffffffffffffffffffffffffffffffffffffffff16600073ffffffffffffffffffffffffffffffffffffffff167f8be0079c531659141344cd1fd0a4f28419497f9722a3daafe3b4186f6b6457e060405160405180910390a333600160006101000a81548173ffffffffffffffffffffffffffffffffffffffff021916908373ffffffffffffffffffffffffffffffffffffffff16021790555033600260006101000a81548173ffffffffffffffffffffffffffffffffffffffff021916908373ffffffffffffffffffffffffffffffffffffffff16021790555033600360006101000a81548173ffffffffffffffffffffffffffffffffffffffff021916908373ffffffffffffffffffffffffffffffffffffffff16021790555033600460006101000a81548173ffffffffffffffffffffffffffffffffffffffff021916908373ffffffffffffffffffffffffffffffffffffffff16021790555061466a806101e06000396000f3fe60806040526004361061021a576000357c0100000000000000000000000000000000000000000000000000000000900463ffffffff1680630c4471bd1461021f578063184c89311461028857806326a4e8d2146102f157806326ff4794146103425780632f54bf6e1461046a578063348da3f2146104d3578063393338491461053c5780633abba2ef146105d55780633d44e5c61461063e578063434baaf21461068f57806346336542146106f85780634add311014610761578063576590cb146107ca57806357cdcb3e146108335780636426a1161461088a5780636edcb12f146108f3578063715018a6146109d35780637943653d146109ea57806379b8369e14610a535780637aeb787714610aaa578063803b8a4214610bca578063845283de14610cb257806384b7964f14610d1b57806385fecf9b14610d84578063876c6e9b14610ded5780638cbd258f14610e665780638da5cb5b14610eb75780638f32d59b14610f0e57806390e42c7e14610f3d5780639ee2735b14610f8e5780639f5e1ddd14610ff3578063a3d8845314611140578063a530634c146111a9578063b41842b9146112fe578063b7196f371461134f578063b7404ff5146113a6578063b8e7c21d146113f7578063be49b78d14611460578063bed25c0e146114d9578063c01ed21014611508578063cc7e1b9a14611571578063d61da4ff146115c2578063f2fde38b146116e2578063f4ec736714611733575b600080fd5b34801561022b57600080fd5b5061026e6004803603602081101561024257600080fd5b81019080803573ffffffffffffffffffffffffffffffffffffffff16906020019092919050505061178a565b604051808215151515815260200191505060405180910390f35b34801561029457600080fd5b506102d7600480360360208110156102ab57600080fd5b81019080803573ffffffffffffffffffffffffffffffffffffffff1690602001909291905050506117fc565b604051808215151515815260200191505060405180910390f35b3480156102fd57600080fd5b506103406004803603602081101561031457600080fd5b81019080803573ffffffffffffffffffffffffffffffffffffffff16906020019092919050505061185f565b005b34801561034e57600080fd5b506103916004803603602081101561036557600080fd5b81019080803573ffffffffffffffffffffffffffffffffffffffff1690602001909291905050506118b6565b604051808667ffffffffffffffff1667ffffffffffffffff1681526020018567ffffffffffffffff1667ffffffffffffffff1681526020018463ffffffff1663ffffffff168152602001806020018360048111156103eb57fe5b60ff168152602001828103825284818151815260200191508051906020019080838360005b8381101561042b578082015181840152602081019050610410565b50505050905090810190601f1680156104585780820380516001836020036101000a031916815260200191505b50965050505050505060405180910390f35b34801561047657600080fd5b506104b96004803603602081101561048d57600080fd5b81019080803573ffffffffffffffffffffffffffffffffffffffff1690602001909291905050506119c9565b604051808215151515815260200191505060405180910390f35b3480156104df57600080fd5b50610522600480360360208110156104f657600080fd5b81019080803573ffffffffffffffffffffffffffffffffffffffff169060200190929190505050611a08565b604051808215151515815260200191505060405180910390f35b34801561054857600080fd5b506105936004803603604081101561055f57600080fd5b81019080803567ffffffffffffffff169060200190929190803567ffffffffffffffff169060200190929190505050611a8b565b604051808273ffffffffffffffffffffffffffffffffffffffff1673ffffffffffffffffffffffffffffffffffffffff16815260200191505060405180910390f35b3480156105e157600080fd5b50610624600480360360208110156105f857600080fd5b81019080803573ffffffffffffffffffffffffffffffffffffffff169060200190929190505050611b02565b604051808215151515815260200191505060405180910390f35b34801561064a57600080fd5b5061068d6004803603602081101561066157600080fd5b81019080803573ffffffffffffffffffffffffffffffffffffffff169060200190929190505050611b5c565b005b34801561069b57600080fd5b506106de600480360360208110156106b257600080fd5b81019080803573ffffffffffffffffffffffffffffffffffffffff169060200190929190505050611c80565b604051808215151515815260200191505060405180910390f35b34801561070457600080fd5b506107476004803603602081101561071b57600080fd5b81019080803573ffffffffffffffffffffffffffffffffffffffff169060200190929190505050611cdd565b604051808215151515815260200191505060405180910390f35b34801561076d57600080fd5b506107b06004803603602081101561078457600080fd5b81019080803573ffffffffffffffffffffffffffffffffffffffff169060200190929190505050611d79565b604051808215151515815260200191505060405180910390f35b3480156107d657600080fd5b50610819600480360360208110156107ed57600080fd5b81019080803573ffffffffffffffffffffffffffffffffffffffff169060200190929190505050611dd3565b604051808215151515815260200191505060405180910390f35b34801561083f57600080fd5b50610848611df3565b604051808273ffffffffffffffffffffffffffffffffffffffff1673ffffffffffffffffffffffffffffffffffffffff16815260200191505060405180910390f35b34801561089657600080fd5b506108d9600480360360208110156108ad57600080fd5b81019080803573ffffffffffffffffffffffffffffffffffffffff169060200190929190505050611e1d565b604051808215151515815260200191505060405180910390f35b3480156108ff57600080fd5b506109b96004803603602081101561091657600080fd5b810190808035906020019064010000000081111561093357600080fd5b82018360208201111561094557600080fd5b8035906020019184600183028401116401000000008311171561096757600080fd5b91908080601f016020809104026020016040519081016040528093929190818152602001838380828437600081840152601f19601f820116905080830192505050505050509192919290505050611e8f565b604051808215151515815260200191505060405180910390f35b3480156109df57600080fd5b506109e861217f565b005b3480156109f657600080fd5b50610a3960048036036020811015610a0d57600080fd5b81019080803573ffffffffffffffffffffffffffffffffffffffff169060200190929190505050612251565b604051808215151515815260200191505060405180910390f35b348015610a5f57600080fd5b50610a686122ab565b604051808273ffffffffffffffffffffffffffffffffffffffff1673ffffffffffffffffffffffffffffffffffffffff16815260200191505060405180910390f35b348015610ab657600080fd5b50610bc8600480360360a0811015610acd57600080fd5b81019080803567ffffffffffffffff169060200190929190803567ffffffffffffffff169060200190929190803563ffffffff169060200190929190803573ffffffffffffffffffffffffffffffffffffffff16906020019092919080359060200190640100000000811115610b4257600080fd5b820183602082011115610b5457600080fd5b80359060200191846001830284011164010000000083111715610b7657600080fd5b91908080601f016020809104026020016040519081016040528093929190818152602001838380828437600081840152601f19601f8201169050808301925050505050505091929192905050506122d5565b005b348015610bd657600080fd5b50610cb060048036036040811015610bed57600080fd5b81019080803573ffffffffffffffffffffffffffffffffffffffff16906020019092919080359060200190640100000000811115610c2a57600080fd5b820183602082011115610c3c57600080fd5b80359060200191846001830284011164010000000083111715610c5e57600080fd5b91908080601f016020809104026020016040519081016040528093929190818152602001838380828437600081840152601f19601f820116905080830192505050505050509192919290505050612c4e565b005b348015610cbe57600080fd5b50610d0160048036036020811015610cd557600080fd5b81019080803573ffffffffffffffffffffffffffffffffffffffff1690602001909291905050506131d3565b604051808215151515815260200191505060405180910390f35b348015610d2757600080fd5b50610d6a60048036036020811015610d3e57600080fd5b81019080803573ffffffffffffffffffffffffffffffffffffffff169060200190929190505050613245565b604051808215151515815260200191505060405180910390f35b348015610d9057600080fd5b50610dd360048036036020811015610da757600080fd5b81019080803573ffffffffffffffffffffffffffffffffffffffff1690602001909291905050506132cb565b604051808215151515815260200191505060405180910390f35b348015610df957600080fd5b50610e3c60048036036020811015610e1057600080fd5b81019080803573ffffffffffffffffffffffffffffffffffffffff169060200190929190505050613325565b604051808267ffffffffffffffff1667ffffffffffffffff16815260200191505060405180910390f35b348015610e7257600080fd5b50610eb560048036036020811015610e8957600080fd5b81019080803573ffffffffffffffffffffffffffffffffffffffff169060200190929190505050613385565b005b348015610ec357600080fd5b50610ecc6133dc565b604051808273ffffffffffffffffffffffffffffffffffffffff1673ffffffffffffffffffffffffffffffffffffffff16815260200191505060405180910390f35b348015610f1a57600080fd5b50610f23613405565b604051808215151515815260200191505060405180910390f35b348015610f4957600080fd5b50610f8c60048036036020811015610f6057600080fd5b81019080803573ffffffffffffffffffffffffffffffffffffffff16906020019092919050505061345c565b005b348015610f9a57600080fd5b50610fdd60048036036020811015610fb157600080fd5b81019080803573ffffffffffffffffffffffffffffffffffffffff1690602001909291905050506134b3565b6040518082815260200191505060405180910390f35b348015610fff57600080fd5b506110426004803603602081101561101657600080fd5b81019080803573ffffffffffffffffffffffffffffffffffffffff16906020019092919050505061352f565b604051808767ffffffffffffffff1667ffffffffffffffff1681526020018667ffffffffffffffff1667ffffffffffffffff1681526020018563ffffffff1663ffffffff168152602001806020018481526020018373ffffffffffffffffffffffffffffffffffffffff1673ffffffffffffffffffffffffffffffffffffffff168152602001828103825285818151815260200191508051906020019080838360005b838110156111005780820151818401526020810190506110e5565b50505050905090810190601f16801561112d5780820380516001836020036101000a031916815260200191505b5097505050505050505060405180910390f35b34801561114c57600080fd5b5061118f6004803603602081101561116357600080fd5b81019080803573ffffffffffffffffffffffffffffffffffffffff169060200190929190505050613789565b604051808215151515815260200191505060405180910390f35b3480156111b557600080fd5b50611200600480360360408110156111cc57600080fd5b81019080803567ffffffffffffffff169060200190929190803567ffffffffffffffff169060200190929190505050613813565b604051808767ffffffffffffffff1667ffffffffffffffff1681526020018667ffffffffffffffff1667ffffffffffffffff1681526020018563ffffffff1663ffffffff168152602001806020018481526020018373ffffffffffffffffffffffffffffffffffffffff1673ffffffffffffffffffffffffffffffffffffffff168152602001828103825285818151815260200191508051906020019080838360005b838110156112be5780820151818401526020810190506112a3565b50505050905090810190601f1680156112eb5780820380516001836020036101000a031916815260200191505b5097505050505050505060405180910390f35b34801561130a57600080fd5b5061134d6004803603602081101561132157600080fd5b81019080803573ffffffffffffffffffffffffffffffffffffffff16906020019092919050505061384b565b005b34801561135b57600080fd5b50611364613ba6565b604051808273ffffffffffffffffffffffffffffffffffffffff1673ffffffffffffffffffffffffffffffffffffffff16815260200191505060405180910390f35b3480156113b257600080fd5b506113f5600480360360208110156113c957600080fd5b81019080803573ffffffffffffffffffffffffffffffffffffffff169060200190929190505050613bd0565b005b34801561140357600080fd5b506114466004803603602081101561141a57600080fd5b81019080803573ffffffffffffffffffffffffffffffffffffffff169060200190929190505050613c27565b604051808215151515815260200191505060405180910390f35b34801561146c57600080fd5b506114af6004803603602081101561148357600080fd5b81019080803573ffffffffffffffffffffffffffffffffffffffff169060200190929190505050613c98565b604051808267ffffffffffffffff1667ffffffffffffffff16815260200191505060405180910390f35b3480156114e557600080fd5b506114ee613cf8565b604051808215151515815260200191505060405180910390f35b34801561151457600080fd5b506115576004803603602081101561152b57600080fd5b81019080803573ffffffffffffffffffffffffffffffffffffffff169060200190929190505050613d50565b604051808215151515815260200191505060405180910390f35b34801561157d57600080fd5b506115c06004803603602081101561159457600080fd5b81019080803573ffffffffffffffffffffffffffffffffffffffff169060200190929190505050613dd3565b005b3480156115ce57600080fd5b506116e0600480360360a08110156115e557600080fd5b81019080803567ffffffffffffffff169060200190929190803567ffffffffffffffff169060200190929190803563ffffffff169060200190929190803573ffffffffffffffffffffffffffffffffffffffff1690602001909291908035906020019064010000000081111561165a57600080fd5b82018360208201111561166c57600080fd5b8035906020019184600183028401116401000000008311171561168e57600080fd5b91908080601f016020809104026020016040519081016040528093929190818152602001838380828437600081840152601f19601f820116905080830192505050505050509192919290505050613e2a565b005b3480156116ee57600080fd5b506117316004803603602081101561170557600080fd5b81019080803573ffffffffffffffffffffffffffffffffffffffff169060200190929190505050614456565b005b34801561173f57600080fd5b50611748614475565b604051808273ffffffffffffffffffffffffffffffffffffffff1673ffffffffffffffffffffffffffffffffffffffff16815260200191505060405180910390f35b60006001600481111561179957fe5b600660008473ffffffffffffffffffffffffffffffffffffffff1673ffffffffffffffffffffffffffffffffffffffff16815260200190815260200160002060020160009054906101000a900460ff1660048111156117f457fe5b149050919050565b6000611807826119c9565b806118175750611816826132cb565b5b80611827575061182682611b02565b5b80611837575061183682611d79565b5b80611847575061184682612251565b5b15611855576001905061185a565b600090505b919050565b611867613405565b151561187257600080fd5b80600560006101000a81548173ffffffffffffffffffffffffffffffffffffffff021916908373ffffffffffffffffffffffffffffffffffffffff16021790555050565b60066020528060005260406000206000915090508060000160009054906101000a900467ffffffffffffffff16908060000160089054906101000a900467ffffffffffffffff16908060000160109054906101000a900463ffffffff1690806001018054600181600116156101000203166002900480601f0160208091040260200160405190810160405280929190818152602001828054600181600116156101000203166002900480156119ac5780601f10611981576101008083540402835291602001916119ac565b820191906000526020600020905b81548152906001019060200180831161198f57829003601f168201915b5050505050908060020160009054906101000a900460ff16905085565b60008173ffffffffffffffffffffffffffffffffffffffff166119ea6133dc565b73ffffffffffffffffffffffffffffffffffffffff16149050919050565b6000611a1382611cdd565b8015611a84575060026004811115611a2757fe5b600660008473ffffffffffffffffffffffffffffffffffffffff1673ffffffffffffffffffffffffffffffffffffffff16815260200190815260200160002060020160009054906101000a900460ff166004811115611a8257fe5b145b9050919050565b6000600760008467ffffffffffffffff1667ffffffffffffffff16815260200190815260200160002060008367ffffffffffffffff1667ffffffffffffffff16815260200190815260200160002060009054906101000a900473ffffffffffffffffffffffffffffffffffffffff16905092915050565b6000600260009054906101000a900473ffffffffffffffffffffffffffffffffffffffff1673ffffffffffffffffffffffffffffffffffffffff168273ffffffffffffffffffffffffffffffffffffffff16149050919050565b611b6533611b02565b1515611c25576040517f08c379a00000000000000000000000000000000000000000000000000000000081526004018080602001828103825260478152602001807f536f6d656e7465206f20726573706f6e73c3a176656c2070656c612076616c6981526020017f6461c3a7c3a36f20706f646520686162696c6974617220612074726f6361206481526020017f6520636f6e74610000000000000000000000000000000000000000000000000081525060600191505060405180910390fd5b6001600860008373ffffffffffffffffffffffffffffffffffffffff1673ffffffffffffffffffffffffffffffffffffffff16815260200190815260200160002060006101000a81548160ff02191690831515021790555050565b600060011515600860008473ffffffffffffffffffffffffffffffffffffffff1673ffffffffffffffffffffffffffffffffffffffff16815260200190815260200160002060009054906101000a900460ff161515149050919050565b6000611ce8826117fc565b15611cf65760009050611d74565b611cff82613789565b15611d0d5760009050611d74565b6000600660008473ffffffffffffffffffffffffffffffffffffffff1673ffffffffffffffffffffffffffffffffffffffff16815260200190815260200160002060000160089054906101000a900467ffffffffffffffff1667ffffffffffffffff161490505b919050565b6000600360009054906101000a900473ffffffffffffffffffffffffffffffffffffffff1673ffffffffffffffffffffffffffffffffffffffff168273ffffffffffffffffffffffffffffffffffffffff16149050919050565b60086020528060005260406000206000915054906101000a900460ff1681565b6000600360009054906101000a900473ffffffffffffffffffffffffffffffffffffffff16905090565b600060026004811115611e2c57fe5b600660008473ffffffffffffffffffffffffffffffffffffffff1673ffffffffffffffffffffffffffffffffffffffff16815260200190815260200160002060020160009054906101000a900460ff166004811115611e8757fe5b149050919050565b6000606082905060408151141515611eab57600091505061217a565b60008090505b6040811015612173577f30000000000000000000000000000000000000000000000000000000000000008282815181101515611ee957fe5b9060200101517f010000000000000000000000000000000000000000000000000000000000000090047f0100000000000000000000000000000000000000000000000000000000000000027effffffffffffffffffffffffffffffffffffffffffffffffffffffffffffff19161015611f675760009250505061217a565b7f39000000000000000000000000000000000000000000000000000000000000008282815181101515611f9657fe5b9060200101517f010000000000000000000000000000000000000000000000000000000000000090047f0100000000000000000000000000000000000000000000000000000000000000027effffffffffffffffffffffffffffffffffffffffffffffffffffffffffffff19161180156120a957507f6100000000000000000000000000000000000000000000000000000000000000828281518110151561203a57fe5b9060200101517f010000000000000000000000000000000000000000000000000000000000000090047f0100000000000000000000000000000000000000000000000000000000000000027effffffffffffffffffffffffffffffffffffffffffffffffffffffffffffff1916105b156120b95760009250505061217a565b7f660000000000000000000000000000000000000000000000000000000000000082828151811015156120e857fe5b9060200101517f010000000000000000000000000000000000000000000000000000000000000090047f0100000000000000000000000000000000000000000000000000000000000000027effffffffffffffffffffffffffffffffffffffffffffffffffffffffffffff191611156121665760009250505061217a565b8080600101915050611eb1565b5060019150505b919050565b612187613405565b151561219257600080fd5b600073ffffffffffffffffffffffffffffffffffffffff166000809054906101000a900473ffffffffffffffffffffffffffffffffffffffff1673ffffffffffffffffffffffffffffffffffffffff167f8be0079c531659141344cd1fd0a4f28419497f9722a3daafe3b4186f6b6457e060405160405180910390a360008060006101000a81548173ffffffffffffffffffffffffffffffffffffffff021916908373ffffffffffffffffffffffffffffffffffffffff160217905550565b6000600460009054906101000a900473ffffffffffffffffffffffffffffffffffffffff1673ffffffffffffffffffffffffffffffffffffffff168273ffffffffffffffffffffffffffffffffffffffff16149050919050565b6000600460009054906101000a900473ffffffffffffffffffffffffffffffffffffffff16905090565b6122dd613cf8565b15156122e857600080fd5b60006122f48686611a8b565b90506122ff816117fc565b15151561239a576040517f08c379a000000000000000000000000000000000000000000000000000000000815260040180806020018281038252602d8152602001807f4ec3a36f20706f64652074726f63617220656e64657265c3a76f20646520636f81526020017f6e7461207265736572766164610000000000000000000000000000000000000081525060400191505060405180910390fd5b6123a381613789565b15151561243e576040517f08c379a000000000000000000000000000000000000000000000000000000000815260040180806020018281038252603c8152602001807f54656d2071756520686176657220756d20656e64657265c3a76f206173736f6381526020017f6961646f2061206573736520636e706a2f7375626372c3a96469746f0000000081525060400191505060405180910390fd5b61244783613789565b15156124e1576040517f08c379a00000000000000000000000000000000000000000000000000000000081526004018080602001828103825260258152602001807f4e6f766f20656e64657265c3a76f206ec3a36f20657374c3a120646973706f6e81526020017fc3ad76656c00000000000000000000000000000000000000000000000000000081525060400191505060405180910390fd5b6124ea81611c80565b1515612584576040517f08c379a000000000000000000000000000000000000000000000000000000000815260040180806020018281038252602e8152602001807f4120636f6e746120617475616c206ec3a36f20657374c3a120686162696c697481526020017f61646120706172612074726f636100000000000000000000000000000000000081525060400191505060405180910390fd5b61258d82611e8f565b1515612627576040517f08c379a00000000000000000000000000000000000000000000000000000000081526004018080602001828103825260238152602001807f4f2068617368206461206465636c617261c3a7c3a36f20c3a920696e76c3a16c81526020017f69646f000000000000000000000000000000000000000000000000000000000081525060400191505060405180910390fd5b8567ffffffffffffffff16600660008373ffffffffffffffffffffffffffffffffffffffff1673ffffffffffffffffffffffffffffffffffffffff16815260200190815260200160002060000160009054906101000a900467ffffffffffffffff1667ffffffffffffffff1614801561270957508467ffffffffffffffff16600660008373ffffffffffffffffffffffffffffffffffffffff1673ffffffffffffffffffffffffffffffffffffffff16815260200190815260200160002060000160089054906101000a900467ffffffffffffffff1667ffffffffffffffff16145b15156127a3576040517f08c379a000000000000000000000000000000000000000000000000000000000815260040180806020018281038252602b8152602001807f4461646f7320696e636f6e73697374656e74657320646520636e706a206f752081526020017f7375626372c3a96469746f00000000000000000000000000000000000000000081525060400191505060405180910390fd5b60a0604051908101604052808767ffffffffffffffff1681526020018667ffffffffffffffff1681526020018563ffffffff168152602001838152602001600160048111156127ee57fe5b815250600660008573ffffffffffffffffffffffffffffffffffffffff1673ffffffffffffffffffffffffffffffffffffffff16815260200190815260200160002060008201518160000160006101000a81548167ffffffffffffffff021916908367ffffffffffffffff16021790555060208201518160000160086101000a81548167ffffffffffffffff021916908367ffffffffffffffff16021790555060408201518160000160106101000a81548163ffffffff021916908363ffffffff16021790555060608201518160010190805190602001906128d1929190614599565b5060808201518160020160006101000a81548160ff021916908360048111156128f657fe5b021790555090505060a060405190810160405280600067ffffffffffffffff168152602001600067ffffffffffffffff168152602001600063ffffffff1681526020016020604051908101604052806000815250815260200160048081111561295b57fe5b815250600660008373ffffffffffffffffffffffffffffffffffffffff1673ffffffffffffffffffffffffffffffffffffffff16815260200190815260200160002060008201518160000160006101000a81548167ffffffffffffffff021916908367ffffffffffffffff16021790555060208201518160000160086101000a81548167ffffffffffffffff021916908367ffffffffffffffff16021790555060408201518160000160106101000a81548163ffffffff021916908363ffffffff1602179055506060820151816001019080519060200190612a3e929190614599565b5060808201518160020160006101000a81548160ff02191690836004811115612a6357fe5b021790555090505082600760008867ffffffffffffffff1667ffffffffffffffff16815260200190815260200160002060008767ffffffffffffffff1667ffffffffffffffff16815260200190815260200160002060006101000a81548173ffffffffffffffffffffffffffffffffffffffff021916908373ffffffffffffffffffffffffffffffffffffffff1602179055507fd82d5fb8d459ced400a06631b9ab5eeffafb65a8c0bf5d8346035374ceeeafc5818488888887604051808773ffffffffffffffffffffffffffffffffffffffff1673ffffffffffffffffffffffffffffffffffffffff1681526020018673ffffffffffffffffffffffffffffffffffffffff1673ffffffffffffffffffffffffffffffffffffffff1681526020018567ffffffffffffffff1667ffffffffffffffff1681526020018467ffffffffffffffff1667ffffffffffffffff1681526020018363ffffffff1663ffffffff16815260200180602001828103825283818151815260200191508051906020019080838360005b83811015612c07578082015181840152602081019050612bec565b50505050905090810190601f168015612c345780820380516001836020036101000a031916815260200191505b5097505050505050505060405180910390a1505050505050565b612c5733611b02565b1515612cf1576040517f08c379a000000000000000000000000000000000000000000000000000000000815260040180806020018281038252603b8152602001807f536f6d656e7465206f20726573706f6e73c3a176656c2070656c612076616c6981526020017f6461c3a7c3a36f20706f64652076616c6964617220636f6e746173000000000081525060400191505060405180910390fd5b60016004811115612cfe57fe5b600660008473ffffffffffffffffffffffffffffffffffffffff1673ffffffffffffffffffffffffffffffffffffffff16815260200190815260200160002060020160009054906101000a900460ff166004811115612d5957fe5b141515612df4576040517f08c379a00000000000000000000000000000000000000000000000000000000081526004018080602001828103825260368152602001807f4120636f6e74612070726563697361206573746172206e6f2065737461646f2081526020017f416775617264616e646f2056616c696461c3a7c3a36f0000000000000000000081525060400191505060405180910390fd5b806040516020018082805190602001908083835b602083101515612e2d5780518252602082019150602081019050602083039250612e08565b6001836020036101000a03801982511681845116808217855250505050505090500191505060405160208183030381529060405280519060200120600660008473ffffffffffffffffffffffffffffffffffffffff1673ffffffffffffffffffffffffffffffffffffffff1681526020019081526020016000206001016040516020018082805460018160011615610100020316600290048015612f085780601f10612ee6576101008083540402835291820191612f08565b820191906000526020600020905b815481529060010190602001808311612ef4575b505091505060405160208183030381529060405280519060200120141515612fbe576040517f08c379a00000000000000000000000000000000000000000000000000000000081526004018080602001828103825260288152602001807f4f206861736820726563656269646f20c3a9206469666572656e746520646f2081526020017f657370657261646f00000000000000000000000000000000000000000000000081525060400191505060405180910390fd5b6002600660008473ffffffffffffffffffffffffffffffffffffffff1673ffffffffffffffffffffffffffffffffffffffff16815260200190815260200160002060020160006101000a81548160ff0219169083600481111561301d57fe5b02179055507fd562fa69cd7f9f29b17f15cc04b6c895f0222835755d3617a61455b92da554db82600660008573ffffffffffffffffffffffffffffffffffffffff1673ffffffffffffffffffffffffffffffffffffffff16815260200190815260200160002060000160009054906101000a900467ffffffffffffffff16600660008673ffffffffffffffffffffffffffffffffffffffff1673ffffffffffffffffffffffffffffffffffffffff16815260200190815260200160002060000160089054906101000a900467ffffffffffffffff16600660008773ffffffffffffffffffffffffffffffffffffffff1673ffffffffffffffffffffffffffffffffffffffff16815260200190815260200160002060000160109054906101000a900463ffffffff16604051808573ffffffffffffffffffffffffffffffffffffffff1673ffffffffffffffffffffffffffffffffffffffff1681526020018467ffffffffffffffff1667ffffffffffffffff1681526020018367ffffffffffffffff1667ffffffffffffffff1681526020018263ffffffff1663ffffffff16815260200194505050505060405180910390a15050565b6000600360048111156131e257fe5b600660008473ffffffffffffffffffffffffffffffffffffffff1673ffffffffffffffffffffffffffffffffffffffff16815260200190815260200160002060020160009054906101000a900460ff16600481111561323d57fe5b149050919050565b6000613250826117fc565b1561325e57600090506132c6565b6000600660008473ffffffffffffffffffffffffffffffffffffffff1673ffffffffffffffffffffffffffffffffffffffff16815260200190815260200160002060000160089054906101000a900467ffffffffffffffff1667ffffffffffffffff16141590505b919050565b6000600160009054906101000a900473ffffffffffffffffffffffffffffffffffffffff1673ffffffffffffffffffffffffffffffffffffffff168273ffffffffffffffffffffffffffffffffffffffff16149050919050565b6000600660008373ffffffffffffffffffffffffffffffffffffffff1673ffffffffffffffffffffffffffffffffffffffff16815260200190815260200160002060000160089054906101000a900467ffffffffffffffff169050919050565b61338d613405565b151561339857600080fd5b80600260006101000a81548173ffffffffffffffffffffffffffffffffffffffff021916908373ffffffffffffffffffffffffffffffffffffffff16021790555050565b60008060009054906101000a900473ffffffffffffffffffffffffffffffffffffffff16905090565b60008060009054906101000a900473ffffffffffffffffffffffffffffffffffffffff1673ffffffffffffffffffffffffffffffffffffffff163373ffffffffffffffffffffffffffffffffffffffff1614905090565b613464613405565b151561346f57600080fd5b80600360006101000a81548173ffffffffffffffffffffffffffffffffffffffff021916908373ffffffffffffffffffffffffffffffffffffffff16021790555050565b60006134be826117fc565b156134cc576064905061352a565b600660008373ffffffffffffffffffffffffffffffffffffffff1673ffffffffffffffffffffffffffffffffffffffff16815260200190815260200160002060020160009054906101000a900460ff16600481111561352757fe5b90505b919050565b60008060006060600080600660008873ffffffffffffffffffffffffffffffffffffffff1673ffffffffffffffffffffffffffffffffffffffff16815260200190815260200160002060000160009054906101000a900467ffffffffffffffff16600660008973ffffffffffffffffffffffffffffffffffffffff1673ffffffffffffffffffffffffffffffffffffffff16815260200190815260200160002060000160089054906101000a900467ffffffffffffffff16600660008a73ffffffffffffffffffffffffffffffffffffffff1673ffffffffffffffffffffffffffffffffffffffff16815260200190815260200160002060000160109054906101000a900463ffffffff16600660008b73ffffffffffffffffffffffffffffffffffffffff1673ffffffffffffffffffffffffffffffffffffffff168152602001908152602001600020600101600660008c73ffffffffffffffffffffffffffffffffffffffff1673ffffffffffffffffffffffffffffffffffffffff16815260200190815260200160002060020160009054906101000a900460ff1660048111156136d757fe5b8b828054600181600116156101000203166002900480601f01602080910402602001604051908101604052809291908181526020018280546001816001161561010002031660029004801561376d5780601f106137425761010080835404028352916020019161376d565b820191906000526020600020905b81548152906001019060200180831161375057829003601f168201915b5050505050925095509550955095509550955091939550919395565b6000613794826117fc565b156137a2576000905061380e565b600060048111156137af57fe5b600660008473ffffffffffffffffffffffffffffffffffffffff1673ffffffffffffffffffffffffffffffffffffffff16815260200190815260200160002060020160009054906101000a900460ff16600481111561380a57fe5b1490505b919050565b6000806000606060008060006138298989611a8b565b90506138348161352f565b965096509650965096509650509295509295509295565b61385433611b02565b15156138ee576040517f08c379a000000000000000000000000000000000000000000000000000000000815260040180806020018281038252603d8152602001807f536f6d656e7465206f20726573706f6e73c3a176656c2070656c612076616c6981526020017f6461c3a7c3a36f20706f646520696e76616c6964617220636f6e74617300000081525060400191505060405180910390fd5b6138f7816117fc565b151515613992576040517f08c379a000000000000000000000000000000000000000000000000000000000815260040180806020018281038252602b8152602001807f4ec3a36f20c3a920706f7373c3ad76656c20696e76616c6964617220636f6e7481526020017f612072657365727661646100000000000000000000000000000000000000000081525060400191505060405180910390fd5b6003600660008373ffffffffffffffffffffffffffffffffffffffff1673ffffffffffffffffffffffffffffffffffffffff16815260200190815260200160002060020160006101000a81548160ff021916908360048111156139f157fe5b02179055507fefbe34d940db094a2bd0cf0857f4ef56ae5d3a6ece355e2efbb75b3f7147cd0d81600660008473ffffffffffffffffffffffffffffffffffffffff1673ffffffffffffffffffffffffffffffffffffffff16815260200190815260200160002060000160009054906101000a900467ffffffffffffffff16600660008573ffffffffffffffffffffffffffffffffffffffff1673ffffffffffffffffffffffffffffffffffffffff16815260200190815260200160002060000160089054906101000a900467ffffffffffffffff16600660008673ffffffffffffffffffffffffffffffffffffffff1673ffffffffffffffffffffffffffffffffffffffff16815260200190815260200160002060000160109054906101000a900463ffffffff16604051808573ffffffffffffffffffffffffffffffffffffffff1673ffffffffffffffffffffffffffffffffffffffff1681526020018467ffffffffffffffff1667ffffffffffffffff1681526020018367ffffffffffffffff1667ffffffffffffffff1681526020018263ffffffff1663ffffffff16815260200194505050505060405180910390a150565b6000600260009054906101000a900473ffffffffffffffffffffffffffffffffffffffff16905090565b613bd8613405565b1515613be357600080fd5b80600160006101000a81548173ffffffffffffffffffffffffffffffffffffffff021916908373ffffffffffffffffffffffffffffffffffffffff16021790555050565b6000600480811115613c3557fe5b600660008473ffffffffffffffffffffffffffffffffffffffff1673ffffffffffffffffffffffffffffffffffffffff16815260200190815260200160002060020160009054906101000a900460ff166004811115613c9057fe5b149050919050565b6000600660008373ffffffffffffffffffffffffffffffffffffffff1673ffffffffffffffffffffffffffffffffffffffff16815260200190815260200160002060000160009054906101000a900467ffffffffffffffff169050919050565b60003373ffffffffffffffffffffffffffffffffffffffff16600560009054906101000a900473ffffffffffffffffffffffffffffffffffffffff1673ffffffffffffffffffffffffffffffffffffffff1614905090565b6000613d5b82613245565b8015613dcc575060026004811115613d6f57fe5b600660008473ffffffffffffffffffffffffffffffffffffffff1673ffffffffffffffffffffffffffffffffffffffff16815260200190815260200160002060020160009054906101000a900460ff166004811115613dca57fe5b145b9050919050565b613ddb613405565b1515613de657600080fd5b80600460006101000a81548173ffffffffffffffffffffffffffffffffffffffff021916908373ffffffffffffffffffffffffffffffffffffffff16021790555050565b613e32613cf8565b1515613e3d57600080fd5b613e4682613789565b1515613ee0576040517f08c379a00000000000000000000000000000000000000000000000000000000081526004018080602001828103825260358152602001807f456e64657265c3a76f206ec3a36f20706f646520746572207369646f2063616481526020017f6173747261646f20616e746572696f726d656e7465000000000000000000000081525060400191505060405180910390fd5b613ee981611e8f565b1515613f83576040517f08c379a00000000000000000000000000000000000000000000000000000000081526004018080602001828103825260238152602001807f4f2068617368206461206465636c617261c3a7c3a36f20c3a920696e76c3a16c81526020017f69646f000000000000000000000000000000000000000000000000000000000081525060400191505060405180910390fd5b60a0604051908101604052808667ffffffffffffffff1681526020018567ffffffffffffffff1681526020018463ffffffff16815260200182815260200160016004811115613fce57fe5b815250600660008473ffffffffffffffffffffffffffffffffffffffff1673ffffffffffffffffffffffffffffffffffffffff16815260200190815260200160002060008201518160000160006101000a81548167ffffffffffffffff021916908367ffffffffffffffff16021790555060208201518160000160086101000a81548167ffffffffffffffff021916908367ffffffffffffffff16021790555060408201518160000160106101000a81548163ffffffff021916908363ffffffff16021790555060608201518160010190805190602001906140b1929190614599565b5060808201518160020160006101000a81548160ff021916908360048111156140d657fe5b021790555090505060008467ffffffffffffffff1611156141ce5760006140fd8686611a8b565b905061410881613789565b15156141c8576040517f08c379a00000000000000000000000000000000000000000000000000000000081526004018080602001828103825260448152602001807f436c69656e7465206ac3a120657374c3a1206173736f636961646f2061206f7581526020017f74726f20656e64657265c3a76f2e2055736520612066756ec3a7c3a36f20547281526020017f6f63612e0000000000000000000000000000000000000000000000000000000081525060600191505060405180910390fd5b506142a8565b60006141db866000611a8b565b90506141e681613789565b15156142a6576040517f08c379a00000000000000000000000000000000000000000000000000000000081526004018080602001828103825260478152602001807f466f726e656365646f72206ac3a120657374c3a1206173736f636961646f206181526020017f206f7574726f20656e64657265c3a76f2e2055736520612066756ec3a7c3a36f81526020017f2054726f63612e0000000000000000000000000000000000000000000000000081525060600191505060405180910390fd5b505b81600760008767ffffffffffffffff1667ffffffffffffffff16815260200190815260200160002060008667ffffffffffffffff1667ffffffffffffffff16815260200190815260200160002060006101000a81548173ffffffffffffffffffffffffffffffffffffffff021916908373ffffffffffffffffffffffffffffffffffffffff1602179055507fdd642935494d30eab1c42790f71b6483dfc5962a284ec034372d9d49e0cb13bb8286868685604051808673ffffffffffffffffffffffffffffffffffffffff1673ffffffffffffffffffffffffffffffffffffffff1681526020018567ffffffffffffffff1667ffffffffffffffff1681526020018467ffffffffffffffff1667ffffffffffffffff1681526020018363ffffffff1663ffffffff16815260200180602001828103825283818151815260200191508051906020019080838360005b838110156144115780820151818401526020810190506143f6565b50505050905090810190601f16801561443e5780820380516001836020036101000a031916815260200191505b50965050505050505060405180910390a15050505050565b61445e613405565b151561446957600080fd5b6144728161449f565b50565b6000600160009054906101000a900473ffffffffffffffffffffffffffffffffffffffff16905090565b600073ffffffffffffffffffffffffffffffffffffffff168173ffffffffffffffffffffffffffffffffffffffff16141515156144db57600080fd5b8073ffffffffffffffffffffffffffffffffffffffff166000809054906101000a900473ffffffffffffffffffffffffffffffffffffffff1673ffffffffffffffffffffffffffffffffffffffff167f8be0079c531659141344cd1fd0a4f28419497f9722a3daafe3b4186f6b6457e060405160405180910390a3806000806101000a81548173ffffffffffffffffffffffffffffffffffffffff021916908373ffffffffffffffffffffffffffffffffffffffff16021790555050565b828054600181600116156101000203166002900490600052602060002090601f016020900481019282601f106145da57805160ff1916838001178555614608565b82800160010185558215614608579182015b828111156146075782518255916020019190600101906145ec565b5b5090506146159190614619565b5090565b61463b91905b8082111561463757600081600090555060010161461f565b5090565b9056fea165627a7a723058204e9b8bcd4cef0742f4ed071bd6e3fa31a91c8db4b7c088ca1bcc6975d535cf160029",
  "source": "pragma solidity ^0.5.0;\r\n\r\nimport \"openzeppelin-solidity/contracts/ownership/Ownable.sol\";\r\n\r\ncontract BNDESRegistry is Ownable() {\r\n\r\n    /**\r\n        The account of clients and suppliers are assigned to states. \r\n        Reserved accounts (e.g. from BNDES and ANCINE) do not have state.\r\n        AVAILABLE - The account is not yet assigned any role (any of them - client, supplier or any reserved addresses).\r\n        WAITING_VALIDATION - The account was linked to a legal entity but it still needs to be validated\r\n        VALIDATED - The account was validated\r\n        INVALIDATED_BY_VALIDATOR - The account was invalidated\r\n        INVALIDATED_BY_CHANGE - The client or supplier changed the ethereum account so the original one must be invalidated.\r\n     */\r\n    enum BlockchainAccountState {AVAILABLE,WAITING_VALIDATION,VALIDATED,INVALIDATED_BY_VALIDATOR,INVALIDATED_BY_CHANGE} \r\n    BlockchainAccountState blockchainState; //Not used. Defined to create the enum type.\r\n\r\n    address responsibleForSettlement;\r\n    address responsibleForRegistryValidation;\r\n    address responsibleForDisbursement;\r\n    address redemptionAddress;\r\n    address tokenAddress;\r\n\r\n    /**\r\n        Describes the Legal Entity - clients or suppliers\r\n     */\r\n    struct LegalEntityInfo {\r\n        uint64 cnpj; //Brazilian identification of legal entity\r\n        uint64 idFinancialSupportAgreement; //SCC contract\r\n        uint32 salic; //ANCINE identifier\r\n        string idProofHash; //hash of declaration\r\n        BlockchainAccountState state;\r\n    } \r\n\r\n    /**\r\n        Links Ethereum addresses to LegalEntityInfo        \r\n     */\r\n    mapping(address => LegalEntityInfo) public legalEntitiesInfo;\r\n\r\n    /**\r\n        Links Legal Entity to Ethereum address. \r\n        cnpj => (idFinancialSupportAgreement => address)\r\n     */\r\n    mapping(uint64 => mapping(uint64 => address)) cnpjFSAddr; \r\n\r\n\r\n    /**\r\n        Links Ethereum addresses to the possibility to change the account\r\n        Since the Ethereum account can be changed once, it is not necessary to put the bool to false.\r\n        TODO: Discuss later what is the best data structure\r\n     */\r\n    mapping(address => bool) public legalEntitiesChangeAccount;\r\n\r\n\r\n    event AccountRegistration(address addr, uint64 cnpj, uint64 idFinancialSupportAgreement, uint32 salic, string idProofHash);\r\n    event AccountChange(address oldAddr, address newAddr, uint64 cnpj, uint64 idFinancialSupportAgreement, uint32 salic, string idProofHash);\r\n    event AccountValidation(address addr, uint64 cnpj, uint64 idFinancialSupportAgreement, uint32 salic);\r\n    event AccountInvalidation(address addr, uint64 cnpj, uint64 idFinancialSupportAgreement, uint32 salic);\r\n\r\n    /**\r\n     * @dev Throws if called by any account other than the token address.\r\n     */\r\n    modifier onlyTokenAddress() {\r\n        require(isTokenAddress());\r\n        _;\r\n    }\r\n\r\n    constructor () public {\r\n        responsibleForSettlement = msg.sender;\r\n        responsibleForRegistryValidation = msg.sender;\r\n        responsibleForDisbursement = msg.sender;\r\n        redemptionAddress = msg.sender;\r\n    }\r\n\r\n\r\n   /**\r\n    * Link blockchain address with CNPJ - It can be a cliente or a supplier\r\n    * The link still needs to be validated by BNDES\r\n    * @param cnpj Brazilian identifier to legal entities\r\n    * @param idFinancialSupportAgreement contract number of financial contract with BNDES. It assumes 0 if it is a supplier.\r\n    * @param salic contract number of financial contract with ANCINE. It assumes 0 if it is a supplier.\r\n    * @param idProofHash The legal entities have to send BNDES a PDF where it assumes as responsible for an Ethereum account. \r\n    *                   This PDF is signed with eCNPJ and send to BNDES. \r\n    */\r\n    function registryLegalEntity(uint64 cnpj, uint64 idFinancialSupportAgreement, uint32 salic, \r\n        address addr, string memory idProofHash) onlyTokenAddress public { \r\n\r\n        // Endereo no pode ter sido cadastrado anteriormente\r\n        require (isAvailableAccount(addr), \"Endereo no pode ter sido cadastrado anteriormente\");\r\n\r\n        require (isValidHash(idProofHash), \"O hash da declarao  invlido\");\r\n\r\n        legalEntitiesInfo[addr] = LegalEntityInfo(cnpj, idFinancialSupportAgreement, salic, idProofHash, BlockchainAccountState.WAITING_VALIDATION);\r\n        \r\n        // No pode haver outro endereo cadastrado para esse mesmo subcrdito\r\n        if (idFinancialSupportAgreement > 0) {\r\n            address account = getBlockchainAccount(cnpj,idFinancialSupportAgreement);\r\n            require (isAvailableAccount(account), \"Cliente j est associado a outro endereo. Use a funo Troca.\");\r\n        }\r\n        else {\r\n            address account = getBlockchainAccount(cnpj,0);\r\n            require (isAvailableAccount(account), \"Fornecedor j est associado a outro endereo. Use a funo Troca.\");\r\n        }\r\n        \r\n        cnpjFSAddr[cnpj][idFinancialSupportAgreement] = addr;\r\n\r\n        emit AccountRegistration(addr, cnpj, idFinancialSupportAgreement, salic, idProofHash);\r\n    }\r\n\r\n   /**\r\n    * Changes the original link between CNPJ and Ethereum account. \r\n    * The new link still needs to be validated by BNDES    \r\n    * @param cnpj Brazilian identifier to legal entities\r\n    * @param idFinancialSupportAgreement contract number of financial contract with BNDES. It assumes 0 if it is a supplier.\r\n    * @param salic contract number of financial contract with ANCINE. It assumes 0 if it is a supplier.\r\n    * @param idProofHash The legal entities have to send BNDES a PDF where it assumes as responsible for an Ethereum account. \r\n    *                   This PDF is signed with eCNPJ and send to BNDES. \r\n    */\r\n    function changeAccountLegalEntity(uint64 cnpj, uint64 idFinancialSupportAgreement, uint32 salic, \r\n        address newAddr, string memory idProofHash) onlyTokenAddress public {\r\n\r\n        address oldAddr = getBlockchainAccount(cnpj, idFinancialSupportAgreement);\r\n    \r\n        // Tem que haver um endereo associado a esse cnpj/subcrdito\r\n        require(!isReservedAccount(oldAddr), \"No pode trocar endereo de conta reservada\");\r\n\r\n        require(!isAvailableAccount(oldAddr), \"Tem que haver um endereo associado a esse cnpj/subcrdito\");\r\n\r\n        require(isAvailableAccount(newAddr), \"Novo endereo no est disponvel\");\r\n\r\n        require (isChangeAccountEnabled(oldAddr), \"A conta atual no est habilitada para troca\");\r\n\r\n        require (isValidHash(idProofHash), \"O hash da declarao  invlido\");        \r\n\r\n        require(legalEntitiesInfo[oldAddr].cnpj==cnpj \r\n                    && legalEntitiesInfo[oldAddr].idFinancialSupportAgreement ==idFinancialSupportAgreement, \r\n                    \"Dados inconsistentes de cnpj ou subcrdito\");\r\n\r\n        // Aponta o novo endereo para o novo LegalEntityInfo\r\n        legalEntitiesInfo[newAddr] = LegalEntityInfo(cnpj, idFinancialSupportAgreement, salic, idProofHash, BlockchainAccountState.WAITING_VALIDATION);\r\n\r\n        // Apaga o mapping do endereo antigo\r\n        legalEntitiesInfo[oldAddr] = LegalEntityInfo(0, 0, 0, \"\", BlockchainAccountState.INVALIDATED_BY_CHANGE);\r\n\r\n        // Aponta mapping CNPJ e Subcredito para newAddr\r\n        cnpjFSAddr[cnpj][idFinancialSupportAgreement] = newAddr;\r\n\r\n        emit AccountChange(oldAddr, newAddr, cnpj, idFinancialSupportAgreement, salic, idProofHash); \r\n\r\n    }\r\n\r\n   /**\r\n    * Validates the initial registry of a legal entity or the change of its registry\r\n    * @param addr Ethereum address that needs to be validated\r\n    * @param idProofHash The legal entities have to send BNDES a PDF where it assumes as responsible for an Ethereum account. \r\n    *                   This PDF is signed with eCNPJ and send to BNDES. \r\n    */\r\n    function validateRegistryLegalEntity(address addr, string memory idProofHash) public {\r\n\r\n        require(isResponsibleForRegistryValidation(msg.sender), \"Somente o responsvel pela validao pode validar contas\");\r\n\r\n        require(legalEntitiesInfo[addr].state == BlockchainAccountState.WAITING_VALIDATION, \"A conta precisa estar no estado Aguardando Validao\");\r\n\r\n        require(keccak256(abi.encodePacked(legalEntitiesInfo[addr].idProofHash)) == keccak256(abi.encodePacked(idProofHash)), \"O hash recebido  diferente do esperado\");\r\n\r\n        legalEntitiesInfo[addr].state = BlockchainAccountState.VALIDATED;\r\n\r\n        emit AccountValidation(addr, legalEntitiesInfo[addr].cnpj, \r\n            legalEntitiesInfo[addr].idFinancialSupportAgreement,\r\n            legalEntitiesInfo[addr].salic);\r\n    }\r\n\r\n   /**\r\n    * Invalidates the initial registry of a legal entity or the change of its registry\r\n    * The invalidation can be called at any time in the lifecycle of the address (not only when it is WAITING_VALIDATION)\r\n    * @param addr Ethereum address that needs to be validated\r\n    */\r\n    function invalidateRegistryLegalEntity(address addr) public {\r\n\r\n        require(isResponsibleForRegistryValidation(msg.sender), \"Somente o responsvel pela validao pode invalidar contas\");\r\n\r\n        require(!isReservedAccount(addr), \"No  possvel invalidar conta reservada\");\r\n\r\n        legalEntitiesInfo[addr].state = BlockchainAccountState.INVALIDATED_BY_VALIDATOR;\r\n        \r\n        emit AccountInvalidation(addr, legalEntitiesInfo[addr].cnpj, \r\n            legalEntitiesInfo[addr].idFinancialSupportAgreement,\r\n            legalEntitiesInfo[addr].salic);\r\n    }\r\n\r\n\r\n   /**\r\n    * By default, the owner is also the Responsible for Settlement. \r\n    * The owner can assign other address to be the Responsible for Settlement. \r\n    * @param rs Ethereum address to be assigned as Responsible for Settlement.\r\n    */\r\n    function setResponsibleForSettlement(address rs) onlyOwner public {\r\n        responsibleForSettlement = rs;\r\n    }\r\n\r\n   /**\r\n    * By default, the owner is also the Responsible for Validation. \r\n    * The owner can assign other address to be the Responsible for Validation. \r\n    * @param rs Ethereum address to be assigned as Responsible for Validation.\r\n    */\r\n    function setResponsibleForRegistryValidation(address rs) onlyOwner public {\r\n        responsibleForRegistryValidation = rs;\r\n    }\r\n\r\n   /**\r\n    * By default, the owner is also the Responsible for Disbursment. \r\n    * The owner can assign other address to be the Responsible for Disbursment. \r\n    * @param rs Ethereum address to be assigned as Responsible for Disbursment.\r\n    */\r\n    function setResponsibleForDisbursement(address rs) onlyOwner public {\r\n        responsibleForDisbursement = rs;\r\n    }\r\n\r\n   /**\r\n    * The supplier reedems the BNDESToken by transfering the tokens to a specific address, \r\n    * called Redemption address. \r\n    * By default, the redemption address is the address of the owner. \r\n    * The owner can change the redemption address using this function. \r\n    * @param rs new Redemption address\r\n    */\r\n    function setRedemptionAddress(address rs) onlyOwner public {\r\n        redemptionAddress = rs;\r\n    }\r\n\r\n   /**\r\n    * @param rs Ethereum address to be assigned to the token address.\r\n    */\r\n    function setTokenAddress(address rs) onlyOwner public {\r\n        tokenAddress = rs;\r\n    }\r\n\r\n   /**\r\n    * Enable the legal entity to change the account\r\n    * @param rs account that can be changed.\r\n    */\r\n    function enableChangeAccount (address rs) public {\r\n        require(isResponsibleForRegistryValidation(msg.sender), \"Somente o responsvel pela validao pode habilitar a troca de conta\");\r\n        legalEntitiesChangeAccount[rs] = true;\r\n    }\r\n\r\n    function isChangeAccountEnabled (address rs) view public returns (bool) {\r\n        return legalEntitiesChangeAccount[rs] == true;\r\n    }    \r\n\r\n    function isTokenAddress() public view returns (bool) {\r\n        return tokenAddress == msg.sender;\r\n    } \r\n    function isResponsibleForSettlement(address addr) view public returns (bool) {\r\n        return (addr == responsibleForSettlement);\r\n    }\r\n    function isResponsibleForRegistryValidation(address addr) view public returns (bool) {\r\n        return (addr == responsibleForRegistryValidation);\r\n    }\r\n    function isResponsibleForDisbursement(address addr) view public returns (bool) {\r\n        return (addr == responsibleForDisbursement);\r\n    }\r\n    function isRedemptionAddress(address addr) view public returns (bool) {\r\n        return (addr == redemptionAddress);\r\n    }\r\n\r\n    function isReservedAccount(address addr) view public returns (bool) {\r\n\r\n        if (isOwner(addr) || isResponsibleForSettlement(addr) \r\n                           || isResponsibleForRegistryValidation(addr)\r\n                           || isResponsibleForDisbursement(addr)\r\n                           || isRedemptionAddress(addr) ) {\r\n            return true;\r\n        }\r\n        return false;\r\n    }\r\n    function isOwner(address addr) view public returns (bool) {\r\n        return owner()==addr;\r\n    }\r\n\r\n    function isSupplier(address addr) view public returns (bool) {\r\n\r\n        if (isReservedAccount(addr))\r\n            return false;\r\n\r\n        if (isAvailableAccount(addr))\r\n            return false;\r\n\r\n        return legalEntitiesInfo[addr].idFinancialSupportAgreement == 0;\r\n    }\r\n\r\n    function isValidatedSupplier (address addr) view public returns (bool) {\r\n        return isSupplier(addr) && (legalEntitiesInfo[addr].state == BlockchainAccountState.VALIDATED);\r\n    }\r\n\r\n    function isClient (address addr) view public returns (bool) {\r\n        if (isReservedAccount(addr)) {\r\n            return false;\r\n        }\r\n        return legalEntitiesInfo[addr].idFinancialSupportAgreement != 0;\r\n    }\r\n\r\n    function isValidatedClient (address addr) view public returns (bool) {\r\n        return isClient(addr) && (legalEntitiesInfo[addr].state == BlockchainAccountState.VALIDATED);\r\n    }\r\n\r\n    function isAvailableAccount(address addr) view public returns (bool) {\r\n        if ( isReservedAccount(addr) ) {\r\n            return false;\r\n        } \r\n        return legalEntitiesInfo[addr].state == BlockchainAccountState.AVAILABLE;\r\n    }\r\n\r\n    function isWaitingValidationAccount(address addr) view public returns (bool) {\r\n        return legalEntitiesInfo[addr].state == BlockchainAccountState.WAITING_VALIDATION;\r\n    }\r\n\r\n    function isValidatedAccount(address addr) view public returns (bool) {\r\n        return legalEntitiesInfo[addr].state == BlockchainAccountState.VALIDATED;\r\n    }\r\n\r\n    function isInvalidatedByValidatorAccount(address addr) view public returns (bool) {\r\n        return legalEntitiesInfo[addr].state == BlockchainAccountState.INVALIDATED_BY_VALIDATOR;\r\n    }\r\n\r\n    function isInvalidatedByChangeAccount(address addr) view public returns (bool) {\r\n        return legalEntitiesInfo[addr].state == BlockchainAccountState.INVALIDATED_BY_CHANGE;\r\n    }\r\n\r\n    function getResponsibleForSettlement() view public returns (address) {\r\n        return responsibleForSettlement;\r\n    }\r\n    function getResponsibleForRegistryValidation() view public returns (address) {\r\n        return responsibleForRegistryValidation;\r\n    }\r\n    function getResponsibleForDisbursement() view public returns (address) {\r\n        return responsibleForDisbursement;\r\n    }\r\n    function getRedemptionAddress() view public returns (address) {\r\n        return redemptionAddress;\r\n    }\r\n    function getCNPJ(address addr) view public returns (uint64) {\r\n        return legalEntitiesInfo[addr].cnpj;\r\n    }\r\n\r\n    function getIdLegalFinancialAgreement(address addr) view public returns (uint64) {\r\n        return legalEntitiesInfo[addr].idFinancialSupportAgreement;\r\n    }\r\n\r\n    function getLegalEntityInfo (address addr) view public returns (uint64, uint64, uint32, string memory, uint, address) {\r\n        return (legalEntitiesInfo[addr].cnpj, legalEntitiesInfo[addr].idFinancialSupportAgreement, \r\n             legalEntitiesInfo[addr].salic, legalEntitiesInfo[addr].idProofHash, (uint) (legalEntitiesInfo[addr].state),\r\n             addr);\r\n    }\r\n\r\n    function getBlockchainAccount(uint64 cnpj, uint64 idFinancialSupportAgreement) view public returns (address) {\r\n        return cnpjFSAddr[cnpj][idFinancialSupportAgreement];\r\n    }\r\n\r\n    function getLegalEntityInfoByCNPJ (uint64 cnpj, uint64 idFinancialSupportAgreement) \r\n        view public returns (uint64, uint64, uint32, string memory, uint, address) {\r\n        \r\n        address addr = getBlockchainAccount(cnpj,idFinancialSupportAgreement);\r\n        return getLegalEntityInfo (addr);\r\n    }\r\n\r\n    function getAccountState(address addr) view public returns (int) {\r\n\r\n        if ( isReservedAccount(addr) ) {\r\n            return 100;\r\n        } \r\n        else {\r\n            return ((int) (legalEntitiesInfo[addr].state));\r\n        }\r\n\r\n    }\r\n\r\n\r\n  function isValidHash(string memory str) pure public returns (bool)  {\r\n\r\n    bytes memory b = bytes(str);\r\n    if(b.length != 64) return false;\r\n\r\n    for (uint i=0; i<64; i++) {\r\n        if (b[i] < \"0\") return false;\r\n        if (b[i] > \"9\" && b[i] <\"a\") return false;\r\n        if (b[i] > \"f\") return false;\r\n    }\r\n        \r\n    return true;\r\n }\r\n\r\n\r\n}",
  "sourcePath": "D:\\Workspace\\bndestoken\\Back-Blockchain\\contracts\\BNDESRegistry.sol",
  "compiler": {
    "name": "solc",
    "version": "0.5.0+commit.1d4f565a.Emscripten.clang"
  },
  "schemaVersion": "3.0.5",
  "updatedAt": "2019-06-18T17:22:31.081Z",
  "devdoc": {
    "methods": {
      "changeAccountLegalEntity(uint64,uint64,uint32,address,string)": {
        "params": {
          "cnpj": "Brazilian identifier to legal entities\r",
          "idFinancialSupportAgreement": "contract number of financial contract with BNDES. It assumes 0 if it is a supplier.\r",
          "idProofHash": "The legal entities have to send BNDES a PDF where it assumes as responsible for an Ethereum account. \r                  This PDF is signed with eCNPJ and send to BNDES. \r",
          "salic": "contract number of financial contract with ANCINE. It assumes 0 if it is a supplier.\r"
        }
      },
      "enableChangeAccount(address)": {
        "params": {
          "rs": "account that can be changed.\r"
        }
      },
      "invalidateRegistryLegalEntity(address)": {
        "params": {
          "addr": "Ethereum address that needs to be validated\r"
        }
      },
      "isOwner()": {
        "return": "true if `msg.sender` is the owner of the contract."
      },
      "owner()": {
        "return": "the address of the owner."
      },
      "registryLegalEntity(uint64,uint64,uint32,address,string)": {
        "params": {
          "cnpj": "Brazilian identifier to legal entities\r",
          "idFinancialSupportAgreement": "contract number of financial contract with BNDES. It assumes 0 if it is a supplier.\r",
          "idProofHash": "The legal entities have to send BNDES a PDF where it assumes as responsible for an Ethereum account. \r                  This PDF is signed with eCNPJ and send to BNDES. \r",
          "salic": "contract number of financial contract with ANCINE. It assumes 0 if it is a supplier.\r"
        }
      },
      "renounceOwnership()": {
        "details": "Allows the current owner to relinquish control of the contract."
      },
      "setRedemptionAddress(address)": {
        "params": {
          "rs": "new Redemption address\r"
        }
      },
      "setResponsibleForDisbursement(address)": {
        "params": {
          "rs": "Ethereum address to be assigned as Responsible for Disbursment.\r"
        }
      },
      "setResponsibleForRegistryValidation(address)": {
        "params": {
          "rs": "Ethereum address to be assigned as Responsible for Validation.\r"
        }
      },
      "setResponsibleForSettlement(address)": {
        "params": {
          "rs": "Ethereum address to be assigned as Responsible for Settlement.\r"
        }
      },
      "setTokenAddress(address)": {
        "params": {
          "rs": "Ethereum address to be assigned to the token address.\r"
        }
      },
      "transferOwnership(address)": {
        "details": "Allows the current owner to transfer control of the contract to a newOwner.",
        "params": {
          "newOwner": "The address to transfer ownership to."
        }
      },
      "validateRegistryLegalEntity(address,string)": {
        "params": {
          "addr": "Ethereum address that needs to be validated\r",
          "idProofHash": "The legal entities have to send BNDES a PDF where it assumes as responsible for an Ethereum account. \r                  This PDF is signed with eCNPJ and send to BNDES. \r"
        }
      }
    }
  },
  "userdoc": {
    "methods": {
      "changeAccountLegalEntity(uint64,uint64,uint32,address,string)": {
        "notice": "Changes the original link between CNPJ and Ethereum account. \r The new link still needs to be validated by BNDES    \r"
      },
      "enableChangeAccount(address)": {
        "notice": "Enable the legal entity to change the account\r"
      },
      "invalidateRegistryLegalEntity(address)": {
        "notice": "Invalidates the initial registry of a legal entity or the change of its registry\r The invalidation can be called at any time in the lifecycle of the address (not only when it is WAITING_VALIDATION)\r"
      },
      "registryLegalEntity(uint64,uint64,uint32,address,string)": {
        "notice": "Link blockchain address with CNPJ - It can be a cliente or a supplier\r The link still needs to be validated by BNDES\r"
      },
      "renounceOwnership()": {
        "notice": "Renouncing to ownership will leave the contract without an owner. It will not be possible to call the functions with the `onlyOwner` modifier anymore."
      },
      "setRedemptionAddress(address)": {
        "notice": "The supplier reedems the BNDESToken by transfering the tokens to a specific address, \r called Redemption address. \r By default, the redemption address is the address of the owner. \r The owner can change the redemption address using this function. \r"
      },
      "setResponsibleForDisbursement(address)": {
        "notice": "By default, the owner is also the Responsible for Disbursment. \r The owner can assign other address to be the Responsible for Disbursment. \r"
      },
      "setResponsibleForRegistryValidation(address)": {
        "notice": "By default, the owner is also the Responsible for Validation. \r The owner can assign other address to be the Responsible for Validation. \r"
      },
      "setResponsibleForSettlement(address)": {
        "notice": "By default, the owner is also the Responsible for Settlement. \r The owner can assign other address to be the Responsible for Settlement. \r"
      },
      "validateRegistryLegalEntity(address,string)": {
        "notice": "Validates the initial registry of a legal entity or the change of its registry\r"
      }
    }
  }
}