{
  "contractName": "BNDESToken",
  "abi": [
    {
      "constant": true,
      "inputs": [],
      "name": "name",
      "outputs": [
        {
          "name": "",
          "type": "string"
        }
      ],
      "payable": false,
      "stateMutability": "view",
      "type": "function",
      "signature": "0x06fdde03"
    },
    {
      "constant": false,
      "inputs": [
        {
          "name": "spender",
          "type": "address"
        },
        {
          "name": "value",
          "type": "uint256"
        }
      ],
      "name": "approve",
      "outputs": [
        {
          "name": "",
          "type": "bool"
        }
      ],
      "payable": false,
      "stateMutability": "nonpayable",
      "type": "function",
      "signature": "0x095ea7b3"
    },
    {
      "constant": true,
      "inputs": [],
      "name": "totalSupply",
      "outputs": [
        {
          "name": "",
          "type": "uint256"
        }
      ],
      "payable": false,
      "stateMutability": "view",
      "type": "function",
      "signature": "0x18160ddd"
    },
    {
      "constant": false,
      "inputs": [
        {
          "name": "from",
          "type": "address"
        },
        {
          "name": "to",
          "type": "address"
        },
        {
          "name": "value",
          "type": "uint256"
        }
      ],
      "name": "transferFrom",
      "outputs": [
        {
          "name": "",
          "type": "bool"
        }
      ],
      "payable": false,
      "stateMutability": "nonpayable",
      "type": "function",
      "signature": "0x23b872dd"
    },
    {
      "constant": true,
      "inputs": [],
      "name": "decimals",
      "outputs": [
        {
          "name": "",
          "type": "uint8"
        }
      ],
      "payable": false,
      "stateMutability": "view",
      "type": "function",
      "signature": "0x313ce567"
    },
    {
      "constant": false,
      "inputs": [
        {
          "name": "spender",
          "type": "address"
        },
        {
          "name": "addedValue",
          "type": "uint256"
        }
      ],
      "name": "increaseAllowance",
      "outputs": [
        {
          "name": "success",
          "type": "bool"
        }
      ],
      "payable": false,
      "stateMutability": "nonpayable",
      "type": "function",
      "signature": "0x39509351"
    },
    {
      "constant": false,
      "inputs": [],
      "name": "unpause",
      "outputs": [],
      "payable": false,
      "stateMutability": "nonpayable",
      "type": "function",
      "signature": "0x3f4ba83a"
    },
    {
      "constant": false,
      "inputs": [
        {
          "name": "to",
          "type": "address"
        },
        {
          "name": "value",
          "type": "uint256"
        }
      ],
      "name": "mint",
      "outputs": [
        {
          "name": "",
          "type": "bool"
        }
      ],
      "payable": false,
      "stateMutability": "nonpayable",
      "type": "function",
      "signature": "0x40c10f19"
    },
    {
      "constant": false,
      "inputs": [
        {
          "name": "value",
          "type": "uint256"
        }
      ],
      "name": "burn",
      "outputs": [],
      "payable": false,
      "stateMutability": "nonpayable",
      "type": "function",
      "signature": "0x42966c68"
    },
    {
      "constant": true,
      "inputs": [
        {
          "name": "account",
          "type": "address"
        }
      ],
      "name": "isPauser",
      "outputs": [
        {
          "name": "",
          "type": "bool"
        }
      ],
      "payable": false,
      "stateMutability": "view",
      "type": "function",
      "signature": "0x46fbf68e"
    },
    {
      "constant": true,
      "inputs": [],
      "name": "paused",
      "outputs": [
        {
          "name": "",
          "type": "bool"
        }
      ],
      "payable": false,
      "stateMutability": "view",
      "type": "function",
      "signature": "0x5c975abb"
    },
    {
      "constant": false,
      "inputs": [],
      "name": "renouncePauser",
      "outputs": [],
      "payable": false,
      "stateMutability": "nonpayable",
      "type": "function",
      "signature": "0x6ef8d66d"
    },
    {
      "constant": true,
      "inputs": [
        {
          "name": "owner",
          "type": "address"
        }
      ],
      "name": "balanceOf",
      "outputs": [
        {
          "name": "",
          "type": "uint256"
        }
      ],
      "payable": false,
      "stateMutability": "view",
      "type": "function",
      "signature": "0x70a08231"
    },
    {
      "constant": false,
      "inputs": [],
      "name": "renounceOwnership",
      "outputs": [],
      "payable": false,
      "stateMutability": "nonpayable",
      "type": "function",
      "signature": "0x715018a6"
    },
    {
      "constant": false,
      "inputs": [
        {
          "name": "from",
          "type": "address"
        },
        {
          "name": "value",
          "type": "uint256"
        }
      ],
      "name": "burnFrom",
      "outputs": [],
      "payable": false,
      "stateMutability": "nonpayable",
      "type": "function",
      "signature": "0x79cc6790"
    },
    {
      "constant": false,
      "inputs": [
        {
          "name": "account",
          "type": "address"
        }
      ],
      "name": "addPauser",
      "outputs": [],
      "payable": false,
      "stateMutability": "nonpayable",
      "type": "function",
      "signature": "0x82dc1ec4"
    },
    {
      "constant": false,
      "inputs": [],
      "name": "pause",
      "outputs": [],
      "payable": false,
      "stateMutability": "nonpayable",
      "type": "function",
      "signature": "0x8456cb59"
    },
    {
      "constant": true,
      "inputs": [],
      "name": "owner",
      "outputs": [
        {
          "name": "",
          "type": "address"
        }
      ],
      "payable": false,
      "stateMutability": "view",
      "type": "function",
      "signature": "0x8da5cb5b"
    },
    {
      "constant": true,
      "inputs": [],
      "name": "isOwner",
      "outputs": [
        {
          "name": "",
          "type": "bool"
        }
      ],
      "payable": false,
      "stateMutability": "view",
      "type": "function",
      "signature": "0x8f32d59b"
    },
    {
      "constant": true,
      "inputs": [],
      "name": "symbol",
      "outputs": [
        {
          "name": "",
          "type": "string"
        }
      ],
      "payable": false,
      "stateMutability": "view",
      "type": "function",
      "signature": "0x95d89b41"
    },
    {
      "constant": false,
      "inputs": [
        {
          "name": "account",
          "type": "address"
        }
      ],
      "name": "addMinter",
      "outputs": [],
      "payable": false,
      "stateMutability": "nonpayable",
      "type": "function",
      "signature": "0x983b2d56"
    },
    {
      "constant": false,
      "inputs": [],
      "name": "renounceMinter",
      "outputs": [],
      "payable": false,
      "stateMutability": "nonpayable",
      "type": "function",
      "signature": "0x98650275"
    },
    {
      "constant": false,
      "inputs": [
        {
          "name": "spender",
          "type": "address"
        },
        {
          "name": "subtractedValue",
          "type": "uint256"
        }
      ],
      "name": "decreaseAllowance",
      "outputs": [
        {
          "name": "success",
          "type": "bool"
        }
      ],
      "payable": false,
      "stateMutability": "nonpayable",
      "type": "function",
      "signature": "0xa457c2d7"
    },
    {
      "constant": true,
      "inputs": [
        {
          "name": "account",
          "type": "address"
        }
      ],
      "name": "isMinter",
      "outputs": [
        {
          "name": "",
          "type": "bool"
        }
      ],
      "payable": false,
      "stateMutability": "view",
      "type": "function",
      "signature": "0xaa271e1a"
    },
    {
      "constant": true,
      "inputs": [
        {
          "name": "owner",
          "type": "address"
        },
        {
          "name": "spender",
          "type": "address"
        }
      ],
      "name": "allowance",
      "outputs": [
        {
          "name": "",
          "type": "uint256"
        }
      ],
      "payable": false,
      "stateMutability": "view",
      "type": "function",
      "signature": "0xdd62ed3e"
    },
    {
      "constant": true,
      "inputs": [
        {
          "name": "",
          "type": "address"
        }
      ],
      "name": "pjsInfo",
      "outputs": [
        {
          "name": "cnpj",
          "type": "uint256"
        },
        {
          "name": "idSubcredito",
          "type": "uint256"
        },
        {
          "name": "salic",
          "type": "uint256"
        },
        {
          "name": "hashdeclaracao",
          "type": "string"
        },
        {
          "name": "estado",
          "type": "uint8"
        }
      ],
      "payable": false,
      "stateMutability": "view",
      "type": "function",
      "signature": "0xeb8786a3"
    },
    {
      "constant": false,
      "inputs": [
        {
          "name": "newOwner",
          "type": "address"
        }
      ],
      "name": "transferOwnership",
      "outputs": [],
      "payable": false,
      "stateMutability": "nonpayable",
      "type": "function",
      "signature": "0xf2fde38b"
    },
    {
      "inputs": [],
      "payable": false,
      "stateMutability": "nonpayable",
      "type": "constructor",
      "signature": "constructor"
    },
    {
      "anonymous": false,
      "inputs": [
        {
          "indexed": false,
          "name": "endereco",
          "type": "address"
        },
        {
          "indexed": false,
          "name": "cnpj",
          "type": "uint256"
        },
        {
          "indexed": false,
          "name": "idSubcredito",
          "type": "uint256"
        },
        {
          "indexed": false,
          "name": "salic",
          "type": "uint256"
        },
        {
          "indexed": false,
          "name": "hashdeclaracao",
          "type": "string"
        }
      ],
      "name": "CadastroConta",
      "type": "event",
      "signature": "0x8ec53aa58c6aeaba77afa132c2419aac81b51cc3a70482ba0d9b207a4db9d315"
    },
    {
      "anonymous": false,
      "inputs": [
        {
          "indexed": false,
          "name": "endereco",
          "type": "address"
        },
        {
          "indexed": false,
          "name": "cnpj",
          "type": "uint256"
        },
        {
          "indexed": false,
          "name": "idSubcredito",
          "type": "uint256"
        },
        {
          "indexed": false,
          "name": "salic",
          "type": "uint256"
        },
        {
          "indexed": false,
          "name": "hashdeclaracao",
          "type": "string"
        }
      ],
      "name": "TrocaConta",
      "type": "event",
      "signature": "0x1bf55d918db6a8051eda4ecd2d786648884b24d401e7907190cf191a8da47520"
    },
    {
      "anonymous": false,
      "inputs": [
        {
          "indexed": false,
          "name": "endereco",
          "type": "address"
        }
      ],
      "name": "ValidacaoConta",
      "type": "event",
      "signature": "0x28b8b7b8f52bbe893d4290bc2a5d3328a194eceb6b3a7398737d0bbf075a1e02"
    },
    {
      "anonymous": false,
      "inputs": [
        {
          "indexed": false,
          "name": "endereco",
          "type": "address"
        }
      ],
      "name": "InvalidacaoCadastroConta",
      "type": "event",
      "signature": "0xf88096f95619381cee1f86cd4df1d8d1c46c6356a98d01e58f308fba80d51bcf"
    },
    {
      "anonymous": false,
      "inputs": [
        {
          "indexed": false,
          "name": "cnpj",
          "type": "uint256"
        },
        {
          "indexed": false,
          "name": "idSubcredito",
          "type": "uint256"
        },
        {
          "indexed": false,
          "name": "valor",
          "type": "uint256"
        }
      ],
      "name": "Liberacao",
      "type": "event",
      "signature": "0x47d719b82e81a39b08d84987f8ad51a5ea9a21abcce186f6e6ff9d976d108d88"
    },
    {
      "anonymous": false,
      "inputs": [
        {
          "indexed": false,
          "name": "fromCnpj",
          "type": "uint256"
        },
        {
          "indexed": false,
          "name": "fromSubcredito",
          "type": "uint256"
        },
        {
          "indexed": false,
          "name": "toCnpj",
          "type": "uint256"
        },
        {
          "indexed": false,
          "name": "valor",
          "type": "uint256"
        }
      ],
      "name": "Transferencia",
      "type": "event",
      "signature": "0xaec818078011dacff79dbaf41c20c89bfb2251fcb05054fe5122908d3889bd91"
    },
    {
      "anonymous": false,
      "inputs": [
        {
          "indexed": false,
          "name": "fromCnpj",
          "type": "uint256"
        },
        {
          "indexed": false,
          "name": "fromSubcredito",
          "type": "uint256"
        },
        {
          "indexed": false,
          "name": "toCnpj",
          "type": "uint256"
        },
        {
          "indexed": false,
          "name": "valor",
          "type": "uint256"
        }
      ],
      "name": "Repasse",
      "type": "event",
      "signature": "0xf0ca622a49d520fd170158731fd9d9478bab38887f40a2d9f05e0da184e4e705"
    },
    {
      "anonymous": false,
      "inputs": [
        {
          "indexed": false,
          "name": "cnpj",
          "type": "uint256"
        },
        {
          "indexed": false,
          "name": "valor",
          "type": "uint256"
        }
      ],
      "name": "Resgate",
      "type": "event",
      "signature": "0x17a9cafb1bb84312c4e08209598c86c2844a433e998bb1bd472c696cca0c95b7"
    },
    {
      "anonymous": false,
      "inputs": [
        {
          "indexed": false,
          "name": "hashResgate",
          "type": "string"
        },
        {
          "indexed": false,
          "name": "hashComprovante",
          "type": "string"
        },
        {
          "indexed": false,
          "name": "isOk",
          "type": "bool"
        }
      ],
      "name": "LiquidacaoResgate",
      "type": "event",
      "signature": "0x98f191d7ada5335667849fbd5155b5196feea99dacc2673cc2e0388223c6533e"
    },
    {
      "anonymous": false,
      "inputs": [
        {
          "indexed": true,
          "name": "previousOwner",
          "type": "address"
        },
        {
          "indexed": true,
          "name": "newOwner",
          "type": "address"
        }
      ],
      "name": "OwnershipTransferred",
      "type": "event",
      "signature": "0x8be0079c531659141344cd1fd0a4f28419497f9722a3daafe3b4186f6b6457e0"
    },
    {
      "anonymous": false,
      "inputs": [
        {
          "indexed": true,
          "name": "account",
          "type": "address"
        }
      ],
      "name": "MinterAdded",
      "type": "event",
      "signature": "0x6ae172837ea30b801fbfcdd4108aa1d5bf8ff775444fd70256b44e6bf3dfc3f6"
    },
    {
      "anonymous": false,
      "inputs": [
        {
          "indexed": true,
          "name": "account",
          "type": "address"
        }
      ],
      "name": "MinterRemoved",
      "type": "event",
      "signature": "0xe94479a9f7e1952cc78f2d6baab678adc1b772d936c6583def489e524cb66692"
    },
    {
      "anonymous": false,
      "inputs": [
        {
          "indexed": false,
          "name": "account",
          "type": "address"
        }
      ],
      "name": "Paused",
      "type": "event",
      "signature": "0x62e78cea01bee320cd4e420270b5ea74000d11b0c9f74754ebdbfc544b05a258"
    },
    {
      "anonymous": false,
      "inputs": [
        {
          "indexed": false,
          "name": "account",
          "type": "address"
        }
      ],
      "name": "Unpaused",
      "type": "event",
      "signature": "0x5db9ee0a495bf2e6ff9c91a7834c1ba4fdd244a5e8aa4e537bd38aeae4b073aa"
    },
    {
      "anonymous": false,
      "inputs": [
        {
          "indexed": true,
          "name": "account",
          "type": "address"
        }
      ],
      "name": "PauserAdded",
      "type": "event",
      "signature": "0x6719d08c1888103bea251a4ed56406bd0c3e69723c8a1686e017e7bbe159b6f8"
    },
    {
      "anonymous": false,
      "inputs": [
        {
          "indexed": true,
          "name": "account",
          "type": "address"
        }
      ],
      "name": "PauserRemoved",
      "type": "event",
      "signature": "0xcd265ebaf09df2871cc7bd4133404a235ba12eff2041bb89d9c714a2621c7c7e"
    },
    {
      "anonymous": false,
      "inputs": [
        {
          "indexed": true,
          "name": "from",
          "type": "address"
        },
        {
          "indexed": true,
          "name": "to",
          "type": "address"
        },
        {
          "indexed": false,
          "name": "value",
          "type": "uint256"
        }
      ],
      "name": "Transfer",
      "type": "event",
      "signature": "0xddf252ad1be2c89b69c2b068fc378daa952ba7f163c4a11628f55a4df523b3ef"
    },
    {
      "anonymous": false,
      "inputs": [
        {
          "indexed": true,
          "name": "owner",
          "type": "address"
        },
        {
          "indexed": true,
          "name": "spender",
          "type": "address"
        },
        {
          "indexed": false,
          "name": "value",
          "type": "uint256"
        }
      ],
      "name": "Approval",
      "type": "event",
      "signature": "0x8c5be1e5ebec7d5bd14f71427d1e84f3dd0314c0f7b2291e5b200ac8c7c3b925"
    },
    {
      "constant": false,
      "inputs": [
        {
          "name": "rs",
          "type": "address"
        }
      ],
      "name": "setResponsibleForSettlement",
      "outputs": [],
      "payable": false,
      "stateMutability": "nonpayable",
      "type": "function",
      "signature": "0xb7404ff5"
    },
    {
      "constant": false,
      "inputs": [
        {
          "name": "_cnpj",
          "type": "uint256"
        },
        {
          "name": "_idSubcredito",
          "type": "uint256"
        },
        {
          "name": "_salic",
          "type": "uint256"
        },
        {
          "name": "hashdeclaracao",
          "type": "string"
        }
      ],
      "name": "cadastra",
      "outputs": [],
      "payable": false,
      "stateMutability": "nonpayable",
      "type": "function",
      "signature": "0xe1ebf4e0"
    },
    {
      "constant": false,
      "inputs": [
        {
          "name": "_cnpj",
          "type": "uint256"
        },
        {
          "name": "_idSubcredito",
          "type": "uint256"
        },
        {
          "name": "_salic",
          "type": "uint256"
        },
        {
          "name": "_hashdeclaracao",
          "type": "string"
        }
      ],
      "name": "troca",
      "outputs": [],
      "payable": false,
      "stateMutability": "nonpayable",
      "type": "function",
      "signature": "0xd04df6b3"
    },
    {
      "constant": true,
      "inputs": [],
      "name": "getVersao",
      "outputs": [
        {
          "name": "",
          "type": "uint256"
        }
      ],
      "payable": false,
      "stateMutability": "view",
      "type": "function",
      "signature": "0x7134c73b"
    },
    {
      "constant": true,
      "inputs": [
        {
          "name": "_addr",
          "type": "address"
        }
      ],
      "name": "getCNPJ",
      "outputs": [
        {
          "name": "",
          "type": "uint256"
        }
      ],
      "payable": false,
      "stateMutability": "view",
      "type": "function",
      "signature": "0xbe49b78d"
    },
    {
      "constant": true,
      "inputs": [
        {
          "name": "_addr",
          "type": "address"
        }
      ],
      "name": "getSubcredito",
      "outputs": [
        {
          "name": "",
          "type": "uint256"
        }
      ],
      "payable": false,
      "stateMutability": "view",
      "type": "function",
      "signature": "0x88137e34"
    },
    {
      "constant": true,
      "inputs": [
        {
          "name": "_addr",
          "type": "address"
        }
      ],
      "name": "getPJInfo",
      "outputs": [
        {
          "name": "",
          "type": "uint256"
        },
        {
          "name": "",
          "type": "uint256"
        },
        {
          "name": "",
          "type": "uint256"
        },
        {
          "name": "",
          "type": "string"
        },
        {
          "name": "",
          "type": "uint256"
        }
      ],
      "payable": false,
      "stateMutability": "view",
      "type": "function",
      "signature": "0x097ec48c"
    },
    {
      "constant": true,
      "inputs": [
        {
          "name": "_cnpj",
          "type": "uint256"
        },
        {
          "name": "_idSubcredito",
          "type": "uint256"
        }
      ],
      "name": "getContaBlockchain",
      "outputs": [
        {
          "name": "",
          "type": "address"
        }
      ],
      "payable": false,
      "stateMutability": "view",
      "type": "function",
      "signature": "0x0098cbac"
    },
    {
      "constant": false,
      "inputs": [
        {
          "name": "_to",
          "type": "address"
        },
        {
          "name": "_value",
          "type": "uint256"
        }
      ],
      "name": "transfer",
      "outputs": [
        {
          "name": "",
          "type": "bool"
        }
      ],
      "payable": false,
      "stateMutability": "nonpayable",
      "type": "function",
      "signature": "0xa9059cbb"
    },
    {
      "constant": false,
      "inputs": [
        {
          "name": "_addr",
          "type": "address"
        },
        {
          "name": "_hashdeclaracao",
          "type": "string"
        }
      ],
      "name": "validarCadastro",
      "outputs": [],
      "payable": false,
      "stateMutability": "nonpayable",
      "type": "function",
      "signature": "0xd58b54c9"
    },
    {
      "constant": false,
      "inputs": [
        {
          "name": "_addr",
          "type": "address"
        }
      ],
      "name": "invalidarCadastro",
      "outputs": [],
      "payable": false,
      "stateMutability": "nonpayable",
      "type": "function",
      "signature": "0x88e7238b"
    },
    {
      "constant": true,
      "inputs": [
        {
          "name": "_addr",
          "type": "address"
        }
      ],
      "name": "isContaReservada",
      "outputs": [
        {
          "name": "",
          "type": "bool"
        }
      ],
      "payable": false,
      "stateMutability": "view",
      "type": "function",
      "signature": "0x1202761c"
    },
    {
      "constant": true,
      "inputs": [
        {
          "name": "_addr",
          "type": "address"
        }
      ],
      "name": "isFornecedor",
      "outputs": [
        {
          "name": "",
          "type": "bool"
        }
      ],
      "payable": false,
      "stateMutability": "view",
      "type": "function",
      "signature": "0xe704a107"
    },
    {
      "constant": true,
      "inputs": [
        {
          "name": "_addr",
          "type": "address"
        }
      ],
      "name": "isValidatedSupplier",
      "outputs": [
        {
          "name": "",
          "type": "bool"
        }
      ],
      "payable": false,
      "stateMutability": "view",
      "type": "function",
      "signature": "0x348da3f2"
    },
    {
      "constant": true,
      "inputs": [
        {
          "name": "_addr",
          "type": "address"
        }
      ],
      "name": "isCliente",
      "outputs": [
        {
          "name": "",
          "type": "bool"
        }
      ],
      "payable": false,
      "stateMutability": "view",
      "type": "function",
      "signature": "0x68b183d4"
    },
    {
      "constant": true,
      "inputs": [
        {
          "name": "_addr",
          "type": "address"
        }
      ],
      "name": "isValidatedClient",
      "outputs": [
        {
          "name": "",
          "type": "bool"
        }
      ],
      "payable": false,
      "stateMutability": "view",
      "type": "function",
      "signature": "0xc01ed210"
    },
    {
      "constant": true,
      "inputs": [
        {
          "name": "_addr",
          "type": "address"
        }
      ],
      "name": "isBNDES",
      "outputs": [
        {
          "name": "",
          "type": "bool"
        }
      ],
      "payable": false,
      "stateMutability": "view",
      "type": "function",
      "signature": "0x46dbc664"
    },
    {
      "constant": true,
      "inputs": [
        {
          "name": "_addr",
          "type": "address"
        }
      ],
      "name": "isResponsibleForSettlement",
      "outputs": [
        {
          "name": "",
          "type": "bool"
        }
      ],
      "payable": false,
      "stateMutability": "view",
      "type": "function",
      "signature": "0x85fecf9b"
    },
    {
      "constant": false,
      "inputs": [
        {
          "name": "redemptionTransactionHash",
          "type": "string"
        },
        {
          "name": "receiptHash",
          "type": "string"
        },
        {
          "name": "isOk",
          "type": "bool"
        }
      ],
      "name": "notificaLiquidacaoResgate",
      "outputs": [],
      "payable": false,
      "stateMutability": "nonpayable",
      "type": "function",
      "signature": "0xc415f8df"
    },
    {
      "constant": true,
      "inputs": [
        {
          "name": "_addr",
          "type": "address"
        }
      ],
      "name": "getEstadoContaAsString",
      "outputs": [
        {
          "name": "",
          "type": "string"
        }
      ],
      "payable": false,
      "stateMutability": "view",
      "type": "function",
      "signature": "0x32fe141a"
    },
    {
      "constant": true,
      "inputs": [
        {
          "name": "_addr",
          "type": "address"
        }
      ],
      "name": "isContaDisponivel",
      "outputs": [
        {
          "name": "",
          "type": "bool"
        }
      ],
      "payable": false,
      "stateMutability": "view",
      "type": "function",
      "signature": "0x7450cf77"
    },
    {
      "constant": true,
      "inputs": [
        {
          "name": "_addr",
          "type": "address"
        }
      ],
      "name": "isContaAguardandoValidacao",
      "outputs": [
        {
          "name": "",
          "type": "bool"
        }
      ],
      "payable": false,
      "stateMutability": "view",
      "type": "function",
      "signature": "0x5835e281"
    },
    {
      "constant": true,
      "inputs": [
        {
          "name": "_addr",
          "type": "address"
        }
      ],
      "name": "isContaValidada",
      "outputs": [
        {
          "name": "",
          "type": "bool"
        }
      ],
      "payable": false,
      "stateMutability": "view",
      "type": "function",
      "signature": "0xefa4b969"
    }
  ],
  "bytecode": "0x60806040526301341475600a553480156200001957600080fd5b506040805190810160405280600a81526020017f424e444553546f6b656e000000000000000000000000000000000000000000008152506040805190810160405280600381526020017f424e4400000000000000000000000000000000000000000000000000000000008152506002620000a2336200022c640100000000026401000000009004565b6000600460006101000a81548160ff0219169083151502179055508260059080519060200190620000d592919062000458565b508160069080519060200190620000ee92919062000458565b5080600760006101000a81548160ff021916908360ff160217905550505050620001273362000296640100000000026401000000009004565b33600960006101000a81548173ffffffffffffffffffffffffffffffffffffffff021916908373ffffffffffffffffffffffffffffffffffffffff160217905550600960009054906101000a900473ffffffffffffffffffffffffffffffffffffffff1673ffffffffffffffffffffffffffffffffffffffff16600073ffffffffffffffffffffffffffffffffffffffff167f8be0079c531659141344cd1fd0a4f28419497f9722a3daafe3b4186f6b6457e060405160405180910390a333600b60016101000a81548173ffffffffffffffffffffffffffffffffffffffff021916908373ffffffffffffffffffffffffffffffffffffffff16021790555062000507565b62000250816003620003006401000000000262005b48179091906401000000009004565b8073ffffffffffffffffffffffffffffffffffffffff167f6719d08c1888103bea251a4ed56406bd0c3e69723c8a1686e017e7bbe159b6f860405160405180910390a250565b620002ba816008620003006401000000000262005b48179091906401000000009004565b8073ffffffffffffffffffffffffffffffffffffffff167f6ae172837ea30b801fbfcdd4108aa1d5bf8ff775444fd70256b44e6bf3dfc3f660405160405180910390a250565b600073ffffffffffffffffffffffffffffffffffffffff168173ffffffffffffffffffffffffffffffffffffffff16141515156200033d57600080fd5b620003588282620003c3640100000000026401000000009004565b1515156200036557600080fd5b60018260000160008373ffffffffffffffffffffffffffffffffffffffff1673ffffffffffffffffffffffffffffffffffffffff16815260200190815260200160002060006101000a81548160ff0219169083151502179055505050565b60008073ffffffffffffffffffffffffffffffffffffffff168273ffffffffffffffffffffffffffffffffffffffff16141515156200040157600080fd5b8260000160008373ffffffffffffffffffffffffffffffffffffffff1673ffffffffffffffffffffffffffffffffffffffff16815260200190815260200160002060009054906101000a900460ff16905092915050565b828054600181600116156101000203166002900490600052602060002090601f016020900481019282601f106200049b57805160ff1916838001178555620004cc565b82800160010185558215620004cc579182015b82811115620004cb578251825591602001919060010190620004ae565b5b509050620004db9190620004df565b5090565b6200050491905b8082111562000500576000816000905550600101620004e6565b5090565b90565b615cc980620005176000396000f3fe60806040526004361061025b576000357c0100000000000000000000000000000000000000000000000000000000900463ffffffff16806298cbac1461026057806306fdde03146102e5578063095ea7b314610375578063097ec48c146103e85780631202761c146104ce57806318160ddd1461053757806323b872dd14610562578063313ce567146105f557806332fe141a14610626578063348da3f2146106f057806339509351146107595780633f4ba83a146107cc57806340c10f19146107e357806342966c681461085657806346dbc6641461089157806346fbf68e146108fa5780635835e281146109635780635c975abb146109cc57806368b183d4146109fb5780636ef8d66d14610a6457806370a0823114610a7b5780637134c73b14610ae0578063715018a614610b0b5780637450cf7714610b2257806379cc679014610b8b57806382dc1ec414610be65780638456cb5914610c3757806385fecf9b14610c4e57806388137e3414610cb757806388e7238b14610d1c5780638da5cb5b14610d6d5780638f32d59b14610dc457806395d89b4114610df3578063983b2d5614610e835780639865027514610ed4578063a457c2d714610eeb578063a9059cbb14610f5e578063aa271e1a14610fd1578063b7404ff51461103a578063be49b78d1461108b578063c01ed210146110f0578063c415f8df14611159578063d04df6b3146112c4578063d58b54c9146113aa578063dd62ed3e14611492578063e1ebf4e014611517578063e704a107146115fd578063eb8786a314611666578063efa4b9691461175a578063f2fde38b146117c3575b600080fd5b34801561026c57600080fd5b506102a36004803603604081101561028357600080fd5b810190808035906020019092919080359060200190929190505050611814565b604051808273ffffffffffffffffffffffffffffffffffffffff1673ffffffffffffffffffffffffffffffffffffffff16815260200191505060405180910390f35b3480156102f157600080fd5b506102fa611863565b6040518080602001828103825283818151815260200191508051906020019080838360005b8381101561033a57808201518184015260208101905061031f565b50505050905090810190601f1680156103675780820380516001836020036101000a031916815260200191505b509250505060405180910390f35b34801561038157600080fd5b506103ce6004803603604081101561039857600080fd5b81019080803573ffffffffffffffffffffffffffffffffffffffff16906020019092919080359060200190929190505050611905565b604051808215151515815260200191505060405180910390f35b3480156103f457600080fd5b506104376004803603602081101561040b57600080fd5b81019080803573ffffffffffffffffffffffffffffffffffffffff169060200190929190505050611935565b6040518086815260200185815260200184815260200180602001838152602001828103825284818151815260200191508051906020019080838360005b8381101561048f578082015181840152602081019050610474565b50505050905090810190601f1680156104bc5780820380516001836020036101000a031916815260200191505b50965050505050505060405180910390f35b3480156104da57600080fd5b5061051d600480360360208110156104f157600080fd5b81019080803573ffffffffffffffffffffffffffffffffffffffff169060200190929190505050611b53565b604051808215151515815260200191505060405180910390f35b34801561054357600080fd5b5061054c611b86565b6040518082815260200191505060405180910390f35b34801561056e57600080fd5b506105db6004803603606081101561058557600080fd5b81019080803573ffffffffffffffffffffffffffffffffffffffff169060200190929190803573ffffffffffffffffffffffffffffffffffffffff16906020019092919080359060200190929190505050611b90565b604051808215151515815260200191505060405180910390f35b34801561060157600080fd5b5061060a611bc2565b604051808260ff1660ff16815260200191505060405180910390f35b34801561063257600080fd5b506106756004803603602081101561064957600080fd5b81019080803573ffffffffffffffffffffffffffffffffffffffff169060200190929190505050611bd9565b6040518080602001828103825283818151815260200191508051906020019080838360005b838110156106b557808201518184015260208101905061069a565b50505050905090810190601f1680156106e25780820380516001836020036101000a031916815260200191505b509250505060405180910390f35b3480156106fc57600080fd5b5061073f6004803603602081101561071357600080fd5b81019080803573ffffffffffffffffffffffffffffffffffffffff169060200190929190505050611f5a565b604051808215151515815260200191505060405180910390f35b34801561076557600080fd5b506107b26004803603604081101561077c57600080fd5b81019080803573ffffffffffffffffffffffffffffffffffffffff16906020019092919080359060200190929190505050611fdd565b604051808215151515815260200191505060405180910390f35b3480156107d857600080fd5b506107e161200d565b005b3480156107ef57600080fd5b5061083c6004803603604081101561080657600080fd5b81019080803573ffffffffffffffffffffffffffffffffffffffff169060200190929190803590602001909291905050506120bc565b604051808215151515815260200191505060405180910390f35b34801561086257600080fd5b5061088f6004803603602081101561087957600080fd5b81019080803590602001909291905050506120e6565b005b34801561089d57600080fd5b506108e0600480360360208110156108b457600080fd5b81019080803573ffffffffffffffffffffffffffffffffffffffff1690602001909291905050506120f3565b604051808215151515815260200191505060405180910390f35b34801561090657600080fd5b506109496004803603602081101561091d57600080fd5b81019080803573ffffffffffffffffffffffffffffffffffffffff169060200190929190505050612132565b604051808215151515815260200191505060405180910390f35b34801561096f57600080fd5b506109b26004803603602081101561098657600080fd5b81019080803573ffffffffffffffffffffffffffffffffffffffff16906020019092919050505061214f565b604051808215151515815260200191505060405180910390f35b3480156109d857600080fd5b506109e16121c1565b604051808215151515815260200191505060405180910390f35b348015610a0757600080fd5b50610a4a60048036036020811015610a1e57600080fd5b81019080803573ffffffffffffffffffffffffffffffffffffffff1690602001909291905050506121d8565b604051808215151515815260200191505060405180910390f35b348015610a7057600080fd5b50610a79612240565b005b348015610a8757600080fd5b50610aca60048036036020811015610a9e57600080fd5b81019080803573ffffffffffffffffffffffffffffffffffffffff16906020019092919050505061224b565b6040518082815260200191505060405180910390f35b348015610aec57600080fd5b50610af5612293565b6040518082815260200191505060405180910390f35b348015610b1757600080fd5b50610b2061229d565b005b348015610b2e57600080fd5b50610b7160048036036020811015610b4557600080fd5b81019080803573ffffffffffffffffffffffffffffffffffffffff169060200190929190505050612371565b604051808215151515815260200191505060405180910390f35b348015610b9757600080fd5b50610be460048036036040811015610bae57600080fd5b81019080803573ffffffffffffffffffffffffffffffffffffffff16906020019092919080359060200190929190505050612449565b005b348015610bf257600080fd5b50610c3560048036036020811015610c0957600080fd5b81019080803573ffffffffffffffffffffffffffffffffffffffff169060200190929190505050612457565b005b348015610c4357600080fd5b50610c4c612477565b005b348015610c5a57600080fd5b50610c9d60048036036020811015610c7157600080fd5b81019080803573ffffffffffffffffffffffffffffffffffffffff169060200190929190505050612527565b604051808215151515815260200191505060405180910390f35b348015610cc357600080fd5b50610d0660048036036020811015610cda57600080fd5b81019080803573ffffffffffffffffffffffffffffffffffffffff169060200190929190505050612581565b6040518082815260200191505060405180910390f35b348015610d2857600080fd5b50610d6b60048036036020811015610d3f57600080fd5b81019080803573ffffffffffffffffffffffffffffffffffffffff1690602001909291905050506125cd565b005b348015610d7957600080fd5b50610d826127ad565b604051808273ffffffffffffffffffffffffffffffffffffffff1673ffffffffffffffffffffffffffffffffffffffff16815260200191505060405180910390f35b348015610dd057600080fd5b50610dd96127d7565b604051808215151515815260200191505060405180910390f35b348015610dff57600080fd5b50610e0861282f565b6040518080602001828103825283818151815260200191508051906020019080838360005b83811015610e48578082015181840152602081019050610e2d565b50505050905090810190601f168015610e755780820380516001836020036101000a031916815260200191505b509250505060405180910390f35b348015610e8f57600080fd5b50610ed260048036036020811015610ea657600080fd5b81019080803573ffffffffffffffffffffffffffffffffffffffff1690602001909291905050506128d1565b005b348015610ee057600080fd5b50610ee96128f1565b005b348015610ef757600080fd5b50610f4460048036036040811015610f0e57600080fd5b81019080803573ffffffffffffffffffffffffffffffffffffffff169060200190929190803590602001909291905050506128fc565b604051808215151515815260200191505060405180910390f35b348015610f6a57600080fd5b50610fb760048036036040811015610f8157600080fd5b81019080803573ffffffffffffffffffffffffffffffffffffffff1690602001909291908035906020019092919050505061292c565b604051808215151515815260200191505060405180910390f35b348015610fdd57600080fd5b5061102060048036036020811015610ff457600080fd5b81019080803573ffffffffffffffffffffffffffffffffffffffff169060200190929190505050613501565b604051808215151515815260200191505060405180910390f35b34801561104657600080fd5b506110896004803603602081101561105d57600080fd5b81019080803573ffffffffffffffffffffffffffffffffffffffff16906020019092919050505061351e565b005b34801561109757600080fd5b506110da600480360360208110156110ae57600080fd5b81019080803573ffffffffffffffffffffffffffffffffffffffff169060200190929190505050613575565b6040518082815260200191505060405180910390f35b3480156110fc57600080fd5b5061113f6004803603602081101561111357600080fd5b81019080803573ffffffffffffffffffffffffffffffffffffffff1690602001909291905050506135c1565b604051808215151515815260200191505060405180910390f35b34801561116557600080fd5b506112c26004803603606081101561117c57600080fd5b810190808035906020019064010000000081111561119957600080fd5b8201836020820111156111ab57600080fd5b803590602001918460018302840111640100000000831117156111cd57600080fd5b91908080601f016020809104026020016040519081016040528093929190818152602001838380828437600081840152601f19601f8201169050808301925050505050505091929192908035906020019064010000000081111561123057600080fd5b82018360208201111561124257600080fd5b8035906020019184600183028401116401000000008311171561126457600080fd5b91908080601f016020809104026020016040519081016040528093929190818152602001838380828437600081840152601f19601f820116905080830192505050505050509192919290803515159060200190929190505050613644565b005b3480156112d057600080fd5b506113a8600480360360808110156112e757600080fd5b810190808035906020019092919080359060200190929190803590602001909291908035906020019064010000000081111561132257600080fd5b82018360208201111561133457600080fd5b8035906020019184600183028401116401000000008311171561135657600080fd5b91908080601f016020809104026020016040519081016040528093929190818152602001838380828437600081840152601f19601f82011690508083019250505050505050919291929050505061386f565b005b3480156113b657600080fd5b50611490600480360360408110156113cd57600080fd5b81019080803573ffffffffffffffffffffffffffffffffffffffff1690602001909291908035906020019064010000000081111561140a57600080fd5b82018360208201111561141c57600080fd5b8035906020019184600183028401116401000000008311171561143e57600080fd5b91908080601f016020809104026020016040519081016040528093929190818152602001838380828437600081840152601f19601f820116905080830192505050505050509192919290505050613fa3565b005b34801561149e57600080fd5b50611501600480360360408110156114b557600080fd5b81019080803573ffffffffffffffffffffffffffffffffffffffff169060200190929190803573ffffffffffffffffffffffffffffffffffffffff169060200190929190505050614303565b6040518082815260200191505060405180910390f35b34801561152357600080fd5b506115fb6004803603608081101561153a57600080fd5b810190808035906020019092919080359060200190929190803590602001909291908035906020019064010000000081111561157557600080fd5b82018360208201111561158757600080fd5b803590602001918460018302840111640100000000831117156115a957600080fd5b91908080601f016020809104026020016040519081016040528093929190818152602001838380828437600081840152601f19601f82011690508083019250505050505050919291929050505061438a565b005b34801561160957600080fd5b5061164c6004803603602081101561162057600080fd5b81019080803573ffffffffffffffffffffffffffffffffffffffff169060200190929190505050614776565b604051808215151515815260200191505060405180910390f35b34801561167257600080fd5b506116b56004803603602081101561168957600080fd5b81019080803573ffffffffffffffffffffffffffffffffffffffff1690602001909291905050506147dd565b60405180868152602001858152602001848152602001806020018360048111156116db57fe5b60ff168152602001828103825284818151815260200191508051906020019080838360005b8381101561171b578082015181840152602081019050611700565b50505050905090810190601f1680156117485780820380516001836020036101000a031916815260200191505b50965050505050505060405180910390f35b34801561176657600080fd5b506117a96004803603602081101561177d57600080fd5b81019080803573ffffffffffffffffffffffffffffffffffffffff1690602001909291905050506148b8565b604051808215151515815260200191505060405180910390f35b3480156117cf57600080fd5b50611812600480360360208110156117e657600080fd5b81019080803573ffffffffffffffffffffffffffffffffffffffff16906020019092919050505061492a565b005b6000600d6000848152602001908152602001600020600083815260200190815260200160002060009054906101000a900473ffffffffffffffffffffffffffffffffffffffff16905092915050565b606060058054600181600116156101000203166002900480601f0160208091040260200160405190810160405280929190818152602001828054600181600116156101000203166002900480156118fb5780601f106118d0576101008083540402835291602001916118fb565b820191906000526020600020905b8154815290600101906020018083116118de57829003601f168201915b5050505050905090565b6000600460009054906101000a900460ff1615151561192357600080fd5b61192d8383614949565b905092915050565b600080600060606000600c60008773ffffffffffffffffffffffffffffffffffffffff1673ffffffffffffffffffffffffffffffffffffffff16815260200190815260200160002060000154600c60008873ffffffffffffffffffffffffffffffffffffffff1673ffffffffffffffffffffffffffffffffffffffff16815260200190815260200160002060010154600c60008973ffffffffffffffffffffffffffffffffffffffff1673ffffffffffffffffffffffffffffffffffffffff16815260200190815260200160002060020154600c60008a73ffffffffffffffffffffffffffffffffffffffff1673ffffffffffffffffffffffffffffffffffffffff168152602001908152602001600020600301600c60008b73ffffffffffffffffffffffffffffffffffffffff1673ffffffffffffffffffffffffffffffffffffffff16815260200190815260200160002060040160009054906101000a900460ff166004811115611aa457fe5b818054600181600116156101000203166002900480601f016020809104026020016040519081016040528092919081815260200182805460018160011615610100020316600290048015611b395780601f10611b0e57610100808354040283529160200191611b39565b820191906000526020600020905b815481529060010190602001808311611b1c57829003601f168201915b505050505091509450945094509450945091939590929450565b6000611b5e826120f3565b80611b6e5750611b6d82612527565b5b15611b7c5760019050611b81565b600090505b919050565b6000600254905090565b6000600460009054906101000a900460ff16151515611bae57600080fd5b611bb9848484614a76565b90509392505050565b6000600760009054906101000a900460ff16905090565b6060611be4826120f3565b15611c26576040805190810160405280601781526020017f436f6e746120526573657276616461202d20424e4445530000000000000000008152509050611f55565b611c2f82612527565b15611c9857606060405190810160405280602881526020017f436f6e746120526573657276616461202d204c6971756964616e746520646f2081526020017f636f6e747261746f0000000000000000000000000000000000000000000000008152509050611f55565b611ca1826148b8565b15611ce3576040805190810160405280600881526020017f56616c69646164610000000000000000000000000000000000000000000000008152509050611f55565b60036004811115611cf057fe5b600c60008473ffffffffffffffffffffffffffffffffffffffff1673ffffffffffffffffffffffffffffffffffffffff16815260200190815260200160002060040160009054906101000a900460ff166004811115611d4b57fe5b1415611d8e576040805190810160405280601c81526020017f436f6e746120696e76616c6964616461206e6f20436164617374726f000000008152509050611f55565b600480811115611d9a57fe5b600c60008473ffffffffffffffffffffffffffffffffffffffff1673ffffffffffffffffffffffffffffffffffffffff16815260200190815260200160002060040160009054906101000a900460ff166004811115611df557fe5b1415611e5f57606060405190810160405280602381526020017f436f6e746120696e76616c696461646120706f722054726f636120646520436f81526020017f6e746100000000000000000000000000000000000000000000000000000000008152509050611f55565b611e688261214f565b15611ed157606060405190810160405280602281526020017f416775617264616e646f2076616c696461c3a7c3a36f20646f2043616461737481526020017f726f0000000000000000000000000000000000000000000000000000000000008152509050611f55565b611eda82612371565b15611f1c576040805190810160405280600b81526020017f446973706f6ec3ad76656c0000000000000000000000000000000000000000008152509050611f55565b6040805190810160405280600481526020017f4572726f0000000000000000000000000000000000000000000000000000000081525090505b919050565b6000611f6582614776565b8015611fd6575060026004811115611f7957fe5b600c60008473ffffffffffffffffffffffffffffffffffffffff1673ffffffffffffffffffffffffffffffffffffffff16815260200190815260200160002060040160009054906101000a900460ff166004811115611fd457fe5b145b9050919050565b6000600460009054906101000a900460ff16151515611ffb57600080fd5b6120058383614c7e565b905092915050565b61201633612132565b151561202157600080fd5b600460009054906101000a900460ff16151561203c57600080fd5b6000600460006101000a81548160ff0219169083151502179055507f5db9ee0a495bf2e6ff9c91a7834c1ba4fdd244a5e8aa4e537bd38aeae4b073aa33604051808273ffffffffffffffffffffffffffffffffffffffff1673ffffffffffffffffffffffffffffffffffffffff16815260200191505060405180910390a1565b60006120c733613501565b15156120d257600080fd5b6120dc8383614eb5565b6001905092915050565b6120f03382615009565b50565b60006120fd6127ad565b73ffffffffffffffffffffffffffffffffffffffff168273ffffffffffffffffffffffffffffffffffffffff16149050919050565b600061214882600361515d90919063ffffffff16565b9050919050565b60006001600481111561215e57fe5b600c60008473ffffffffffffffffffffffffffffffffffffffff1673ffffffffffffffffffffffffffffffffffffffff16815260200190815260200160002060040160009054906101000a900460ff1660048111156121b957fe5b149050919050565b6000600460009054906101000a900460ff16905090565b60006121e382611b53565b156121f1576000905061223b565b6000600c60008473ffffffffffffffffffffffffffffffffffffffff1673ffffffffffffffffffffffffffffffffffffffff16815260200190815260200160002060010154141590505b919050565b612249336151f1565b565b60008060008373ffffffffffffffffffffffffffffffffffffffff1673ffffffffffffffffffffffffffffffffffffffff168152602001908152602001600020549050919050565b6000600a54905090565b6122a56127d7565b15156122b057600080fd5b600073ffffffffffffffffffffffffffffffffffffffff16600960009054906101000a900473ffffffffffffffffffffffffffffffffffffffff1673ffffffffffffffffffffffffffffffffffffffff167f8be0079c531659141344cd1fd0a4f28419497f9722a3daafe3b4186f6b6457e060405160405180910390a36000600960006101000a81548173ffffffffffffffffffffffffffffffffffffffff021916908373ffffffffffffffffffffffffffffffffffffffff160217905550565b600061237c82611b53565b1561238a5760009050612444565b6000600c60008473ffffffffffffffffffffffffffffffffffffffff1673ffffffffffffffffffffffffffffffffffffffff168152602001908152602001600020600001541480156124415750600060048111156123e457fe5b600c60008473ffffffffffffffffffffffffffffffffffffffff1673ffffffffffffffffffffffffffffffffffffffff16815260200190815260200160002060040160009054906101000a900460ff16600481111561243f57fe5b145b90505b919050565b612453828261524b565b5050565b61246033612132565b151561246b57600080fd5b61247481615449565b50565b61248033612132565b151561248b57600080fd5b600460009054906101000a900460ff161515156124a757600080fd5b6001600460006101000a81548160ff0219169083151502179055507f62e78cea01bee320cd4e420270b5ea74000d11b0c9f74754ebdbfc544b05a25833604051808273ffffffffffffffffffffffffffffffffffffffff1673ffffffffffffffffffffffffffffffffffffffff16815260200191505060405180910390a1565b6000600b60019054906101000a900473ffffffffffffffffffffffffffffffffffffffff1673ffffffffffffffffffffffffffffffffffffffff168273ffffffffffffffffffffffffffffffffffffffff16149050919050565b6000600c60008373ffffffffffffffffffffffffffffffffffffffff1673ffffffffffffffffffffffffffffffffffffffff168152602001908152602001600020600101549050919050565b6125d56127d7565b15156125e057600080fd5b600160048111156125ed57fe5b600c60008373ffffffffffffffffffffffffffffffffffffffff1673ffffffffffffffffffffffffffffffffffffffff16815260200190815260200160002060040160009054906101000a900460ff16600481111561264857fe5b1415156126e3576040517f08c379a00000000000000000000000000000000000000000000000000000000081526004018080602001828103825260368152602001807f4120636f6e74612070726563697361206573746172206e6f2065737461646f2081526020017f416775617264616e646f2056616c696461c3a7c3a36f0000000000000000000081525060400191505060405180910390fd5b6003600c60008373ffffffffffffffffffffffffffffffffffffffff1673ffffffffffffffffffffffffffffffffffffffff16815260200190815260200160002060040160006101000a81548160ff0219169083600481111561274257fe5b02179055507ff88096f95619381cee1f86cd4df1d8d1c46c6356a98d01e58f308fba80d51bcf81604051808273ffffffffffffffffffffffffffffffffffffffff1673ffffffffffffffffffffffffffffffffffffffff16815260200191505060405180910390a150565b6000600960009054906101000a900473ffffffffffffffffffffffffffffffffffffffff16905090565b6000600960009054906101000a900473ffffffffffffffffffffffffffffffffffffffff1673ffffffffffffffffffffffffffffffffffffffff163373ffffffffffffffffffffffffffffffffffffffff1614905090565b606060068054600181600116156101000203166002900480601f0160208091040260200160405190810160405280929190818152602001828054600181600116156101000203166002900480156128c75780601f1061289c576101008083540402835291602001916128c7565b820191906000526020600020905b8154815290600101906020018083116128aa57829003601f168201915b5050505050905090565b6128da33613501565b15156128e557600080fd5b6128ee816154a3565b50565b6128fa336154fd565b565b6000600460009054906101000a900460ff1615151561291a57600080fd5b6129248383615557565b905092915050565b6000803390508373ffffffffffffffffffffffffffffffffffffffff168173ffffffffffffffffffffffffffffffffffffffff16141515156129fc576040517f08c379a00000000000000000000000000000000000000000000000000000000081526004018080602001828103825260288152602001807f4ec3a36f20706f6465207472616e73666572697220746f6b656e20706172612081526020017f7369206d65736d6f00000000000000000000000000000000000000000000000081525060400191505060405180910390fd5b612a05816120f3565b15612dab576000600c60008673ffffffffffffffffffffffffffffffffffffffff1673ffffffffffffffffffffffffffffffffffffffff1681526020019081526020016000206000015414151515612ac5576040517f08c379a000000000000000000000000000000000000000000000000000000000815260040180806020018281038252601e8152602001807f4ec3a36f20666f6920656e636f6e747261646f20756d20636c69656e7465000081525060200191505060405180910390fd5b612ace846121d8565b1515612b68576040517f08c379a00000000000000000000000000000000000000000000000000000000081526004018080602001828103825260268152602001807f4f20656e64657265c3a76f206ec3a36f2070657274656e6365206120756d206381526020017f6c69656e7465000000000000000000000000000000000000000000000000000081525060400191505060405180910390fd5b60026004811115612b7557fe5b600c60008673ffffffffffffffffffffffffffffffffffffffff1673ffffffffffffffffffffffffffffffffffffffff16815260200190815260200160002060040160009054906101000a900460ff166004811115612bd057fe5b141515612c6b576040517f08c379a00000000000000000000000000000000000000000000000000000000081526004018080602001828103825260288152602001807f4120636f6e746120646f20656e64657265c3a76f206ec3a36f20657374c3a12081526020017f76616c696461646100000000000000000000000000000000000000000000000081525060400191505060405180910390fd5b612c7584846120bc565b508373ffffffffffffffffffffffffffffffffffffffff168173ffffffffffffffffffffffffffffffffffffffff167fddf252ad1be2c89b69c2b068fc378daa952ba7f163c4a11628f55a4df523b3ef856040518082815260200191505060405180910390a37f47d719b82e81a39b08d84987f8ad51a5ea9a21abcce186f6e6ff9d976d108d88600c60008673ffffffffffffffffffffffffffffffffffffffff1673ffffffffffffffffffffffffffffffffffffffff16815260200190815260200160002060000154600c60008773ffffffffffffffffffffffffffffffffffffffff1673ffffffffffffffffffffffffffffffffffffffff168152602001908152602001600020600101548560405180848152602001838152602001828152602001935050505060405180910390a16134f6565b6000600c60008373ffffffffffffffffffffffffffffffffffffffff1673ffffffffffffffffffffffffffffffffffffffff1681526020019081526020016000206000015414151515612e8c576040517f08c379a00000000000000000000000000000000000000000000000000000000081526004018080602001828103825260288152602001807f4ec3a36f2065786973746520636f6e7461206173736f636961646120616f206581526020017f6e64657265c3a76f00000000000000000000000000000000000000000000000081525060400191505060405180910390fd5b60026004811115612e9957fe5b600c60008373ffffffffffffffffffffffffffffffffffffffff1673ffffffffffffffffffffffffffffffffffffffff16815260200190815260200160002060040160009054906101000a900460ff166004811115612ef457fe5b141515612f8f576040517f08c379a00000000000000000000000000000000000000000000000000000000081526004018080602001828103825260288152602001807f4120636f6e746120646f20656e64657265c3a76f206ec3a36f20657374c3a12081526020017f76616c696461646100000000000000000000000000000000000000000000000081525060400191505060405180910390fd5b612f98846120f3565b156130aa57612fa681614776565b151561301a576040517f08c379a00000000000000000000000000000000000000000000000000000000081526004018080602001828103825260208152602001807f4120636f6e7461206ec3a36f20c3a920646520756d20666f726e656365646f7281525060200191505060405180910390fd5b6130248184615009565b7f17a9cafb1bb84312c4e08209598c86c2844a433e998bb1bd472c696cca0c95b7600c60008373ffffffffffffffffffffffffffffffffffffffff1673ffffffffffffffffffffffffffffffffffffffff1681526020019081526020016000206000015484604051808381526020018281526020019250505060405180910390a16134f5565b6130b3816121d8565b151561314d576040517f08c379a000000000000000000000000000000000000000000000000000000000815260040180806020018281038252602c8152602001807f4f20656e64657265c3a76f206465206f726967656d207072656369736120736581526020017f7220756d20636c69656e7465000000000000000000000000000000000000000081525060400191505060405180910390fd5b6000600c60008673ffffffffffffffffffffffffffffffffffffffff1673ffffffffffffffffffffffffffffffffffffffff168152602001908152602001600020600001541415151561322e576040517f08c379a00000000000000000000000000000000000000000000000000000000081526004018080602001828103825260298152602001807f4ec3a36f2065786973746520636f6e7461206173736f636961646120616f206581526020017f6e64657265c3a76f20000000000000000000000000000000000000000000000081525060400191505060405180910390fd5b61323784614776565b15156132d1576040517f08c379a000000000000000000000000000000000000000000000000000000000815260040180806020018281038252602f8152602001807f4120636f6e74612064652064657374696e6f207072656369736120736572206481526020017f6520756d20666f726e656365646f72000000000000000000000000000000000081525060400191505060405180910390fd5b600260048111156132de57fe5b600c60008673ffffffffffffffffffffffffffffffffffffffff1673ffffffffffffffffffffffffffffffffffffffff16815260200190815260200160002060040160009054906101000a900460ff16600481111561333957fe5b1415156133d4576040517f08c379a00000000000000000000000000000000000000000000000000000000081526004018080602001828103825260288152602001807f4120636f6e746120646f20656e64657265c3a76f206ec3a36f20657374c3a12081526020017f76616c696461646100000000000000000000000000000000000000000000000081525060400191505060405180910390fd5b7faec818078011dacff79dbaf41c20c89bfb2251fcb05054fe5122908d3889bd91600c60008373ffffffffffffffffffffffffffffffffffffffff1673ffffffffffffffffffffffffffffffffffffffff16815260200190815260200160002060000154600c60008473ffffffffffffffffffffffffffffffffffffffff1673ffffffffffffffffffffffffffffffffffffffff16815260200190815260200160002060010154600c60008873ffffffffffffffffffffffffffffffffffffffff1673ffffffffffffffffffffffffffffffffffffffff16815260200190815260200160002060000154866040518085815260200184815260200183815260200182815260200194505050505060405180910390a16134f433858561578e565b5b5b600191505092915050565b600061351782600861515d90919063ffffffff16565b9050919050565b6135266127d7565b151561353157600080fd5b80600b60016101000a81548173ffffffffffffffffffffffffffffffffffffffff021916908373ffffffffffffffffffffffffffffffffffffffff16021790555050565b6000600c60008373ffffffffffffffffffffffffffffffffffffffff1673ffffffffffffffffffffffffffffffffffffffff168152602001908152602001600020600001549050919050565b60006135cc826121d8565b801561363d5750600260048111156135e057fe5b600c60008473ffffffffffffffffffffffffffffffffffffffff1673ffffffffffffffffffffffffffffffffffffffff16815260200190815260200160002060040160009054906101000a900460ff16600481111561363b57fe5b145b9050919050565b600b60019054906101000a900473ffffffffffffffffffffffffffffffffffffffff1673ffffffffffffffffffffffffffffffffffffffff163373ffffffffffffffffffffffffffffffffffffffff16141515613755576040517f08c379a00000000000000000000000000000000000000000000000000000000081526004018080602001828103825260508152602001807f41206c697175696461c3a7c3a36f206ec3a36f20706f6465207365722072656181526020017f6c697a6164612070656c6f20656e64657265c3a76f20717565207375626d657481526020017f65752061207472616e7361c3a7c3a36f0000000000000000000000000000000081525060600191505060405180910390fd5b7f98f191d7ada5335667849fbd5155b5196feea99dacc2673cc2e0388223c6533e83838360405180806020018060200184151515158152602001838103835286818151815260200191508051906020019080838360005b838110156137c75780820151818401526020810190506137ac565b50505050905090810190601f1680156137f45780820380516001836020036101000a031916815260200191505b50838103825285818151815260200191508051906020019080838360005b8381101561382d578082015181840152602081019050613812565b50505050905090810190601f16801561385a5780820380516001836020036101000a031916815260200191505b509550505050505060405180910390a1505050565b600033905061387d81612371565b1515613917576040517f08c379a000000000000000000000000000000000000000000000000000000000815260040180806020018281038252603a8152602001807f4e6f766f20656e64657265c3a76f206ec3a36f20706f6465207465722073696481526020017f6f206361646173747261646f20616e746572696f726d656e746500000000000081525060400191505060405180910390fd5b600073ffffffffffffffffffffffffffffffffffffffff16600d6000878152602001908152602001600020600086815260200190815260200160002060009054906101000a900473ffffffffffffffffffffffffffffffffffffffff1673ffffffffffffffffffffffffffffffffffffffff1614151515613a26576040517f08c379a000000000000000000000000000000000000000000000000000000000815260040180806020018281038252603c8152602001807f54656d2071756520686176657220756d20656e64657265c3a76f206173736f6381526020017f6961646f2061206573736520636e706a2f7375626372c3a96469746f0000000081525060400191505060405180910390fd5b6000600d6000878152602001908152602001600020600086815260200190815260200160002060009054906101000a900473ffffffffffffffffffffffffffffffffffffffff1690508073ffffffffffffffffffffffffffffffffffffffff168273ffffffffffffffffffffffffffffffffffffffff1614151515613b39576040517f08c379a000000000000000000000000000000000000000000000000000000000815260040180806020018281038252602d8152602001807f4f20656e64657265c3a76f206e6f766f2064657665207365722064696665726581526020017f6e746520646f20616e7469676f0000000000000000000000000000000000000081525060400191505060405180910390fd5b85600c60008373ffffffffffffffffffffffffffffffffffffffff1673ffffffffffffffffffffffffffffffffffffffff16815260200190815260200160002060000154148015613bcb575084600c60008373ffffffffffffffffffffffffffffffffffffffff1673ffffffffffffffffffffffffffffffffffffffff16815260200190815260200160002060010154145b1515613c65576040517f08c379a000000000000000000000000000000000000000000000000000000000815260040180806020018281038252602b8152602001807f4461646f7320696e636f6e73697374656e74657320646520636e706a206f752081526020017f7375626372c3a96469746f00000000000000000000000000000000000000000081525060400191505060405180910390fd5b6000613c708261224b565b1115613c8a57613c898183613c848461224b565b61578e565b5b60a06040519081016040528087815260200186815260200185815260200184815260200160016004811115613cbb57fe5b815250600c60008473ffffffffffffffffffffffffffffffffffffffff1673ffffffffffffffffffffffffffffffffffffffff1681526020019081526020016000206000820151816000015560208201518160010155604082015181600201556060820151816003019080519060200190613d37929190615bf8565b5060808201518160040160006101000a81548160ff02191690836004811115613d5c57fe5b021790555090505060a06040519081016040528060008152602001600081526020016000815260200160206040519081016040528060008152508152602001600480811115613da757fe5b815250600c60008373ffffffffffffffffffffffffffffffffffffffff1673ffffffffffffffffffffffffffffffffffffffff1681526020019081526020016000206000820151816000015560208201518160010155604082015181600201556060820151816003019080519060200190613e23929190615bf8565b5060808201518160040160006101000a81548160ff02191690836004811115613e4857fe5b021790555090505081600d6000888152602001908152602001600020600087815260200190815260200160002060006101000a81548173ffffffffffffffffffffffffffffffffffffffff021916908373ffffffffffffffffffffffffffffffffffffffff1602179055507f1bf55d918db6a8051eda4ecd2d786648884b24d401e7907190cf191a8da475208287878787604051808673ffffffffffffffffffffffffffffffffffffffff1673ffffffffffffffffffffffffffffffffffffffff16815260200185815260200184815260200183815260200180602001828103825283818151815260200191508051906020019080838360005b83811015613f5d578082015181840152602081019050613f42565b50505050905090810190601f168015613f8a5780820380516001836020036101000a031916815260200191505b50965050505050505060405180910390a1505050505050565b613fab6127d7565b1515613fb657600080fd5b60016004811115613fc357fe5b600c60008473ffffffffffffffffffffffffffffffffffffffff1673ffffffffffffffffffffffffffffffffffffffff16815260200190815260200160002060040160009054906101000a900460ff16600481111561401e57fe5b1415156140b9576040517f08c379a00000000000000000000000000000000000000000000000000000000081526004018080602001828103825260368152602001807f4120636f6e74612070726563697361206573746172206e6f2065737461646f2081526020017f416775617264616e646f2056616c696461c3a7c3a36f0000000000000000000081525060400191505060405180910390fd5b806040516020018082805190602001908083835b6020831015156140f257805182526020820191506020810190506020830392506140cd565b6001836020036101000a03801982511681845116808217855250505050505090500191505060405160208183030381529060405280519060200120600c60008473ffffffffffffffffffffffffffffffffffffffff1673ffffffffffffffffffffffffffffffffffffffff16815260200190815260200160002060030160405160200180828054600181600116156101000203166002900480156141cd5780601f106141ab5761010080835404028352918201916141cd565b820191906000526020600020905b8154815290600101906020018083116141b9575b505091505060405160208183030381529060405280519060200120141515614238576040517f08c379a0000000000000000000000000000000000000000000000000000000008152600401808060200182810382526000815260200160200191505060405180910390fd5b6002600c60008473ffffffffffffffffffffffffffffffffffffffff1673ffffffffffffffffffffffffffffffffffffffff16815260200190815260200160002060040160006101000a81548160ff0219169083600481111561429757fe5b02179055507f28b8b7b8f52bbe893d4290bc2a5d3328a194eceb6b3a7398737d0bbf075a1e0282604051808273ffffffffffffffffffffffffffffffffffffffff1673ffffffffffffffffffffffffffffffffffffffff16815260200191505060405180910390a15050565b6000600160008473ffffffffffffffffffffffffffffffffffffffff1673ffffffffffffffffffffffffffffffffffffffff16815260200190815260200160002060008373ffffffffffffffffffffffffffffffffffffffff1673ffffffffffffffffffffffffffffffffffffffff16815260200190815260200160002054905092915050565b600033905061439881612371565b1515614432576040517f08c379a00000000000000000000000000000000000000000000000000000000081526004018080602001828103825260358152602001807f456e64657265c3a76f206ec3a36f20706f646520746572207369646f2063616481526020017f6173747261646f20616e746572696f726d656e7465000000000000000000000081525060400191505060405180910390fd5b60a0604051908101604052808681526020018581526020018481526020018381526020016001600481111561446357fe5b815250600c60008373ffffffffffffffffffffffffffffffffffffffff1673ffffffffffffffffffffffffffffffffffffffff16815260200190815260200160002060008201518160000155602082015181600101556040820151816002015560608201518160030190805190602001906144df929190615bf8565b5060808201518160040160006101000a81548160ff0219169083600481111561450457fe5b0217905550905050600084111561462457600073ffffffffffffffffffffffffffffffffffffffff16600d6000878152602001908152602001600020600086815260200190815260200160002060009054906101000a900473ffffffffffffffffffffffffffffffffffffffff1673ffffffffffffffffffffffffffffffffffffffff16141515614623576040517f08c379a00000000000000000000000000000000000000000000000000000000081526004018080602001828103825260308152602001807f5375626372656469746f206ac3a120657374c3a1206173736f636961646f206181526020017f206f7574726f20656e64657265c3a76f0000000000000000000000000000000081525060400191505060405180910390fd5b5b80600d6000878152602001908152602001600020600086815260200190815260200160002060006101000a81548173ffffffffffffffffffffffffffffffffffffffff021916908373ffffffffffffffffffffffffffffffffffffffff1602179055507f8ec53aa58c6aeaba77afa132c2419aac81b51cc3a70482ba0d9b207a4db9d3158186868686604051808673ffffffffffffffffffffffffffffffffffffffff1673ffffffffffffffffffffffffffffffffffffffff16815260200185815260200184815260200183815260200180602001828103825283818151815260200191508051906020019080838360005b83811015614731578082015181840152602081019050614716565b50505050905090810190601f16801561475e5780820380516001836020036101000a031916815260200191505b50965050505050505060405180910390a15050505050565b600061478182611b53565b1561478f57600090506147d8565b6000600c60008473ffffffffffffffffffffffffffffffffffffffff1673ffffffffffffffffffffffffffffffffffffffff168152602001908152602001600020600101541490505b919050565b600c602052806000526040600020600091509050806000015490806001015490806002015490806003018054600181600116156101000203166002900480601f01602080910402602001604051908101604052809291908181526020018280546001816001161561010002031660029004801561489b5780601f106148705761010080835404028352916020019161489b565b820191906000526020600020905b81548152906001019060200180831161487e57829003601f168201915b5050505050908060040160009054906101000a900460ff16905085565b6000600260048111156148c757fe5b600c60008473ffffffffffffffffffffffffffffffffffffffff1673ffffffffffffffffffffffffffffffffffffffff16815260200190815260200160002060040160009054906101000a900460ff16600481111561492257fe5b149050919050565b6149326127d7565b151561493d57600080fd5b6149468161595a565b50565b60008073ffffffffffffffffffffffffffffffffffffffff168373ffffffffffffffffffffffffffffffffffffffff161415151561498657600080fd5b81600160003373ffffffffffffffffffffffffffffffffffffffff1673ffffffffffffffffffffffffffffffffffffffff16815260200190815260200160002060008573ffffffffffffffffffffffffffffffffffffffff1673ffffffffffffffffffffffffffffffffffffffff168152602001908152602001600020819055508273ffffffffffffffffffffffffffffffffffffffff163373ffffffffffffffffffffffffffffffffffffffff167f8c5be1e5ebec7d5bd14f71427d1e84f3dd0314c0f7b2291e5b200ac8c7c3b925846040518082815260200191505060405180910390a36001905092915050565b6000614b0782600160008773ffffffffffffffffffffffffffffffffffffffff1673ffffffffffffffffffffffffffffffffffffffff16815260200190815260200160002060003373ffffffffffffffffffffffffffffffffffffffff1673ffffffffffffffffffffffffffffffffffffffff16815260200190815260200160002054615a5690919063ffffffff16565b600160008673ffffffffffffffffffffffffffffffffffffffff1673ffffffffffffffffffffffffffffffffffffffff16815260200190815260200160002060003373ffffffffffffffffffffffffffffffffffffffff1673ffffffffffffffffffffffffffffffffffffffff16815260200190815260200160002081905550614b9284848461578e565b3373ffffffffffffffffffffffffffffffffffffffff168473ffffffffffffffffffffffffffffffffffffffff167f8c5be1e5ebec7d5bd14f71427d1e84f3dd0314c0f7b2291e5b200ac8c7c3b925600160008873ffffffffffffffffffffffffffffffffffffffff1673ffffffffffffffffffffffffffffffffffffffff16815260200190815260200160002060003373ffffffffffffffffffffffffffffffffffffffff1673ffffffffffffffffffffffffffffffffffffffff168152602001908152602001600020546040518082815260200191505060405180910390a3600190509392505050565b60008073ffffffffffffffffffffffffffffffffffffffff168373ffffffffffffffffffffffffffffffffffffffff1614151515614cbb57600080fd5b614d4a82600160003373ffffffffffffffffffffffffffffffffffffffff1673ffffffffffffffffffffffffffffffffffffffff16815260200190815260200160002060008673ffffffffffffffffffffffffffffffffffffffff1673ffffffffffffffffffffffffffffffffffffffff16815260200190815260200160002054615a7890919063ffffffff16565b600160003373ffffffffffffffffffffffffffffffffffffffff1673ffffffffffffffffffffffffffffffffffffffff16815260200190815260200160002060008573ffffffffffffffffffffffffffffffffffffffff1673ffffffffffffffffffffffffffffffffffffffff168152602001908152602001600020819055508273ffffffffffffffffffffffffffffffffffffffff163373ffffffffffffffffffffffffffffffffffffffff167f8c5be1e5ebec7d5bd14f71427d1e84f3dd0314c0f7b2291e5b200ac8c7c3b925600160003373ffffffffffffffffffffffffffffffffffffffff1673ffffffffffffffffffffffffffffffffffffffff16815260200190815260200160002060008773ffffffffffffffffffffffffffffffffffffffff1673ffffffffffffffffffffffffffffffffffffffff168152602001908152602001600020546040518082815260200191505060405180910390a36001905092915050565b600073ffffffffffffffffffffffffffffffffffffffff168273ffffffffffffffffffffffffffffffffffffffff1614151515614ef157600080fd5b614f0681600254615a7890919063ffffffff16565b600281905550614f5d816000808573ffffffffffffffffffffffffffffffffffffffff1673ffffffffffffffffffffffffffffffffffffffff16815260200190815260200160002054615a7890919063ffffffff16565b6000808473ffffffffffffffffffffffffffffffffffffffff1673ffffffffffffffffffffffffffffffffffffffff168152602001908152602001600020819055508173ffffffffffffffffffffffffffffffffffffffff16600073ffffffffffffffffffffffffffffffffffffffff167fddf252ad1be2c89b69c2b068fc378daa952ba7f163c4a11628f55a4df523b3ef836040518082815260200191505060405180910390a35050565b600073ffffffffffffffffffffffffffffffffffffffff168273ffffffffffffffffffffffffffffffffffffffff161415151561504557600080fd5b61505a81600254615a5690919063ffffffff16565b6002819055506150b1816000808573ffffffffffffffffffffffffffffffffffffffff1673ffffffffffffffffffffffffffffffffffffffff16815260200190815260200160002054615a5690919063ffffffff16565b6000808473ffffffffffffffffffffffffffffffffffffffff1673ffffffffffffffffffffffffffffffffffffffff16815260200190815260200160002081905550600073ffffffffffffffffffffffffffffffffffffffff168273ffffffffffffffffffffffffffffffffffffffff167fddf252ad1be2c89b69c2b068fc378daa952ba7f163c4a11628f55a4df523b3ef836040518082815260200191505060405180910390a35050565b60008073ffffffffffffffffffffffffffffffffffffffff168273ffffffffffffffffffffffffffffffffffffffff161415151561519a57600080fd5b8260000160008373ffffffffffffffffffffffffffffffffffffffff1673ffffffffffffffffffffffffffffffffffffffff16815260200190815260200160002060009054906101000a900460ff16905092915050565b615205816003615a9990919063ffffffff16565b8073ffffffffffffffffffffffffffffffffffffffff167fcd265ebaf09df2871cc7bd4133404a235ba12eff2041bb89d9c714a2621c7c7e60405160405180910390a250565b6152da81600160008573ffffffffffffffffffffffffffffffffffffffff1673ffffffffffffffffffffffffffffffffffffffff16815260200190815260200160002060003373ffffffffffffffffffffffffffffffffffffffff1673ffffffffffffffffffffffffffffffffffffffff16815260200190815260200160002054615a5690919063ffffffff16565b600160008473ffffffffffffffffffffffffffffffffffffffff1673ffffffffffffffffffffffffffffffffffffffff16815260200190815260200160002060003373ffffffffffffffffffffffffffffffffffffffff1673ffffffffffffffffffffffffffffffffffffffff168152602001908152602001600020819055506153648282615009565b3373ffffffffffffffffffffffffffffffffffffffff168273ffffffffffffffffffffffffffffffffffffffff167f8c5be1e5ebec7d5bd14f71427d1e84f3dd0314c0f7b2291e5b200ac8c7c3b925600160008673ffffffffffffffffffffffffffffffffffffffff1673ffffffffffffffffffffffffffffffffffffffff16815260200190815260200160002060003373ffffffffffffffffffffffffffffffffffffffff1673ffffffffffffffffffffffffffffffffffffffff168152602001908152602001600020546040518082815260200191505060405180910390a35050565b61545d816003615b4890919063ffffffff16565b8073ffffffffffffffffffffffffffffffffffffffff167f6719d08c1888103bea251a4ed56406bd0c3e69723c8a1686e017e7bbe159b6f860405160405180910390a250565b6154b7816008615b4890919063ffffffff16565b8073ffffffffffffffffffffffffffffffffffffffff167f6ae172837ea30b801fbfcdd4108aa1d5bf8ff775444fd70256b44e6bf3dfc3f660405160405180910390a250565b615511816008615a9990919063ffffffff16565b8073ffffffffffffffffffffffffffffffffffffffff167fe94479a9f7e1952cc78f2d6baab678adc1b772d936c6583def489e524cb6669260405160405180910390a250565b60008073ffffffffffffffffffffffffffffffffffffffff168373ffffffffffffffffffffffffffffffffffffffff161415151561559457600080fd5b61562382600160003373ffffffffffffffffffffffffffffffffffffffff1673ffffffffffffffffffffffffffffffffffffffff16815260200190815260200160002060008673ffffffffffffffffffffffffffffffffffffffff1673ffffffffffffffffffffffffffffffffffffffff16815260200190815260200160002054615a5690919063ffffffff16565b600160003373ffffffffffffffffffffffffffffffffffffffff1673ffffffffffffffffffffffffffffffffffffffff16815260200190815260200160002060008573ffffffffffffffffffffffffffffffffffffffff1673ffffffffffffffffffffffffffffffffffffffff168152602001908152602001600020819055508273ffffffffffffffffffffffffffffffffffffffff163373ffffffffffffffffffffffffffffffffffffffff167f8c5be1e5ebec7d5bd14f71427d1e84f3dd0314c0f7b2291e5b200ac8c7c3b925600160003373ffffffffffffffffffffffffffffffffffffffff1673ffffffffffffffffffffffffffffffffffffffff16815260200190815260200160002060008773ffffffffffffffffffffffffffffffffffffffff1673ffffffffffffffffffffffffffffffffffffffff168152602001908152602001600020546040518082815260200191505060405180910390a36001905092915050565b600073ffffffffffffffffffffffffffffffffffffffff168273ffffffffffffffffffffffffffffffffffffffff16141515156157ca57600080fd5b61581b816000808673ffffffffffffffffffffffffffffffffffffffff1673ffffffffffffffffffffffffffffffffffffffff16815260200190815260200160002054615a5690919063ffffffff16565b6000808573ffffffffffffffffffffffffffffffffffffffff1673ffffffffffffffffffffffffffffffffffffffff168152602001908152602001600020819055506158ae816000808573ffffffffffffffffffffffffffffffffffffffff1673ffffffffffffffffffffffffffffffffffffffff16815260200190815260200160002054615a7890919063ffffffff16565b6000808473ffffffffffffffffffffffffffffffffffffffff1673ffffffffffffffffffffffffffffffffffffffff168152602001908152602001600020819055508173ffffffffffffffffffffffffffffffffffffffff168373ffffffffffffffffffffffffffffffffffffffff167fddf252ad1be2c89b69c2b068fc378daa952ba7f163c4a11628f55a4df523b3ef836040518082815260200191505060405180910390a3505050565b600073ffffffffffffffffffffffffffffffffffffffff168173ffffffffffffffffffffffffffffffffffffffff161415151561599657600080fd5b8073ffffffffffffffffffffffffffffffffffffffff16600960009054906101000a900473ffffffffffffffffffffffffffffffffffffffff1673ffffffffffffffffffffffffffffffffffffffff167f8be0079c531659141344cd1fd0a4f28419497f9722a3daafe3b4186f6b6457e060405160405180910390a380600960006101000a81548173ffffffffffffffffffffffffffffffffffffffff021916908373ffffffffffffffffffffffffffffffffffffffff16021790555050565b6000828211151515615a6757600080fd5b600082840390508091505092915050565b6000808284019050838110151515615a8f57600080fd5b8091505092915050565b600073ffffffffffffffffffffffffffffffffffffffff168173ffffffffffffffffffffffffffffffffffffffff1614151515615ad557600080fd5b615adf828261515d565b1515615aea57600080fd5b60008260000160008373ffffffffffffffffffffffffffffffffffffffff1673ffffffffffffffffffffffffffffffffffffffff16815260200190815260200160002060006101000a81548160ff0219169083151502179055505050565b600073ffffffffffffffffffffffffffffffffffffffff168173ffffffffffffffffffffffffffffffffffffffff1614151515615b8457600080fd5b615b8e828261515d565b151515615b9a57600080fd5b60018260000160008373ffffffffffffffffffffffffffffffffffffffff1673ffffffffffffffffffffffffffffffffffffffff16815260200190815260200160002060006101000a81548160ff0219169083151502179055505050565b828054600181600116156101000203166002900490600052602060002090601f016020900481019282601f10615c3957805160ff1916838001178555615c67565b82800160010185558215615c67579182015b82811115615c66578251825591602001919060010190615c4b565b5b509050615c749190615c78565b5090565b615c9a91905b80821115615c96576000816000905550600101615c7e565b5090565b9056fea165627a7a723058207f7941eafa422de98f7f19738635d8ea876d3ed1af1c8d9fe49a5ea702bac9630029",
  "source": "pragma solidity ^0.5.0;\r\n\r\nimport \"openzeppelin-solidity/contracts/token/ERC20/ERC20Pausable.sol\";\r\nimport \"openzeppelin-solidity/contracts/token/ERC20/ERC20Detailed.sol\";\r\nimport \"openzeppelin-solidity/contracts/token/ERC20/ERC20Burnable.sol\";\r\nimport \"openzeppelin-solidity/contracts/token/ERC20/ERC20Mintable.sol\";\r\nimport \"openzeppelin-solidity/contracts/ownership/Ownable.sol\";\r\n\r\n\r\ncontract BNDESToken is ERC20Pausable, ERC20Detailed(\"BNDESToken\", \"BND\", 2), ERC20Mintable, ERC20Burnable, Ownable() {\r\n\r\n    uint private versao = 20190325;\r\n\r\n\r\n    //TODO: Vale a pena adicionar o estado de conta SUSPENSA para casos excepcionais?\r\n    //TODO: Vale a pena adicionar o estado de conta INVALIDADA_INCONFORMIDADE para casos excepcionais?\r\n    enum EstadoContaBlockchain {DISPONIVEL,AGUARDANDO_VALIDACAO,VALIDADA,INVALIDADA_CADASTRO,INVALIDADA_TROCA} \r\n\r\n    EstadoContaBlockchain estadosPossiveis; //variavel nao utilizada, apenas para definir o enum\r\n\r\n    address responsibleForSettlement;\r\n\r\n    struct PJInfo {\r\n        uint cnpj;\r\n        uint idSubcredito;\r\n        uint salic;\r\n        string hashdeclaracao;\r\n        EstadoContaBlockchain estado;\r\n    } \r\n\r\n    mapping(address => PJInfo) public pjsInfo;\r\n\r\n    //_cnpj => (_idSubcredito => endereco)\r\n    mapping(uint => mapping(uint => address)) cnpjSubEndereco; \r\n\r\n    event CadastroConta(address endereco, uint cnpj, uint idSubcredito, uint salic, string hashdeclaracao);\r\n    event TrocaConta(address endereco, uint cnpj, uint idSubcredito, uint salic, string hashdeclaracao);\r\n    event ValidacaoConta(address endereco);\r\n    event InvalidacaoCadastroConta(address endereco);\r\n\r\n    event Liberacao(uint cnpj, uint idSubcredito, uint256 valor);\r\n    event Transferencia(uint fromCnpj, uint fromSubcredito, uint toCnpj, uint256 valor);\r\n    event Repasse(uint fromCnpj, uint fromSubcredito, uint toCnpj, uint256 valor);\r\n    event Resgate(uint cnpj, uint256 valor);\r\n    event LiquidacaoResgate(string hashResgate, string hashComprovante, bool isOk);\r\n\r\n    constructor () public {\r\n        responsibleForSettlement = msg.sender;\r\n    }\r\n\r\n\r\n    function setResponsibleForSettlement(address rs) onlyOwner public {\r\n        responsibleForSettlement = rs;\r\n    }\r\n\r\n    /**\r\n    Associa um endereo blockchain ao CNPJ\r\n    */\r\n    function cadastra(uint _cnpj, uint _idSubcredito, uint _salic, string memory hashdeclaracao) public { \r\n\r\n        address endereco = msg.sender;\r\n\r\n        // Endereo no pode ter sido cadastrado anteriormente\r\n        require (isContaDisponivel(endereco), \"Endereo no pode ter sido cadastrado anteriormente\");\r\n\r\n        pjsInfo[endereco] = PJInfo(_cnpj, _idSubcredito, _salic, hashdeclaracao, EstadoContaBlockchain.AGUARDANDO_VALIDACAO);\r\n        \r\n        // No pode haver outro endereo cadastrado para esse mesmo subcrdito\r\n        if (_idSubcredito > 0) {\r\n            require (cnpjSubEndereco[_cnpj][_idSubcredito] == address(0x0), \"Subcredito j est associado a outro endereo\");\r\n        }\r\n        \r\n        cnpjSubEndereco[_cnpj][_idSubcredito] = endereco;\r\n\r\n        emit CadastroConta(endereco, _cnpj, _idSubcredito, _salic, hashdeclaracao);\r\n    }\r\n\r\n    /**\r\n    Reassocia um cnpj/subcrdito a um novo endereo da blockchain (o sender)\r\n    */\r\n    function troca(uint _cnpj, uint _idSubcredito, uint _salic, string memory _hashdeclaracao) public {\r\n\r\n        address enderecoNovo = msg.sender;\r\n     \r\n        require (isContaDisponivel(enderecoNovo), \"Novo endereo no pode ter sido cadastrado anteriormente\");\r\n\r\n        // Tem que haver um endereo associado a esse cnpj/subcrdito\r\n        require(cnpjSubEndereco[_cnpj][_idSubcredito] != address(0x0), \"Tem que haver um endereo associado a esse cnpj/subcrdito\");\r\n\r\n        address enderecoAntigo = cnpjSubEndereco[_cnpj][_idSubcredito];\r\n\r\n        require(enderecoNovo != enderecoAntigo, \"O endereo novo deve ser diferente do antigo\");\r\n\r\n        require(pjsInfo[enderecoAntigo].cnpj==_cnpj && pjsInfo[enderecoAntigo].idSubcredito ==_idSubcredito, \"Dados inconsistentes de cnpj ou subcrdito\");\r\n\r\n        // Se h saldo no enderecoAntigo, precisa transferir\r\n        if (balanceOf(enderecoAntigo) > 0) {\r\n            _transfer(enderecoAntigo, enderecoNovo, balanceOf(enderecoAntigo));\r\n        }\r\n\r\n        // Aponta o novo endereo para o novo PJInfo\r\n        pjsInfo[enderecoNovo] = PJInfo(_cnpj, _idSubcredito, _salic, _hashdeclaracao, EstadoContaBlockchain.AGUARDANDO_VALIDACAO);\r\n\r\n        // Apaga o mapping do endereo antigo\r\n        pjsInfo[enderecoAntigo] = PJInfo(0, 0, 0, \"\", EstadoContaBlockchain.INVALIDADA_TROCA);\r\n\r\n        // Aponta mapping CNPJ e Subcredito para enderecoNovo\r\n        cnpjSubEndereco[_cnpj][_idSubcredito] = enderecoNovo;\r\n\r\n        emit TrocaConta(enderecoNovo, _cnpj, _idSubcredito, _salic, _hashdeclaracao); \r\n    }\r\n\r\n    function getVersao() view public returns (uint) {\r\n        return versao;\r\n    }\r\n\r\n    function getCNPJ(address _addr) view public returns (uint) {\r\n        return pjsInfo[_addr].cnpj;\r\n    }\r\n\r\n    function getSubcredito(address _addr) view public returns (uint) {\r\n        return pjsInfo[_addr].idSubcredito;\r\n    }\r\n\r\n    function getPJInfo (address _addr) view public returns (uint, uint, uint, string memory, uint) {\r\n        return (pjsInfo[_addr].cnpj, pjsInfo[_addr].idSubcredito, pjsInfo[_addr].salic, pjsInfo[_addr].hashdeclaracao, (uint) (pjsInfo[_addr].estado));\r\n    }\r\n\r\n    function getContaBlockchain(uint256 _cnpj, uint256 _idSubcredito) view public returns (address) {\r\n        return cnpjSubEndereco[_cnpj][_idSubcredito];\r\n    }\r\n\r\n    function transfer (address _to, uint256 _value) public returns (bool) {\r\n\r\n        address from = msg.sender;\r\n\r\n        // O cara no  louco de transferir para si mesmo!!!\r\n        require(from != _to, \"No pode transferir token para si mesmo\");\r\n\r\n        // Se a origem eh o BNDES, eh uma LIBERACAO\r\n        if (isBNDES(from)) {\r\n\r\n            // A conta de destino existe        \r\n            require(pjsInfo[_to].cnpj != 0, \"No foi encontrado um cliente\");\r\n\r\n            // A conta de destino  de um cliente\r\n            require(isCliente(_to), \"O endereo no pertence a um cliente\");\r\n\r\n            require(pjsInfo[_to].estado == EstadoContaBlockchain.VALIDADA, \"A conta do endereo no est validada\");\r\n\r\n            mint(_to, _value);\r\n\r\n            emit Transfer(from, _to, _value); // Evento do ERC-20 para manter o padro na visualizao da transao \r\n            emit Liberacao(pjsInfo[_to].cnpj, pjsInfo[_to].idSubcredito, _value);\r\n\r\n        } else { \r\n\r\n            // A conta de origem existe\r\n            require(pjsInfo[from].cnpj != 0, \"No existe conta associada ao endereo\");\r\n\r\n            // O Cadastro esta valido para operar o BNDESToken\r\n            require(pjsInfo[from].estado == EstadoContaBlockchain.VALIDADA, \"A conta do endereo no est validada\");\r\n\r\n\r\n            if (isBNDES(_to)) { \r\n                // _to eh o BNDES. Entao eh RESGATE\r\n\r\n                // Garante que a conta de origem eh um fornecedor\r\n                require(isFornecedor(from), \"A conta no  de um fornecedor\");\r\n\r\n                _burn(from, _value);\r\n\r\n                emit Resgate(pjsInfo[from].cnpj, _value);\r\n\r\n            } else {\r\n\r\n                // Se nem from nem to so o Banco, eh transferencia normal\r\n\r\n                require(isCliente(from), \"O endereo de origem precisa ser um cliente\");\r\n\r\n                // A conta de destino existe        \r\n                require(pjsInfo[_to].cnpj != 0, \"No existe conta associada ao endereo \");\r\n\r\n                require(isFornecedor(_to), \"A conta de destino precisa ser de um fornecedor\");\r\n                require(pjsInfo[_to].estado == EstadoContaBlockchain.VALIDADA, \"A conta do endereo no est validada\");\r\n\r\n                emit Transferencia(pjsInfo[from].cnpj, pjsInfo[from].idSubcredito, pjsInfo[_to].cnpj, _value);\r\n  \r\n                _transfer(msg.sender, _to, _value);\r\n            }\r\n        }\r\n\r\n        return true;\r\n    }\r\n\r\n    function validarCadastro(address _addr, string memory _hashdeclaracao) onlyOwner public {\r\n\r\n        require(pjsInfo[_addr].estado == EstadoContaBlockchain.AGUARDANDO_VALIDACAO, \"A conta precisa estar no estado Aguardando Validao\");\r\n\r\n        require(keccak256(abi.encodePacked(pjsInfo[_addr].hashdeclaracao)) == keccak256(abi.encodePacked(_hashdeclaracao)), \"\");\r\n\r\n        pjsInfo[_addr].estado = EstadoContaBlockchain.VALIDADA;\r\n\r\n        emit ValidacaoConta(_addr);\r\n    }\r\n\r\n    function invalidarCadastro(address _addr) onlyOwner public {\r\n\r\n        require(pjsInfo[_addr].estado == EstadoContaBlockchain.AGUARDANDO_VALIDACAO, \"A conta precisa estar no estado Aguardando Validao\");\r\n\r\n        pjsInfo[_addr].estado = EstadoContaBlockchain.INVALIDADA_CADASTRO;\r\n\r\n        emit InvalidacaoCadastroConta(_addr);\r\n    }\r\n\r\n    function isContaReservada(address _addr) view public returns (bool) {\r\n\r\n        if (isBNDES(_addr) || isResponsibleForSettlement(_addr))\r\n            return true;\r\n\r\n        return false;\r\n    }\r\n\r\n    function isFornecedor(address _addr) view public returns (bool) {\r\n\r\n        if (isContaReservada(_addr))\r\n            return false;\r\n\r\n        return pjsInfo[_addr].idSubcredito == 0;\r\n    }\r\n\r\n    function isValidatedSupplier (address _addr) view public returns (bool) {\r\n        return isFornecedor(_addr) && (pjsInfo[_addr].estado == EstadoContaBlockchain.VALIDADA);\r\n    }\r\n\r\n\r\n    function isCliente (address _addr) view public returns (bool) {\r\n\r\n        if (isContaReservada(_addr))\r\n            return false;\r\n\r\n        return pjsInfo[_addr].idSubcredito != 0;\r\n    }\r\n\r\n    function isValidatedClient (address _addr) view public returns (bool) {\r\n        return isCliente(_addr) && (pjsInfo[_addr].estado == EstadoContaBlockchain.VALIDADA);\r\n    }\r\n\r\n    //TODO: isBNDES deveria pegar minters tb? Openzepellin abriu a possibilidade de adicionarmos novos minters\r\n    function isBNDES(address _addr) view public returns (bool) {\r\n        return (_addr == owner());\r\n    }\r\n\r\n    function isResponsibleForSettlement(address _addr) view public returns (bool) {\r\n        return (_addr == responsibleForSettlement);\r\n    }    \r\n\r\n    function notificaLiquidacaoResgate(string memory redemptionTransactionHash, string memory receiptHash, bool isOk) \r\n        public {\r\n        require (msg.sender==responsibleForSettlement, \"A liquidao no pode ser realizada pelo endereo que submeteu a transao\"); \r\n        emit LiquidacaoResgate(redemptionTransactionHash, receiptHash, isOk);\r\n    }\r\n\r\n    function getEstadoContaAsString(address _addr) view public returns (string memory) {\r\n\r\n        if ( isBNDES(_addr) ) {\r\n            return \"Conta Reservada - BNDES\";\r\n        } else if ( isResponsibleForSettlement(_addr)) {\r\n            return \"Conta Reservada - Liquidante do contrato\";\r\n        } else if ( isContaValidada(_addr) ) {\r\n            return \"Validada\"; \r\n        } else if ( pjsInfo[_addr].estado == EstadoContaBlockchain.INVALIDADA_CADASTRO ) {\r\n            return \"Conta invalidada no Cadastro\";\r\n        } else if ( pjsInfo[_addr].estado == EstadoContaBlockchain.INVALIDADA_TROCA ) {\r\n            return \"Conta invalidada por Troca de Conta\";\r\n        } else if ( isContaAguardandoValidacao(_addr) ) {\r\n            return \"Aguardando validao do Cadastro\";\r\n        } else if (isContaDisponivel (_addr)) {\r\n            return \"Disponvel\";\r\n        } else {\r\n            return \"Erro\";\r\n        }\r\n\r\n    }\r\n\r\n\r\n    function isContaDisponivel(address _addr) view public returns (bool) {\r\n        \r\n        if ( isContaReservada(_addr) ) {\r\n            return false;\r\n        } \r\n\r\n        return pjsInfo[_addr].cnpj == 0 && pjsInfo[_addr].estado == EstadoContaBlockchain.DISPONIVEL;\r\n    }\r\n\r\n    function isContaAguardandoValidacao(address _addr) view public returns (bool) {\r\n        return pjsInfo[_addr].estado == EstadoContaBlockchain.AGUARDANDO_VALIDACAO;\r\n    }\r\n\r\n    function isContaValidada(address _addr) view public returns (bool) {\r\n        return pjsInfo[_addr].estado == EstadoContaBlockchain.VALIDADA;\r\n    }\r\n\r\n\r\n\r\n}",
  "sourcePath": "D:/Workspace/bndestoken/Back-Blockchain/contracts/BNDESToken.sol",
  "compiler": {
    "name": "solc",
    "version": "0.5.0+commit.1d4f565a.Emscripten.clang"
  },
  "schemaVersion": "3.0.5",
  "updatedAt": "2019-04-30T22:52:31.000Z",
  "devdoc": {
    "methods": {
      "allowance(address,address)": {
        "details": "Function to check the amount of tokens that an owner allowed to a spender.",
        "params": {
          "owner": "address The address which owns the funds.",
          "spender": "address The address which will spend the funds."
        },
        "return": "A uint256 specifying the amount of tokens still available for the spender."
      },
      "balanceOf(address)": {
        "details": "Gets the balance of the specified address.",
        "params": {
          "owner": "The address to query the balance of."
        },
        "return": "An uint256 representing the amount owned by the passed address."
      },
      "burn(uint256)": {
        "details": "Burns a specific amount of tokens.",
        "params": {
          "value": "The amount of token to be burned."
        }
      },
      "burnFrom(address,uint256)": {
        "details": "Burns a specific amount of tokens from the target address and decrements allowance",
        "params": {
          "from": "address The address which you want to send tokens from",
          "value": "uint256 The amount of token to be burned"
        }
      },
      "decimals()": {
        "return": "the number of decimals of the token."
      },
      "isOwner()": {
        "return": "true if `msg.sender` is the owner of the contract."
      },
      "mint(address,uint256)": {
        "details": "Function to mint tokens",
        "params": {
          "to": "The address that will receive the minted tokens.",
          "value": "The amount of tokens to mint."
        },
        "return": "A boolean that indicates if the operation was successful."
      },
      "name()": {
        "return": "the name of the token."
      },
      "owner()": {
        "return": "the address of the owner."
      },
      "pause()": {
        "details": "called by the owner to pause, triggers stopped state"
      },
      "paused()": {
        "return": "true if the contract is paused, false otherwise."
      },
      "renounceOwnership()": {
        "details": "Allows the current owner to relinquish control of the contract."
      },
      "symbol()": {
        "return": "the symbol of the token."
      },
      "totalSupply()": {
        "details": "Total number of tokens in existence"
      },
      "transferOwnership(address)": {
        "details": "Allows the current owner to transfer control of the contract to a newOwner.",
        "params": {
          "newOwner": "The address to transfer ownership to."
        }
      },
      "unpause()": {
        "details": "called by the owner to unpause, returns to normal state"
      }
    }
  },
  "userdoc": {
    "methods": {
      "cadastra(uint256,uint256,uint256,string)": {
        "notice": "Associa um endereo blockchain ao CNPJ\r"
      },
      "renounceOwnership()": {
        "notice": "Renouncing to ownership will leave the contract without an owner. It will not be possible to call the functions with the `onlyOwner` modifier anymore."
      },
      "troca(uint256,uint256,uint256,string)": {
        "notice": "Reassocia um cnpj/subcrdito a um novo endereo da blockchain (o sender)\r"
      }
    }
  }
}